:100000000C94B8060C94E9060C94E9060C94E906E5
:100010000C94E9060C94E9060C94E9060C94E906A4
:100020000C94E9060C94E9060C94E9060C94E90694
:100030000C94E9060C94E9060C94E9060C94E90684
:100040000C94E9060C94E9060C94E9060C94E90674
:100050000C94E9060C94E9060C94E9060C94537789
:100060000C94E9060C9411670C94E7660C94E9066D
:100070000C94E9060C94E9060C94E9060C94E90644
:100080000C94E9060C94E9060C94E9060C94E90634
:100090000C94BD660C9493660C94E9060C94E611DE
:1000A0000C94E9060C94E9060C94E9060C94E90614
:1000B0000C94E9060C94E9060C94E9060C94E90604
:1000C0000C94E9060C94E9060C94E9060C94696614
:1000D0000C943F660C94E9060C9415660C94EB6541
:1000E0000C94E90605A84CCDB2D44EB93836A90215
:1000F0000C50B9918688083CA6AAAA2ABE00000026
:10010000803F07634236B79BD8A71A39685618AEA6
:10011000BAAB558C1D3CB7CC5763BD6DEDFD753E3C
:10012000F6177231BF000000803F08000000BE9249
:100130002449123EABAAAA2ABECDCCCC4C3E00002C
:100140000080BEABAAAAAA3E00000000BF000000CB
:10015000803F0000000000084178D3BB4387D113E3
:100160003D190E3CC3BD4282AD2B3E68EC8276BE8B
:10017000D98FE1A93E4C80EFFFBE01C4FF7F3F0055
:10018000000000000C9403A50C944D6E0C9480624A
:100190000C940B860C9406A50C94496E0C940F8C51
:1001A0000C94C08B0C94F2A40C940D830C94E39EDD
:1001B0000C9437930C94826F0C945D8D0C94C48BCB
:1001C0000C94415F0C943D630C94D3A40C9460A1F7
:1001D0000C94B18F0C94E1970C947D9D0C94FD9838
:1001E0000C9430950C94AF8D0C9491970C94686D91
:1001F0000C94628E0C94965F0C94B1A50C94A88616
:100200000C94BEA90C94766E0C941AA00C940395D1
:100210000C947B0A0C9477840C94956F0C94518108
:100220000C94A4A40C94F6960C944EA00C945D6FC0
:100230000C9468610C9408970C94C1090C9454A414
:100240000C94C8610C948FA20C94F8A40C94F66FD3
:100250000C9499840C94D0A40C940E600C94108D82
:100260000C94D1730C94BD940C943EA10C943895CD
:100270000C94398C0C9443970C949BA10C941F7490
:100280000C941FA50C94F18F0C94BE6C0C947A6F97
:100290000C94875F0C947E860C941B900C94A36F37
:1002A0000C94D9930C943C840C944C6F0C941A8449
:1002B0000C9400980C94E12E0C9464300C940B7404
:1002C0000C94758F0C9490960C944C740C947C6FD9
:1002D0000C94FB420C94679D0C94886F0C9470A551
:1002E0000C94A8A40C945A6E0C94546E0C94C76F82
:1002F0000C940F9E0C947F6E0C94FAA00C943862B0
:100300000C94DF870C9478820C94D89F0C94580836
:100310000C94A66C0C94E9610C94D3430C946A631E
:100320000C94929A0C9482A00C94A6850C944CA4E4
:100330000C9491920C94810A0C94E5970C94D496A9
:100340000C94BA950C9453080C94DC610C947D9039
:100350000C94D8A00C94A9620C94A0600C94D8734F
:100360000C94F52F0C94A88E0C94996F0C94686ED5
:100370000C94D9430C949B8F0C9444A40C94F807D0
:100380000C9492830C947E820C946B070C94F99CD1
:100390000C9488950C9412070C947C820C94519DBB
:1003A0000C94799E0C946DA50C940C850C94F5948A
:1003B0000C949B6F0C94489C0C94248E0C9406080F
:1003C0000C9446A40C9493610C947E0A0C94A89C03
:1003D0000C94C4A50C94C29F0C946D610C948884F9
:1003E0000C94A4830C9400080C9482820C94D59DE8
:1003F0000C94B28C0C9400840C94E4850C94AA5F49
:100400000C948A860C94850A0C9482A50C94AE2FC9
:100410000C94259D0C9481830C944EA40C945B9FAA
:100420000C94EB940C9414620C94976F0C94DD82F2
:100430000C94B6610C9408860C94456E0C94329A18
:100440000C9436300C94B85F0C9407950C940F9D67
:100450000C94676F0C942A6D0C94B6A00C94B28621
:100460000C94A80D0C948BA20C94AE9E0C94BF9D82
:100470000C94BB610C94F1730C942A960C94969F87
:100480000C94726F0C9440980C9415070C941C2FCC
:100490000C9487A20C9407850C9444950C9491A518
:1004A0000C943B9D0C946AA50C945B600C94D484D2
:1004B0000C94DD970C947C9C0C94806E0C94536F80
:1004C0000C943E070C9403740C9441840C947A8B26
:1004D0000C9476A40C94C78F0C94B2960C946B6F0A
:1004E0000C9456080C9463840C94F8820C9437078F
:1004F0000C9414070C9406780C94B4610C94F5A435
:100500000C9407630C94AC9F0C94270A0C94FCA4E5
:100510000C94548C0C9434A00C943D9F0C94718DCD
:100520000C94AE840C943F6E0C94646E0C945AA49C
:100530000C9480820C94EA6F0C94E5840C94E7642C
:100540000C947A6E0C94806F0C94019F0C945784D9
:100550000C9460740C9442740C9429740C9404A050
:100560000C945E6E0C94CA610C9414640C94A56F88
:100570000C9438740C9489A50C945B080C94F59B2E
:100580000C94F5630C94088C0C947A9A0C9448A4FF
:100590000C94EE9F0C942A9C0C94F6840C94296283
:1005A0000C944E8D0C9433940C94DA630C9468A0E4
:1005B0000C94846E0C9411A20C943F8D0C94449E68
:1005C0000C94BF850C94FDAC0C948F940C946A74BD
:1005D0000C94FB730C9418980C94858E0C944C9688
:1005E0000C94F6850C944A9A0C94B6860C94E3828B
:1005F0000C94498D0C94CC860C94756F0C94E695F4
:100600000C94CD430C9402080C940D6D0C94786FEF
:100610000C945D970C946C6E0C94846F0C94CA6C63
:100620000C946C850C9416950C94682F0C948A6F1E
:100630000C946C8D0C949F990C9484610C94DAA3A7
:100640000C9452980C944AA40C9400A50C94A16F9D
:100650000C9477970C94438E0C94F4890C94448DED
:100660000C944F8F0C94A5610C94500B0C94BF8488
:100670000C94DE610C94EF930C948D850C94669C25
:100680000C9437830C94E4920C945E860C942B8427
:100690000C9470830C94298F0C9451870C9424072C
:1006A0000C948DA40C94F3880C94CF860C947364F2
:1006B0000C94586F0C94F98A0C947A820C940594DB
:1006C0000C94859B0C9410080C94A99D0C946E6F4F
:1006D0000C9434950C94C9620C94228F0C9467800E
:1006E0000C94476F0C949A070C9445900C94866F69
:1006F0000C94628D0C9456740C9432860C946C8815
:100700000C9461940C94726E0C941F9F0C94E18C69
:100710000C94916F0C9466950C9466640C9413077A
:100720000C941CA10C9430980C94748A0C94678DD2
:100730000C94D6070C94D6A10C94BC820C94516EE8
:100740000C947EA50C9476890C947E6F0C94BE9CC0
:100750000C94929C0C940D8B0C9476820C94E77301
:100760000C9446840C94939D0C9472930C94988DE5
:100770000C9408960C94588D0C9416700C9492302E
:100780000C9464980C9404080C945EAA0C94538DF9
:100790000C94FD610C944B9B0C94CF610C94B6A40B
:1007A0000C949CA00C94A9820C9422820C94E58E4B
:1007B0000C94838C0C9422830C94629A0C9452A314
:1007C0000C946E960C944F910C94FF940C94D40757
:1007D0000C94FD830C9415740C94D36C0C94528679
:1007E0000C94DD730C94DE430C9433850C94F18DE2
:1007F0000C94D6825761726E696E673A2043616CC1
:1008000063756C61746564206D7573696320636FD3
:10081000756E74206578636565647320343039368D
:100820003B205344206361726420636F7272757061
:1008300074696F6E206C696B656C7921000102032D
:100840000405060708090A0B0C0D0E0F10111213F0
:100850001415161718191A1B1C1D1E1F20212223E0
:100860002425262728010203040506070809000A93
:100870000B0C0D0E0F10111200131415161718196A
:100880001A1B001C1D1E1F2021222324000102030D
:1008900004050000000000060708090A0000000027
:1008A000000B0C0D0E0F00000000001011121314AD
:1008B000000000000001020300000000000000042E
:1008C0000506000000000000000708090000000005
:1008D0000000000A0B0C00000000000000001C12C9
:1008E0000A041F160D02110C07010A0704000A1260
:1008F0001C040D161F02070C110104070A00010257
:10090000030405060708090A0B0C0D0E000102037B
:100910000405060708090A0B0C0E0D0C0B0A090842
:1009200007060504030201000C0B0A090807060567
:100930000403020100436F6D6D616E6420746F20CB
:1009400057616E643A2000B80BB80BAC0DAC0DA02B
:100950000F3D0064016501660167014552524F5227
:100960003A204E6F2063616C6C6261636B2061762C
:1009700061696C61626C6520666F72207061636B87
:1009800065742049442000000000006410B71DC8B1
:10099000206E3BAC30D9269041DC76F4516B6B581D
:1009A00061B24D3C7105502083B8ED44930FF0E8DF
:1009B000A3D6D68CB361CBB0C2649BD4D2D3867895
:1009C000E20AA01CF2BDBD4E6F20417564696F2024
:1009D000446576696365005573696E6720574156B3
:1009E0002054726967676572005761726E696E673D
:1009F0003A205253505F53595354454D5F494E4628
:100A00004F206E6F7420726563656976656421009E
:100A100056657273696F6E3A20005573696E672070
:100A200047505374617220417564696F00436F6E63
:100A300066696775726520506F776572204D6574C1
:100A4000657200556E61626C6520746F2066696E18
:100A50006420706F776572206D6F6E69746F726954
:100A60006E6720646576696365206F6E2069326306
:100A70002E20506F776572206D65746572206665F3
:100A80006174757265732077696C6C20626520648F
:100A9000697361626C65642E00506F776572204DDA
:100AA0006574657220526573756C743A200020007D
:100AB000496E697420706F776572206D6574657218
:100AC0002E2E2E0057616E642053796E6320456E82
:100AD000640057616E642053796E632053746172B1
:100AE00074003075983A10274C1D701757616E646A
:100AF0002053796E6368726F6E697A65640052651F
:100B000063762E2057616E6420536D6F6B652050A5
:100B10007265667300526563762E2057616E64209D
:100B2000436F6E6669672050726566730052656335
:100B3000762E2057616E6420446174613A20005221
:100B40006563762E2057616E6420436F6D6D616E14
:100B5000643A2000536176696E6720536D6F6B6550
:100B600020507265666572656E63657300536176C9
:100B7000696E672057616E642050726566657265A4
:100B80006E63657300536176696E67205061636BB5
:100B900020507265666572656E636573004174749A
:100BA000656E7561746F722053796E6320456E6453
:100BB00000417474656E7561746F722053796E6351
:100BC00020537461727400417474656E7561746F42
:100BD000722053796E6368726F6E697A6564005231
:100BE0006563762E20536D6F6B6520436F6E66696B
:100BF0006700526563762E2057616E6420436F6EE6
:100C000066696700526563762E205061636B2043EE
:100C10006F6E66696700526563762E204174746555
:100C20006E7561746F72204D6573736167653A20EC
:100C300000526563762E20417474656E7561746F21
:100C40007220436F6D6D616E643A200000002100D8
:100C5000240027002A002D0030003300010100008D
:100C6000040107010A0100002200250028002B00D2
:100C70002E003100340002010000050108010B01C3
:100C8000000020002300260029002C002F00320045
:100C9000000100000301060109010505050507051E
:100CA00008080808020202020A0A080804040404E8
:100CB0000101010101010101030303030303030314
:100CC000040707070C0C0C0C0C0C0C0C02020202A3
:100CD00006060606060606060B0B0B0B0B0B0B0B8C
:100CE000010210202008081020401020408002013E
:100CF0000201080402010102040810204080804023
:100D00002010080402018004020180402010080421
:100D100002010804020101020408102040800102BF
:100D200004081020408000000A0B02090C0D0E0878
:100D300007030401000000000000000000000000A4
:100D400000000000000000000000000000000000A3
:100D50000000121110000000000000000000000060
:100D6000000000000000000000000000FDAC06785C
:100D700011241FBECFEFD1E2DEBFCDBF00E00CBF1C
:100D800013E0A0E0B2E0ECE8F1E701E00BBF02C045
:100D900007900D92A835B107D9F729E1A8E5B3E08E
:100DA00001C01D92AB38B207E1F716E0C7EBD6E001
:100DB00000E006C021970109802FFE010E941EB3AA
:100DC000C63BD10780E00807A9F70E9452780C942F
:100DD000B4B80C94000020915404260F3327331F1D
:100DE00021323105ECF420917607FC0190E080E09F
:100DF000243069F082E00895A09154042191AC015F
:100E00004C5C5B4FA40FB52FB11D2C930196861738
:100E100098F380915404680F6093540480E008951F
:100E200081E00895089508950895E0912F07809135
:100E30002E07E81730F4F0E0E05DF84F808190E095
:100E400008958FEF9FEF089590912F0780912E07BF
:100E50002FEF3FEF981748F4E92FF0E0E05DF84FEF
:100E6000208130E09F5F90932F07C9010895809102
:100E70002E0790912F07891B990B0895CF92DF922F
:100E8000EF92FF920F931F93CF93DF937C01CB01DF
:100E90008A0120919E07222389F0EB016B01C40E89
:100EA000D51ECC15DD0569F06991D701ED91FC9156
:100EB0000190F081E02DC7011995F3CF642F0E94B6
:100EC000EB06C801DF91CF911F910F91FF90EF903A
:100ED000DF90CF900895CF93DF931F92CDB7DEB709
:100EE000698320919E072223F9F020919C072032EC
:100EF00058F021E030E0FC013383228390E080E071
:100F00000F90DF91CF91089580919D07E82FF0E039
:100F1000E458F84F998190838F5F80939D07809369
:100F20009C0781E090E0ECCF61E0CE0101960E9449
:100F3000EB06F7CF90E080E00895FC01208931892D
:100F4000848595852817390741F481E042895389C2
:100F5000268537854217530709F080E00895FC0184
:100F600020893189868597852817390741F481E0E2
:100F700042895389248535854217530709F080E05B
:100F80000895982F6830F0F4E62FF0E08827E453B6
:100F9000F84F8F4F0C941EB3D6071008F8070008BF
:100FA000D4070208040806088CE10895933020F461
:100FB000913040F085E00895933031F09430D1F3D2
:100FC00081E0089584E108958091A4078F5F8530C2
:100FD00068F4982F937051F08093A4078091A40730
:100FE000813071F0823061F38DE0089581E0F4CFBB
:100FF0008091A7079091A8070397A1F483E0089533
:101000008BE0089589E1089588E10895923031F0E8
:10101000943021F0911108C08DE108958FE1089579
:1010200083E108958FE008958EE108950F931F9353
:10103000CF93DF9320919C032F5F322F3770309333
:101040009C0320FF2BC020E831FD2064347009F0A0
:101050002062205FFC01EC01239600E011E067852F
:10106000662329F070E0C8010E940AB36F5F6187B0
:10107000822F869F080E80E0811D1124811110C0EF
:101080001682662311F0615061873196EC17FD07D7
:1010900031F7DF91CF911F910F91089520E0D4CFC8
:1010A00081508683EECF80E991E00895209A0895DB
:1010B00081E090E00895279A0895843008F080E058
:1010C00090914502E82FF0E080912902882399F061
:1010D000943259F0983261F0943121F0E750F74F93
:1010E00084910895EB50F74FFBCFEF50F74FF8CFB7
:1010F000E351F74FF5CF943251F0983259F09431D3
:1011000019F0E751F74FECCFEB51F74FE9CFEF5123
:10111000F74FE6CFE352F74FE3CF8823D1F1809129
:1011200013028823A1F18091190690911E0699233C
:1011300061F081110CC0E0913202F0E0E95DFF4EF8
:101140008081882351F05F9A0CC0882331F0E091B0
:101150003202F0E0E259FD4FF3CF8091F6058111A4
:10116000F2CF809113028823A9F080911906909103
:101170001E06992389F0811111C0E0913202F0E03E
:10118000E95DFF4E8081882379F0449A08955F9845
:10119000E8CF5F9844980895882331F0E0913202B7
:1011A000F0E0E259FD4FEECF8091F6058111EDCFD1
:1011B00008958823D1F1809113028823A1F18091B1
:1011C000190690911E06992361F081110CC0E091DF
:1011D0003202F0E0E95DFF4E8081882351F0429AAF
:1011E0000CC0882331F0E0913202F0E0E259FD4F6B
:1011F000F3CF8091F6058111F2CF809113028823FD
:10120000A9F08091190690911E06992389F0811109
:1012100011C0E0913202F0E0E95DFF4E8081882349
:1012200079F0A29A08954298E8CF4298A29808953A
:10123000882331F0E0913202F0E0E259FD4FEECF29
:101240008091F6058111EDCF0895E82FF0E08091AF
:101250004502843259F0883261F0843121F0EB5438
:10126000F74F84910895E357F74FFBCFEB59F74FB2
:10127000F8CFE35CF74FF5CF8823D1F080911E06BD
:10128000882341F0E0913202F0E0E95DFF4E808179
:10129000811108C080911906811104C0809118063F
:1012A000882331F080910B01886080930B010895B1
:1012B00080910B01877FF9CF81E080930C028093AE
:1012C0000B0280930A020895853608F084E62FEF1A
:1012D000829FC001112464E670E00E940AB3862F49
:1012E0000895AF92BF92CF92DF92EF92FF920F9349
:1012F0001F93CF93DF9300D0CDB7DEB75A01198289
:101300001A821B82882361F18B01E1E0F0E0E82E74
:10131000F12CD8012D918D012223F1F06F01B1E064
:10132000CB1AD108D501AC0DBD1D4C914423A1F0C1
:1013300030E02F5F3F4FD7010E94DBB2A42FB0E017
:1013400011969B01AC010E94A6B2A1E0B0E0AC0FE7
:10135000BD1FAC0DBD1D8C933196E430F105C9F66F
:1013600069817A818B810F900F900F90DF91CF91DF
:101370001F910F91FF90EF90DF90CF90BF90AF90B3
:1013800008956F927F928F92CF92DF92EF92FF92A9
:101390000F931F93CF93DF93CDB7DEB762970FB64E
:1013A000F894DEBF0FBECDBF8C016B017A01822F96
:1013B000A801475F5F4FB8016A5F7F4F0E947109C4
:1013C0003B01882ED8011C962C91C701F7FE04C062
:1013D000882799278E199F09DA82C9829C838B837B
:1013E0009E838D83688A798A8A8A213049F5CE0165
:1013F00001960E94160883E08D871F861E86F7FEE1
:1014000002C08DEF8D87D801ED91FC910088F189A4
:10141000E02DBE016F5F7F4FC801199562960FB630
:10142000F894DEBF0FBECDBFDF91CF911F910F911A
:10143000FF90EF90DF90CF908F907F906F90089506
:101440001C861B861A86198618861F82D4CFCF92D7
:10145000DF92EF92FF920F931F93CF93DF93CDB75D
:10146000DEB762970FB6F894DEBF0FBECDBF8C011A
:101470006B017A01822FA801475F5F4FB8016A5F55
:101480007F4F0E9471099B01482FD8011C968C91B7
:10149000DA82C982FC82EB82FE82ED82288B398B54
:1014A0004A8B813009F5CE0101960E9416081D86EF
:1014B0001F861E86D801ED91FC910088F189E02DF0
:1014C000BE016F5F7F4FC801199562960FB6F89401
:1014D000DEBF0FBECDBFDF91CF911F910F91FF9067
:1014E000EF90DF90CF9008951C861B861A86198690
:1014F00018861F82DCCF90E080E00895FC016487AD
:101500000895FC01848590E00895FC018685978507
:1015100008950F931F93CF93DF93EC018C01055E29
:101520001D4FD8018D919C91DC01ED91FC910084BF
:10153000F185E02D1995892B59F0F8018081918171
:10154000DC01ED91FC910284F385E02D1995E9CF42
:10155000CE010E94F86BFE01E65EFD4FCD5FDD4FD0
:1015600088818083DF91CF911F910F910895CF9251
:10157000DF92EF92FF920F931F93CF93DF93EC01D3
:1015800088810E940A738C010E9447772C893D89CB
:101590002017310731F06E8B7F8B888F998F1D8BD1
:1015A0000C8BCE88DF88E88CF98C6C197D098E094C
:1015B0009F09CA80DB80EC80FD806C157D058E055F
:1015C0009F0530F08A899B89998B888B1B8B0A8BAE
:1015D000288939898A899B892817390781F04A85A2
:1015E0005B8542305105A1F48E819F81A885B98524
:1015F0000196A11DB11D8E839F83A887B987DF91B6
:10160000CF911F910F91FF90EF90DF90CF900895B1
:101610004115510531F42130310589F7892B21F32A
:10162000EECF4130510559F7232B49F7019739F790
:10163000DBCF109253101092541010925B038091E4
:101640000F0690911006059721F460E08DE20C944E
:10165000337390E080E00C949D7320910F063091DD
:10166000100623303105C9F025303105C1F09091C5
:101670002F02992391F0882381F02230310521F443
:1016800090911E06992349F090915B03981739F0C9
:1016900080935B0390E00C949D730C94190B089558
:1016A0004F925F927F928F929F92AF92BF92CF9212
:1016B000DF92EF92FF920F931F93CF93DF932C0152
:1016C000EB010E946F74F20126893789621B730B4C
:1016D0006A307105B0F3F8948A819B811816190657
:1016E0000CF0CBC1E881F98105B1016075B17E7F55
:1016F00075B9BA848F812B2D281B822F2F834C859F
:10170000042E000C550BAA81BB81E888DF84C988B0
:10171000E394D394C3949E81388599848B841181FA
:1017200020E0F32E622F322F31811127889431115E
:10173000380F08F43FEF81958894E0FC130F17955C
:101740008894E1FC130F17958894E2FC130F17950A
:101750008894E3FC130F17958894E4FC130F1795F6
:101760008894E5FC130F17958894E6FC130F1795E2
:101770008894E7FC130F17958894232FE110212FED
:101780008B0D122F002C05B900C017FF75B93081E1
:101790002227889400C000C0002C75B93111390F80
:1017A00000C0002C05B900C016FF75B908F43FEF62
:1017B0009195889400C000C0002C75B9D0FC230F0F
:1017C00000C0002C05B900C015FF75B92795889495
:1017D000D1FC230F00C000C0002C75B92795889458
:1017E00000C0002C05B900C014FF75B9D2FC230F4E
:1017F0002795889400C000C0002C75B9D3FC230F36
:1018000000C0002C05B900C013FF75B92795889456
:10181000D4FC230F00C000C0002C75B92795889414
:1018200000C0002C05B900C012FF75B9D5FC230F0C
:101830002795889400C000C0002C75B9D6FC230FF2
:1018400000C0002C05B900C011FF75B92795889418
:10185000D7FC230F00C000C0002C75B927958894D1
:1018600000C0002C05B900C010FF75B9132FD110AE
:10187000122F990D00C000C0002C75B900C000C027
:10188000002C05B900C017FF75B932812227889452
:1018900000C000C0002C75B931113F0D00C0002CF4
:1018A00005B900C016FF75B908F43FEFE40FF51F46
:1018B00000C000C0002C75B9C0FC230F00C0002C74
:1018C00005B900C015FF75B927958894C1FC230F91
:1018D00000C000C0002C75B92795889400C0002C6A
:1018E00005B900C014FF75B9C2FC230F2795889471
:1018F00000C000C0002C75B9C3FC230F00C0002C31
:1019000005B900C013FF75B927958894C4FC230F4F
:1019100000C000C0002C75B92795889400C0002C29
:1019200005B900C012FF75B9C5FC230F279588942F
:1019300000C000C0002C75B9C6FC230F00C0002CED
:1019400005B900C011FF75B927958894C7FC230F0E
:1019500000C000C0002C75B92795889400C0002CE9
:1019600005B900C010FF75B9132FC110122FF194E3
:1019700000C000C0002C75B9F80C00C000C005B94B
:1019800000C017FF75B931812227889400C000C0BC
:10199000002C75B93111380F00C0002C05B900C0FA
:1019A00016FF75B908F43FEF8195889400C000C018
:1019B000002C75B9E0FC230F00C0002C05B900C055
:1019C00015FF75B927958894E1FC230F00C000C06E
:1019D000002C75B92795889400C0002C05B900C06B
:1019E00014FF75B9E2FC230F2795889400C000C04E
:1019F000002C75B9E3FC230F00C0002C05B900C012
:101A000013FF75B927958894E4FC230F00C000C02C
:101A1000002C75B92795889400C0002C05B900C02A
:101A200012FF75B9E5FC230F2795889400C000C00C
:101A3000002C75B9E6FC230F00C0002C05B900C0CE
:101A400011FF75B927958894E7FC230F00C000C0EB
:101A5000002C75B92795889400C0002C05B900C0EA
:101A600010FF75B9132FE110122F8B0D00C000C0AD
:101A7000002C75B9119709F086CEEA81FB812EE121
:101A800030E0DF010E9426B330E020E0A901AAE99E
:101A9000EA9F0E0E411DFA9F400D511D11244F0F5C
:101AA000511DDC01CB01840F951FA11DB11D893E85
:101AB00043E09407A105B10508F434C0885E934063
:101AC000A109B10942E0B695A795979587954A95E2
:101AD000D1F747E0849F080E211D949F200D311DF2
:101AE0001124290F311D60919B0370E0860F971F11
:101AF000820F931F40912A0750912B0760912C076A
:101B000070912D07292F3327420F531F611D711D1F
:101B100040932A0750932B0760932C0770932D074F
:101B200080939B0378940E946F74F201778B668B8D
:101B3000DF91CF911F910F91FF90EF90DF90CF90A9
:101B4000BF90AF909F908F907F905F904F9008953F
:101B50004F925F927F928F929F92AF92BF92CF925D
:101B6000DF92EF92FF920F931F93CF93DF932C019D
:101B7000EB010E946F74F20126893789621B730B97
:101B80006A307105B0F3F8948A819B8118161906A2
:101B90000CF0CBC1E881F98105B1006875B17F77A0
:101BA00075B9BA848F812B2D281B822F2F834C85EA
:101BB000042E000C550BAA81BB81E888DF84C988FC
:101BC000E394D394C3949E81388599848B84118146
:101BD00020E0F32E622F322F3181112788943111AA
:101BE000380F08F43FEF81958894E0FC130F1795A8
:101BF0008894E1FC130F17958894E2FC130F179556
:101C00008894E3FC130F17958894E4FC130F179541
:101C10008894E5FC130F17958894E6FC130F17952D
:101C20008894E7FC130F17958894232FE110212F38
:101C30008B0D122F002C05B900C017FF75B930812C
:101C40002227889400C000C0002C75B93111390FCB
:101C500000C0002C05B900C016FF75B908F43FEFAD
:101C60009195889400C000C0002C75B9D0FC230F5A
:101C700000C0002C05B900C015FF75B927958894E0
:101C8000D1FC230F00C000C0002C75B927958894A3
:101C900000C0002C05B900C014FF75B9D2FC230F99
:101CA0002795889400C000C0002C75B9D3FC230F81
:101CB00000C0002C05B900C013FF75B927958894A2
:101CC000D4FC230F00C000C0002C75B92795889460
:101CD00000C0002C05B900C012FF75B9D5FC230F58
:101CE0002795889400C000C0002C75B9D6FC230F3E
:101CF00000C0002C05B900C011FF75B92795889464
:101D0000D7FC230F00C000C0002C75B9279588941C
:101D100000C0002C05B900C010FF75B9132FD110F9
:101D2000122F990D00C000C0002C75B900C000C072
:101D3000002C05B900C017FF75B93281222788949D
:101D400000C000C0002C75B931113F0D00C0002C3F
:101D500005B900C016FF75B908F43FEFE40FF51F91
:101D600000C000C0002C75B9C0FC230F00C0002CBF
:101D700005B900C015FF75B927958894C1FC230FDC
:101D800000C000C0002C75B92795889400C0002CB5
:101D900005B900C014FF75B9C2FC230F27958894BC
:101DA00000C000C0002C75B9C3FC230F00C0002C7C
:101DB00005B900C013FF75B927958894C4FC230F9B
:101DC00000C000C0002C75B92795889400C0002C75
:101DD00005B900C012FF75B9C5FC230F279588947B
:101DE00000C000C0002C75B9C6FC230F00C0002C39
:101DF00005B900C011FF75B927958894C7FC230F5A
:101E000000C000C0002C75B92795889400C0002C34
:101E100005B900C010FF75B9132FC110122FF1942E
:101E200000C000C0002C75B9F80C00C000C005B996
:101E300000C017FF75B931812227889400C000C007
:101E4000002C75B93111380F00C0002C05B900C045
:101E500016FF75B908F43FEF8195889400C000C063
:101E6000002C75B9E0FC230F00C0002C05B900C0A0
:101E700015FF75B927958894E1FC230F00C000C0B9
:101E8000002C75B92795889400C0002C05B900C0B6
:101E900014FF75B9E2FC230F2795889400C000C099
:101EA000002C75B9E3FC230F00C0002C05B900C05D
:101EB00013FF75B927958894E4FC230F00C000C078
:101EC000002C75B92795889400C0002C05B900C076
:101ED00012FF75B9E5FC230F2795889400C000C058
:101EE000002C75B9E6FC230F00C0002C05B900C01A
:101EF00011FF75B927958894E7FC230F00C000C037
:101F0000002C75B92795889400C0002C05B900C035
:101F100010FF75B9132FE110122F8B0D00C000C0F8
:101F2000002C75B9119709F086CEEA81FB812EE16C
:101F300030E0DF010E9426B330E020E0A901AAE9E9
:101F4000EA9F0E0E411DFA9F400D511D11244F0FA7
:101F5000511DDC01CB01840F951FA11DB11D893ED0
:101F600043E09407A105B10508F434C0885E9340AE
:101F7000A109B10942E0B695A795979587954A952D
:101F8000D1F747E0849F080E211D949F200D311D3D
:101F90001124290F311D60919B0370E0860F971F5C
:101FA000820F931F40912A0750912B0760912C07B5
:101FB00070912D07292F3327420F531F611D711D6B
:101FC00040932A0750932B0760932C0770932D079B
:101FD00080939B0378940E946F74F201778B668BD9
:101FE000DF91CF911F910F91FF90EF90DF90CF90F5
:101FF000BF90AF909F908F907F905F904F9008958B
:10200000FF920F931F93CF93DF93EC01F62E08817D
:102010001981C8010E9471B2F81621F06F2DC80114
:102020000E9479B2CE01DF91CF911F910F91FF9065
:1020300008958F929F92AF92BF92CF92DF92EF92CC
:10204000FF920F931F93CF93DF931F921F92CDB7F1
:10205000DEB78C0119828FEF8A83680125EEC21AE0
:102060002DEFD20AD6018D919C91DC01ED91FC916E
:102070000084F185E02D1995F801E75EFD4F7F01A1
:10208000892B09F449C081E089834801FDEF8F1A4B
:102090009F0A580126EEA21A2DEFB20AD6018D91A1
:1020A0009C91DC01ED91FC910084F185E02D199566
:1020B000892B09F1F60180819181DC01ED91FC9180
:1020C0000284F385E02D19958A83AE014F5F5F4F3F
:1020D000BE016E5F7F4FC8010E94306CF7018083A4
:1020E000D4018C91F50180838330C1F218161CF065
:1020F000C8010E94890AF70180810F900F90DF913B
:10210000CF911F910F91FF90EF90DF90CF90BF90F4
:10211000AF909F908F900895AE014F5F5F4FBE01CB
:102120006E5F7F4FC8010E94306CD7018C93F8011D
:10213000ED5FFD4F808177968083D8CFBF92CF929D
:10214000DF92EF92FF920F931F93CF93DF931F9233
:10215000CDB7DEB78C016B01B42EDB018D919C9164
:10216000F801E15FFD4F7F018F3F910508F475C0D5
:102170008FEF80836801F80180E091919E3709F02C
:1021800067C0D7018C9348E852E0B801C8010E94AB
:10219000106C4091830A5091840A980122503F4F5D
:1021A00080E0D601ED916D01E827E40FF52FF11DD8
:1021B00080812A173B07A9F7F801E350FE4FB08250
:1021C000F7019081F801E250FE4F90839EEF319627
:1021D0009083319680838EEFF82E6801B5EECB1A8E
:1021E000BDEFDB0AF60180819181B80164507E4F1A
:1021F000DC01ED91FC910280F381E02D44E050E0A0
:102200001995F601808191814F2D50E0DC01ED910F
:10221000FC910280F381E02DB8011995F6018081CF
:102220009181B8017E5FDC01ED91FC910280F38128
:10223000E02D42E050E019958F2D0F90DF91CF9166
:102240001F910F91FF90EF90DF90CF90BF90089576
:102250008F5F8E3F09F091CF96CF982F8FEF8083BD
:10226000F80180E0891728F421912E3719F5F7013C
:102270008083D6018C918983AE014F5F5F4FB80197
:10228000C8010E94106CF601208131814091830ABF
:102290005091840AD80180E03327BD01601B710B87
:1022A0006217730748F4ED91E827E40FF52FF11D4D
:1022B0008081F3CF8F5FD6CFF801E350FE4FB0821D
:1022C000D7019C9131969083F6019081F801E150FD
:1022D000FE4F908331968083D601FC907ECF109282
:1022E000760781E0809375071092500761E084E1E2
:1022F0000E94337361E085E10E943373E9EBF0E003
:1023000080818E7F808380818D7F808388E480932D
:10231000B80085E48093BC000895CF93DF9391E0EB
:10232000909333048823B9F0C091B800D091BA00DB
:102330008091BC008A7B8093BC0060E084E10E94B5
:10234000337360E085E10E9433730E946F11D09374
:10235000BA00C093B800DF91CF91089585ED8093C6
:10236000BC008091780790917907A0917A07B0918D
:102370007B070796A11DB11D23E0B695A7959795FC
:1023800087952A95D1F72091BC0024FD03C01092B7
:1023900076070895409178075091790760917A0700
:1023A00070917B07452B462B472B69F30097A105BE
:1023B000B10541F02AE22A95F1F700C00197A10981
:1023C000B109E1CF809177070C948D111F920F9284
:1023D0000FB60F9211240BB60F922F933F934F938A
:1023E0005F936F937F938F939F93AF93BF93EF937D
:1023F000FF938091B900887F803609F44DC008F0C2
:1024000040C0883209F4A9C028F5803109F49DC084
:10241000C8F4882309F4FBC0883009F496C0FF9102
:10242000EF91BF91AF919F918F917F916F915F914C
:102430004F913F912F910F900BBE0F900FBE0F90B9
:102440001F901895883109F488C0803241F7809335
:10245000740714C0803409F49DC040F48033B9F38C
:102460008833E9F68093740785ECB0C0803509F4B1
:1024700085C0883509F496C0883489F60E94AE116B
:10248000CECF883909F48CC038F5883729F050F45C
:10249000883611F0803719F683E080937607109222
:1024A000760457C0883809F47BC0803919F0803829
:1024B00009F0B5CF80917604803208F071C0E091C8
:1024C000760481E08E0F809376048091BB00F0E06B
:1024D000EA5AFB4F80833DC0803B39F0E0F4803AFC
:1024E00009F479C0883A09F09ACF84E0809376079E
:1024F0001092550410925404E0917704F0917804FE
:1025000019958091540481110FC081E08093540487
:102510001092340409C0803C09F4A6CF883C09F429
:10252000A3CF883B09F07BCFE091550481E08E0F6B
:1025300080935504F0E0EC5CFB4F80818093BB00FE
:10254000909155048091540429C080915107809343
:10255000BB0085EC8093BC0062CF909173078091A3
:102560007207981758F5E091730781E08E0F8093FA
:102570007307F0E0EE5AF84F8081E9CFE0917307DE
:1025800081E08E0F809373078091BB00F0E0EE5ADC
:10259000F84F808390917307809172079817C8F263
:1025A00085E8D8CFE091730781E08E0F80937307A1
:1025B0008091BB00F0E0EE5AF84F80838091750760
:1025C00081115CCF81E08093500784EA8093BC0046
:1025D0001092760724CF85EC8093BC00109276078A
:1025E00080917604803230F4E0917604F0E0EA5A8B
:1025F000FB4F10826091760470E0E0917904F091D5
:102600007A0486E594E019951092760408CF10922A
:10261000740734CF8F929F92AF92BF92CF92DF9286
:10262000EF92FF920F931F93CF93DF93FC012085CE
:10263000211110C060E070E0CB01DF91CF911F91BC
:102640000F91FF90EF90DF90CF90BF90AF909F9051
:102650008F900895EC010E94477729852111EACFD8
:102660008C809D80AE80BF80088119812A813B814A
:102670006B017C01C818D908EA08FB08C016D1060E
:10268000E206F306B8F6080D191D2A1D3B1D680168
:102690007901C61AD70AE80AF90AC701B601CDCFEF
:1026A000CF92DF92EF92FF921F93CF93DF93FC01C3
:1026B000108511110AC010E0812FDF91CF911F9179
:1026C000FF90EF90DF90CF900895EC0181858823F3
:1026D00019F018861986F0CF0E944777CC80DD80EC
:1026E000EE80FF806C197D098E099F09C880D98012
:1026F000EA80FB806C157D058E059F0550F7DBCFCA
:10270000CF93DF93EC01488359836A837B830E94D4
:1027100047776C837D838E839F8381E088871986CA
:10272000DF91CF9108950F931F93CF93DF93EC0127
:102730000E9447778B019C018C819D81AE81BF8176
:10274000488159816A817B81081B190B2A0B3B0B3D
:10275000041715072607370738F4CE01DF91CF910C
:102760001F910F910C948013840F951FA61FB71F04
:102770008C839D83AE83BF8381E088871986DF9138
:10278000CF911F910F910895FC0144815581608183
:10279000718182EE99E00E94415F6AED72E082EE03
:1027A00099E00C945865FF920F931F93CF93DF939A
:1027B0001F921F92CDB7DEB7182FF62E072F1A8261
:1027C000198265E379E082EE99E00E94C765612F86
:1027D00082EE99E00E94F172E6E9F3E091E09083E5
:1027E0001183F282038384E08483E1E9FAE0908339
:1027F0001183F2820383848385E090E09A83898346
:1028000041E0BE016F5F7F4FCF010E949E100F908D
:102810000F90DF91CF911F910F91FF90089570E07D
:1028200060E00C94D313CF93DF931F921F92CDB728
:10283000DEB76091530F3091510F41E04093900308
:102840008093910394E09093950323E0E3E0F6E016
:10285000DF01522F1D925A95E9F7883309F467C0BA
:10286000C8F4823109F463C08B3209F489C0833023
:1028700009F081C0EFE1F6E0A2EBBCE081918D931D
:1028800086E0EA33F807D1F78BE190E09A838983F9
:1028900046E06AC0823509F42CC1833509F439C198
:1028A000813509F068C06C53770B8091470680939F
:1028B000720680911606809373068091A707809315
:1028C0007406FB01E31BF10937FDF39534E63E9FE7
:1028D000C0013F9F900D11240E940AB360937506BA
:1028E00080912E0280937A0680912D0280937B0640
:1028F00080912C0280937D0680910E0680937C0649
:1029000080910D068093790680912B028093770643
:1029100080911106909112068230910509F4D7C07A
:1029200008F047C0019709F44DC084E0D1C0209160
:10293000370220939203909138029093930331E0F1
:102940003093B20C8093B30C2093B40C9093B50CDD
:10295000809194038093B60C84E08093B70C86E05A
:1029600090E09A83898342E0BE016F5F7F4F82EBE4
:102970009CE00E949E100F900F90DF91CF910895E0
:1029800050913D025093920330913C023093930357
:1029900020913B02209394034093B20C8093B30C9C
:1029A0005093B40C3093B50C2093B60C9093B70CA5
:1029B000D6CF8330910509F48EC0059709F0B5CFC5
:1029C00085E086C0409376068091450280937E061E
:1029D0008091370280937F06809138028093800631
:1029E00080912A0280938106809129028093780643
:1029F000809128028093820680912702809383062B
:102A00008091260280938E06809125028093840611
:102A1000809122028093860680910B0690910C068D
:102A20008130910509F45AC0029709F459C081E038
:102A300080938506809121028093870680913502DC
:102A400080938806809136028093890680912002C7
:102A500080938A0680910A06813009F443C010925F
:102A60008B068091090680938C0680911F0281302D
:102A7000E1F18230E1F181E080938D0680914602A0
:102A800080938F068091080680939006809139028A
:102A90008093910680913A028093920680911E0263
:102AA000809393068091070680939406E2E7F6E010
:102AB000A2EBBCE085E996E021912D938E179F074C
:102AC000D9F783E290E09A83898343E04DCF82E097
:102AD0008093760679CF2093760676CF82E0A8CFD2
:102AE00083E0A6CF80938B06BCCF82E0C5CF83E086
:102AF000C3CFEEE5F6E0A2EBBCE081918D9356E00A
:102B0000E237F507D1F784E190E09A83898344E0C6
:102B10002BCF80913E0280934A0680913F028093A2
:102B20004B068091400280934C0680914102809335
:102B30004D068091420280934E0680911C02909136
:102B40001D0228EE33E0B9010E94F6B260934F06F1
:102B500080911A0290911B02B9010E94F6B2609313
:102B600050068091180290911902B9010E94F6B2A4
:102B7000609351068091160290911702B9010E944C
:102B8000F6B2609352068091140290911502B90139
:102B90000E94F6B260935306809113028093490617
:102BA00080914406811119C0409354061092550635
:102BB0001092560610925706109258068EE1809396
:102BC000590683E280935A0688E280935B0682E38B
:102BD00080935C068CE380935D06E9E4F6E0A2EB6B
:102BE000BCE081918D9386E0EE35F807D1F785E161
:102BF00090E09A83898345E0B7CE80913E0690911C
:102C00003F06892B91F080919F079091A007019733
:102C1000039758F460914E0F062E000C770B8091AD
:102C20003C0690913D060E948C708BE20C9413142C
:102C300080919F079091A0070197039708F0B4C176
:102C400060914F0F062E000C770B8CE390E00E94F2
:102C50008C7060914F0F062E000C770B89E491E089
:102C60000E948C7060914F0F062E000C770B8BE446
:102C700090E00E948C7060914F0F062E000C770B35
:102C80008EE790E00E948C7060914F0F062E000C32
:102C9000770B8BE691E00E948C7060914F0F062EAF
:102CA000000C770B8FE790E00E948C7060914F0FC3
:102CB000062E000C770B83EB90E00E948C706091E5
:102CC0004F0F062E000C770B82E090E00E948C7074
:102CD0008091A7079091A80760914F0F82309105CE
:102CE00009F412C1039709F462C1062E000C770B98
:102CF00080911A0690911B06029709F067C16E51E8
:102D0000710981E090E00E948C7060914F0F062E57
:102D1000000C770B6E5171098FE090E00E948C706F
:102D200060914F0F062E000C770B6852710980E1FD
:102D300090E00E948C7060914F0F062E000C770B74
:102D40006E5171098DE991E00E948C7060914F0F76
:102D5000062E000C770B6852710985E991E00E94FC
:102D60008C7060914F0F062E000C770B8CE591E074
:102D70000E948C7060914F0F062E000C770B82EA38
:102D800091E00E948C7060914F0F062E000C770B23
:102D900080E991E00E948C7060914F0F062E000C2C
:102DA000770B6451710980E691E00E948C7060910C
:102DB0004F0F062E000C770B6451710982E190E0F1
:102DC0000E948C7060914F0F062E000C770B64519F
:102DD000710983E190E00E948C7060914F0F062E84
:102DE000000C770B6451710984E190E00E948C70B3
:102DF00060914F0F062E000C770B6451710985E12D
:102E000090E00E948C7060914F0F062E000C770BA3
:102E10006451710986E190E00E948C7060914F0FBF
:102E2000062E000C770B645171098DE890E00E942A
:102E30008C7060914F0F062E000C770B6451710956
:102E40008FE890E00E948C7060914F0F062E000C6E
:102E5000770B6451710983E990E00E948C70609156
:102E60004F0F062E000C770B645171098EE890E02D
:102E70000E948C7060914F0F062E000C770B6451EE
:102E8000710980E990E00E948C7060914F0F062ECE
:102E9000000C770B6451710982E990E00E948C70FC
:102EA00060914F0F062E000C770B6451710984E975
:102EB00090E00E948C7060914F0F062E000C770BF3
:102EC0006451710981E990E00E948C7060914F0F0C
:102ED000062E000C770B8AE691E00E948C706091C0
:102EE0004F0F062E000C770B89E691E00E948C7044
:102EF00080912A048823C1F060914F0F062E000CA8
:102F0000770B8EE491E00EC0062E000C770B8BE75A
:102F100091E00E948C7060914F0F062E000C770B91
:102F20008CE791E00E948C7080911A0690911B06AC
:102F30008230910509F46FC08330910509F4A0C077
:102F4000019709F487C080911E06882369F160917A
:102F50004F0F062E000C770B82E690E00E948C70DB
:102F600060914F0F062E000C770B8FE791E00E94C7
:102F70008C7060914F0F062E000C770B89E891E062
:102F80000E948C7060914F0F062E000C770B83E629
:102F900090E00E948C7060914F0F062E000C770B12
:102FA00088E490E00E948C708BE20C941314062E3F
:102FB000000C770B85E290E00E948C7060914F0FBF
:102FC000062E000C770B86E290E0ACCF81E090E01B
:102FD0000E948C7060914F0F062E000C770B8FE0D3
:102FE00090E00E948C7060914F0F062E000C770BC2
:102FF00080E190E00E948C7060914F0F062E000CD3
:10300000770B8DE991E00E948C7060914F0F062E36
:10301000000C770BA2CE60914F0F062E000C770BA1
:1030200082E390E00E948C7060914F0F062E000C9E
:10303000770B84E591E00E948C7080911E068823B6
:1030400009F4B2CF60914F0F062E000C770B84E38A
:1030500090E0A8CF60914F0F062E000C770B87E30E
:1030600090E00E948C7080911E06882309F49CCF0A
:1030700060914F0F062E000C770B8AE390E092CF01
:1030800060914F0F062E000C770B87E491E08ACFFA
:10309000CF93DF931F921F92CDB7DEB7EBE8F3E03B
:1030A00021E0208381836283738394E09483E2EB45
:1030B000FCE02083818362837383948385E090E0C6
:1030C0009A83898341E0BE016F5F7F4FCF010E94E9
:1030D0009E100F900F90DF91CF91089570E060E007
:1030E0000C944818E8E2F0E18091420280838091DC
:1030F0004102818380914002828380913F028383D9
:1031000080913E028483089580914502843251F07B
:10311000883221F0843141F48AE001C087E0809355
:103120000402089585E0FBCF8FE0F9CF80910B0674
:1031300090910C06892B21F088E08093030208957A
:103140001092030208959091460280914502890FE2
:1031500027E0280F20935B199093441980935A1904
:10316000809121022091090640910B0650910C0696
:10317000452BA9F0909103023FEF390F30934302A2
:1031800090931211980F8FEF890F809311119093E4
:1031900010118FEF820F890F80930F1108951092F5
:1031A0004302109212119FEF980F90931111809388
:1031B0001011820F8150F0CF81E080933002809314
:1031C0000F0280930E02089580912B02882349F00C
:1031D00081E02091CF103091D010232B19F080E0A6
:1031E000089581E0089580911A0690911B06029738
:1031F00049F480912602882331F081E090914502C4
:103200009C3009F480E00895BF92CF92DF92EF9254
:10321000FF920F931F93CF93DF938C0180912A022B
:103220000E946409B82EF0904319C09144198FE2AE
:1032300099E10E945013882309F4A8C1FC1A8F2D2C
:103240000E942509E82E80910C02882309F460C0B1
:1032500085E08093340289E099E10E9487678823A2
:1032600089F010920C021093090200930802A80141
:1032700070E060E08FE299E10E9480138CE380931C
:103280005D031AC089E099E10E94F16790930902F9
:1032900080930802AC0170E060E08FE299E10E9447
:1032A000801380915D038F5F8F3080F180935D0389
:1032B00080915D038D3310F780911E0681110CC043
:1032C00080911906811108C080911806811104C0EF
:1032D00080915D030E942D0B80913002682F70E079
:1032E00090914502943209F48CC0983219F09431CF
:1032F00009F0F4C0823008F086C0C8010E94F6B21E
:10330000EB01CC0FDD1FC60FD71F97C08FE0CECFCC
:1033100080913104882399F185E08093340289E01B
:1033200099E10E948767882319F010923104C4CF75
:1033300089E099E10E94F167EC0190930902809382
:103340000802AC0170E060E08FE299E10E94801316
:10335000C932D10568F080915D03843220F081503C
:1033600080935D0305C0C536D10510F08031B8F7F4
:1033700080915D038F3008F09FCF8FE080CF109356
:103380000902009308028091300290914502943224
:1033900011F0983211F58230D8F0A801481B51097C
:1033A0004017510710F050E040E0909131028B5FE0
:1033B000911101C085E080933402809134028B30FA
:1033C00018F08AE0809334024115510589F012C04B
:1033D00085E080933402A801F0CF95E09093340209
:1033E000A801823088F3481B51094017510760F348
:1033F00041E050E070E060E08FE299E10E948013CC
:103400005BCF823048F0E801C61BD70BC017D1074D
:10341000A0F0C1E0D0E013C0C8010E94F6B2EB01F9
:1034200080910C02811109C080913104811105C085
:10343000CB01880F991FC80FD91F209751F30E9405
:10344000F3188111A3C0EF2DF0E0E156FC4F80810D
:1034500081111BC0EE20C9F0809131028823A9F0B0
:1034600029E1F29EC00111249C01275C3E4E6901B6
:1034700060E0C9010E94266A9E0150E040E004E13C
:1034800010E06B2DC6010E94F3698091250288230C
:1034900009F486C080914502843251F1883209F4E2
:1034A0007FC0909131048431E9F591110DC0809174
:1034B0000C02811109C080911806811105C080910C
:1034C000FE05882309F472C092E29F1548F181EF4E
:1034D0008F0D853008F068C089E03AC0823008F06E
:1034E00092CFC8010E94F6B2EB01CC0FDD1FA5CF31
:1034F0008091310481110DC080910C02811109C0AD
:1035000080911806811105C08091FE05882309F479
:103510004DC037E28BE1F316D9F083E1F81242C0D7
:103520008FE016C091110CC080910C02811108C06F
:1035300080911806811104C08091FE058823B1F1A5
:1035400020E22F1548F283EF8F0D873088F585E054
:103550002091290290914319222309F454C0E110CB
:1035600029C020918803281728F52F5F209388030E
:10357000209143198091460290E0879628171906FA
:1035800029F024F08091441980934319DF91CF9161
:103590001F910F91FF90EF90DF90CF90BF90089513
:1035A00080E0D6CF85E1D4CF8BE0D2CF83E0D0CFFF
:1035B00087E0CECF10928803C92FE11020C0209160
:1035C00044190C2F10E0822F90E087968017910706
:1035D0007CF28C2F821B0E942509882319F0C0934E
:1035E0004319C6CF8091460290E0879608171907C5
:1035F00021F48091441980934319CF5FE0CF9F5FFE
:1036000090934319B5CFE11012C020918803281779
:1036100070F42F5F2093880390914319809144198F
:10362000981708F0B3CF80914602895DADCF109214
:103630008803C92FE11010C0809144198C1760F7DE
:103640003C2F381B832F0E942509882319F0C09333
:103650004319E2CFC150F0CF915090934319DCCF82
:103660008091A7079091A8078230910528F08430B7
:10367000910568F0059711F18CE291E090930902B1
:103680008093080290930702809306020895609148
:1036900023027091240290E080E00E9452B126E65D
:1036A00036E646EA5FE30E94B3B10E9438B47093F5
:1036B0000902609308028CE291E0E4CF88EC90E08C
:1036C0009093090280930802F6CFDF92EF92FF9267
:1036D0000F931F93CF93DF938FE9E82E83E0F82EAB
:1036E0000EE513E0D0E0C0E0DD24D394F7011192A1
:1036F0007F0160E0CE018F5D9A4E0E94266A60E0F5
:10370000CE01875C9E4E0E94266AF801D1928F01FD
:103710006996C83EF3E0DF0749F7DF91CF911F912B
:103720000F91FF90EF90DF9008950F931F93CF9329
:10373000DF9300D000D0CDB7DEB78FEF9FEFDC0175
:1037400089839A83AB83BC8310E000E01E830D83E2
:10375000BE016B5F7F4FCE0101960E943B67BE01A9
:103760006A5F7F4FCE0101960E943B670F5F1F4F3C
:103770000D32110559F78BE190E09E838D83BE01D8
:103780006B5F7F4FCE0101960E943B67BE016A5F6F
:103790007F4FCE0101960E943B6782E190E09E83BD
:1037A0008D83BE016B5F7F4FCE0101960E943B6708
:1037B000BE016A5F7F4FCE0101960E943B6769811F
:1037C0007A818B819C8160957095809590952696E5
:1037D0000FB6F894DEBF0FBECDBFDF91CF911F9122
:1037E0000F910895EF92FF920F931F93CF93DF9362
:1037F00000D000D0CDB7DEB70E94951B69837A83D5
:103800008B839C83CE0101967C010CEF1FE01E830D
:103810000D83F70161917F01CE0105960E94001092
:103820000F5F1F4F0115F0E11F0789F726960FB6AE
:10383000F894DEBF0FBECDBFDF91CF911F910F91E6
:10384000FF90EF9008952F923F924F925F926F9268
:103850007F928F929F92AF92BF92CF92DF92EF9220
:10386000FF920F931F93CF93DF93CDB7DEB76F9780
:103870000FB6F894DEBF0FBECDBF6091530F6C53EF
:10388000770B8091510F9B01281B310987FD3395E0
:1038900044E6429FC001439F900D11240E940AB349
:1038A000262F362F2090160680911C0290911D0223
:1038B000E8EEF3E0BF010E94F6B2C62E80911A0234
:1038C00090911B02BF010E94F6B2D62E8091180281
:1038D00090911902BF010E94F6B2E62E8091160265
:1038E00090911702BF010E94F6B2F62E8091140249
:1038F00090911502BF010E94F6B2662E80912E02B1
:1039000077247394882311F0F2E07F2E80912902AE
:1039100088248394882311F0E2E08E2E8091270280
:1039200099249394882311F072E0972E80912502B8
:10393000AA24A394882311F062E0A62E809113029A
:10394000BB24B394882311F052E0B52E80912D0250
:1039500061E0811162E080912C0201E0811102E0BE
:1039600080910E0612E0811101C011E0809147069E
:1039700090914806B2E0019709F0B1E08091070606
:10398000A2E0811101C0A1E080912602811193C0C3
:1039900081E08E8F80910D06882309F48FC0E2E0CC
:1039A000EF8F80912B0242E0342E811102C033242C
:1039B00033948091280272E0811171E081E0820FDE
:1039C000353608F085E690913E0251E0911152E0C3
:1039D00090913F0241E0911142E09091400291119B
:1039E00070C091E02091410255245394222311F09C
:1039F00032E0532E2091420244244394222311F0BA
:103A000022E0422E209111063091120621503109F8
:103A10002530310508F057C02B593D4FF901208161
:103A200079828A829B82AC82BD826E830F831887E3
:103A30002986BA87AB87FE8DFC873F8D3D877E87C1
:103A40008F87C88AD98AEA8AFB8A6C8A5D8B4E8BFB
:103A50009F8B588E498E2A8F3B8ECE0101967C011A
:103A600002E110E01D8F0C8FF70161917F01CE0103
:103A70004C960E9400100F5F1F4F0D32110591F7F9
:103A80000E94F21B6F960FB6F894DEBF0FBECDBF3B
:103A9000DF91CF911F910F91FF90EF90DF90CF902A
:103AA000BF90AF909F908F907F906F905F904F905E
:103AB0003F902F90089592E09E8F6CCFF1E0FF8FA2
:103AC00070CF92E08FCF24E0ABCF0F931F93CF93B3
:103AD000DF931F921F92CDB7DEB702E110E01A8389
:103AE00009836FEFCE0101960E9400100F5F1F4FF8
:103AF0000D321105A1F70E94F21B0F900F90DF917C
:103B0000CF911F910F910895EF92FF920F931F9302
:103B1000CF93DF93CDB7DEB764970FB6F894DEBFCF
:103B20000FBECDBF80910A0632E0813009F031E04E
:103B300080911F0293E0813021F094E0823009F0FF
:103B400092E040910B0650910C0682E04115510520
:103B500029F083E04130510509F084E02091080606
:103B6000222309F451C022E040914602498340914A
:103B700045024A83409121024B833C8330913902B4
:103B80003D83309137023E83309135023F8330913F
:103B90003A023887309138023987309136023A87B5
:103BA00030911E023B8730912A023C8730912002DF
:103BB0003D87309122023E87309109063F87988BDE
:103BC000898B2A8BCE0101967C0110E000E01C8BD2
:103BD0000B8BF70161917F01CE0143960E9400108B
:103BE0000F5F1F4F0231110591F70E94F21B64967F
:103BF0000FB6F894DEBF0FBECDBFDF91CF911F91FE
:103C00000F91FF90EF90089521E0AECF0F931F9397
:103C1000CF93DF931F921F92CDB7DEB710E000E085
:103C20001A8309836FEFCE0101960E9400100F5F87
:103C30001F4F02311105A1F70E94F21B0F900F9048
:103C4000DF91CF911F910F91089520913A068091B5
:103C50009F079091A00701970397C0F480913E06BB
:103C600090913F06211107C021E020933A0665E0BC
:103C7000892B31F4089510923A06892BD9F366E026
:103C800080913C0690913D060C94886E211104C0F1
:103C900081E080933A06089510923A06EBCF809126
:103CA0009F079091A0070197039798F480913E0693
:103CB00090913F06892B59F080913C0690913D06EA
:103CC000843F21E0920718F064E00E94886E0E9411
:103CD000957110923B061092400661E070E084E21C
:103CE0000E94D31360913C0670913D0685E40C94CC
:103CF000481880913E0690913F06892B09F470C0C8
:103D000080913C0690913D06843F21E0920708F4A3
:103D100067C021E02093400620919F073091A007C3
:103D20002230310509F43FC02330310519F021302C
:103D30003105F9F420913A0665E0211101C066E0F1
:103D40000E94886E60914E0F062E000C770B8091BA
:103D50003C0690913D060E948C7061E080913C068B
:103D600090913D060E94EE700E94957181E08093D3
:103D70000A0840E157E260E070E084E59FE00E94BD
:103D800080138091400661E070E0882311F062E0CA
:103D900070E084E20E94D31360913C0670913D066E
:103DA00084E40C94481820913A0665E0211101C082
:103DB00066E00E94886E60914E0F062E000C770B15
:103DC00080913C0690913D060E948C7050E040E04E
:103DD00061E080913C0690913D060E945970C4CFED
:103DE0000895CF93DF93C0913C06D0913D06219773
:103DF000C43F81E0D80730F4C0913E06D0913F0621
:103E0000CD50DE4F80914006882351F00E944F1E16
:103E1000D0933D06C0933C06DF91CF910C94791E60
:103E2000D0933D06C0933C06BE0185E4DF91CF915F
:103E30000C944818CF93DF93C0913C06D0913D0677
:103E4000219680913E0690913F068D509E4F8C1793
:103E50009D0710F4C4EFD1E080914006882351F013
:103E60000E944F1ED0933D06C0933C06DF91CF9138
:103E70000C94791ED0933D06C0933C06BE0185E4A8
:103E8000DF91CF910C94481820919F073091A007A3
:103E9000215031092330310518F464E00C94886E08
:103EA00008958FE891E00E94441F87E390E00E940C
:103EB000441F8BE691E00E94441F8CE691E00C9435
:103EC000441F8DE890E00E94441F8EE890E00E941D
:103ED000441F8FE890E00E94441F80E990E00E9418
:103EE000441F81E990E00E94441F82E990E00E9413
:103EF000441F83E990E00E94441F84E990E00E94FF
:103F0000441F80911A0690911B06059721F483EABD
:103F100091E00E94441F80911A0690911B0606971B
:103F200021F484EA91E00E94441F89E491E00E9418
:103F3000441F8CE491E00E94441F8091FE05811192
:103F400006C08091420690914306892B11F40C948F
:103F5000511F0895CF92DF92EF92FF920F931F931C
:103F6000CF93DF936C01F62EC42F14160CF4C0E02F
:103F7000CA3B0CF4CAEB80919F079091A007823056
:103F8000910589F18330910519F0019709F047C037
:103F90000C2E000CDD0B222379F06AEB7FEFC601BB
:103FA0000E948C706E2DC6010E94EE70A801BE01A9
:103FB000C6010E94BA7008C0BE01C6010E948C7082
:103FC0006E2DC6010E94EE7065E0F11001C066E042
:103FD000C601DF91CF911F910F91FF90EF90DF907D
:103FE000CF900C94886E0C2E000CDD0B222361F018
:103FF0006AEB7FEFC6010E948C7050E040E06E2DAE
:10400000C6010E945970D2CFBE01C6010E948C70B9
:1040100050E040E06E2DC6010E945970D5CFDF916F
:10402000CF911F910F91FF90EF90DF90CF90089567
:10403000EF920F931F93CF93DF93EC0180911A06B9
:1040400090911B068130910509F4A7C0029709F4ED
:10405000A1C08091A7079091A8078330910509F42A
:1040600078C08530910509F492C0029709F07CC0B0
:1040700080913202853009F461C08AE090E00E94AC
:10408000441F87E490E00E94441F80E891E00E9472
:10409000441F89E490E00E94441F8AE490E00E945B
:1040A000441F81E08093FE050E94511F8091A70765
:1040B0009091A8070597E1F580912A04882321F0C3
:1040C0008EE491E00E94441F81E090E00E94441F32
:1040D00085E991E00E94441FEE24E39410E000E0A3
:1040E00020E040914F0F60E08FE891E00E94AA1F0E
:1040F00004EC19E021E040914F0F61E087E390E08C
:104100000E94AA1F80910F0690911006059711F446
:104110000E94190BAE0170E060E086EF9FE00E9404
:10412000801381E0809331048093300480932F04C6
:10413000DF91CF911F910F91EF90089588E891E062
:104140000E94441F8BE891E00E94441F8AE891E09E
:104150009ECF8BE090E00E94441F87E490E00E9495
:10416000441F8AE090E093CF81E891E00E94441FD1
:1041700082E891E00E94441F83E891E00E94441F7E
:104180008FE690E00E94441F8EE690E088CF82E8A0
:1041900091E0F4CF85E390E082CF8BE390E07FCF96
:1041A000CF92DF92EF920F931F93CF93DF9368EE3E
:1041B00073E00E94F6B2EB016B0184EBC80ED11CD8
:1041C000CB018D549F4F0E94441FC6010E94441F83
:1041D000CE018B549F4F0E94441FEE24E39410E0C5
:1041E00000E020E040914F0F60E0C6010E94AA1F4E
:1041F000DF91CF911F910F91EF90DF90CF900895B5
:104200008330B9F198F4823009F442C080911402ED
:1042100090911502885E9340803D27E0920708F454
:1042200046C0909315028093140212C0843091F01E
:10423000853061F780911C0290911D02885E934049
:10424000803D27E0920798F190931D0280931C0215
:104250000C94D02080911A0290911B02885E9340AA
:10426000803D27E0920718F190931B0280931A0279
:10427000EFCF8091180290911902885E9340803DA3
:1042800027E09207A0F09093190280931802E0CFE4
:104290008091160290911702885E9340803D27E03E
:1042A000920728F09093170280931602D1CF0895B9
:1042B0008330B9F198F4823009F442C0809114023D
:1042C0009091150288519C4F81362AEE920708F092
:1042D00046C0909315028093140212C0843091F06E
:1042E000853061F780911C0290911D0288519C4F8E
:1042F00081362AEE920798F590931D0280931C0256
:104300000C94D02080911A0290911B0288519C4FEE
:1043100081362AEE920718F590931B0280931A02B9
:10432000EFCF809118029091190288519C4F8136ED
:104330002AEE9207A0F49093190280931802E0CF1E
:10434000809116029091170288519C4F81362AEE77
:10435000920728F49093170280931602D1CF089504
:10436000EF920F931F930E94511F1092FE058091B0
:104370004106882309F471C040914F0F8091A7072F
:104380009091A807EE24E39410E000E020E060E0C4
:10439000059709F05EC082E691E00E94AA1F809115
:1043A0001A0690911B06029709F04BC040914F0FDF
:1043B000485204EF11E021E061E085E991E00E94BC
:1043C000AA1F80912A04882361F0EE24E39400ED73
:1043D00017E021E040914F0F61E08EE491E00E94F0
:1043E000AA1F1092310410922F040E945C091092AF
:1043F000FE0F1092FF0F40E050E0BA0185E499E112
:104400000E94801340E050E0BA018FE299E10E94DF
:10441000801340E050E0BA018FE291E10E948013E6
:1044200080910F06909110060597B9F480912F02A4
:10443000882399F061E08DE21F910F91EF900C9429
:104440003373EE24E39400ED17E021E040914F0F29
:10445000B3CF8CE691E00E94AA1F1F910F91EF90BD
:104460000895EF920F931F9380919D03882331F05D
:1044700080E691E00E94441F10929D0380911A06ED
:1044800090911B068230910509F4BAC183309105E1
:1044900009F4E6C1019709F4CBC18091A707909177
:1044A000A80720913202253009F43FC12091FC0574
:1044B000222309F428C140914F0FE12C10E000E0C5
:1044C00020E060E083309105A1F08530910509F48A
:1044D00013C1029709F009C18DE791E00E94AA1F5C
:1044E0000AEF10E021E040914F0F61E08FE791E08B
:1044F0000CC084E690E00E94AA1F04E619E121E0C6
:1045000040914F0F61E083E690E00E94AA1F81E096
:104510008093FB058091FA05882309F403C18091FB
:10452000A7079091A80740914F0FE12C10E000E001
:1045300020E060E08330910509F0E8C084E690E077
:104540000E94AA1F04E619E121E040914F0F61E0AB
:1045500088E490E00E94AA1F81E08093F905809191
:10456000A7079091A80704970297F8F48091320268
:104570008530D8F48EEC9FE00E940A1320911A0631
:1045800030911B06683B7B408105910508F074C1A2
:1045900060914F0F2230310509F06CC1685244E63A
:1045A00050E080E190E00E94807180911A06909125
:1045B0001B06059759F4E12C04E610E021E0409138
:1045C0004F0F60E083EA91E00E94AA1F80911A06D3
:1045D00090911B06069759F4E12C04E610E021E0C7
:1045E00040914F0F60E084EA91E00E94AA1F81E0B1
:1045F00080931E0687E00E946E188091A707909115
:10460000A8070497029770F46091320270E088E97D
:104610009AE30E94F6B2AB0170E060E089E399E1B1
:104620000E94801380912E02882309F18091F70562
:104630009091F8050297D9F40E94E5B028E030E0A7
:1046400040E050E00E9487B2695F7F4F8F4F9F4FDD
:1046500028EE33E0629FA001639F500D729F500DC2
:10466000112470E060E088ED9FE00E94801380E0FC
:104670000E94D90880911A0690911B060297A1F01A
:10468000E0913202E150FF0BEE0FFF1FEE51F54FAC
:104690004591549170E060E087E390E10E948013BF
:1046A0001092351010923610109253101092541030
:1046B0008FEF0E942D0B10921C1010921D1042E3E0
:1046C00050E060E070E08AE090E10E94801381E0B9
:1046D00080932C0448E95AE360E070E082EE9FE0AA
:1046E0001F910F91EF900C9480138BE990E00E9442
:1046F000AA1F03E111E0F6CE8FE491E00E94AA1F09
:1047000008EC10E0EFCE1092FB0504CF059739F4CA
:104710008FE491E00E94AA1F0CE211E015CF85E022
:1047200090E0F8CF1092F9051ACF40914F0FE12C8D
:1047300010E000E020E060E08330910509F445C01E
:104740008530910509F447C0029709F041C087E818
:1047500091E00E94AA1F8091FC05882309F449C0BA
:104760008091A7079091A80721E02093FB05409135
:104770004F0FE12C8230910589F504EA16E061E0E3
:1047800089E891E00E94AA1F8091FA05882351F2DE
:104790008091A7079091A80721E02093F905409107
:1047A0004F0FE12C0CEB12E08330910529F10CE264
:1047B00011E021E0029701F504EA16E021E061E052
:1047C00089E891E00E94AA1FCACE81E690E0C1CF9D
:1047D0008BE990E0BECF8FE491E0BBCF0CE211E01B
:1047E000039711F40CEB12E021E061E082E690E027
:1047F000C9CF1092FB05C8CF61E088E490E0E2CF1A
:1048000085E390E00E94441FE12C10E000E020E0EE
:1048100040914F0F60E083E390E00E94AA1F02E501
:1048200013E021E040914F0F61E084E390E0CACFB4
:104830008BE390E00E94441FE12C10E000E020E0B8
:1048400040914F0F60E089E390E00E94AA1F08EEBC
:1048500013E021E040914F0F61E08AE390E0B2CF96
:10486000E12C10E000E020E040914F0F60E086E492
:1048700091E0A8CF625093CE8EEC9FE022303105BC
:1048800041F40E940A1320914F0F2852AB01622F6E
:1048900088CE0E940A1320914F0F2250F7CFEF923B
:1048A0000F931F9340914F0F80911A0690911B0612
:1048B000EE24E39410E000E020E060E0029751F580
:1048C00083E591E00E94AA1F81E080931906809100
:1048D0001A0690911B060297D9F548EB5BE060E061
:1048E00070E081E490E10E9480138091A70790918D
:1048F000A8070297029740F48CE291E09093070298
:10490000809306020E94651B86E11F910F91EF9034
:104910000C946E1888E691E00E94AA1F8091A70768
:104920009091A8070497029740F420E040914F0F20
:1049300061E089E691E00E94AA1FEE24E39410E072
:1049400000E020E040914F0F60E085E591E0BACFB4
:1049500040EA5FE060E070E081E490E10E94801353
:10496000109212101092131010921C1010921D1021
:1049700042E350E060E070E08AE090E1B4CFEF9273
:104980000F931F9380911A0690911B068230910518
:1049900009F47CC083309105A9F1019709F47DC029
:1049A0008091A7079091A80720913202253009F441
:1049B00055C08330910571F08530910509F44BC0E5
:1049C000029709F045C08DE791E00E94441F8FE7F0
:1049D00091E006C084E690E00E94441F83E690E0E8
:1049E0000E94441F80912E02882321F089E090E0EC
:1049F0000E94441F88E490E00E94441F82E690E0F9
:104A00000E94441F8091F7059091F805009709F4E2
:104A10004BC0019709F468C01092FB051092F9058C
:104A200080911A0690911B06059721F483EA91E084
:104A30000E94441F80911A0690911B06069709F068
:104A400071C084EA91E01F910F91EF900C94441F84
:104A500080E690E0BACF8FE491E0B7CF8330910544
:104A600061F08530910579F0029751F487E891E083
:104A70000E94441F89E891E0B3CF81E690E0B0CF77
:104A80008BE990E0ADCF8FE491E0AACF83E390E093
:104A90000E94441F84E390E0B3CF89E390E00E943A
:104AA000441F8AE390E0ACCF82E090E09093F80559
:104AB0008093F70580919F079091A007039741F499
:104AC0008AE490E00E94441F89E490E00E94441F21
:104AD000E12C10E000E020E040914F0F60E089E41D
:104AE00090E00E94AA1F98CF82E090E09093F80592
:104AF0008093F70580919F079091A007039741F459
:104B00008EE690E00E94441F8FE690E00E94441FD2
:104B1000E12C10E000E020E040914F0F60E08FE6D4
:104B200090E0DFCF1F910F91EF900895EF920F93D8
:104B30001F9380913B02853020F510923B0280E468
:104B400090E00E94441FEE24E39410E000E020E097
:104B50004091520F60E080E490E00E94AA1F809193
:104B60003B0226E4829FC001112464E670E00E94AB
:104B70000AB3665460934E0F1F910F91EF900C94FF
:104B8000FD15855080933B02EACFEF920F931F9360
:104B900080913B02803628F184E680933B0280E4DA
:104BA00090E00E94441FEE24E39410E000E020E037
:104BB0004091520F60E080E490E00E94AA1F809133
:104BC0003B0226E4829FC001112464E670E00E944B
:104BD0000AB3665460934E0F1F910F91EF900C949F
:104BE000FD158B5F80933B02EACFEF920F931F93EB
:104BF00080913C02853020F510923C0280E490E0E8
:104C00000E94441FEE24E39410E000E020E0409175
:104C1000520F60E080E490E00E94AA1F80913C0265
:104C200026E4829FC001112464E670E00E940AB36A
:104C3000665460934F0F1F910F91EF900C941816CC
:104C4000855080933C02EACFEF920F931F9380919F
:104C50003C02803628F184E680933C0280E490E0B8
:104C60000E94441FEE24E39410E000E020E0409115
:104C70004F0F60E080E490E00E94AA1F80913C0208
:104C800026E4829FC001112464E670E00E940AB30A
:104C9000665460934F0F1F910F91EF900C9418166C
:104CA0008B5F80933C02EACFEF920F931F93CF93D9
:104CB000C82F80919F079091A0070197039738F420
:104CC0008091520F082E000C990B0E94C572C111E1
:104CD0001FC080914106811114C08091F50581119A
:104CE00010C080E490E00E94441FEE24E39410E0A2
:104CF00000E020E040914F0F60E080E490E00E94EF
:104D0000AA1F8BE2CF911F910F91EF900C94131477
:104D1000CF911F910F91EF9008952091530F822F03
:104D20008C53990BAC018091520F082E000C990BFB
:104D300084179507F1F080913D028530B0F4109210
:104D40003D0230913D02349FC001359F900D1124EA
:104D50006CE97FEF0E940AB32C53620F6093520FED
:104D60006093500F80E00C945426855080933D0250
:104D7000E8CF08958091520F882319F180913D0268
:104D80008036E8F084E680933D022091530F822F15
:104D90008C53990BAC0130913D02349FC001359F7B
:104DA000900D11246CE97FEF0E940AB32C53620F1F
:104DB0006093520F6093500F80E00C9454268B5FE9
:104DC000E2CF0895DC01FB016C9111964C91119793
:104DD00012967C91262F220F220F220F95E5822F0B
:104DE000899F080E80E0811D1124562F5074362FA4
:104DF000307267FD60C0511149C0311106C0982F53
:104E00009095282F892F90E004C025E5280F90E089
:104E10008BEA4F3FF1F0442309F46CC0409530E039
:104E2000442329F0449F312D112441113F5F432F2A
:104E30004095849F080E80E0811D249F020E20E093
:104E4000211D949F090E90E0911D1124830F230FC3
:104E5000930F7F3FB9F030E0772321F0779F312D1A
:104E600009F03F5F332309F449C0839F080E80E0B7
:104E7000811D239F020E20E0211D939F090E90E0CB
:104E8000911D1124808321839283089531110DC0D7
:104E9000922F2AEA929F090E90E0911D11242BEA8D
:104EA000291B922F2AEA280FADCF90E0282F2095BA
:104EB000982F80E0AECF511111C031110BC0922F4D
:104EC0008AEA989F090E90E0911D11242BEA291B74
:104ED0009B5AEFCF982F909520E09BCF311106C0C1
:104EE00025E5280F9BEA981B822FF6CF2AEA280F88
:104EF00030E0F9CF9FEF2FEF8FEFABCF90E020E0C6
:104F000080E0C0CF0F931F93CF93DF9300D000D0EA
:104F1000CDB7DEB7122F242F462F682FCE01019672
:104F20000E94FA6EBE016C5F7F4FCE0101960E9417
:104F3000E2266D817C81111102C06C817D818E81A0
:104F400026960FB6F894DEBF0FBECDBFDF91CF918E
:104F50001F910F9108950F931F93CF93DF9310E04C
:104F6000809145021817D0F4C09144192C2F210FBD
:104F70003327331FC901E901CC0FDD1FC80FD91F2B
:104F8000C55CDA4F00E020E04FEF60E081E00E9476
:104F90008227688379838A831F5FE2CFDF91CF9175
:104FA0001F910F910C94651B2F923F924F925F922D
:104FB0006F927F928F929F92AF92BF92CF92DF9229
:104FC000EF92FF920F931F93CF93DF9380912A026A
:104FD0000E946409C82F80912602D5E0882331F011
:104FE00060911A0681E00E94C107D82F80E00E94DC
:104FF0005D0820904419280E81E00E945D083090E1
:105000004419380E82E00E945D0840904419480E11
:1050100083E00E945D0820914419582E520E809121
:105020001A0690911B060497039708F4D5E0E22C2A
:10503000F12C80912702811141C16701CC0CDD1C4C
:10504000CE0CDF1C9601255C3A4F690100E020E0A0
:105050004C2F6D2F81E00E948227F60160837183BF
:105060008283632C712C6301CC0CDD1CC60CD71C15
:105070009601255C3A4F690120E04C2F6D2F81E0AD
:105080000E948227F601608371838283842C912C95
:105090006401CC0CDD1CC80CD91C9601255C3A4F70
:1050A000690120E04C2F6D2F81E00E948227F601DC
:1050B000608371838283A52CB12C6501CC0CDD1C2F
:1050C000CA0CDB1C9601255C3A4F690120E04C2F8D
:1050D0006D2F81E00E948227F601608371838283B5
:1050E000809128028111CCC0C70101967C01EE0C91
:1050F000FF1CE80EF91E9701255C3A4F790120E06C
:105100004C2F6D2F81E00E948227F701608371830D
:10511000828380914419821508F4C5C020905B19E0
:10512000F8EF2F0EE22CF12CC701880F991FE80E23
:10513000F91E9701255C3A4F790100E020E04C2FE1
:105140006D2F81E00E948227F70160837183828343
:10515000C30101967C01EE0CFF1CE80EF91E9701BD
:10516000255C3A4F790120E04C2F6D2F81E00E94A1
:105170008227F701608371838283809144198615A9
:1051800017040CF492C080915B19885090E07C0168
:10519000EE0CFF1C8E0D9F1D9C01255C3A4F790182
:1051A00000E020E04C2F6D2F81E00E948227F70164
:1051B000608371838283C40101967C01EE0CFF1C25
:1051C000E80EF91E9701255C3A4F790120E04C2F3B
:1051D0006D2F81E00E948227F701608371838283B3
:1051E00080914419881519040CF462C080915B19F0
:1051F000885090E07C01EE0CFF1C8E0D9F1D9C01E1
:10520000255C3A4F790100E020E04C2F6D2F81E0C2
:105210000E948227F701608371838283C501019612
:105220007C01EE0CFF1CE80EF91E9701255C3A4F3D
:10523000790120E04C2F6D2F81E00E948227F70139
:10524000608371838283809144198A151B049CF1C9
:1052500080915B19885090E07C01EE0CFF1C8E0D54
:105260009F1D9C01255C3A4F790100E020E04C2F06
:105270006D2F81E00E948227F70160837183828312
:10528000DF91CF911F910F91FF90EF90DF90CF9022
:10529000BF90AF909F908F907F906F905F904F9056
:1052A0003F902F9008952A943DCF8FEF830D6ECFBE
:1052B0008FEF840D9ECF8FEF850DCDCFF701E21BD1
:1052C000F109E156FC4FD081D11162C00E94651BEB
:1052D0002091230230912402220F331F50E040E03E
:1052E00080914419B701681B7109A9E1DA2ED69E95
:1052F000C001D79E900D112404E110E06C2F875C53
:105300009E4E0E94F3692091230230912402220FC5
:10531000331F50E040E080914419E32DE81BFF0B60
:10532000DE9EC001DF9E900D11246C2F875C9E4E87
:105330000E94F3692091230230912402220F331F2F
:1053400050E040E080914419E42DE81BFF0BDE9E05
:10535000C001DF9E900D11246C2F875C9E4E0E9431
:10536000F3692091230230912402220F331F50E071
:1053700040E080914419E52DE81BFF0BDE9EC00143
:10538000DF9E900D11246C2F875C9E4E0E94F36966
:1053900080912802811174CFD1111CC02091230269
:1053A00030912402220F331F50E040E0FFEFEF1A4C
:1053B000FF0A80914419E81AF10869E16E9DC00165
:1053C0006F9D900D112404E110E06C2F875C9E4EC0
:1053D0000E94F36980914419821508F4E2C020907C
:1053E0005B1928EF220ED11134C020912302309195
:1053F0002402220F331F50E040E0622D681B770B20
:105400007B0169E1D62EDE9CC001DF9C900D11244A
:1054100004E110E06C2F875C9E4E0E94F36920919E
:10542000230230912402220F331F50E040E0632D0D
:1054300070E06F5F7F4F80914419681B7109D69EA1
:10544000C001D79E900D11246C2F875C9E4E0E9448
:10545000F3698091441960915B1998EF960F831559
:1054600010F49FEF930DD11134C0809023029090DF
:105470002402880C991C940150E040E0E92FE81BBD
:10548000FF0BB9E1FB2EFE9EC001FF9E900D112483
:1054900004E110E06C2F875C9E4E0E94F36920911E
:1054A000230230912402220F331F50E040E0642D8C
:1054B00070E06F5F7F4F80914419681B7109F69E01
:1054C000C001F79E900D11246C2F875C9E4E0E94A8
:1054D000F3698091441960915B1998EF960F8415D8
:1054E00010F49FEF940DD11135C08090230290905D
:1054F0002402880C991C940150E040E0E92FE81B3D
:10550000FF0BBF01E9E1FE2EF69EC001F79E900D54
:10551000112404E110E06C2F875C9E4E0E94F36919
:105520002091230230912402220F331F50E040E0EB
:10553000652D70E06F5F7F4F80914419681B710982
:10554000F69EC001F79E900D11246C2F875C9E4E35
:105550000E94F3698091441960915B1998EF960F4E
:10556000851510F49FEF950DD1118ACEC0902302BE
:10557000D0902402CC0CDD1C960150E040E0E92FD5
:10558000E81BFF0BBF01E9E1E69FC001E79F900D1B
:10559000112404E110E06C2F875C9E4E0E94F36999
:1055A0006FCE2A9420CFAF92BF92CF92DF92EF922C
:1055B000FF920F931F93CF93DF93C82F80912A02FE
:1055C0000E946409F82EAC2EB12C80912702811123
:1055D00054C06501CC0CDD1CCA0CDB1CC601855C0B
:1055E0009A4F6C0100E020E04FEF60E081E00E9404
:1055F0008227F60160837183828380912802811162
:105600002FC0FFEFAF1ABF0A7501EE0CFF1CEA0CAA
:10561000FB1CC701855C9A4F7C0120E04FEF60E0E6
:1056200081E00E948227F7016083718382838091E9
:1056300044198C1700F1C0915B19C850D0E0CE011D
:10564000880F991FC80FD91FC55CDA4F00E020E012
:105650004FEF60E081E00E948227688379838A832C
:10566000DF91CF911F910F91FF90EF90DF90CF903E
:10567000BF90AF900895C150E1CF8091441995013A
:10568000281B3109F901E156FC4F80818F112AC096
:10569000D9E1D29FC001D39F900D11246F2D8F5D52
:1056A0009A4E0E94266A8091230290912402880FCC
:1056B000991F6091300270E00E94F6B29B0150E0A9
:1056C00040E080914419B501681B7109D69FC00163
:1056D000D79F900D112405E110E060E08F5D9A4E98
:1056E0000E94F369809128028111BACF6501FFEF12
:1056F000CF1ADF0A809144199601281B3109F9015C
:10570000E156FC4F80818F1129C0D9E1D29FC001A1
:10571000D39F900D11246F2D8F5D9A4E0E94266AA3
:105720008091230290912402880F991F609130028A
:1057300070E00E94F6B29B0150E040E08091441975
:10574000C81AD108DC9DC001DD9D900D112405E132
:1057500010E060E08F5D9A4E0E94F36980914419D9
:1057600090E0C1508A159B051CF0C0915B19C85090
:10577000D0E09E01281B390BF901E156FC4F8081D6
:105780008F116ECF19E1129FC001139F900D11244C
:105790006F2D8F5D9A4E0E94266A80912302909110
:1057A0002402880F991F6091300270E00E94F6B2C7
:1057B0009B0150E040E080914419C81BD1091C9F17
:1057C000C0011D9F900D112405E110E060E08F5D88
:1057D0009A4E0E94F36944CF8F929F92AF92BF92EC
:1057E000DF92EF92FF920F931F93CF93DF93EC0121
:1057F00085E0809334028FE299E10E945013882360
:1058000009F4D5C06091300270E0CE010E94F6B27A
:10581000EB0180910C02882309F4E9C089E099E149
:105820000E948767882309F4CEC010920C02AE0153
:1058300070E060E08FE299E10E948013D09309024A
:10584000C093080283E280935D0380911E0681115C
:105850000CC080911906811108C080911806811131
:1058600004C080915D030E942D0B0E94F3188111EA
:105870009EC0809102028111EAC08091310288238A
:1058800021F0809143190E94D32A809186038F5F73
:10589000843008F0DFC080938603809186030E94E5
:1058A0005D08C0914419C80FC0934319809131021B
:1058B000882309F47CC080912A020E946409182F71
:1058C0008091260245E0D42E882331F060911A069B
:1058D00081E00E94C107D82E809145028C3011F4DE
:1058E00030E2D32EAC2EB12C7501EE0CFF1CEA0C6D
:1058F000FB1CC701855C9A4F7C0100E020E0412F32
:105900006D2D81E00E948227F7016083718382837D
:1059100080914419F501E81BF109E156FC4F108311
:1059200080912802811143C07501FFEFEF1AFF0A31
:105930004701880C991C8E0C9F1CC401855C9A4FF2
:105940004C0120E0412F6D2D81E00E948227F4015F
:105950006083718382838091441990E0F701E81B92
:10596000F90BE156FC4F1083C1508A159B051CF0C2
:10597000C0915B19C850D0E07E01EE0CFF1CEC0E0C
:10598000FD1EC701855C9A4F7C0100E020E0412F9D
:105990006D2D81E00E948227F701608371838283ED
:1059A00080914419C81BD109C156DC4F1883DF917F
:1059B000CF911F910F91FF90EF90DF90BF90AF902C
:1059C0009F908F90089589E099E10E94F167AC0162
:1059D00070E060E08FE299E10E94801389E099E134
:1059E0000E94F16790930902809308022BCF809167
:1059F0003104882321F189E099E10E948767882397
:105A000019F01092310421CF89E099E10E94F167E9
:105A1000AC0170E060E08FE299E10E94801389E0C0
:105A200099E10E94F16790930902809308028091A6
:105A30005D0381508F3008F006CF8FE004CFAB01BB
:105A400070E060E08FE299E10E948013FECE109238
:105A500002021BCF1092860320CFDF92EF92FF92BB
:105A60000F931F93CF93DF938091260215E0882335
:105A700031F060911A0681E00E94C107182F8091D1
:105A800045028C3009F410E28091A7079091A80795
:105A900002970297B0F1D0E0C0E08C2F0E94250958
:105AA000882319F1FE01E156FC4FD0808C2F0E9413
:105AB000250990914419292F280F3327331FC90135
:105AC00001977C01EE0CFF1C8E0D9F1DFC01E55C17
:105AD000FA4F7F0100E020E04D2D612F81E00E9410
