:100000000C9494060C94C5060C94C5060C94C50675
:100010000C94C5060C94C5060C94C5060C94C50634
:100020000C94C5060C94C5060C94C5060C94C50624
:100030000C94C5060C94C5060C94C5060C94C50614
:100040000C94C5060C94C5060C94C5060C94C50604
:100050000C94C5060C94C5060C94C5060C94197D29
:100060000C94C5060C94C46C0C949A6C0C94C50644
:100070000C94C5060C94C5060C94C5060C94C506D4
:100080000C94C5060C94C5060C94C5060C94C506C4
:100090000C94706C0C94466C0C94C5060C94C211B4
:1000A0000C94C5060C94C5060C94C5060C94C506A4
:1000B0000C94C5060C94C5060C94C5060C94C50694
:1000C0000C94C5060C94C5060C94C5060C941C6CC7
:1000D0000C94F26B0C94C5060C94C86B0C949E6B3C
:1000E0000C94C50605A84CCDB2D44EB93836A90239
:1000F0000C50B9918688083CA6AAAA2ABE00000026
:10010000803F07634236B79BD8A71A39685618AEA6
:10011000BAAB558C1D3CB7CC5763BD6DEDFD753E3C
:10012000F6177231BF000000803F08000000BE9249
:100130002449123EABAAAA2ABECDCCCC4C3E00002C
:100140000080BEABAAAAAA3E00000000BF000000CB
:10015000803F0000000000084178D3BB4387D113E3
:100160003D190E3CC3BD4282AD2B3E68EC8276BE8B
:10017000D98FE1A93E4C80EFFFBE01C4FF7F3F0055
:10018000000000000C94EA870C9419750C94A86781
:100190000C9442A50C9493890C94E19C0C94042833
:1001A0000C9434080C94AA920C947D950C9415939D
:1001B0000C94127A0C94CB890C945F9A0C948B94C7
:1001C0000C944E980C9417290C94CB990C946F991D
:1001D0000C9484A50C94E6270C9434750C946F8AC7
:1001E0000C9440750C944D8A0C94F2270C9457751E
:1001F0000C94ED910C94DB790C94EC870C94FC9F9F
:100200000C94A5920C9429740C9417740C94C893B4
:100210000C9400740C94BC670C944B490C94A491FE
:100220000C946B750C94A4890C942F080C94108C6E
:100230000C94E49F0C9438750C9425740C94FC7306
:100240000C945E8B0C94FE280C944DA40C94CE69F7
:100250000C94D48A0C94E2270C94A3790C94F58A1C
:100260000C94E3A30C9416A50C94C0720C943C8AD5
:100270000C94EC070C945E280C94E5790C94EFA098
:100280000C9418A40C9431350C9477660C94AA67DE
:100290000C94676A0C94EC270C94D7940C9412A2DB
:1002A0000C945D750C94DC070C94B49F0C94AEA375
:1002B0000C94679E0C94F28B0C9487670C940868DE
:1002C0000C9433740C94F29A0C9475880C94FF2659
:1002D0000C9444750C94CAA60C94F1060C942A66EE
:1002E0000C94C3670C9464A60C94829D0C94789033
:1002F0000C9461280C9473910C9449920C945A6A52
:100300000C94D2920C945E8A0C94BF890C94D88879
:100310000C94E7A20C941E8C0C94BC9D0C94D89B5E
:100320000C94FE350C948D750C94CC9F0C94377402
:100330000C944C750C94D1790C946EA50C94949BF0
:100340000C94FBA70C94E18E0C94F2870C94748AA5
:100350000C94F2730C9491280C94729B0C94B98CAD
:100360000C941C9C0C9469750C945FA10C947BA755
:100370000C94B4920C9463A20C94AE9A0C948A934D
:100380000C94E2360C942CA50C94738B0C94F167AE
:100390000C94B0070C945D0A0C94030A0C94E027AB
:1003A0000C94F9990C94F7A70C948A880C945A0A27
:1003B0000C94B8350C94D7860C945C8E0C9442A6A1
:1003C0000C945C670C949F880C94DF8F0C943628F7
:1003D0000C94B3960C943F290C94BF910C94C66571
:1003E0000C948E280C94FCA10C941D680C9486A689
:1003F0000C944F9D0C9413950C94A8A60C946490A7
:100400000C94D0A10C94BD680C94EE060C943FA300
:100410000C9442750C9431750C9413070C94D2A56E
:100420000C94FA880C94609C0C94168A0C94617558
:100430000C94FB9C0C94BE920C94EB930C94A7A48C
:100440000C9479A30C94A7950C94D09A0C94599978
:100450000C94087A0C946D9A0C94D38D0C94307A89
:100460000C94CD920C94D4650C9428A20C94ECA519
:100470000C9479A20C9420A60C949EA50C9429A30C
:100480000C94FD940C949E790C94F7260C94F487AC
:100490000C94086A0C94F7850C9448750C94D40756
:1004A0000C94708B0C9429950C9400070C94802864
:1004B0000C94BA8B0C941A8C0C9468890C94EE876B
:1004C0000C94E0070C9477920C945E690C94AA9DAE
:1004D0000C94EF790C94BBA20C942D740C94AD2861
:1004E0000C9405A70C94B9920C949B8A0C94320836
:1004F0000C947D720C940E940C9486280C94234AD0
:100500000C94A9930C941E750C944C8B0C940C2990
:100510000C9412750C94DC270C94DC750C94A36578
:100520000C94DB6A0C942C0B0C94729C0C949967C1
:100530000C946C350C94FA9B0C94A29A0C94507504
:100540000C94610A0C9445360C94C68B0C945F7520
:100550000C941B730C9461AA0C949D680C94E8870E
:100560000C94C79C0C94348C0C941F740C94C5A4EC
:100570000C9459720C948FA20C9453950C9461674F
:100580000C94D2670C94AE890C9486720C944E75C0
:100590000C94278B0C945B750C94294A0C94B69B95
:1005A0000C9457930C941C7A0C94D7920C949C9FA7
:1005B0000C949E870C9444280C941B920C943E75CA
:1005C0000C94DD720C94809A0C94018A0C94570A56
:1005D0000C94EF060C94E6A10C9494A10C940C8955
:1005E0000C94FE920C945D650C94DD670C941B7466
:1005F0000C942B910C94479D0C940E8B0C949D990C
:100600000C94B2070C9465890C941D4A0C94B7792C
:100610000C9411880C9443990C943B750C94499458
:100620000C94DC980C9483280C947A910C94559A31
:100630000C9407740C94E68B0C94DE070C94D06732
:100640000C9423750C9432740C9413A30C944707E8
:100650000C944B9D0C949A8B0C940D750C94F3A7F1
:100660000C94B2650C9432280C94719A0C94E9881D
:100670000C94E5900C941F290C94B1940C94F8738D
:100680000C94DF950C9446750C94DF890C944B8880
:100690000C9437080C944A750C9440A70C949A9AC1
:1006A0000C9445880C942C680C9499AB0C94699A22
:1006B0000C9467750C94C9790C94FDA20C94FB689A
:1006C0000C9478670C943E880C945F8F0C94478D43
:1006D0000C94099F0C9476070C947D270C94248825
:1006E0000C9410290C94CE9D0C94249B0C94DE2722
:1006F0000C94E4270C94E9690C941B280C94F08961
:100700000C949D090C9482890C94A9890C948636CA
:100710000C94B0750C94509B0C94378C0C943E9CAC
:100720000C94D1A20C94F0870C9404740C94C8928D
:100730000C946A9D0C942F910C946BA40C94267AC3
:100740000C9497790C9494280C9406A60C94279AF0
:100750000C94B8A50C94CC7D0C94A5A20C94F00636
:100760000C94840D0C94BE670C94278A0C947468C6
:100770000C94BC660C94E2070C942D750C941A072B
:100780000C9431690C9452290C94AD790C94AD9C65
:100790000C94AF920C94B5A00C940D740C94F828A2
:1007A0000C9411740C949A9D0C948A280C94608873
:1007B0000C942E4A0C94A1980C94BC750C947172F4
:1007C0000C9458A50C94C3920C94B2A10C94FB9772
:1007D0000C949E9A0C94C1790C94FE790C94B436C6
:1007E0000C9489A40C94AF670C9400A50C94849489
:1007F0000C94FB285761726E696E673A2043616CF6
:1008000063756C61746564206D7573696320636FD3
:10081000756E74206578636565647320343039368D
:100820003B205344206361726420636F7272757061
:1008300074696F6E206C696B656C7921000102032D
:100840000405060708090A0B0C0D0E0F10111213F0
:100850001415161718191A1B1C1D1E1F20212223E0
:100860002425262728010203040506070809000A93
:100870000B0C0D0E0F10111200131415161718196A
:100880001A1B001C1D1E1F2021222324000102030D
:1008900004050000000000060708090A0000000027
:1008A000000B0C0D0E0F00000000001011121314AD
:1008B000000000000001020300000000000000042E
:1008C0000506000000000000000708090000000005
:1008D0000000000A0B0C00000000000000001C12C9
:1008E0000A041F160D02110C07010A0704000A1260
:1008F0001C040D161F02070C110104070A00010257
:10090000030405060708090A0B0C0D0E000102037B
:100910000405060708090A0B0C0E0D0C0B0A090842
:1009200007060504030201000C0B0A090807060567
:100930000403020100436F6D6D616E6420746F20CB
:1009400057616E643A2000B80BB80BAC0DAC0DA02B
:100950000F3D006401650166016701417474656EB5
:100960007561746F722053796E6320456E64004127
:100970007474656E7561746F722053796E63205361
:100980007461727400417474656E7561746F722065
:1009900053796E6368726F6E697A6564005265633D
:1009A000762E20536D6F6B6520436F6E666967000E
:1009B000526563762E2057616E6420436F6E6669C0
:1009C0006700526563762E205061636B20436F6E23
:1009D00066696700526563762E20417474656E7592
:1009E00061746F72204D6573736167653A200052C0
:1009F0006563762E20417474656E7561746F722024
:100A0000436F6D6D616E643A20004552524F523A09
:100A1000204E6F2063616C6C6261636B2061766154
:100A2000696C61626C6520666F72207061636B65D2
:100A3000742049442000000000006410B71DC82045
:100A40006E3BAC30D9269041DC76F4516B6B58612B
:100A5000B24D3C7105502083B8ED44930FF0E8A3EC
:100A6000D6D68CB361CBB0C2649BD4D2D38678E2A5
:100A70000AA01CF2BDBD4E6F20417564696F204411
:100A80006576696365005573696E67205741562026
:100A900054726967676572005761726E696E673A72
:100AA000205253505F53595354454D5F494E464F62
:100AB000206E6F74207265636569766564210056E7
:100AC000657273696F6E3A20005573696E672047CF
:100AD000505374617220417564696F00436F6E6694
:100AE000696775726520506F776572204D65746512
:100AF0007200556E61626C6520746F2066696E6469
:100B000020706F776572206D6F6E69746F72696E99
:100B10006720646576696365206F6E206932632E95
:100B200020506F776572206D65746572206665610F
:100B300074757265732077696C6C206265206469D6
:100B40007361626C65642E00506F776572204D652D
:100B500074657220526573756C743A2000200049E8
:100B60006E697420706F776572206D657465722E82
:100B70002E2E0057616E642053796E6320456E649B
:100B80000057616E642053796E63205374617274F0
:100B9000003075983A10274C1D701757616E64200D
:100BA00053796E6368726F6E697A6564005265632B
:100BB000762E2057616E6420536D6F6B65205072E6
:100BC00065667300526563762E2057616E6420431C
:100BD0006F6E666967205072656673005265637652
:100BE0002E2057616E6420446174613A2000526582
:100BF00063762E2057616E6420436F6D6D616E6465
:100C00003A200000002100240027002A002D003097
:100C100000330001010000040107010A0100002265
:100C200000250028002B002E0031003400020100B6
:100C300000050108010B0100002000230026002907
:100C4000002C002F00320000010000030106010902
:100C50000105050505070508080808020202020A41
:100C60000A0808040404040101010101010101034F
:100C700003030303030303040707070C0C0C0C0C0A
:100C80000C0C0C0202020206060606060606060BFD
:100C90000B0B0B0B0B0B0B01021020200808102074
:100CA00040102040800201020108040201010204F8
:100CB00008102040808040201008040201800402B7
:100CC000018040201008040201080402010102040E
:100CD0000810204080010204081020408000000A13
:100CE0000B02090C0D0E08070304010000000000B0
:100CF00000000000000000000000000000000000F4
:100D000000000000000000000012111000000000B0
:100D100000000000000000000000000000000000D3
:100D20000000000099ABCC7D11241FBECFEFD1E2B3
:100D3000DEBFCDBF00E00CBF13E0A0E0B2E0ECE905
:100D4000FEE601E00BBF02C007900D92A835B10787
:100D5000D9F729E1A8E5B3E001C01D92A138B20797
:100D6000E1F716E0C3E9D6E000E006C021970109EB
:100D7000802FFE010E94A6B1C239D10780E008078A
:100D8000A9F70E942D7E0C943CB70C940000209192
:100D9000A304260F3327331F21323105ECF42091B1
:100DA0007607FC0190E080E0243069F082E008954D
:100DB000A091A3042191AC014D575B4FA40FB52F17
:100DC000B11D2C930196861798F38091A304680FA8
:100DD0006093A30480E0089581E008950895089544
:100DE0000895E0912F0780912E07E81730F4F0E086
:100DF000E05DF84F808190E008958FEF9FEF0895B8
:100E000090912F0780912E072FEF3FEF981748F40E
:100E1000E92FF0E0E05DF84F208130E09F5F909394
:100E20002F07C901089580912E0790912F07891BE4
:100E3000990B0895CF92DF92EF92FF920F931F9339
:100E4000CF93DF937C01CB018A0120919E0722235F
:100E500089F0EB016B01C40ED51ECC15DD0569F0E0
:100E60006991D701ED91FC910190F081E02DC701CE
:100E70001995F3CF642F0E94C706C801DF91CF9167
:100E80001F910F91FF90EF90DF90CF900895CF9337
:100E9000DF931F92CDB7DEB7698320919E0722238F
:100EA000F9F020919C07203258F021E030E0FC015D
:100EB0003383228390E080E00F90DF91CF910895FB
:100EC00080919D07E82FF0E0E458F84F99819083D6
:100ED0008F5F80939D0780939C0781E090E0ECCF2B
:100EE00061E0CE0101960E94C706F7CF90E080E056
:100EF0000895FC0120893189848595852817390753
:100F000041F481E04289538926853785421753078A
:100F100009F080E00895FC01208931898685978554
:100F20002817390741F481E04289538924853585A2
:100F30004217530709F080E00895982F6830F0F4C5
:100F4000E62FF0E08827E855F84F8F4F0C94A6B1B4
:100F5000B207EC07D407DC07B007DE07E007E207BB
:100F60008CE10895933020F4913040F085E00895AD
:100F7000933031F09430D1F381E0089584E1089505
:100F80008091A4078F5F853068F4982F937051F09B
:100F90008093A4078091A407813071F0823061F3BF
:100FA0008DE0089581E0F4CF8091A7079091A80784
:100FB0000397A1F483E008958BE0089589E10895F3
:100FC00088E10895923031F0943021F0911108C0F9
:100FD0008DE108958FE1089583E108958FE00895EC
:100FE0008EE108950F931F93CF93DF9320919C037D
:100FF0002F5F322F377030939C0320FF2BC020E8E7
:1010000031FD2064347009F02062205FFC01EC01A6
:10101000239600E011E06785662329F070E0C8019F
:101020000E9492B16F5F6187822F869F080E80E0D9
:10103000811D1124811110C01682662311F06150A8
:1010400061873196EC17FD0731F7DF91CF911F9142
:101050000F91089520E0D4CF81508683EECF80E9B0
:1010600091E00895209A089581E090E00895279AEC
:101070000895843008F080E090914502E82FF0E078
:1010800080912902882399F0943259F0983261F0C6
:10109000943121F0E750F74F84910895EB50F74FCA
:1010A000FBCFEF50F74FF8CFE351F74FF5CF943226
:1010B00051F0983259F0943119F0E751F74FECCFD5
:1010C000EB51F74FE9CFEF51F74FE6CFE352F74F30
:1010D000E3CF8823D1F180912A028823A1F1809166
:1010E000A6069091A806992361F081110CC0E091A9
:1010F0002B02F0E0E35EFF4E8081882351F05F9A7F
:101100000CC0882331F0E0912B02F0E0E259FD4F52
:10111000F3CF80915A068111F2CF80912A02882361
:10112000A9F08091A6069091A806992389F08111D3
:1011300011C0E0912B02F0E0E35EFF4E8081882336
:1011400079F0449A08955F98E8CF5F98449808959D
:10115000882331F0E0912B02F0E0E259FD4FEECF11
:1011600080915A068111EDCF08958823D1F18091A5
:101170002A028823A1F18091A6069091A8069923BE
:1011800061F081110CC0E0912B02F0E0E35EFF4EB4
:101190008081882351F0429A0CC0882331F0E0917D
:1011A0002B02F0E0E259FD4FF3CF80915A068111F6
:1011B000F2CF80912A028823A9F08091A60690910F
:1011C000A806992389F0811111C0E0912B02F0E06B
:1011D000E35EFF4E8081882379F0A29A08954298B9
:1011E000E8CF4298A2980895882331F0E0912B022D
:1011F000F0E0E259FD4FEECF80915A068111EDCF1C
:101200000895E82FF0E080914502843259F0883249
:1012100061F0843121F0EB54F74F84910895E35746
:10122000F74FFBCFEB59F74FF8CFE35CF74FF5CF14
:101230008823D1F08091A806882341F0E0912B0209
:10124000F0E0E35EFF4E8081811108C08091A60628
:10125000811104C080914B06882331F080910B01ED
:10126000886080930B01089580910B01877FF9CFEF
:1012700081E080930C0280930B0280930A02089510
:10128000853608F084E62FEF829FC001112464E6C2
:1012900070E00E9492B1862F0895AF92BF92CF92D4
:1012A000DF92EF92FF920F931F93CF93DF9300D0C3
:1012B000CDB7DEB75A0119821A821B82882361F1E9
:1012C0008B01E1E0F0E0E82EF12CD8012D918D01A9
:1012D0002223F1F06F01B1E0CB1AD108D501AC0D9A
:1012E000BD1D4C914423A1F030E02F5F3F4FD7014B
:1012F0000E9463B1A42FB0E011969B01AC010E9443
:101300002EB1A1E0B0E0AC0FBD1FAC0DBD1D8C93A4
:101310003196E430F105C9F669817A818B810F90AD
:101320000F900F90DF91CF911F910F91FF90EF9051
:10133000DF90CF90BF90AF9008956F927F928F9281
:10134000CF92DF92EF92FF920F931F93CF93DF9391
:10135000CDB7DEB762970FB6F894DEBF0FBECDBF34
:101360008C016B017A01822FA801475F5F4FB801A2
:101370006A5F7F4F0E944D093B01882ED8011C9661
:101380002C91C701F7FE04C0882799278E199F0961
:10139000DA82C9829C838B839E838D83688A798A53
:1013A0008A8A213049F5CE0101960E94F20783E036
:1013B0008D871F861E86F7FE02C08DEF8D87D801B0
:1013C000ED91FC910088F189E02DBE016F5F7F4FA8
:1013D000C801199562960FB6F894DEBF0FBECDBF57
:1013E000DF91CF911F910F91FF90EF90DF90CF9001
:1013F0008F907F906F9008951C861B861A861986A1
:1014000018861F82D4CFCF92DF92EF92FF920F9374
:101410001F93CF93DF93CDB7DEB762970FB6F894E3
:10142000DEBF0FBECDBF8C016B017A01822FA801F8
:10143000475F5F4FB8016A5F7F4F0E944D099B0174
:10144000482FD8011C968C91DA82C982FC82EB82EB
:10145000FE82ED82288B398B4A8B813009F5CE01D3
:1014600001960E94F2071D861F861E86D801ED9107
:10147000FC910088F189E02DBE016F5F7F4FC801AC
:10148000199562960FB6F894DEBF0FBECDBFDF91FF
:10149000CF911F910F91FF90EF90DF90CF90089523
:1014A0001C861B861A86198618861F82DCCF90E060
:1014B00080E00895FC0164870895FC01848590E034
:1014C0000895FC018685978508950F931F93CF9308
:1014D000DF93EC018C01055E1D4FD8018D919C912D
:1014E000DC01ED91FC910084F185E02D1995892BAB
:1014F00059F0F80180819181DC01ED91FC91028429
:10150000F385E02D1995E9CFCE010E94AB71FE0164
:10151000E65EFD4FCD5FDD4F88818083DF91CF9107
:101520001F910F910895CF92DF92EF92FF920F9348
:101530001F93CF93DF93EC0188810E94D0788C01B8
:101540000E940D7D2C893D892017310731F06E8B6B
:101550007F8B888F998F1D8B0C8BCE88DF88E88CD2
:10156000F98C6C197D098E099F09CA80DB80EC809B
:10157000FD806C157D058E059F0530F08A899B895D
:10158000998B888B1B8B0A8B288939898A899B893F
:101590002817390781F04A855B8542305105A1F44F
:1015A0008E819F81A885B9850196A11DB11D8E836D
:1015B0009F83A887B987DF91CF911F910F91FF90EB
:1015C000EF90DF90CF9008954115510531F421300F
:1015D000310589F7892B21F3EECF4130510559F7B9
:1015E000232B49F7019739F7DBCF1092491010925E
:1015F0004A1010925B0380917506909176060597CC
:1016000021F460E08DE20C94F97890E080E00C9495
:101610006379209175063091760623303105C9F043
:1016200025303105C1F090913002992391F0882343
:1016300081F02230310521F49091A806992349F0D8
:1016400090915B03981739F080935B0390E00C94C2
:1016500063790C94F50A08954F925F927F928F926E
:101660009F92AF92BF92CF92DF92EF92FF920F9331
:101670001F93CF93DF932C01EB010E94357AF20187
:1016800026893789621B730B6A307105B0F3F894B1
:101690008A819B81181619060CF0CBC1E881F9816B
:1016A00005B1016075B17E7F75B9BA848F812B2D2C
:1016B000281B822F2F834C85042E000C550BAA81EA
:1016C000BB81E888DF84C988E394D394C3949E8166
:1016D000388599848B84118120E0F32E622F322F7C
:1016E0003181112788943111380F08F43FEF81952B
:1016F0008894E0FC130F17958894E1FC130F17955D
:101700008894E2FC130F17958894E3FC130F179548
:101710008894E4FC130F17958894E5FC130F179534
:101720008894E6FC130F17958894E7FC130F179520
:101730008894232FE110212F8B0D122F002C05B937
:1017400000C017FF75B930812227889400C000C0FF
:10175000002C75B93111390F00C0002C05B900C03B
:1017600016FF75B908F43FEF9195889400C000C04A
:10177000002C75B9D0FC230F00C0002C05B900C0A7
:1017800015FF75B927958894D1FC230F00C000C0C0
:10179000002C75B92795889400C0002C05B900C0AD
:1017A00014FF75B9D2FC230F2795889400C000C0A0
:1017B000002C75B9D3FC230F00C0002C05B900C064
:1017C00013FF75B927958894D4FC230F00C000C07F
:1017D000002C75B92795889400C0002C05B900C06D
:1017E00012FF75B9D5FC230F2795889400C000C05F
:1017F000002C75B9D6FC230F00C0002C05B900C021
:1018000011FF75B927958894D7FC230F00C000C03D
:10181000002C75B92795889400C0002C05B900C02C
:1018200010FF75B9132FD110122F990D00C000C0F1
:10183000002C75B900C000C0002C05B900C017FF0E
:1018400075B932812227889400C000C0002C75B978
:1018500031113F0D00C0002C05B900C016FF75B94D
:1018600008F43FEFE40FF51F00C000C0002C75B96D
:10187000C0FC230F00C0002C05B900C015FF75B9CE
:1018800027958894C1FC230F00C000C0002C75B9B7
:101890002795889400C0002C05B900C014FF75B9C5
:1018A000C2FC230F2795889400C000C0002C75B996
:1018B000C3FC230F00C0002C05B900C013FF75B98D
:1018C00027958894C4FC230F00C000C0002C75B974
:1018D0002795889400C0002C05B900C012FF75B987
:1018E000C5FC230F2795889400C000C0002C75B953
:1018F000C6FC230F00C0002C05B900C011FF75B94C
:1019000027958894C7FC230F00C000C0002C75B930
:101910002795889400C0002C05B900C010FF75B948
:10192000132FC110122FF19400C000C0002C75B904
:10193000F80C00C000C005B900C017FF75B93181AF
:101940002227889400C000C0002C75B93111380FCF
:1019500000C0002C05B900C016FF75B908F43FEFB0
:101960008195889400C000C0002C75B9E0FC230F5D
:1019700000C0002C05B900C015FF75B927958894E3
:10198000E1FC230F00C000C0002C75B92795889496
:1019900000C0002C05B900C014FF75B9E2FC230F8C
:1019A0002795889400C000C0002C75B9E3FC230F74
:1019B00000C0002C05B900C013FF75B927958894A5
:1019C000E4FC230F00C000C0002C75B92795889453
:1019D00000C0002C05B900C012FF75B9E5FC230F4B
:1019E0002795889400C000C0002C75B9E6FC230F31
:1019F00000C0002C05B900C011FF75B92795889467
:101A0000E7FC230F00C000C0002C75B9279588940F
:101A100000C0002C05B900C010FF75B9132FE110EC
:101A2000122F8B0D00C000C0002C75B9119709F062
:101A300086CEEA81FB812EE130E0DF010E94AEB16B
:101A400030E020E0A901AAE9EA9F0E0E411DFA9FAD
:101A5000400D511D11244F0F511DDC01CB01840F8E
:101A6000951FA11DB11D893E43E09407A105B10555
:101A700008F434C0885E9340A109B10942E0B695EC
:101A8000A795979587954A95D1F747E0849F080ECB
:101A9000211D949F200D311D1124290F311D6091AE
:101AA0009B0370E0860F971F820F931F40912A07B8
:101AB00050912B0760912C0770912D07292F332708
:101AC000420F531F611D711D40932A0750932B072E
:101AD00060932C0770932D0780939B0378940E944A
:101AE000357AF201778B668BDF91CF911F910F9141
:101AF000FF90EF90DF90CF90BF90AF909F908F902E
:101B00007F905F904F9008954F925F927F928F9257
:101B10009F92AF92BF92CF92DF92EF92FF920F937C
:101B20001F93CF93DF932C01EB010E94357AF201D2
:101B300026893789621B730B6A307105B0F3F894FC
:101B40008A819B81181619060CF0CBC1E881F981B6
:101B500005B1006875B17F7775B9BA848F812B2D77
:101B6000281B822F2F834C85042E000C550BAA8135
:101B7000BB81E888DF84C988E394D394C3949E81B1
:101B8000388599848B84118120E0F32E622F322FC7
:101B90003181112788943111380F08F43FEF819576
:101BA0008894E0FC130F17958894E1FC130F1795A8
:101BB0008894E2FC130F17958894E3FC130F179594
:101BC0008894E4FC130F17958894E5FC130F179580
:101BD0008894E6FC130F17958894E7FC130F17956C
:101BE0008894232FE110212F8B0D122F002C05B983
:101BF00000C017FF75B930812227889400C000C04B
:101C0000002C75B93111390F00C0002C05B900C086
:101C100016FF75B908F43FEF9195889400C000C095
:101C2000002C75B9D0FC230F00C0002C05B900C0F2
:101C300015FF75B927958894D1FC230F00C000C00B
:101C4000002C75B92795889400C0002C05B900C0F8
:101C500014FF75B9D2FC230F2795889400C000C0EB
:101C6000002C75B9D3FC230F00C0002C05B900C0AF
:101C700013FF75B927958894D4FC230F00C000C0CA
:101C8000002C75B92795889400C0002C05B900C0B8
:101C900012FF75B9D5FC230F2795889400C000C0AA
:101CA000002C75B9D6FC230F00C0002C05B900C06C
:101CB00011FF75B927958894D7FC230F00C000C089
:101CC000002C75B92795889400C0002C05B900C078
:101CD00010FF75B9132FD110122F990D00C000C03D
:101CE000002C75B900C000C0002C05B900C017FF5A
:101CF00075B932812227889400C000C0002C75B9C4
:101D000031113F0D00C0002C05B900C016FF75B998
:101D100008F43FEFE40FF51F00C000C0002C75B9B8
:101D2000C0FC230F00C0002C05B900C015FF75B919
:101D300027958894C1FC230F00C000C0002C75B902
:101D40002795889400C0002C05B900C014FF75B910
:101D5000C2FC230F2795889400C000C0002C75B9E1
:101D6000C3FC230F00C0002C05B900C013FF75B9D8
:101D700027958894C4FC230F00C000C0002C75B9BF
:101D80002795889400C0002C05B900C012FF75B9D2
:101D9000C5FC230F2795889400C000C0002C75B99E
:101DA000C6FC230F00C0002C05B900C011FF75B997
:101DB00027958894C7FC230F00C000C0002C75B97C
:101DC0002795889400C0002C05B900C010FF75B994
:101DD000132FC110122FF19400C000C0002C75B950
:101DE000F80C00C000C005B900C017FF75B93181FB
:101DF0002227889400C000C0002C75B93111380F1B
:101E000000C0002C05B900C016FF75B908F43FEFFB
:101E10008195889400C000C0002C75B9E0FC230FA8
:101E200000C0002C05B900C015FF75B9279588942E
:101E3000E1FC230F00C000C0002C75B927958894E1
:101E400000C0002C05B900C014FF75B9E2FC230FD7
:101E50002795889400C000C0002C75B9E3FC230FBF
:101E600000C0002C05B900C013FF75B927958894F0
:101E7000E4FC230F00C000C0002C75B9279588949E
:101E800000C0002C05B900C012FF75B9E5FC230F96
:101E90002795889400C000C0002C75B9E6FC230F7C
:101EA00000C0002C05B900C011FF75B927958894B2
:101EB000E7FC230F00C000C0002C75B9279588945B
:101EC00000C0002C05B900C010FF75B9132FE11038
:101ED000122F8B0D00C000C0002C75B9119709F0AE
:101EE00086CEEA81FB812EE130E0DF010E94AEB1B7
:101EF00030E020E0A901AAE9EA9F0E0E411DFA9FF9
:101F0000400D511D11244F0F511DDC01CB01840FD9
:101F1000951FA11DB11D893E43E09407A105B105A0
:101F200008F434C0885E9340A109B10942E0B69537
:101F3000A795979587954A95D1F747E0849F080E16
:101F4000211D949F200D311D1124290F311D6091F9
:101F50009B0370E0860F971F820F931F40912A0703
:101F600050912B0760912C0770912D07292F332753
:101F7000420F531F611D711D40932A0750932B0779
:101F800060932C0770932D0780939B0378940E9495
:101F9000357AF201778B668BDF91CF911F910F918C
:101FA000FF90EF90DF90CF90BF90AF909F908F9079
:101FB0007F905F904F900895FF920F931F93CF9360
:101FC000DF93EC01F62E08811981C8010E94F9B057
:101FD000F81621F06F2DC8010E9401B1CE01DF91EA
:101FE000CF911F910F91FF9008958F929F92AF9282
:101FF000BF92CF92DF92EF92FF920F931F93CF93F6
:10200000DF931F921F92CDB7DEB78C0119828FEF3D
:102010008A83680125EEC21A2DEFD20AD6018D916E
:102020009C91DC01ED91FC910084F185E02D1995E6
:10203000F801E75EFD4F7F01892B09F449C081E07B
:1020400089834801FDEF8F1A9F0A580126EEA21AD4
:102050002DEFB20AD6018D919C91DC01ED91FC919E
:102060000084F185E02D1995892B09F1F601808115
:102070009181DC01ED91FC910284F385E02D1995AD
:102080008A83AE014F5F5F4FBE016E5F7F4FC80115
:102090000E94E371F7018083D4018C91F501808364
:1020A0008330C1F218161CF0C8010E94650AF701BE
:1020B00080810F900F90DF91CF911F910F91FF9032
:1020C000EF90DF90CF90BF90AF909F908F9008954A
:1020D000AE014F5F5F4FBE016E5F7F4FC8010E9430
:1020E000E371D7018C93F801ED5FFD4F8081779606
:1020F0008083D8CFBF92CF92DF92EF92FF920F935F
:102100001F93CF93DF931F92CDB7DEB78C016B0186
:10211000B42EDB018D919C91F801E15FFD4F7F01B1
:102120008F3F910508F475C08FEF80836801F80137
:1021300080E091919E3709F067C0D7018C9348E801
:1021400052E0B801C8010E94C3714091830A5091C6
:10215000840A980122503F4F80E0D601ED916D0135
:10216000E827E40FF52FF11D80812A173B07A9F717
:10217000F801E350FE4FB082F7019081F801E25080
:10218000FE4F90839EEF31969083319680838EEF41
:10219000F82E6801B5EECB1ABDEFDB0AF60180819F
:1021A0009181B80164507E4FDC01ED91FC91028079
:1021B000F381E02D44E050E01995F6018081918192
:1021C0004F2D50E0DC01ED91FC910280F381E02D78
:1021D000B8011995F60180819181B8017E5FDC011B
:1021E000ED91FC910280F381E02D42E050E01995E1
:1021F0008F2D0F90DF91CF911F910F91FF90EF9056
:10220000DF90CF90BF9008958F5F8E3F09F091CF00
:1022100096CF982F8FEF8083F80180E0891728F4FC
:1022200021912E3719F5F7018083D6018C9189838E
:10223000AE014F5F5F4FB801C8010E94C371F60144
:10224000208131814091830A5091840AD80180E035
:102250003327BD01601B710B6217730748F4ED91C2
:10226000E827E40FF52FF11D8081F3CF8F5FD6CFE4
:10227000F801E350FE4FB082D7019C9131969083D4
:10228000F6019081F801E150FE4F908331968083F2
:10229000D601FC907ECF1092760781E0809375077F
:1022A0001092500761E084E10E94F97861E085E1D5
:1022B0000E94F978E9EBF0E080818E7F8083808155
:1022C0008D7F808388E48093B80085E48093BC0090
:1022D0000895CF93DF9391E0909382048823B9F01F
:1022E000C091B800D091BA008091BC008A7B8093E5
:1022F000BC0060E084E10E94F97860E085E10E9422
:10230000F9780E944B11D093BA00C093B800DF91C6
:10231000CF91089585ED8093BC00809178079091CE
:102320007907A0917A07B0917B070796A11DB11D8F
:1023300023E0B695A795979587952A95D1F7209193
:10234000BC0024FD03C010927607089540917807E1
:102350005091790760917A0770917B07452B462B46
:10236000472B69F30097A105B10541F02AE22A95B0
:10237000F1F700C00197A109B109E1CF809177077A
:102380000C9469111F920F920FB60F9211240BB685
:102390000F922F933F934F935F936F937F938F93FE
:1023A0009F93AF93BF93EF93FF938091B900887F82
:1023B000803609F44DC008F040C0883209F4A9C045
:1023C00028F5803109F49DC0C8F4882309F4FBC0C6
:1023D000883009F496C0FF91EF91BF91AF919F9122
:1023E0008F917F916F915F914F913F912F910F90BE
:1023F0000BBE0F900FBE0F901F901895883109F4F7
:1024000088C0803241F78093740714C0803409F487
:102410009DC040F48033B9F38833E9F680937407A4
:1024200085ECB0C0803509F485C0883509F496C0C4
:10243000883489F60E948A11CECF883909F48CC07D
:1024400038F5883729F050F4883611F0803719F6BE
:1024500083E0809376071092C50457C0883809F44A
:102460007BC0803919F0803809F0B5CF8091C50460
:10247000803208F071C0E091C50481E08E0F809336
:10248000C5048091BB00F0E0EB55FB4F80833DC05D
:10249000803B39F0E0F4803A09F479C0883A09F0D9
:1024A0009ACF84E0809376071092A4041092A3043C
:1024B000E091C604F091C70419958091A30481119D
:1024C0000FC081E08093A3041092830409C0803C74
:1024D00009F4A6CF883C09F4A3CF883B09F07BCF51
:1024E000E091A40481E08E0F8093A404F0E0ED5706
:1024F000FB4F80818093BB009091A4048091A30442
:1025000029C0809151078093BB0085EC8093BC006B
:1025100062CF9091730780917207981758F5E091F8
:10252000730781E08E0F80937307F0E0EE5AF84F47
:102530008081E9CFE091730781E08E0F809373076C
:102540008091BB00F0E0EE5AF84F808390917307C2
:10255000809172079817C8F285E8D8CFE091730789
:1025600081E08E0F809373078091BB00F0E0EE5AFC
:10257000F84F80838091750781115CCF81E0809353
:10258000500784EA8093BC001092760724CF85EC34
:102590008093BC00109276078091C504803230F49D
:1025A000E091C504F0E0EB55FB4F10826091C5044B
:1025B00070E0E091C804F091C90485EA94E01995AF
:1025C0001092C50408CF1092740734CF8F929F9257
:1025D000AF92BF92CF92DF92EF92FF920F931F9331
:1025E000CF93DF93FC012085211110C060E070E0E3
:1025F000CB01DF91CF911F910F91FF90EF90DF9072
:10260000CF90BF90AF909F908F900895EC010E9463
:102610000D7D29852111EACF8C809D80AE80BF8001
:10262000088119812A813B816B017C01C818D90876
:10263000EA08FB08C016D106E206F306B8F6080D54
:10264000191D2A1D3B1D68017901C61AD70AE80A1F
:10265000F90AC701B601CDCFCF92DF92EF92FF9278
:102660001F93CF93DF93FC01108511110AC010E076
:10267000812FDF91CF911F91FF90EF90DF90CF904E
:102680000895EC018185882319F018861986F0CF0A
:102690000E940D7DCC80DD80EE80FF806C197D096D
:1026A0008E099F09C880D980EA80FB806C157D0562
:1026B0008E059F0550F7DBCFCF93DF93EC01488366
:1026C00059836A837B830E940D7D6C837D838E8317
:1026D0009F8381E088871986DF91CF9108950F93BA
:1026E0001F93CF93DF93EC010E940D7D8B019C0122
:1026F0008C819D81AE81BF81488159816A817B81B6
:10270000081B190B2A0B3B0B041715072607370765
:1027100038F4CE01DF91CF911F910F910C945C138F
:10272000840F951FA61FB71F8C839D83AE83BF8325
:1027300081E088871986DF91CF911F910F910895CD
:10274000FF920F931F93CF93DF931F921F92CDB7EA
:10275000DEB7182FF62E072F1A82198265E379E06B
:1027600082EE99E00E947A6B612F82EE99E00E94DE
:10277000A378E6E9F3E091E090831183F28203838A
:1027800084E08483E1E9FAE090831183F282038399
:10279000848385E090E09A83898341E0BE016F5F86
:1027A0007F4FCF010E947A100F900F90DF91CF9151
:1027B0001F910F91FF90089570E060E00C94A013BA
:1027C000CF93DF931F921F92CDB7DEB76091530F67
:1027D0003091510F41E0409390038093910394E036
:1027E0009093950323E0E7E4F6E0DF01522F1D927A
:1027F0005A95E9F7883309F467C0C8F4823109F4BF
:1028000063C08B3209F489C0833009F081C0E5E3ED
:10281000F4E0A2EBBCE081918D9384E0E035F80711
:10282000D1F78BE190E09A83898346E06AC08135D5
:1028300009F42CC1823509F439C1803509F068C02A
:102840006C53770B809162068093540480915B06F1
:10285000809355048091A70780935604FB01E31BE6
:10286000F10937FDF39534E63E9FC0013F9F900D7F
:1028700011240E9492B16093570480913102809399
:102880005C0480911F0280935D0480911E028093FE
:102890005F0480915F0680935E0480917B06809345
:1028A0005B04809117028093590480916606909191
:1028B00067068230910509F4D7C008F047C0019738
:1028C00009F44DC084E0D1C02091370220939203D7
:1028D000909138029093930331E03093B20C80933F
:1028E000B30C2093B40C9093B50C80919403809317
:1028F000B60C84E08093B70C86E090E09A838983DD
:1029000042E0BE016F5F7F4F82EB9CE00E947A1035
:102910000F900F90DF91CF91089550913D02509309
:10292000920330913C023093930320913B02209319
:1029300094034093B20C8093B30C5093B40C309337
:10294000B50C2093B60C9093B70CD6CF833091057D
:1029500009F48EC0059709F0B5CF85E086C0409395
:1029600058048091450280936004809137028093DF
:1029700061048091380280936204809127028093E1
:1029800063048091290280935A04809128028093E5
:10299000640480912E028093650480912F028093BD
:1029A00070048091320280936604809125028093A6
:1029B000680480916B0690916C068130910509F452
:1029C0005AC0029709F459C081E08093670480914E
:1029D0002302809369048091350280936A04809178
:1029E000360280936B048091260280936C04809160
:1029F0006106813009F443C010926D048091CA04CD
:102A000080936E04809118028130E1F18230E1F10F
:102A100081E080936F0480914602809371048091DD
:102A200060068093720480913902809373048091D0
:102A30003A028093740480912402809375048091FB
:102A40006E0680937604E4E5F4E0A2EBBCE087E751
:102A500094E021912D938E179F07D9F783E290E0A0
:102A60009A83898343E04DCF82E08093580479CFE5
:102A70002093580476CF82E0A8CF83E0A6CF80933E
:102A80006D04BCCF82E0C5CF83E0C3CFE1E9F6E0BF
:102A9000A2EBBCE081918D9356E0E53AF507D1F7C2
:102AA00084E190E09A83898344E02BCF80913E02B9
:102AB00080937D0680913F0280937E068091400244
:102AC00080937F068091410280938006809142022C
:102AD00080938106809115029091160228EE33E0D2
:102AE000B9010E947EB16093820680911302909199
:102AF0001402B9010E947EB1609383068091110295
:102B000090911202B9010E947EB160938406809177
:102B10000F0290911002B9010E947EB16093850668
:102B200080910D0290910E02B9010E947EB16093D6
:102B3000860680912A0280937C068091AB068111E3
:102B400019C0409387061092880610928906109249
:102B50008A0610928B068EE180938C0683E2809326
:102B60008D0688E280938E0682E380938F068CE345
:102B700080939006ECE7F6E0A2EBBCE081918D93A8
:102B800086E0E139F807D1F785E190E09A838983FF
:102B900045E0B7CE8091520490915304892B91F077
:102BA00080919F079091A0070197039758F4609137
:102BB0004E0F062E000C770B80915004909151041B
:102BC0000E9452768BE20C94E01380919F079091C3
:102BD000A0070197039708F0B4C160914F0F062E2C
:102BE000000C770B8CE390E00E94527660914F0FBF
:102BF000062E000C770B89E491E00E9452766091DA
:102C00004F0F062E000C770B8BE490E00E9452765B
:102C100060914F0F062E000C770B8EE790E00E941C
:102C2000527660914F0F062E000C770B8BE691E0E9
:102C30000E94527660914F0F062E000C770B8FE7A3
:102C400090E00E94527660914F0F062E000C770B99
:102C500083EB90E00E94527660914F0F062E000C9D
:102C6000770B82E090E00E9452768091A7079091C6
:102C7000A80760914F0F8230910509F412C10397A4
:102C800009F462C1062E000C770B80916F069091BB
:102C90007006029709F067C16E51710981E090E0FA
:102CA0000E94527660914F0F062E000C770B6E51EA
:102CB00071098FE090E00E94527660914F0F062ECE
:102CC000000C770B6852710980E190E00E94527607
:102CD00060914F0F062E000C770B6E5171098DE934
:102CE00091E00E94527660914F0F062E000C770BF8
:102CF0006852710985E991E00E94527660914F0F08
:102D0000062E000C770B8CE591E00E9452766091C4
:102D10004F0F062E000C770B82EA91E00E9452764C
:102D200060914F0F062E000C770B80E991E00E9416
:102D3000527660914F0F062E000C770B645171098B
:102D400080E691E00E94527660914F0F062E000CB3
:102D5000770B6451710982E190E00E945276609194
:102D60004F0F062E000C770B6451710983E190E040
:102D70000E94527660914F0F062E000C770B645123
:102D8000710984E190E00E94527660914F0F062E07
:102D9000000C770B6451710985E190E00E94527636
:102DA00060914F0F062E000C770B6451710986E17C
:102DB00090E00E94527660914F0F062E000C770B28
:102DC000645171098DE890E00E94527660914F0F36
:102DD000062E000C770B645171098FE890E00E9479
:102DE000527660914F0F062E000C770B64517109DB
:102DF00083E990E00E94527660914F0F062E000CFE
:102E0000770B645171098EE890E00E9452766091D0
:102E10004F0F062E000C770B6451710980E990E08A
:102E20000E94527660914F0F062E000C770B645172
:102E3000710982E990E00E94527660914F0F062E50
:102E4000000C770B6451710984E990E00E9452767E
:102E500060914F0F062E000C770B6451710981E9C8
:102E600090E00E94527660914F0F062E000C770B77
:102E70008AE691E00E94527660914F0F062E000C78
:102E8000770B89E691E00E94527680912A0488238C
:102E9000C1F060914F0F062E000C770B8EE491E08D
:102EA0000EC0062E000C770B8BE791E00E94527645
:102EB00060914F0F062E000C770B8CE791E00E947B
:102EC000527680916F06909170068230910509F4D8
:102ED0006FC08330910509F4A0C0019709F487C041
:102EE0008091A806882369F160914F0F062E000C8F
:102EF000770B82E690E00E94527660914F0F062E8B
:102F0000000C770B8FE791E00E94527660914F0F93
:102F1000062E000C770B89E891E00E9452766091B2
:102F20004F0F062E000C770B83E690E00E9452763E
:102F300060914F0F062E000C770B88E490E00E9402
:102F400052768BE20C94E013062E000C770B85E290
:102F500090E00E94527660914F0F062E000C770B86
:102F600086E290E0ACCF81E090E00E9452766091E2
:102F70004F0F062E000C770B8FE090E00E945276E8
:102F800060914F0F062E000C770B80E190E00E94BD
:102F9000527660914F0F062E000C770B8DE991E071
:102FA0000E94527660914F0F062E000C770BA2CE36
:102FB00060914F0F062E000C770B82E390E00E9489
:102FC000527660914F0F062E000C770B84E591E04E
:102FD0000E9452768091A806882309F4B2CF6091AE
:102FE0004F0F062E000C770B84E390E0A8CF609182
:102FF0004F0F062E000C770B87E390E00E9452766D
:103000008091A806882309F49CCF60914F0F062E6B
:10301000000C770B8AE390E092CF60914F0F062E61
:10302000000C770B87E491E08ACFCF93DF931F9258
:103030001F92CDB7DEB7EBE8F3E021E02083818378
:103040006283738394E09483E2EBFCE020838183CA
:1030500062837383948385E090E09A83898341E05F
:10306000BE016F5F7F4FCF010E947A100F900F90CB
:10307000DF91CF91089570E060E00C941518EEE1B7
:10308000F0E18091420280838091410281838091AE
:103090004002828380913F02838380913E02848339
:1030A000089580914502843251F0883221F08431B4
:1030B00041F48AE001C087E080930402089585E02E
:1030C000FBCF8FE0F9CF80916B0690916C06892B36
:1030D00021F088E08093030208951092030208957E
:1030E0009091460280914502890F27E0280F209396
:1030F000511990933A19809350198091230220918D
:10310000CA0440916B0650916C06452BA9F0909132
:1031100003023FEF390F3093430290930811980F49
:103120008FEF890F80930711909306118FEF820F15
:10313000890F80930511089510924302109208118F
:103140009FEF980F9093071180930611820F815083
:10315000F0CF81E080931D0280931C0280931B02BC
:10316000089580911702882349F081E02091C510CD
:103170003091C610232B19F080E0089581E0089566
:1031800080916F0690917006029749F480912F020A
:10319000882331F081E0909145029C3009F480E071
:1031A0000895BF92CF92DF92EF92FF920F931F93F9
:1031B000CF93DF938C01809127020E944009B82EA3
:1031C000F0903919C0913A1985E299E10E942C13C7
:1031D000882309F4A8C1FC1A8F2D0E940109E82E4A
:1031E00080910C02882309F460C085E0809334024A
:1031F0008FEF98E10E943A6D882389F010920C02BB
:103200001093090200930802A80170E060E085E2D3
:1032100099E10E945C138CE380935D031AC08FEFE9
:1032200098E10E94A46D9093090280930802AC017A
:1032300070E060E085E299E10E945C1380915D039B
:103240008F5F8F3080F180935D0380915D038D33BC
:1032500010F78091A80681110CC08091A6068111FB
:1032600008C080914B06811104C080915D030E94CB
:10327000090B80911D02682F70E0909145029432F5
:1032800009F48CC0983219F0943109F0F4C08230FE
:1032900008F086C0C8010E947EB1EB01CC0FDD1F93
:1032A000C60FD71F97C08FE0CECF809131048823FF
:1032B00099F185E0809334028FEF98E10E943A6D96
:1032C000882319F010923104C4CF8FEF98E10E9447
:1032D000A46DEC019093090280930802AC0170E0A8
:1032E00060E085E299E10E945C13C932D10568F083
:1032F00080915D03843220F0815080935D0305C08E
:10330000C536D10510F08031B8F780915D038F305C
:1033100008F09FCF8FE080CF10930902009308023E
:1033200080911D0290914502943211F0983211F56E
:103330008230D8F0A801481B51094017510710F0FE
:1033400050E040E090911A028B5F911101C085E03E
:1033500080933402809134028B3018F08AE080939D
:1033600034024115510589F012C085E08093340282
:10337000A801F0CF95E090933402A801823088F341
:10338000481B51094017510760F341E050E070E0DD
:1033900060E085E299E10E945C135BCF823048F0E7
:1033A000E801C61BD70BC017D107A0F0C1E0D0E0E1
:1033B00013C0C8010E947EB1EB0180910C02811103
:1033C00009C080913104811105C0CB01880F991F7C
:1033D000C80FD91F209751F30E94C0188111A3C0B4
:1033E000EF2DF0E0E156FC4F808181111BC0EE20F3
:1033F000C9F080911A028823A9F029E1F29EC00148
:1034000011249C01215D3E4E690160E0C9010E94CA
:10341000D96F9E0150E040E004E110E06B2DC60141
:103420000E94A66F80913202882309F486C08091A1
:103430004502843251F1883209F47FC09091310401
:103440008431E9F591110DC080910C02811109C000
:1034500080914B06811105C08091A706882309F44D
:1034600072C092E29F1548F181EF8F0D853008F010
:1034700068C089E03AC0823008F092CFC8010E944B
:103480007EB1EB01CC0FDD1FA5CF809131048111FE
:103490000DC080910C02811109C080914B068111F1
:1034A00005C08091A706882309F44DC037E28BE15F
:1034B000F316D9F083E1F81242C08FE016C09111E3
:1034C0000CC080910C02811108C080914B068111C3
:1034D00004C08091A7068823B1F120E22F1548F29D
:1034E00083EF8F0D873088F585E020912902909138
:1034F0003919222309F454C0E11029C0209188030E
:10350000281728F52F5F209388032091391980917F
:10351000460290E087962817190629F024F080913A
:103520003A1980933919DF91CF911F910F91FF9034
:10353000EF90DF90CF90BF90089580E0D6CF85E1E7
:10354000D4CF8BE0D2CF83E0D0CF87E0CECF109224
:103550008803C92FE11020C020913A190C2F10E0E8
:10356000822F90E08796801791077CF28C2F821B28
:103570000E940109882319F0C0933919C6CF8091A0
:10358000460290E087960817190721F480913A19AE
:1035900080933919CF5FE0CF9F5F90933919B5CFF2
:1035A000E11012C020918803281770F42F5F209338
:1035B00088039091391980913A19981708F0B3CF80
:1035C00080914602895DADCF10928803C92FE1102A
:1035D00010C080913A198C1760F73C2F381B832F4D
:1035E0000E940109882319F0C0933919E2CFC15014
:1035F000F0CF915090933919DCCF8091A70790912B
:10360000A8078230910528F08430910568F005976D
:1036100011F18CE291E0909309028093080290935B
:10362000070280930602089560912C0270912D028A
:1036300090E080E00E94DAAF26E636E646EA5FE3F5
:103640000E943BB00E94C0B27093090260930802CE
:103650008CE291E0E4CF88EC90E0909309028093B3
:103660000802F6CFDF92EF92FF920F931F93CF9352
:10367000DF938FE9E82E83E0F82E0EE513E0D0E02B
:10368000C0E0DD24D394F70111927F0160E0CE0108
:10369000895E9A4E0E94D96F60E0CE01815D9E4E98
:1036A0000E94D96FF801D1928F016996C83EF3E06C
:1036B000DF0749F7DF91CF911F910F91FF90EF90B6
:1036C000DF9008950F931F93CF93DF9300D000D026
:1036D000CDB7DEB78FEF9FEFDC0189839A83AB8391
:1036E000BC8310E000E01E830D83BE016B5F7F4F43
:1036F000CE0101960E94EE6CBE016A5F7F4FCE0143
:1037000001960E94EE6C0F5F1F4F0D32110559F7A5
:103710008BE190E09E838D83BE016B5F7F4FCE0176
:1037200001960E94EE6CBE016A5F7F4FCE0101964A
:103730000E94EE6C82E190E09E838D83BE016B5F00
:103740007F4FCE0101960E94EE6CBE016A5F7F4FF3
:10375000CE0101960E94EE6C69817A818B819C81F9
:10376000609570958095909526960FB6F894DEBF7B
:103770000FBECDBFDF91CF911F910F910895EF92B2
:10378000FF920F931F93CF93DF9300D000D0CDB75C
:10379000DEB70E94621B69837A838B839C83CE0190
:1037A00001967C010CEF1FE01E830D83F7016191F0
:1037B0007F01CE0105960E94DC0F0F5F1F4F0115A0
:1037C000F0E11F0789F726960FB6F894DEBF0FBE0B
:1037D000CDBFDF91CF911F910F91FF90EF90089592
:1037E0002F923F924F925F926F927F928F929F9211
:1037F000AF92BF92CF92DF92EF92FF920F931F93FF
:10380000CF93DF93CDB7DEB76F970FB6F894DEBFD7
:103810000FBECDBF6091530F6C53770B8091510F4A
:103820009B01281B310987FD339544E6429FC00167
:10383000439F900D11240E9492B1262F362F209085
:103840005B068091150290911602E8EEF3E0BF014D
:103850000E947EB1C62E8091130290911402BF0186
:103860000E947EB1D62E8091110290911202BF016A
:103870000E947EB1E62E80910F0290911002BF014E
:103880000E947EB1F62E80910D0290910E02BF0132
:103890000E947EB1662E8091310277247394882332
:1038A00011F0F2E07F2E80912902882483948823EE
:1038B00011F0E2E08E2E80912E02992493948823B9
:1038C00011F072E0972E80913202AA24A3948823EB
:1038D00011F062E0A62E80912A02BB24B3948823C3
:1038E00011F052E0B52E80911F0261E0811162E07B
:1038F00080911E0201E0811102E080915F0612E0DA
:10390000811101C011E08091620690916306B2E0DE
:10391000019709F0B1E080916E06A2E0811101C02B
:10392000A1E080912F02811193C081E08E8F809160
:103930007B06882309F48FC0E2E0EF8F80911702A5
:1039400042E0342E811102C0332433948091280246
:1039500072E0811171E081E0820F353608F085E672
:1039600090913E0251E0911152E090913F0241E06E
:10397000911142E090914002911170C091E020912C
:10398000410255245394222311F032E0532E20910A
:10399000420244244394222311F022E0422E20913B
:1039A000660630916706215031092530310508F04F
:1039B00057C02B593D4FF901208179828A829B8221
:1039C000AC82BD826E830F8318872986BA87AB8746
:1039D000FE8DFC873F8D3D877E878F87C88AD98A79
:1039E000EA8AFB8A6C8A5D8B4E8B9F8B588E498E40
:1039F0002A8F3B8ECE0101967C0102E110E01D8FE3
:103A00000C8FF70161917F01CE014C960E94DC0F73
:103A10000F5F1F4F0D32110591F70E94BF1B6F966C
:103A20000FB6F894DEBF0FBECDBFDF91CF911F91CF
:103A30000F91FF90EF90DF90CF90BF90AF909F904D
:103A40008F907F906F905F904F903F902F90089550
:103A500092E09E8F6CCFF1E0FF8F70CF92E08FCF1E
:103A600024E0ABCF0F931F93CF93DF931F921F924E
:103A7000CDB7DEB702E110E01A8309836FEFCE0104
:103A800001960E94DC0F0F5F1F4F0D321105A1F749
:103A90000E94BF1B0F900F90DF91CF911F910F914C
:103AA0000895EF92FF920F931F93CF93DF93CDB7BB
:103AB000DEB764970FB6F894DEBF0FBECDBF80911E
:103AC000610632E0813009F031E08091180293E024
:103AD000813021F094E0823009F092E040916B0651
:103AE00050916C0682E04115510529F083E0413088
:103AF000510509F084E020916006222309F451C0A9
:103B000022E0409146024983409145024A83409118
:103B100023024B833C83309139023D83309137023D
:103B20003E83309135023F8330913A02388730919D
:103B300038023987309136023A87309124023B8728
:103B4000309127023C87309126023D873091250233
:103B50003E873091CA043F87988B898B2A8BCE0190
:103B600001967C0110E000E01C8B0B8BF70161914A
:103B70007F01CE0143960E94DC0F0F5F1F4F023181
:103B8000110591F70E94BF1B64960FB6F894DEBF33
:103B90000FBECDBFDF91CF911F910F91FF90EF909E
:103BA000089521E0AECF0F931F93CF93DF931F9221
:103BB0001F92CDB7DEB710E000E01A8309836FEFE4
:103BC000CE0101960E94DC0F0F5F1F4F02311105DD
:103BD000A1F70E94BF1B0F900F90DF91CF911F9113
:103BE0000F9108952091640680919F079091A007FE
:103BF00001970397C0F480915204909153042111CE
:103C000007C021E02093640665E0892B31F4089514
:103C100010926406892BD9F366E08091500490914C
:103C200051040C944E74211104C081E08093640609
:103C3000089510926406EBCF9C01275A31403093CF
:103C4000530420935204885A91408115904138F4CE
:103C500084EF91E090935104809350040895109262
:103C600053041092520484EF97E00C943B748091BB
:103C70009F079091A0070197039798F480915204B1
:103C800090915304892B59F08091500490915104E4
:103C9000843F21E0920718F064E00E944E740E9475
:103CA0005B7710924C061092650661E070E084E24A
:103CB0000E94A013609150047091510485E40C940B
:103CC00015188091520490915304892B09F470C007
:103CD0008091500490915104843F21E0920708F4B0
:103CE00067C021E02093650620919F073091A007CF
:103CF0002230310509F43FC02330310519F021305D
:103D00003105F9F42091640665E0211101C066E0F7
:103D10000E944E7460914E0F062E000C770B80911E
:103D20005004909151040E94527661E080915004B9
:103D3000909151040E94B4760E945B7781E0809359
:103D40000A0840E157E260E070E084E59FE00E94ED
:103D50005C138091650661E070E0882311F062E0F9
:103D600070E084E20E94A0136091500470915104AD
:103D700084E40C9415182091640665E0211101C0BB
:103D800066E00E944E7460914E0F062E000C770B79
:103D900080915004909151040E94527650E040E08E
:103DA00061E080915004909151040E941F76C4CF2D
:103DB0000895CF93DF93C0915004D091510421977F
:103DC000C43F81E0D80730F4C0915204D09153042D
:103DD000CD50DE4F80916506882351F00E94371E3A
:103DE000D0935104C0935004DF91CF910C94611E85
:103DF000D0935104C0935004BE0185E4DF91CF916C
:103E00000C941518CF93DF93C0915004D0915104B6
:103E1000219680915204909153048D509E4F8C179F
:103E20009D0710F4C4EFD1E080916506882351F01E
:103E30000E94371ED0935104C0935004DF91CF915C
:103E40000C94611ED0935104C0935004BE0185E4CC
:103E5000DF91CF910C94151820919F073091A00706
:103E6000215031092330310518F464E00C944E746C
:103E700008958FE891E00E942C1F87E390E00E9454
:103E80002C1F8BE691E00E942C1F8CE691E00C9495
:103E90002C1F8DE890E00E942C1F8EE890E00E947D
:103EA0002C1F8FE890E00E942C1F80E990E00E9478
:103EB0002C1F81E990E00E942C1F82E990E00E9473
:103EC0002C1F83E990E00E942C1F84E990E00E945F
:103ED0002C1F80916F0690917006059721F483EA5C
:103EE00091E00E942C1F80916F06909170060697BA
:103EF00021F484EA91E00E942C1F89E491E00E9461
:103F00002C1F8CE491E00E942C1F8091A706811148
:103F100006C08091790690917A06892B11F40C9451
:103F2000391F0895CF92DF92EF92FF920F931F9364
:103F3000CF93DF936C01F62EC42F14160CF4C0E05F
:103F4000CA3B0CF4CAEB80919F079091A007823086
:103F5000910589F18330910519F0019709F047C067
:103F60000C2E000CDD0B222379F06AEB7FEFC601EB
:103F70000E9452766E2DC6010E94B476A801BE0141
:103F8000C6010E94807608C0BE01C6010E9452761A
:103F90006E2DC6010E94B47665E0F11001C066E0A6
:103FA000C601DF91CF911F910F91FF90EF90DF90AD
:103FB000CF900C944E740C2E000CDD0B222361F07C
:103FC0006AEB7FEFC6010E94527650E040E06E2D12
:103FD000C6010E941F76D2CFBE01C6010E94527652
:103FE00050E040E06E2DC6010E941F76D5CFDF91D4
:103FF000CF911F910F91FF90EF90DF90CF90089598
:10400000EF920F931F93CF93DF93EC0180916F0694
:10401000909170068130910509F4A7C0029709F4C8
:10402000A1C08091A7079091A8078330910509F45A
:1040300078C08530910509F492C0029709F07CC0E0
:1040400080912B02853009F461C08AE090E00E94E3
:104050002C1F87E490E00E942C1F80E891E00E94D2
:104060002C1F89E490E00E942C1F8AE490E00E94BB
:104070002C1F81E08093A7060E94391F8091A7071B
:104080009091A8070597E1F580912A04882321F0F3
:104090008EE491E00E942C1F81E090E00E942C1F92
:1040A00085E991E00E942C1FEE24E39410E000E0EB
:1040B00020E040914F0F60E08FE891E00E94921F56
:1040C00004EC19E021E040914F0F61E087E390E0BC
:1040D0000E94921F8091750690917606059711F4C3
:1040E0000E94F50AAE0170E060E08CEE9FE00E9455
:1040F0005C1381E0809331048093300480932F041B
:10410000DF91CF911F910F91EF90089588E891E092
:104110000E942C1F8BE891E00E942C1F8AE891E0FE
:104120009ECF8BE090E00E942C1F87E490E00E94DD
:104130002C1F8AE090E093CF81E891E00E942C1F31
:1041400082E891E00E942C1F83E891E00E942C1FDE
:104150008FE690E00E942C1F8EE690E088CF82E8E8
:1041600091E0F4CF85E390E082CF8BE390E07FCFC6
:10417000CF92DF92EF920F931F93CF93DF9368EE6E
:1041800073E00E947EB1EB016B0184EBC80ED11C81
:10419000CB018D549F4F0E942C1FC6010E942C1FE3
:1041A000CE018B549F4F0E942C1FEE24E39410E00D
:1041B00000E020E040914F0F60E0C6010E94921F96
:1041C000DF91CF911F910F91EF90DF90CF900895E5
:1041D0008330B9F198F4823009F442C080910D0225
:1041E00090910E02885E9340803D27E0920708F48C
:1041F00046C090930E0280930D0212C0843091F05D
:10420000853061F78091150290911602885E934087
:10421000803D27E0920798F1909316028093150253
:104220000C94B8208091130290911402885E934000
:10423000803D27E0920718F19093140280931302B7
:10424000EFCF8091110290911202885E9340803DE1
:1042500027E09207A0F09093120280931102E0CF22
:1042600080910F0290911002885E9340803D27E07C
:10427000920728F09093100280930F02D1CF0895F7
:104280008330B9F198F4823009F442C080910D0274
:1042900090910E0288519C4F81362AEE920708F0C9
:1042A00046C090930E0280930D0212C0843091F0AC
:1042B000853061F7809115029091160288519C4FCC
:1042C00081362AEE920798F5909316028093150294
:1042D0000C94B820809113029091140288519C4F45
:1042E00081362AEE920718F59093140280931302F8
:1042F000EFCF809111029091120288519C4F81362C
:104300002AEE9207A0F49093120280931102E0CF5C
:1043100080910F029091100288519C4F81362AEEB5
:10432000920728F49093100280930F02D1CF089542
:10433000EF920F931F930E94391F1092A70680914E
:104340006D06882309F471C040914F0F8091A70733
:104350009091A807EE24E39410E000E020E060E0F4
:10436000059709F05EC082E691E00E94921F80915D
:104370006F0690917006029709F04BC040914F0F65
:10438000485204EF11E021E061E085E991E00E94EC
:10439000921F80912A04882361F0EE24E39400EDBB
:1043A00017E021E040914F0F61E08EE491E00E9420
:1043B000921F1092310410922F040E94380910921B
:1043C000F40F1092F50F40E050E0BA018BE399E151
:1043D0000E945C1340E050E0BA0185E299E10E943E
:1043E0005C1340E050E0BA0185E291E10E945C1369
:1043F00080917506909176060597B9F48091300208
:10440000882399F061E08DE21F910F91EF900C9459
:10441000F978EE24E39400ED17E021E040914F0F8E
:10442000B3CF8CE691E00E94921F1F910F91EF9005
:104430000895EF920F931F9380919D03882331F08D
:1044400080E691E00E942C1F10929D0380916F06E0
:10445000909170068230910509F4BAC183309105BC
:1044600009F4E6C1019709F4CBC18091A7079091A7
:10447000A80720912B02253009F43FC12091740632
:10448000222309F428C140914F0FE12C10E000E0F5
:1044900020E060E083309105A1F08530910509F4BA
:1044A00013C1029709F009C18DE791E00E94921FA4
:1044B0000AEF10E021E040914F0F61E08FE791E0BB
:1044C0000CC084E690E00E94921F04E619E121E00E
:1044D00040914F0F61E083E690E00E94921F81E0DF
:1044E0008093730680917206882309F403C180913A
:1044F000A7079091A80740914F0FE12C10E000E032
:1045000020E060E08330910509F0E8C084E690E0A7
:104510000E94921F04E619E121E040914F0F61E0F3
:1045200088E490E00E94921F81E080937106809160
:10453000A7079091A80704970297F8F480912B029F
:104540008530D8F484EC9FE00E94E61220916F063B
:1045500030917006683B7B408105910508F074C17D
:1045600060914F0F2230310509F06CC1685244E66A
:1045700050E080E190E00E94467780916F06909134
:104580007006059759F4E12C04E610E021E0409113
:104590004F0F60E083EA91E00E94921F80916F06C6
:1045A00090917006069759F4E12C04E610E021E0A2
:1045B00040914F0F60E084EA91E00E94921F81E0F9
:1045C0008093A80687E00E943B188091A7079091EE
:1045D000A8070497029770F460912B0270E088E9B5
:1045E0009AE30E947EB1AB0170E060E08FE299E156
:1045F0000E945C1380913102882309F18091690641
:1046000090916A060297D9F40E947DAF28E030E0CD
:1046100040E050E00E940FB1695F7F4F8F4F9F4F86
:1046200028EE33E0629FA001639F500D729F500DF2
:10463000112470E060E08EEC9FE00E945C1380E04B
:104640000E94B50880916F06909170060297A1F0C4
:10465000E0912B02E150FF0BEE0FFF1FEF56F44FDE
:104660004591549170E060E08DE290E10E945C130E
:1046700010922B1010922C101092491010924A1088
:104680008FEF0E94090B109212101092131042E348
:1046900050E060E070E080E090E10E945C1381E017
:1046A00080932C0448E95AE360E070E088ED9FE0D5
:1046B0001F910F91EF900C945C138BE990E00E9496
:1046C000921F03E111E0F6CE8FE491E00E94921F69
:1046D00008EC10E0EFCE1092730604CF059739F482
:1046E0008FE491E00E94921F0CE211E015CF85E06B
:1046F00090E0F8CF109271061ACF40914F0FE12C45
:1047000010E000E020E060E08330910509F445C04E
:104710008530910509F447C0029709F041C087E848
:1047200091E00E94921F80917406882309F449C089
:104730008091A7079091A80721E0209373064091EC
:104740004F0FE12C8230910589F504EA16E061E013
:1047500089E891E00E94921F80917206882351F2AD
:104760008091A7079091A80721E0209371064091BE
:104770004F0FE12C0CEB12E08330910529F10CE294
:1047800011E021E0029701F504EA16E021E061E082
:1047900089E891E00E94921FCACE81E690E0C1CFE5
:1047A0008BE990E0BECF8FE491E0BBCF0CE211E04B
:1047B000039711F40CEB12E021E061E082E690E057
:1047C000C9CF10927306C8CF61E088E490E0E2CFD1
:1047D00085E390E00E942C1FE12C10E000E020E037
:1047E00040914F0F60E083E390E00E94921F02E54A
:1047F00013E021E040914F0F61E084E390E0CACFE5
:104800008BE390E00E942C1FE12C10E000E020E000
:1048100040914F0F60E089E390E00E94921F08EE04
:1048200013E021E040914F0F61E08AE390E0B2CFC6
:10483000E12C10E000E020E040914F0F60E086E4C2
:1048400091E0A8CF625093CE84EC9FE022303105F6
:1048500041F40E94E61220914F0F2852AB01622FC3
:1048600088CE0E94E61220914F0F2250F7CFEF9290
:104870000F931F9340914F0F80916F069091700698
:10488000EE24E39410E000E020E060E0029751F5B0
:1048900083E591E00E94921F81E08093A6068091BB
:1048A0006F06909170060297D9F548EB5BE060E0E7
:1048B00070E087E390E10E945C138091A7079091DC
:1048C000A8070297029740F48CE291E090930702C8
:1048D000809306020E94321B86E11F910F91EF9098
:1048E0000C943B1888E691E00E94921F8091A707E4
:1048F0009091A8070497029740F420E040914F0F51
:1049000061E089E691E00E94921FEE24E39410E0BA
:1049100000E020E040914F0F60E085E591E0BACFE4
:1049200040EA5FE060E070E087E390E10E945C13A2
:104930001092081010920910109212101092131079
:1049400042E350E060E070E080E090E1B4CFEF92AD
:104950000F931F9380916F0690917006823091059E
:1049600009F47CC083309105A9F1019709F47DC059
:104970008091A7079091A80720912B02253009F478
:1049800055C08330910571F08530910509F44BC015
:10499000029709F045C08DE791E00E942C1F8FE738
:1049A00091E006C084E690E00E942C1F83E690E030
:1049B0000E942C1F80913102882321F089E090E031
:1049C0000E942C1F88E490E00E942C1F82E690E059
:1049D0000E942C1F8091690690916A06009709F445
:1049E0004BC0019709F468C01092730610927106CB
:1049F00080916F0690917006059721F483EA91E00B
:104A00000E942C1F80916F0690917006069709F006
:104A100071C084EA91E01F910F91EF900C942C1FCC
:104A200080E690E0BACF8FE491E0B7CF8330910574
:104A300061F08530910579F0029751F487E891E0B3
:104A40000E942C1F89E891E0B3CF81E690E0B0CFBF
:104A50008BE990E0ADCF8FE491E0AACF83E390E0C3
:104A60000E942C1F84E390E0B3CF89E390E00E9482
:104A70002C1F8AE390E0ACCF82E090E090936A062E
:104A80008093690680919F079091A007039741F456
:104A90008AE490E00E942C1F89E490E00E942C1F81
:104AA000E12C10E000E020E040914F0F60E089E44D
:104AB00090E00E94921F98CF82E090E090936A0667
:104AC0008093690680919F079091A007039741F416
:104AD0008EE690E00E942C1F8FE690E00E942C1F33
:104AE000E12C10E000E020E040914F0F60E08FE605
:104AF00090E0DFCF1F910F91EF900895EF920F9309
:104B00001F9380913B02853020F510923B0280E498
:104B100090E00E942C1FEE24E39410E000E020E0DF
:104B20004091520F60E080E490E00E94921F8091DB
:104B30003B0226E4829FC001112464E670E00E94DB
:104B400092B1665460934E0F1F910F91EF900C94A9
:104B5000CA15855080933B02EACFEF920F931F93C3
:104B600080913B02803628F184E680933B0280E40A
:104B700090E00E942C1FEE24E39410E000E020E07F
:104B80004091520F60E080E490E00E94921F80917B
:104B90003B0226E4829FC001112464E670E00E947B
:104BA00092B1665460934E0F1F910F91EF900C9449
:104BB000CA158B5F80933B02EACFEF920F931F934E
:104BC00080913C02853020F510923C0280E490E018
:104BD0000E942C1FEE24E39410E000E020E04091BE
:104BE000520F60E080E490E00E94921F80913C02AE
:104BF00026E4829FC001112464E670E00E9492B115
:104C0000665460934F0F1F910F91EF900C94E51530
:104C1000855080933C02EACFEF920F931F938091CF
:104C20003C02803628F184E680933C0280E490E0E8
:104C30000E942C1FEE24E39410E000E020E040915D
:104C40004F0F60E080E490E00E94921F80913C0250
:104C500026E4829FC001112464E670E00E9492B1B4
:104C6000665460934F0F1F910F91EF900C94E515D0
:104C70008B5F80933C02EACFEF920F931F93CF9309
:104C8000C82F80919F079091A0070197039738F450
:104C90008091520F082E000C990B0E947778C11159
:104CA0001FC080916D06811114C080915906811139
:104CB00010C080E490E00E942C1FEE24E39410E0EA
:104CC00000E020E040914F0F60E080E490E00E941F
:104CD000921F8BE2CF911F910F91EF900C94E013F4
:104CE000CF911F910F91EF9008952091530F822F34
:104CF0008C53990BAC018091520F082E000C990B2C
:104D000084179507F1F080913D028530B0F4109240
:104D10003D0230913D02349FC001359F900D11241A
:104D20006CE97FEF0E9492B12C53620F6093520F97
:104D30006093500F80E00C943C26855080933D0298
:104D4000E8CF08958091520F882319F180913D0298
:104D50008036E8F084E680933D022091530F822F45
:104D60008C53990BAC0130913D02349FC001359FAB
:104D7000900D11246CE97FEF0E9492B12C53620FC9
:104D80006093520F6093500F80E00C943C268B5F31
:104D9000E2CF0895EF920F931F93CF93DF931F926B
:104DA0001F92CDB7DEB71091C00E112301F1809193
:104DB000EA0F882389F08091AD06882309F404C5A1
:104DC0004091E20F5091E30F6091E40F7091E50F75
:104DD00082EE9FE00E945C13133009F499C208F040
:104DE0008AC5113009F4F8C4123009F45FC20F907B
:104DF0000F90DF91CF911F910F91EF90089511E0E7
:104E00001093AC061092AD061092EA0F1092EB0FC1
:104E10008FE699E00E943B7482E00E943B188091EB
:104E2000AB0680933C048091330280933D048091D3
:104E3000A80680933E048091A7079091A80783302D
:104E4000910509F44EC08530910509F450C00297D0
:104E500009F04BC01093380481E02091790630911D
:104E60007A06232B09F480E080933904809162064E
:104E700090916306019709F43CC081E0809335046A
:104E80008091330490913404892BA9F181E08093BF
:104E9000360480912B0280933A046091DB0E70916E
:104EA000DC0E8091DD0E9091DE0E0E94C0B27093F8
:104EB0004F0460934E04E0916F06F09170063197B5
:104EC00081E0E730F105D0F48827E659F84D8F4F9F
:104ED0000C94A6B17D27DC27DE27E027E227E42714
:104EE000E62782E080933804B7CF83E0FBCF84E0ED
:104EF000F9CF82E0C3CF82E0CACF82E080933B0447
:104F0000809137028093410480913802809342045B
:104F100080911A028093370480911D02809340048F
:104F20008091A60680933F04809165068093470494
:104F300080914C068093480480916406811148C09A
:104F400081E08093490480915004909151049093A2
:104F50004B0480934A04809152049091530490939F
:104F60004D0480934C048091520F8A3B99F181E06B
:104F70008093430480913D028093440480913C02DD
:104F80008093450480913B028093460483E00E9415
:104F9000E01380914B06882339F00E94B1188111EB
:104FA00003C082E30E943B1884E00E943B188BE51B
:104FB00099E00E943B741BCF83E0A0CF84E09ECF9A
:104FC00085E09CCF86E09ACF87E098CF88E096CFA7
:104FD00082E0B7CF82E0CCCF1092AC0681E0809324
:104FE000AD0605CF85E899E00E943B741092AC06AF
:104FF00081E08093AD0640E45FE160E070E082EE26
:105000009FE00E945C13F3CE80916206909163064C
:10501000892B31F482E090E09093780680937706B4
:105020008091AB06882319F08AE40E94DC138FE399
:105030000E943B18DCCE8091790690917A068130EF
:10504000910539F4909378068093770687E10E9462
:105050003B188091AB06882319F08BE40E94DC1387
:1050600080E4E6CF80E40E94DC13C1CE8091AB06E1
:10507000882311F08EE4F7CF80916D06882309F420
:10508000B6CE0E943724B3CE80E797E10E9400207D
:105090008091A7079091A807059709F4A8CE0E94D0
:1050A000391FEE24E39404EC19E021E040914F0F06
:1050B00061E08BE691E00E94921F99CE0E949821B8
:1050C00096CE8091520F8A3B81F48091500F80934D
:1050D000520F86E20E94DC1361E070E08AE30E94D6
:1050E000151880E00E943C2682CE8093500F8AEBF8
:1050F0008093520F85E20E94DC1362E070E0EECFF5
:105100000E94752674CE0E94A22671CE0E94DD25D3
:1051100080E1A9CF0E940C268FE0A5CF0E947E25BA
:1051200066CE0E94AD2563CE80916506882319F076
:105130000E94371E5CCE8091520490915304892BBB
:1051400009F455CE8091500490915104843F9140D0
:1051500008F44DCE0E94611E4ACE809165068823D8
:1051600009F445CE80914C0681111EC010925C0F4F
:1051700010925D0F80919F079091A0070197039770
:1051800048F462E080915004909151040E944E7462
:105190000E945B7781E080934C0664E070E084E2DB
:1051A0000E94A01386E444CF40E45FE160E070E039
:1051B00084E59FE00E945C1380919F079091A00777
:1051C0000197039760F481E080930A0863E080917F
:1051D0005004909151040E944E740E945B7710928B
:1051E0004C0663E070E084E20E94A01387E420CFC5
:1051F0000E94021FFCCD0E94D91EF9CD0E94F21D13
:105200008091640661E070E0882311F062E070E054
:1052100082E20E941518EBCD80E50E94E013E7CDF5
:105220008091AB06882309F4E2CD8FE51CCF8091F5
:10523000AB06882311F080E616CF82E5EECF809191
:10524000520490915304892B09F4D1CD00917F042D
:1052500010918004043F81E0180708F4C8CD8091C4
:105260006506882339F00E94371E1093510400937D
:10527000500470CF1093510400935004B8CD0E9495
:10528000511D0E94F01B8CE890E00E942C1FEE2420
:10529000E39410E000E020E040914F0F60E08CE8E4
:1052A00090E009CF83E60E94DC13EDCF8091AD063C
:1052B000882309F49CCD9091B00D909377042091B0
:1052C000B10D209378048091B20D80937904809180
:1052D000B30D80937A048091B40D80937B04809108
:1052E000B50D80937C04222309F481CD91117FCDEB
:1052F000833009F07CCD64ED79E082EE99E00E9484
:105300007A6B6091780482EE99E00E94A3786FCD69
:105310008091AD06882309F46ACDA0EBBDE0E4E5F9
:10532000F4E08D91819394E0E737F907D1F782ECAF
:1053300099E00E943B7480915404813009F445C087
:10534000109263061092620688E40E94DC138DE3DB
:105350000E943B1880915504833009F45EC008F028
:1053600051C0823009F456C081E090E090935C0611
:1053700080935B0680915604833009F47FC008F067
:1053800052C0823009F466C080915804823009F41A
:1053900053C108F097C0813009F4A9C084E090E0BF
:1053A000909367068093660682E090E0909376067D
:1053B000809375068091911090919210892B09F03D
:1053C00044C181E0809330029EC081E090E09093E0
:1053D00063068093620689E40E94DC138EE30E94D8
:1053E0003B188091AB068111B5CF80916F069091EB
:1053F0007006892B09F4AECF1092700610926F06DA
:105400008BE0A6CF843061F0853009F0ADCF85E028
:1054100090E0ACCF82E090E0A9CF83E090E0A6CF0F
:1054200084E090E0A3CF8430D9F1853009F0ACCF8F
:1054300085E090E09093A8078093A70790935E067D
:1054400080935D0681E0809368068EE00E94DC1305
:105450008EE211C082E090E09093A8078093A707A6
:1054600090935E0680935D0681E0809368068BE0F2
:105470000E94DC1381E30E943B1886CF83E090E01A
:105480009093A8078093A70790935E0680935D068C
:1054900081E0809368068CE00E94DC1380E3EBCF10
:1054A00084E090E09093A8078093A70790935E060E
:1054B00080935D0681E0809368068DE00E94DC1396
:1054C0008FE2D9CF833009F4BDC0853009F066CFB3
:1054D00085E090E090936706809366069093760649
:1054E0008093750661E08DE20E94277963CF8093F7
:1054F000300281E090E09093670680936606909377
:105500007606809375062091530FA22FAC53BB0BE8
:10551000309157043A9FC0013B9F900D11246CE9D4
:105520007FEF0E9492B12C53620F6093510F81E084
:1055300090915C04913009F080E08093310281E029
:1055400090915D04913009F080E080931F0281E02A
:1055500090915F04913009F080E080931E0281E019
:1055600090915E04913009F080E080935F0681E0C5
:1055700090915B04913009F080E080937B0681E09C
:1055800090915904913009F080E080931702809146
:105590006004843229F0883219F0843109F058C04F
:1055A0008093450280916104809337028091620468
:1055B00080933802809163048093270281E0909168
:1055C0005A04913009F080E08093290281E09091A3
:1055D0006404913009F080E0809328028091650492
:1055E00091E0813009F090E090932E0291E02091BB
:1055F0007004213009F090E090932F0291E0209107
:105600006604213009F090E090933202813011F568
:1056100084EF91E090932D0280932C028091680496
:1056200080932502809167048130B9F0823009F4BB
:1056300076C082E090E075C081E08093300282E025
:1056400090E059CF83E090E056CF109230025BCFCC
:105650008CE0A6CF8CE291E0DDCF10926C06109228
:105660006B06809169048093230280916A04809381
:10567000350280916B048093360280916C04809394
:10568000260280916D04813009F050C0809361063C
:1056900080916E048093CA0480916F04823009F473
:1056A00048C0833009F449C01092180280917104F7
:1056B0008093460281E090917204913009F080E07D
:1056C0008093600680917304809339028091740402
:1056D00080933A02809175048093240281E0909136
:1056E0007604913009F080E080936E068CE290E0C1
:1056F0000E942C1FEE24E39410E000E020E0409193
:105700004F0F60E08CE290E00E94921F0E946318AD
:105710000E9470180E9451180E94FD1A68CB81E007
:1057200090E090936C0680936B069BCF109261067D
:10573000AFCF81E080931802B9CF82E0FBCF809198
:10574000AD06882309F453CBA0EBBDE0E1E9F6E018
:105750008D91819326E0E53AF207D1F780EB99E04D
:105760000E943B7481E68093460684E08093450660
:10577000E7E4F6E083E0DF011D928A95E9F7E1E9CD
:10578000F6E0A1E9BAE081918D9326E0E53AF207CF
:10579000D1F784E190E09A83898344E0BE016F5F92
:1057A0007F4F81E99AE00E947A108CE290E00E949B
:1057B0002C1FEE24E39410E000E020E040914F0F16
:1057C00060E08CE290E077CC133009F4A1CD08F0D2
:1057D00092C0113009F00BCB9091B00D90937D04E5
:1057E0002091B10D20937E048091B20D80937F04AF
:1057F0008091B30D809380048091B40D80938104D7
:10580000222309F4F4CA9111F2CA833009F0EFCAD5
:105810006FEE79E082EE99E00E947A6B60917E04EF
:1058200082EE99E00E94A3788091AD06E0917E041B
:10583000811107C08FEF8E0F823018F0E43009F02D
:10584000D6CAE150EF3408F0D2CAF0E08827E45D10
:10585000F34D8F4F0C94A6B1EC27FF26F726F227C5
:10586000F726F726F726F72644285E28F726F72698
:10587000F726F726F726F726F726F726F726F72640
:10588000F726F726F7263228F726F726F726F726F3
:10589000F726F726F726F726F726FE288A288628F1
:1058A00091288E28F828FB2880288328F7263F296E
:1058B0005229F726F726F726F726F726F726F726A2
:1058C000F72604281B28F72694286128F726F726B0
:1058D000F726F726F726F7263628F726AD28F726E7
:1058E000F726F726F7261F29F726F726F726F726A5
:1058F0000C2910291729143009F421CF153009F08B
:1059000076CA8091AD06882309F471CAA0EBBDE088
:10591000ECE7F6E08D91819386E0E139F807D1F765
:105920008DE999E00E943B744091820688EE93E0F5
:10593000489F9001499F300D112430931602209307
:10594000150240918306489F9001499F300D112414
:10595000309314022093130240918406489F9001D3
:10596000499F300D1124309312022093110240916F
:105970008506489F9001499F300D112430931002F5
:1059800020930F0240918606489F9001499F300D59
:10599000112430930E0220930D0281E090917D0638
:1059A000913009F080E080933E0281E090917E0684
:1059B000913009F080E080933F0281E090917F0672
:1059C000913009F080E08093400281E09091800660
:1059D000913009F080E08093410281E0909181064E
:1059E000913009F080E08093420281E090917C0642
:1059F000913009F080E080932A020E943F1882E6ED
:105A00008093460684E080934506E7E4F6E083E071
:105A1000DF011D928A95E9F7ECE7F6E0A1E9BAE02B
:105A200081E996E021912D938E179F07D9F785E1A3
:105A300090E09A83898345E0BE016F5F7F4F81E9E3
:105A40009AE00E947A108DE390E00E942C1FEE24D1
:105A5000E39410E000E020E040914F0F60E08DE320
:105A600090E029CBDC01FB016C9111964C911197D0
:105A700012967C91262F220F220F220F95E5822F5E
:105A8000899F080E80E0811D1124562F5074362FF7
:105A9000307267FD60C0511149C0311106C0982FA6
:105AA0009095282F892F90E004C025E5280F90E0DD
:105AB0008BEA4F3FF1F0442309F46CC0409530E08D
:105AC000442329F0449F312D112441113F5F432F7E
:105AD0004095849F080E80E0811D249F020E20E0E7
