:100000000C9484010C94B5010C94B5010C94B501C9
:100010000C94B5010C94B5010C94B5010C94B50188
:100020000C94B5010C94B5010C94B5010C94B50178
:100030000C94B5010C94B5010C94B5010C94B50168
:100040000C94B5010C94B5010C94B5010C94B50158
:100050000C94B5010C94B5010C94B5010C944E129E
:100060000C94B5010C94BE130C9494130C94B5012C
:100070000C94B5010C94B5010C94B5010C94B50128
:100080000C94B5010C94B5010C94B5010C94B50118
:100090000C946A130C9440130C94B5010C94E8135F
:1000A0000C94B5010C94B5010C94B5010C94B501F8
:1000B0000C94B5010C94B5010C94B5010C94B501E8
:1000C0000C94B5010C94B5010C94B5010C94161365
:1000D0000C94EC120C94B5010C94C2120C9498126E
:1000E0000C94B5010C9469050C94B00F0C941A068D
:1000F0000C9455050C940F040C9422040C948D0D53
:100100000C94350B0C9477050C9423040C94000587
:100110000C94F7030C94B80E0C94CD050C94FD03CD
:100120000C94F0030C94FF210C9459080C940B04CC
:100130000C9419040C9415040C942F160C94E803D9
:100140000C9412080C9446050C94FB040C94AD0F0F
:100150000C9401040C9425080C94AA0F0C94FE0432
:100160000C94E2030C941E0F0C9427040C94330B94
:100170000C94900D0C94DB080C94B40F0C942C0888
:100180000C9403080C9488080C9402120C941D041F
:100190000C9407040C94EC030C94F4030C940208E4
:1001A0000C94FF04000020002300260029002C00EE
:1001B0002F003200000100000301060109010000C8
:1001C00000006410B71DC8206E3BAC30D9269041AA
:1001D000DC76F4516B6B5861B24D3C710550208355
:1001E000B8ED44930FF0E8A3D6D68CB361CBB0C280
:1001F000649BD4D2D38678E20AA01CF2BDBD000075
:100200002100240027002A002D00300033000101C6
:100210000000040107010A01000022002500280057
:100220002B002E00310034000201000005010801FE
:100230000B0105050505070508080808020202026A
:100240000A0A080804040404010101010101010172
:100250000303030303030303040707070C0C0C0C3D
:100260000C0C0C0C02020202060606060606060626
:100270000B0B0B0B0B0B0B0B0102102020080810B3
:100280002040102040800201020108040201010206
:1002900004081020408080402010080402018004DF
:1002A000020180402010080402010804020101023A
:1002B0000408102040800102040810204080000043
:1002C0000A0B02090C0D0E080703040100000000D0
:1002D000000000000000000000000000000000001E
:1002E00000000000000000000000121110000000DB
:1002F00000000000000000000000000000000000FE
:10030000000000002F16FF2111241FBECFEFD1E205
:10031000DEBFCDBF00E00CBF12E0A0E0B2E0ECE039
:10032000FDE400E00BBF02C007900D92A839B107B1
:10033000D9F727E1A8E9B2E001C01D92A831B207C0
:10034000E1F711E0C3E8D1E000E006C02197010920
:10035000802FFE010E949023C238D10780E0080759
:10036000A9F70E9458190C9474260C940000CF939E
:10037000DF93EC019A01AB01E889F98982E080837F
:10038000211581EE38074105510581F160E079E0E2
:100390008DE390E00E944B2321503109410951091E
:1003A0005695479537952795EC85FD851082EE8506
:1003B000FF852083188EEC89FD8986E08083EA8999
:1003C000FB89808180618083EA89FB8980818860E4
:1003D0008083EA89FB89808180688083EA89FB8940
:1003E00080818F7D8083DF91CF910895E889F9899D
:1003F000108220E1D9CF60E0862F95E5899F080E15
:1004000080E0811D1124662321F0669F612D09F093
:100410006F5F662391F08FEF982F969F090E90E003
:10042000911D782F769F070E70E0711D869F080E34
:1004300080E0811D1124692F089580E070E0089507
:10044000CF93DF9300D000D01F921F92CDB7DEB7BD
:1004500020EF29832AEA2A8328E02B8323E02C83B8
:100460006D838E839F8385E5888780915B0590915E
:100470005C05DC01ED91FC910280F381E02D48E008
:1004800050E0BE016F5F7F4F199528960FB6F89424
:10049000DEBF0FBECDBFDF91CF910895CF93DF9325
:1004A00000D000D000D0CDB7DEB720EF29832AEAF4
:1004B0002A8329E02B8328E02C838D839E836F83FE
:1004C000788785E5898780915B0590915C05DC01E3
:1004D000ED91FC910280F381E02D49E050E0BE01F6
:1004E0006F5F7F4F199529960FB6F894DEBF0FBE48
:1004F000CDBFDF91CF910895DF92EF92FF920F93DE
:100500001F93CF93DF931092B505FF24F394F3E08C
:10051000EF2EA2E0DA2ECFEFDFEF0EE815E08091AC
:100520005B0590915C05DC01ED91FC910084F18507
:10053000E02D1995181619060CF0F2C080915B0594
:1005400090915C05DC01ED91FC910284F385E02D36
:1005500019959091B30591111DC0803F09F04BC0D2
:10056000F092B3058091B5058823C9F28091790591
:10057000843809F48CC008F047C0813809F4B0C051
:10058000823809F4B9C01092B3051092B4051092E4
:10059000B505C5CF913029F48A3A51F5D092B3050B
:1005A000E1CF923071F4803F19F18A3A09F1853533
:1005B000F9F08132E8F4E092B30581508093B405FC
:1005C000D1CF2091B4059217B0F4E92FF0E0E55AAD
:1005D000FA4F838F9F5F9093B3059091790596387A
:1005E00009F2803F29F08A3A19F0853509F0BACF2F
:1005F0001092B305B7CF2091B4059213F9CF85358A
:10060000B9F7F092B505AECF853841F1863809F0DB
:10061000BACF80917A058093B20580917C0590E0F5
:10062000982F882720917B05820F911D9093AF050D
:100630008093AE058091B405893068F080917E0585
:1006400090E0982F882720917D05820F911D90932F
:10065000B1058093B005F092B80595CF80917B05E8
:1006600090E0982F882720917A05820F911D909312
:10067000BA058093B90580917C05811105C010925F
:10068000BB051092BC057FCFF092BB05FACF8091DD
:100690007C058E3008F077CF20917B05422F50E00B
:1006A000542F442720917A0530E02F5F3F4F240FCD
:1006B000351F90E040917D050196880F991FFC0140
:1006C000E55AFA4F411109C08081918128173907F5
:1006D00009F059CFD183C08356CF3183208353CFC4
:1006E000EAE7F5E08191868F0E171F07D9F7109280
:1006F000AD05F092B60547CF80917A058093B2059B
:1007000080917C0590E0982F882720917B05820FAF
:10071000911D9093AF058093AE05F092B70533CF4E
:10072000DF91CF911F910F91FF90EF90DF9008958F
:10073000CF93DF9300D000D01F92CDB7DEB720EF6C
:1007400029832AEA2A8327E02B8325E02C838D83C3
:100750009E8385E58F8380915B0590915C05DC012C
:10076000ED91FC910280F381E02D47E050E0BE0165
:100770006F5F7F4F199527960FB6F894DEBF0FBEB7
:10078000CDBFDF91CF9108958150823108F05AC0DA
:10079000E82FF0E08827E053FC4F8F4F0C94902314
:1007A000F003F403E203E803EC032204F703FD0380
:1007B000010407040B040F041504190422041D048A
:1007C00023042704809180008F7780938000089510
:1007D000809180008F7DF9CF80918000877FF5CF59
:1007E00084B58F7784BD089584B58F7DFBCF8091CC
:1007F000B0008F778093B00008958091B0008F7D16
:10080000F9CF809190008F77809390000895809128
:1008100090008F7DF9CF80919000877FF5CF8091F8
:10082000A0008F778093A00008958091A0008F7D15
:10083000F9CF8091A000877FF5CF809120018F773D
:10084000809320010895809120018F7DF9CF8091C0
:100850002001877FF5CF1F93CF93DF93282F30E0C0
:10086000F901E254FD4F8491F901E858FD4FD4910C
:10087000F901EE5CFD4FC491CC23A9F0162F811134
:100880000E94C403EC2FF0E0EE0FFF1FE85EFD4F67
:10089000A591B4918FB7F894EC91111108C0D0953F
:1008A000DE23DC938FBFDF91CF911F910895DE2B64
:1008B000F8CFCF93DF9390E0FC01E858FD4F2491EF
:1008C0008E5C9D4FFC0184918823C9F090E0880FD5
:1008D000991FFC01E250FE4FA591B491FC01E85E26
:1008E000FD4FC591D49161110DC09FB7F8948C91C3
:1008F000209582238C938881282328839FBFDF91B2
:10090000CF910895623051F49FB7F8943C91822FB3
:10091000809583238C93E8812E2BEFCF8FB7F894AB
:10092000EC912E2B2C938FBFEACF3FB7F894809198
:10093000050590910605A0910705B091080526B51B
:10094000A89B05C02F3F19F00196A11DB11D3FBF07
:10095000BA2FA92F982F8827BC01CD01620F711DD6
:10096000811D911D42E0660F771F881F991F4A95D0
:10097000D1F708958F929F92AF92BF92CF92DF925C
:10098000EF92FF920E9495044B015C018AE0C82E11
:10099000D12CE12CF12C0E949504681979098A095F
:1009A0009B09683E734081059105A8F321E0C21AB6
:1009B000D108E108F10888EE880E83E0981EA11C9A
:1009C000B11CC114D104E104F10429F7FF90EF90A8
:1009D000DF90CF90BF90AF909F908F9008952FB7EA
:1009E000F894609101057091020580910305909142
:1009F00004052FBF089580E991E0089508950895B2
:100A0000AF92BF92CF92DF92EF92FF920F931F931C
:100A1000CF93DF936C017B018B01040F151FEB015A
:100A20005E01AE18BF08C017D10759F06991D60111
:100A3000ED91FC910190F081E02DC6011995892B73
:100A400079F7C501DF91CF911F910F91FF90EF9042
:100A5000DF90CF90BF90AF900895FC01A089B1893D
:100A60008C91A689B78982FD0FC09C91818D8F5F83
:100A70008F73228D821749F0A18DAE0FBF2FB11D4C
:100A80005D969C93818F08958C910895FC01538D00
:100A9000448D252F30E0842F90E0821B930B541758
:100AA00010F0CF96089501970895FC01918D828DE5
:100AB000981761F0A28DAE0FBF2FB11D5D968C917E
:100AC000928D9F5F9F73928F90E008958FEF9FEFBD
:100AD0000895FC01918D828D981731F0828DE80F79
:100AE000F11D858D90E008958FEF9FEF0895FC0133
:100AF000918D228D892F90E0805C9F4F821B910900
:100B00008F73992708958FEB95E00E94770521E078
:100B1000892B09F420E0822F08958CE596E00E944D
:100B2000770521E0892B09F420E0822F089589EFD1
:100B300096E00E94770521E0892B09F420E0822FBE
:100B4000089586E997E00E94770521E0892B09F452
:100B500020E0822F0895FC01A48DA80FB92FB11DAC
:100B6000A35ABF4F2C91848D90E001968F739927E3
:100B7000848FA689B7892C93A089B1898C918370C1
:100B800080648C93938D848D981306C00288F389BA
:100B9000E02D80818F7D80830895EF92FF920F93E7
:100BA0001F93CF93DF93EC0181E0888F9B8D8C8D19
:100BB00098131AC0E889F989808185FF15C09FB70D
:100BC000F894EE89FF896083E889F98980818370D0
:100BD000806480839FBF81E090E0DF91CF911F917F
:100BE0000F91FF90EF900895F62E0B8D10E00F5FA0
:100BF0001F4F0F731127E02E8C8D8E110CC00FB676
:100C000007FCFACFE889F989808185FFF5CFCE010D
:100C10000E94AB05F1CFEB8DEC0FFD2FF11DE35AD8
:100C2000FF4FF0829FB7F8940B8FEA89FB89808190
:100C30008062CFCFCF93DF93EC01888D8823B9F00A
:100C4000AA89BB89E889F9898C9185FD03C08081D7
:100C500086FD0DC00FB607FCF7CF8C9185FFF2CF54
:100C6000808185FFEDCFCE010E94AB05E9CFDF91FA
:100C7000CF91089580E090E0892B29F00E94A10592
:100C800081110E94000080E090E0892B29F00E94F1
:100C9000970581110E94000080E090E0892B29F0E7
:100CA0000E948D0581110E94000080E090E0892B58
:100CB00029F00E94830581110C94000008950F9380
:100CC0001F93CF93DF93DC01EB014D915D916D910B
:100CD0007C911397E881E427EF7084E0E89FF001AE
:100CE0001124E254FE4F059115912591349184E031
:100CF00076956795579547958A95D1F7402751275F
:100D0000622773274D935D936D937C931397E881CE
:100D1000E295EF70E427EF7084E0E89FF001112482
:100D2000E254FE4F059115912591349194E076950A
:100D30006795579547959A95D1F740275127622790
:100D400073274D935D936D937C931397DF91CF91B0
:100D50001F910F910895FA0180818150982F9F3F34
:100D6000C9F0292F30E0FB01E20FF31F40814E371D
:100D700011F09150F4CF8F3F69F0482F50E0FB0104
:100D8000E40FF51F90819E3719F4281B2083282F2C
:100D90008150F1CF0895BF92CF92DF92EF92FF92F0
:100DA0000F931F93CF93DF931F92CDB7DEB78C01C4
:100DB0006B01B42EDB018D919C91F801E15FFD4F39
:100DC0007F018F3F910508F475C08FEF8083680124
:100DD000F80180E091919E3709F067C0D7018C93AC
:100DE00045E352E0B801C8010E94AB0640913708C4
:100DF00050913808980122503F4F80E0D601ED9184
:100E00006D01E827E40FF52FF11D80812A173B07BC
:100E1000A9F7F801E350FE4FB082F7019081F80185
:100E2000E250FE4F90839EEF3196908331968083FF
:100E30008EEFF82E6801B5EECB1ABDEFDB0AF60196
:100E400080819181B80164507E4FDC01ED91FC916D
:100E50000280F381E02D44E050E01995F601808195
:100E600091814F2D50E0DC01ED91FC910280F381E6
:100E7000E02DB8011995F60180819181B8017E5F5E
:100E8000DC01ED91FC910280F381E02D42E050E025
:100E900019958F2D0F90DF91CF911F910F91FF909A
:100EA000EF90DF90CF90BF9008958F5F8E3F09F055
:100EB00091CF96CF982F8FEF8083F80180E089172C
:100EC00028F421912E3719F5F7018083D6018C91F2
:100ED0008983AE014F5F5F4FB801C8010E94AB0626
:100EE000F601208131814091370850913808D801AE
:100EF00080E03327BD01601B710B6217730748F454
:100F0000ED91E827E40FF52FF11D8081F3CF8F5F7E
:100F1000D6CFF801E350FE4FB082D7019C913196B5
:100F20009083F6019081F801E150FE4F9083319655
:100F30008083D601FC907ECF2091DD02260F3327DF
:100F4000331F21323105ECF420912F05FC0190E094
:100F500080E0243069F082E00895A091DD022191C3
:100F6000AC0143545D4FA40FB52FB11D2C930196D6
:100F7000861798F38091DD02680F6093DD0280E0B0
:100F8000089581E0089510922F0581E080932E0549
:100F90001092090561E084E10E942B0461E085E183
:100FA0000E942B04E9EBF0E080818E7F80838081BA
:100FB0008D7F808388E48093B80085E48093BC00B3
:100FC0000895CF93DF9391E09093BC028823B9F00A
:100FD000C091B800D091BA008091BC008A7B809308
:100FE000BC0060E084E10E942B0460E085E10E9487
:100FF0002B040E94C307D093BA00C093B800DF91BE
:10100000CF9108950895E091050380910403E817B6
:1010100030F4F0E0E456FD4F808190E008958FEFCA
:101020009FEF089590910503809104032FEF3FEF08
:10103000981748F4E92FF0E0E456FD4F208130E0A6
:101040009F5F90930503C9010895809104039091D7
:101050000503891B990B0895CF92DF92EF92FF92BF
:101060000F931F93CF93DF937C01CB018A012091D3
:101070005805222389F0EB016B01C40ED51ECC1557
:10108000DD0569F06991D701ED91FC910190F08146
:10109000E02DC7011995F3CF642F0E949C07C8016A
:1010A000DF91CF911F910F91FF90EF90DF90CF9044
:1010B0000895CF93DF931F92CDB7DEB76983209158
:1010C00058052223F9F020915505203258F021E0EF
:1010D00030E0FC013383228390E080E00F90DF91C9
:1010E000CF91089580915605E82FF0E0EB5CFA4F20
:1010F000998190838F5F809356058093550581E099
:1011000090E0ECCF61E0CE0101960E949C07F7CF02
:1011100090E080E00895CF93DF93EC0148835983FA
:101120006A837B830E94EF046C837D838E839F831D
:1011300081E088871986DF91CF9108950F931F93DF
:10114000CF93DF9320919B022F5F322F3770309324
:101150009B0220FF2BC020E831FD2064347009F091
:101160002062205FFC01EC01239600E011E067851E
:10117000662329F070E0C8010E947C236F5F6187BD
:10118000822F869F080E80E0811D1124811110C0DE
:101190001682662311F0615061873196EC17FD07C6
:1011A00031F7DF91CF911F910F91089520E0D4CFB7
:1011B00081508683EECF4F925F927F928F929F9263
:1011C000AF92BF92CF92DF92EF92FF920F931F9355
:1011D000CF93DF932C01EB010E949504F201268945
:1011E0003789621B730B6A307105B0F3F8948A81FA
:1011F0009B81181619060CF0CBC1E881F98105B165
:10120000016075B17E7F75B9BA848F812B2D281B43
:10121000822F2F834C85042E000C550BAA81BB8195
:10122000E888DF84C988E394D394C3949E81388589
:1012300099848B84118120E0F32E622F322F31812B
:10124000112788943111380F08F43FEF8195889465
:10125000E0FC130F17958894E1FC130F1795889401
:10126000E2FC130F17958894E3FC130F17958894ED
:10127000E4FC130F17958894E5FC130F17958894D9
:10128000E6FC130F17958894E7FC130F17958894C5
:10129000232FE110212F8B0D122F002C05B900C038
:1012A00017FF75B930812227889400C000C0002C38
:1012B00075B93111390F00C0002C05B900C016FFF7
:1012C00075B908F43FEF9195889400C000C0002CD8
:1012D00075B9D0FC230F00C0002C05B900C015FF64
:1012E00075B927958894D1FC230F00C000C0002C4D
:1012F00075B92795889400C0002C05B900C014FF6B
:1013000075B9D2FC230F2795889400C000C0002C2B
:1013100075B9D3FC230F00C0002C05B900C013FF22
:1013200075B927958894D4FC230F00C000C0002C09
:1013300075B92795889400C0002C05B900C012FF2C
:1013400075B9D5FC230F2795889400C000C0002CE8
:1013500075B9D6FC230F00C0002C05B900C011FFE1
:1013600075B927958894D7FC230F00C000C0002CC6
:1013700075B92795889400C0002C05B900C010FFEE
:1013800075B9132FD110122F990D00C000C0002C79
:1013900075B900C000C0002C05B900C017FF75B9B1
:1013A00032812227889400C000C0002C75B9311109
:1013B0003F0D00C0002C05B900C016FF75B908F438
:1013C0003FEFE40FF51F00C000C0002C75B9C0FC52
:1013D000230F00C0002C05B900C015FF75B9279573
:1013E0008894C1FC230F00C000C0002C75B927955C
:1013F000889400C0002C05B900C014FF75B9C2FC68
:10140000230F2795889400C000C0002C75B9C3FC39
:10141000230F00C0002C05B900C013FF75B9279534
:101420008894C4FC230F00C000C0002C75B9279518
:10143000889400C0002C05B900C012FF75B9C5FC26
:10144000230F2795889400C000C0002C75B9C6FCF6
:10145000230F00C0002C05B900C011FF75B92795F6
:101460008894C7FC230F00C000C0002C75B92795D5
:10147000889400C0002C05B900C010FF75B9132F67
:10148000C110122FF19400C000C0002C75B9F80CE7
:1014900000C000C005B900C017FF75B9318122270F
:1014A000889400C000C0002C75B93111380F00C0FD
:1014B000002C05B900C016FF75B908F43FEF8195FF
:1014C000889400C000C0002C75B9E0FC230F00C058
:1014D000002C05B900C015FF75B927958894E1FC6B
:1014E000230F00C000C0002C75B92795889400C058
:1014F000002C05B900C014FF75B9E2FC230F279535
:10150000889400C000C0002C75B9E3FC230F00C014
:10151000002C05B900C013FF75B927958894E4FC29
:10152000230F00C000C0002C75B92795889400C017
:10153000002C05B900C012FF75B9E5FC230F2795F3
:10154000889400C000C0002C75B9E6FC230F00C0D1
:10155000002C05B900C011FF75B927958894E7FCE8
:10156000230F00C000C0002C75B92795889400C0D7
:10157000002C05B900C010FF75B9132FE110122F10
:101580008B0D00C000C0002C75B9119709F086CEF4
:10159000EA81FB812EE130E0DF010E94982330E0F8
:1015A00020E0A901AAE9EA9F0E0E411DFA9F400D15
:1015B000511D11244F0F511DDC01CB01840F951FCC
:1015C000A11DB11D893E43E09407A105B10508F4B2
:1015D00034C0885E9340A109B10942E0B695A79551
:1015E000979587954A95D1F747E0849F080E211D6E
:1015F000949F200D311D1124290F311D60919A02F5
:1016000070E0860F971F820F931F40910105509144
:1016100002056091030570910405292F3327420FBD
:10162000531F611D711D4093010550930205609386
:1016300003057093040580939A0278940E949504A0
:10164000F201778B668BDF91CF911F910F91FF9005
:10165000EF90DF90CF90BF90AF909F908F907F9052
:101660005F904F900895209A08954F925F927F92D5
:101670008F929F92AF92BF92CF92DF92EF92FF92A2
:101680000F931F93CF93DF932C01EB010E949504DE
:10169000F20126893789621B730B6A307105B0F33A
:1016A000F8948A819B81181619060CF0CBC1E88149
:1016B000F98105B1006875B17F7775B9BA848F81FA
:1016C0002B2D281B822F2F834C85042E000C550BAD
:1016D000AA81BB81E888DF84C988E394D394C3944A
:1016E0009E81388599848B84118120E0F32E622FAE
:1016F000322F3181112788943111380F08F43FEFD0
:1017000081958894E0FC130F17958894E1FC130FE2
:1017100017958894E2FC130F17958894E3FC130F38
:1017200017958894E4FC130F17958894E5FC130F24
:1017300017958894E6FC130F17958894E7FC130F10
:1017400017958894232FE110212F8B0D122F002C39
:1017500005B900C017FF75B930812227889400C0F1
:1017600000C0002C75B93111390F00C0002C05B92B
:1017700000C016FF75B908F43FEF9195889400C03A
:1017800000C0002C75B9D0FC230F00C0002C05B997
:1017900000C015FF75B927958894D1FC230F00C0B0
:1017A00000C0002C75B92795889400C0002C05B99D
:1017B00000C014FF75B9D2FC230F2795889400C090
:1017C00000C0002C75B9D3FC230F00C0002C05B954
:1017D00000C013FF75B927958894D4FC230F00C06F
:1017E00000C0002C75B92795889400C0002C05B95D
:1017F00000C012FF75B9D5FC230F2795889400C04F
:1018000000C0002C75B9D6FC230F00C0002C05B910
:1018100000C011FF75B927958894D7FC230F00C02D
:1018200000C0002C75B92795889400C0002C05B91C
:1018300000C010FF75B9132FD110122F990D00C0E1
:1018400000C0002C75B900C000C0002C05B900C054
:1018500017FF75B932812227889400C000C0002C80
:1018600075B931113F0D00C0002C05B900C016FF3D
:1018700075B908F43FEFE40FF51F00C000C0002C5D
:1018800075B9C0FC230F00C0002C05B900C015FFBE
:1018900075B927958894C1FC230F00C000C0002CA7
:1018A00075B92795889400C0002C05B900C014FFB5
:1018B00075B9C2FC230F2795889400C000C0002C86
:1018C00075B9C3FC230F00C0002C05B900C013FF7D
:1018D00075B927958894C4FC230F00C000C0002C64
:1018E00075B92795889400C0002C05B900C012FF77
:1018F00075B9C5FC230F2795889400C000C0002C43
:1019000075B9C6FC230F00C0002C05B900C011FF3B
:1019100075B927958894C7FC230F00C000C0002C20
:1019200075B92795889400C0002C05B900C010FF38
:1019300075B9132FC110122FF19400C000C0002CF4
:1019400075B9F80C00C000C005B900C017FF75B923
:1019500031812227889400C000C0002C75B9311154
:10196000380F00C0002C05B900C016FF75B908F487
:101970003FEF8195889400C000C0002C75B9E0FC51
:10198000230F00C0002C05B900C015FF75B92795BD
:101990008894E1FC230F00C000C0002C75B9279586
:1019A000889400C0002C05B900C014FF75B9E2FC92
:1019B000230F2795889400C000C0002C75B9E3FC64
:1019C000230F00C0002C05B900C013FF75B927957F
:1019D0008894E4FC230F00C000C0002C75B9279543
:1019E000889400C0002C05B900C012FF75B9E5FC51
:1019F000230F2795889400C000C0002C75B9E6FC21
:101A0000230F00C0002C05B900C011FF75B9279540
:101A10008894E7FC230F00C000C0002C75B92795FF
:101A2000889400C0002C05B900C010FF75B9132FB1
:101A3000E110122F8B0D00C000C0002C75B911975A
:101A400009F086CEEA81FB812EE130E0DF010E94C1
:101A5000982330E020E0A901AAE9EA9F0E0E411D7B
:101A6000FA9F400D511D11244F0F511DDC01CB0178
:101A7000840F951FA11DB11D893E43E09407A10568
:101A8000B10508F434C0885E9340A109B10942E071
:101A9000B695A795979587954A95D1F747E0849F86
:101AA000080E211D949F200D311D1124290F311D79
:101AB00060919A0270E0860F971F820F931F4091EA
:101AC0000105509102056091030570910405292FCD
:101AD0003327420F531F611D711D40930105509321
:101AE0000205609303057093040580939A0278942D
:101AF0000E949504F201778B668BDF91CF911F9145
:101B00000F91FF90EF90DF90CF90BF90AF909F909C
:101B10008F907F905F904F90089581E090E00895BE
:101B2000279A089580911A028093DF16209100026F
:101B3000809147034091550350915603452BA1F0E6
:101B4000909101023FEF390F309317029093AE0E40
:101B5000920F2FEF290F2093AD0E9093AC0E815072
:101B6000890F8093AB0E0895109217021092AE0E5B
:101B70009FEF920F9093AD0E2093AC0E820F815089
:101B8000F0CF0F931F93CF93DF93CDEBD2E105ED11
:101B90001EE08E858F87188A1E8A1D8A1C821D82F0
:101BA0001E821F820E94EF04688779878A879B873D
:101BB00088898E87188219821A821B82188E1F8A42
:101BC0001C8A1B8A1A8AF80186858787108A168ADA
:101BD000158A14821582168217820E94EF04F8017A
:101BE00060877187828793878089868710821182B8
:101BF00012821382108E178A148A138A128A6996A7
:101C0000075E1F4FF6E1C53ADF0719F6DF91CF9166
:101C10001F910F9108950F931F93CF93DF9300D0DF
:101C200000D0CDB7DEB78FEF9FEFDC0189839A83B9
:101C3000AB83BC8310E000E01E830D83BE016B5FAD
:101C40007F4FCE0101960E945F06BE016A5F7F4F03
:101C5000CE0101960E945F060F5F1F4F0D321105E6
:101C600059F78BE190E09E838D83BE016B5F7F4FC0
:101C7000CE0101960E945F06BE016A5F7F4FCE01D2
:101C800001960E945F0682E190E09E838D83BE01F3
:101C90006B5F7F4FCE0101960E945F06BE016A5FB7
:101CA0007F4FCE0101960E945F0669817A818B8108
:101CB0009C81609570958095909526960FB6F894C6
:101CC000DEBF0FBECDBFDF91CF911F910F91089561
:101CD000AF92BF92CF92DF92EF92FF920F931F933A
:101CE000CF93DF9300D0CDB7DEB75A0119821A82A5
:101CF0001B82882361F18B01E1E0F0E0E82EF12CFA
:101D0000D8012D918D012223F1F06F01B1E0CB1AA2
:101D1000D108D501AC0DBD1D4C914423A1F030E09C
:101D20002F5F3F4FD7010E946D23A42FB0E0119683
:101D30009B01AC010E944023A1E0B0E0AC0FBD1FAD
:101D4000AC0DBD1D8C933196E430F105C9F6698167
:101D50007A818B810F900F900F90DF91CF911F911F
:101D60000F91FF90EF90DF90CF90BF90AF900895CC
:101D70006F927F928F92CF92DF92EF92FF920F93AA
:101D80001F93CF93DF93CDB7DEB762970FB6F8946A
:101D9000DEBF0FBECDBF8C016B017A01822FA8017F
:101DA000475F5F4FB8016A5F7F4F0E94680E3B013B
:101DB000882ED8011C962C91C701F7FE04C08827F5
:101DC00099278E199F09DA82C9829C838B839E830F
:101DD0008D83688A798A8A8A213049F5CE010196F5
:101DE0000E949E0883E08D871F861E86F7FE02C034
:101DF0008DEF8D87D801ED91FC910088F189E02D60
:101E0000BE016F5F7F4FC801199562960FB6F894B7
:101E1000DEBF0FBECDBFDF91CF911F910F91FF901D
:101E2000EF90DF90CF908F907F906F9008951C86F9
:101E30001B861A86198618861F82D4CFCF92DF920E
:101E4000EF92FF920F931F93CF93DF93CDB7DEB73F
:101E500062970FB6F894DEBF0FBECDBF8C016B0149
:101E60007A01822FA801475F5F4FB8016A5F7F4FF9
:101E70000E94680E9B01482FD8011C968C91DA8233
:101E8000C982FC82EB82FE82ED82288B398B4A8BE1
:101E9000813009F5CE0101960E949E081D861F869D
:101EA0001E86D801ED91FC910088F189E02DBE01DC
:101EB0006F5F7F4FC801199562960FB6F894DEBF29
:101EC0000FBECDBFDF91CF911F910F91FF90EF908B
:101ED000DF90CF9008951C861B861A861986188677
:101EE0001F82DCCFFC0185E292E091838083138224
:101EF00012828FEF8683878380878187828783879B
:101F000081E0848785871786168680E797E1918B25
:101F1000808B83E090E0938B828B158A148A1582E4
:101F200014828091F9049091FA04892B21F4F093A2
:101F3000FA04E093F904A0919802B09199021097E5
:101F400021F01596FC93EE931497F0939902E09389
:101F50009802089590E080E00895FC016487089558
:101F6000FC01848590E00895FC018685978508959D
:101F70000F931F93CF93DF9300D000D000D01F9218
:101F80001F92CDB7DEB78C0116160CF460E06A3BE9
:101F90000CF46AEB8091590590915A0582309105B5
:101FA000C9F18330910511F0019749F5062E000C17
:101FB000770BC8010E944E0280EF89838AEA8A83E8
:101FC00089E08B838DE08C8381E08D830E831F837A
:101FD000888785E5898780915B0590915C05DC01A8
:101FE000ED91FC910280F381E02D49E050E0BE01CB
:101FF0006F5F7F4F199566E0C8010E9420022B9603
:102000000FB6F894DEBF0FBECDBFDF91CF911F9109
:102010000F910895062E000C770BC8010E944E0206
:1020200080EF89838AEA8A838BE08B838BE18C83C0
:1020300081E08D830E831F83888719861A8685E544
:102040008B8780915B0590915C05DC01ED91FC91A3
:102050000280F381E02D4BE050E0C9CFCF92DF92B8
:10206000EF92FF920F931F93CF93DF93D62F172FEB
:10207000C091AD0891E090935805C0935705109218
:10208000560510925505682F89E398E00E9459087B
:10209000612F89E398E00E9459086D2F89E398E049
:1020A0000E945908D091550581E0D13208F09AC0BC
:1020B0000E9495046B017C0180912F0581116CC0F9
:1020C00082E080932F0581E080932E058FEF80932F
:1020D0002D0510922C05D0932B05A5E3B5E0EBE080
:1020E000F5E080E0D81393C010920A0580910A05AC
:1020F000CC0FC82BC0930A0580910905813009F0E7
:102100008AC0109209050E9495046B017C018091A0
:102110000A058093BB008091310590913205A09112
:102120003305B0913405892B8A2B8B2BA1F00E94AB
:1021300095040091310510913205209133053091BD
:1021400034056C197D098E099F09061717072807A2
:10215000390708F442C08091BC0083FDD8CF85ECDC
:102160008093BC000E9495046B017C0180912F0537
:10217000823009F452C080912D058F3F09F46FC061
:1021800080912D05803209F46CC080912D0580333B
:1021900009F469C084E026C0809131059091320530
:1021A000A0913305B0913405892B8A2B8B2B09F430
:1021B00083CF0E9495040091310510913205209142
:1021C0003305309134056C197D098E099F09061776
:1021D00017072807390708F06FCF809130050E9454
:1021E000E10785E0109256051092550510925805AA
:1021F000EFE9FFE03197F1F700C00000DF91CF91E8
:102200001F910F91FF90EF90DF90CF9008959D91D7
:1022100091938F5F67CF85EEA3CF80913105909129
:102220003205A0913305B0913405892B8A2B8B2B75
:1022300009F49CCF0E94950400913105109132055C
:1022400020913305309134056C197D098E099F0961
:10225000061717072807390708F088CFBECF80E098
:10226000C1CF82E0BFCF83E0BDCF8F929F92AF926C
:10227000BF92CF92DF92EF92FF92CF93DF938DECDC
:102280009CECACECBDE38093AE089093AF08A093B8
:10229000B008B093B108D0E0C0E0C12CDD24D394E5
:1022A00080E8E82E88E3F82EC701B6010E942524B5
:1022B000C530D10509F052C06F5F7F4F90E080E0DC
:1022C0000E940B2220E030E543EC57E40E94B32348
:1022D0006093B2087093B3088093B4089093B508E4
:1022E0008090B2089090B308A090B408B090B50860
:1022F0002DEC3CEC4CEC5DE3C501B4010E946C227A
:102300009B01AC016CEA75EC87E29DE30E94B3236C
:102310000E9425246B017093BD086093BC0820E0E7
:1023200030E040EA51E4C501B4010E946C226093A0
:10233000B6087093B7088093B8089093B908B601AF
:1023400085E090E0DF91CF91FF90EF90DF90CF900C
:10235000BF90AF909F908F900C942E10219620E00C
:1023600030E040E251E4C701B6010E946C226B01EB
:102370007C0120E030E0A9010E94542418160CF4DE
:1023800093CFC092B208D092B308E092B408F09212
:10239000B508A6CF85ED8093BC0080913105909162
:1023A0003205A0913305B09134050796A11DB11DEA
:1023B00023E0B695A795979587952A95D1F7209113
:1023C000BC0024FD03C010922F05089540913105F3
:1023D000509132056091330570913405452B462BA1
:1023E000472B69F30097A105B10541F02AE22A9530
:1023F000F1F700C00197A109B109E1CF8091300543
:102400000C94E1070E945F26FF920F931F93CF93D6
:10241000DF93EC01F62E08811981C8010E942A235E
:10242000F81621F06F2DC8010E943223CE01DF91F2
:10243000CF911F910F91FF900895EF92FF920F930C
:102440001F93CF93DF9300D000D0CDB7DEB70E94AB
:102450000B0E69837A838B839C83CE0101967C016A
:102460000CEF1FE01E830D83F70161917F01CE0108
:1024700005960E9404120F5F1F4F0115F0E11F0720
:1024800089F726960FB6F894DEBF0FBECDBFDF9159
:10249000CF911F910F91FF90EF9008951F920F928F
:1024A0000FB60F9211242F933F938F939F93AF9367
:1024B000BF938091010590910205A0910305B09111
:1024C00004053091000523E0230F2D3758F50196C0
:1024D000A11DB11D20930005809301059093020575
:1024E000A0930305B093040580910505909106051E
:1024F000A0910705B09108050196A11DB11D80931B
:10250000050590930605A0930705B0930805BF91B4
:10251000AF919F918F913F912F910F900FBE0F9090
:102520001F90189526E8230F0296A11DB11DD2CF4A
:102530001F920F920FB60F9211240BB60F922F938A
:102540003F934F935F936F937F938F939F93AF933B
:10255000BF93EF93FF938FEB95E00E94AB05FF9144
:10256000EF91BF91AF919F918F917F916F915F910B
:102570004F913F912F910F900BBE0F900FBE0F9078
:102580001F9018951F920F920FB60F9211240BB641
:102590000F922F933F934F935F936F937F938F93FC
:1025A0009F93AF93BF93EF93FF938FEB95E00E94C0
:1025B0002D05FF91EF91BF91AF919F918F917F91E9
:1025C0006F915F914F913F912F910F900BBE0F90A4
:1025D0000FBE0F901F9018951F920F920FB60F927B
:1025E00011240BB60F922F933F934F935F936F93EA
:1025F0007F938F939F93AF93BF93EF93FF938CE55C
:1026000096E00E94AB05FF91EF91BF91AF919F9132
:102610008F917F916F915F914F913F912F910F908B
:102620000BBE0F900FBE0F901F9018951F920F9228
:102630000FB60F9211240BB60F922F933F934F9327
:102640005F936F937F938F939F93AF93BF93EF931A
:10265000FF938CE596E00E942D05FF91EF91BF91CD
:10266000AF919F918F917F916F915F914F913F912A
:102670002F910F900BBE0F900FBE0F901F901895CB
:102680001F920F920FB60F9211240BB60F922F9339
:102690003F934F935F936F937F938F939F93AF93EA
:1026A000BF93EF93FF9389EF96E00E94AB05FF91F4
:1026B000EF91BF91AF919F918F917F916F915F91BA
:1026C0004F913F912F910F900BBE0F900FBE0F9027
:1026D0001F9018951F920F920FB60F9211240BB6F0
:1026E0000F922F933F934F935F936F937F938F93AB
:1026F0009F93AF93BF93EF93FF9389EF96E00E9470
:102700002D05FF91EF91BF91AF919F918F917F9197
:102710006F915F914F913F912F910F900BBE0F9052
:102720000FBE0F901F9018951F920F920FB60F9229
:1027300011240BB60F922F933F934F935F936F9398
:102740007F938F939F93AF93BF93EF93FF9386E90C
:1027500097E00E94AB05FF91EF91BF91AF919F91E0
:102760008F917F916F915F914F913F912F910F903A
:102770000BBE0F900FBE0F901F9018951F920F92D7
:102780000FB60F9211240BB60F922F933F934F93D6
:102790005F936F937F938F939F93AF93BF93EF93C9
:1027A000FF9386E997E00E942D05FF91EF91BF917D
:1027B000AF919F918F917F916F915F914F913F91D9
:1027C0002F910F900BBE0F900FBE0F901F9018957A
:1027D0001F920F920FB60F9211240BB60F922F93E8
:1027E0003F934F935F936F937F938F939F93AF9399
:1027F000BF93EF93FF938091B900887F803609F4EF
:102800004DC008F040C0883209F4A9C028F58031D5
:1028100009F49DC0C8F4882309F4FBC0883009F48A
:1028200096C0FF91EF91BF91AF919F918F917F9152
:102830006F915F914F913F912F910F900BBE0F9031
:102840000FBE0F901F901895883109F488C0803210
:1028500041F780932D0514C0803409F49DC040F4E5
:102860008033B9F38833E9F680932D0585ECB0C049
:10287000803509F485C0883509F496C0883489F616
:102880000E94CA11CECF883909F48CC038F5883738
:1028900029F050F4883611F0803719F683E08093E0
:1028A0002F051092FF0257C0883809F47BC0803989
:1028B00019F0803809F0B5CF8091FF02803208F01E
:1028C00071C0E091FF0281E08E0F8093FF02809142
:1028D000BB00F0E0E152FD4F80833DC0803B39F00A
:1028E000E0F4803A09F479C0883A09F09ACF84E09C
:1028F00080932F051092DE021092DD02E09100031A
:10290000F091010319958091DD0281110FC081E0E2
:102910008093DD021092BD0209C0803C09F4A6CF6D
:10292000883C09F4A3CF883B09F07BCFE091DE021D
:1029300081E08E0F8093DE02F0E0E354FD4F808152
:102940008093BB009091DE028091DD0229C08091CE
:102950000A058093BB0085EC8093BC0062CF909108
:102960002C0580912B05981758F5E0912C0581E0F6
:102970008E0F80932C05F0E0E55FFA4F8081E9CF60
:10298000E0912C0581E08E0F80932C058091BB0097
:10299000F0E0E55FFA4F808390912C0580912B0544
:1029A0009817C8F285E8D8CFE0912C0581E08E0F0A
:1029B00080932C058091BB00F0E0E55FFA4F8083A7
:1029C00080912E0581115CCF81E08093090584EA16
:1029D0008093BC0010922F0524CF85EC8093BC001F
:1029E00010922F058091FF02803230F4E091FF02B7
:1029F000F0E0E152FD4F10826091FF0270E0E09143
:102A00000203F09103038FED92E019951092FF02FB
:102A100008CF10922D0534CFCF93DF93EC01198AA4
:102A2000188A1B8A1A8A1F861E86198E188E0E9483
:102A3000EF04688779878A879B871C821D821E82A4
:102A40001F82188219821A821B828AE090E09D8779
:102A50008C871F8A1E8A1B8E1A8E1D8A81E08C8BA2
:102A6000DF91CF910895CF93DF93EC011F86188AF1
:102A70001E861E8A1D8A0E94EF04688779878A87CE
:102A80009B871C821D821E821F82188219821A82D5
:102A90001B828AE090E09D878C871C8A1B8A188E97
:102AA0001F8A1A8A81E0898BDF91CF910895FC01FA
:102AB0001086148215821682178211861082118266
:102AC000128213820895FC01E450FE4F2EE720830A
:102AD0003196108231961082319610823196108292
:102AE000319621E8208331961082319610823196FA
:102AF00011821082329611821082329610823396A1
:102B00001082319610823196108231961082319661
:102B100010823196108231961082118212821382B5
:102B200038961082865E9D4FFC01108208950F93A7
:102B30001F93CF93DF93EC01862F688379831A82EA
:102B40001B821C821D821E821F82188619861B868C
:102B50001A8662E00E9459041D861C8681E090E07E
:102B60009F878E87288139813327F901E254FD4FF1
:102B70008491F901E858FD4F0491F901EE5CFD4F95
:102B80001491112301F181110E94C403E12FF0E09F
:102B9000EE0FFF1FEC55FE4FA591B491EC910E2363
:102BA00091E080E009F490E0988B898B9A8B8B8B75
:102BB0009C8B8D8B1E8A1F8A188E198EDF91CF9168
:102BC0001F910F91089590E080E0EECFEF92FF9279
:102BD0000F931F93CF93DF93EC017B01198218822F
:102BE0001B821A821D821C82FB0101900020E9F7E2
:102BF00031978F01061B170BB8016F5F7F4F90E075
:102C000080E00E947E250097B9F0998388831B831A
:102C10000A832C813D81232B11F4FC0110821D833A
:102C20000C83B70188819981DF91CF911F910F911A
:102C3000FF90EF900C946D2688819981009711F098
:102C40000E94F524198218821D821C821B821A821E
:102C5000DF91CF911F910F91FF90EF9008950F9307
:102C60001F93CF93DF931092C2051092C10548EED7
:102C700053E060E070E04093C3055093C405609357
:102C8000C5057093C60586E692E09093C0058093D3
:102C9000BF0525E331E03093CC052093CB0524E339
:102CA00031E03093CE052093CD0520E331E0309321
:102CB000D0052093CF0521E331E03093D205209356
:102CC000D10522E331E03093D4052093D30526E3E8
:102CD00031E03093D6052093D5051092D805109297
:102CE000D9051092DA051092DB0510925F0610925A
:102CF0005E0640936006509361066093620670938F
:102D0000630690935D0680935C0625ED30E030937A
:102D100069062093680624ED30E030936B0620931B
:102D20006A0620ED30E030936D0620936C0621EDAD
:102D300030E030936F0620936E0622ED30E0309342
:102D400071062093700626ED30E0309373062093D1
:102D500072061092750610927606109277061092FF
:102D600078061092FC061092FB064093FD065093E5
:102D7000FE066093FF06709300079093FA06809317
:102D8000F9062DEC30E030930607209305072CEC74
:102D900030E0309308072093070728EC30E03093A9
:102DA0000A072093090729EC30E030930C072093A1
:102DB0000B072AEC30E030930E0720930D072EEC22
:102DC00030E03093100720930F07109212071092F3
:102DD000130710921407109215071092990710927A
:102DE000980740939A0750939B0760939C077093B2
:102DF0009D07909397078093960785EC90E09093BA
:102E0000A3078093A20784EC90E09093A50780939A
:102E1000A40780EC90E09093A7078093A60781EC2D
:102E200090E09093A9078093A80782EC90E090939C
:102E3000AB078093AA0786EC90E09093AD07809350
:102E4000AC071092AF071092B0071092B107109222
:102E5000B2078BE98093330888E08093360880E0DE
:102E600091E090933508809334080E945924909300
:102E700038088093370830E020E080913408909142
:102E8000350828173907E0F4C9016091330870E06C
:102E900048E050E0FC01E078FF27880F991FEF2BF6
:102EA00011F08627972741505109A1F7E091370883
:102EB000F0913808E20FF31F80832F5F3F4FDDCF83
:102EC00010923C0810923B0888EE93E0A0E0B0E03E
:102ED00080933D0890933E08A0933F08B09340082C
:102EE00088E792E090933A088093390866E872E0A8
:102EF00081E097E10E94E61567E972E08BEF96E1C9
:102F00000E94E61567E972E085EF96E10E94E615FA
:102F1000C0911A028BEE96E10E945715809118021B
:102F20008093EA1680EE96E10E945715C093DF1653
:102F300085ED96E10E9457158BEC96E10E9457159E
:102F400081EC96E10E94571585EA96E10E940C15E6
:102F5000CDEBD2E105EA16E1CE010E943315699668
:102F60000C171D07C9F7C5EDDEE00DEB12E1CE0130
:102F70000E94331569960C171D07C9F78BEC9EE06C
:102F80000E9457158FEA9EE00E940C15809117024F
:102F900091E0980F9093AE0E94E2980F9093AD0E3F
:102FA00095E2980F9093AC0E885C8093AB0E81EA0B
:102FB0009EE00E94571587E99EE00E9457158DE814
:102FC0009EE00E9457156FE170E083E79EE00E944B
:102FD000971567E170E089E59EE00E94971569E129
:102FE00070E08FE39EE00E9497156BE170E085E250
:102FF0009EE00E9497156DE170E08BE09EE00E94DC
:10300000971565E270E081EF9DE00E94971587EECD
:103010009DE00E9457158DED9DE00E94571583EDB0
:103020009DE00E94571589EC9DE00E9457158FEB9B
:103030009DE00E94571585EB9DE00E9457158BEA95
:103040009DE00E94571581EA9DE00E94571587E98F
:103050009DE00E9457158DE89DE00E9457158CE673
:103060009BE00E9463158BE499E00E94631581E464
:1030700099E00E94571587E399E00E9457158DE269
:1030800099E00E94571583E299E00E94571589E163
:1030900099E00E9457158FE099E00E94571585E04E
:1030A00099E00E9457158BEF98E00E9457156BE24C
:1030B00070E081EE98E00E94971587ED98E00E94FD
:1030C00057158DEC98E00E94571583EC98E00E940C
:1030D00057152091C208822F8C53990BAC01309167
:1030E0001102349FC001359F900D11246CE97FEFD0
:1030F0000E947C232C53620F6093C1081092C00879
:1031000080E48093AD081092790810927A081092AA
:103110007B0810927C0810927D0810927E08109215
:103120007F081092800810928108109282081092F5
:1031300083081092840810928508109286081092D5
:103140008708109288081092890810928A081092B5
:103150008B0810928C0810928D0810928E08109295
:103160008F08109290081092910810929208109275
:103170009308109294081092950810929608109255
:10318000970810929808C4E1D0E0D0939A08C093B1
:10319000990810929B0810929C0810929D0810921A
:1031A0009E0810929F081092A0081092A1081092F9
:1031B000A20883EA98E00E945715109245081092E1
:1031C0004608109247081092480810924908109239
:1031D0004A0810924B0810924C0810924D08109219
:1031E0004E0810924F0810925008109251081092F9
:1031F00052081092530810925408109255081092D9
:1032000056081092570810925808109259081092B8
:103210005A0810925B0810925C0810925D08109298
:103220005E0810925F081092600810926108109278
:1032300062081092630810926408D0936608C093E5
:103240006508109267081092680810926908109239
:103250006A0810926B0810926C0810926D08109218
:103260006E088FE698E00E9457158FEF809307173E
:103270001092091710920817109213171092121734
:103280008FEF9FEFDC0180930E1790930F17A093A1
:103290001017B093111710920A1710920B17109273
:1032A0000C1710920D17DF91CF911F910F91089578
:1032B000CF93DF93CDB7DEB7E1970FB6F894DEBFBB
:1032C0000FBECDBF789484B5826084BD84B5816023
:1032D00084BD85B5826085BD85B5816085BD8091E1
:1032E0006E00816080936E00109281008091810059
:1032F0008260809381008091810081608093810051
:10330000809180008160809380008091B100846012
:103310008093B1008091B00081608093B000809173
:1033200091008260809391008091910081608093F0
:103330009100809190008160809390008091A10025
:1033400082608093A1008091A10081608093A100A0
:103350008091A00081608093A00080912101826013
:1033600080932101809121018160809321018091CE
:10337000200181608093200180917A008460809395
:103380007A0080917A00826080937A0080917A003E
:10339000816080937A0080917A00806880937A00BF
:1033A0001092C1000E94C3078CE08093B80040E8EF
:1033B00055E260E070E086E997E00E94B70140E8DE
:1033C00055E260E070E089EF96E00E94B70140E8C6
:1033D00055E260E070E08CE596E00E94B70180EA7B
:1033E0009FE0909366088093650810920503109201
:1033F000040310925605109255050E94C3078EEFE4
:1034000094E090930103809300038FEF94E09093F6
:103410000303809302036FEF7FEF90E080E00E9450
:103420002E10AFE1BEE41197F1F700C0000081114A
:10343000DBC78FE999E39093BB088093BA086FE9E3
:1034400079E390E080E00E942E100E94351181E027
:103450008093460387E797E09093BB088093BA0870
:1034600067E777E090E080E00E942E100E9435111F
:103470000E94EF0460939B0870939C0880939D08C2
:1034800090939E084091990850919A0870E060E0EE
:1034900083EA98E00E948B08409165085091660885
:1034A00070E060E08FE698E00E948B0889EF96E07C
:1034B0009093880D8093870D84E690E0A0E0B0E0C3
:1034C0008093890D90938A0DA0938B0DB0938C0DF2
:1034D00026E937E03093760D2093750D1092770D25
:1034E0008093810D9093820DA093830DB093840DF2
:1034F0008CE596E09093670B8093660B82E390E0F7
:10350000A0E0B0E08093680B9093690BA0936A0BE6
:10351000B0936B0B3093550B2093540B1092560BBA
:103520008093600B9093610BA093620BB093630B3D
:1035300040E051EE60E070E08FEB95E00E94B70153
:103540001092B6051092B7051092B8058FEB95E072
:1035500090935C0580935B051092B3051092B405BF
:103560001092B505EDE5F5E089E795E02FEF3FEF27
:10357000219331938E179F07D9F780915B05909126
:103580005C05DC01ED91FC910084F185E02D19953D
:10359000892B61F080915B0590915C05DC01ED91D8
:1035A000FC910284F385E02D1995E7CF0E94EF048A
:1035B00068517C4F6B01F12CE12C00EF902E8AEAD0
:1035C000A82E95E0B92E01E115E50E947C028091BC
:1035D000B80581111FC00E94EF046C157D058E0592
:1035E0009F05C0F49982AA82BB820C831D838091BF
:1035F0005B0590915C05DC01ED91FC910280F3810B
:10360000E02D45E050E0BE016F5F7F4F19950E94AD
:10361000BA04DBCF0E947C028091B805882309F4AC
:103620007EC18091B0059091B105892B09F474C1D8
:1036300082E090E090935A05809359058AE0809348
:10364000C208209111023EEC3203C00111246CE942
:103650007FEF0E947C2362536093C1080E947C022A
:1036600080EF89838AEA8A8385E08B8383E18C8378
:1036700085E58D8380915B0590915C05DC01ED9182
:10368000FC910280F381E02D45E050E0BE016F5FC8
:103690007F4F19956C98749A6D98759A0A9A82E37F
:1036A00090E0A0E0B0E08093750E9093760EA0932A
:1036B000770EB093780E80935B0E90935C0EA09380
:1036C0005D0EB0935E0E8093410E9093420EA093D8
:1036D000430EB093440E8093270E9093280EA09330
:1036E000290EB0932A0E8093E3089093E408A093E8
:1036F000E508B093E60880930D0E90930E0EA0930C
:103700000F0EB093100E8093F30D9093F40DA093D1
:10371000F50DB093F60D80912101887F8460809330
:10372000210161E08DE20E9459049A9A3C9A3A9AEA
:10373000579A80910A01886080930A0180911E0344
:10374000811111C086E093E00E94720F10921D0358
:1037500010921C038AE392E0909307038093060380
:1037600081E080931E0386E093E00E94330B89E1A1
:1037700094E090930903809308038EE390E0909384
:103780001503809314038FEF80930C0380EB8093D9
:103790000D0380EF80930E0310920A1710920B17FF
:1037A00010920C1710920D1780913E03811111C0D9
:1037B00086E293E00E94720F10923D0310923C0348
:1037C00080E592E0909327038093260381E0809325
:1037D0003E0386E293E00E94900D89E593E090938A
:1037E00029038093280380E490E09093350380932D
:1037F000340380910A1790910B17A0910C17B09188
:103800000D17843CE9E09E07A105B10520F484EC86
:1038100099E0A0E0B0E080930A1790930B17A09373
:103820000C17B0930D178FEF80932C0380EB8093D0
:103830002D0380EF80932E039D9A6B9A8091010156
:103840008860809301018091010180618093010172
:103850008091010180628093010180910101806467
:1038600080930101249A259A1092580310925703CD
:103870008091510E9091520E892B09F035C182E052
:1038800090E09093BE058093BD0582E090E0909318
:103890005603809355038CEF9FE00E942A238EA746
:1038A0008DEF9FE00E942A238FA78EEF9FE00E945A
:1038B0002A2388AB8FEF9FE00E942A2389AB0E94C6
:1038C0000B0E0EA51FA528A939A96017710782073D
:1038D000930709F0C2C27E01FCE1EF0EF11C10E07B
:1038E00000E0C8010E942A23D7018D937D010F5F5C
:1038F0001F4F02311105A9F78C8D982F9D7F9D30A8
:1039000009F076C180931A028F3009F0F0C088E286
:103910008093040282E2EFC081E090E08BCE8AEBDC
:103920009FEF0E949803B0EFEB2EE9821AEAF12E86
:10393000FA8205E00B8384E08C8315E51D8380917A
:103940005B0590915C05DC01ED91FC910280F381B7
:10395000E02D45E050E0BE016F5F7F4F1995E98291
:10396000FA820B8381E08C831D8380915B059091AB
:103970005C05DC01ED91FC910280F381E02D45E0D6
:1039800050E0BE016F5F7F4F1995E982FA820B8389
:1039900082E08C831D8380915B0590915C05DC0146
:1039A000ED91FC910280F381E02D45E050E0BE01F5
:1039B0006F5F7F4F19950E94BA040E947C0280912C
:1039C000B605882309F467C0A9E9B5E0FE01319680
:1039D000CE0145962D9121938E179F07D9F70E940E
:1039E0007C028091B70581110E947C02F0EFFF2ECE
:1039F000FC8E0AEA0D8F87E08E8F8CE08F8F18A2E5
:103A000019A215E51AA380915B0590915C05DC0174
:103A1000ED91FC910280F381E02D47E050E0BE0182
:103A2000645E7F4F1995FC8E0D8FA6E0EA2EEE8E18
:103A300089E08F8F18A219A380915B0590915C0596
:103A4000DC01ED91FC910280F381E02D46E050E035
:103A5000BE01645E7F4F1995FC8E0D8FEE8E8EE059
:103A60008F8F81E088A319A380915B0590915C05FD
:103A7000DC01ED91FC910280F381E02D46E050E005
:103A8000BE01645E7F4F199583E090E090935A05E4
:103A900080935905FFCD10925A05109259058FEB6E
:103AA00095E00E941A06E091D105F091D20580813F
:103AB0008F7E8083E091D105F091D2058081877F50
:103AC0008083E091D105F091D20580818F7780834A
:103AD000E091D105F091D20580818F7D8083809126
:103AE000D9058093D805D6CD84E090E0CACE8EE289
:103AF0008093040288E2809318028D8D8C3039F017
:103B0000843129F0843219F0883209F079C0809329
:103B100019028E8D8C3051F099EE980F923030F062
:103B20008A3121F09DED980F923010F480930002BD
:103B30008AA59FEF980F943110F4809347038CA5CA
:103B40009EEF980F933048F4833009F45FC08430BF
:103B500021F0109256031092550388A19FEF980F01
:103B60009E3F10F480930F0289A19FEF980F9E3F14
:103B700010F480930D028AA19FEF980F9E3F10F4DE
:103B800080930B028BA19FEF980F9E3F10F48093C0
:103B900010028CA19FEF980F9E3F10F480930E02AD
:103BA0008DA19FEF980F9E3F10F480930C028EA181
:103BB0009CEE980F913510F480930A028FA19CEE31
:103BC000980F913510F48093090288A59CEE980F08
:103BD000913510F48093080280911902843209F41F
:103BE0001AC18832D1F0843109F017C18AE016C0B9
:103BF00080914603811181CF8FE080931A0287CE96
:103C000080914603811185CF84E281CF81E090E0ED
:103C10009093560380935503A0CF87E080930302CF
:103C20008091550390915603892B09F4F8C088E0E0
:103C3000809301020E94920DFE0131967F0102E104
:103C400010E0C8010E942A23D7018D937D010F5FE8
:103C50001F4F0D321105A9F789859EEF980F9430FB
:103C600078F4833009F4DEC0853009F4E1C0823095
:103C700009F0DBC082E090E09093BE058093BD0523
:103C80008A85823031F481E090E0909358038093EC
:103C900057038D859FEF980F923030F4823009F0F2
:103CA000CAC081E0809354039F8591509536A8F453
:103CB000909311022091C208E22FEC53FF0B9E9FBC
:103CC000A0019F9F500D1124CA016CE97FEF0E9453
:103CD0007C232C53620F6093C1088D899FEF980F4E
:103CE000923030F4823009F0A9C081E08093120252
:103CF0008E899FEF980F923030F4823009F0A1C086
:103D000081E0809313028F899FEF980F923030F4F7
:103D1000823009F099C081E080931402888D9FEF72
:103D2000980F923030F4823009F091C081E0809396
:103D30001502898D9FEF980F923030F4823009F090
:103D400089C081E0809316028091590590915A05AF
:103D50000197039738F48091C108082E000C990B45
:103D60000E9498038091550390915603892B09F482
:103D70009BC088E0809301020E94920D80910A020C
:103D8000853618F084E680930A0280910902853610
:103D900018F084E68093090280910802853618F0B5
:103DA00084E68093080245E050E060E070E08BEE2E
:103DB00096E10E948B0840ED57E060E070E087EDEF
:103DC00098E00E948B0840E45FE160E070E08DE8DD
:103DD0009DE00E948B0848EE53E060E070E087E9C8
:103DE0009EE00E948B08F12C80911A02F81608F0D0
:103DF0005EC08F2D90E08C01000F111F080F191F5E
:103E0000075E1B4F80E00E94FB01D8016D937D93FC
:103E10008C93F394E9CF85E001CF8FE0FFCE109231
:103E2000010208CF83E090E027CF84E090E024CF28
:103E300085E090E021CF1092540336CF1092120209
:103E400057CF109213025FCF1092140267CF1092D7
:103E500015026FCF1092160277CF6091C0088FE5E0
:103E600091E00E94B80F02E110E01A8309836FEF1E
:103E7000CE0101960E9404120F5F1F4F0B311105F6
:103E8000A1F70E941D1210E000E01A8309836FEF72
:103E9000CE0101960E9404120F5F1F4F02311105DF
:103EA000A1F70E941D1250CF1092010265CFA59874
:103EB000739880910201877F8093020180910201B3
:103EC0008F7E80930201809102018F7D8093020199
:103ED000809102018F7B809302012C982D98809114
:103EE000550390915603892BB9F0F12C809117025C
:103EF0008F1590F08F2D90E08C01000F111F080F8F
:103F0000191F075A1C4F82E00E94FB01F8016083D1
:103F100071838283F394EACF1092C70D1092C80D7B
:103F200081E08093070280910B01877F80930B01D2
:103F30001092C9161092CA16F12C80911902F81627
:103F4000B0F40091DF16202F2F0D3327331F890186
:103F5000000F111F020F131F075E1B4F81E00E940D
:103F6000FB01D8016D937D938C93F394E6CF0E946F
:103F7000C10D80910202811103C081E08093020291
:103F8000F090AE0E8091AD0E8F1590F08F2D90E0D9
:103F90008C01000F111F080F191F075A1C4F82E0D8
:103FA0000E94FB01F801608371838283F394EACF5E
:103FB000809147038823C1F0F090AC0E8091AB0E46
:103FC0008F1590F08F2D90E08C01000F111F080FBE
:103FD000191F075A1C4F83E00E94FB01D8016D9303
:103FE0007D938C93F394EACF8091BD059091BE05AB
:103FF0000297029708F432C1809118028093EA1662
:1040000086E990E090930602809305024091EA16BB
:1040100050E070E060E080EE96E10E948B084091F5
:1040200005025091060270E060E081EA9EE00E9485
:104030008B084091030250E070E060E08BEC96E169
:104040000E948B084CE251E060E070E08BEC9EE057
:104050000E948B081092EF0D1092F00D60E08DE23F
:104060000E942B0480915303882321F01092530364
:104070000E94C10D80915203882309F445C010921B
:10408000520301E00093480388E0809349031092B3
:104090004B0310924A0314E010934C0300934B0916
:1040A00080934C0910924D0910924E0910934F09BC
:1040B00035E0E32EF12CFA82E98241E0BE016F5F28
:1040C0007F4F8BE499E00E94CB0600934D0383E37E
:1040D00080934E031092500310924F03109351039C
:1040E00000936C0B80936D0B10926E0B10926F0B04
:1040F0001093700BFA82E98241E0BE016F5F7F4F3F
:104100008CE69BE00E94CB068091540381110DC088
:104110006091C00886E791E00E94B80F40E050E04F
:10412000BA0189E199E00E948B0828EEE22E23E093
:10413000F22E8091590590915A050197039710F43A
:104140000E947C028091F316882309F4AAC0809112
:10415000F416882309F489C01092F3161092F4160D
:104160007090071780910A1790910B17A0910C1768
:10417000B0910D17892B8A2B8B2BD9F00E949504B7
:104180000091FB041091FC042091FD043091FE0489
:10419000601B710B820B930B00910A1710910B1788
:1041A00020910C1730910D17601771078207930744
:1041B000C8F20E9495046093FB047093FC04809302
:1041C000FD049093FE04E0911217F09113173097BD
:1041D00059F040910E1750910F1760911017709180
:1041E0001117872D1995782E0091F9041091FA0472
:1041F00099EDC92E94E0D92E56010115110509F447
:1042000057C0B9EFAB16B4E0BB0609F451C0F801D2
:104210008585882309F448C00190F081E02D8284CF
:1042200093840680F781E02DC8011995BC01C8016F
:10423000F4011995D5018D939C9380910817909165
:1042400009178436910518F4D8011C961C92F801C0
:1042500004811581F2E0AF0EB11CCFCF8091040232
:104260008093EA1688E592E0CDCE0E94EF0400919B
:10427000EF161091F0162091F1163091F216601B96
:10428000710B820B930B0091EB161091EC162091A1
:10429000ED163091EE16601771078207930708F04C
:1042A0005BCF0E943A0645CFF50111821082C5CF3F
:1042B0000091F9041091FA0480E1A82EB12C0115A7
:1042C0001105E9F0D8011D968C911D97882381F086
:1042D0001E964D915C911F9712966D917C9113974C
:1042E000ED91FC910280F381E02D272DC8011995F5
:1042F000F80104811581F1E0AF1AB10801F70091CE
:10430000F9041091FA0401151105E9F029EFC2161C
:1043100024E0D206C1F0D8011D968C911D97882308
:1043200051F0F60160817181ED91FC910484F58575
:10433000E02DC8011995D80114960D911C91B2E099
:10434000CB0ED11CE0CF8091D7049091D8048C0182
:104350000F5F1F4F1093D8040093D7044997A4F11F
:104360000E94EF048090D3049090D404A090D504D0
:10437000B090D6049B01AC01281939094A095B09A0
:1043800021F421E030E040E050E00E9DB0010F9DAF
:10439000700D1E9D700D1124072E000C880B990BBB
:1043A0000E944B2330930917209308171092D804CA
:1043B0001092D7040E94EF046093D3047093D40446
:1043C0008093D5049093D60445E050E060E070E01F
:1043D0008BEE96E10E948B088091FF04882309F4FC
:1043E00060CF1092FF045DCF1092460355C8FC01C8
:1043F00080819181009711F00C94F524089585EF48
:1044000096E10E94F7218BEF96E10E94F72181E06F
:1044100097E10C94F721E89409C097FB3EF490953E
:104420008095709561957F4F8F4F9F4F9923A9F08D
:10443000F92F96E9BB279395F6958795779567951C
:10444000B795F111F8CFFAF4BB0F11F460FF1BC060
:104450006F5F7F4F8F4F9F4F16C0882311F096E9F3
:1044600011C0772321F09EE8872F762F05C06623A1
:1044700071F096E8862F70E060E02AF09A95660F5A
:10448000771F881FDAF7880F9695879597F9089513
:10449000990F0008550FAA0BE0E8FEEF1616170655
:1044A000E807F907C0F012161306E407F50798F0BD
:1044B000621B730B840B950B39F40A2661F0232BD6
:1044C000242B252B21F408950A2609F4A140A69552
:1044D0008FEF811D811D08950E947F220C94F02290
:1044E0000E94E22238F00E94E92220F0952311F088
:1044F0000C94D9220C94DF2211240C9424230E94C2
:10450000012370F3959FC1F3950F50E0551F629FF3
:10451000F001729FBB27F00DB11D639FAA27F00D1C
:10452000B11DAA1F649F6627B00DA11D661F829F43
:104530002227B00DA11D621F739FB00DA11D621F28
:10454000839FA00D611D221F749F3327A00D611D45
:10455000231F849F600D211D822F762F6A2F112427
:104560009F5750409AF0F1F088234AF0EE0FFF1F5A
:10457000BB1F661F771F881F91505040A9F79E3FB1
:10458000510580F00C94D9220C9424235F3FE4F36E
:10459000983ED4F3869577956795B795F795E79507
:1045A0009F5FC1F7FE2B880F911D9695879597F910
:1045B000089597F99F6780E870E060E008959FEFA5
:1045C00080EC089500240A941616170618060906AA
:1045D000089500240A941216130614060506089579
:1045E000092E0394000C11F4882352F0BB0F40F401
:1045F000BF2B11F460FF04C06F5F7F4F8F4F9F4F41
:10460000089557FD9058440F551F59F05F3F71F0C2
:104610004795880F97FB991F61F09F3F79F0879529
:104620000895121613061406551FF2CF4695F1DFB2
:1046300008C0161617061806991FF1CF8695710542
:10464000610508940895E894BB2766277727CB0176
:1046500097F90895F999FECF92BD81BDF89A9927EF
:1046600080B50895262FF999FECF1FBA92BD81BD5E
:1046700020BD0FB6F894FA9AF99A0FBE01960895E4
:104680000E946D23A59F900DB49F900DA49F800D57
:10469000911D11240895A1E21A2EAA1BBB1BFD0136
:1046A0000DC0AA1FBB1FEE1FFF1FA217B307E40711
:1046B000F50720F0A21BB30BE40BF50B661F771F69
:1046C000881F991F1A9469F7609570958095909549
:1046D0009B01AC01BD01CF010895A29FB001B39F22
:1046E000C001A39F700D811D1124911DB29F700DFB
:1046F000811D1124911D089597FB072E16F4009437
:1047000007D077FD09D00E949F2307FC05D03EF417
:10471000909581959F4F0895709561957F4F08956D
:10472000EE0FFF1F881F8BBF0790F691E02D1994A5
:104730000E946D23B7FF0895821B930B0895AA1B57
:10474000BB1B51E107C0AA1FBB1FA617B70710F07C
:10475000A61BB70B881F991F5A95A9F780959095AE
:10476000BC01CD0108950E94C7230C94F0220E9441
:10477000E92258F00E94E22240F029F45F3F29F03C
:104780000C94D92251110C9424230C94DF220E9402
:10479000012368F39923B1F3552391F3951B550B2E
:1047A000BB27AA2762177307840738F09F5F5F4F04
:1047B000220F331F441FAA1FA9F335D00E2E3AF043
:1047C000E0E832D091505040E695001CCAF72BD05B
:1047D000FE2F29D0660F771F881FBB1F26173707AC
:1047E0004807AB07B0E809F0BB0B802DBF01FF27DE
:1047F00093585F4F3AF09E3F510578F00C94D922C0
:104800000C9424235F3FE4F3983ED4F38695779588
:104810006795B795F7959F5FC9F7880F911D969596
:10482000879597F90895E1E0660F771F881FBB1FF2
:10483000621773078407BA0720F0621B730B840B9F
:10484000BA0BEE1F88F7E09508950E94092388F0BF
:104850009F5798F0B92F9927B751B0F0E1F0660F44
:10486000771F881F991F1AF0BA95C9F714C0B13085
:1048700091F00E942323B1E008950C942323672F25
:10488000782F8827B85F39F0B93FCCF386957795B4
:104890006795B395D9F73EF490958095709561959D
:1048A0007F4F8F4F9F4F08950E94482208F48FEF4B
:1048B00008950F931F93CF93DF938230910510F4E7
:1048C00082E090E0E0911417F091151730E020E0BD
:1048D000B0E0A0E0309799F42115310509F44AC001
:1048E000281B390B24303105D8F58A819B8161154D
:1048F000710589F1FB0193838283FE0111C0408120
:1049000051810281138148175907E0F04817590770
:1049100099F4109761F012960C93129713961C93CA
:104920003296CF01DF91CF911F910F91089500939F
:10493000141710931517F4CF2115310551F04217B4
:10494000530738F0A901DB019A01BD01DF01F8012D
:10495000C1CFEF01F9CF9093151780931417CDCFE6
:10496000FE01E20FF31F81939193225031093983A5
:104970002883D7CF2091161730911717232B41F496
:1049800020911D0230911E023093171720931617A5
:1049900020911B0230911C022115310541F42DB7E5
:1049A0003EB740911F0250912002241B350BE0912D
:1049B0001617F0911717E217F307A0F42E1B3F0B01
:1049C0002817390778F0AC014E5F5F4F2417350781
:1049D00048F04E0F5F1F509317174093161781939F
:1049E00091939FCFF0E0E0E09CCFCF93DF930097CF
:1049F000E9F0FC01329713821282A0911417B09152
:104A00001517ED0130E020E01097A1F420813181ED
:104A1000820F931F20911617309117172817390707
:104A200009F061C0F0931717E0931617DF91CF914B
:104A30000895EA01CE17DF07E8F54A815B819E0100
:104A400041155105B1F7E901FB83EA834991599179
:104A5000C40FD51FEC17FD0761F480819181029688
:104A6000840F951FE90199838883828193819B83B9
:104A70008A83F0E0E0E012968D919C911397009765
:104A8000B9F52D913C911197CD010296820F931F9C
:104A900020911617309117172817390739F63097D4
:104AA00051F51092151710921417B0931717A09381
:104AB0001617BCCFD383C28340815181840F951FC9
:104AC000C817D90761F44E5F5F4F88819981480FFD
:104AD000591F518340838A819B819383828321154F
:104AE000310509F0B0CFF0931517E09314179ECF5E
:104AF000FD01DC01C0CF13821282D7CF4F925F92AB
:104B00006F927F928F929F92AF92BF92CF92DF92DD
:104B1000EF92FF920F931F93CF93DF938C01009737
:104B200099F4CB01DF91CF911F910F91FF90EF90FE
:104B3000DF90CF90BF90AF909F908F907F906F90BD
:104B40005F904F900C945924FC01E60FF71F9C01D5
:104B500022503109E217F30708F4AEC0D901CD9114
:104B6000DC911197C617D70720F1C530D10578F031
:104B7000CE0104978617970750F0C61BD70B2297D4
:104B8000C193D1936D937C93CF010E94F524C8010A
:104B9000DF91CF911F910F91FF90EF90DF90CF9019
:104BA000BF90AF909F908F907F906F905F904F904D
:104BB00008955B01AC1ABD0A4C018C0E9D1EA0919C
:104BC0001417B0911517512C412CF12CE12C109792
:104BD00031F580911617909117178815990509F0EE
:104BE0005CC04616570608F058C080911B02909191
:104BF0001C02009741F48DB79EB740911F0250915F
:104C00002002841B950BE817F90708F055C0F093B4
:104C10001717E0931617F90171836083B8CF8D9150
:104C20009C91119712966C90129713967C90139703
:104C3000A815B90559F56C0142E0C40ED11CCA147F
:104C4000DB0420F1AC014A195B09DA0112961597D1
:104C500080F06282738251834083D9016D937C938B
:104C6000E114F10471F0D7011396FC93EE931297BF
:104C70008ECF22968C0F9D1FF90191838083F301C3
:104C8000EFCFF0931517E093141781CF481659060C
:104C900008F42C017D01D3019ACFCB010E94592445
:104CA0007C01009749F0AE01B8010E946426C8015A
:104CB0000E94F52487016BCF10E000E068CF81E00F
:104CC00090E0F8940C947426FB01DC0102C0019082
:104CD0000D9241505040D8F70895FB01DC0101903E
:104CE0000D920020E1F7089511E0C3E8D1E000E063
:104CF00006C0802FFE010E9490232196011DC4381A
:0C4D0000D10780E00807A9F7F894FFCF66
:104D0C002308010F2E960001646464C8FEC8FEC817
:104D1C00FE64010101010107280C0D000018178029
:104D2C000000000000021202120212B40F8D0DB02E
:104D3C000FAD0FAA0FFE000000001E0FB80E330BB4
:104D4C00B40F8D0DB00FAD0FFB04DB08000000009D
:104D5C001E0FB80E900DB40F8D0DB00FAD0FFB04E0
:104D6C00350B00000000CD05000546051A06770539
:104D7C00550569050000000059082C088808020830
:104D8C0025081208030856365F3230323530373179
:084D9C003331303134313100B4
:00000001FF
