:100000000C94F7040C9428050C9428050C942805EE
:100010000C9428050C9428050C9428050C942805AC
:100020000C9428050C9428050C9428050C9428059C
:100030000C9428050C9428050C9428050C9428058C
:100040000C9428050C9428050C9428050C9428057C
:100050000C9428050C9428050C9428050C944289CE
:100060000C9428050C94B28A0C94888A0C94280568
:100070000C9428050C9428050C9428050C9428054C
:100080000C9428050C9428050C9428050C9428053C
:100090000C945E8A0C94348A0C9428050C94DC8AA7
:1000A0000C9428050C9428050C9428050C9428051C
:1000B0000C9428050C9428050C9428050C9428050C
:1000C0000C9428050C9428050C9428050C940A8A95
:1000D0000C94E0890C9428050C94B6890C948C89B6
:1000E0000C94280505A84CCDB2D44EB93836A902D7
:1000F0000C50B9918688083CA6AAAA2ABE00000026
:10010000803F07634236B79BD8A71A39685618AEA6
:10011000BAAB558C1D3CB7CC5763BD6DEDFD753E3C
:10012000F6177231BF000000803F08000000BE9249
:100130002449123EABAAAA2ABECDCCCC4C3E00002C
:100140000080BEABAAAAAA3E00000000BF000000CB
:10015000803F0000000000084178D3BB4387D113E3
:100160003D190E3CC3BD4282AD2B3E68EC8276BE8B
:10017000D98FE1A93E4C80EFFFBE01C4FF7F3F0055
:10018000000000000C94EB230C9459940C94BB1CBD
:100190000C94F01B0C94D22C0C941C330C94BC7A51
:1001A0000C94B1780C941C250C94E0260C94A0358A
:1001B0000C9401350C947E260C9470880C94DB7E94
:1001C0000C946A750C94F47E0C94881C0C943C314D
:1001D0000C94632E0C944E240C9430050C94FA2B42
:1001E0000C948D230C948F250C940E780C949A33D8
:1001F0000C94B57E0C94382D0C94F17F0C94AF7F49
:100200000C946E250C94EF7F0C9401550C9459348A
:100210000C947E7F0C94CA290C94B51A0C941B2064
:100220000C94731C0C94877B0C946C240C948F7E20
:100230000C94D17E0C942B1C0C942F2E0C94F27ADF
:100240000C947C2D0C94857F0C9420270C945324C3
:100250000C942B650C94D5350C94031F0C94717A77
:100260000C94FE770C94F27C0C941C800C94EA7E27
:100270000C94487C0C944B7A0C94B0780C94A87A2B
:100280000C94C01C0C94DB7A0C94DA240C94457901
:100290000C948B750C94A07F0C9462750C944D9407
:1002A0000C94447D0C941C7F0C94171C0C94D84B1C
:1002B0000C94AD7A0C94C81D0C949B1D0C94531A8D
:1002C0000C9481750C9479490C944F250C946C2AEC
:1002D0000C945D240C94F61C0C946A370C947124D5
:1002E0000C94D7250C94A77F0C945E7B0C94B0766D
:1002F0000C949D750C94A67A0C9454310C94907FB8
:100300000C946C310C94A37F0C94C6870C94242914
:100310000C94E2550C943D320C94D2870C946724D3
:100320000C9435280C94421A0C946F7F0C94F42A88
:100330000C94621C0C9477320C94222B0C94837ACC
:100340000C94CD840C9476240C947E1A0C94A01AF0
:100350000C942E2F0C947F1E0C94F6260C94062FD2
:100360000C9443340C94467A0C9484330C94FA1B0A
:100370000C94C62A0C948F1D0C948E760C94EB2F43
:100380000C94B1340C942D340C94EB350C9426372A
:100390000C94D32B0C9434050C9458260C941426EE
:1003A0000C9438050C9473750C945B940C94A37E98
:1003B0000C94052A0C9493750C9419230C94522FC9
:1003C0000C94822A0C9437760C9406770C94A97FAF
:1003D0000C946D750C9417340C94EB330C94AC277F
:1003E0000C9477750C94BD210C94081D0C94711D10
:1003F0000C94CF2E0C9409880C94E57B0C945578C2
:100400000C94B41B0C941C2C0C9448370C944D1C6D
:100410000C946E330C94991C0C9484310C949E2D86
:100420000C9424310C94947F0C94982A0C94F42C02
:100430000C946B350C94B17F0C94A77B0C94A42680
:100440000C94127F0C9461940C945A2D0C94823667
:100450000C94AE870C94887F0C941B990C942A05FD
:100460000C94DD550C94CA1A0C94C77A0C947F76C0
:100470000C94962B0C94AD7F0C9477490C948C378C
:100480000C94AD7E0C9426880C945E750C94EE2B27
:100490000C94C51D0C9462240C94501D0C945E2386
:1004A0000C94A2760C94691E0C94987F0C94167B85
:1004B0000C9452360C94C57D0C94D4380C943E2C7C
:1004C0000C9477290C9451260C94922B0C94837ED7
:1004D0000C94492E0C943A330C94E9370C947564BF
:1004E0000C94B2250C94687F0C9434760C94D37CD5
:1004F0000C943A1B0C9421780C947E2B0C94397636
:100500000C94E7320C94162D0C9453770C94A47829
:100510000C94BA7A0C94B87C0C94C77E0C94C824C2
:100520000C948B1A0C940B1C0C947D2E0C94742739
:100530000C9443230C94827F0C947D750C942C1D99
:100540000C9424380C94E3630C942F640C941A1DBF
:100550000C9416390C94B7780C949C360C94967FB6
:100560000C948A7E0C94627A0C94AE370C948F753E
:100570000C94851A0C94D0380C94DB870C948E7FE5
:100580000C94FD640C94502B0C948A2C0C9466757E
:100590000C948D300C94927F0C94F51B0C944A278C
:1005A0000C94927A0C9468360C94C97F0C94181BA6
:1005B0000C9458330C9404370C945F380C949B348F
:1005C0000C947B240C9455220C94BC230C949975A8
:1005D0000C9438760C949A2B0C94B4780C94CE7FAF
:1005E0000C94FF770C949A7F0C94EE2E0C94517D12
:1005F0000C941A240C94821E0C948E240C94E62BDA
:100600000C94882B0C94C7340C94D7550C94857596
:100610000C948B7F0C942D940C94BD7E0C94077BD2
:100620000C9474490C94C02D0C9449240C943C36C1
:100630000C94DE2B0C9436350C9401360C94D21CA1
:100640000C94A8630C9412230C94B1240C94D0360F
:100650000C94344C0C94CC380C94B6360C94997E93
:100660000C94EA2B0C94DF1B0C94C6220C941B7C7C
:100670000C94661A0C949C7F0C94AA1C0C943C1C41
:100680000C94531D0C9417190C94D1550C94747F31
:100690000C9446480C946F340C94947A0C948534E2
:1006A0000C9498750C94B91D0C9425210C94291B5D
:1006B0000C94CA260C94E41C0C94797F0C94F42DB1
:1006C0000C94EA360C94FE7F0C94B0330C94A12069
:1006D0000C944E1B0C94FE7E0C9458750C94BC64C8
:1006E0000C943E1D0C942D050C941E2F0C94402F41
:1006F0000C9428780C9441220C94B11B0C94CE1BC2
:100700000C94D21D0C94997A0C9401340C94A57F0E
:100710000C9458240C942B940C94CB2E0C94CA2239
:100720000C9459650C94DF1A0C94E22D0C94D32E82
:100730000C94D07F0C94087F0C948F1F0C945794CA
:10074000B80B0000B80B0000AC0D0000AC0D0000B1
:10075000A00F0000000102030405060708090A0BA8
:100760000C0D0E000102030405060708090A0B0C14
:100770000E0D0C0B0A090807060504030201000C04
:100780000B0A09080706050403020100001C120AEF
:10079000041F160D02110C07010A0704000A121C9F
:1007A000040D161F02070C110104070A01020304BD
:1007B00005060708090A0B0C0D0E0F101112131471
:1007C00015161718191A1B1C1D1E1F202122232461
:1007D00025262728010203040506070809000A0B3D
:1007E0000C0D0E0F10111200131415161718191AEC
:1007F0001B001C1D1E1F20212223240001020304B4
:10080000050000000000060708090A0000000000BB
:100810000B0C0D0E0F00000000001011121314003D
:1008200000000000010203000000000000000405B9
:10083000060000000000000007080900000000009A
:1008400000000A0B0C0000000000000030750000E2
:10085000983A0000102700004C1D0000701700009F
:10086000000000006410B71DC8206E3BAC30D926D4
:100870009041DC76F4516B6B5861B24D3C71055080
:100880002083B8ED44930FF0E8A3D6D68CB361CBA8
:10089000B0C2649BD4D2D38678E20AA01CF2BDBD5C
:1008A0004552524F523A204E6F2063616C6C626128
:1008B000636B20617661696C61626C6520666F7242
:1008C000207061636B6574204944200000002100A2
:1008D000240027002A002D00300033000101000011
:1008E000040107010A0100002200250028002B0056
:1008F0002E003100340002010000050108010B0147
:10090000000020002300260029002C002F003200C8
:1009100000010000030106010901050505050705A1
:1009200008080808020202020A0A0808040404046B
:100930000101010101010101030303030303030397
:10094000040707070C0C0C0C0C0C0C0C0202020226
:1009500006060606060606060B0B0B0B0B0B0B0B0F
:1009600001021020200808102040102040800201C1
:1009700002010804020101020408102040808040A6
:1009800020100804020180040201804020100804A5
:100990000201080402010102040810204080010243
:1009A00004081020408000000A0B02090C0D0E08FC
:1009B0000703040100000000000000000000000028
:1009C0000000000000000000000000000000000027
:1009D00000001211100000000000000000000000E4
:1009E0000000000000000000000000001B9911241E
:1009F0001FBECFEFD1E2DEBFCDBF00E00CBF13E0E2
:100A0000A0E0B2E0E0E7F7E501E00BBF02C007902D
:100A10000D92A835B107D9F729E1A8E5B3E001C0E7
:100A20001D92AC30B207E1F714E0C7EFD4E000E06C
:100A300006C021970109802FFE010E9456AAC63FD9
:100A4000D10780E00807A9F70E94569D0C94B6AB29
:100A50000C94000090E080E00895FC016487089504
:100A6000FC01848590E00895FC01858596850895B4
:100A70000F931F93CF93DF9300D0CDB7DEB7AB01B9
:100A800019821A821B82DC01ED91FC910190F081A8
:100A9000E02D00E010E020E0BE016F5F7F4F199570
:100AA0000F900F900F90DF91CF911F910F910895AC
:100AB000FC0140813181932F341708F4942F228157
:100AC000822F291708F4892F8823C1F0962F682FC9
:100AD00070E080E00E942EAA469FC001479F900DC3
:100AE00011249083369FC001379F900D112491836C
:100AF000269FC001279F900D112492830895809115
:100B0000670490916804892B91F080910006909180
:100B100001060197029758F460911707062E000C02
:100B2000770B80916504909166040E94698087E24A
:100B30000C941C4E8091000690910106019702973B
:100B400008F0A2C160911807062E000C770B8FE306
:100B500090E00E94698060911807062E000C770BC8
:100B600080E490E00E94698060911807062E000CD6
:100B7000770B83E490E00E94698060911807062E4D
:100B8000000C770B84E490E00E9469806091180764
:100B9000062E000C770B89E491E00E946980609139
:100BA0001807062E000C770B8BE490E00E946980FA
:100BB00060911807062E000C770B8EE790E00E94DC
:100BC000698060911807062E000C770B8FE790E084
:100BD0000E94698060911807062E000C770B82E056
:100BE00090E00E9469808091080690910906039721
:100BF000D9F460911807062E000C770B85E290E07F
:100C00000E94698060911807062E000C770B86E21F
:100C100090E00E94698060911807062E000C770B07
:100C200087E290E00E946980809108069091090611
:100C30000297029748F460911807062E000C770B74
:100C400083E290E00E9469808091080690910906F5
:100C5000029791F460911807062E000C770B83E041
:100C600090E00E94698060911807062E000C770BB7
:100C700081E090E00E9469808091080690910906C9
:100C80000497029708F0C6C060911807062E000C62
:100C9000770B80E691E00E94698060911807062E2C
:100CA000000C770B80911502681B710982E190E0BE
:100CB0000E94698060911807062E000C770B8091C6
:100CC0001502681B710983E190E00E9469806091C0
:100CD0001807062E000C770B80911502681B71090E
:100CE00084E190E00E94698060911807062E000C54
:100CF000770B80911502681B710985E190E00E94D5
:100D0000698060911807062E000C770B8091150200
:100D1000681B710986E190E00E9469806091180764
:100D2000062E000C770B8FE090E00E9469806091A6
:100D30001807062E000C770B80E190E00E94698076
:100D400060911807062E000C770B8CE591E00E944D
:100D5000698060911807062E000C770B80E991E0FE
:100D60000E94698060911807062E000C770B645171
:100D700071098DE890E00E94698060911807062E45
:100D8000000C770B645171098FE890E00E94698034
:100D900060911807062E000C770B6451710983E9E6
:100DA00090E00E94698060911807062E000C770B76
:100DB000645171098EE890E00E9469806091180783
:100DC000062E000C770B6451710980E990E00E94B7
:100DD000698060911807062E000C770B6451710929
:100DE00082E990E00E94698060911807062E000C4D
:100DF000770B6451710984E990E00E9469806091E9
:100E00001807062E000C770B6451710981E990E0F8
:100E10000E9469808091CE03882349F06091180771
:100E2000062E000C770B8EE491E00E946980809181
:100E30007E0490917F04019749F460911807062E73
:100E4000000C770B82E390E00E94698080917E0421
:100E500090917F04029749F460911807062E000CC8
:100E6000770B87E390E00E94698080917E049091E7
:100E70007F04039749F460911807062E000C770B46
:100E800087E491E00E94698087E20C941C4EFF92F7
:100E90000F931F93CF93DF93EC01F62E08811981F6
:100EA000C8010E9454A6F81621F06F2DC8010E94B7
:100EB0005CA6CE01DF91CF911F910F91FF90089515
:100EC0000E943D610E94876510921F0C1092200CB9
:100ED0001092CC031092CB031092970310929603BA
:100EE0001092C30381E0809307020E9461570E9421
:100EF0009C5380910806909109060297029708F486
:100F00004EC0809144028093481586E990E090930A
:100F100003028093020210924615109247154091E9
:100F2000481550E070E060E08EE395E10E94819307
:100F30001092060D1092070D40910202509103028B
:100F400070E060E08EEF9CE00E948193409111027E
:100F500050E070E060E088E295E10E9481934CE20D
:100F600051E060E070E088E29DE00E9481930E9481
:100F7000E850109298038091D103882321F01092B9
:100F8000D1030E94315780912104882379F0109277
:100F9000210489E00E94184E8FE20C94D74F809173
:100FA0002F028093481588E592E0B1CF0895809193
:100FB0002302882349F081E02091E20C3091E30C78
:100FC000232B19F080E0089581E008950F931F937B
:100FD000CF93DF9300D000D0CDB7DEB78FEF9FEF78
:100FE000DC0189839A83AB83BC8310E000E01E831D
:100FF0000D83BE016B5F7F4FCE0101960E949493DB
:10100000BE016A5F7F4FCE0101960E9494930F5FED
:101010001F4F0732110559F78AE190E09E838D83B7
:10102000BE016B5F7F4FCE0101960E949493BE017B
:101030006A5F7F4FCE0101960E9494938DE090E00D
:101040009E838D83BE016B5F7F4FCE0101960E9410
:101050009493BE016A5F7F4FCE0101960E949493E4
:1010600069817A818B819C8160957095809590953E
:1010700026960FB6F894DEBF0FBECDBFDF91CF919D
:101080001F910F910895EF92FF920F931F93CF93AB
:10109000DF9300D000D0CDB7DEB70E94E6076983AA
:1010A0007A838B839C83CE0101967C010CEF1FE039
:1010B0001E830D83F70161917F01CE0105960E9489
:1010C00047070F5F1F4F0115F0E11F0789F72696AD
:1010D0000FB6F894DEBF0FBECDBFDF91CF911F9149
:1010E0000F91FF90EF9008952F923F924F925F9251
:1010F0006F927F928F929F92AF92BF92CF92DF9228
:10110000EF92FF920F931F93CF93DF93CDB7DEB78C
:101110006D970FB6F894DEBF0FBECDBF30907A0446
:10112000809120029091210228EE33E0B9010E94C3
:101130002EAAC62E80911E0290911F02B9010E9414
:101140002EAAD62E80911C0290911D02B9010E94F8
:101150002EAAE62E80911A0290911B02B9010E94DC
:101160002EAAF62E8091180290911902B9010E94C0
:101170002EAA662E80912B0277247394882311F077
:10118000F2E07F2E80912A0299249394882311F013
:10119000E2E09E2E8091290288248394882311F016
:1011A00072E0872E80912802AA24A394882311F04C
:1011B00062E0A62E80912702BB24B394882311F00D
:1011C00052E0B52E8091260261E0811162E08091AB
:1011D0006C0401E0811102E080918004909181040F
:1011E00012E0019709F011E080912502B2E081112F
:1011F00001C0B1E080912402A2E0811101C0A1E010
:101200008091730442E0242E811102C02224239491
:101210008091230232E0432E811102C04424439482
:1012200080912202811181C032E03D8F80913D0288
:10123000853608F07DC0882309F47CC090913E0279
:1012400072E0911101C071E090913F0252E0911162
:1012500001C051E09091400242E0911101C041E093
:1012600090914102992309F467C092E020914202D3
:1012700055245394222311F022E0522E2091780419
:1012800030917904215031092330310508F056C0DE
:1012900029593D4FF901208179828A829B82AC8253
:1012A000BD826E830F8338861987BA87AB872C86F9
:1012B000FD8DFD878E87CF86D88AE98AFA8A6B8A68
:1012C0007C8B5D8B4E8B9F8B588E298F4A8ECE01E7
:1012D00001967C010DE010E01C8F0B8FF7016191EE
:1012E0007F01CE014B960E9447070F5F1F4F0732C9
:1012F000110591F70E9443086D960FB6F894DEBF72
:101300000FBECDBFDF91CF911F910F91FF90EF9056
:10131000DF90CF90BF90AF909F908F907F906F9015
:101320005F904F903F902F90089581E08D8F7ECFFA
:1013300084E684CF81E082CF91E098CF24E0ACCFE7
:101340000F931F93CF93DF931F921F92CDB7DEB7FA
:101350000DE010E01A83098360E0CE0101960E943F
:1013600047070F5F1F4F07321105A1F70E9443087F
:101370000F900F90DF91CF911F910F910895EF92F1
:10138000FF920F931F93CF93DF93CDB7DEB72F97C5
:101390000FB6F894DEBF0FBECDBF80916D0422E082
:1013A000811101C021E08091740490917504813015
:1013B000910529F0029709F44CC082E001C083E056
:1013C00090916E04992309F446C092E03091460250
:1013D0003983309145023A8330912E023B832C832E
:1013E000209139022D83209137022E8320913502DE
:1013F0002F8320913A022887209138022987209153
:1014000036022A8720916F042B878C879D87CE0117
:1014100001967C0110E000E01F870E87F7016191C3
:101420007F01CE010E960E9447070F5F1F4F0D30C0
:10143000110591F70E9443082F960FB6F894DEBF6E
:101440000FBECDBFDF91CF911F910F91FF90EF9015
:10145000089584E0B5CF91E0B9CF0F931F93CF9358
:10146000DF931F921F92CDB7DEB710E000E01A8322
:10147000098360E0CE0101960E9447070F5F1F4F6E
:101480000D301105A1F70E9443080F900F90DF91D6
:10149000CF911F910F9108958091000690910106C0
:1014A0000197029738F480911A07082E000C990BC7
:1014B0000C94237E08958091000690910106019777
:1014C000029798F48091670490916804892B59F0F1
:1014D0008091650490916604843F21E0920718F0A2
:1014E00064E00E94F57D0E94E08010921D0410923D
:1014F0001E04609165047091660482E40E94B14FFD
:1015000084E40C94D74F8091670490916804892BF0
:1015100009F445C08091650490916604843F21E000
:101520009207E8F121E020931E04209100063091FB
:1015300001062150310922303105F8F42091810350
:1015400065E0211101C066E00E94F57D60911707FA
:10155000062E000C770B80916504909166040E9422
:10156000698061E080916504909166040E943A80F0
:101570000E94E08081E08093690640E25EE460E0E2
:1015800070E08BE197E00E94819360916504709117
:10159000660481E40E94B14F84E40C94D74F08950F
:1015A000CF93DF93C0916504D09166042197C43F27
:1015B00081E0D80730F4C0916704D0916804CD5021
:1015C000DE4F80911E04882351F00E945B0AD09365
:1015D0006604C0936504DF91CF910C94830AD09385
:1015E0006604C093650482E4DF91CF910C94D74FD9
:1015F000CF93DF93C0916504D091660421968091CA
:101600006704909168048D509E4F8C179D0710F4CD
:10161000C4EFD1E080911E04882351F00E945B0A40
:10162000D0936604C0936504DF91CF910C94830A34
:10163000D0936604C093650482E4DF91CF910C944B
:10164000D74F2091000630910106215031092230F8
:10165000310518F464E00C94F57D0895CF92DF9283
:10166000EF92FF920F931F93CF93DF936C01F62EAF
:1016700080910006909101068230910549F54B302A
:101680001CF14AE0C42F440FDD0B222361F16AEB09
:101690007FEFC6010E9469806E2DC6010E943A80CC
:1016A000A801BE01C6010E94978065E0F11001C04B
:1016B00066E0C601DF91CF911F910F91FF90EF90EF
:1016C000DF90CF900C94F57D4A3BE4F64AEBDACFFD
:1016D0000197C1F2DF91CF911F910F91FF90EF9091
:1016E000DF90CF900895BE01C6010E9469806E2DE3
:1016F000C6010E943A80D9CFEF920F931F93CF93E8
:10170000C82F81E090E09093200480931F041092F2
:101710007204109271040E94D707811121C0809138
:101720000806909109060297029770F440E050E095
:10173000BA0188E295E10E94819340E050E0BA014D
:101740008AEE9CE00E9481930E94CC5388E00E9424
:10175000184E8EE2CF911F910F91EF900C94D74FBE
:10176000C11106C089E00E94184E8FE20E94D74F37
:101770008BE490E00E94210B8EE790E00E94210B09
:101780008FE790E00E94210B8CE591E00E94210BF5
:1017900080E991E00E94210B809108069091090652
:1017A00083309105D9F18530910509F4B1C00297D4
:1017B00009F049C0EE24E39410E000E020E04091FD
:1017C000180760E08BE791E00E942E0B08ED1EE009
:1017D00021E04091180761E08CE791E00E942E0B18
:1017E00080917E0490917F048230910509F4E3C0DA
:1017F0008330910509F4E9C0019759F4EE24E3948C
:1018000004E813E021E040E061E082E390E00E9420
:101810002E0BCF911F910F91EF900895EE24E3943A
:1018200010E000E020E04091180760E085E290E0E1
:101830000E942E0B08ED1EE021E04091180761E0A8
:1018400086E290E0CBCF80917E0490917F0440911E
:101850001807CC2389F10197F9F44E51EE24E39453
:1018600010E000E020E060E08FE090E00E942E0BAE
:1018700040911807485200E516E421E061E080E15C
:1018800090E00E942E0B40E556E460E070E08BE7AC
:1018900097E00E948193A4CFEE24E39410E000E04F
:1018A00020E060E08FE090E00E942E0B00E516E45F
:1018B00021E040911807E2CF0197D1F44E51EE2478
:1018C000E39410E000E020E060E081E090E00E941E
:1018D0002E0B40911807485204EF11E021E061E01F
:1018E00080E190E00E942E0B40E050E0BA01CFCFA3
:1018F000EE24E39410E000E020E060E081E090E07E
:101900000E942E0B04EF11E021E040911807E7CF71
:101910004091180780917E0490917F040197D9F53A
:101920004E51EE24E39410E000E020E060E081E01E
:1019300090E00E942E0B40911807485204EF11E0EE
:1019400021E061E085E991E00E942E0B809108067C
:1019500090910906059741F68091120281110BC002
:1019600080917E0490917F04009711F0069719F4FE
:1019700081E08093CE038091CE03882309F4B4CF15
:10198000EE24E39400ED17E021E04091180761E0B8
:101990008EE491E0A7CFEE24E39410E000E020E095
:1019A00060E081E090E00E942E0B04EF11E021E066
:1019B00040911807C6CFEE24E39404E813E021E039
:1019C00040E061E087E390E022CFEE24E39404E876
:1019D00013E021E040E061E087E491E018CFEF926E
:1019E0000F931F9380911A078A3B21F180913D024A
:1019F0008530F0F510923D0280913D022CE3829FEC
:101A0000C001112464E670E00E9442AA84EC860FB3
:101A100080931A07809316072091000630910106E3
:101A2000215031092230310528F4082E000C990B81
:101A30000E94237E80911C04811114C08091D103E7
:101A4000811110C080E490E00E94210BEE24E39409
:101A500010E000E020E040911A0760E080E490E0B0
:101A60000E942E0B87E21F910F91EF900C941C4E59
:101A7000855080933D02C0CFEF920F931F938091CA
:101A80003D028036F0F184E680933D0280913D0274
:101A90002CE3829FC001112464E670E00E9442AAF8
:101AA0006C5360931A076093160780911C04811190
:101AB00014C08091D103811110C080E490E00E9495
:101AC000210BEE24E39410E000E020E040911A079F
:101AD00060E080E490E00E942E0B809100069091DF
:101AE00001060197029738F480911A07082E000C1E
:101AF000990B0E94237E87E21F910F91EF900C9427
:101B00001C4E8B5FC1CFEF920F931F9380913B02CE
:101B1000853038F510923B0280E490E00E94210B62
:101B200040911A0780911502481BEE24E39410E0BF
:101B300000E020E060E080E490E00E942E0B8091C5
:101B40003B022CE3829FC001112464E670E00E94F6
:101B500042AA6C53609317071F910F91EF900C945A
:101B60007F05855080933B02EACFEF920F931F933E
:101B700080913B02803640F184E680933B0280E412
:101B800090E00E94210B40911A0780911502481B9A
:101B9000EE24E39410E000E020E060E080E490E0D8
:101BA0000E942E0B80913B022CE3829FC0011124E6
:101BB00064E670E00E9442AA6C53609317071F917D
:101BC0000F91EF900C947F058B5F80933B02EACFDF
:101BD000EF920F931F9380913C02853038F510925D
:101BE0003C0280E490E00E94210B40911A07809112
:101BF0001502481BEE24E39410E000E020E060E0D2
:101C000080E490E00E942E0B80913C022CE3829FA6
:101C1000C001112464E670E00E9442AA6C536093F4
:101C200018071F910F91EF900C949A05855080939F
:101C30003C02EACFEF920F931F9380913C028036D3
:101C400028F184E680933C0280E490E00E94210B1E
:101C5000EE24E39410E000E020E04091180760E0FB
:101C600080E490E00E942E0B80913C022CE3829F46
:101C7000C001112464E670E00E9442AA6C53609394
:101C800018071F910F91EF900C949A058B5F80932A
:101C90003C02EACF0F931F93CF93DF9300D000D085
:101CA000CDB7DEB7122F202F0E94217F69837A8360
:101CB0008B83BE016C5F7F4FCE0101960E944992DB
:101CC0006D817C81111102C06C817D818E8126968F
:101CD0000FB6F894DEBF0FBECDBFDF91CF911F913D
:101CE0000F9108952F923F924F925F926F927F9241
:101CF0008F929F92AF92BF92CF92DF92EF92FF921C
:101D00000F931F93CF93DF93CDB7DEB72C970FB60A
:101D1000F894DEBF0FBECDBF80E00E944A5D1091F7
:101D20003D15180F81E00E944A5D90913D15890F85
:101D30008B8382E00E944A5D90913D15890F8D83CF
:101D400083E00E944A5D90913D15890F8F838091B9
:101D50005415835089879091460280919303891787
:101D600008F067C181E797E00E945193882309F446
:101D700060C180914602209193032983E22FF0E015
:101D800090916E04992309F41FC18D3009F019C197
:101D9000E158F84FE491F0E07F01EE0CFF1CEE0DEE
:101DA000FF1DAF014E5B5A4F7A0100E020E04FEF7C
:101DB00064E180E00E944A0EF701608371838283B0
:101DC000212F30E0FB818F2E912C4D81A42EB12C40
:101DD0005F81C52ED12C8985E82EF12C898165E0A3
:101DE0000E9422AAF901EE0FFF1FFC87EB87340146
:101DF000660C771C2501440C551C1601220C331C63
:101E0000A701440F551F5A834983911149C2E20F1C
:101E1000F31FEE5BFA4FFC87EB8720E04FEF81E08A
:101E20000E944A0EEB85FC85608371838283930157
:101E3000280D391D2E5B3A4F3C872B8720E04FEF52
:101E400065E081E00E944A0EEB85FC85608371832A
:101E5000828392012A0D3B1D2E5B3A4F3C872B87D4
:101E600020E04FEF65E081E00E944A0EEB85FC85A3
:101E700060837183828391012C0D3D1D2E5B3A4F4F
:101E80003C872B8720E04FEF65E081E00E944A0EFF
:101E9000EB85FC8560837183828329813A812E0DD5
:101EA0003F1D2E5B3A4F3A83298320E04FEF61E0DC
:101EB00081E00E944A0EE981FA8160837183828306
:101EC0008091740490917504892B09F485C020E0F9
:101ED0004FEF65E084E00E944A0E609382047093A5
:101EE00083048093840420E04FEF65E084E00E9447
:101EF0004A0E60938504709386048093870420E0E3
:101F00004FEF6BE084E00E944A0E60938804709368
:101F1000890480938A0420E04FEF6BE084E00E9404
:101F20004A0E60938B0470938C0480938D0420E0A0
:101F30004FEF6FE084E00E944A0E60938E0470932E
:101F40008F048093900420E04FEF6FE084E00E94C4
:101F50004A0E609391047093920480939304F091DD
:101F600043022F2F2150330BC901880F991F280FCF
:101F7000391F2E573B4F3A83298320E04FEF6FE004
:101F800084E00E944A0EE981FA8160837183828332
:101F9000F09143022F2F30E0C901880F991F280FBD
:101FA000391F2E573B4F3A83298320E04FEF6BE0D8
:101FB00084E00E944A0EE981FA8160837183828302
:101FC00023C0E059F84FE6CE8D3019F4ED59F84FA3
:101FD000E1CEEC5AF84FDECEA59A739A80910201B9
:101FE00088608093020180910201806180930201E8
:101FF00080910201806280930201809102018064DD
:10200000809302012C9A2D9A809193038F5F809385
:10201000930390914602891330C21092790710926F
:102020007A074EE150E060E070E087E697E00E94BA
:1020300081939091920380914602981708F05CC2B8
:1020400087E697E00E945193882309F455C2809156
:102050004602F0919203F983EF2FF0E090916E0425
:10206000992309F414C28D3009F00EC2E158F84FDB
:10207000E4918150990B8E1B91097C01EE0CFF1CA1
:102080008E0D9F1D9C012E5B3A4F790100E020E0F0
:102090004FEF60E080E00E944A0EF7016083718399
:1020A0008283212F30E0FB818F2E912C4D81A42E35
:1020B000B12C5F81C52ED12C8985E82EF12C898128
:1020C00065E00E9422AAF901EE0FFF1FFC87EB8753
:1020D0003401660C771C2501440C551C1601220C9A
:1020E000331CA701440F551F5A8349839111F8C32C
:1020F000E20FF31FEE5BFA4FFC87EB8720E04FEF18
:1021000081E00E944A0EEB85FC85608371838283A7
:102110009301280D391D2E5B3A4F3C872B8720E019
:102120004FEF65E081E00E944A0EEB85FC856083FD
:102130007183828392012A0D3B1D2E5B3A4F3C87AF
:102140002B8720E04FEF65E081E00E944A0EEB858F
:10215000FC8560837183828391012C0D3D1D2E5B74
:102160003A4F3C872B8720E04FEF65E081E00E94EB
:102170004A0EEB85FC8560837183828329813A81D5
:102180002E0D3F1D2E5B3A4F3A83298320E04FEFFF
:1021900061E081E00E944A0EE981FA8160837183E7
:1021A00082838091740490917504892B09F477C11E
:1021B00020E04FEF65E084E00E944A0E60938204C5
:1021C000709383048093840420E04FEF65E084E003
:1021D0000E944A0E6093850470938604809387045E
:1021E00020E04FEF6BE084E00E944A0E6093880489
:1021F0007093890480938A0420E04FEF6BE084E0C1
:102200000E944A0E60938B0470938C0480938D041B
:1022100020E04FEF6FE084E00E944A0E60938E044E
:1022200070938F048093900420E04FEF6FE084E080
:102230000E944A0E609391047093920480939304D9
:10224000809143028150990B9C01220F331F280F6C
:10225000391F2E573B4F3A83298320E04FEF6FE021
:1022600084E00E944A0EE981FA816083718382834F
:102270008091430290E09C01220F331F280F391FE9
:102280002E573B4F3A83298320E04FEF6BE084E0E9
:102290000E944A0EE981FA8160837183828317C1AB
:1022A0004B855C85420F531F4E5B5A4F5C874B87B3
:1022B00000E020E04FEF60E081E00E944A0EEB85F5
:1022C000FC856083718382839301280D391D2E5B09
:1022D0003A4F3C872B8720E04FEF60E081E00E947F
:1022E0004A0EEB85FC8560837183828392012A0DFF
:1022F0003B1D2E5B3A4F3C872B8720E04FEF60E081
:1023000081E00E944A0EEB85FC85608371838283A5
:1023100091012C0D3D1D2E5B3A4F3C872B8720E011
:102320004FEF60E081E00E944A0EEB85FC85608300
:102330007183828329813A812E0D3F1D2E5B3A4F96
:102340003A83298320E04FEF60E081E00E944A0E4B
:10235000E981FA8160837183828380917404909112
:102360007504892B09F470C020E04FEF60E084E031
:102370000E944A0E609382047093830480938404C5
:1023800020E04FEF60E084E00E944A0E60938504F5
:10239000709386048093870420E04FEF60E084E030
:1023A0000E944A0E609388047093890480938A0483
:1023B00020E04FEF60E084E00E944A0E60938B04BF
:1023C00070938C0480938D0420E04FEF60E084E0F4
:1023D0000E944A0E60938E0470938F048093900441
:1023E00020E04FEF60E084E00E944A0E6093910489
:1023F0007093920480939304809143028150990BCF
:102400009C01220F331F280F391F2E573B4F3A8351
:10241000298320E04FEF60E084E00E944A0EE981CA
:10242000FA816083718382838091430290E09C01F2
:10243000220F331F280F391F2E573B4F3A83298312
:1024400020E04FEF60E0B4CDA59873988091020131
:10245000877F80930201809102018F7E8093020129
:10246000809102018F7D80930201809102018F7B18
:10247000809302012C982D98C7CD4EE150E060E08A
:1024800070E081E797E0D3CDE059F84FF1CD8D3082
:1024900019F4ED59F84FECCDEC5AF84FE9CDA59A67
:1024A000739A8091020188608093020180910201F9
:1024B0008061809302018091020180628093020119
:1024C000809102018064809302012C9A2D9A809160
:1024D00092038F5F80939203909146028913EDC21D
:1024E00010926F07109270074EE150E060E070E0CC
:1024F0008DE597E00E94819380910002882309F482
:10250000D6C18DE597E00E945193882309F4CFC18D
:1025100090900002C12ED12C9601220F331F3A83D6
:1025200029832C0D3D1D2E5B3A4F3C872B8700E005
:1025300020E0492D65E081E00E944A0EEB85FC8594
:10254000608371838283FB81EF2EF12C9701220F30
:10255000331F3C832B832E0D3F1D2E5B3A4F3C8750
:102560002B8720E0492D65E081E00E944A0EEB8533
:10257000FC856083718382833D81232F30E03C871B
:102580002B87220F331F3E832D83C9014B855C852A
:10259000840F951FFC01EE5BFA4F5F0120E0492D8F
:1025A00065E081E00E944A0EF501608371838283B9
:1025B000FF816F2E712C9301220F331F38872F83D9
:1025C000C901860D971DAC014E5B5A4F5A0120E0A0
:1025D000492D65E081E00E944A0EF5016083718318
:1025E0008283F9854F2E512C9201220F331F3A8797
:1025F0002987C901840D951DAC014E5B5A4F5A01C4
:1026000020E0492D61E081E00E944A0EF5016083DF
:10261000718382838091740490917504892B09F4ED
:1026200075C020E0492D65E084E00E944A0E609369
:102630008204709383048093840420E0492D65E034
:1026400084E00E944A0E6093850470938604809310
:10265000870420E0492D6BE084E00E944A0E6093DD
:1026600088047093890480938A0420E0492D6BE0EC
:1026700084E00E944A0E60938B0470938C048093D4
:102680008D0420E0492D6FE084E00E944A0E6093A3
:102690008E0470938F048093900420E0492D6FE0A6
:1026A00084E00E944A0E6093910470939204809398
:1026B0009304809143028150990B5C01AA0CBB1CCE
:1026C0008A0D9B1D9C012E573B4F590120E0492D3F
:1026D0006FE084E00E944A0EF5016083718382837B
:1026E000A0904302B12CC501880F991FA80EB91EF6
:1026F00095012E573B4F590120E0492D6BE084E0B6
:102700000E944A0EF50160837183828380912E02BC
:10271000893108F0D9C1873108F0D9C165E18C3021
:1027200009F067E010910B0D80912902882309F4CC
:10273000D0C18FEF90E08919910970E00E9442AA00
:10274000160F80910A0D8117C8F0A12EB12C80912F
:102750006D041501220C331C882309F4BFC100E06D
:1027600021E04FEF65E082E00E944A0EF101EA0DA0
:10277000FB1DEE57FB4F608371838283809129029A
:10278000882309F4BAC180910B0D8117E8F4212F39
:102790002150330BB90180910A0D82171306A4F062
:1027A0005901AA0CBB1CA60EB71EA5014E575B4FC4
:1027B0005A0100E020E04FEF60E082E00E944A0E04
:1027C000F5016083718382839A9490920002911044
:1027D000A8C1109265071092660729813A81C20E3E
:1027E000D31EA6014E5B5A4F6A0100E020E04FEF76
:1027F00060E081E00E944A0EF6016083718382836B
:102800002B813C81E20EF31EA7014E5B5A4F7A01E9
:1028100020E04FEF60E081E00E944A0EF701608304
:10282000718382832B853C854D815E81240F351F0A
:102830002E5B3A4F3A83298320E04FEF60E081E03E
:102840000E944A0EE981FA816083718382832F811D
:102850003885260D371D2E5B3A4F3A83298320E0B9
:102860004FEF60E081E00E944A0EE981FA816083C7
:102870007183828329853A85240D351D2E5B3A4F5D
:102880003A83298320E04FEF60E081E00E944A0E06
:10289000E981FA816083718382830E9487650E9447
:1028A0000D5788E60E94184E81E0809370042C96A4
:1028B0000FB6F894DEBF0FBECDBFDF91CF911F9151
:1028C0000F91FF90EF90DF90CF90BF90AF909F90CF
:1028D0008F907F906F905F904F903F902F900895D2
:1028E0004B855C85420F531F4E5B5A4F5C874B876D
:1028F00000E020E04FEF60E081E00E944A0EEB85AF
:10290000FC856083718382839301280D391D2E5BC2
:102910003A4F3C872B8720E04FEF60E081E00E9438
:102920004A0EEB85FC8560837183828392012A0DB8
:102930003B1D2E5B3A4F3C872B8720E04FEF60E03A
:1029400081E00E944A0EEB85FC856083718382835F
:1029500091012C0D3D1D2E5B3A4F3C872B8720E0CB
:102960004FEF60E081E00E944A0EEB85FC856083BA
:102970007183828329813A812E0D3F1D2E5B3A4F50
:102980003A83298320E04FEF60E081E00E944A0E05
:10299000E981FA81608371838283809174049091CC
:1029A0007504892B09F470C020E04FEF60E084E0EB
:1029B0000E944A0E6093820470938304809384047F
:1029C00020E04FEF60E084E00E944A0E60938504AF
:1029D000709386048093870420E04FEF60E084E0EA
:1029E0000E944A0E609388047093890480938A043D
:1029F00020E04FEF60E084E00E944A0E60938B0479
:102A000070938C0480938D0420E04FEF60E084E0AD
:102A10000E944A0E60938E0470938F0480939004FA
:102A200020E04FEF60E084E00E944A0E6093910442
:102A30007093920480939304809143028150990B88
:102A40009C01220F331F280F391F2E573B4F3A830B
:102A5000298320E04FEF60E084E00E944A0EE98184
:102A6000FA816083718382838091430290E09C01AC
:102A7000220F331F280F391F2E573B4F3A832983CC
:102A800020E04FEF60E003CCA5987398809102019D
:102A9000877F80930201809102018F7E80930201E3
:102AA000809102018F7D80930201809102018F7BD2
:102AB000809302012C982D980ACD4EE150E060E001
:102AC00070E087E697E016CD8A3109F02ACE69E0FA
:102AD00029CE892D0E9422AA180F33CEA20CB31C36
:102AE00095012E573B4F590100E020E04FEF65E084
:102AF00082E00E944A0EF5013ECE80910A0D181721
:102B000008F062CEA12EB12CFFEFAF1ABF0AC501AB
:102B1000880F991FA80EB91E95012E573B4F5901DA
:102B200048CE45E050E060E070E08DE597E02C96FF
:102B30000FB6F894DEBF0FBECDBFDF91CF911F91CE
:102B40000F91FF90EF90DF90CF90BF90AF909F904C
:102B50008F907F906F905F904F903F902F900C944C
:102B600081932F923F924F925F926F927F928F92BA
:102B70009F92AF92BF92CF92DF92EF92FF920F930C
:102B80001F93CF93DF93CDB7DEB7C758D1090FB6E8
:102B9000F894DEBF0FBECDBF809100069091010674
:102BA0000197029710F40E94E08085EE96E00E9463
:102BB0005193882309F46CC280916404882309F43A
:102BC00067C281E090E00E94BA83BC01990F880B34
:102BD000990B0E9437A520E030E543EC57E40E94B2
:102BE0004FA76093B3067093B4068093B506909395
:102BF000B60684E090E00E94BA83BC01990F880B6E
:102C0000990B0E9437A59B01AC016091FE06709163
:102C1000FF0680910007909101070E9496A560939E
:102C2000B7067093B8068093B9069093BA0682E00F
:102C300090E00E94BA83BC01817080930B0761FB16
:102C4000882780F980930A0713E0769567951A958F
:102C5000E1F790E080E00E9435A52FE632E143E8FD
:102C60005BE30E9496A56093BB067093BC068093BD
:102C7000BD069093BE0683E090E00E94BA83BC013B
:102C8000990F880B990B0E9437A59B01AC016091AD
:102C900002077091030780910407909105070E9435
:102CA00096A56093C3067093C4068093C50690935F
:102CB000C6062091B3063091B4064091B5065091F6
:102CC000B6066091BB067091BC068091BD069091DE
:102CD000BE060E94DEA66093BF067093C006809376
:102CE000C1069093C2062091B7063091B806409174
:102CF000B9065091BA060E9496A56B017C01C0925C
:102D0000CB06D092CC06E092CD06F092CE062DEC0A
:102D10003CEC4CE45FE36091CF067091D00680916B
:102D2000D1069091D2060E9496A54B015C012DEC34
:102D30003CEC4CE45EE3C701B6010E9496A59B0102
:102D4000AC01C501B4010E94DEA66093CF0670936A
:102D5000D0068093D1069093D2060E942C876B01F7
:102D60007C018091DD069091DE06A091DF06B09196
:102D7000E006A7019601281B390B4A0B5B0BCA0121
:102D8000B9016093E1067093E2068093E3069093A5
:102D9000E4060E9435A52091B7063091B80640910F
:102DA000B9065091BA060E9496A520E03AEB4BE591
:102DB0005AE40E944FA72091C7063091C80640915F
:102DC000C9065091CA060E94DEA66093C70670939A
:102DD000C8068093C9069093CA06C092DD06D092B9
:102DE000DE06E092DF06F092E0066091080770913F
:102DF000090785E090E00E941E82609106077091AD
:102E0000070790E080E00E941E8280915B0390E0C3
:102E1000019664E170E00E9442AA80935B03809176
:102E200022048111BAC1809199038111B6C1C09069
:102E3000CF06D090D006E090D106F090D2060E9446
:102E40002C87CC57DF4F688379838A839B83C45850
:102E5000D0404090D3065090D4066090D506709034
:102E6000D60629E23CE54FE85EE3C301B2010E94C9
:102E7000DDA64B015C012DEC3CEC4CE45EE3C301B0
:102E8000B2010E94DEA62B013C01A5019401C701FD
:102E9000B6010E9430A587FD09C0A3019201C701B8
:102EA000B6010E942FA818160CF06EC18091D906A9
:102EB0009091DA06A091DB06B091DC06892B8A2B73
:102EC0008B2B81F4CC57DF4F88819981AA81BB81FC
:102ED000C458D0408093D9069093DA06A093DB06BD
:102EE000B093DC068091D9069091DA06A091DB06BA
:102EF000B091DC06CC57DF4F288139814A815B8154
:102F0000C458D040281B390B4A0B5B0BDA01C901AE
:102F100080359105A105B10508F46AC0C092D306B9
:102F2000D092D406E092D506F092D60626E636E692
:102F300046E25FE3C701B6010E942FA81816FCF411
:102F400011E01093690380911F0490912004019770
:102F5000D1F080E00E947C0B10935A038EE10E9416
:102F6000D74F89E00E94D74F80E30E94D74F48EEA9
:102F700053E060E070E08FEE96E00E9481938091D4
:102F800069038823A9F180911F0490912004892B63
:102F900079F1A3019201C701B6010E942FA818166A
:102FA000ACF48091CD0381110C942C478FEE96E008
:102FB0000E940B93672B682B692B41F485E080936B
:102FC000130281E08093C7030E949196A5019401AA
:102FD000C701B6010E9430A587FF0AC08091CD03CA
:102FE000882311F40C9438470E942B520E94E05021
:102FF00026E636E646E25FE3C701B6010E9430A549
:1030000018165CF18091CD03882321F00E942B5289
:103010000E94E0501092690380911F049091200457
:10302000892B59F010925A0381E090E0909372043A
:103030008093710481E30E94D74F1092D9061092B9
:10304000DA061092DB061092DC06C092D306D0920C
:10305000D406E092D506F092D60680915B038111EA
:103060000DC020E030E048EC52E4C701B6010E94F8
:1030700096A50E94C1A787E40E94B14F4091D70650
:103080005091D80670E060E085EE96E00E94819352
:1030900089EA96E00E945193882309F443C08EE5A3
:1030A00080937C0080917A00806480937A00809184
:1030B0007A0086FDFCCF209178003091790050E0B5
:1030C00040E065EA77E681E190E00E949CA6CA01B3
:1030D000B9016B5F7F4F8F4F9F4F2AE030E040E098
:1030E00050E00E949CA6CA01B9010E9437A56093D6
:1030F0007F067093800680938106909382062091CC
:103100002304222329F00E94C1A786E40E94B14F24
:1031100040919B0650919C0670E060E089EA96E041
:103120000E94819389E997E00E94008C882321F115
:103130001091A709112301F18091010C882391F0CE
:1031400080912204882311F40C9446474091F90B96
:103150005091FA0B6091FB0B7091FC0B89EF9BE097
:103160000E948193123011F40C94F83808F044C096
:10317000113011F40C944E4780912204882311F4ED
:103180000C947B470C9416391092D9061092DA06EB
:103190001092DB061092DC062BCF1092D90610920B
:1031A000DA061092DB061092DC061092D30610921B
:1031B000D4061092D5061092D60680915A03882321
:1031C00009F45CCF80911F0490912004892B09F4AD
:1031D00055CF1092690310925A0381E090E09093CA
:1031E00072048093710481E30E94D74F8AE10E94A8
:1031F000D74F70E060E03FCF143011F40C944639A3
:10320000153009F0B9CF80912204882311F40C9471
:103210007B47A7E9B8E0E2EDF3E08D91819383E08D
:10322000E73EF807D1F78FE40E941C4EA5CF10921D
:103230002204109299031092010C1092020C0E9429
:103240008C510E94E581FF24F394F09299038CE85D
:1032500091E00E94210BEE24E39410E000E020E0D6
:103260004091180760E08CE891E00E942E0B60917D
:1032700070046F2570E083E00E94F24D8091CC03D2
:1032800081110E942A678091D003882351F0809198
:103290001C04811106C08091D103811102C00E94DB
:1032A000FB608091800490918104019709F070C0C7
:1032B00082E080936A0320917A0C30917B0C232B5F
:1032C00009F064C080936B0380911202882309F493
:1032D00063C082E080936C03809108069091090698
:1032E0008330910509F45AC08530910509F45AC01C
:1032F000029709F055C081E080936D0380918103AE
:10330000882309F451C082E08093750380913402D0
:10331000882309F44BC082E08093710380911F04DD
:1033200090912004892B09F443C082E080936E03BE
:103330008091130280936F0380917E0490917F04AB
:103340008330910509F490C0A8F581309105E1F131
:10335000029709F487C081E08093700310927F0484
:1033600010927E048091240281110E94979880918E
:103370002502882361F180911C04882341F181E0BA
:103380008093940380E00E94276021C081E09ACF5F
:1033900081E080936A0396CF81E09CCF82E0ACCF3E
:1033A00083E0AACF84E0A8CF81E0AECF81E0B4CFA4
:1033B00081E0BCCF8530910509F45AC008F456C0AD
:1033C000069749F688E001C082E0809370030E946E
:1033D000C36280911C04811102C010920702809187
:1033E0003D028093720380913C028093730380912D
:1033F0001A078A3B09F044C082E08093740384E09A
:103400008093170489E680931604E8E1F4E083E0F2
:10341000DF011D928A95E9F7EAE6F3E0A9E9B7E052
:1034200086E793E021912D938E179F07D9F78CE0C3
:1034300090E09A83898346E0BE016F5F7F4F89E900
:1034400097E00E94858C80912104882339F00E94A6
:10345000D707811103C088E00E94184E85E00E94C2
:10346000184E8ACE83E0B1CF84E0AFCF85E0ADCFF8
:1034700080916304811102C086E0A7CF87E0A5CFC9
:1034800081E0BBCF1092990381E08093220440E455
:103490005FE160E070E089EF9BE00E94819388E447
:1034A0000E94D74F69CE81E08093690380911F0409
:1034B00090912004019731F080E00E947C0B80E322
:1034C0000E94D74F85E00E94D74F56CE10926903D5
:1034D00080911F0490912004892B49F081E090E0B5
:1034E000909372048093710481E30E94D74F86E029
:1034F0000E94D74F84E10E94D74F3ECE81E0809357
:10350000140288E30E94D74F37CE1092140289E349
:103510000E94D74F31CE84E091E00E94210B85E0DC
:1035200091E00E94210BEE24E39410E000E020E003
:103530004091180760E084E091E00E942E0B1CCEC1
:1035400085E091E00E94210B84E091E00E94210B34
:10355000EE24E39410E000E020E04091180760E0E2
:1035600085E091E00E942E0B07CE87E391E00E9458
:10357000210B88E391E00E94210BEE24E39410E0FC
:1035800000E020E04091180760E088E391E00E94AD
:103590002E0BF2CD87E391E00E94210B88E391E0AE
:1035A0000E94210BEE24E39410E000E020E0409123
:1035B000180760E087E391E00E942E0BDDCD80913B
:1035C0002A028823E1F088E990E00E94210B87E934
:1035D00090E00E94210BEE24E39410E000E020E054
:1035E0004091180760E088E990E00E942E0B10924D
:1035F0002A028DE30E94184E0E94ED4FBDCD88E94E
:1036000090E00E94210B87E990E00E94210BEE24BC
:10361000E39410E000E020E04091180760E087E9C3
:1036200090E00E942E0B81E080932A028EE3E2CF8D
:1036300085E990E00E94210BEE24E39410E000E085
:1036400020E04091180760E085E990E00E942E0B91
:1036500093CD86E990E00E94210BEE24E39410E0E4
:1036600000E020E04091180760E086E990E00E94C9
:103670002E0B82CD8091CC0381117ECD4091180715
:1036800080911502481BEE24E39410E000E020E056
:1036900060E086E190E00E942E0B6ECD8091CC031D
:1036A00081116ACD809113028330D9F1A8F4813061
:1036B00041F1823009F060CD4091180780911502E8
:1036C000481BEE24E39410E000E020E061E083E199
:1036D00090E00E942E0B50CD843099F1853009F096
:1036E0004BCD4091180780911502481BEE24E394BE
:1036F00010E000E020E061E086E190E00E942E0B07
:103700003BCD4091180780911502481BEE24E394AD
:1037100010E000E020E061E082E190E00E942E0BEA
:103720002BCD4091180780911502481BEE24E3949D
:1037300010E000E020E061E084E190E00E942E0BC8
:103740001BCD4091180780911502481BEE24E3948D
:1037500010E000E020E061E085E190E00E942E0BA7
:103760000BCD0E94E58108CD66E082E190E00E94E9
:10377000F57D66E083E190E00E94F57D66E084E1FE
:1037800090E00E94F57D66E085E190E00E94F57D85
:1037900066E086E190E00E94F57DEECC80E490E06A
:1037A0000E94210BEE24E39410E000E020E0409121
:1037B000180760E080E490E00E942E0BDDCC8BEFD8
:1037C00090E00E94210BEE24E39410E000E020E062
:1037D0004091180760E08BEF90E00E942E0BCCCC5C
:1037E0008BEF90E00E94210BC7CC8CEF90E00E9401
:1037F000210BC2CC8CEF90E00E94210BEE24E394CD
:1038000010E000E020E04091180760E08CEF90E0CD
:103810000E942E0BB1CCE12C10E000E020E04091A2
:10382000180760E084E490E00E942E0BA5CCE12C08
:1038300010E000E020E04091180760E083E490E0B1
:103840000E942E0B20E04091180760E08FE390E08B
:103850000E942E0B91CC81E190E00E94210BEE247E
:10386000E39410E000E020E04091180760E081E17F
:1038700090E00E942E0B80CC8EE591E00E94210BFF
:10388000EE24E39410E000E020E04091180760E0AF
:103890008EE591E00E942E0B6FCC8CE491E00E94AB
:1038A000210B89E491E00E94210BEE24E39410E0C7
:1038B00000E020E04091180760E089E491E00E9478
:1038C0002E0B5ACC8CE491E00E94210BEE24E39461
:1038D00010E000E020E04091180760E08CE491E007
:1038E0000E942E0B49CC8CE491E00E94210B8DE4C8
:1038F00091E00E94210BEE24E39410E000E020E030
:103900004091180760E08DE491E00E942E0B34CCCA
:103910008DE891E00E94210BEE24E39410E000E09A
:1039200020E04091180760E08DE891E00E942E0BA6
:1039300023CC81EB90E00E94210BEE24E39410E075
:1039400000E020E04091180760E081EB90E00E94E9
:103950002E0B12CC86E991E00E94210BEE24E39419
:1039600010E000E020E04091180760E086E991E077
:103970000E942E0B01CC80E990E00E94210BFCCB31
:103980008DE890E00E94210B409118074451EE24ED
:10399000E39410E000E020E060E08DE890E00E9419
:1039A0002E0BEACB8FE890E00E94210B4091180784
:1039B0004451EE24E39410E000E020E060E08FE862
:1039C00090E00E942E0BD8CB83E990E00E94210B5F
:1039D000409118074451EE24E39410E000E020E009
:1039E00060E083E990E00E942E0BC6CB8EE890E069
:1039F0000E94210B409118074451EE24E39410E0FB
:103A000000E020E061E08EE890E00E942E0BB4CB55
:103A100080E990E00E94210B409118074451EE2468
:103A2000E39410E000E020E061E080E990E00E9493
:103A30002E0BA2CB82E990E00E94210B4091180747
:103A40004451EE24E39410E000E020E060E082E9DD
:103A500090E00E942E0B90CB84E990E00E94210B15
:103A6000409118074451EE24E39410E000E020E078
:103A700060E084E990E00E942E0B7ECB81E990E02B
:103A80000E94210B409118074451EE24E39410E06A
:103A900000E020E060E081E990E00E942E0B6CCB1A
:103AA0000E948C5169CBE12C10E000E020E04091B5
:103AB000180760E085E791E00E942E0B80911702C5
:103AC000882309F459CB80913402882309F454CB1C
:103AD0004EE551E060E070E084E49CE00E94819358
:103AE0004BCBE12C10E000E020E04091180760E0B3
:103AF0008AE591E00E942E0B80911702882309F439
:103B00003BCB80913402882309F436CB4CE251E060
:103B100060E070E084E49CE00E9481932DCBE12C76
:103B200010E000E020E04091180760E089E591E0B6
:103B30000E942E0B21CBE12C10E000E020E0409110
:103B4000180760E08BE591E00E942E0B8091170230
:103B5000882309F411CB80913402882309F40CCB1B
:103B600048EC50E060E070E084E49CE00E948193C7
:103B700003CBE12C10E000E020E04091180760E06A
:103B800086E491E00E942E0BF7CA0E949196F4CA37
:103B90008091CD03882309F4EFCA0E942B520E9422
:103BA000E050EACA80917E0490917F0481309105B3
:103BB00009F489C0029709F489C0809108069091A0
:103BC00009068330910509F45DC08530910509F43B
:103BD00077C0029709F061C080911302853009F423
:103BE0004EC08AE090E00E94210B87E490E00E94A2
:103BF000210B80E891E00E94210B89E490E00E9473
:103C0000210B8AE490E00E94210B81E08093CF0396
:103C10000E9410518091080690910906059709F0BD
:103C2000ABCA8091CE03882321F08EE491E00E94FC
:103C3000210B81E090E00E94210B85E991E00E9438
:103C4000210BEE24E39410E000E020E040911807FF
:103C500060E08FE891E00E942E0B04EC19E021E077
:103C60004091180761E087E390E00E942E0BA601C7
:103C700070E060E08FEE9BE00E9481937DCA88E84F
:103C800091E0B9CF8BE090E00E94210B87E490E0B7
:103C90000E94210B8AE090E0AECF81E891E00E9483
:103CA000210B82E891E00E94210B83E891E00E94C1
:103CB000210B8FE690E00E94210B8EE690E0A3CFCF
:103CC00082E891E0F4CF85E390E09DCF8BE390E034
:103CD0009ACF8091080690910906059709F44CCA7D
:103CE0000E941051EE24E39404EC19E021E040918D
:103CF000180761E08BE691E00E942E0B3DCA0E94FE
:103D000020513ACA8091000690910106019749F42A
:103D100080917E0490917F04039719F481E00E94C2
:103D20005FA40E94A85A8823D9F00E9461570E947C
:103D3000315780910806909109060497029780F404
:103D400044E650E0609118078FE090E00E94CB803D
:103D500044E650E06091180780E190E00E94CB803B
:103D600080911F04909120040197F1F480917E04CA
:103D700090917F04892BC1F082E390E00E94210B97
:103D800087E390E00E94210B87E491E00E94210BE1
:103D9000EE24E39410E000E020E04091180760E09A
:103DA00086E090E00E942E0B10927F0410927E0419
:103DB00080915D03882371F0EE24E39410E000E02D
:103DC00020E04091180760E088E290E00E942E0B0E
:103DD00010925D038091240281110E949798809136
:103DE0002502882351F080911C04882331F081E062
:103DF0008093940380E00E9427600E94C36289E060
:103E00000E94D74FB9C98091000690910106019791
:103E100049F480917E0490917F04039719F481E026
:103E20000E945FA480911F0490912004019709F0E3
:103E300040C080917E0490917F040197D1F182E38C
:103E400090E00E94210B87E390E00E94210B87E421
:103E500091E00E94210BEE24E39410E000E020E0CA
:103E60004091180760E080E390E00E942E0B0CEB7D
:103E700012E021E040E061E082E390E00E942E0B3E
:103E800080910806909109060497029790F460913A
:103E900018076E5144E650E08FE090E00E94CB801E
:103EA00060911807685244E650E080E190E00E947B
:103EB000CB8081E090E090937F0480937E0480919A
:103EC0005D03882371F0EE24E39410E000E020E02D
:103ED0004091180760E088E290E00E942E0B10925B
:103EE0005D0380912402882331F00E9461570E9473
:103EF00031570E94979880912502882351F0809134
:103F00001C04882331F081E08093940380E00E94B8
:103F100027600E94C3628AE00E94D74F2DC980911A
:103F2000000690910106019749F480917E049091DA
:103F30007F04039719F481E00E945FA40E94A85AAD
:103F40008823D9F00E9461570E943157809108065A
:103F5000909109060497029780F444E650E060913E
:103F600018078FE090E00E94CB8044E650E060911B
:103F7000180780E190E00E94CB8080911F0490910F
:103F80002004019739F580917E0490917F04029777
:103F900009F182E390E00E94210B87E390E00E9408
:103FA000210B87E491E00E94210BEE24E39410E0C2
:103FB00000E020E04091180760E085E490E00E9476
:103FC0002E0B00ED17E021E040E061E087E390E098
:103FD0000E942E0B82E090E090937F0480937E04F9
:103FE00080915D03882371F0EE24E39410E000E0FB
:103FF00020E04091180760E088E290E00E942E0BDC
:1040000010925D038091240281110E949798809103
:104010002502882351F080911C04882331F081E02F
:104020008093940380E00E9427600E94C3628BE02B
:104030000E94D74FA1C80E94A85A8823D9F00E9495
:1040400061570E94315780910806909109060497A4
:10405000029780F444E650E0609118078FE090E00A
:104060000E94CB8044E650E06091180780E190E028
:104070000E94CB8080911F0490912004019739F514
:1040800080917E0490917F04039709F182E390E090
:104090000E94210B87E390E00E94210B87E491E0CE
:1040A0000E94210BEE24E39410E000E020E0409118
:1040B000180760E086E490E00E942E0B0CED15E0FE
:1040C00021E040E061E087E491E00E942E0B83E074
:1040D00090E090937F0480937E0480915D03882319
:1040E00071F0EE24E39410E000E020E04091180726
:1040F00060E088E290E00E942E0B10925D038091B8
:10410000000690910106019719F480E00E945FA4D7
:104110008091240281110E94979880912502882322
:1041200051F080911C04882331F081E08093940346
:1041300080E00E9427600E94C3628CE00E94D74FFB
:104140001BC88091000690910106019749F4809167
:104150007E0490917F04039719F481E00E945FA48C
:104160000E94A85A8823D9F00E9461570E943157B3
:1041700080910806909109060497029780F444E61E
:1041800050E0609118078FE090E00E94CB8044E6F9
:1041900050E06091180780E190E00E94CB80809110
:1041A0001F04909120040197F1F480917E04909176
:1041B0007F040497C1F082E390E00E94210B87E323
:1041C00090E00E94210B87E491E00E94210BEE24F5
:1041D000E39410E000E020E04091180760E086E002
:1041E00090E00E942E0B84E090E090937F048093F7
:1041F0007E0480915D03882371F0EE24E39410E047
:1042000000E020E04091180760E088E290E00E9422
:104210002E0B10925D038091240281110E949798C9
:1042200080912502882351F080911C04882331F06D
:1042300081E08093940380E00E9427600E94C36223
:104240008DE00E94D74F0C94BC188091000690918D
:104250000106019749F480917E0490917F040397B1
:1042600019F481E00E945FA40E94A85A8823D9F023
:104270000E9461570E94315780910806909109066B
:104280000497029780F444E650E0609118078FE0AD
:1042900090E00E94CB8044E650E06091180780E1F6
:1042A00090E00E94CB8080911F04909120040197A0
:1042B000F1F480917E0490917F040597C1F082E330
:1042C00090E00E94210B87E390E00E94210B87E49D
:1042D00091E00E94210BEE24E39410E000E020E046
:1042E0004091180760E086E090E00E942E0B85E088
:1042F00090E090937F0480937E0481E0B2E0CB163F
:10430000D10409F080E08093630440911807809104
:104310005D03EE24E39410E000E020E060E08823F9
:1043200009F188E290E00E942E0B10925D038091CB
:10433000240281110E94979880912502882351F0D0
:1043400080911C04882331F081E08093940380E005
:104350000E9427600E94C362B6018EE00E94B14FA6
:104360000C94BC1888E991E0E2E0CE16D10411F07B
:1043700087E991E00E942E0BDACF809100069091A0
:104380000106019749F480917E0490917F04039780
:1043900019F481E00E945FA40E94A85A8823D9F0F2
:1043A0000E9461570E94315780910806909109063A
:1043B0000497029780F444E650E0609118078FE07C
:1043C00090E00E94CB8044E650E06091180780E1C5
:1043D00090E00E94CB8080911F049091200401976F
:1043E000F1F480917E0490917F040697C1F082E3FE
:1043F00090E00E94210B87E390E00E94210B87E46C
:1044000091E00E94210BEE24E39410E000E020E014
:104410004091180760E086E090E00E942E0B86E055
:1044200090E090937F0480937E0480915D038823C5
:1044300071F0EE24E39410E000E020E040911807D2
:1044400060E088E290E00E942E0B10925D03809164
:10445000240281110E94979880912502882351F0AF
:1044600080911C04882331F081E08093940380E0E4
:104470000E9427600E94C3628FE00E941C4E0C9431
:10448000BC18EE24E39410E000E020E0409118070F
:1044900060E088E290E00E942E0B81E080935D0353
:1044A00080E10E94D74F0C94BC18809174049091C5
:1044B00075048130910561F148F0029709F448C014
:1044C0000E94FF4F0E940C500C94BC1881E090E0B9
:1044D000909375048093740481E991E00E94210B0C
:1044E00082E991E00E94210B88E791E00E94210B74
:1044F000EE24E39410E000E020E04091180760E033
:1045000081E991E00E942E0B84E60E94184ED8CFDC
:1045100082E090E0909375048093740481E991E0C7
:104520000E94210B82E991E00E94210B88E791E033
:104530000E94210BEE24E39410E000E020E0409183
:10454000180760E082E991E00E942E0B85E6DDCF3E
:10455000109275041092740481E991E00E94210B7D
:1045600082E991E00E94210B88E791E00E94210BF3
:10457000EE24E39410E000E020E04091180760E0B2
:1045800088E791E00E942E0B83E6BFCF0E949657EA
:104590000C94BC1883E591E00E94210B82E390E02B
:1045A0000E94210B88E591E00E94210BEE24E39408
:1045B00010E000E020E04091180760E087E591E01E
:1045C0000E942E0B80917E0490917F040197C9F484
:1045D00020E04091180760E083E591E00E942E0BF7
:1045E00081E08093CB0340E050E0BA018AE39CE095
:1045F0000E9481930E94E05081E10E94D74F0C9469
:10460000BC1810920B0C10920C0C1092150C1092FE
:10461000160C42E350E060E070E083E09CE00E9412
:104620008193DECF0E94E05088E10E94D74F0C9426
:10463000BC1820910F0290910E0280910D024091C2
:104640000806509109064250510942305105A0F028
:10465000293018F42F5F20930F02993018F49F5FD0
:1046600090930E02863018F48F5F80930D0289E1DB
:104670000E94D74F0C94BC182F5F20930F029F5FAE
:1046800090930E02F1CF4091180780910806909107
:1046900009060497EE24E39410E000E020E061E0D6
:1046A000029730F48AE691E00E942E0B0C94BC181D
:1046B0008CE390E00E942E0B0C94BC1881E0809358
:1046C00013028091CD03882319F18091380C88233F
:1046D00051F0ECE4F8E0459155916591749180E3D7
:1046E0009CE00E94819380910806909109060497AE
:1046F000029770F46091130270E088E99AE30E94D7
:104700002EAAAB0170E060E082E395E10E94819304
:104710008AE10E94D74F0C94BC1882E08093130268
:104720008091CD03882319F18091380C882351F0B2
:10473000E0E5F8E0459155916591749180E39CE046
:104740000E94819380910806909109060497029730
:1047500070F46091130270E088E99AE30E942EAA37
:10476000AB0170E060E082E395E10E9481938BE110
:104770000E94D74F0C94BC1883E080931302809161
:10478000CD03882319F18091380C882351F0E4E59A
:10479000F8E0459155916591749180E39CE00E9409
:1047A000819380910806909109060497029770F40E
:1047B0006091130270E088E99AE30E942EAAAB018F
:1047C00070E060E082E395E10E9481938CE10E94B9
:1047D000D74F0C94BC1884E0809313028091CD03D2
:1047E000882319F18091380C882351F0E8E5F8E02E
:1047F000459155916591749180E39CE00E9481936D
:1048000080910806909109060497029770F46091D0
:10481000130270E088E99AE30E942EAAAB0170E0CF
:1048200060E082E395E10E9481938DE10E94D74F81
:104830000C94BC1885E0809313028091CD038823EB
:1048400019F18091380C882351F0ECE5F8E045919E
:1048500055916591749180E39CE00E9481938091D1
:104860000806909109060497029770F4609113026C
:1048700070E088E99AE30E942EAAAB0170E060E044
:1048800082E395E10E9481938EE10E94D74F0C94C0
:10489000BC1881E00E9439960C94BC1882E00E94FA
:1048A00039960C94BC1883E00E9439960C94BC187D
:1048B00084E00E9439960C94BC1885E00E943996D9
:1048C0000C94BC1881E00E94E1950C94BC1882E025
:1048D0000E94E1950C94BC1883E00E94E1950C9431
:1048E000BC1884E00E94E1950C94BC1885E00E94FD
:1048F000E1950C94BC1881E08093C7038091CD03AF
:10490000882311F40C94BC188091CA0381110C9473
:10491000BC1881E08093CA030C94BC1881E080939A
:10492000C7038091CD03882311F40C94BC188091A7
:10493000CA0381110C94BC18409118078091080695
:1049400090910906E12C10E000E020E061E0029780
:1049500029F489E891E00E942E0BDBCF82E690E0FB
:10496000FACF8091C703882351F080910806909177
:104970000906029751F489E891E00E94210B1092F8
:10498000C7031092CA030C94BC1882E690E0F5CFDE
:1049900081E08093C8039091CD03992311F40C9486
:1049A000BC189091C90391110C94BC188093C90351
:1049B0000C94BC1881E08093C8039091CD03992397
:1049C00011F40C94BC189091C90391110C94BC186B
:1049D0008093C903809113028530D9F08091080635
:1049E00090910906039711F583E690E00E94210B50
:1049F000409118078091080690910906E12C10E07B
:104A000000E020E061E00297A1F489E891E00E94D3
:104A10002E0BE12C10E000E020E04091180761E04F
:104A200088E490E00E942E0B0C94BC188EE791E075
:104A3000DDCF82E690E0EBCF8091C803882319F1A7
:104A400088E490E00E94210B809113028530D9F018
:104A500080910806909109060297D9F489E891E0BF
:104A60000E94210B40911807809108069091090639
:104A7000E12C10E000E020E061E0039769F483E6B8
:104A800090E00E942E0B1092C8031092C9030C9460
:104A9000BC1882E690E0E4CF8FE791E0F2CF10926D
:104AA0007D0410927C0410928D0710928E078091E5
:104AB000000690910106019721F08AE490E00E949F
:104AC000210BE12C10E000E020E04091180760E0AD
:104AD0008AE490E00E942E0B0C94BC1881E090E0D8
:104AE00090937D0480937C0410928D0710928E0722
:104AF0008091000690910106019721F08EE690E0EA
:104B00000E94210BE12C10E000E020E0409118070A
:104B100060E08EE690E00E942E0B0C94BC18109280
:104B20007D0410927C0410928D0710928E07809164
:104B3000000690910106019741F089E490E00E94FF
:104B4000210B8AE490E00E94210BE12C10E000E0B0
:104B500020E04091180760E08AE490E00E942E0B6C
:104B60000C94BC1881E090E090937D0480937C04C9
:104B700010928D0710928E07809100069091010689
:104B8000019741F08FE690E00E94210B8EE690E0C5
:104B90000E94210BE12C10E000E020E0409118077A
:104BA00060E08EE690E00E942E0B0C94BC1882E030
:104BB00090E090937D0480937C0480912B02882365
:104BC000C1F00E94D8A428E030E040E050E00E940C
:104BD0009CA69B01AC01295F3F4F4F4F5F4FA8EE52
:104BE000B3E00E94BBA6AB01BC0185E897E00E9440
:104BF00081938091000690910106019741F08AE42B
:104C000090E00E94210B89E490E00E94210BE12CAE
:104C100010E000E020E04091180760E089E490E0B7
:104C20000E942E0B0C94BC1882E090E090937D04BF
:104C300080937C0480912B028823C1F00E94D8A429
:104C400028E030E040E050E00E949CA69B01AC01CF
:104C5000295F3F4F4F4F5F4FA8EEB3E00E94BBA6C6
:104C6000AB01BC0185E897E00E948193809100062A
:104C700090910106019741F08EE690E00E94210B91
:104C80008FE690E00E94210BE12C10E000E020E094
:104C90004091180760E08FE690E00E942E0B0C9484
:104CA000BC1881E080936B040E9416950C94BC188C
:104CB00088E290E00E94210BEE24E39410E000E0F3
:104CC00020E04091180760E088E290E00E942E0BFF
:104CD00088E590E00E94210B85E690E00E94210B80
:104CE00089E590E00E94210B20E04091180760E0E8
:104CF00089E590E00E942E0B0C94BC1888E290E0AD
:104D00000E94210BEE24E39410E000E020E04091AB
:104D1000180760E088E290E00E942E0B89E590E0A1
:104D20000E94210B85E690E00E94210B88E590E02F
:104D30000E94210B20E04091180760E088E590E098
:104D40000E942E0B0C94BC1888E290E00E94210B6C
:104D5000EE24E39410E000E020E04091180760E0CA
:104D600088E290E00E942E0B89E590E00E94210BE2
:104D700088E590E00E94210B85E690E00E94210BDF
:104D800020E04091180760E085E690E00E942E0B3D
:104D90000C94BC188AE990E00E94210B89E990E00C
:104DA0000E94210BEE24E39410E000E020E040910B
:104DB000180760E089E990E00E942E0B0C94BC1863
:104DC0008AE990E00E94210B89E990E00E94210B82
:104DD000EE24E39410E000E020E04091180760E04A
:104DE0008AE990E00E942E0B0C94BC1880E490E0BD
:104DF0000E94210BEE24E39410E000E020E04091BB
:104E0000180760E080E490E00E942E0B8CE690E0B2
:104E10000E94210B8AE690E00E94210B8BE690E035
:104E20000E94210B8AE491E00E94210B20E0409136
:104E3000180760E08BE690E00E942E0B0C94BC18E3
:104E400080E490E00E94210BEE24E39410E000E067
:104E500020E04091180760E080E490E00E942E0B73
:104E60008CE690E00E94210B8AE690E00E94210BE4
:104E70008BE690E00E94210B8AE491E00E94210BD6
:104E800020E04091180760E08AE690E00E942E0B37
:104E90000C94BC1880E490E00E94210BEE24E39473
:104EA00010E000E020E04091180760E080E490E02E
:104EB0000E942E0B8CE690E00E94210B8AE690E087
:104EC0000E94210B8BE690E00E94210B8AE491E086
:104ED0000E94210B20E04091180760E08CE690E0F2
:104EE0000E942E0B0C94BC1880E490E00E94210BD1
:104EF000EE24E39410E000E020E04091180760E029
:104F000080E490E00E942E0B8CE690E00E94210B42
:104F10008AE690E00E94210B8BE690E00E94210B34
:104F20008AE491E00E94210B20E04091180760E0A4
:104F30008AE491E00E942E0B8091AE0C9091AF0C10
:104F4000892B29F48AE00E94184E0C94BC188BE03F
:104F50000E94184E0C94BC1880E490E00E94210B33
:104F6000EE24E39410E000E020E04091180760E0B8
:104F700080E490E00E942E0B80911602811126C0E1
:104F800081E0809316028093340288E690E00E94CC
:104F9000210B86E690E00E94210B87E690E00E94BC
:104FA000210B20E04091180760E086E690E00E9427
:104FB0002E0B84E10E94184E4AEF50E060E070E052
:104FC00084E49CE00E9481930C94BC1880911702A9
:104FD00081112AC081E0809317028093340288E611
:104FE00090E00E94210B86E690E00E94210B87E66C
:104FF00090E00E94210BEE24E39410E000E020E01A
:105000004091180760E088E690E00E942E0B86E150
:105010000E94184E4AEF50E060E070E084E49CE0AB
:105020000E9481930C94BC181092170210921602E1
:1050300088E690E00E94210B86E690E00E94210B1A
:1050400087E690E00E94210BEE24E39410E000E05C
:1050500020E04091180760E087E690E00E942E0B68
:1050600085E10E94184E0C94BC1880E490E00E94E8
:10507000210BEE24E39410E000E020E040911807BB
:1050800060E080E490E00E942E0B80917804909183
:1050900079048230910509F46DC08330910509F4DB
:1050A00094C0019789F181E090E090937904809316
:1050B000780480931602109217028093340288E6D7
:1050C00090E00E94210B86E690E00E94210B87E68B
:1050D00090E00E94210B8BE491E00E94210B20E0E4
:1050E0004091180760E086E690E00E942E0B84E174
:1050F0000E94184E4AEF50E060E070E084E49CE0CB
:105100000E9481930C94BC1882E090E09093790403
:105110008093780481E08093160280931702809335
:10512000340288E690E00E94210B86E690E00E941F
:10513000210B87E690E00E94210B8BE491E00E9416
:10514000210BEE24E39410E000E020E040911807EA
:1051500060E088E690E00E942E0B86E10E94184EE7
:105160004AEF50E060E070E084E49CE00E948193AC
:105170000C94BC1883E090E09093790480937804B9
:10518000109216021092170288E690E00E94210BFE
:1051900086E690E00E94210B87E690E00E94210BBA
:1051A0008BE491E00E94210BEE24E39410E000E0F8
:1051B00020E04091180760E087E690E00E942E0B07
:1051C00085E10E94184E0C94BC1884E090E0909306
:1051D00079048093780481E080931602809317020B
:1051E0002091AE0C3091AF0C232B59F580933402F3
:1051F00088E690E00E94210B86E690E00E94210B59
:1052000087E690E00E94210B8BE491E00E94210B45
:10521000EE24E39410E000E020E04091180760E005
:105220008BE491E00E942E0B87E10E94184E4AEF1A
:1052300050E060E070E084E49CE00E9481930C9474
:10524000BC1810923402D4CF80912802882339F1FF
:10525000109228028CE290E00E94210B85E590E0FC
:105260000E94210B84E590E00E94210BEE24E39440
:1052700010E000E020E04091180760E08CE290E050
:105280000E942E0B20E04091180760E085E590E039
:105290000E942E0B80E20E94184E0C94BC1881E0F4
:1052A000809328028DE390E00E94210B84E590E03A
:1052B0000E94210B85E590E00E94210BEE24E394EF
:1052C00010E000E020E04091180760E08DE390E0FE
:1052D0000E942E0B20E04091180760E084E590E0EA
:1052E0000E942E0B81E20E94184E0C94BC188091F3
:1052F0002902882339F11092290280E490E00E946B
:10530000210BEE24E39410E000E020E04091180728
:1053100060E080E490E00E942E0B86E590E00E9421
:10532000210B87E590E00E94210B20E040911807B7
:1053300060E087E590E00E942E0B82E20E94184E0A
:105340000C94BC1881E0809329028FE390E00E94C6
:10535000210BEE24E39410E000E020E040911807D8
:1053600060E08FE390E00E942E0B86E590E00E94C3
:10537000210B87E590E00E94210B20E04091180767
:1053800060E086E590E00E942E0B83E20E94184EBA
:105390000C94BC18809122028823D9F0109222022A
:1053A0008BE590E00E94210B8AE590E00E94210BA2
:1053B000EE24E39410E000E020E04091180760E064
:1053C0008BE590E00E942E0B85E20E94184E0C9413
:1053D000BC1881E0809322028BE590E00E94210BB3
:1053E0008AE590E00E94210BEE24E39410E000E0B7
:1053F00020E04091180760E08AE590E00E942E0BC3
:1054000084E20E94184E0C94BC1880E790E00E9441
:10541000210B81E790E00E94210B82E790E00E943F
:10542000210B83E790E00E94210B90912402809150
:105430002502409118079923A9F08823D9F11092E9
:10544000240210922502EE24E39410E000E020E014
:1054500060E080E790E00E942E0B8BE10E94184EE6
:105460000C94BC18811112C081E080932502EE24B7
:10547000E39410E000E020E060E082E790E00E942A
:105480002E0B89E10E94184E0C94BC1881E0809389
:10549000240210922502EE24E39410E000E020E0C4
:1054A00060E083E790E00E942E0B8AE10E94184E94
:1054B0000C94BC1881E080932502EE24E39410E064
:1054C00000E020E060E081E790E00E942E0B88E1A0
:1054D0000E94184E0C94BC188DE590E00E94210BA0
:1054E0008CE590E00E94210BEE24E39410E000E0B4
:1054F00020E04091180760E08DE590E00E942E0BBF
:105500000C94BC188DE590E00E94210B8CE590E096
:105510000E94210BEE24E39410E000E020E0409193
:10552000180760E08CE590E00E942E0B0C94BC18EC
:105530008FE390E00E94210BEE24E39410E000E062
:1055400020E04091180760E08FE390E00E942E0B6E
:1055500085EF90E00E94210B86EF90E00E94210BE6
:1055600087EF90E00E94210B88EF90E00E94210BD2
:1055700089EF90E00E94210B20E04091180760E045
:1055800085EF90E00E942E0B0C94BC188FE390E006
:105590000E94210BEE24E39410E000E020E0409113
:1055A000180760E08FE390E00E942E0B85EF90E0FB
:1055B0000E94210B86EF90E00E94210B87EF90E084
:1055C0000E94210B88EF90E00E94210B89EF90E070
:1055D0000E94210B20E04091180760E086EF90E0E8
:1055E0000E942E0B0C94BC188FE390E00E94210BBC
:1055F000EE24E39410E000E020E04091180760E022
:105600008FE390E00E942E0B85EF90E00E94210B2B
:1056100086EF90E00E94210B87EF90E00E94210B23
:1056200088EF90E00E94210B89EF90E00E94210B0F
:1056300020E04091180760E087EF90E00E942E0B79
:105640000C94BC188FE390E00E94210BEE24E394AD
:1056500010E000E020E04091180760E08FE390E068
:105660000E942E0B85EF90E00E94210B86EF90E0C8
:105670000E94210B87EF90E00E94210B88EF90E0C1
:105680000E94210B89EF90E00E94210B20E04091C5
:10569000180760E088EF90E00E942E0B0C94BC1875
:1056A0008FE390E00E94210BEE24E39410E000E0F1
:1056B00020E04091180760E08FE390E00E942E0BFD
:1056C00085EF90E00E94210B86EF90E00E94210B75
:1056D00087EF90E00E94210B88EF90E00E94210B61
:1056E00089EF90E00E94210B20E04091180760E0D4
:1056F00089EF90E00E942E0B0C94BC1880911E0440
:10570000882311F40C94BC180E94830D0C94BC18CF
:1057100080911E04882311F40C94BC180E94B50DCE
:105720000C94BC180E94E80D0C94BC180E941A0E30
:105730000C94BC1820918103809100069091010681
:105740000197029728F580916704909168042111D0
:1057500010C021E020938103892B11F40C94BC1814
:1057600065E080916504909166040E94F57D0C943B
:10577000BC1810928103892B11F40C94BC1866E0BC
:1057800080916504909166040E94F57D0C94BC188C
:10579000211105C081E0809381030C94BC18109204
:1057A00081030C94BC1880911A07809316078AEB2A
:1057B00080931A070E944C0A0C94BC18809116071B
:1057C00080931A070E944C0A0C94BC180E94EF0C9C
:1057D0000C94BC180E943C0D0C94BC1880911E04C3
:1057E000882321F00E945B0A0C94BC180E94830A53
:1057F0000C94BC188CE291E00E94210B8DE291E0A8
:105800000E94210B8EE291E00E94210B8FE291E039
:105810000E94210B80E391E00E94210BEE24E3948F
:1058200010E000E020E04091180760E08CE291E099
:105830000E942E0B0C94BC188CE291E00E94210B6C
:105840008DE291E00E94210B8EE291E00E94210BFB
:105850008FE291E00E94210B80E391E00E94210BF6
:10586000EE24E39410E000E020E04091180760E0AF
:105870008DE291E00E942E0B0C94BC1880911907C8
:105880008A3B39F180913D02853008F03FC010928B
:105890003D0280913D02FCE38F9FC001112464E62C
:1058A00070E00E9442AA84EC860F809319078093CF
:1058B000160780931A0720910006309101062150A7
:1058C00031092230310528F4082E000C990B0E9472
:1058D000237E80911C04811114C08091D103811119
:1058E00010C080E490E00E94210BEE24E39410E0CD
:1058F00000E020E04091190760E080E490E00E9421
:105900002E0B83E10E94184E0C94BC188550809396
:105910003D02BFCF80913D02803608F441C084E64D
:1059200080933D0280913D022CE3829FC0011124AF
:1059300064E670E00E9442AA6C536093190760937A
:10594000160780911C04811114C08091D10381112C
:1059500010C080E490E00E94210BEE24E39410E05C
:1059600000E020E04091190760E080E490E00E94B0
:105970002E0B8091190780931A0720910006309111
:105980000106215031092230310528F4082E000C7F
:10599000990B0E94237E82E10E94184E0C94BC1841
:1059A0008B5FBECF8CE291E00E94210B8DE291E0F3
:1059B0000E94210B8EE291E00E94210B8FE291E088
:1059C0000E94210B80E391E00E94210BEE24E394DE
:1059D00010E000E020E04091180760E08EE291E0E6
:1059E0000E942E0B0C94BC188CE291E00E94210BBB
:1059F0008DE291E00E94210B8EE291E00E94210B4A
:105A00008FE291E00E94210B80E391E00E94210B44
:105A1000EE24E39410E000E020E04091180760E0FD
:105A20008FE291E00E942E0B0C94BC188CE291E066
:105A30000E94210B8DE291E00E94210B8EE291E009
:105A40000E94210B8FE291E00E94210B80E391E004
:105A50000E94210BEE24E39410E000E020E040914E
:105A6000180760E080E391E00E942E0B0C94BC18B4
:105A700081E391E00E94210B82E391E00E94210BDF
:105A800083E391E00E94210B84E391E00E94210BCB
:105A900085E391E00E94210BEE24E39410E000E006
:105AA00020E04091180760E081E391E00E942E0B16
:105AB0000C94BC1881E391E00E94210B82E391E0F9
:105AC0000E94210B83E391E00E94210B84E391E08B
:105AD0000E94210B85E391E00E94210BEE24E394C8
