:100000000C942F050C9460050C9460050C9460050D
:100010000C9460050C9460050C9460050C946005CC
:100020000C9460050C9460050C9460050C946005BC
:100030000C9460050C9460050C9460050C946005AC
:100040000C9460050C9460050C9460050C9460059C
:100050000C9460050C9460050C9460050C94B28AB5
:100060000C9460050C94228C0C94F88B0C94600515
:100070000C9460050C9460050C9460050C9460056C
:100080000C9460050C9460050C9460050C9460055C
:100090000C94CE8B0C94A48B0C9460050C944C8C1B
:1000A0000C9460050C9460050C9460050C9460053C
:1000B0000C9460050C9460050C9460050C9460052C
:1000C0000C9460050C9460050C9460050C947A8B7C
:1000D0000C94508B0C9460050C94268B0C94FC8A29
:1000E0000C94600505A84CCDB2D44EB93836A9029F
:1000F0000C50B9918688083CA6AAAA2ABE00000026
:10010000803F07634236B79BD8A71A39685618AEA6
:10011000BAAB558C1D3CB7CC5763BD6DEDFD753E3C
:10012000F6177231BF000000803F08000000BE9249
:100130002449123EABAAAA2ABECDCCCC4C3E00002C
:100140000080BEABAAAAAA3E00000000BF000000CB
:10015000803F0000000000084178D3BB4387D113E3
:100160003D190E3CC3BD4282AD2B3E68EC8276BE8B
:10017000D98FE1A93E4C80EFFFBE01C4FF7F3F0055
:10018000000000000C943D860C943C7B0C94727F24
:100190000C946B1E0C9404670C947A770C943B2E91
:1001A0000C94435C0C94A7790C94911B0C94A67F3F
:1001B0000C940F7E0C9405320C947C1B0C94D01B79
:1001C0000C94E7760C9439340C94C32E0C94E139DA
:1001D0000C94937F0C94B7790C94DD390C943C5CAF
:1001E0000C94F6380C947F2E0C947B770C943E1D67
:1001F0000C945B2C0C94571B0C94FF2B0C941C4AF6
:100200000C9486820C94ED820C94B4790C94877FC4
:100210000C94892C0C94C55B0C94B07C0C94CF2F5F
:100220000C94595B0C94A07F0C947B7F0C94615BC5
:100230000C94A2240C94CF820C94A2820C94117979
:100240000C946F1B0C94A12C0C941F2D0C94A32BBD
:100250000C941E890C948F370C94167B0C942F1ED3
:100260000C94D01C0C9415240C941D370C94A86687
:100270000C9411380C94777F0C94E2350C94EB1E9F
:100280000C942B1C0C9499950C943E5B0C94B95BCC
:100290000C9450350C94BF1C0C94A21C0C94553833
:1002A0000C94817F0C94E2360C94C1770C94FF7609
:1002B0000C948A1D0C94BA790C94102B0C94C833AE
:1002C0000C94FE240C94051F0C94D2760C94653289
:1002D0000C9470050C9403250C940D770C946A4FC4
:1002E0000C945F7B0C94441B0C94E71D0C94C72C5E
:1002F0000C94B8260C94D6760C94B6250C946534E0
:100300000C94D9390C945F370C94F5760C94CC3658
:100310000C94F1760C9431390C94FD2C0C94D94C3E
:100320000C94641D0C94AD210C94BB380C947C355A
:100330000C9442890C9436890C94E3760C94DD225B
:100340000C941E330C9402790C9420660C940E3598
:100350000C94897F0C948F7F0C9469950C94102FCA
:100360000C946A820C9415800C94645C0C94D549AE
:100370000C94791D0C941D1E0C944B890C940179DE
:100380000C94441E0C9449370C94BD5B0C94BF260E
:100390000C94717B0C94DB2C0C9454820C94837D14
:1003A0000C94F8340C940B270C94D52D0C942A251E
:1003B0000C94331B0C94737B0C94E2340C9497953F
:1003C0000C94DA650C944E7B0C949B1D0C94971E38
:1003D0000C94D1240C942D7B0C944E230C94335B01
:1003E0000C9481360C949B5C0C94932C0C9458794F
:1003F0000C94E4770C94CE760C94CC340C941C1DA5
:100400000C94A87F0C945D7B0C94787B0C9496895B
:100410000C9473240C9499380C94D12B0C94385B65
:100420000C94EB1C0C9416200C947D4C0C94EF1E39
:100430000C94F4240C94D0770C94B55B0C94D525D3
:100440000C94761B0C94E87F0C94885C0C944F34CD
:100450000C94E5240C94B6360C947E820C94617F47
:100460000C9495950C942D1D0C94A51C0C94081FB0
:100470000C94192E0C94A12E0C94117B0C94107AD0
:100480000C942E1A0C940B1E0C94E61C0C94091C54
:100490000C947E7F0C9487270C94D6660C94E38290
:1004A0000C941E4A0C94727C0C948B1E0C94559ADE
:1004B0000C941D320C94233A0C948D2B0C943338ED
:1004C0000C9498820C94555C0C94CF2C0C94C27FA5
:1004D0000C94DE590C94AC1D0C94D52A0C94F7376F
:1004E0000C9433370C949E7F0C94772B0C949C7F48
:1004F0000C949D2C0C94847F0C94ED760C94A52C7C
:100500000C94C3370C9475370C94D51D0C94BD7D99
:100510000C94EA7F0C9495780C945D2E0C94E72F44
:100520000C94411E0C9452230C9492350C946E3111
:100530000C94891F0C94C97F0C94DB270C94EA243B
:100540000C94CB230C94E0240C9479770C94F45BFA
:100550000C94877B0C94FF2F0C94E67C0C94E62380
:100560000C9479890C948E650C94BB820C94AC82AB
:100570000C94FC1C0C9421300C9417360C94927B38
:100580000C940F300C94B32D0C9474820C94F625BB
:100590000C94DD760C94D9820C94C77F0C94DD37D3
:1005A0000C94485A0C94E11E0C945F4F0C9468050F
:1005B0000C944B5B0C94C31E0C9424350C94650571
:1005C0000C94FD330C94687F0C94FB760C94B02F44
:1005D0000C946B950C94137D0C9435320C942B7900
:1005E0000C941B340C9491340C94F91D0C945B8284
:1005F0000C94917F0C9466350C94B11D0C9445229B
:100600000C9447270C942A210C94B1270C945D5C20
:100610000C94725B0C94A9370C94A1230C94527C1B
:100620000C9448780C94907E0C948B950C947738AD
:100630000C94BD7B0C94DA760C94C31D0C9441256C
:100640000C946C050C94E5260C94F77F0C943F1CDD
:100650000C94AC2F0C9462050C94B3790C94A67B8B
:100660000C94AA7F0C94CB2C0C948D7F0C94247941
:100670000C948B7F0C9419260C9483250C946D7F1D
:100680000C94E17B0C949A230C94957F0C947B340E
:100690000C94935B0C94C9220C949F950C94531D5D
:1006A0000C9458330C94CC300C944D320C94D52EC1
:1006B0000C94894E0C94A3200C9467660C943E26EF
:1006C0000C94C15B0C9409770C942A2F0C94654F01
:1006D0000C94EA280C94DB240C948C5B0C945D271E
:1006E0000C941A1C0C94194A0C9413280C942D2C5D
:1006F0000C94C8760C94A61B0C943A350C94A8352F
:100700000C94BB1B0C94A27F0C94647B0C945E2F06
:100710000C94594F0C94F9240C94F2770C943330C8
:100720000C946C5C0C9403770C94822A0C94C58214
:100730000C94D35B0C946B2D0C94E0890C946C3965
:100740000C947B260C94D27B0C94D6240C942F2AE8
:100750000C949E7D0C94E11C0C9476770C94B42F31
:100760000C9431270C94CC5B0C944C360C94857B08
:100770000C9453650C9444240C94081D0C94F72D90
:100780000C9408770C94B71E0C94EF240C94297CDD
:100790000C9460820C941C7E0C94BF2C0C948E8262
:1007A0000C94B42C0C94442F0C94997F0C94355CCD
:1007B000B80B0000B80B0000AC0D0000AC0D000041
:1007C000A00F0000000102030405060708090A0B38
:1007D0000C0D0E000102030405060708090A0B0CA4
:1007E0000E0D0C0B0A090807060504030201000C94
:1007F0000B0A09080706050403020100001C120A7F
:10080000041F160D02110C07010A0704000A121C2E
:10081000040D161F02070C110104070A010203044C
:1008200005060708090A0B0C0D0E0F101112131400
:1008300015161718191A1B1C1D1E1F2021222324F0
:1008400025262728010203040506070809000A0BCC
:100850000C0D0E0F10111200131415161718191A7B
:100860001B001C1D1E1F2021222324000102030443
:10087000050000000000060708090A00000000004B
:100880000B0C0D0E0F0000000000101112131400CD
:100890000000000001020300000000000000040549
:1008A000060000000000000007080900000000002A
:1008B00000000A0B0C000000000000003075000072
:1008C000983A0000102700004C1D0000701700002F
:1008D000000000006410B71DC8206E3BAC30D92664
:1008E0009041DC76F4516B6B5861B24D3C71055010
:1008F0002083B8ED44930FF0E8A3D6D68CB361CB38
:10090000B0C2649BD4D2D38678E20AA01CF2BDBDEB
:100910004552524F523A204E6F2063616C6C6261B7
:10092000636B20617661696C61626C6520666F72D1
:10093000207061636B657420494420000000210031
:10094000240027002A002D003000330001010000A0
:10095000040107010A0100002200250028002B00E5
:100960002E003100340002010000050108010B01D6
:10097000000020002300260029002C002F00320058
:100980000001000003010601090105050505070531
:1009900008080808020202020A0A080804040404FB
:1009A0000101010101010101030303030303030327
:1009B000040707070C0C0C0C0C0C0C0C02020202B6
:1009C00006060606060606060B0B0B0B0B0B0B0B9F
:1009D0000102102020080810204010204080020151
:1009E0000201080402010102040810204080804036
:1009F0002010080402018004020180402010080435
:100A000002010804020101020408102040800102D2
:100A100004081020408000000A0B02090C0D0E088B
:100A200007030401000000000000000000000000B7
:100A300000000000000000000000000000000000B6
:100A40000000121110000000000000000000000073
:100A5000000000000000000000000000559A112472
:100A60001FBECFEFD1E2DEBFCDBF00E00CBF13E071
:100A7000A0E0B2E0EAEEF9E501E00BBF02C00790AA
:100A80000D92A835B107D9F729E1A8E5B3E001C077
:100A90001D92A132B207E1F715E0CFE2D5E000E008
:100AA00006C021970109802FFE010E9493ABCE3230
:100AB000D10780E00807A9F70E948C9E0C94F3AC44
:100AC0000C94000090E080E00895FC016487089594
:100AD000FC01848590E00895FC0185859685089544
:100AE0000F931F93CF93DF9300D0CDB7DEB7AB0149
:100AF00019821A821B82DC01ED91FC910190F08138
:100B0000E02D00E010E020E0BE016F5F7F4F1995FF
:100B10000F900F900F90DF91CF911F910F9108953B
:100B2000FC0140813181932F341708F4942F2281E6
:100B3000822F291708F4892F8823C1F0962F682F58
:100B400070E080E00E946BAB469FC001479F900D14
:100B500011249083369FC001379F900D11249183FB
:100B6000269FC001279F900D1124928308958091A4
:100B7000840490918504892B91F080911F069091B7
:100B800020060197029758F460913607062E000C54
:100B9000770B80918204909183040E9462808AE2A4
:100BA0000C94775180911F0690912006019702972F
:100BB00008F0ACC160913707062E000C770B8CE370
:100BC00090E00E94628060913707062E000C770B40
:100BD00089E491E00E94628060913707062E000C44
:100BE000770B8BE490E00E94628060913707062EBD
:100BF000000C770B8EE790E00E94628060913707CF
:100C0000062E000C770B8BE691E00E9462806091CB
:100C10003707062E000C770B8FE790E00E9462806A
:100C200060913707062E000C770B83EB90E00E9453
:100C3000628060913707062E000C770B82E090E00F
:100C40000E94628080912706909128066091370764
:100C50008230910509F40AC1039709F45AC1062E9E
:100C6000000C770B80919D0490919E04019709F0F0
:100C70005FC16E51710981E090E00E9462806091D5
:100C80003707062E000C770B6E5171098FE090E04C
:100C90000E94628060913707062E000C770B685225
:100CA000710980E190E00E94628060913707062E12
:100CB000000C770B6852710985E991E00E9462800F
:100CC00060913707062E000C770B8CE591E00E94AF
:100CD000628060913707062E000C770B80E991E067
:100CE0000E94628060913707062E000C770B80917E
:100CF0001502681B710980E691E00E946280609194
:100D00003707062E000C770B80911502681B7109BE
:100D100082E190E00E94628060913707062E000C0D
:100D2000770B80911502681B710983E190E00E94A6
:100D3000628060913707062E000C770B80911502B8
:100D4000681B710984E190E00E946280609137071E
:100D5000062E000C770B80911502681B710985E146
:100D600090E00E94628060913707062E000C770B9E
:100D700080911502681B710986E190E00E946280F3
:100D800060913707062E000C770B645171098DE8CE
:100D900090E00E94628060913707062E000C770B6E
:100DA000645171098FE890E00E946280609137077A
:100DB000062E000C770B6451710983E990E00E94C4
:100DC000628060913707062E000C770B6451710921
:100DD0008EE890E00E94628060913707062E000C3A
:100DE000770B6451710980E990E00E946280609104
:100DF0003707062E000C770B6451710982E990E0E9
:100E00000E94628060913707062E000C770B6451B8
:100E1000710984E990E00E94628060913707062E94
:100E2000000C770B6451710981E990E00E946280A7
:100E300060913707062E000C770B8AE691E00E943E
:100E4000628060913707062E000C770B89E691E0EF
:100E50000E9462808091CB038823C1F060913707A4
:100E6000062E000C770B8EE491E00EC0062E000CCF
:100E7000770B8BE791E00E94628060913707062E26
:100E8000000C770B8CE791E00E94628080919D04BA
:100E900090919E048230910509F485C083309105BC
:100EA00009F497C0019709F45FC080911C0488235E
:100EB00069F160913707062E000C770B82E690E00F
:100EC0000E94628060913707062E000C770B8FE737
:100ED00091E00E94628060913707062E000C770B2C
:100EE00089E891E00E94628060913707062E000C2D
:100EF000770B83E690E00E94628060913707062EB0
:100F0000000C770B88E490E00E9462808AE20C94E7
:100F10007751062E000C770B85E290E00E946280EC
:100F200060913707062E000C770B86E290E0ACCF7D
:100F300081E090E00E94628060913707062E000CED
:100F4000770B8FE090E00E94628060913707062E59
:100F5000000C770B80E190E00E946280609137077F
:100F6000062E000C770BA8CE60913707062E000CDA
:100F7000770B82E390E00E94628060913707062E33
:100F8000000C770B84E591E00E94628080911C0444
:100F9000882309F4BBCF60913707062E000C770B2E
:100FA00084E390E0B1CF60913707062E000C770BF9
:100FB00087E390E00E94628080911C04882309F4FA
:100FC000A5CF60913707062E000C770B8AE390E0DF
:100FD0009BCF60913707062E000C770B87E491E0DA
:100FE00093CFFF920F931F93CF93DF93EC01F62ED5
:100FF00008811981C8010E9491A7F81621F06F2D70
:10100000C8010E9499A7CE01DF91CF911F910F9146
:10101000FF9008950E94E5620E9432671092340C9E
:101020001092350C10921B041092C7031092CA0341
:101030001092C8031092C90381E0809307020E94B6
:10104000F5580E941C588091270690912806029717
:10105000029708F44EC08091420280935D1586E9A4
:1010600090E0909303028093020210925B1510921D
:101070005C1540915D1550E070E060E083E595E11E
:101080000E94F19410921B0D10921C0D40910202CF
:101090005091030270E060E083E19DE00E94F194D2
:1010A0004091100250E070E060E08DE395E10E9415
:1010B000F1944CE251E060E070E08DE39DE00E942D
:1010C000F1940E945C54109295038091CE03882382
:1010D00021F01092CE030E94C55880911A048823F3
:1010E00079F010921A0488E00E94735182E30C9404
:1010F0004B5380912D0280935D1588E592E0B1CF2E
:10110000089580912102882349F081E02091F70C15
:101110003091F80C232B19F080E0089581E00895B8
:101120000F931F93CF93DF9300D000D0CDB7DEB7DE
:101130008FEF9FEFDC0189839A83AB83BC8310E040
:1011400000E01E830D83BE016B5F7F4FCE010196D1
:101150000E940495BE016A5F7F4FCE0101960E94F6
:1011600004950F5F1F4F0732110559F78AE190E090
:101170009E838D83BE016B5F7F4FCE0101960E94DF
:101180000495BE016A5F7F4FCE0101960E940495CF
:101190008DE090E09E838D83BE016B5F7F4FCE011B
:1011A00001960E940495BE016A5F7F4FCE010196B1
:1011B0000E94049569817A818B819C8160957095EC
:1011C0008095909526960FB6F894DEBF0FBECDBFE2
:1011D000DF91CF911F910F910895EF92FF920F939E
:1011E0001F93CF93DF9300D000D0CDB7DEB70E941E
:1011F000900869837A838B839C83CE0101967C015E
:101200000CEF1FE01E830D83F70161917F01CE017A
:1012100005960E94F1070F5F1F4F0115F0E11F07B0
:1012200089F726960FB6F894DEBF0FBECDBFDF91CB
:10123000CF911F910F91FF90EF9008952F923F92C1
:101240004F925F926F927F928F929F92AF92BF92D6
:10125000CF92DF92EF92FF920F931F93CF93DF9382
:10126000CDB7DEB76D970FB6F894DEBF0FBECDBF1A
:101270003090990480911E0290911F0228EE33E075
:10128000B9010E946BABC62E80911C0290911D0289
:10129000B9010E946BABD62E80911A0290911B026D
:1012A000B9010E946BABE62E809118029091190251
:1012B000B9010E946BABF62E809116029091170235
:1012C000B9010E946BAB662E80912902772473943A
:1012D000882311F0F2E07F2E8091280299249394C4
:1012E000882311F0E2E09E2E8091270288248394C7
:1012F000882311F072E0872E80912602AA24A394FD
:10130000882311F062E0A62E80912502BB24B394BD
:10131000882311F052E0B52E8091240261E0811102
:1013200062E08091890401E0811102E080919F04D4
:101330009091A00412E0019709F011E0809123023E
:10134000B2E0811101C0B1E080912202A2E08111DE
:1013500001C0A1E08091900442E0242E811102C0DE
:10136000222423948091210232E0432E811102C075
:101370004424439480912002811181C032E03D8F4A
:1013800080913B02853608F07DC0882309F47CC03B
:1013900090913C0272E0911101C071E090913D0288
:1013A00052E0911101C051E090913E0242E0911152
:1013B00001C041E090913F02992309F467C092E097
:1013C0002091400255245394222311F022E0522E02
:1013D000209197043091980421503109253031052E
:1013E00008F056C02B593D4FF901208179828A823D
:1013F0009B82AC82BD826E830F8338861987BA8741
:10140000AB872C86FD8DFD878E87CF86D88AE98AAB
:10141000FA8A6B8A7C8B5D8B4E8B9F8B588E298FC3
:101420004A8ECE0101967C010DE010E01C8F0B8FDF
:10143000F70161917F01CE014B960E94F1070F5F8A
:101440001F4F0732110591F70E94ED086D960FB6F8
:10145000F894DEBF0FBECDBFDF91CF911F910F91EA
:10146000FF90EF90DF90CF90BF90AF909F908F90C4
:101470007F906F905F904F903F902F90089581E004
:101480008D8F7ECF84E684CF81E082CF91E098CFAC
:1014900024E0ACCF0F931F93CF93DF931F921F9243
:1014A000CDB7DEB70DE010E01A83098360E0CE010E
:1014B00001960E94F1070F5F1F4F07321105A1F738
:1014C0000E94ED080F900F90DF91CF911F910F9127
:1014D0000895EF92FF920F931F93CF93DF93CDB7B1
:1014E000DEB72F970FB6F894DEBF0FBECDBF809149
:1014F0008A0422E0811101C021E080919104909141
:1015000092048130910529F0029709F44CC082E0E1
:1015100001C083E090918B04992309F446C092E0C6
:10152000309144023983309143023A8330912C0246
:101530003B832C83209137022D83209135022E830B
:10154000209133022F832091380228872091360280
:101550002987209134022A8720918C042B878C873D
:101560009D87CE0101967C0110E000E01F870E8769
:10157000F70161917F01CE010E960E94F1070F5F86
:101580001F4F0D30110591F70E94ED082F960FB6F1
:10159000F894DEBF0FBECDBFDF91CF911F910F91A9
:1015A000FF90EF90089584E0B5CF91E0B9CF0F930D
:1015B0001F93CF93DF931F921F92CDB7DEB710E03A
:1015C00000E01A83098360E0CE0101960E94F107D2
:1015D0000F5F1F4F0D301105A1F70E94ED080F900E
:1015E0000F90DF91CF911F910F91089580911F0669
:1015F000909120060197029738F480913907082EC0
:10160000000C990B0C94EE7E089520911D0480919E
:101610001F069091200601970297C0F480918404E0
:1016200090918504211107C021E020931D0465E0FD
:10163000892B31F4089510921D04892BD9F366E0AB
:1016400080918204909183040C94C07E211104C087
:1016500081E080931D04089510921D04EBCF8091CA
:101660001F06909120060197029798F480918404B8
:1016700090918504892B59F0809182049091830484
:10168000843F21E0920718F064E00E94C07E0E942F
:10169000D98010921E0410921F04609182047091F0
:1016A000830484E40C9425538091840490918504F0
:1016B000892B09F442C08091820490918304843F75
:1016C00021E09207D0F121E020931F0420911F0612
:1016D000309120062150310922303105F8F4209153
:1016E0001D0465E0211101C066E00E94C07E60918A
:1016F0003607062E000C770B8091820490918304AC
:101700000E94628061E080918204909183040E9433
:1017100033800E94D98081E08093880640E25EE4B5
:1017200060E070E08AE397E00E94F19460918204A7
:101730007091830483E40C9425530895CF93DF9331
:10174000C0918204D09183042197C43F81E0D807DF
:1017500030F4C0918404D0918504CD50DE4F809147
:101760001F04882351F00E942F0BD0938304C09351
:101770008204DF91CF910C94540BD0938304C093D7
:101780008204BE0184E4DF91CF910C942553CF9362
:10179000DF93C0918204D0918304219680918404C8
:1017A000909185048D509E4F8C179D0710F4C4EFC7
:1017B000D1E080911F04882351F00E942F0BD09319
:1017C0008304C0938204DF91CF910C94540BD09387
:1017D0008304C0938204BE0184E4DF91CF910C9412
:1017E000255320911F0630912006215031092230C7
:1017F000310518F464E00C94C07E0895CF92DF9216
:10180000EF92FF920F931F93CF93DF936C01F62E0D
:1018100080911F06909120068230910549F54B304A
:101820001CF14AE0C42F440FDD0B222361F16AEB67
:101830007FEFC6010E9462806E2DC6010E94338038
:10184000A801BE01C6010E94908065E0F11001C0B0
:1018500066E0C601DF91CF911F910F91FF90EF904D
:10186000DF90CF900C94C07E4A3BE4F64AEBDACF8F
:101870000197C1F2DF91CF911F910F91FF90EF90EF
:10188000DF90CF900895BE01C6010E9462806E2D48
:10189000C6010E943380D9CFEF920F931F93CF934D
:1018A000C82F81E090E0909323048093220410924B
:1018B0008F0410928E040E948108811121C08091B2
:1018C0002706909128060297029770F440E050E0B6
:1018D000BA018DE395E10E94F19440E050E0BA0135
:1018E0008FEF9CE00E94F1940E94895487E00E944F
:1018F000735181E3CF911F910F91EF900C944B5353
:10190000C11106C088E00E94735182E30E944B53CC
:101910008091950490919604059741F4809132024C
:10192000882321F061E08DE20E94F2818BE490E057
:101930000E94F10B8EE790E00E94F10B8FE790E0A0
:101940000E94F10B8CE591E00E94F10B80E991E09F
:101950000E94F10B80912706909128068330910513
:10196000E1F18530910509F4B2C0029709F04AC04F
:10197000EE24E39410E000E020E04091370760E0BF
:101980008BE791E00E94FE0B08ED1EE021E0409104
:10199000370761E08CE791E00E94FE0B80919D0487
:1019A00090919E048230910509F41AC1833091050B
:1019B00009F421C1019761F4EE24E39404E813E0F3
:1019C00021E04091370761E082E390E00E94FE0B46
:1019D000CF911F910F91EF900895EE24E39410E0C2
:1019E00000E020E04091370760E085E290E00E944F
:1019F000FE0B08ED1EE021E04091370761E086E232
:101A000090E0CACF80919D0490919E044091370749
:101A1000CC2389F10197F9F44E51EE24E39410E0C0
:101A200000E020E060E08FE090E00E94FE0B40913B
:101A30003707485200E516E421E061E080E190E0DC
:101A40000E94FE0B40E556E460E070E08AE997E012
:101A50000E94F194A3CFEE24E39410E000E020E094
:101A600060E08FE090E00E94FE0B00E516E421E0CC
:101A700040913707E2CF0197D1F44E51EE24E39421
:101A800010E000E020E060E081E090E00E94FE0BCA
:101A900040913707485204EF11E021E061E080E116
:101AA00090E00E94FE0B40E050E0BA01CFCFEE2460
:101AB000E39410E000E020E060E081E090E00E942C
:101AC000FE0B04EF11E021E040913707E7CF809152
:101AD0009D0490919E0420911202211127C000972D
:101AE00011F581E08093CB03EE24E39410E000E055
:101AF00020E04091370760E081E090E00E94FE0B1B
:101B000004EF11E021E04091370761E085E991E0C1
:101B10000E94FE0B00ED17E021E04091370761E0E5
:101B20008EE491E039CF86309105D9F21092CB0343
:101B300040913707CC2369F10197D9F44E51EE2437
:101B4000E39410E000E020E060E08DE991E00E9485
:101B5000FE0B40913707485200E117E221E061E0B7
:101B600085E991E00E94FE0B40E157E260E070E001
:101B70006DCFEE24E39410E000E020E060E08DE91A
:101B800091E00E94FE0B00E117E221E0409137074F
:101B9000E6CF0197A9F44E51EE24E39410E000E063
:101BA00020E060E081E090E00E94FE0B409137076A
:101BB000485204EF11E021E061E085E991E071CF46
:101BC000EE24E39410E000E020E060E081E090E0AB
:101BD0000E94FE0B04EF11E021E040913707ECCFAB
:101BE000EE24E39404E813E021E04091370761E03C
:101BF00087E390E0EBCEEE24E39404E813E021E0E9
:101C00004091370761E087E491E0E0CEEF920F93D7
:101C10001F93809139078A3B21F180913B028530E7
:101C2000F0F510923B0280913B022CE3829FC001B1
:101C3000112464E670E00E947FAB84EC860F8093F1
:101C400039078093350720911F06309120062150D7
:101C500031092230310528F4082E000C990B0E941E
:101C6000EE7E80912004811114C08091CE038111F9
:101C700010C080E490E00E94F10BEE24E39410E0A9
:101C800000E020E04091390760E080E490E00E94AD
:101C9000FE0B8AE21F910F91EF900C9477518550C3
:101CA00080933B02C0CFEF920F931F9380913B0232
:101CB0008036F0F184E680933B0280913B022CE376
:101CC000829FC001112464E670E00E947FAB6C53D8
:101CD000609339076093350780912004811114C007
:101CE0008091CE03811110C080E490E00E94F10B3E
:101CF000EE24E39410E000E020E04091390760E03A
:101D000080E490E00E94FE0B80911F0690912006D7
:101D10000197029738F480913907082E000C990B2F
:101D20000E94EE7E8AE21F910F91EF900C94775102
:101D30008B5FC1CFEF920F931F9380913902853053
:101D400038F51092390280E490E00E94F10B409146
:101D5000390780911502481BEE24E39410E000E05F
:101D600020E060E080E490E00E94FE0B8091390268
:101D70002CE3829FC001112464E670E00E947FABD7
:101D80006C53609336071F910F91EF900C94B70539
:101D9000855080933902EACFEF920F931F93809181
:101DA0003902803640F184E68093390280E490E085
:101DB0000E94F10B4091390780911502481BEE24D7
:101DC000E39410E000E020E060E080E490E00E9416
:101DD000FE0B809139022CE3829FC001112464E63E
:101DE00070E00E947FAB6C53609336071F910F9198
:101DF000EF900C94B7058B5F80933902EACFEF9296
:101E00000F931F9380913A02853038F510923A0271
:101E100080E490E00E94F10B409139078091150217
:101E2000481BEE24E39410E000E020E060E080E452
:101E300090E00E94FE0B80913A022CE3829FC00149
:101E4000112464E670E00E947FAB6C536093370707
:101E50001F910F91EF900C94D205855080933A0218
:101E6000EACFEF920F931F9380913A02803628F1C8
:101E700084E680933A0280E490E00E94F10BEE2425
:101E8000E39410E000E020E04091370760E080E458
:101E900090E00E94FE0B80913A022CE3829FC001E9
:101EA000112464E670E00E947FAB6C5360933707A7
:101EB0001F910F91EF900C94D2058B5F80933A02A3
:101EC000EACF0F931F93CF93DF9300D000D0CDB70D
:101ED000DEB7122F202F0E941A7F69837A838B83AB
:101EE000BE016C5F7F4FCE0101960E94B9936D8158
:101EF0007C81111102C06C817D818E8126960FB686
:101F0000F894DEBF0FBECDBFDF91CF911F910F912F
:101F100008952F923F924F925F926F927F928F928D
:101F20009F92AF92BF92CF92DF92EF92FF920F9368
:101F30001F93CF93DF93CDB7DEB72C970FB6F894EE
:101F4000DEBF0FBECDBF80E00E94F25E1091521541
:101F5000180F81E00E94F25E90915215890F8B83D9
:101F600082E00E94F25E90915215890F8D8383E08A
:101F70000E94F25E90915215890F8F8380916915AE
:101F8000835089879091440280919203891708F0C9
:101F900067C180E997E00E94C194882309F460C179
:101FA00080914402209192032983E22FF0E09091E6
:101FB0008B04992309F41FC18D3009F019C1E15137
:101FC000F84FE491F0E07F01EE0CFF1CEE0DFF1DD9
:101FD000AF014F595A4F7A0100E020E04FEF64E122
:101FE00080E00E94610FF701608371838283212F5B
:101FF00030E0FB818F2E912C4D81A42EB12C5F817E
:10200000C52ED12C8985E82EF12C898165E00E94AE
:102010005FABF901EE0FFF1FFC87EB873401660C05
:10202000771C2501440C551C1601220C331CA701FA
:10203000440F551F5A834983911149C2E20FF31F80
:10204000EF59FA4FFC87EB8720E04FEF81E00E94C9
:10205000610FEB85FC856083718382839301280D7A
:10206000391D2F593A4F3C872B8720E04FEF65E011
:1020700081E00E94610FEB85FC8560837183828320
:1020800092012A0D3B1D2F593A4F3C872B8720E0A8
:102090004FEF65E081E00E94610FEB85FC85608376
:1020A0007183828391012C0D3D1D2F593A4F3C873E
:1020B0002B8720E04FEF65E081E00E94610FEB8508
:1020C000FC8560837183828329813A812E0D3F1DB7
:1020D0002F593A4F3A83298320E04FEF61E081E0A6
:1020E0000E94610FE981FA8160837183828380910C
:1020F000910490919204892B09F485C020E04FEF60
:1021000065E084E00E94610F6093A1047093A204D3
:102110008093A30420E04FEF65E084E00E94610F0C
:102120006093A4047093A5048093A60420E04FEF6D
:102130006BE084E00E94610F6093A7047093A80491
:102140008093A90420E04FEF6BE084E00E94610FD0
:102150006093AA047093AB048093AC0420E04FEF2B
:102160006FE084E00E94610F6093AD047093AE0451
:102170008093AF0420E04FEF6FE084E00E94610F96
:102180006093B0047093B1048093B204F091410263
:102190002F2F2150330BC901880F991F280F391F8A
:1021A0002F553B4F3A83298320E04FEF6FE084E0C7
:1021B0000E94610FE981FA81608371838283F091CB
:1021C00041022F2F30E0C901880F991F280F391FB6
:1021D0002F553B4F3A83298320E04FEF6BE084E09B
:1021E0000E94610FE981FA8160837183828323C039
:1021F000E052F84FE6CE8D3019F4ED52F84FE1CEB3
:10220000EC53F84FDECEA59A739A80910201886054
:10221000809302018091020180618093020180918C
:1022200002018062809302018091020180648093A8
:1022300002012C9A2D9A809192038F5F80939203D2
:1022400090914402891330C2109298071092990716
:102250004EE150E060E070E086E897E00E94F19483
:102260009091910380914402981708F05CC286E82F
:1022700097E00E94C194882309F455C280914402DA
:10228000F0919103F983EF2FF0E090918B04992363
:1022900009F414C28D3009F00EC2E151F84FE491F7
:1022A0008150990B8E1B91097C01EE0CFF1C8E0D49
:1022B0009F1D9C012F593A4F790100E020E04FEF1C
:1022C00060E080E00E94610FF70160837183828388
:1022D000212F30E0FB818F2E912C4D81A42EB12C2B
:1022E0005F81C52ED12C8985E82EF12C898165E08E
:1022F0000E945FABF901EE0FFF1FFC87EB873401F3
:10230000660C771C2501440C551C1601220C331C4D
:10231000A701440F551F5A8349839111F8C3E20F57
:10232000F31FEF59FA4FFC87EB8720E04FEF81E076
:102330000E94610FEB85FC8560837183828393012A
:10234000280D391D2F593A4F3C872B8720E04FEF3E
:1023500065E081E00E94610FEB85FC8560837183FD
:10236000828392012A0D3B1D2F593A4F3C872B87C0
:1023700020E04FEF65E081E00E94610FEB85FC8576
:1023800060837183828391012C0D3D1D2F593A4F3B
:102390003C872B8720E04FEF65E081E00E94610FD2
:1023A000EB85FC8560837183828329813A812E0DC0
:1023B0003F1D2F593A4F3A83298320E04FEF61E0C8
:1023C00081E00E94610FE981FA81608371838283D9
:1023D0008091910490919204892B09F477C120E0B7
:1023E0004FEF65E084E00E94610F6093A104709359
:1023F000A2048093A30420E04FEF65E084E00E94F4
:10240000610F6093A4047093A5048093A60420E058
:102410004FEF6BE084E00E94610F6093A70470931C
:10242000A8048093A90420E04FEF6BE084E00E94B1
:10243000610F6093AA047093AB048093AC0420E016
:102440004FEF6FE084E00E94610F6093AD047093E2
:10245000AE048093AF0420E04FEF6FE084E00E9471
:10246000610F6093B0047093B1048093B2048091C3
:1024700041028150990B9C01220F331F280F391FF5
:102480002F553B4F3A83298320E04FEF6FE084E0E4
:102490000E94610FE981FA81608371838283809158
:1024A000410290E09C01220F331F280F391F2F5546
:1024B0003B4F3A83298320E04FEF6BE084E00E949A
:1024C000610FE981FA8160837183828317C14B8533
:1024D0005C85420F531F4F595A4F5C874B8700E072
:1024E00020E04FEF60E081E00E94610FEB85FC850A
:1024F0006083718382839301280D391D2F593A4FD0
:102500003C872B8720E04FEF60E081E00E94610F65
:10251000EB85FC8560837183828392012A0D3B1DCC
:102520002F593A4F3C872B8720E04FEF60E081E046
:102530000E94610FEB85FC8560837183828391012A
:102540002C0D3D1D2F593A4F3C872B8720E04FEF34
:1025500060E081E00E94610FEB85FC856083718300
:10256000828329813A812E0D3F1D2F593A4F3A839C
:10257000298320E04FEF60E081E00E94610FE98154
:10258000FA81608371838283809191049091920497
:10259000892B09F470C020E04FEF60E084E00E94D6
:1025A000610F6093A1047093A2048093A30420E0C0
:1025B0004FEF60E084E00E94610F6093A404709389
:1025C000A5048093A60420E04FEF60E084E00E9421
:1025D000610F6093A7047093A8048093A90420E07E
:1025E0004FEF60E084E00E94610F6093AA04709353
:1025F000AB048093AC0420E04FEF60E084E00E94E5
:10260000610F6093AD047093AE048093AF0420E03B
:102610004FEF60E084E00E94610F6093B00470931C
:10262000B1048093B204809141028150990B9C01C6
:10263000220F331F280F391F2F553B4F3A83298311
:1026400020E04FEF60E084E00E94610FE981FA81B1
:102650006083718382838091410290E09C01220F0C
:10266000331F280F391F2F553B4F3A83298320E012
:102670004FEF60E0B4CDA598739880910201877FF9
:1026800080930201809102018F7E809302018091EC
:1026900002018F7D80930201809102018F7B8093E4
:1026A00002012C982D98C7CD4EE150E060E070E01B
:1026B00080E997E0D3CDE052F84FF1CD8D3019F499
:1026C000ED52F84FECCDEC53F84FE9CDA59A739A43
:1026D00080910201886080930201809102018061F3
:1026E00080930201809102018062809302018091B7
:1026F00002018064809302012C9A2D9A80919103AB
:102700008F5F80939103909144028913EDC21092E0
:102710008E0710928F074EE150E060E070E08CE78A
:1027200097E00E94F19480910002882309F4D6C1B9
:102730008CE797E00E94C194882309F4CFC1909060
:102740000002C12ED12C9601220F331F3A83298318
:102750002C0D3D1D2F593A4F3C872B8700E020E080
:10276000492D65E081E00E94610FEB85FC85608367
:1027700071838283FB81EF2EF12C9701220F331F8F
:102780003C832B832E0D3F1D2F593A4F3C872B87BF
:1027900020E0492D65E081E00E94610FEB85FC851A
:1027A0006083718382833D81232F30E03C872B87B8
:1027B000220F331F3E832D83C9014B855C85840F17
:1027C000951FFC01EF59FA4F5F0120E0492D65E0AC
:1027D00081E00E94610FF501608371838283FF8134
:1027E0006F2E712C9301220F331F38872F83C9015D
:1027F000860D971DAC014F595A4F5A0120E0492DC3
:1028000065E081E00E94610FF5016083718382833E
:10281000F9854F2E512C9201220F331F3A872987B9
:10282000C901840D951DAC014F595A4F5A0120E042
:10283000492D61E081E00E94610FF50160837183A1
:1028400082838091910490919204892B09F475C040
:1028500020E0492D65E084E00E94610F6093A104AF
:102860007093A2048093A30420E0492D65E084E0E6
:102870000E94610F6093A4047093A5048093A60442
:1028800020E0492D6BE084E00E94610F6093A70473
:102890007093A8048093A90420E0492D6BE084E0A4
:1028A0000E94610F6093AA047093AB048093AC0400
:1028B00020E0492D6FE084E00E94610F6093AD0439
:1028C0007093AE048093AF0420E0492D6FE084E064
:1028D0000E94610F6093B0047093B1048093B204BE
:1028E000809141028150990B5C01AA0CBB1C8A0D9E
:1028F0009B1D9C012F553B4F590120E0492D6FE056
:1029000084E00E94610FF501608371838283A0904F
:102910004102B12CC501880F991FA80EB91E95015F
:102920002F553B4F590120E0492D6BE084E00E9478
:10293000610FF50160837183828380912C0289315C
:1029400008F0D9C1873108F0D9C165E18C3009F0B0
:1029500067E01091200D80912702882309F4D0C1EF
:102960008FEF90E08919910970E00E947FAB160FFC
:1029700080911F0D8117C8F0A12EB12C80918A047F
:102980001501220C331C882309F4BFC100E021E0AB
:102990004FEF65E082E00E94610FF101EA0DFB1D3F
:1029A000EF55FB4F608371838283809127028823D8
:1029B00009F4BAC18091200D8117E8F4212F21502C
:1029C000330BB90180911F0D82171306A4F0590132
:1029D000AA0CBB1CA60EB71EA5014F555B4F5A0192
:1029E00000E020E04FEF60E082E00E94610FF5011F
:1029F0006083718382839A94909200029110A8C19F
:102A0000109284071092850729813A81C20ED31E45
:102A1000A6014F595A4F6A0100E020E04FEF60E0F5
:102A200081E00E94610FF6016083718382832B81B4
:102A30003C81E20EF31EA7014F595A4F7A0120E064
:102A40004FEF60E081E00E94610FF70160837183C6
:102A500082832B853C854D815E81240F351F2F5944
:102A60003A4F3A83298320E04FEF60E081E00E94F3
:102A7000610FE981FA816083718382832F813885B8
:102A8000260D371D2F593A4F3A83298320E04FEF07
:102A900060E081E00E94610FE981FA8160837183C7
:102AA000828329853A85240D351D2F593A4F3A8363
:102AB000298320E04FEF60E081E00E94610FE9810F
:102AC000FA816083718382830E9432670E94A158D9
:102AD00088E60E94735181E080938D042C960FB696
:102AE000F894DEBF0FBECDBFDF91CF911F910F9144
:102AF000FF90EF90DF90CF90BF90AF909F908F901E
:102B00007F906F905F904F903F902F9008954B85EE
:102B10005C85420F531F4F595A4F5C874B8700E02B
:102B200020E04FEF60E081E00E94610FEB85FC85C3
:102B30006083718382839301280D391D2F593A4F89
:102B40003C872B8720E04FEF60E081E00E94610F1F
:102B5000EB85FC8560837183828392012A0D3B1D86
:102B60002F593A4F3C872B8720E04FEF60E081E000
:102B70000E94610FEB85FC856083718382839101E4
:102B80002C0D3D1D2F593A4F3C872B8720E04FEFEE
:102B900060E081E00E94610FEB85FC8560837183BA
:102BA000828329813A812E0D3F1D2F593A4F3A8356
:102BB000298320E04FEF60E081E00E94610FE9810E
:102BC000FA81608371838283809191049091920451
:102BD000892B09F470C020E04FEF60E084E00E9490
:102BE000610F6093A1047093A2048093A30420E07A
:102BF0004FEF60E084E00E94610F6093A404709343
:102C0000A5048093A60420E04FEF60E084E00E94DA
:102C1000610F6093A7047093A8048093A90420E037
:102C20004FEF60E084E00E94610F6093AA0470930C
:102C3000AB048093AC0420E04FEF60E084E00E949E
:102C4000610F6093AD047093AE048093AF0420E0F5
:102C50004FEF60E084E00E94610F6093B0047093D6
:102C6000B1048093B204809141028150990B9C0180
:102C7000220F331F280F391F2F553B4F3A832983CB
:102C800020E04FEF60E084E00E94610FE981FA816B
:102C90006083718382838091410290E09C01220FC6
:102CA000331F280F391F2F553B4F3A83298320E0CC
:102CB0004FEF60E003CCA598739880910201877F65
:102CC00080930201809102018F7E809302018091A6
:102CD00002018F7D80930201809102018F7B80939E
:102CE00002012C982D980ACD4EE150E060E070E092
:102CF00086E897E016CD8A3109F02ACE69E029CE20
:102D0000892D0E945FAB180F33CEA20CB31C950126
:102D10002F553B4F590100E020E04FEF65E082E086
:102D20000E94610FF5013ECE80911F0D181708F02B
:102D300062CEA12EB12CFFEFAF1ABF0AC501880FDA
:102D4000991FA80EB91E95012F553B4F590148CE2A
:102D500045E050E060E070E08CE797E02C960FB61D
:102D6000F894DEBF0FBECDBFDF91CF911F910F91C1
:102D7000FF90EF90DF90CF90BF90AF909F908F909B
:102D80007F906F905F904F903F902F900C94F194B4
:102D90002F923F924F925F926F927F928F929F926B
:102DA000AF92BF92CF92DF92EF92FF920F931F9359
:102DB000CF93DF93CDB7DEB7C758D1090FB6F894DC
:102DC000DEBF0FBECDBF80911F06909120060197F8
:102DD000029710F40E94D98084E097E00E94C19489
:102DE000882309F46CC280918104882309F467C2A6
:102DF00081E090E00E942A85BC01990F880B990B15
:102E00000E9474A620E030E543EC57E40E948CA8B1
:102E10006093D2067093D3068093D4069093D50620
:102E200084E090E00E942A85BC01990F880B990BE1
:102E30000E9474A69B01AC0160911D0770911E0752
:102E400080911F07909120070E94D3A66093D60619
:102E50007093D7068093D8069093D90682E090E0CD
:102E60000E942A85BC01817080932A0761FB882714
:102E700080F980932907F3E076956795FA95E1F755
:102E800090E080E00E9472A62FE632E143E85BE327
:102E90000E94D3A66093DA067093DB068093DC066B
:102EA0009093DD0683E090E00E942A85BC01990F93
:102EB000880B990B0E9474A69B01AC0160912107BD
:102EC0007091220780912307909124070E94D3A636
:102ED0006093E2067093E3068093E4069093E50620
:102EE0002091D2063091D3064091D4065091D50658
:102EF0006091DA067091DB068091DC069091DD0628
:102F00000E941BA86093DE067093DF068093E006A4
:102F10009093E1062091D6063091D7064091D806CD
:102F20005091D9060E94D3A66B017C01C092EA069B
:102F3000D092EB06E092EC06F092ED062DEC3CEC24
:102F40004CE45FE36091EE067091EF068091F0062D
:102F50009091F1060E94D3A64B015C012DEC3CEC54
:102F60004CE45EE3C701B6010E94D3A69B01AC010D
:102F7000C501B4010E941BA86093EE067093EF0692
:102F80008093F0069093F1060E949C886B017C016F
:102F90008091FC069091FD06A091FE06B091FF067F
:102FA000A7019601281B390B4A0B5B0BCA01B9011B
:102FB00060930007709301078093020790930307C3
:102FC0000E9472A62091D6063091D7064091D8066D
:102FD0005091D9060E94D3A620E03AEB4BE55AE483
:102FE0000E948CA82091E6063091E7064091E80601
:102FF0005091E9060E941BA86093E6067093E706CD
:103000008093E8069093E906C092FC06D092FD06F4
:10301000E092FE06F092FF06609127077091280764
:1030200085E090E00E948E836091250770912607CD
:1030300090E080E00E948E8380915B0390E0019697
:1030400064E170E00E947FAB80935B038091210478
:103050008111BAC1809196038111B6C1C090EE066C
:10306000D090EF06E090F006F090F1060E949C8868
:10307000CC57DF4F688379838A839B83C458D040C1
:103080004090F2065090F3066090F4067090F506BA
:1030900029E23CE54FE85EE3C301B2010E941AA8B1
:1030A0004B015C012DEC3CEC4CE45EE3C301B2014E
:1030B0000E941BA82B013C01A5019401C701B60188
:1030C0000E946DA687FD09C0A3019201C701B60148
:1030D0000E946CA918160CF06EC18091F8069091B0
:1030E000F906A091FA06B091FB06892B8A2B8B2B4F
:1030F00081F4CC57DF4F88819981AA81BB81C45864
:10310000D0408093F8069093F906A093FA06B09306
:10311000FB068091F8069091F906A091FA06B0910D
:10312000FB06CC57DF4F288139814A815B81C45827
:10313000D040281B390B4A0B5B0BDA01C9018035E3
:103140009105A105B10508F46AC0C092F206D092BB
:10315000F306E092F406F092F50626E636E646E23D
:103160005FE3C701B6010E946CA91816FCF411E0D8
:103170001093690380912204909123040197D1F068
:1031800080E00E944C0C10935A0380E20E944B5343
:103190008BE00E944B5383E30E944B5348EE53E075
:1031A00060E070E08EE097E00E94F1948091690306
:1031B0008823A9F18091220490912304892B79F12D
:1031C000A3019201C701B6010E946CA91816ACF4C4
:1031D00080911C0481110C94D4478EE097E00E94EA
:1031E0007B94672B682B692B41F485E08093130255
:1031F00081E08093C3030E94CF97A5019401C7018A
:10320000B6010E946DA687FF0AC080911C04882326
:1032100011F40C94E0470E94AB560E94545426E6E9
:1032200036E646E25FE3C701B6010E946DA61816B6
:103230005CF180911C04882321F00E94AB560E940F
:103240005454109269038091220490912304892B95
:1032500059F010925A0381E090E090938F0480938C
:103260008E0484E30E944B531092F8061092F906E4
:103270001092FA061092FB06C092F206D092F30664
:10328000E092F406F092F50680915B0381110DC087
:1032900020E030E048EC52E4C701B6010E94D3A61A
:1032A0000E94FEA889E40E9425534091F6065091A1
:1032B000F70670E060E084E097E00E94F19488EC0B
:1032C00096E00E94C194882309F443C08EE5809360
:1032D0007C0080917A00806480937A0080917A00EB
:1032E00086FDFCCF209178003091790050E040E0DD
:1032F00065EA77E681E190E00E94D9A7CA01B901A9
:103300006B5F7F4F8F4F9F4F2AE030E040E050E0EF
:103310000E94D9A7CA01B9010E9474A660939E06B3
:1033200070939F068093A0069093A1062091250498
:10333000222329F00E94FEA888E40E942553409190
:10334000BA065091BB0670E060E088EC96E00E94FF
:10335000F19488EB97E00E94708D882321F1109101
:10336000C609112301F18091160C882391F08091F8
:103370002104882311F40C94EE4740910E0C5091D7
:103380000F0C6091100C7091110C8EE09CE00E946B
:10339000F194123011F40C94053A08F044C0113045
:1033A00011F40C94F64780912104882311F40C94B5
:1033B00023480C94233A1092F8061092F9061092C2
:1033C000FA061092FB062BCF1092F8061092F9061F
:1033D0001092FA061092FB061092F2061092F30673
:1033E0001092F4061092F50680915A03882309F48E
:1033F0005CCF8091220490912304892B09F455CF4E
:103400001092690310925A0381E090E090938F0428
:1034100080938E0484E30E944B538CE10E944B53B3
:1034200070E060E03FCF143011F40C94533A153043
:1034300009F0B9CF80912104882311F40C9423481A
:10344000A6EBB8E0EFECF3E08D91819333E0E43E3E
:10345000F307D1F781E50E947751A5CF0E940C5662
:103460000E94DE81DD24D394D09296031092210431
:103470001092160C1092170C8CE891E00E94F10B40
:10348000EE24E39410E000E020E04091370760E094
:103490008CE891E00E94FE0B60918D046D2570E038
:1034A00082E00E944D5180911B0481110E94D568D9
:1034B0008091CD03882351F080912004811106C0B2
:1034C0008091CE03811102C00E94A36280919F046B
:1034D0009091A004019709F052C082E080936A03A2
:1034E00020918F0C3091900C232B09F046C08093D3
:1034F0006B0380912706909128068330910509F48B
:1035000042C08530910509F442C00297F1F581E08F
:1035100080936D03809112028823D9F182E0809319
:103520006C0380911D048823B1F182E080937503C0
:1035300080913202882389F182E080937103809127
:10354000220490912304892B51F182E080936E0331
:103550008091130280936F0380919D0490919E044B
:103560008330910509F473C0E0F48130910519F1BD
:10357000029709F46AC081E01FC081E0B8CF81E002
:1035800080936A03B4CF82E0C3CF83E0C1CF84E0ED
:10359000BFCF81E0C4CF81E0C9CF81E0CECF81E051
:1035A000D5CF8530910509F456C008F452C006976E
:1035B00011F788E001C082E08093700380912004BD
:1035C000811102C01092070280913B028093720326
:1035D00080913A0280937303809139078A3B11F0FE
:1035E000FF24F394F092740383E08093150494E035
:1035F00090931404E6E1F4E0DF011D928A95E9F767
:10360000EAE6F3E0A8EBB7E081918D9323E0E6379B
:10361000F207D1F78CE090E09A83898346E0BE01FF
:103620006F5F7F4F88EB97E00E94F58D80911A04C1
:10363000882339F00E948108811103C087E00E942D
:10364000735184E00E947351AECE83E0B5CF84E025
:10365000B3CF85E0B1CF80918004882311F087E05B
:10366000ABCF86E0A9CF1092960381E0809321042E
:1036700040E45FE160E070E08EE09CE00E94F19445
:103680008AE40E944B538FCE81E08093690380913E
:10369000220490912304019731F080E00E944C0CA9
:1036A00083E30E944B5385E00E944B537CCE1092E3
:1036B00069038091220490912304892B49F081E0D1
:1036C00090E090938F0480938E0484E30E944B5388
:1036D00086E00E944B5386E10E944B5364CE81E00A
:1036E000809314028AE30E944B535DCE1092140221
:1036F0008BE30E944B5357CE84E091E00E94F10B84
:1037000085E091E00E94F10BEE24E39410E000E0EC
:1037100020E04091370760E084E091E00E94FE0BDA
:1037200042CE85E091E00E94F10B84E091E00E949E
:10373000F10BEE24E39410E000E020E04091370725
:1037400060E085E091E00E94FE0B2DCE87E391E0E2
:103750000E94F10B88E391E00E94F10BEE24E394C8
:1037600010E000E020E04091370760E088E391E05E
:103770000E94FE0B18CE87E391E00E94F10B88E3D4
:1037800091E00E94F10BEE24E39410E000E020E0D1
:103790004091370760E087E391E00E94FE0B03CE83
:1037A000809128028823E1F088E990E00E94F10BE3
:1037B00087E990E00E94F10BEE24E39410E000E032
:1037C00020E04091370760E088E990E00E94FE0B1E
:1037D000109228028DE30E9473510E946153E3CD41
:1037E00088E990E00E94F10B87E990E00E94F10BDC
:1037F000EE24E39410E000E020E04091370760E021
:1038000087E990E00E94FE0B81E0809328028EE31E
:10381000E2CF85E990E00E94F10BEE24E39410E002
:1038200000E020E04091370760E085E990E00E94E9
:10383000FE0BB9CD86E990E00E94F10BEE24E394F3
:1038400010E000E020E04091370760E086E990E07A
:103850000E94FE0BA8CD80911B048111A4CD409144
:10386000370780911502481BEE24E39410E000E036
:1038700020E060E086E190E00E94FE0B94CD809114
:103880001B04811190CD809113028330D9F1A8F4EB
:10389000813041F1823009F086CD40913707809127
:1038A0001502481BEE24E39410E000E020E061E004
:1038B00083E190E00E94FE0B76CD843099F1853053
:1038C00009F071CD4091370780911502481BEE2415
:1038D000E39410E000E020E061E086E190E00E94E7
:1038E000FE0B61CD4091370780911502481BEE24F5
:1038F000E39410E000E020E061E082E190E00E94CB
:10390000FE0B51CD4091370780911502481BEE24E4
:10391000E39410E000E020E061E084E190E00E94A8
:10392000FE0B41CD4091370780911502481BEE24D4
:10393000E39410E000E020E061E085E190E00E9487
:10394000FE0B31CD0E94DE812ECD66E082E190E05B
:103950000E94C07E66E083E190E00E94C07E66E047
:1039600084E190E00E94C07E66E085E190E00E94E4
:10397000C07E66E086E190E00E94C07E14CD80E4C7
:1039800090E00E94F10BEE24E39410E000E020E0D0
:103990004091370760E080E490E00E94FE0B03CD89
:1039A0008BEF90E00E94F10BEE24E39410E000E036
:1039B00020E04091370760E08BEF90E00E94FE0B23
:1039C000F2CC8BEF90E00E94F10BEDCC8CEF90E00D
:1039D0000E94F10BE8CC8CEF90E00E94F10BEE24FA
:1039E000E39410E000E020E04091370760E08CEFC6
:1039F00090E00E94FE0BD7CCE12C10E000E020E02C
:103A00004091370760E084E490E00E94FE0BCBCC4D
:103A1000E12C10E000E020E04091370760E083E413
:103A200090E00E94FE0B20E04091370760E08FE3BA
:103A300090E00E94FE0BB7CC81E190E00E94F10B78
:103A4000EE24E39410E000E020E04091370760E0CE
:103A500081E190E00E94FE0BA6CC8EE591E00E94F1
:103A6000F10BEE24E39410E000E020E040913707F2
:103A700060E08EE591E00E94FE0B95CC8CE491E035
:103A80000E94F10B89E491E00E94F10BEE24E39493
:103A900010E000E020E04091370760E089E491E029
:103AA0000E94FE0B80CC8CE491E00E94F10BEE248E
:103AB000E39410E000E020E04091370760E08CE400
:103AC00091E00E94FE0B6FCC8CE491E00E94F10B20
:103AD0008DE491E00E94F10BEE24E39410E000E00D
:103AE00020E04091370760E08DE491E00E94FE0BFA
:103AF0005ACC8DE891E00E94F10BEE24E39410E0A3
:103B000000E020E04091370760E08DE891E00E94FE
:103B1000FE0B49CC81EB90E00E94F10BEE24E39484
:103B200010E000E020E04091370760E081EB90E09A
:103B30000E94FE0B38CC86E991E00E94F10BEE2446
:103B4000E39410E000E020E04091370760E086E970
:103B500091E00E94FE0B27CC80E990E00E94F10BDF
:103B600022CC8DE890E00E94F10B40913707445140
:103B7000EE24E39410E000E020E060E08DE890E0C7
:103B80000E94FE0B10CC8FE890E00E94F10B409158
:103B900037074451EE24E39410E000E020E060E0B9
:103BA0008FE890E00E94FE0BFECB83E990E00E943C
:103BB000F10B409137074451EE24E39410E000E00C
:103BC00020E060E083E990E00E94FE0BECCB8EE801
:103BD00090E00E94F10B409137074451EE24E394AA
:103BE00010E000E020E061E08EE890E00E94FE0B33
:103BF000DACB80E990E00E94F10B40913707445105
:103C0000EE24E39410E000E020E061E080E990E041
:103C10000E94FE0BC8CB82E990E00E94F10B40911C
:103C200037074451EE24E39410E000E020E060E028
:103C300082E990E00E94FE0BB6CB84E990E00E94FE
:103C4000F10B409137074451EE24E39410E000E07B
:103C500020E060E084E990E00E94FE0BA4CB81E9C3
:103C600090E00E94F10B409137074451EE24E39419
:103C700010E000E020E060E081E990E00E94FE0BAF
:103C800092CB0E940C568FCB40913707809129022E
:103C9000E12C10E000E020E060E08823C9F08BE92F
:103CA00091E00E94FE0B80919504909196040297FA
:103CB00009F079CB80913202882309F474CB4EE568
:103CC00051E060E070E089E59CE00E94F1946BCBEC
:103CD00085E791E0E6CFE12C10E000E020E04091A4
:103CE000370760E08AE591E00E94FE0B8091950421
:103CF00090919604029709F056CB80913202882366
:103D000009F451CB4CE251E060E070E089E59CE0C1
:103D10000E94F19448CBE12C10E000E020E04091BB
:103D2000370760E089E591E00E94FE0B3CCBE12C77
:103D300010E000E020E04091370760E08BE591E083
:103D40000E94FE0B8091950490919604029709F0D1
:103D50002ACB80913202882309F425CB48EC50E02D
:103D600060E070E089E59CE00E94F1941CCBE12CBE
:103D700010E000E020E04091370760E086E491E049
:103D80000E94FE0B10CB90911C0481E0CA94CD28B8
:103D900069F48093C303992331F09091C603911184
:103DA00002C08093C6030E94CF97FDCA8093C403CC
:103DB0009923C9F39091C5039111F5CF8093C50361
:103DC000F2CF80911C04882309F4EDCA0E94AB56FF
:103DD0000E945454E8CAC6010E945455E4CA809116
:103DE000270690912806059709F4DDCA0E944455DC
:103DF000EE24E39404EC19E021E04091370761E000
:103E00008BE691E00E94FE0BCECA0E942458CBCADA
:103E100080911F0690912006019749F480919D049E
:103E200090919E04039719F481E00E949CA50E9442
:103E30009F5C8823D9F00E94F5580E94C558809154
:103E40002706909128060497029780F444E650E0F4
:103E5000609137078FE090E00E94C48044E650E014
:103E60006091370780E190E00E94C4808091220435
:103E7000909123040197F1F480919D0490919E0408
:103E8000892BC1F082E390E00E94F10B87E390E080
:103E90000E94F10B87E491E00E94F10BEE24E39481
:103EA00010E000E020E04091370760E086E090E01D
:103EB0000E94FE0B10929E0410929D0480915D035F
:103EC000882371F0EE24E39410E000E020E04091BC
:103ED000370760E088E290E00E94FE0B10925D03DD
:103EE0008091220281110E94D1998091230288231E
:103EF00051F080912004882331F081E08093930376
:103F000080E00E94CF610E946E648BE00E944B5360
:103F10004ACA80911F0690912006019749F480912A
:103F20009D0490919E04039719F481E00E949CA542
:103F30008091220490912304019709F041C080915F
:103F40009D0490919E040197D9F182E390E00E9434
:103F5000F10B87E390E00E94F10B87E491E00E946F
:103F6000F10BEE24E39410E000E020E040913707ED
:103F700060E080E390E00E94FE0B0CEB12E021E099
:103F80004091370761E082E390E00E94FE0B809150
:103F90002706909128060497029790F460913707BE
:103FA0006E5144E650E08FE090E00E94C480609142
:103FB0003707685244E650E080E190E00E94C480F8
:103FC00081E090E090939E0480939D0480915D0336
:103FD000882371F0EE24E39410E000E020E04091AB
:103FE000370760E088E290E00E94FE0B10925D03CC
:103FF00080912202882331F00E94F5580E94C55812
:104000000E94D19980912302882351F0809120044D
:10401000882331F081E08093930380E00E94CF6198
:104020000E946E648CE00E944B53BDC980911F06B4
:1040300090912006019749F480919D0490919E04EF
:10404000039719F481E00E949CA50E949F5C88233D
:10405000D9F00E94F5580E94C5588091270690918A
:1040600028060497029780F444E650E060913707F1
:104070008FE090E00E94C48044E650E060913707F2
:1040800080E190E00E94C4808091220490912304FA
:10409000019741F580919D0490919E04029711F142
:1040A00082E390E00E94F10B87E390E00E94F10B25
:1040B00087E491E00E94F10BEE24E39410E000E02D
:1040C00020E04091370760E085E490E00E94FE0B1D
:1040D00000ED17E021E04091370761E087E390E0D1
:1040E0000E94FE0B82E090E090939E0480939D04DA
:1040F00080915D03882371F0EE24E39410E000E0EA
:1041000020E04091370760E088E290E00E94FE0BDB
:1041100010925D038091220281110E94D1998091B9
:104120002302882351F080912004882331F081E01C
:104130008093930380E00E94CF610E946E648DE0C3
:104140000E944B5330C90E949F5C8823D9F00E9483
:10415000F5580E94C558809127069091280604972B
:10416000029780F444E650E0609137078FE090E0DA
:104170000E94C48044E650E06091370780E190E0FF
:104180000E94C4808091220490912304019741F5FC
:1041900080919D0490919E04039711F182E390E039
:1041A0000E94F10B87E390E00E94F10B87E491E01D
:1041B0000E94F10BEE24E39410E000E020E0409137
:1041C000370760E086E490E00E94FE0B02EE14E008
:1041D00021E04091370761E087E491E00E94FE0B07
:1041E00083E090E090939E0480939D0480915D0312
:1041F000882371F0EE24E39410E000E020E0409189
:10420000370760E088E290E00E94FE0B10925D03A9
:1042100080911F0690912006019719F480E00E947A
:104220009CA58091220281110E94D1998091230244
:10423000882351F080912004882331F081E080931D
:10424000930380E00E94CF610E946E648EE00E9422
:104250004B53A9C880911F0690912006019749F4FD
:1042600080919D0490919E04039719F481E00E942F
:104270009CA50E949F5C8823D9F00E94F5580E945B
:10428000C55880912706909128060497029780F4DC
:1042900044E650E0609137078FE090E00E94C480D0
:1042A00044E650E06091370780E190E00E94C480CE
:1042B00080912204909123040197F1F480919D0450
:1042C00090919E040497C1F082E390E00E94F10B6C
:1042D00087E390E00E94F10B87E491E00E94F10BEC
:1042E000EE24E39410E000E020E04091370760E026
:1042F00086E090E00E94FE0B84E090E090939E04A4
:1043000080939D0480915D03882371F0EE24E394F3
:1043100010E000E020E04091370760E088E290E0A4
:104320000E94FE0B10925D038091220281110E9477
:10433000D19980912302882351F080912004882311
:1043400031F081E08093930380E00E94CF610E946E
:104350006E648FE00E944B5326C880911F06909197
:104360002006019749F480919D0490919E04039743
:1043700019F481E00E949CA50E949F5C8823D9F0DB
:104380000E94F5580E94C5588091270690912806F2
:104390000497029780F444E650E0609137078FE07D
:1043A00090E00E94C48044E650E06091370780E1CD
:1043B00090E00E94C4808091220490912304019790
:1043C000F1F480919D0490919E040597C1F082E3E1
:1043D00090E00E94F10B87E390E00E94F10B87E4EC
:1043E00091E00E94F10BEE24E39410E000E020E065
:1043F0004091370760E086E090E00E94FE0B85E088
:1044000090E090939E0480939D0481E042E0C41666
:10441000D10409F080E080938004409137078091B7
:104420005D03EE24E39410E000E020E060E08823E8
:1044300009F188E290E00E94FE0B10925D038091EA
:10444000220281110E94D19980912302882351F088
:1044500080912004882331F081E08093930380E0F1
:104460000E94CF610E946E64B60180E10E942553D4
:104470000C94D31988E991E052E0C516D10411F0EB
:1044800087E991E00E94FE0BDACF80911F069091A0
:104490002006019749F480919D0490919E04039712
:1044A00019F481E00E949CA50E949F5C8823D9F0AA
:1044B0000E94F5580E94C5588091270690912806C1
:1044C0000497029780F444E650E0609137078FE04C
:1044D00090E00E94C48044E650E06091370780E19C
:1044E00090E00E94C480809122049091230401975F
:1044F000F1F480919D0490919E040697C1F082E3AF
:1045000090E00E94F10B87E390E00E94F10B87E4BA
:1045100091E00E94F10BEE24E39410E000E020E033
:104520004091370760E086E090E00E94FE0B86E055
:1045300090E090939E0480939D0480915D03882376
:1045400071F0EE24E39410E000E020E040913707A2
:1045500060E088E290E00E94FE0B10925D03809183
:10456000220281110E94D19980912302882351F067
:1045700080912004882331F081E08093930380E0D0
:104580000E94CF610E946E6481E10E9477510C9479
:10459000D319EE24E39410E000E020E040913707C7
:1045A00060E088E290E00E94FE0B81E080935D0372
:1045B00082E10E944B530C94D31980919104909105
:1045C00092048130910561F148F0029709F448C0E6
:1045D0000E9473530E9480530C94D31981E090E0A1
:1045E000909392048093910481E991E00E94F10BF1
:1045F00082E991E00E94F10B88E791E00E94F10BC3
:10460000EE24E39410E000E020E04091370760E002
:1046100081E991E00E94FE0B84E60E947351D8CF9D
:1046200082E090E0909392048093910481E991E07C
:104630000E94F10B82E991E00E94F10B88E791E082
:104640000E94F10BEE24E39410E000E020E04091A2
:10465000370760E082E991E00E94FE0B85E6DDCF3E
:10466000109292041092910481E991E00E94F10B62
:1046700082E991E00E94F10B88E791E00E94F10B42
:10468000EE24E39410E000E020E04091370760E082
:1046900088E791E00E94FE0B83E6BFCF0E945C5941
:1046A0000C94D31983E591E00E94F10B82E390E032
:1046B0000E94F10B88E591E00E94F10BEE24E39457
:1046C00010E000E020E04091370760E087E591E0EE
:1046D0000E94FE0B80919D0490919E040197C9F465
:1046E00020E04091370760E083E591E00E94FE0BF7
:1046F00081E08093C70340E050E0BA018FE49CE082
:104700000E94F1940E94545483E10E944B530C94F4
:10471000D3191092200C1092210C10922A0C109296
:104720002B0C42E350E060E070E088E19CE00E94E6
:10473000F194DECF0E9454548AE10E944B530C94B2
:10474000D3192091110290910E0280910D02409197
:104750002706509128064250510942305105A0F0D9
:10476000293018F42F5F20931102993018F49F5FBD
:1047700090930E02863018F48F5F80930D028BE1C8
:104780000E944B530C94D3192F5F209311029F5F0B
:1047900090930E02F1CF40913707809127069091B8
:1047A00028060497EE24E39410E000E020E061E0A6
:1047B000029730F48AE691E00E94FE0B0C94D31924
:1047C0008CE390E00E94FE0B0C94D31981E080935F
:1047D000130280911C04882319F180914D0C8823C9
:1047E00051F0ECEBF8E0459155916591749185E4B9
:1047F0009CE00E94F19480912706909128060497EE
:10480000029770F46091130270E088E99AE30E94C5
:104810006BABAB0170E060E087E495E10E94F1943E
:104820008CE10E944B530C94D31982E080931302C5
:1048300080911C04882319F180914D0C882351F03C
:10484000E0ECF8E0459155916591749185E49CE028
:104850000E94F19480912706909128060497029770
:1048600070F46091130270E088E99AE30E946BABE8
:10487000AB0170E060E087E495E10E94F1948DE186
:104880000E944B530C94D31983E0809313028091C0
:104890001C04882319F180914D0C882351F0E4EC1D
:1048A000F8E0459155916591749185E49CE00E94F2
:1048B000F19480912706909128060497029770F44E
:1048C0006091130270E088E99AE30E946BABAB0140
:1048D00070E060E087E495E10E94F1948EE10E942F
:1048E0004B530C94D31984E08093130280911C04E1
:1048F000882319F180914D0C882351F0E8ECF8E001
:10490000459155916591749185E49CE00E94F194E4
:1049100080912706909128060497029770F4609181
:10492000130270E088E99AE30E946BABAB0170E080
:1049300060E087E495E10E94F1948FE10E944B537F
:104940000C94D31985E08093130280911C04882372
:1049500019F180914D0C882351F0ECECF8E0459171
:1049600055916591749185E49CE00E94F194809149
:104970002706909128060497029770F4609113021D
:1049800070E088E99AE30E946BABAB0170E060E0F5
:1049900087E495E10E94F19480E20E944B530C94CD
:1049A000D31981E00E9477970C94D31982E00E947A
:1049B00077970C94D31983E00E9477970C94D319BE
:1049C00084E00E9477970C94D31985E00E94779732
:1049D0000C94D31981E00E941F970C94D31982E0A4
:1049E0000E941F970C94D31983E00E941F970C9488
:1049F000D31984E00E941F970C94D31985E00E947C
:104A00001F970C94D31981E08093C30380911C04F9
:104A1000882311F40C94D3198091C60381110C944E
:104A2000D319409137078091270690912806E12CF1
:104A300010E000E020E061E0029749F489E891E0AD
:104A40000E94FE0B81E08093C6030C94D31982E68A
:104A500090E0F6CF8091C303882351F08091270620
:104A600090912806029751F489E891E00E94F10B99
:104A70001092C3031092C6030C94D31982E690E0FF
:104A8000F5CF81E08093C40390911C04992311F425
:104A90000C94D3199091C50391110C94D319809360
:104AA000C503809113028530D9F08091270690913B
:104AB0002806039711F583E690E00E94F10B4091E0
:104AC00037078091270690912806E12C10E000E03E
:104AD00020E061E00297A1F489E891E00E94FE0BDA
:104AE000E12C10E000E020E04091370761E088E42D
:104AF00090E00E94FE0B0C94D3198EE791E0DDCF7D
:104B000082E690E0EBCF8091C403882319F188E41A
:104B100090E00E94F10B809113028530D9F08091D2
:104B20002706909128060297D9F489E891E00E941F
:104B3000F10B409137078091270690912806E12CD0
:104B400010E000E020E061E0039769F483E690E084
:104B50000E94FE0B1092C4031092C5030C94D3194B
:104B600082E690E0E4CF8FE791E0F2CF10929C04D0
:104B700010929B041092AC071092AD0780911F0613
:104B800090912006019721F08AE490E00E94F10BB9
:104B9000E12C10E000E020E04091370760E08AE47B
:104BA00090E00E94FE0B0C94D31981E090E090936A
:104BB0009C0480939B041092AC071092AD078091E7
:104BC0001F0690912006019721F08EE690E00E944A
:104BD000F10BE12C10E000E020E04091370760E0AD
:104BE0008EE690E00E94FE0B0C94D31910929C0468
:104BF00010929B041092AC071092AD0780911F0693
:104C000090912006019741F089E490E00E94F10B19
:104C10008AE490E00E94F10BE12C10E000E020E03B
:104C20004091370760E08AE490E00E94FE0B0C940C
:104C3000D31981E090E090939C0480939B041092A0
:104C4000AC071092AD0780911F0690912006019746
:104C500041F08FE690E00E94F10B8EE690E00E941A
:104C6000F10BE12C10E000E020E04091370760E01C
:104C70008EE690E00E94FE0B0C94D31982E090E047
:104C800090939C0480939B04809129028823C1F017
:104C90000E9415A628E030E040E050E00E94D9A72D
:104CA0009B01AC01295F3F4F4F4F5F4FA8EEB3E030
:104CB0000E94F8A7AB01BC0184EA97E00E94F1943E
:104CC00080911F0690912006019741F08AE490E0C0
:104CD0000E94F10B89E490E00E94F10BE12C10E0BE
:104CE00000E020E04091370760E089E490E00E9416
:104CF000FE0B0C94D31982E090E090939C04809377
:104D00009B04809129028823C1F00E9415A628E007
:104D100030E040E050E00E94D9A79B01AC01295F40
:104D20003F4F4F4F5F4FA8EEB3E00E94F8A7AB0193
:104D3000BC0184EA97E00E94F19480911F06909153
:104D40002006019741F08EE690E00E94F10B8FE67D
:104D500090E00E94F10BE12C10E000E020E0409197
:104D6000370760E08FE690E00E94FE0B0C94D319A9
:104D700081E0809388040E9454960C94D31988E2B1
:104D800090E00E94F10BEE24E39410E000E020E0BC
:104D90004091370760E088E290E00E94FE0B88E5D2
:104DA00090E00E94F10B85E690E00E94F10B89E50E
:104DB00090E00E94F10B20E04091370760E089E528
:104DC00090E00E94FE0B0C94D31988E290E00E94C0
:104DD000F10BEE24E39410E000E020E0409137076F
:104DE00060E088E290E00E94FE0B89E590E00E947E
:104DF000F10B85E690E00E94F10B88E590E00E94BF
:104E0000F10B20E04091370760E088E590E00E94D8
:104E1000FE0B0C94D31988E290E00E94F10BEE2473
:104E2000E39410E000E020E04091370760E088E282
:104E300090E00E94FE0B89E590E00E94F10B88E56E
:104E400090E00E94F10B85E690E00E94F10B20E0DB
:104E50004091370760E085E690E00E94FE0B0C94DD
:104E6000D3198AE990E00E94F10B89E990E00E9451
:104E7000F10BEE24E39410E000E020E040913707CE
:104E800060E089E990E00E94FE0B0C94D3198AE956
:104E900090E00E94F10B89E990E00E94F10BEE2472
:104EA000E39410E000E020E04091370760E08AE9F9
:104EB00090E00E94FE0B0C94D31980E490E00E94D5
:104EC000F10BEE24E39410E000E020E0409137077E
:104ED00060E080E490E00E94FE0B8CE690E00E948F
:104EE000F10B8AE690E00E94F10B8BE690E00E94C5
:104EF000F10B8AE491E00E94F10B20E0409137072A
:104F000060E08BE690E00E94FE0B0C94D31980E4E5
:104F100090E00E94F10BEE24E39410E000E020E02A
:104F20004091370760E080E490E00E94FE0B8CE641
:104F300090E00E94F10B8AE690E00E94F10B8BE674
:104F400090E00E94F10B8AE491E00E94F10B20E0D6
:104F50004091370760E08AE690E00E94FE0B0C94D7
:104F6000D31980E490E00E94F10BEE24E39410E06A
:104F700000E020E04091370760E080E490E00E948C
:104F8000FE0B8CE690E00E94F10B8AE690E00E9416
:104F9000F10B8BE690E00E94F10B8AE491E00E9415
:104FA000F10B20E04091370760E08CE690E00E9432
:104FB000FE0B0C94D31980E490E00E94F10BEE24D8
:104FC000E39410E000E020E04091370760E080E4E7
:104FD00090E00E94FE0B8CE690E00E94F10B8AE6C6
:104FE00090E00E94F10B8BE690E00E94F10B8AE4C6
:104FF00091E00E94F10B20E04091370760E08AE4E5
:1050000091E00E94FE0B8091C30C9091C40C892BFF
:1050100029F489E00E9473510C94D3198AE00E940C
:1050200073510C94D31980E490E00E94F10BEE24AC
:10503000E39410E000E020E04091370760E080E476
:1050400090E00E94FE0B809195049091960483302D
:10505000910509F45BC08530910509F48AC0019778
:1050600071F582E090E0909396048093950481E03E
:105070008093320288E690E00E94F10B86E690E091
:105080000E94F10B87E690E00E94F10B8CE991E021
:105090000E94F10B20E04091370760E088E690E045
:1050A0000E94FE0B85E10E9473514AEF50E060E0E0
:1050B00070E089E59CE00E94F1940C94D31983E0A0
:1050C00090E0909396048093950488E690E00E9487
:1050D000F10B86E690E00E94F10B87E690E00E94DB
:1050E000F10B8CE991E00E94F10BEE24E39410E0C7
:1050F00000E020E04091370760E087E690E00E9402
:10510000FE0B84E10E9473510C94D31985E090E06A
:1051100090939604809395048091C30C9091C40C55
:10512000892B21F581E08093320288E690E00E948D
:10513000F10B86E690E00E94F10B87E690E00E947A
:10514000F10B8CE991E00E94F10BEE24E39410E066
:1051500000E020E04091370760E08CE991E00E9498
:10516000FE0B87E10E9473510C94D3191092320206
:10517000DCCF81E090E09093960480939504809337
:10518000320288E690E00E94F10B86E690E00E94F1
:10519000F10B87E690E00E94F10B8CE991E00E9410
:1051A000F10BEE24E39410E000E020E0409137079B
:1051B00060E086E690E00E94FE0B83E10E9473515E
:1051C0004AEF50E060E070E089E59CE00E94F194D5
:1051D0000C94D31980E490E00E94F10BEE24E39448
:1051E00010E000E020E04091370760E080E490E0CC
:1051F0000E94FE0B80919704909198048230910553
:1052000009F4C0C0E0F5019709F482C081E090E0A4
:1052100090939804809397049093960480939504B8
:105220008093320288E690E00E94F10B86E690E0DF
:105230000E94F10B87E690E00E94F10B8BE491E075
:105240000E94F10B8CE991E00E94F10BEE24E394B3
:1052500010E000E020E04091370760E086E690E053
:105260000E94FE0B83E10E9473514AEF50E060E020
:1052700070E089E59CE00E94F1940C94D31983308E
:10528000910509F4AEC0059709F684E090E090938B
:1052900098048093970482E090E090939604809322
:1052A00095048091C30C9091C40C892B09F0D4C053
:1052B00081E08093320288E690E00E94F10B86E65E
:1052C00090E00E94F10B87E690E00E94F10B8BE4E6
:1052D00091E00E94F10B8CE991E00E94F10BEE2429
:1052E000E39410E000E020E04091370760E08BE4B9
:1052F00091E00E94FE0B86E10E9473514AEF50E05C
:1053000060E070E089E59CE00E94F1940C94D31970
:1053100082E090E090939804809397049093960491
:105320008093950481E08093320288E690E00E94A9
:10533000F10B86E690E00E94F10B87E690E00E9478
:10534000F10B8BE491E00E94F10B8CE991E00E945B
:10535000F10BEE24E39410E000E020E040913707E9
:1053600060E088E690E00E94FE0B85E10E947351A8
:105370004AEF50E060E070E089E59CE00E94F19423
:105380000C94D31983E090E0909398048093970451
:10539000909396048093950488E690E00E94F10B28
:1053A00086E690E00E94F10B87E690E00E94F10B08
:1053B0008BE491E00E94F10B8CE991E00E94F10BEB
:1053C000EE24E39410E000E020E04091370760E035
:1053D00087E690E00E94FE0B84E10E9473510C94DA
:1053E000D31985E090E0909398048093970490936C
:1053F0009604809395048091C30C9091C40C892BE2
:1054000041F581E08093320288E690E00E94F10B42
:1054100086E690E00E94F10B87E690E00E94F10B97
:105420008BE491E00E94F10B8CE991E00E94F10B7A
:10543000EE24E39410E000E020E04091370760E0C4
:105440008CE991E00E94FE0B87E10E9473510C945D
:10545000D31910923202D8CF109232022CCF809101
:105460002602882339F1109226028CE290E00E94F5
:10547000F10B85E590E00E94F10B84E590E00E943D
:10548000F10BEE24E39410E000E020E040913707B8
:1054900060E08CE290E00E94FE0B20E04091370734
:1054A00060E085E590E00E94FE0B80E20E9473516F
:1054B0000C94D31981E0809326028DE390E00E9442
:1054C000F10B84E590E00E94F10B85E590E00E94ED
:1054D000F10BEE24E39410E000E020E04091370768
:1054E00060E08DE390E00E94FE0B20E040913707E2
:1054F00060E084E590E00E94FE0B81E20E9473511F
:105500000C94D31980912702882339F11092270235
:1055100080E490E00E94F10BEE24E39410E000E0C0
:1055200020E04091370760E080E490E00E94FE0BAD
:1055300086E590E00E94F10B87E590E00E94F10B78
:1055400020E04091370760E087E590E00E94FE0B85
:1055500082E20E9473510C94D31981E08093270258
:105560008FE390E00E94F10BEE24E39410E000E062
:1055700020E04091370760E08FE390E00E94FE0B4F
:1055800086E590E00E94F10B87E590E00E94F10B28
:1055900020E04091370760E086E590E00E94FE0B36
:1055A00083E20E9473510C94D319809120028823C6
:1055B000D9F0109220028BE590E00E94F10B8AE571
:1055C00090E00E94F10BEE24E39410E000E020E074
:1055D0004091370760E08BE590E00E94FE0B85E28A
:1055E0000E9473510C94D31981E0809320028BE5C3
:1055F00090E00E94F10B8AE590E00E94F10BEE240E
:10560000E39410E000E020E04091370760E08AE595
:1056100090E00E94FE0B84E20E9473510C94D31917
:1056200080E790E00E94F10B81E790E00E94F10B8F
:1056300082E790E00E94F10B83E790E00E94F10B7B
:105640009091220240913707809123029923A9F07B
:105650008823D9F11092220210922302EE24E394BF
:1056600010E000E020E060E080E790E00E94FE0BA8
:105670008BE10E9473510C94D319811112C081E007
:1056800080932302EE24E39410E000E020E060E049
:1056900082E790E00E94FE0B89E10E9473510C9416
:1056A000D31981E08093220210922302EE24E39426
:1056B00010E000E020E060E083E790E00E94FE0B55
:1056C0008AE10E9473510C94D31981E080932302E4
:1056D000EE24E39410E000E020E060E081E790E059
:1056E0000E94FE0B88E10E9473510C94D3198DE542
:1056F00090E00E94F10B8CE590E00E94F10BEE240B
:10570000E39410E000E020E04091370760E08DE591
:1057100090E00E94FE0B0C94D3198DE590E00E945E
:10572000F10B8CE590E00E94F10BEE24E39410E085
:1057300000E020E04091370760E08CE590E00E94B7
:10574000FE0B0C94D3198FE390E00E94F10BEE2432
:10575000E39410E000E020E04091370760E08FE341
:1057600090E00E94FE0B85EF90E00E94F10B86EF27
:1057700090E00E94F10B87EF90E00E94F10B88EF20
:1057800090E00E94F10B89EF90E00E94F10B20E085
:105790004091370760E085EF90E00E94FE0B0C948B
:1057A000D3198FE390E00E94F10BEE24E39410E014
:1057B00000E020E04091370760E08FE390E00E9436
:1057C000FE0B85EF90E00E94F10B86EF90E00E94C7
:1057D000F10B87EF90E00E94F10B88EF90E00E94C0
:1057E000F10B89EF90E00E94F10B20E04091370728
:1057F00060E086EF90E00E94FE0B0C94D3198FE3DB
:1058000090E00E94F10BEE24E39410E000E020E031
:105810004091370760E08FE390E00E94FE0B85EF38
:1058200090E00E94F10B86EF90E00E94F10B87EF71
:1058300090E00E94F10B88EF90E00E94F10B89EF5D
:1058400090E00E94F10B20E04091370760E087EF85
:1058500090E00E94FE0B0C94D3198FE390E00E941D
:10586000F10BEE24E39410E000E020E040913707D4
:1058700060E08FE390E00E94FE0B85EF90E00E94D5
:10588000F10B86EF90E00E94F10B87EF90E00E9411
:10589000F10B88EF90E00E94F10B89EF90E00E94FD
:1058A000F10B20E04091370760E088EF90E00E9424
:1058B000FE0B0C94D3198FE390E00E94F10BEE24C1
:1058C000E39410E000E020E04091370760E08FE3D0
:1058D00090E00E94FE0B85EF90E00E94F10B86EFB6
:1058E00090E00E94F10B87EF90E00E94F10B88EFAF
:1058F00090E00E94F10B89EF90E00E94F10B20E014
:105900004091370760E089EF90E00E94FE0B0C9415
:10591000D31980911F04882311F40C94D3190E9489
:105920009A0E0C94D31980911F04882311F40C94BF
:10593000D3190E94CC0E0C94D3190E94FF0E0C9424
:10594000D3190E94310F0C94D3190E94050B80913A
:105950001D0462E070E0811102C061E070E081E24C
:105960000E9425530C94D3198091390780933507F1
:105970008AEB809339070E94F60A0C94D319809120
:105980003507809339070E94F60A0C94D3190E94B8
:10599000060E0C94D3190E94530E0C94D3198091C7
:1059A0001F04882321F00E942F0B0C94D3190E940E
:1059B000540B0C94D3198CE291E00E94F10B8DE210
:1059C00091E00E94F10B8EE291E00E94F10B8FE2D8
:1059D00091E00E94F10B80E391E00E94F10BEE2434
:1059E000E39410E000E020E04091370760E08CE2B3
:1059F00091E00E94FE0B0C94D3198CE291E00E947E
:105A0000F10B8DE291E00E94F10B8EE291E00E9499
:105A1000F10B8FE291E00E94F10B80E391E00E9494
:105A2000F10BEE24E39410E000E020E04091370712
:105A300060E08DE291E00E94FE0B0C94D3198091FE
:105A400038078A3B39F180913B02853008F03FC02E
:105A500010923B0280913B02ACE38A9FC00111246B
:105A600064E670E00E947FAB84EC860F8093380779
:105A7000809335078093390720911F0630912006C7
:105A8000215031092230310528F4082E000C990BE1
:105A90000E94EE7E80912004811114C08091CE037B
:105AA000811110C080E490E00E94F10BEE24E39499
:105AB00010E000E020E04091380760E080E490E0F2
:105AC0000E94FE0B82E10E9473510C94D319855001
:105AD00080933B02BFCF80913B02803608F441C0E7
