:100000000C948A060C94BB060C94BB060C94BB069D
:100010000C94BB060C94BB060C94BB060C94BB065C
:100020000C94BB060C94BB060C94BB060C94BB064C
:100030000C94BB060C94BB060C94BB060C94BB063C
:100040000C94BB060C94BB060C94BB060C94BB062C
:100050000C94BB060C94BB060C94BB060C94C575A3
:100060000C94BB060C9471650C9447650C94BB060C
:100070000C94BB060C94BB060C94BB060C94BB06FC
:100080000C94BB060C94BB060C94BB060C94BB06EC
:100090000C941D650C94F3640C94BB060C947011C5
:1000A0000C94BB060C94BB060C94BB060C94BB06CC
:1000B0000C94BB060C94BB060C94BB060C94BB06BC
:1000C0000C94BB060C94BB060C94BB060C94C96440
:1000D0000C949F640C94BB060C9475640C944B6454
:1000E0000C94BB0605A84CCDB2D44EB93836A90243
:1000F0000C50B9918688083CA6AAAA2ABE00000026
:10010000803F07634236B79BD8A71A39685618AEA6
:10011000BAAB558C1D3CB7CC5763BD6DEDFD753E3C
:10012000F6177231BF000000803F08000000BE9249
:100130002449123EABAAAA2ABECDCCCC4C3E00002C
:100140000080BEABAAAAAA3E00000000BF000000CB
:10015000803F0000000000084178D3BB4387D113E3
:100160003D190E3CC3BD4282AD2B3E68EC8276BE8B
:10017000D98FE1A93E4C80EFFFBE01C4FF7F3F0055
:10018000000000000C947E6B0C947B780C949155CD
:100190000C94F12B0C946B940C94006E0C946C07E3
:1001A0000C94D0930C94D5940C9489900C94610881
:1001B0000C94DD6C0C9484890C94EF6C0C944B6162
:1001C0000C94FF950C9491720C9479800C94CB7CD8
:1001D0000C947E550C9410070C94B4720C945977BF
:1001E0000C948C7B0C9464830C94C3530C94FD97F7
:1001F0000C940B5E0C94C5530C948E930C941B08BA
:100200000C94B4090C94197A0C94E7060C945B9640
:100210000C94186E0C946A7E0C9429850C944B8374
:100220000C94AF8B0C94458A0C94976E0C9472913D
:100230000C94627A0C94DF5E0C9455830C94C75333
:100240000C94C3960C941D090C942B960C94FB8C67
:100250000C94E8820C94DF620C947F600C94A5628D
:100260000C946F920C94D8AD0C9422860C94CF8A87
:100270000C9483540C94AD7A0C94A36E0C94AE0938
:100280000C94DC720C94C36E0C946A0A0C94FC7986
:100290000C94336E0C94276E0C94D2720C943360D1
:1002A0000C943C5E0C94B9820C94D3780C946293B9
:1002B0000C94B0080C94245F0C94FD8A0C94EB8988
:1002C0000C945B820C948B8E0C94AF840C94518CA8
:1002D0000C94798E0C9436940C9487970C94A0947B
:1002E0000C94B4600C9475540C9474610C94296E45
:1002F0000C94A1900C94616B0C942F8C0C941F792E
:100300000C94BB980C94DE7D0C945A830C94356E3F
:100310000C948C840C9449890C94066B0C94C66CD8
:100320000C94B8090C94FE800C9438600C94EF5334
:100330000C947D720C947C850C947D540C94BE7B43
:100340000C94B6530C94A3880C94507D0C94E56CDB
:100350000C94A4930C9430850C94B5080C945B8B8E
:100360000C94D37A0C946D080C944C540C947778BC
:100370000C9495600C94426E0C944A530C94148225
:100380000C94018A0C94B3080C944A840C944F602A
:100390000C947F780C9431080C94327B0C940A797D
:1003A0000C94897C0C9409070C94E5920C94759636
:1003B0000C94E0780C94925E0C94D36C0C94C581F0
:1003C0000C94446E0C948D8B0C94738A0C947893DB
:1003D0000C94877A0C94402A0C944C930C94C297FA
:1003E0000C94CF920C94567A0C942B840C94A39278
:1003F0000C94B17C0C9483780C94338B0C94E506AC
:100400000C9471900C94F57A0C947D7C0C94B70844
:100410000C9426780C9463080C9406550C94A179DE
:100420000C947E790C9421970C94E47A0C94B57C0E
:100430000C944F720C94336B0C948A820C94495434
:100440000C9440820C94F96D0C948D920C94289528
:100450000C94C6520C9482950C94466E0C94C55D17
:100460000C941C920C94797F0C9408620C94578B1A
:100470000C94CD6C0C9487720C94DF600C9479789A
:100480000C94056E0C94226E0C9415960C948F7936
:100490000C9412810C942B6E0C949C540C944E6E04
:1004A0000C94958C0C949B720C94B78C0C94CB533D
:1004B0000C94AA720C946E830C94078B0C945508C0
:1004C0000C94D2610C943F8E0C94987A0C944372E5
:1004D0000C94D7530C943E630C94678E0C94F97F64
:1004E0000C94486E0C94158B0C9464950C9481605C
:1004F0000C941F6E0C94ED540C941E6B0C94C95309
:100500000C94BA930C945F8B0C94D76C0C94568516
:100510000C94D98C0C9473830C943D070C945990D3
:100520000C94C0550C94A6780C94F37E0C94457AE8
:100530000C9478830C949FAC0C9421540C94B2636B
:100540000C94A9600C94EA540C9489550C9424558D
:100550000C9441960C94A2850C943E6E0C94316ED2
:100560000C943B7A0C9434790C94CE7C0C94077CDC
:100570000C94AD550C94E6060C942A6B0C94E37B1A
:100580000C94E16C0C94E6930C94CD530C94F46DA4
:100590000C94067B0C9438980C942A7A0C94088E50
:1005A0000C94C86B0C946B7B0C94C72A0C94FF962C
:1005B0000C942F540C94DA780C94AC910C946372D4
:1005C0000C94E9950C9406540C94F36C0C94E18B08
:1005D0000C9494610C94848D0C94146E0C94256E80
:1005E0000C94526E0C940A7C0C946F540C94B79833
:1005F0000C94B3980C94517C0C9442550C94D39564
:100600000C94376E0C945D080C94198B0C94B68383
:100610000C9484860C94FC930C94CE850C9450839B
:100620000C94A57B0C9417830C9480540C945E60FE
:100630000C94F8830C94C8720C941B6E0C94952B3C
:100640000C9481780C9431630C940A950C944A7242
:100650000C94C0620C9420930C9451920C94A99623
:100660000C94E8980C94F8850C94D1530C94F96C84
:100670000C94C8600C94C20C0C9443970C94DD96B7
:100680000C942A990C945A870C942E5E0C94248F07
:100690000C940D2B0C9433080C949F830C94767A55
:1006A0000C946D790C942D6E0C949A600C949E8D24
:1006B0000C94EB6C0C9465970C94B8850C94B978F9
:1006C0000C94738C0C94BE720C947F810C94A18A50
:1006D0000C94F4600C942F6E0C940D820C9479544D
:1006E0000C94CA6C0C94F5780C9482550C94469535
:1006F0000C945F080C94278E0C94B86C0C94BD95E8
:100700000C94BE6C0C94BE7A0C944C860C94407A7B
:100710000C941A5E0C9472540C941D8D0C947B2ACC
:100720000C94B88D0C9470600C940B7B0C945F83CC
:100730000C94F57B0C9459720C94B1090C94317C97
:100740000C94FD6C0C94C68F0C946D720C94B99043
:100750000C94178A0C946B8B0C94A77C0C942F8DA3
:100760000C94506E0C9486600C9475720C946055C9
:100770000C94542B0C941D540C948F960C94F606E8
:100780000C9436930C94EC840C9435620C94118B7D
:100790000C9469840C9469830C94C26C0C94E75497
:1007A0000C94C9810C94A7600C94746E0C940C8EFC
:1007B0000C94578E0C94FF790C946A8D0C94B9921A
:1007C0000C94F6880C9403610C94E4060C947D78E8
:1007D0000C940D8C0C9478760C9446830C940A6ED1
:1007E0000C94048E0C94F86C0C9493600C94C32BB2
:1007F0000C945D7C5761726E696E673A2043616C40
:1008000063756C61746564206D7573696320636FD3
:10081000756E74206578636565647320343039368D
:100820003B205344206361726420636F7272757061
:1008300074696F6E206C696B656C7921000102032D
:100840000405060708090A0B0C0D0E0F10111213F0
:100850001415161718191A1B1C1D1E1F20212223E0
:100860002425262728010203040506070809000A93
:100870000B0C0D0E0F10111200131415161718196A
:100880001A1B001C1D1E1F2021222324000102030D
:1008900004050000000000060708090A0000000027
:1008A000000B0C0D0E0F00000000001011121314AD
:1008B000000000000001020300000000000000042E
:1008C0000506000000000000000708090000000005
:1008D0000000000A0B0C00000000000000001C12C9
:1008E0000A041F160D02110C07010A0704000A1260
:1008F0001C040D161F02070C110104070A00010257
:10090000030405060708090A0B0C0D0E000102037B
:100910000405060708090A0B0C0E0D0C0B0A090842
:1009200007060504030201000C0B0A090807060567
:100930000403020100417474656E7561746F722066
:1009400053796E6320456E6400417474656E756101
:10095000746F722053796E63205374617274004116
:100960007474656E7561746F722053796E6368720A
:100970006F6E697A65640047657474696E672050AC
:1009800061636B20507265666572656E63657300A6
:1009900047657474696E6720536D6F6B6520507284
:1009A00065666572656E636573004E6F20417564A0
:1009B000696F20446576696365005573696E6720C9
:1009C0005741562054726967676572005761726EAD
:1009D000696E673A205253505F53595354454D5FE7
:1009E000494E464F206E6F74207265636569766567
:1009F0006421005573696E672047505374617220FB
:100A0000417564696F00436F6E6669677572652032
:100A1000506F776572204D6574657200556E616226
:100A20006C6520746F2066696E6420706F776572E4
:100A3000206D6F6E69746F72696E67206465766988
:100A40006365206F6E206932632E20506F77657268
:100A5000206D6574657220666561747572657320BA
:100A600077696C6C2062652064697361626C65648F
:100A70002E00496E697420706F776572206D657401
:100A800065722E2E2E004552524F523A204E6F2044
:100A900063616C6C6261636B20617661696C616239
:100AA0006C6520666F72207061636B6574204944C9
:100AB0002000000000006410B71DC8206E3BAC3061
:100AC000D9269041DC76F4516B6B5861B24D3C7184
:100AD00005502083B8ED44930FF0E8A3D6D68CB32D
:100AE00061CBB0C2649BD4D2D38678E20AA01CF258
:100AF000BDBD57616E642053796E6320456E6400FE
:100B000057616E642053796E632053746172740070
:100B100057616E642053796E6368726F6E697A658F
:100B20006400526563762E2057616E6420536D6FAA
:100B30006B6520507265667300526563762E205790
:100B4000616E6420436F6E666967205072656673DC
:100B500000536176696E6720536D6F6B652050722C
:100B600065666572656E63657300536176696E676D
:100B70002057616E6420507265666572656E6365AC
:100B80007300536176696E67205061636B20507209
:100B900065666572656E63657300526563762E20C7
:100BA000536D6F6B6520436F6E66696700526563B6
:100BB000762E2057616E6420436F6E66696700521F
:100BC0006563762E205061636B20436F6E666967A4
:100BD00000B80BB80BAC0DAC0DA00F3075983A10E7
:100BE000274C1D70173D0064016501660167010017
:100BF000002100240027002A002D003000330001CE
:100C0000010000040107010A01000022002500285C
:100C1000002B002E00310034000201000005010805
:100C2000010B01000020002300260029002C002FCA
:100C3000003200000100000301060109010505055D
:100C400005070508080808020202020A0A08080443
:100C50000404040101010101010101030303030371
:100C6000030303040707070C0C0C0C0C0C0C0C0200
:100C700002020206060606060606060B0B0B0B0B07
:100C80000B0B0B0102102020080810204010204000
:100C90008002010201080402010102040810204040
:100CA000808040201008040201800402018040205E
:100CB0001008040201080402010102040810204087
:100CC00080010204081020408000000A0B02090C79
:100CD0000D0E0807030401000000000000000000E2
:100CE0000000000000000000000000000000000004
:100CF00000000000001211100000000000000000C1
:100D000000000000000000000000000000000000E3
:100D1000D8AD787611241FBECFEFD1E2DEBFCDBFB4
:100D200000E00CBF13E0A0E0B2E0E8E7F3E701E089
:100D30000BBF02C007900D92A634B107D9F729E185
:100D4000A6E4B3E001C01D92AB36B207E1F716E0AE
:100D5000C9E8D6E000E006C021970109802FFE0116
:100D60000E9414B4C838D10780E00807A9F70E9490
:100D70007C760C94AAB90C9400002091D004260F24
:100D80003327331F21323105ECF420916807FC0131
:100D900090E080E0243069F082E00895A091D004D2
:100DA0002191AC0142555B4FA40FB52FB11D2C937F
:100DB0000196861798F38091D004680F6093D00451
:100DC00080E0089581E00895089508950895E091E0
:100DD000210780912007E81730F4F0E0EE5DF84F2E
:100DE000808190E008958FEF9FEF08959091210703
:100DF000809120072FEF3FEF981748F4E92FF0E09C
:100E0000EE5DF84F208130E09F5F90932107C9018C
:100E100008958091200790912107891B990B0895CF
:100E2000CF92DF92EF92FF920F931F93CF93DF93B6
:100E30007C01CB018A0120919007222389F0EB01EC
:100E40006B01C40ED51ECC15DD0569F06991D70183
:100E5000ED91FC910190F081E02DC7011995F3CF40
:100E6000642F0E94BD06C801DF91CF911F910F91A1
:100E7000FF90EF90DF90CF900895CF93DF931F9274
:100E8000CDB7DEB76983209190072223F9F0209136
:100E90008E07203258F021E030E0FC0133832283BA
:100EA00090E080E00F90DF91CF91089580918F07BF
:100EB000E82FF0E0E259F84F998190838F5F80939B
:100EC0008F0780938E0781E090E0ECCF61E0CE0148
:100ED00001960E94BD06F7CF90E080E00895FC01E6
:100EE00020893189848595852817390741F481E067
:100EF00042895389268537854217530709F080E0D8
:100F00000895FC012089318986859785281739073E
:100F100041F481E04289538924853585421753077E
:100F200009F080E00895AF92BF92CF92DF92EF92E6
:100F3000FF920F931F93CF93DF9300D0CDB7DEB70F
:100F40005A0119821A821B82882361F18B01E1E028
:100F5000F0E0E82EF12CD8012D918D012223F1F043
:100F60006F01B1E0CB1AD108D501AC0DBD1D4C917C
:100F70004423A1F030E02F5F3F4FD7010E94D1B34F
:100F8000A42FB0E011969B01AC010E949CB3A1E09C
:100F9000B0E0AC0FBD1FAC0DBD1D8C933196E4309D
:100FA000F105C9F669817A818B810F900F900F90BE
:100FB000DF91CF911F910F91FF90EF90DF90CF9035
:100FC000BF90AF900895FC0184E992E09183808303
:100FD000138212828FEF868387838087818782873F
:100FE000838781E0848785871786168680E797E167
:100FF000918B808B83E090E0938B828B158A148A8F
:10100000158214828091650690916606892B21F4E1
:10101000F0936606E0936506A091AB04B091AC0432
:10102000109721F01596FC93EE931497F093AC046F
:10103000E093AB04089581E090E00895982F683024
:10104000F0F4E62FF0E08827E75DF74F8F4F0C9420
:1010500014B433086D0855085D0831085F0861084D
:1010600063088CE10895933020F4913040F085E0DE
:101070000895933031F09430D1F381E0089584E104
:101080000895809196078F5F853068F4982F93704C
:1010900051F08093960780919607813071F08230ED
:1010A00061F38DE0089581E0F4CF809199079091EC
:1010B0009A070397A1F483E008958BE0089589E1EE
:1010C000089588E10895923031F0943021F0911123
:1010D00008C08DE108958FE1089583E108958FE0C0
:1010E00008958EE108950F931F93CF93DF9320917E
:1010F000AA042F5F322F37703093AA0420FF2BC031
:1011000020E831FD2064347009F02062205FFC018A
:10111000EC01239600E011E06785662329F070E07A
:10112000C8010E9400B46F5F6187822F869F080EFE
:1011300080E0811D1124811110C01682662311F0F8
:10114000615061873196EC17FD0731F7DF91CF9140
:101150001F910F91089520E0D4CF81508683EECF68
:1011600080E991E00895209A0895279A08956F9252
:101170007F928F92CF92DF92EF92FF920F931F9305
:10118000CF93DF93CDB7DEB762970FB6F894DEBF8B
:101190000FBECDBF8C016B017A01822FA801475F82
:1011A0005F4FB8016A5F7F4F0E9493073B01882E13
:1011B000D8011C962C91C701F7FE04C088279927F7
:1011C0008E199F09DA82C9829C838B839E838D83CB
:1011D000688A798A8A8A213049F5CE0101960E946F
:1011E000730883E08D871F861E86F7FE02C08DEF91
:1011F0008D87D801ED91FC910088F189E02DBE0129
:101200006F5F7F4FC801199562960FB6F894DEBFE5
:101210000FBECDBFDF91CF911F910F91FF90EF9047
:10122000DF90CF908F907F906F9008951C861B86E3
:101230001A86198618861F82D4CFCF92DF92EF923A
:10124000FF920F931F93CF93DF93CDB7DEB76297D3
:101250000FB6F894DEBF0FBECDBF8C016B017A01D3
:10126000822FA801475F5F4FB8016A5F7F4F0E94DE
:1012700093079B01482FD8011C968C91DA82C98272
:10128000FC82EB82FE82ED82288B398B4A8B813087
:1012900009F5CE0101960E9473081D861F861E86E1
:1012A000D801ED91FC910088F189E02DBE016F5FBE
:1012B0007F4FC801199562960FB6F894DEBF0FBE36
:1012C000CDBFDF91CF911F910F91FF90EF90DF90F5
:1012D000CF9008951C861B861A86198618861F8251
:1012E000DCCF843008F080E090914502E82FF0E0F8
:1012F00080911502882399F0943259F0983261F068
:10130000943121F0E750F74F84910895EB50F74F57
:10131000FBCFEF50F74FF8CFE351F74FF5CF9432B3
:1013200051F0983259F0943119F0E751F74FECCF62
:10133000EB51F74FE9CFEF51F74FE6CFE352F74FBD
:10134000E3CF853608F084E62FEF829FC001112499
:1013500064E670E00E9400B4862F089590E080E07B
:101360000895FC0164870895FC01848590E0089548
:10137000FC018685978508950F931F93CF93DF9384
:10138000EC018C01055E1D4FD8018D919C91DC0113
:10139000ED91FC910084F185E02D1995892B59F090
:1013A000F80180819181DC01ED91FC910284F3854B
:1013B000E02D1995E9CFCE010E94586AFE01E65E44
:1013C000FD4FCD5FDD4F88818083DF91CF911F91ED
:1013D0000F9108951092680781E08093670710923B
:1013E000420761E084E10E94A57161E085E10E940D
:1013F000A571E9EBF0E080818E7F808380818D7F15
:10140000808388E48093B80085E48093BC000895CD
:10141000CF92DF92EF92FF920F931F93CF93DF93C0
:10142000EC0188810E947C718C010E94B9752C8925
:101430003D892017310731F06E8B7F8B888F998F14
:101440001D8B0C8BCE88DF88E88CF98C6C197D099C
:101450008E099F09CA80DB80EC80FD806C157D05BC
:101460008E059F0530F08A899B89998B888B1B8B11
:101470000A8B288939898A899B892817390781F03D
:101480004A855B8542305105A1F48E819F81A885F4
:10149000B9850196A11DB11D8E839F83A887B98749
:1014A000DF91CF911F910F91FF90EF90DF90CF9040
:1014B00008954115510531F42130310589F7892B03
:1014C00021F3EECF4130510559F7232B49F701970E
:1014D00039F7DBCF4F925F927F928F929F92AF92BC
:1014E000BF92CF92DF92EF92FF920F931F93CF9311
:1014F000DF932C01EB010E94E172F201268937890A
:10150000621B730B6A307105B0F3F8948A819B817A
:10151000181619060CF0CBC1E881F98105B10160FC
:1015200075B17E7F75B9BA848F812B2D281B822FD0
:101530002F834C85042E000C550BAA81BB81E888B3
:10154000DF84C988E394D394C3949E8138859984B9
:101550008B84118120E0F32E622F322F31811127ED
:1015600088943111380F08F43FEF81958894E0FC9E
:10157000130F17958894E1FC130F17958894E2FCDC
:10158000130F17958894E3FC130F17958894E4FCC8
:10159000130F17958894E5FC130F17958894E6FCB4
:1015A000130F17958894E7FC130F17958894232F32
:1015B000E110212F8B0D122F002C05B900C017FF51
:1015C00075B930812227889400C000C0002C75B9FD
:1015D0003111390F00C0002C05B900C016FF75B9D4
:1015E00008F43FEF9195889400C000C0002C75B9B5
:1015F000D0FC230F00C0002C05B900C015FF75B941
:1016000027958894D1FC230F00C000C0002C75B929
:101610002795889400C0002C05B900C014FF75B947
:10162000D2FC230F2795889400C000C0002C75B908
:10163000D3FC230F00C0002C05B900C013FF75B9FF
:1016400027958894D4FC230F00C000C0002C75B9E6
:101650002795889400C0002C05B900C012FF75B909
:10166000D5FC230F2795889400C000C0002C75B9C5
:10167000D6FC230F00C0002C05B900C011FF75B9BE
:1016800027958894D7FC230F00C000C0002C75B9A3
:101690002795889400C0002C05B900C010FF75B9CB
:1016A000132FD110122F990D00C000C0002C75B956
:1016B00000C000C0002C05B900C017FF75B9328109
:1016C0002227889400C000C0002C75B931113F0D4D
:1016D00000C0002C05B900C016FF75B908F43FEF33
:1016E000E40FF51F00C000C0002C75B9C0FC230F2B
:1016F00000C0002C05B900C015FF75B92795889466
:10170000C1FC230F00C000C0002C75B92795889438
:1017100000C0002C05B900C014FF75B9C2FC230F2E
:101720002795889400C000C0002C75B9C3FC230F16
:1017300000C0002C05B900C013FF75B92795889427
:10174000C4FC230F00C000C0002C75B927958894F5
:1017500000C0002C05B900C012FF75B9C5FC230FED
:101760002795889400C000C0002C75B9C6FC230FD3
:1017700000C0002C05B900C011FF75B927958894E9
:10178000C7FC230F00C000C0002C75B927958894B2
:1017900000C0002C05B900C010FF75B9132FC1108F
:1017A000122FF19400C000C0002C75B9F80C00C0D5
:1017B00000C005B900C017FF75B931812227889490
:1017C00000C000C0002C75B93111380F00C0002CCA
:1017D00005B900C016FF75B908F43FEF81958894EC
:1017E00000C000C0002C75B9E0FC230F00C0002C25
:1017F00005B900C015FF75B927958894E1FC230F42
:1018000000C000C0002C75B92795889400C0002C3A
:1018100005B900C014FF75B9E2FC230F2795889421
:1018200000C000C0002C75B9E3FC230F00C0002CE1
:1018300005B900C013FF75B927958894E4FC230F00
:1018400000C000C0002C75B92795889400C0002CFA
:1018500005B900C012FF75B9E5FC230F27958894E0
:1018600000C000C0002C75B9E6FC230F00C0002C9E
:1018700005B900C011FF75B927958894E7FC230FBF
:1018800000C000C0002C75B92795889400C0002CBA
:1018900005B900C010FF75B9132FE110122F8B0D81
:1018A00000C000C0002C75B9119709F086CEEA81FE
:1018B000FB812EE130E0DF010E941CB430E020E02B
:1018C000A901AAE9EA9F0E0E411DFA9F400D511D84
:1018D00011244F0F511DDC01CB01840F951FA11D59
:1018E000B11D893E43E09407A105B10508F434C059
:1018F000885E9340A109B10942E0B695A7959795F6
:1019000087954A95D1F747E0849F080E211D949F43
:10191000200D311D1124290F311D6091A90470E0A3
:10192000860F971F820F931F40911C0750911D0730
:1019300060911E0770911F07292F3327420F531FF5
:10194000611D711D40931C0750931D0760931E0776
:1019500070931F078093A90478940E94E172F201AA
:10196000778B668BDF91CF911F910F91FF90EF9056
:10197000DF90CF90BF90AF909F908F907F905F90BF
:101980004F9008954F925F927F928F929F92AF9265
:10199000BF92CF92DF92EF92FF920F931F93CF935C
:1019A000DF932C01EB010E94E172F2012689378955
:1019B000621B730B6A307105B0F3F8948A819B81C6
:1019C000181619060CF0CBC1E881F98105B1006841
:1019D00075B17F7775B9BA848F812B2D281B822F23
:1019E0002F834C85042E000C550BAA81BB81E888FF
:1019F000DF84C988E394D394C3949E813885998405
:101A00008B84118120E0F32E622F322F3181112738
:101A100088943111380F08F43FEF81958894E0FCE9
:101A2000130F17958894E1FC130F17958894E2FC27
:101A3000130F17958894E3FC130F17958894E4FC13
:101A4000130F17958894E5FC130F17958894E6FCFF
:101A5000130F17958894E7FC130F17958894232F7D
:101A6000E110212F8B0D122F002C05B900C017FF9C
:101A700075B930812227889400C000C0002C75B948
:101A80003111390F00C0002C05B900C016FF75B91F
:101A900008F43FEF9195889400C000C0002C75B900
:101AA000D0FC230F00C0002C05B900C015FF75B98C
:101AB00027958894D1FC230F00C000C0002C75B975
:101AC0002795889400C0002C05B900C014FF75B993
:101AD000D2FC230F2795889400C000C0002C75B954
:101AE000D3FC230F00C0002C05B900C013FF75B94B
:101AF00027958894D4FC230F00C000C0002C75B932
:101B00002795889400C0002C05B900C012FF75B954
:101B1000D5FC230F2795889400C000C0002C75B910
:101B2000D6FC230F00C0002C05B900C011FF75B909
:101B300027958894D7FC230F00C000C0002C75B9EE
:101B40002795889400C0002C05B900C010FF75B916
:101B5000132FD110122F990D00C000C0002C75B9A1
:101B600000C000C0002C05B900C017FF75B9328154
:101B70002227889400C000C0002C75B931113F0D98
:101B800000C0002C05B900C016FF75B908F43FEF7E
:101B9000E40FF51F00C000C0002C75B9C0FC230F76
:101BA00000C0002C05B900C015FF75B927958894B1
:101BB000C1FC230F00C000C0002C75B92795889484
:101BC00000C0002C05B900C014FF75B9C2FC230F7A
:101BD0002795889400C000C0002C75B9C3FC230F62
:101BE00000C0002C05B900C013FF75B92795889473
:101BF000C4FC230F00C000C0002C75B92795889441
:101C000000C0002C05B900C012FF75B9C5FC230F38
:101C10002795889400C000C0002C75B9C6FC230F1E
:101C200000C0002C05B900C011FF75B92795889434
:101C3000C7FC230F00C000C0002C75B927958894FD
:101C400000C0002C05B900C010FF75B9132FC110DA
:101C5000122FF19400C000C0002C75B9F80C00C020
:101C600000C005B900C017FF75B9318122278894DB
:101C700000C000C0002C75B93111380F00C0002C15
:101C800005B900C016FF75B908F43FEF8195889437
:101C900000C000C0002C75B9E0FC230F00C0002C70
:101CA00005B900C015FF75B927958894E1FC230F8D
:101CB00000C000C0002C75B92795889400C0002C86
:101CC00005B900C014FF75B9E2FC230F279588946D
:101CD00000C000C0002C75B9E3FC230F00C0002C2D
:101CE00005B900C013FF75B927958894E4FC230F4C
:101CF00000C000C0002C75B92795889400C0002C46
:101D000005B900C012FF75B9E5FC230F279588942B
:101D100000C000C0002C75B9E6FC230F00C0002CE9
:101D200005B900C011FF75B927958894E7FC230F0A
:101D300000C000C0002C75B92795889400C0002C05
:101D400005B900C010FF75B9132FE110122F8B0DCC
:101D500000C000C0002C75B9119709F086CEEA8149
:101D6000FB812EE130E0DF010E941CB430E020E076
:101D7000A901AAE9EA9F0E0E411DFA9F400D511DCF
:101D800011244F0F511DDC01CB01840F951FA11DA4
:101D9000B11D893E43E09407A105B10508F434C0A4
:101DA000885E9340A109B10942E0B695A795979541
:101DB00087954A95D1F747E0849F080E211D949F8F
:101DC000200D311D1124290F311D6091A90470E0EF
:101DD000860F971F820F931F40911C0750911D077C
:101DE00060911E0770911F07292F3327420F531F41
:101DF000611D711D40931C0750931D0760931E07C2
:101E000070931F078093A90478940E94E172F201F5
:101E1000778B668BDF91CF911F910F91FF90EF90A1
:101E2000DF90CF90BF90AF909F908F907F905F900A
:101E30004F9008950F931F93CF93DF9300D000D05E
:101E4000CDB7DEB78FEF9FEFDC0189839A83AB8339
:101E5000BC8310E000E01E830D83BE016B5F7F4FEB
:101E6000CE0101960E949B65BE016A5F7F4FCE0145
:101E700001960E949B650F5F1F4F0D32110559F7A8
:101E80008BE190E09E838D83BE016B5F7F4FCE011F
:101E900001960E949B65BE016A5F7F4FCE0101964D
:101EA0000E949B6582E190E09E838D83BE016B5F03
:101EB0007F4FCE0101960E949B65BE016A5F7F4FF6
:101EC000CE0101960E949B6569817A818B819C81FC
:101ED000609570958095909526960FB6F894DEBF24
:101EE0000FBECDBFDF91CF911F910F910895FF924B
:101EF0000F931F93CF93DF93EC01F62E0881198186
:101F0000C8010E9467B3F81621F06F2DC8010E9426
:101F10006FB3CE01DF91CF911F910F91FF90089584
:101F2000EF92FF920F931F93CF93DF9300D000D0D7
:101F3000CDB7DEB70E941A0F69837A838B839C83A7
:101F4000CE0101967C010CEF1FE01E830D83F7018B
:101F500061917F01CE0105960E94770F0F5F1F4FA1
:101F60000115F0E11F0789F726960FB6F894DEBF3A
:101F70000FBECDBFDF91CF911F910F91FF90EF90DA
:101F800008958F929F92AF92BF92CF92DF92EF927D
:101F9000FF920F931F93CF93DF931F921F92CDB7A2
:101FA000DEB78C0119828FEF8A83680125EEC21A91
:101FB0002DEFD20AD6018D919C91DC01ED91FC911F
:101FC0000084F185E02D1995F801E75EFD4F7F0152
:101FD000892B09F449C081E089834801FDEF8F1AFC
:101FE0009F0A580126EEA21A2DEFB20AD6018D9152
:101FF0009C91DC01ED91FC910084F185E02D199517
:10200000892B09F1F60180819181DC01ED91FC9130
:102010000284F385E02D19958A83AE014F5F5F4FEF
:10202000BE016E5F7F4FC8010E94906AF7018083F6
:10203000D4018C91F50180838330C1F218161CF015
:10204000C8010E94BC09F70180810F900F90DF91B9
:10205000CF911F910F91FF90EF90DF90CF90BF90A5
:10206000AF909F908F900895AE014F5F5F4FBE017C
:102070006E5F7F4FC8010E94906AD7018C93F80170
:10208000ED5FFD4F808177968083D8CFBF92CF924E
:10209000DF92EF92FF920F931F93CF93DF931F92E4
:1020A000CDB7DEB78C016B01B42EDB018D919C9115
:1020B000F801E15FFD4F7F018F3F910508F475C086
:1020C0008FEF80836801F80180E091919E3709F0DD
:1020D00067C0D7018C9344EA52E0B801C8010E945E
:1020E000706A4091750A5091760A980122503F4FCC
:1020F00080E0D601ED916D01E827E40FF52FF11D89
:1021000080812A173B07A9F7F801E350FE4FB08200
:10211000F7019081F801E250FE4F90839EEF3196D7
:102120009083319680838EEFF82E6801B5EECB1A3E
:10213000BDEFDB0AF60180819181B80164507E4FCA
:10214000DC01ED91FC910280F381E02D44E050E050
:102150001995F601808191814F2D50E0DC01ED91C0
:10216000FC910280F381E02DB8011995F601808180
:102170009181B8017E5FDC01ED91FC910280F381D9
:10218000E02D42E050E019958F2D0F90DF91CF9117
:102190001F910F91FF90EF90DF90CF90BF90089527
:1021A0008F5F8E3F09F091CF96CF982F8FEF80836E
:1021B000F80180E0891728F421912E3719F5F701ED
:1021C0008083D6018C918983AE014F5F5F4FB80148
:1021D000C8010E94706AF601208131814091750A20
:1021E0005091760AD80180E03327BD01601B710B46
:1021F0006217730748F4ED91E827E40FF52FF11DFE
:102200008081F3CF8F5FD6CFF801E350FE4FB082CD
:10221000D7019C9131969083F6019081F801E150AD
:10222000FE4F908331968083D601FC907ECFCF9372
:10223000DF9391E09093AD048823B9F0C091B8008A
:10224000D091BA008091BC008A7B8093BC0060E092
:1022500084E10E94A57160E085E10E94A5710E9461
:10226000EA09D093BA00C093B800DF91CF910895E6
:1022700085ED8093BC0080916A0790916B07A091D7
:102280006C07B0916D070796A11DB11D23E0B695AF
:10229000A795979587952A95D1F72091BC0024FDA5
:1022A00003C010926807089540916A0750916B0728
:1022B00060916C0770916D07452B462B472B69F396
:1022C0000097A105B10541F02AE22A95F1F700C077
:1022D0000197A109B109E1CF809169070C94171109
:1022E0001F920F920FB60F9211240BB60F922F93DD
:1022F0003F934F935F936F937F938F939F93AF938E
:10230000BF93EF93FF938091B900887F803609F4E3
:102310004DC008F040C0883209F4A9C028F58031CA
:1023200009F49DC0C8F4882309F4FBC0883009F47F
:1023300096C0FF91EF91BF91AF919F918F917F9147
:102340006F915F914F913F912F910F900BBE0F9026
:102350000FBE0F901F901895883109F488C0803205
:1023600041F78093660714C0803409F49DC040F49F
:102370008033B9F38833E9F68093660785ECB0C003
:10238000803509F485C0883509F496C0883489F60B
:102390000E943811CECF883909F48CC038F58837BF
:1023A00029F050F4883611F0803719F683E08093D5
:1023B00068071092F40457C0883809F47BC080394C
:1023C00019F0803809F0B5CF8091F404803208F01C
:1023D00071C0E091F40481E08E0F8093F404809149
:1023E000BB00F0E0EC52FB4F80833DC0803B39F0F6
:1023F000E0F4803A09F479C0883A09F09ACF84E091
:10240000809368071092D1041092D004E091CE041A
:10241000F091CF0419958091D00481110FC081E013
:102420008093D0041092AE0409C0803C09F4A6CF7A
:10243000883C09F4A3CF883B09F07BCFE091D1041D
:1024400081E08E0F8093D104F0E0E255FB4F808154
:102450008093BB009091D1048091D00429C08091D9
:1024600043078093BB0085EC8093BC0062CF9091C2
:10247000650780916407981758F5E091650781E03A
:102480008E0F80936507F0E0EC5BF84F8081E9CF19
:10249000E091650781E08E0F809365078091BB0016
:1024A000F0E0EC5BF84F80839091650780916407C2
:1024B0009817C8F285E8D8CFE091650781E08E0FC4
:1024C000809365078091BB00F0E0EC5BF84F808360
:1024D0008091670781115CCF81E08093420784EA95
:1024E0008093BC001092680724CF85EC8093BC00D9
:1024F000109268078091F404803230F4E091F40483
:10250000F0E0EC52FB4F10826091F40470E0E09137
:10251000D204F091D30484ED94E019951092F40460
:1025200008CF1092660734CF8F929F92AF92BF92DE
:10253000CF92DF92EF92FF920F931F93CF93DF938F
:10254000FC012085211110C060E070E0CB01DF911B
:10255000CF911F910F91FF90EF90DF90CF90BF90A0
:10256000AF909F908F900895EC010E94B9752985D6
:102570002111EACF8C809D80AE80BF8008811981B7
:102580002A813B816B017C01C818D908EA08FB0845
:10259000C016D106E206F306B8F6080D191D2A1D6D
:1025A0003B1D68017901C61AD70AE80AF90AC70172
:1025B000B601CDCFCF92DF92EF92FF921F93CF93D0
:1025C000DF93FC01108511110AC010E0812FDF910B
:1025D000CF911F91FF90EF90DF90CF900895EC0185
:1025E0008185882319F018861986F0CF0E94B97565
:1025F000CC80DD80EE80FF806C197D098E099F09FB
:10260000C880D980EA80FB806C157D058E059F050A
:1026100050F7DBCFCF93DF93EC01488359836A8374
:102620007B830E94B9756C837D838E839F8381E059
:1026300088871986DF91CF9108950F931F93CF93C9
:10264000DF93EC010E94B9758B019C018C819D8107
:10265000AE81BF81488159816A817B81081B190B3A
:102660002A0B3B0B041715072607370738F4CE0152
:10267000DF91CF911F910F910C940A13840F951F36
:10268000A61FB71F8C839D83AE83BF8381E088879D
:102690001986DF91CF911F910F910895DC01FB0105
:1026A0006C9111964C91119712967C91262F220FC6
:1026B000220F220F95E5822F899F080E80E0811D51
:1026C0001124562F5074362F307267FD60C051119F
:1026D00049C0311106C0982F9095282F892F90E07E
:1026E00004C025E5280F90E08BEA4F3FF1F044232A
:1026F00009F46CC0409530E0442329F0449F312D0B
:10270000112441113F5F432F4095849F080E80E0C4
:10271000811D249F020E20E0211D949F090E90E050
:10272000911D1124830F230F930F7F3FB9F030E0E9
:10273000772321F0779F312D09F03F5F332309F490
:1027400049C0839F080E80E0811D239F020E20E078
:10275000211D939F090E90E0911D112480832183F8
:102760009283089531110DC0922F2AEA929F090E8B
:1027700090E0911D11242BEA291B922F2AEA280FA1
:10278000ADCF90E0282F2095982F80E0AECF51114B
:1027900011C031110BC0922F8AEA989F090E90E068
:1027A000911D11242BEA291B9B5AEFCF982F90954E
:1027B00020E09BCF311106C025E5280F9BEA981B2E
:1027C000822FF6CF2AEA280F30E0F9CF9FEF2FEFC4
:1027D0008FEFABCF90E020E080E0C0CFCF93DF93CE
:1027E0001F921F92CDB7DEB7EFE9F3E021E020831F
:1027F00081836283738394E09483E0E9FAE0208329
:10280000818362837383948385E090E09A838983D4
:1028100041E0BE016F5F7F4FCF010E9446100F90D5
:102820000F90DF91CF91089570E060E00C94EE136B
:10283000CF93DF931F921F92CDB7DEB7E7E7F3E0A8
:1028400021E0208381836283738394E09483E1EBAE
:10285000FCE02083818362837383948385E090E02E
:102860009A83898341E0BE016F5F7F4FCF010E9451
:1028700046100F900F90DF91CF91089570E060E0C7
:102880000C941814EDE1F0E1809142028083809174
:102890004102818380914002828380913F02838341
:1028A00080913E028483089580914502843251F0E4
:1028B000883221F0843141F48AE001C087E08093BE
:1028C0000402089585E0FBCF8FE0F9CF80910305E6
:1028D00090910405892B21F088E0809303020895EC
:1028E0001092030208959091460280914502890F4B
:1028F00027E0280F209350199093391980934F198E
:1029000080910F022091010540910305509104052B
:10291000452BA9F0909103023FEF390F309343020A
:1029200090930711980F8FEF890F80930611909362
:1029300005118FEF820F890F809304110895109273
:102940004302109207119FEF980F90930611809306
:102950000511820F8150F0CF81E08093280280938F
:1029600027028093070208958823D1F180912A02DB
:102970008823A1F180915B0690915606992361F01E
:1029800081110CC0E0912B02F0E0E45EFF4E8081EB
:10299000882351F05F9A0CC0882331F0E0912B021C
:1029A000F0E0E65AFD4FF3CF809154068111F2CF4B
:1029B00080912A028823A9F080915B0690915606A7
:1029C000992389F0811111C0E0912B02F0E0E45EBF
:1029D000FF4E8081882379F0449A08955F98E8CF6C
:1029E0005F9844980895882331F0E0912B02F0E03D
:1029F000E65AFD4FEECF809154068111EDCF089538
:102A00008823D1F180912A028823A1F180915B066D
:102A100090915606992361F081110CC0E0912B0230
:102A2000F0E0E45EFF4E8081882351F0429A0CC0B2
:102A3000882331F0E0912B02F0E0E65AFD4FF3CF0E
:102A4000809154068111F2CF80912A028823A9F047
:102A500080915B0690915606992389F0811111C0EF
:102A6000E0912B02F0E0E45EFF4E8081882379F054
:102A7000A29A08954298E8CF4298A2980895882390
:102A800031F0E0912B02F0E0E65AFD4FEECF80915D
:102A900054068111EDCF089580911702882349F0E3
:102AA00081E02091C4103091C510232B19F080E0F3
:102AB000089581E0089580916205909163050297E1
:102AC00049F480911202882331F081E0909145020F
:102AD0009C3009F480E00895E82FF0E080914502F1
:102AE000843259F0883261F0843121F0EB54F74F91
:102AF00084910895E357F74FFBCFEB59F74FF8CF89
:102B0000E35CF74FF5CF8823D1F0809156068823F8
:102B100041F0E0912B02F0E0E45EFF4E80818111F4
:102B200008C080915B06811104C080915A068823F9
:102B300031F080910B01886080930B0108958091A2
:102B40000B01877FF9CF1092481010924910109214
:102B500047038091490690914A06059721F460E069
:102B60008DE20C94A57190E080E00C940F7220919E
:102B7000490630914A0623303105C9F02530310528
:102B8000C1F090911802992391F0882381F02230AE
:102B9000310521F490915606992349F0909147030D
:102BA000981739F08093470390E00C940F720C94BF
:102BB000A3150895BF92CF92DF92EF92FF920F93E9
:102BC0001F93CF93DF93EC01809116020E94A1091D
:102BD000B82EF0903819E090391984E299E10E94FA
:102BE000DA12882309F4A3C1FE188F2D0E946C15F8
:102BF000E82E80913302882309F456C085E0809343
:102C000034028EEF98E10E94E765882389F01092E4
:102C10003302D0932F02C0932E02AE0170E060E029
:102C200084E299E10E940A138CE3809349031AC05D
:102C30008EEF98E10E94516690932F0280932E02AE
:102C4000AC0170E060E084E299E10E940A13809197
:102C500049038F5F8F3030F180934903809149039E
:102C60008D3310F78091560681110CC080915B0660
:102C7000811108C080915A06811104C080914903D6
:102C80000E94B7158091280290914502943209F470
:102C90008CC0983219F0943109F0F4C0823008F0F9
:102CA00087C0E5C08FE0D8CF80915C068823B1F162
:102CB00085E0809334028EEF98E10E94E7658823D7
:102CC00019F010925C06CECF8EEF98E10E9451660B
:102CD00090932F0280932E02AC0170E060E084E2BA
:102CE00099E10E940A1320912E0230912F0229327D
:102CF000310568F080914903843220F0815080933F
:102D0000490305C02536310510F08031B8F78091B0
:102D100049038F3008F0A6CF8FE087CFD0932F02E2
:102D2000C0932E028091280290914502943211F0B6
:102D3000983221F58230E8F0282F30E0AE01421BB6
:102D4000530B2C173D0711F450E040E09091060220
:102D50008B5F911101C085E0809334028091340231
:102D60008B3018F08AE0809334024115510591F0C0
:102D700013C085E080933402AE01F0CF95E09093CC
:102D80003402823080F090E0AE01481B590B8C1762
:102D90009D0711F441E050E070E060E084E299E1C9
:102DA0000E940A135FCFAE01E0CF823008F457C013
:102DB00090E08C179D0709F462C0C81BD90B0E94D4
:102DC0005B158111B4C0EF2DF0E0E25EF94F808118
:102DD00081111BC0EE20C9F0809106028823A9F062
:102DE00029E1F29EC00111249C01225D3E4E690141
:102DF00060E0C9010E9486689E0150E040E004E165
:102E000010E06B2DC6010E94536880911102882347
:102E100009F497C0809145028432D1F1883209F4D7
:102E200090C090915C06843109F04CC091110DC0A6
:102E300080913302811109C080915A06811105C029
:102E400080915306882309F482C092E29F15C0F155
:102E500081EF8F0D853008F078C089E04AC08091FD
:102E60003302811109C080915C06811105C0CE0139
:102E7000880F991FC80FD91F209709F0A0CFC1E074
:102E8000D0E09DCF823008F093CFCC0FDD1FF4CF80
:102E900080915C0681110DC080913302811109C0BF
:102EA00080915A06811105C080915306882309F448
:102EB0004EC037E28BE1F316E1F083E1F81243C034
:102EC0008FE017C091110CC080913302811108C0AE
:102ED00080915A06811104C0809153068823B9F16C
:102EE00020E22F1508F4B9CF83EF8F0D873088F5D6
:102EF00085E02091150290913819222309F454C0DD
:102F0000E11029C020917403281728F52F5F209322
:102F10007403209138198091460290E08796281713
:102F2000190629F024F08091391980933819DF911E
:102F3000CF911F910F91FF90EF90DF90CF90BF90B6
:102F4000089580E0D6CF85E1D4CF8BE0D2CF83E067
:102F5000D0CF87E0CECF10927403C92FE11020C0EC
:102F600020913919EC2EF12C822F90E087968E1546
:102F70009F057CF28C2F821B0E946C15882319F010
:102F8000C0933819C6CF8091460290E08796E81624
:102F9000F90621F48091391980933819CF5FE0CF79
:102FA0009F5F90933819B5CFE11012C02091740340
:102FB000281770F42F5F2093740390913819809133
:102FC0003919981708F0B3CF80914602895DADCFCB
:102FD00010927403C92FE11010C0809139198C1719
:102FE00060F73C2F381B832F0E946C15882319F043
:102FF000C0933819E2CFC150F0CF91509093381957
:10300000DCCF81E0809333028093320280933102DF
:1030100008958091990790919A078230910528F040
:103020008430910568F0059711F18CE291E090935E
:103030002F0280932E0290932D0280932C020895EC
:103040006091190270911A0290E080E00E9448B2EB
:1030500026E636E646EA5FE30E94A9B20E942EB554
:1030600070932F0260932E028CE291E0E4CF88EC03
:1030700090E090932F0280932E02F6CFDF92EF9292
:10308000FF920F931F93CF93DF938EE1E82E86E09C
:10309000F82E0AE413E0D0E0C0E0DD24D394F70179
:1030A00011927F0160E0CE018A5E9A4E0E9486688E
:1030B00060E0CE01825D9E4E0E948668F801D1924A
:1030C0008F016996C83EF3E0DF0749F7DF91CF91A2
:1030D0001F910F91FF90EF90DF900895809128024B
:1030E000811103C081E080932802809128028A30F8
:1030F00018F089E08093280280912702811103C093
:1031000081E080932702809127028A3018F089E0BD
:103110008093270280910702811103C081E0809390
:10312000070280910702873018F086E0809307023B
:1031300008952F923F924F925F926F927F928F925B
:103140009F92AF92BF92CF92DF92EF92FF920F9336
:103150001F93CF93DF93CDB7DEB76F970FB6F89479
:10316000DEBF0FBECDBF6091520F6C53770B8091C5
:10317000500F9B01281B310987FD339544E6429F80
:10318000C001439F900D11240E9400B4262F362FBA
:1031900020900B0580911C0290911D02E8EEF3E057
:1031A000BF010E94ECB3C62E80911E0290911F02B7
:1031B000BF010E94ECB3D62E809120029091210293
:1031C000BF010E94ECB3E62E80912202909123026F
:1031D000BF010E94ECB3F62E80912402909125024B
:1031E000BF010E94ECB3662E80912602772473946F
:1031F000882311F0F2E07F2E8091150288248394B9
:10320000882311F0E2E08E2E80911302992493948A
:10321000882311F072E0972E80911102AA24A394C2
:10322000882311F062E0A62E80912A02BB24B39479
:10323000882311F052E0B52E80911B0261E08111CC
:1032400062E08091290201E0811102E080915F0536
:1032500012E0811101C011E080910D0590910E05E1
:10326000B2E0019709F0B1E08091FF04A2E0811182
:1032700001C0A1E080911202811193C081E08E8F84
:1032800080910505882309F48FC0E2E0EF8F8091DB
:10329000170242E0342E811102C03324339480910E
:1032A000140272E0811171E081E0820F353608F07E
:1032B00085E690913E0251E0911152E090913F02DB
:1032C00041E0911142E090914002911170C091E073
:1032D0002091410255245394222311F032E0532EC1
:1032E0002091420244244394222311F022E0422EF2
:1032F000209106053091070521503109253031050F
:1033000008F057C02F5A3D4FF901208179828A82F7
:103310009B82AC82BD826E830F8318872986BA8711
:10332000AB87FE8DFC873F8D3D877E878F87C88A60
:10333000D98AEA8AFB8A6C8A5D8B4E8B9F8B588E6A
:10334000498E2A8F3B8ECE0101967C0102E110E06E
:103350001D8F0C8FF70161917F01CE014C960E9469
:10336000770F0F5F1F4F0D32110591F70E94900FDD
:103370006F960FB6F894DEBF0FBECDBFDF91CF9131
:103380001F910F91FF90EF90DF90CF90BF90AF9083
:103390009F908F907F906F905F904F903F902F9075
:1033A000089592E09E8F6CCFF1E0FF8F70CF92E096
:1033B0008FCF24E0ABCF0F931F93CF93DF931F9258
:1033C0001F92CDB7DEB702E110E01A8309836FEFD9
:1033D000CE0101960E94770F0F5F1F4F0D3211052E
:1033E000A1F70E94900F0F900F90DF91CF911F9146
:1033F0000F910895EF92FF920F931F93CF93DF9356
:10340000CDB7DEB764970FB6F894DEBF0FBECDBF61
:103410008091020532E0813009F031E080910D02A7
:1034200093E0813021F094E0823009F092E0409105
:1034300003055091040582E04115510529F083E010
:103440004130510509F084E020910005222309F460
:1034500051C022E0409146024983409145024A838F
:1034600040910F024B833C83309139023D83309170
:1034700037023E83309135023F8330913A023887DC
:10348000309138023987309136023A8730910C02F8
:103490003B87309116023C8730910E023D87309178
:1034A00010023E87309101053F87988B898B2A8BCC
:1034B000CE0101967C0110E000E01C8B0B8BF70124
:1034C00061917F01CE0143960E94770F0F5F1F4FDE
:1034D0000231110591F70E94900F64960FB6F8948F
:1034E000DEBF0FBECDBFDF91CF911F910F91FF9037
:1034F000EF90089521E0AECF0F931F93CF93DF930A
:103500001F921F92CDB7DEB710E000E01A83098347
:103510006FEFCE0101960E94770F0F5F1F4F0231B0
:103520001105A1F70E94900F0F900F90DF91CF919E
:103530001F910F91089520915006809191079091CD
:10354000920701970397C0F480914B0690914C0627
:10355000211107C021E02093500665E0892B31F44A
:10356000089510925006892BD9F366E080914D069C
:1035700090914E060C94356D211104C081E080932A
:103580005006089510925006EBCF809191079091CC
:1035900092070197039798F480914B0690914C06FF
:1035A000892B59F080914D0690914E06843F21E081
:1035B000920718F064E00E94356D0E94207010920E
:1035C0004F061092510661E070E084E20E94EE1313
:1035D00060914D0670914E0685E40C94181480910C
:1035E0004B0690914C06892B09F470C080914D06D2
:1035F00090914E06843F21E0920708F467C021E0D5
:103600002093510620919107309192072230310585
:1036100009F43FC02330310519F021303105F9F4A8
:103620002091500665E0211101C066E00E94356DD1
:1036300060914D0F062E000C770B80914D069091F6
:103640004E060E94396F61E080914D0690914E06C2
:103650000E94676F0E94207081E08093FC0740E128
:1036600057E260E070E083E59FE00E940A138091DA
:10367000510661E070E0882311F062E070E084E2BE
:103680000E94EE1360914D0670914E0684E40C94F6
:1036900018142091500665E0211101C066E00E94D7
:1036A000356D60914D0F062E000C770B80914D0605
:1036B00090914E060E94396F50E040E061E08091A9
:1036C0004D0690914E060E94066FC4CF0895CF9389
:1036D000DF93C0914D06D0914E062197C43F81E003
:1036E000D80730F4C0914B06D0914C06CD50DE4F38
:1036F00080915106882351F00E94C51AD0934E063E
:10370000C0934D06DF91CF910C94EF1AD0934E06E3
:10371000C0934D06BE0185E4DF91CF910C9418143F
:10372000CF93DF93C0914D06D0914E0621968091A4
:103730004B0690914C068D509E4F8C179D0710F4B0
:10374000C4EFD1E080915106882351F00E94C51A40
:10375000D0934E06C0934D06DF91CF910C94EF1A93
:10376000D0934E06C0934D06BE0185E4DF91CF9104
:103770000C9418142091910730919207215031092F
:103780002330310518F464E00C94356D08958FE80A
:1037900091E00E94BA1B87E390E00E94BA1B8BE67F
:1037A00091E00E94BA1B8CE691E00C94BA1B8DE864
:1037B00090E00E94BA1B8EE890E00E94BA1B8FE84E
:1037C00090E00E94BA1B80E990E00E94BA1B81E958
:1037D00090E00E94BA1B82E990E00E94BA1B83E944
:1037E00090E00E94BA1B84E990E00E94BA1B80918D
:1037F000620590916305059721F483EA91E00E94A8
:10380000BA1B8091620590916305069721F484EAC2
:1038100091E00E94BA1B89E491E00E94BA1B8CE4FB
:1038200091E00E94BA1B80915306811106C08091DD
:10383000620690916306892B11F40C94C71B0895BE
:10384000CF92DF92EF92FF920F931F93CF93DF936C
:103850006C01F62EC42F14160CF4C0E0CA3B0CF415
:10386000CAEB80919107909192078230910591F176
:103870008330910519F0019709F048C00C2E000C17
:10388000DD0B222381F06AEB7FEFC6010E94396FC6
:103890006E2DC6010E94676F20E0A801BE01C6011F
:1038A0000E94016D08C0BE01C6010E94396F6E2DD5
:1038B000C6010E94676F65E0F11001C066E0C601B5
:1038C000DF91CF911F910F91FF90EF90DF90CF90FC
:1038D0000C94356D0C2E000CDD0B222361F06AEB8D
:1038E0007FEFC6010E94396F50E040E06E2DC601A7
:1038F0000E94066FD1CFBE01C6010E94396F50E011
:1039000040E06E2DC6010E94066FD5CFDF91CF91AA
:103910001F910F91FF90EF90DF90CF900895EF925D
:103920000F931F93CF93DF93EC01809162059091E9
:1039300063058130910509F4A7C0029709F4A1C07D
:103940008091990790919A078330910509F478C086
:103950008530910509F492C0029709F07CC08091EE
:103960002B02853009F461C08AE090E00E94BA1B06
:1039700087E490E00E94BA1B80E891E00E94BA1BA5
:1039800089E490E00E94BA1B8AE490E00E94BA1B8E
:1039900081E0809353060E94C71B80919907909104
:1039A0009A070597E1F580915C05882321F08EE464
:1039B00091E00E94BA1B81E090E00E94BA1B85E969
:1039C00091E00E94BA1BEE24E39410E000E020E0B6
:1039D00040914E0F60E08FE891E00E94201C04ECC3
:1039E00019E021E040914E0F61E087E390E00E94F2
:1039F000201C8091490690914A06059711F40E9477
:103A0000A315AE0170E060E08BEE9FE00E940A1308
:103A100081E080935C068093580680935706DF917F
:103A2000CF911F910F91EF90089588E891E00E9447
:103A3000BA1B8BE891E00E94BA1B8AE891E09ECF06
:103A40008BE090E00E94BA1B87E490E00E94BA1BD2
:103A50008AE090E093CF81E891E00E94BA1B82E86F
:103A600091E00E94BA1B83E891E00E94BA1B8FE6A6
:103A700090E00E94BA1B8EE690E088CF82E891E049
:103A8000F4CF85E390E082CF8BE390E07FCFCF92BD
:103A9000DF92EF920F931F93CF93DF9368EE73E063
:103AA0000E94ECB3EB016B0184EBC80ED11CCB017F
:103AB0008D549F4F0E94BA1BC6010E94BA1BCE01B3
:103AC0008B549F4F0E94BA1BEE24E39410E000E059
:103AD00020E040914E0F60E0C6010E94201CDF9163
:103AE000CF911F910F91EF90DF90CF900895833089
:103AF000B9F198F4823009F442C080912402909187
:103B00002502885E9340803D27E0920708F446C076
:103B1000909325028093240212C0843091F0853066
:103B200061F780911C0290911D02885E9340803D58
:103B300027E0920798F190931D0280931C020C9449
:103B4000471D80911E0290911F02885E9340803D28
:103B500027E0920718F190931F0280931E02EFCF87
:103B60008091200290912102885E9340803D27E061
:103B70009207A0F09093210280932002E0CF8091E1
:103B8000220290912302885E9340803D27E09207B5
:103B900028F09093230280932202D1CF089583309E
:103BA000B9F198F4823009F442C0809124029091D6
:103BB000250288519C4F81362AEE920708F046C0B4
:103BC000909325028093240212C0843091F08530B6
:103BD00061F780911C0290911D0288519C4F8136A3
:103BE0002AEE920798F590931D0280931C020C9484
:103BF000471D80911E0290911F0288519C4F813673
:103C00002AEE920718F590931F0280931E02EFCFC1
:103C1000809120029091210288519C4F81362AEE9A
:103C20009207A0F49093210280932002E0CF80912C
:103C300022029091230288519C4F81362AEE9207EE
:103C400028F49093230280932202D1CF0895EF921B
:103C50000F931F930E94C71B1092530680915F061B
:103C6000882309F471C040914E0F8091990790917B
:103C70009A07EE24E39410E000E020E060E005976E
:103C800009F05EC082E691E00E94201C80916205EE
:103C900090916305029709F04BC040914E0F485236
:103CA00004EF11E021E061E085E991E00E94201C31
:103CB00080915C05882361F0EE24E39400ED17E029
:103CC00021E040914E0F61E08EE491E00E94201CC3
:103CD00010925C06109257060E9401181092F30F82
:103CE0001092F40F40E050E0BA018AE399E10E949B
:103CF0000A1340E050E0BA0184E299E10E940A13FD
:103D000040E050E0BA0184E291E10E940A13809100
:103D1000490690914A060597B9F4809118028823C4
:103D200099F061E08DE21F910F91EF900C94A571D5
:103D3000EE24E39400ED17E021E040914E0FB3CF65
:103D40008CE691E00E94201C1F910F91EF90089546
:103D5000EF920F931F9380915D05882331F080E6E9
:103D600091E00E94BA1B10925D05809162059091CE
:103D700063058230910509F4BAC18330910509F4D5
:103D8000E6C1019709F4CBC18091990790919A07F8
:103D900020912B02253009F43FC1209146062223B1
:103DA00009F428C140914E0FE12C10E000E020E022
:103DB00060E083309105A1F08530910509F413C1CD
:103DC000029709F009C18DE791E00E94201C0AEFDB
:103DD00010E021E040914E0F61E08FE791E00CC0D0
:103DE00084E690E00E94201C04E619E121E0409165
:103DF0004E0F61E083E690E00E94201C81E08093FA
:103E0000F7048091F604882309F403C1809199078F
:103E100090919A0740914E0FE12C10E000E020E0D5
:103E200060E08330910509F0E8C084E690E00E94EC
:103E3000201C04E619E121E040914E0F61E088E486
:103E400090E00E94201C81E08093F5048091990706
:103E500090919A0704970297F8F480912B0285308D
:103E6000D8F483EC9FE00E94941220916205309177
:103E70006305683B7B408105910508F074C1609142
:103E80004E0F2230310509F06CC1685244E650E013
:103E900080E190E00E94F96F809162059091630546
:103EA000059759F4E12C04E610E021E040914E0F13
:103EB00060E083EA91E00E94201C8091620590916D
:103EC0006305069759F4E12C04E610E021E04091E7
:103ED0004E0F60E084EA91E00E94201C81E0809314
:103EE000560687E00E943E148091990790919A07A8
:103EF0000497029770F460912B0270E088E99AE3CE
:103F00000E94ECB3AB0170E060E08EE299E10E94A8
:103F10000A1380912602882309F18091600590910F
:103F200061050297D9F40E94DBB128E030E040E05F
:103F300050E00E947DB3695F7F4F8F4F9F4F28EE07
:103F400033E0629FA001639F500D729F500D1124BA
:103F500070E060E08DEC9FE00E940A1380E00E9418
:103F6000001580916205909163050297A1F0E091A0
:103F70002B02E150FF0BEE0FFF1FE552F44F45916E
:103F8000549170E060E08CE290E10E940A1310927C
:103F90002A1010922B1010924810109249108FEF97
:103FA0000E94B715109211101092121042E350E0C7
:103FB00060E070E08FEF9FE00E940A1381E0809341
:103FC000550648E95AE360E070E087ED9FE01F91F5
:103FD0000F91EF900C940A138BE990E00E94201C43
:103FE00003E111E0F6CE8FE491E00E94201C08EC82
:103FF00010E0EFCE1092F70404CF059739F48FE468
:1040000091E00E94201C0CE211E015CF85E090E0C9
:10401000F8CF1092F5041ACF40914E0FE12C10E02A
:1040200000E020E060E08330910509F445C0853070
:10403000910509F447C0029709F041C087E891E073
:104040000E94201C80914606882309F449C0809173
:10405000990790919A0721E02093F70440914E0F21
:10406000E12C8230910589F504EA16E061E089E8E7
:1040700091E00E94201C8091F604882351F28091E7
:10408000990790919A0721E02093F50440914E0FF3
:10409000E12C0CEB12E08330910529F10CE211E0E8
:1040A00021E0029701F504EA16E021E061E089E8E9
:1040B00091E00E94201CCACE81E690E0C1CF8BE93E
:1040C00090E0BECF8FE491E0BBCF0CE211E003970C
:1040D00011F40CEB12E021E061E082E690E0C9CF40
:1040E0001092F704C8CF61E088E490E0E2CF85E366
:1040F00090E00E94BA1BE12C10E000E020E040912B
:104100004E0F60E083E390E00E94201C02E513E084
:1041100021E040914E0F61E084E390E0CACF8BE351
:1041200090E00E94BA1BE12C10E000E020E04091FA
:104130004E0F60E089E390E00E94201C08EE13E03F
:1041400021E040914E0F61E08AE390E0B2CFE12C94
:1041500010E000E020E040914E0F60E086E491E046
:10416000A8CF625093CE83EC9FE02230310541F41A
:104170000E94941220914E0F2852AB01622F88CEDC
:104180000E94941220914E0F2250F7CFEF920F937E
:104190001F9340914E0F8091620590916305EE242C
:1041A000E39410E000E020E060E0029751F583E541
:1041B00091E00E94201C81E080935B068091620563
:1041C000909163050297D9F548EB5BE060E070E001
:1041D00086E390E10E940A138091990790919A07D3
:1041E0000297029740F48CE291E090932D02809325
:1041F0002C020E943E1886E11F910F91EF900C94C3
:104200003E1488E691E00E94201C809199079091CD
:104210009A070497029740F420E040914E0F61E026
:1042200089E691E00E94201CEE24E39410E000E077
:1042300020E040914E0F60E085E591E0BACF40EA82
:104240005FE060E070E086E390E10E940A13109264
:10425000071010920810109211101092121042E3E1
:1042600050E060E070E08FEF9FE0B4CFEF920F93EB
:104270001F9380916205909163058230910509F446
:104280007CC083309105A9F1019709F47DC080912C
:10429000990790919A0720912B02253009F455C077
:1042A0008330910571F08530910509F44BC0029778
:1042B00009F045C08DE791E00E94BA1B8FE791E0BD
:1042C00006C084E690E00E94BA1B83E690E00E945C
:1042D000BA1B80912602882321F089E090E00E9499
:1042E000BA1B88E490E00E94BA1B82E690E00E942C
:1042F000BA1B8091600590916105009709F44BC04D
:10430000019709F468C01092F7041092F5048091A7
:10431000620590916305059721F483EA91E00E947C
:10432000BA1B8091620590916305069709F071C0F0
:1043300084EA91E01F910F91EF900C94BA1B80E6F4
:1043400090E0BACF8FE491E0B7CF8330910561F070
:104350008530910579F0029751F487E891E00E9449
:10436000BA1B89E891E0B3CF81E690E0B0CF8BE94A
:1043700090E0ADCF8FE491E0AACF83E390E00E947C
:10438000BA1B84E390E0B3CF89E390E00E94BA1BAC
:104390008AE390E0ACCF82E090E090936105809357
:1043A00060058091910790919207039741F48AE408
:1043B00090E00E94BA1B89E490E00E94BA1BE12CB5
:1043C00010E000E020E040914E0F60E089E490E0D2
:1043D0000E94201C98CF82E090E09093610580932A
:1043E00060058091910790919207039741F48EE6C2
:1043F00090E00E94BA1B8FE690E00E94BA1BE12C6D
:1044000010E000E020E040914E0F60E08FE690E089
:10441000DFCF1F910F91EF9008950F931F93CF93CC
:10442000DF9300D000D0CDB7DEB7122F242F462F58
:10443000682FCE0101960E94A76DBE016C5F7F4F71
:10444000CE0101960E944E136D817C81111102C034
:104450006C817D818E8126960FB6F894DEBF0FBEEB
:10446000CDBFDF91CF911F910F9108950F931F93AF
:10447000CF93DF9310E0809145021817D0F4C091DC
:1044800039192C2F210F3327331FC901E901CC0F14
:10449000DD1FC80FD91FCC59DA4F00E020E04FEFE5
:1044A00060E081E00E940D22688379838A831F5F28
:1044B000E2CFDF91CF911F910F910C943E182F9274
:1044C0003F924F925F926F927F928F929F92AF92A4
:1044D000BF92CF92DF92EF92FF920F931F93CF93F1
:1044E000DF93809116020E94A109C82F80911202C9
:1044F000D5E0882331F06091620581E00E941E08BA
:10450000D82F80E00E94710920903919280E81E08F
:104510000E94710930903919380E82E00E947109A9
:1045200040903919480E83E00E9471092091391991
:10453000582E520E8091620590916305049703975F
:1045400008F4D5E090901302A22CB12CC32CD12CEE
:10455000E42CF12C652C712C911038C14501880C8C
:10456000991C8A0C9B1C94012C593A4F490100E07C
:1045700020E04C2F6D2F81E00E940D22F40160831A
:10458000718382834601880C991C8C0C9D1C9401BC
:104590002C593A4F490120E04C2F6D2F81E00E94A9
:1045A0000D22F4016083718382834701880C991C7A
:1045B0008E0C9F1C94012C593A4F490120E04C2F3E
:1045C0006D2F81E00E940D22F4016083718382834C
:1045D0004301880C991C860C971C94012C593A4F66
:1045E000490120E04C2F6D2F81E00E940D22F40143
:1045F000608371838283809114028111C9C0C501D7
:1046000001965C01AA0CBB1CA80EB91E95012C5981
:104610003A4F590120E04C2F6D2F81E00E940D226E
:10462000F50160837183828380913919821508F4C2
:10463000C2C020905019F8EF2F0EA22CB12CC5014A
:10464000880F991FA80EB91E95012C593A4F590190
:1046500000E020E04C2F6D2F81E00E940D22F5013B
:10466000608371838283C60101966C01CC0CDD1CD2
:10467000C80ED91E96012C593A4F690120E04C2FE3
:104680006D2F81E00E940D22F60160837183828389
:1046900080913919831508F490C080915019885081
:1046A00090E06C01CC0CDD1C8C0D9D1D9C012C59E7
:1046B0003A4F690100E020E04C2F6D2F81E00E940D
:1046C0000D22F601608371838283C70101967C010C
:1046D000EE0CFF1CE80EF91E97012C593A4F790198
:1046E00020E04C2F6D2F81E00E940D22F7016083A6
:1046F0007183828380913919841508F461C0809197
:104700005019885090E07C01EE0CFF1C8E0D9F1D0F
:104710009C012C593A4F790100E020E04C2F6D2F7D
:1047200081E00E940D22F701608371838283C301BF
:1047300001963C01660C771C680E791E93012C597A
:104740003A4F390120E04C2F6D2F81E00E940D225D
:10475000F30160837183828380913919851598F103
:1047600080915019885090E07C01EE0CFF1C8E0D5A
:104770009F1D9C012C593A4F790100E020E04C2FFD
:104780006D2F81E00E940D22F70160837183828387
:10479000DF91CF911F910F91FF90EF90DF90CF901D
:1047A000BF90AF909F908F907F906F905F904F9051
:1047B0003F902F9008952A9440CF8FEF830D70CFB4
:1047C0008FEF840D9FCF8FEF850DCDCF822F90E09F
:1047D000F501E81BF90BE25EF94F20812223C1F0BD
:1047E000F601E81BF90BE25EF94F2081222381F0EC
:1047F000F701E81BF90BE25EF94F2081222341F01B
:10480000F301E81BF90BE25EF94F80818111DBC1F6
:104810000E943E186091190270911A0290E080E0A7
:104820000E9448B220E030E040EC5FE30E94A9B271
:104830000E942EB59B01AC0180913919B501681B0E
:104840007109D9E1D69FC001D79F900D112401E0D5
:1048500010E06C2F825D9E4E0E9453686091190299
:1048600070911A0290E080E00E9448B220E030E0AF
:1048700040EC5FE30E94A9B20E942EB59B01AC01FF
:1048800080913919B601681B7109D69FC001D79F65
:10489000900D11246C2F825D9E4E0E945368609192
:1048A000190270911A0290E080E00E9448B220E064
:1048B00030E040EC5FE30E94A9B20E942EB59B015C
:1048C000AC0180913919B701681B7109D69FC001ED
:1048D000D79F900D11246C2F825D9E4E0E945368CD
:1048E0006091190270911A0290E080E00E9448B233
:1048F00020E030E040EC5FE30E94A9B20E942EB5B8
:104900009B01AC0180913919B301681B7109D69FD5
:10491000C001D79F900D11246C2F825D9E4E0E9486
:10492000536880911402811133CF992031F1609145
:10493000190270911A0290E080E00E9448B220E0D3
:1049400030E040EC5FE30E94A9B20E942EB59B01CB
:10495000AC01FFEFAF1ABF0A80913919A81AB1084C
:1049600069E16A9DC0016B9D900D112401E010E08A
:104970006C2F825D9E4E0E945368D0913919D215DA
:1049800008F423C12090501928EF220E992009F431
:1049900046C06091190270911A0290E080E00E9476
:1049A00048B220E030E040EC5FE30E94A9B20E94F0
:1049B0002EB59B01AC01822D8D1B990B5C01D9E1B9
:1049C000DA9DC001DB9D900D112401E010E06C2FF9
:1049D000825D9E4E0E9453686091190270911A0286
:1049E00090E080E00E9448B220E030E040EC5FE3DD
:1049F0000E94A9B20E942EB59B01AC019FEFC91A7B
:104A0000D90A80913919C81AD108DC9DC001DD9DF1
:104A1000900D11246C2F825D9E4E0E945368D091A0
:104A20003919D31508F4D3C030905019E8EF3E0E71
:104A3000992009F446C06091190270911A0290E021
:104A400080E00E9448B220E030E040EC5FE30E944A
:104A5000A9B20E942EB59B01AC01832D8D1B990B31
:104A6000BC01D9E1D69FC001D79F900D112401E070
:104A700010E06C2F825D9E4E0E9453686091190277
:104A800070911A0290E080E00E9448B220E030E08D
:104A900040EC5FE30E94A9B20E942EB59B01AC01DD
:104AA0009FEFE91AF90A80913919E81AF108DE9D99
:104AB000C001DF9D900D11246C2F825D9E4E0E94DF
:104AC0005368D0913919D41508F483C04090501917
:104AD000E8EF4E0E992009F446C0609119027091DA
:104AE0001A0290E080E00E9448B220E030E040EC02
:104AF0005FE30E94A9B20E942EB59B01AC01842DF8
:104B00008D1B990BBC01D9E1D69FC001D79F900D99
:104B1000112401E010E06C2F825D9E4E0E945368CC
:104B20006091190270911A0290E080E00E9448B2F0
:104B300020E030E040EC5FE30E94A9B20E942EB575
:104B40009B01AC019FEF691A790A80913919681AA3
:104B50007108D69DC001D79D900D11246C2F825DE8
:104B60009E4E0E945368D0913919D515A0F15090EE
:104B70005019E8EF5E0E992009F40ACE60911902EF
:104B800070911A0290E080E00E9448B220E030E08C
:104B900040EC5FE30E94A9B20E942EB5252D2D1B8B
:104BA000330BA90129E1249FF001259FF00D112469
:104BB00001E010E09B01AC016C2FCF01825D9E4EA5
:104BC0000E945368E5CD912CACCE2A94DFCE3A9466
:104BD0002FCF4A947FCF5A94CECF4F925F926F924D
:104BE0007F92AF92BF92CF92DF92EF92FF920F939C
:104BF0001F93CF93DF93C82F809116020E94A109C3
:104C0000F82E0E946E18AC2EB12C809113028111E7
:104C100058C06501CC0CDD1CCA0CDB1CC6018C59CC
:104C20009A4F6C0100E020E04FEF60E081E00E94CD
:104C30000D22F601608371838283809114028111B9
:104C40002FC0FFEFAF1ABF0A7501EE0CFF1CEA0C74
:104C5000FB1CC7018C599A4F7C0120E04FEF60E0AC
:104C600081E00E940D22F70160837183828380912D
:104C700039198C1720F1C0915019C850D0E0CE01DD
:104C8000880F991FC80FD91FCC59DA4F00E020E0D8
:104C90004FEF60E081E00E940D22688379838A8370
:104CA000DF91CF911F910F91FF90EF90DF90CF9008
:104CB000BF90AF907F906F905F904F900895C150DC
:104CC000DDCF809139199501281B3109F901E25E88
:104CD000F94F80818F113DC0D9E1D29FC001D39F90
:104CE000900D11246F2D8A5E9A4E0E948668609105
:104CF000190270911A0290E080E00E9448B220E010
:104D000030E040EC5FE30E94A9B22B013C016091CE
:104D1000280270E090E080E00E944AB29B01AC0162
:104D2000C301B2010E94BCB40E942EB59B01AC012C
:104D300080913919B501681B7109D69FC001D79FB1
:104D4000900D112401E010E060E08A5E9A4E0E940E
:104D50005368809114028111A3CF6501FFEFCF1A30
:104D6000DF0A809139199601281B3109F901E25EA9
:104D7000F94F80818F113CC0D9E1D29FC001D39FF0
:104D8000900D11246F2D8A5E9A4E0E948668609164
:104D9000190270911A0290E080E00E9448B220E06F
:104DA00030E040EC5FE30E94A9B22B013C0160912E
:104DB000280270E090E080E00E944AB29B01AC01C2
:104DC000C301B2010E94BCB40E942EB59B01AC018C
:104DD00080913919C81AD108DC9DC001DD9D900D64
:104DE000112401E010E060E08A5E9A4E0E94536850
:104DF0008091391990E0C1508A159B051CF0C09133
:104E00005019C850D0E09E01281B390BF901E25E11
:104E1000F94F80818F1144CF19E1129FC001139F78
:104E2000900D11246F2D8A5E9A4E0E9486686091C3
:104E3000190270911A0290E080E00E9448B220E0CE
:104E400030E040EC5FE30E94A9B26B017C0160910D
:104E5000280270E090E080E00E944AB29B01AC0121
:104E6000C701B6010E94BCB40E942EB59B01AC01E3
:104E700080913919C81BD1091C9FC0011D9F900D3D
:104E8000112401E010E060E08A5E9A4E0E945368AF
:104E900007CF8F929F92AF92BF92DF92EF92FF92D5
:104EA0000F931F93CF93DF93EC0185E0809334023F
:104EB0000E946E1884E299E10E94DA12882309F4B4
:104EC000D5C06091280270E0CE010E94ECB3EB01E6
:104ED00080913302882309F4E9C08EEF98E10E94A3
:104EE000E765882309F4CEC010923302AE0170E06A
:104EF00060E084E299E10E940A13D0932F02C093EC
:104F00002E0283E2809349038091560681110CC0E2
:104F100080915B06811108C080915A06811104C0FE
:104F2000809149030E94B7150E945B1581119EC0B4
:104F3000809102028111EAC080910602882321F04B
:104F4000809138190E94ED25809172038F5F843023
:104F500008F0DFC080937203809172030E94710990
:104F6000C0913919C80FC09338198091060288235F
:104F700009F47CC0809116020E94A109182F80912B
:104F8000120245E0D42E882331F06091620581E061
:104F90000E941E08D82E809145028C3011F430E218
:104FA000D32EAC2EB12C7501EE0CFF1CEA0CFB1CB1
:104FB000C7018C599A4F7C0100E020E0412F6D2DF4
:104FC00081E00E940D22F7016083718382838091CA
:104FD0003919F501E81BF109E25EF94F1083809160
:104FE0001402811143C07501FFEFEF1AFF0A470158
:104FF000880C991C8E0C9F1CC4018C599A4F4C0133
:1050000020E0412F6D2D81E00E940D22F40160838C
:10501000718382838091391990E0F701E81BF90BC5
:10502000E25EF94F1083C1508A159B051CF0C091B8
:105030005019C850D0E07E01EE0CFF1CEC0EFD1E96
:10504000C7018C599A4F7C0100E020E0412F6D2D63
:1050500081E00E940D22F701608371838283809139
:105060003919C81BD109C25ED94F1883DF91CF917E
:105070001F910F91FF90EF90DF90BF90AF909F90A6
:105080008F9008958EEF98E10E945166AC0170E018
:1050900060E084E299E10E940A138EEF98E10E9499
:1050A000516690932F0280932E022BCF80915C0645
:1050B000882321F18EEF98E10E94E765882319F09B
:1050C00010925C0621CF8EEF98E10E945166AC01F0
:1050D00070E060E084E299E10E940A138EEF98E1AB
:1050E0000E94516690932F0280932E028091490373
:1050F00081508F3008F006CF8FE004CFAB0170E015
:1051000060E084E299E10E940A13FECE109202024E
:105110001BCF1092720320CFDF92EF92FF920F937A
:105120001F93CF93DF938091120215E0882331F013
:105130006091620581E00E941E08182F809145024F
:105140008C3009F410E28091990790919A070297A8
:105150000297B0F1D0E0C0E08C2F0E946C1588233C
:1051600019F1FE01E25EF94FD0808C2F0E946C1580
:1051700090913919292F280F3327331FC90101971F
:105180007C01EE0CFF1C8E0D9F1DFC01EC59FA4FAB
:105190007F0100E020E04D2D612F81E00E940D2273
:1051A000F7016083718382832196C832D105A1F60D
:1051B000DF91CF911F910F91FF90EF90DF900895B5
:1051C000F12C80914502F81698F78F2D90E0C09150
:1051D0003919C80FD92FD11D9E01220F331FC20FBD
:1051E000D31FCC59DA4F825E994F00E020E0FC01DA
:1051F0004081612F81E00E940D22688379838A8338
:10520000F394DFCFEF92FF920F931F93CF93DF932F
:10521000C82F80910C020E94A109182F8091FF04D1
:10522000D4E1882331F06091620580E00E941E087D
:10523000D82F80915206082E000C990BEC2FF0E02D
:105240008E179F078CF12091460228171906F9F056
:10525000F4F0809100058823F9F02D30D1F4E85D59
:10526000F64FE491F0E07F01EE0CFF1CEE0DFF1D08
:10527000CF018C599A4F7C0100E020E0412F6D2F27
:1052800080E00E940D22F701608371838283CF5FEB
:10529000D0CFE75EF64FE5CF2D3019F4E45FF64F3F
:1052A000E0CFE350F74FDDCFDF91CF911F910F910A
:1052B000FF90EF900895EF92FF920F931F93CF937B
:1052C000DF938091060281115BC180911202D5E0CB
:1052D000882331F06091620584E00E941E08D82F77
:1052E000809110020E94A109C82F1091480380915B
:1052F0005A06882309F4B1C0112309F474C0A59A91
:10530000739A80910201886080930201809102016A
:10531000806180930201809102018062809302018A
:105320008091020180648093020180910305909135
:105330000405009709F424C1D0E00197A1F500E02D
:1053400020E04C2F65E084E00E940D226093E90389
:105350007093EA038093EB0320E04C2F65E084E038
:105360000E940D226093EC037093ED038093EE0393
:1053700020E04C2F6BE084E00E940D226093EF034D
:105380007093F0038093F10320E04C2F6BE084E0F6
:105390000E940D226093F2037093F3038093F40351
:1053A00020E04C2FC9C08D2F90E020914302215066
:1053B000330B821793070CF0E3C07C01EE0CFF1C4B
:1053C000E80EF91EC70187519C4F7C0100E020E0E8
:1053D0004C2F65E084E00E940D22F7016083718309
:1053E0008283DF5FE0CFA598739880910201877F69
:1053F00080930201809102018F7E8093020180914F
:1054000002018F7D80930201809102018F7B809346
:1054100002018091030590910405892B09F4B0C025
:10542000812F90E0209143022150330B8217930784
:105430000CF0A6C0EC01CC0FDD1FC80FD91FC7515F
:10544000DC4F00E020E04FEF60E084E00E940D229E
:10545000688379838A831F5FE3CF183008F090C098
:10546000E12FF0E08827E85CF54D8F4F0C9414B4E1
:10547000402A7B2AC72A0D2B542B952BC32BF12BAB
:10548000A598739880910201877F80930201809193
:1054900002018F7E80930201809102018F7D8093B3
:1054A0000201809102018F7B8093020180910305AC
:1054B00090910405892B09F463C010E0812F90E0DE
:1054C000209143022150330B821793070CF058C0F0
:1054D000EC01CC0FDD1FC80FD91FC751DC4F00E016
:1054E00020E04FEF60E084E00E940D226883798322
:1054F0008A831F5FE3CFA598739880910201877F0D
:1055000080930201809102018F7E8093020180913D
:105510000201806280930201809102018064809385
:1055200002018091030590910405009749F100E084
:1055300020E04C2F019771F46FE084E00E940D226F
:105540006093F5037093F6038093F70320E04C2FEC
:105550006FE00DC06D2F84E00E940D226093F50373
:105560007093F6038093F70320E04C2F6D2F84E0B7
:105570000E940D226093F8037093F9038093FA035D
:10558000DF91CF911F910F91FF90EF900895A59813
:1055900073988091020188608093020180910201DA
:1055A00080618093020180910201806280930201F8
:1055B00080910201806480930201809103059091A3
:1055C00004050097E9F200E020E04C2F0197B9F4C0
:1055D0006BE084E00E940D226093EF037093F00370
:1055E0008093F10320E04C2F6BE084E00E940D22B9
:1055F0006093F2037093F3038093F403C1CF6D2F94
:1056000084E00E940D226093EF037093F003809377
:10561000F10320E04C2F6D2FE8CFA59A739A80916B
:105620000201886080930201809102018061809371
:105630000201809102018062809302018091020147
:105640008064809302018091030590910405009786
:1056500009F496CF00E020E04C2F0197B9F465E003
:1056600084E00E940D226093E9037093EA03809323
:10567000EB0320E04C2F65E084E00E940D22609354
:10568000EC037093ED038093EE037ACF6D2F84E0EB
:105690000E940D226093E9037093EA038093EB0369
:1056A00020E04C2F6D2FE8CFA59A739A80910201CC
:1056B00088608093020180910201806180930201E1
:1056C00080910201806280930201809102018064D6
:1056D000809302018091030590910405009709F4DD
:1056E0004FCF10E0019709F42ACE812F90E020914E
:1056F00043022150330B821793070CF041CF7C01FA
:10570000EE0CFF1CE80EF91EC70187519C4F7C016F
:1057100000E020E04C2F6D2F84E00E940D22F70165
:105720006083718382831F5FE0CFA59A739A809113
:105730000201886080930201809102018061809360
:105740000201809102018F7D80930201809102010C
:105750008F7B809302018091030590910405892B32
:1057600009F40ECF00E020E04FEF60E084E00E94FB
:105770000D226093F5037093F6038093F70320E006
:105780004FEF60E0F4CEA59A739A80910201877F73
:1057900080930201809102018F7E809302018091AB
:1057A00002018F7D80930201809102018F7B8093A3
:1057B00002018091030590910405892B09F4E0CE44
:1057C00000E020E04FEF60E084E00E940D22609353
:1057D000EF037093F0038093F10320E04FEF60E05C
:1057E00004CFA598739880910201877F809302016E
:1057F000809102018F7E80930201809102018F7D52
:1058000080930201809102018F7B8093020180913D
:10581000030590910405892B09F4B2CE00E020E045
:105820004FEF60E084E00E940D226093E9037093E3
:10583000EA038093EB0320E04FEF60E01DCFEF928F
:10584000FF920F93CF93DF9310925906D0E0C0E000
:105850007E01EE0CFF1CEC0EFD1EC7018C599A4F09
:105860007C0100E020E04FEF60E080E00E940D222C
:10587000F7016083718382832196C733D10541F795
:10588000F0900711809106118F15A8F08F2D90E0F0
:10589000EC01CC0FDD1FC80FD91FC751DC4F00E052
:1058A00020E04FEF60E082E00E940D226883798360
:1058B0008A83F394E7CFDF91CF910F91FF90EF9020
:1058C00008950F931F93CF93DF93A59873988091BA
:1058D0000201877F80930201809102018F7E809375
:1058E0000201809102018F7D80930201809102016B
:1058F0008F7B8093020180910602882311F02C98FF
:105900002D98109248038091030590910405892BEE
:10591000D1F18091060210E081111CC0812F90E02E
:10592000209143022150330B8217930764F5EC0159
:10593000CC0FDD1FC80FD91FC751DC4F00E020E09E
:105940004FEF60E082E00E940D22688379838A83B2
:105950001F5FE4CF809143028117A8F0812F90E070
:10596000EC01CC0FDD1FC80FD91FC751DC4F00E081
:1059700020E04FEF60E082E00E940D22688379838F
:105980008A831F5FE7CFDF91CF911F910F91089519
:10599000EF920F931F93CF93DF938AEF90E10E94D2
:1059A000DA12882309F40AC1809106028111B8C075
:1059B0002091990730919A0780915C052530310537
:1059C00009F08FC0209162053091630521153105E2
:1059D00021F02730310509F084C090915A069111C9
:1059E00080C090915B0691117CC090915C069111F2
:1059F00078C090915306911174C081110FC0EE24AC
:105A0000E39400ED17E021E040914E0F61E08EE459
:105A100091E00E94201C81E080935C0580915C05F0
:105A200081111DC08091990790919A07059709F0FF
:105A300062C080915C06811109C080915A06811173
:105A400005C080915306882309F455C080916205F2
:105A500090916305009719F0079709F04CC00E94D8
:105A6000612C00910002109101026091270270E008
:105A7000C8010E94ECB3EB018091990790919A07BD
:105A80000297029708F474C083EC9FE00E9494127E
:105A900020913302672B682B692B09F45FC0222306
:105AA00009F44CC08EEF98E10E945166E801C45D94
:105AB000DE4FC81BD90B80915A06882331F0C09164
:105AC0000002D0910102CC0FDD1FAE0170E060E05A
:105AD0008AEF90E1DF91CF911F910F91EF900C949D
