:100000000C94A3030C94D4030C94D4030C94D40345
:100010000C94D4030C94D4030C94D4030C94D40304
:100020000C94D4030C94D4030C94D4030C94D403F4
:100030000C94D4030C94D4030C94D4030C94D403E4
:100040000C94D4030C94D4030C94D4030C94D403D4
:100050000C94D4030C94D4030C94D4030C947B69B7
:100060000C94D4030C94CF6A0C94A56A0C94D4031A
:100070000C94D4030C94D4030C94D4030C94D403A4
:100080000C94D4030C94D4030C94D4030C94D40394
:100090000C947B6A0C94516A0C94D4030C942C6ECF
:1000A0000C94D4030C94D4030C94D4030C94D40374
:1000B0000C94D4030C94D4030C94D4030C94D40364
:1000C0000C94D4030C94D4030C94D4030C94D40354
:1000D0000C94D4030C94D4030C94276A0C94FD69FB
:1000E0000C94D4030C94DC0B0C94C4200C940A20C4
:1000F0000C9442440C94A4670C9449160C94470643
:100100000C9479210C9493620C940C040C949A40F6
:100110000C947B610C947E470C94425F0C94B51553
:100120000C94E60B0C9418040C94F92E0C94A12C4E
:100130000C94AF600C946F3F0C940C160C94864793
:100140000C9425350C9492370C94BC850C94AB3FE1
:100150000C941E040C9407350C9492620C94536713
:100160000C944C060C94AD150C948A470C94E962DF
:100170000C949A2C0C9480150C94BD600C94584FE0
:100180000C9402210C94A2150C946F220C94395FEC
:100190000C9410610C94E3200C94C8150C948247C5
:1001A0000C9431220C94CE420C94B6440C941F351E
:1001B0000C94C2670C94BB150C94300C0C94641610
:1001C0000C949F600C946F500C94AD220C94C41549
:1001D0000C94AE500C9470470C94BF0B0C94C560FB
:1001E0000C94325F0C9481670C94B5620C94195F87
:1001F0000C94CB600C94CB150C9451310C947A4434
:100200000C94DB150C9486200C94EB220C94DE15D8
:100210000C94B8150C9444670C9422620C94BC6244
:100220000C942E3F0C94240C0C948A1F0C943C408C
:100230000C94A5200C9490600C948E220C94B360C6
:100240000C94E10B0C94C1600C9495670C94946031
:100250000C941B630C94605E0C946C470C94972C6C
:100260000C94C1150C94A6400C94B2370C94C7158D
:100270000C94A8150C94AB500C94D6670C941204F3
:100280000C9427350C94E23F0C94D4210C94D73E67
:100290000C94B7310C940B0C0C9440210C94A515C4
:1002A0000C949D150C94003F0C9422040C9429206E
:1002B0000C94A9600C948B370C94D7150C94B03720
:1002C0000C94180C0C9423350C941A060C9485404D
:1002D0000C945D670C9458610C94CE150C949F2C73
:1002E0000C94AE670C9467670C94CF600C94334405
:1002F0000C9449670C9421350C949C600C943F5FDE
:100300000C94B2150C94F3210C9411610C94CF5BF6
:100310000C94D70B0C941B040C943D440C940F408C
:100320000C949C2C0C9415060C9418630C948B67FD
:100330000C9421210C942F160C9455520C94BE3E13
:100340000C94631F0C94B8670C94D84F0C945C7A8F
:100350000C944E0C0C94D4150C946F670C9467207D
:100360000C94AF150C94B5210C9467610C948961C1
:100370000C94E1150C94BB440C94AA150C94AA3768
:100380000C94B7600C94A2620C94CA600C94CC22BA
:100390000C94AE370C948A600C94CC670C941222A7
:1003A0000C9450220C9448200C947A470C94A5602D
:1003B0000C94D5610C9496210C9498600C94913E09
:1003C0000C9400350C94AC370C9477670C94126144
:1003D0000C943C5F0C943C670C94144F0C946B4051
:1003E0000C94D1150C94D81F0C94184F0C94B91F71
:1003F0000C940A230C94BE15450515253544342468
:1004000014044333231303021222324241312111D7
:1004100001001020304040302010000111213141F6
:10042000423222120203132333430414243444358A
:10043000251505453738393A3B3B3A3938370010EE
:10044000203001112131021222320313233304140C
:100450002434051525350616263636261606352586
:1004600015053424140433231303322212023121DC
:1004700011013020100000050B11171D00040B1096
:10048000161B000000000000000000000000010139
:10049000010101010101020202020202030303033E
:1004A00004040404050505050606060707070808F1
:1004B000080909090A0A0B0B0B0C0C0D0D0E0E0F87
:1004C0000F101011111212131314141515161717FB
:1004D0001818191A1A1B1C1C1D1E1E1F2020212251
:1004E0002323242526262728292A2A2B2C2D2E2F84
:1004F0002F30313233343536373838393A3B3C3D9A
:100500003E3F4041424344454647494A4B4C4D4E8D
:100510004F5051525455565758595B5C5D5E5F6160
:10052000626364666768696B6C6D6F707173747514
:100530007778797B7C7E7F808283858688898B8CA7
:100540008E8F9192949597989A9B9D9EA0A2A3A519
:10055000A6A8AAABADAFB0B2B4B5B7B9BABCBEC06D
:10056000C1C3C5C7C8CACCCECFD1D3D5D7D9DADCA1
:10057000DEE0E2E4E6E8E9EBEDEFF1F3F5F7F9FBB5
:10058000FDFF00191830011A172F021B162E031C2D
:10059000152D041D142C051E132B061F122A0720CF
:1005A00011290821102809220F270A230E260B24BF
:1005B0000D25000102030405060708090A0B0C0DAE
:1005C0000E0F101112131415161718191A1B1C1DD3
:1005D0001E1F2021222331302F2E2D2C2B2A29289B
:1005E0002726000000006410B71DC8206E3BAC3009
:1005F000D9269041DC76F4516B6B5861B24D3C7159
:1006000005502083B8ED44930FF0E8A3D6D68CB301
:1006100061CBB0C2649BD4D2D38678E20AA01CF22C
:10062000BDBD00002100240027002A002D0030005D
:10063000330001010000040107010A01000022004B
:10064000250028002B002E0031003400020100009C
:10065000050108010B0100002000230026002900ED
:100660002C002F00320000010000030106010901E7
:1006700005050505070508080808020202020A0A1E
:10068000080804040404010101010101010103033C
:10069000030303030303040707070C0C0C0C0C0CE7
:1006A0000C0C0202020206060606060606060B0BE4
:1006B0000B0B0B0B0B0B0102102020080810204025
:1006C0001020408002010201080402010102040816
:1006D00010204080804020100804020180040201A4
:1006E00080402010080402010804020101020408ED
:1006F00010204080010204081020408000000A0BF6
:1007000002090C0D0E0807030401000000000000A0
:1007100000000000000000000000000000000000D9
:100720000000000000000000121110000000000096
:1007300000000000000000000000000000000000B9
:1007400000005C7ABC8511241FBECFEFD1E2DEBF72
:10075000CDBF00E00CBF12E0A0E0B2E0E6ECF2E1B9
:1007600001E00BBF02C007900D92AE3EB107D9F772
:100770002CE0AEEEB2E001C01D92A73CB207E1F75B
:1007800013E0C2EAD3E000E006C021970109802F00
:10079000FE010E942787C13AD10780E00807A9F728
:1007A0000E943A7D0C9451890C9400009091200392
:1007B0009C3131F4E82FF0E0E458FB4F8491089528
:1007C0009E3129F4E82FF0E0EA58FB4FF7CF81E0A3
:1007D00008952091200390911203E82FF0E02C312E
:1007E00049F4992321F0E65AFB4F84910895E25C85
:1007F000FB4FFBCF2E3141F4992319F0EA5EFB4FFA
:10080000F4CFE850FC4FF1CF992319F0E75CFB4F90
:10081000ECCFEC5CFB4FE9CF809106038F5F8093B8
:1008200006030895809105038F5F80930503089563
:1008300090E080E00895FC0164870895FC018485C0
:1008400090E00895FC018685978508951092FB023B
:1008500084E6809303021092FC0245E050E060E0E1
:1008600070E080EF94E00C942F6DE2E0F1E0808185
:100870008F7D808380818F7B80831098119880E0AA
:100880000E94A54780E00E942E47EAE5F4E010862A
:100890001186089520911E0330911F03A901435032
:1008A00051094230510518F02630310511F48823E2
:1008B00099F19091060220910502921303C08111D3
:1008C00018C008952917A8F481E08093F40244E247
:1008D00050E060E070E09330D9F070F44EE150E009
:1008E00060E070E09230A1F049E150E060E070E03B
:1008F0000FC01092F402EBCF4DE250E060E070E0E8
:10090000943031F04CE350E060E070E0953061F7F6
:1009100088E195E00C942F6D0895CF93C82F84E063
:10092000C530F0F00E94E90360E00E945F6683E05A
:100930000E94E90360E00E945F6682E00E94E90392
:1009400060E00E945F6681E00E94E90360E00E942F
:100950005F6680E00E94E90360E0CF910C945F66DF
:100960000E94E90361E00E945F66C43001F383E006
:100970000E94E90361E00E945F66C330F1F282E009
:100980000E94E90361E00E945F66C230E1F281E00B
:100990000E94E90361E00E945F66C111DACF80E046
:1009A0000E94E90361E0D9CFEF92FF920F931F936A
:1009B000CF93DF9382E894E00E94FF6C882341F09C
:1009C00040E951E060E070E082E894E00E942F6D21
:1009D0008091200310E08E3109F012E082E894E06B
:1009E0000E94B96C683C71058105910508F0CEC084
:1009F000C091CF03CC2391F080911E0390911F03EF
:100A0000069759F480910702853039F4C1E080914E
:100A1000280390912903892B09F0C0E080911903E4
:100A200090911A030197029788F480911E03909188
:100A30001F03069759F480910702853039F480919D
:100A4000280390912903019709F4C1E080914F0494
:100A50008A3B69F480911E0390911F03069739F435
:100A6000D1E08091280390912903892B09F0D0E0EF
:100A7000809120038C3169F105E08E3159F180E0DD
:100A8000DD2309F47BC00E94E90360E00E945F66F9
:100A900081E00E94E90361E00E945F6682E00E94BB
:100AA000E90361E00E945F6683E00E94E90361E080
:100AB0000E945F6684E0CC2309F464C00E94E903CD
:100AC00060E0DF91CF911F910F91FF90EF900C9418
:100AD0005F6604E0CC2379F1C0E08EE190E07C0118
:100AE000E11AF108CE151F04ACF4CC2369F0DD2324
:100AF00011F0C01710F0C93138F08C2F0E94E903B3
:100B00000E940266CF5FEECF8C2F0E94E9030E9405
:100B1000E465F8CF809120038E3129F48DE10E94A5
:100B2000E9030E94E465DF91CF911F910F91FF903F
:100B3000EF900C942169DD23C9F0C1E08EE190E0D3
:100B40007C01E11AF108CE151F046CF78C2FCC2321
:100B500041F0C01730F40E94E9030E940266CF5FA3
:100B6000F2CF0E94E9030E94E465F9CFDF91CF91B3
:100B70001F910F91FF90EF900C9417690E94E90369
:100B800061E084CF0E94E90361E09BCF809107027E
:100B9000833009F4BDC068F4813009F40BC18230A0
:100BA00009F4E3C0DF91CF911F910F91FF90EF9077
:100BB0000895843009F47BC08530A1F7809120032B
:100BC0008C3109F439C08E3109F068C0C1E08EE182
:100BD00090E09C01211B31098901C01711060CF01E
:100BE000A2CFEBEFEC0FE93100F5F0E08827E450FD
:100BF000FA4F8F4F0C9427871A061A06150615060A
:100C0000150615061A061A06150615061506150602
:100C10001A061A0615061506150615061A061A06E8
:100C200015061506150615061A068C2F0E94E903EF
:100C30000E940266CF5FD1CFC1E08EE190E09C01BF
:100C4000211B31098901C01711060CF06CCFECEFA4
:100C5000EC0FE531E0F4F0E08827EE5CF94F8F4FC0
:100C60000C9427874C064C064C0647064706470659
:100C70004C064C064C064706470647064C064C06F3
:100C80004C064706470647064C064C064C068C2F7A
:100C90000E94E9030E940266CF5FD5CF85E0DF9115
:100CA000CF911F910F91FF90EF900C948D04809144
:100CB00020038C3149F18E3149F5C1E0CD3038F453
:100CC0008BEFCB3028F0CF5FC731C1F72CCF8FEE41
:100CD0008C0F8230C0F38C2F0E94E9030E940266C1
:100CE000F2CFCD3038F48CEFCA3028F0CF5FC63168
:100CF000C1F719CF80EF8C0F8330C0F38C2F0E9487
:100D0000E9030E940266F2CFC1E0F8CF84E0C7CFCA
:100D1000809120038C3129F18E3129F5C1E0C53055
:100D200030F0C73048F085EF8C0F823028F08C2FE0
:100D30000E94E9030E940266CF5FC13181F7F3CEC2
:100D4000C43030F0C73048F086EF8C0F833028F085
:100D50008C2F0E94E9030E940266CF5FC03181F7A9
:100D6000E2CEC1E0F5CF83E09ACF809120038C31B1
:100D7000E9F08E31E9F4C1E08BEF8C0F823028F07E
:100D80008C2F0E94E9030E940266CF5FCB30A1F74F
:100D9000CACE8CEF8C0F833028F08C2F0E94E90391
:100DA0000E940266CF5FCA30A1F7BDCEC1E0F5CF89
:100DB00082E075CF809120038C3161F08E31A1F4F7
:100DC000C1E08C2F0E94E9030E940266CF5FC5300C
:100DD000C1F7A9CEC1E08C2F0E94E9030E940266F0
:100DE000CF5FC430C1F79FCE81E059CF0F931F93DF
:100DF000CF93809120038C3191F08E31B9F480E053
:100E0000C0E00EE110E0081B1109C01711064CF4F8
:100E10008C2F0E94E9030E940266CF5FF6CF82E02A
:100E2000EFCFCF911F910F910C94216985E0CF9165
:100E30001F910F910C948D04EF92FF920F931F93CB
:100E4000CF93DF9300D01F921F92CDB7DEB7809172
:100E500020038D7F8C3109F0E1C088E195E00E948C
:100E6000FF6C882309F457C08091200312E08E3173
:100E700009F410E085E0E0E3F2E0DE011196019074
:100E80000D928A95E1F78091E5039091E603019731
:100E900031F48AE089838A838B838C838D8380916C
:100EA000FD02282F30E04EE150E07A01E11AF1080E
:100EB0009091F402992309F458C02E153F0524F4AB
:100EC0000E94E9030E942C69809106028530E9F5B1
:100ED0008091FD028E151F0451F14CF11092F40225
:100EE0008EE1811B8093FD028091E5039091E603E2
:100EF0004AE550E060E070E0019711F5109220059E
:100F0000109221058091F402882329F08091FD023E
:100F10008F5F8093FD020F900F900F900F900F90B6
:100F2000DF91CF911F910F91FF90EF9008954D8128
:100F300084E0489FA0011124052E000C660B770B5E
:100F400088E195E00E942F6DDDCF0E94D60390913D
:100F5000FD02981718F01092F402C6CFE091060235
:100F6000EC0FFD2FF11D4081E3CF2E153F0524F43A
:100F70000E94E9030E9425691091FD02111116C01B
:100F800081E08093F4024AE550E060E070E088E19F
:100F900095E00F900F900F900F900F90DF91CF91F1
:100FA0001F910F91FF90EF900C942F6D11501093A3
:100FB000FD0201E0809120038E3109F400E0809170
:100FC00006022091E5033091E6038530A9F4213033
:100FD000310541F41E151F042CF4109220051092C7
:100FE000210599CF4D8184E0489FA0011124052E51
:100FF000000C660B770BCBCF2130310541F40E94FA
:10100000D603800F9927991F1817190634F3E0911A
:101010000602EC0FFD2FF11D4081E5CF8091060205
:101020008330C9F080F48230A1F081E00F900F90FE
:101030000F900F900F90DF91CF911F910F91FF9024
:10104000EF900C948D04843041F0853071F785E089
:10105000EDCF82E0EBCF83E0E9CF84E0E7CFEF9202
:10106000FF920F931F93CF939091200380910602DC
:101070009C3199F010E09E3189F0833009F458C01A
:1010800008F04DC0823009F451C081E0CF911F912A
:101090000F91FF90EF900C948D0412E0212F30E01F
:1010A000C0E08530D9F48EE190E07C01E21AF30AC9
:1010B000CE151F043CF48C2F0E94E9030E940266A7
:1010C000CF5FF6CF0E9421698EE1811B8093FD02E4
:1010D000CF911F910F91FF90EF9008950EE110E0D6
:1010E000021B130BC01711069CF4809106020E948C
:1010F000D6038C1738F08C2F0E94E9030E940266F9
:10110000CF5FF0CF8C2F0E94E9030E94E465F8CFF7
:101110000E942169809106020E94D603D7CF8430B5
:1011200049F0853009F0B1CF85E0B0CF82E0AECF95
:1011300083E0ACCF84E0AACF8091E5039091E603F1
:10114000019739F480E190E09093170280931602A2
:10115000089583E090E090931702809316028091A7
:101160001E0390911F03049761F08091E103909119
:10117000E203019769F78091E3039091E403892BDF
:1011800039F786E090E0E0CF809120038D7F8C31AD
:1011900021F40E9417691092FD020895EAE2F7E037
:1011A000108611861092010370E060E08BE00C94D1
:1011B000046740912A0350912B034330510569F194
:1011C00090910C02992349F120911E0330911F0345
:1011D0002430310511F19091DF039923F1F09091C2
:1011E00094044230510529F42330310511F099233C
:1011F000A1F020910103992391F0682F70E0660F10
:10120000771F6F3F710519F014F06FEF70E026172C
:10121000170671F06093010308C00C94CE08821782
:1012200039F080930103682F70E08BE00C94046721
:101230000895CF93809120038C3109F03BC18091B8
:10124000FD028C3108F1883308F045C0C7E3C81BA4
:1012500080911E0390911F03049709F04EC00E94D5
:10126000CE088C2F0E94E9030E9425698091FD021F
:10127000873309F03EC110924F051092500510922D
:10128000F4021092FD0227C00E94E9030E942C691B
:101290008091FD02873108F181E40E94D908809194
:1012A000FD028F5F8093FD028C3109F043C14AE556
:1012B00050E060E070E087E495E00E942F6D80913F
:1012C000E5039091E603019731F488E090E0909374
:1012D000170280931602CF910895813110F087E3B1
:1012E000DCCF8C3010F08DE2D8CF853010F083E267
:1012F000D4CF8823A1F289E1D0CF8091E5039091EA
:10130000E60320910602253018F48130910511F092
:10131000892B29F48C2F0E94E9030E942569809172
:10132000E5039091E6030097F9F00197A1F680910B
:101330000602833009F475C098F5823009F48FC035
:101340008FE00E94D9089091FD02923309F0A5C068
:1013500010924F05109250051092F40284E0809391
:10136000FD02CF910C949C088091FD02873309F017
:1013700039C144E050E060E070E088E195E00E940F
:101380002F6D10924F051092500581E08093F4026A
:101390001092FD020E949C088FE0CF910C94D90816
:1013A000843009F1853061F69091FD02973389F41C
:1013B000109220051092210510924F0510925005B1
:1013C0001092F4028BE18093FD020E949C0888E257
:1013D000E4CF10924F051092500581E08093F40203
:1013E00087E3891BF0CF9091FD02903269F410924F
:1013F0004F05109250051092F40286E18093FD0291
:101400000E949C088DE2C9CF913208F42AC1109243
:101410004F051092500581E08093F40287E3891B09
:10142000EDCF9091FD02963269F410924F05109223
:1014300050051092F40280E18093FD020E949C0806
:1014400089E1ABCF973208F438C110924F05109262
:10145000500581E08093F40287E3891BEDCF9091E2
:10146000FD029B3269F410924F05109250051092C4
:10147000F4028BE08093FD020E949C0884E18DCFF2
:101480009C3208F43EC110924F051092500581E045
:101490008093F40287E3891BEDCF933308F4A2C055
:1014A00010924F051092500581E08093F40287E37B
:1014B000891B55CF8E3109F044C18091FD028E31D8
:1014C00030F18C3308F007CFCBE3C81B80911E03AB
:1014D00090911F03049709F04CC00E94CE088C2FF6
:1014E0000E94E9030E9425698091FD028B3309F473
:1014F000C2CE40E550E060E070E087E495E00E94F5
:101500002F6D8091FD028F5F8093FD02E4CE0E94DB
:10151000E9030E942C698091FD028831D0F081E4BA
:101520000E94D9088091FD028F5F8093FD028E3169
:1015300009F4BDCE4091160250911702440F551F79
:10154000440F551F70E060E087E495E0CF910C9464
:101550002F6D823110F087E3E3CF8C3010F08DE2F5
:10156000DFCF863010F083E2DBCF8823D9F289E128
:10157000D7CF8091E5039091E603209106022530B4
:1015800018F48130910511F0892B29F48C2F0E94D9
:10159000E9030E9425698091E5039091E603009795
:1015A000E1F0019709F097CE80910602833009F4AB
:1015B0006DC018F5823009F495C08FE00E94D908FB
:1015C0009091FD02953309F0B0C010924F05109232
:1015D00050051092F40285E0C2CE8091FD028B335B
:1015E00009F4C7CE4091160250911702440F551FBF
:1015F000440F551F70E060E080CF8430D9F0853013
:10160000E1F69091FD029B3361F410922005109257
:10161000210510924F05109250051092F4028DE1B1
:10162000D2CE10924F051092500581E08093F402C3
:101630008BE3D7CE9091FD02933241F410924F0587
:10164000109250051092F40287E1D8CE943248F0FF
:1016500010924F051092500581E08093F4028BE3C5
:10166000DECE4091160250911702440F551F440FD1
:10167000551F70E060E087E495E00E942F6D809137
:10168000FD028F5F8093FD028BE187CE9091FD027A
:10169000993241F410924F05109250051092F402C5
:1016A00081E1CACE9A3248F010924F05109250054F
:1016B00081E08093F4028BE3D0CE409116025091EA
:1016C0001702440F551F440F551F70E060E087E478
:1016D00095E00E942F6D8091FD028F5F8093FD0247
:1016E00083E25BCE9091FD029F3209F4BCCE48F0BC
:1016F00010924F051092500581E08093F4028BE325
:10170000CACE4091160250911702440F551F440F44
:10171000551F70E060E087E495E00E942F6D809196
:10172000FD028F5F8093FD028BCE963308F45ACF73
:1017300010924F051092500581E08093F4028BE3E4
:10174000B7CE80911E0390911F03C1E0049709F466
:10175000C2E0E091FE02EA3008F0BDCDF0E088275B
:10176000EB54F44F8F4F0C942787BF0BD70BDC0B38
:10177000E10BE60B0B0C180C240C300C4E0C89E121
:101780000E94D90881E00E948D0488E7C89FA001CB
:101790001124052E000C660B770B87E495E00E9460
:1017A0002F6D8091FE028F5F8093FE0294CD83E2C5
:1017B0000E94D90882E0E7CF8DE20E94D90883E039
:1017C000E2CF87E30E94D90884E0DDCF81E40E9464
:1017D000D90885E00E948D048091FE02282F30E018
:1017E0002F5F3F4F909106029217130641F420910C
:1017F0001E0330911F032430310509F048C08F5F6C
:101800008093FE0288E7C89FA0011124052E000CDA
:10181000660B770B99CE87E30E94D90884E00E947B
:101820008D048091FE02482F4150550B9A01DACF6A
:101830008DE20E94D90883E00E948D048091FE020F
:10184000482F4350550BF2CF83E20E94D90882E023
:101850000E948D048091FE02482F4550550BE6CF23
:1018600089E10E94D90881E00E948D048091FE02E6
:101870008750990B209106022817190609F085CF89
:1018800080911E0390911F03049709F47ECF10925C
:101890004F05109250051092FE021DCD80E00E946F
:1018A0008D04F5CF8091E3039091E403813091059D
:1018B00039F480911E0390911F03892B79F00895CC
:1018C000892B41F580911E0390911F03892B11F5FF
:1018D0008091E1039091E2030197E1F40E94C40832
:1018E00010928A0410928B0480911103811112C00E
:1018F0000E949C08809120038D7F8C3149F4809157
:10190000E5039091E603019719F480E00E944A04F0
:101910000C94190908958091260390912703823031
:10192000910581F038F4019799F08091220390910C
:10193000230308958330910541F00497B1F783E0C4
:1019400090E0089581E090E0089582E090E00895AD
:1019500090E080E0089510921605109217051092FD
:101960000C0510920D0580910E0381110BC00E9491
:101970008B0C02970297A0F48091E3039091E4030B
:10198000019771F4109A0E948B0C0297029730F421
:101990008091E3039091E403019721F01198089559
:1019A0001098F1CF119A08950F931F93CF93DF935F
:1019B00000D000D0CDB7DEB78FEF9FEFDC01898379
:1019C0009A83AB83BC8310E000E01E830D83BE01CD
:1019D0006B5F7F4FCE0101960E94F96ABE016A5F7C
:1019E0007F4FCE0101960E94F96A0F5F1F4F0332AD
:1019F000110559F78EE190E09E838D83BE016B5FE8
:101A00007F4FCE0101960E94F96ABE016A5F7F4F47
:101A1000CE0101960E94F96A85E090E09E838D8355
:101A2000BE016B5F7F4FCE0101960E94F96ABE0135
:101A30006A5F7F4FCE0101960E94F96A69817A81BF
:101A40008B819C81609570958095909526960FB6B8
:101A5000F894DEBF0FBECDBFDF91CF911F910F91E4
:101A600008958091E7039091E8030197039710F49C
:101A70000C94A86308958091E7039091E80301977F
:101A8000039708F01DC160914C04062E000C770BE3
:101A90008CE390E00E944B6360914C04062E000C96
:101AA000770B8AE691E00E944B6360914C04062E0E
:101AB000000C770B8BE691E00E944B6360914C0425
:101AC000062E000C770B81E290E00E944B63609140
:101AD0004C04062E000C770B8DE190E00E944B63C6
:101AE00060914C04062E000C770B8EE190E00E9472
:101AF0004B6360914C04062E000C770B8FE190E055
:101B00000E944B6360914C04062E000C770B80E220
:101B100090E00E944B6360914C04062E000C770B02
:101B200083E991E00E944B6360914C04062E000C07
:101B3000770B84E991E00E944B6360914C04062E80
:101B4000000C770B87E491E00E944B6380910E03B9
:101B50008823D9F160914C04062E000C770B8091FC
:101B60001C0390911D038230910509F4A3C08330BA
:101B7000910559F1019709F4A0C08EE791E00E9408
:101B80004B6360914C04062E000C770B89E891E0C2
:101B90000E944B6360914C04062E000C770B83E689
:101BA00090E00E944B6360914C04062E000C770B72
:101BB00088E490E00E944B6360914C04062E000C78
:101BC000770B82E690E00E944B6360914C04062EF6
:101BD000000C770B8EE890E00E944B6360914C0400
:101BE000062E000C770B80E990E00E944B63609119
:101BF0004C04062E000C770B8DE890E00E944B639E
:101C000060914C04062E000C770B8FE890E00E9448
:101C10004B6360914C04062E000C770B83E990E037
:101C20000E944B6360914C04062E000C770B81E9F7
:101C300090E00E944B6360914C04062E000C770BE1
:101C400082E990E00E944B6360914C04062E000CE8
:101C5000770B84E990E00E944B6360914C04062E60
:101C6000000C770B82E190E00E944B6360914C0482
:101C7000062E000C770B83E190E00E944B6360918D
:101C80004C04062E000C770B84E190E00E944B631D
:101C900060914C04062E000C770B85E190E00E94C9
:101CA0004B6360914C04062E000C770B86E190E0AC
:101CB0000C944B6384E390E086CF8AE390E083CF7B
:101CC00008958091E7039091E8030197039798F4B2
:101CD0008091CA039091CB03892B59F08091CC035A
:101CE0009091CD03843F21E0920718F064E00E94B8
:101CF0001D630E94A8631092CE031092D003089532
:101D00008091CA039091CB03892B09F45DC0809127
:101D1000CC039091CD03843F21E0920708F454C096
:101D200021E02093D0032091E7033091E803223093
:101D3000310569F12330310519F021303105F9F40D
:101D40002091CF0365E0211101C066E00E941D6370
:101D500060914B04062E000C770B8091CC03909180
:101D6000CD030E944B6361E08091CC039091CD0341
:101D70000E9479630E94A86381E080934A0440E155
:101D800057E260E070E080E594E00C942F6D2091C4
:101D9000CF0365E0211101C066E00E941D636091E0
:101DA0004B04062E000C770B8091CC039091CD0351
:101DB0000E944B6350E040E061E08091CC03909141
:101DC000CD030E94C464D6CF08952091E7033091DB
:101DD000E803215031092330310518F464E00C94F4
:101DE0001D6308958DE890E00E94E50E8EE890E076
:101DF0000E94E50E8FE890E00E94E50E80E990E0F9
:101E00000E94E50E81E990E00E94E50E82E990E0F3
:101E10000E94E50E83E990E00E94E50E84E990E0DF
:101E20000C94E50ECF93C82F80910602823020F0EB
:101E30008430B8F08630E0F081E290E00E94E50E58
:101E4000CC2329F180911C0390911D0382309105D0
:101E5000B1F083309105C1F00197C9F484E991E0B4
:101E600010C081E290E00E94E50E8DE190E0E6CFA7
:101E70008DE190E00E94E50E80E290E0DFCF83E903
:101E800091E0CF910C94E50E87E491E0FACFCF91E9
:101E900008959091400680913B0698131AC0909146
:101EA000850680918006981314C09091CA0680918F
:101EB000C50698130EC08091E3039091E403019747
:101EC00041F448EE53E060E070E08AEF94E00E9455
:101ED0002F6D8091FA02882309F44EC01092FA0205
:101EE0009091400680913B06981312C09091850610
:101EF0008091800698130CC09091CA068091C50607
:101F0000981306C08091E3039091E4030197D9F000
:101F100082E190E00E94E50E83E190E00E94E50EF0
:101F200084E190E00E94E50E85E190E00E94E50EDC
:101F300086E190E00E94E50E40E050E0BA018AEFB1
:101F400094E00C942F6D66E082E190E00E941D63A6
:101F500066E083E190E00E941D6366E084E190E02A
:101F60000E941D6366E085E190E00E941D6366E0CB
:101F700086E190E00C941D630895CF92DF92EF927A
:101F8000FF920F931F93CF93DF936C01F62EC42F14
:101F900014160CF4C0E0CA3B0CF4CAEB8091E703C2
:101FA0009091E8038230910589F18330910519F011
:101FB000019709F047C00C2E000CDD0B222379F0AD
:101FC0006AEB7FEFC6010E944B636E2DC6010E9433
:101FD0007963A801BE01C6010E94F76408C0BE0172
:101FE000C6010E944B636E2DC6010E94796365E0B5
:101FF000F11001C066E0C601DF91CF911F910F91F2
:10200000FF90EF90DF90CF900C941D630C2E000C8E
:10201000DD0B222361F06AEB7FEFC6010E944B6368
:1020200050E040E06E2DC6010E94C464D2CFBE01D4
:10203000C6010E944B6350E040E06E2DC6010E9435
:10204000C464D5CFDF91CF911F910F91FF90EF9096
:10205000DF90CF900895EF920F931F93909102021B
:102060009817F9F08430C1F40E948B0C40914C0415
:10207000EE24E39410E000E020E061E00297A8F095
:102080008AE691E00E94BD0F44E650E060E070E017
:102090008EE095E00E942F6D809102028F5F809309
:1020A00002021F910F91EF9008958CE390E0EACF28
:1020B000EF920F931F938091F102882369F10E94A0
:1020C0008B0C029778F589E491E00E94E50E8CE490
:1020D00091E00E94E50E8DE491E00E94E50E81E022
:1020E0000E94120F80911E0390911F030497A1F08C
:1020F00080910F03811110C081E190E00E94E50EF4
:10210000EE24E39410E000E020E040914C0460E015
:1021100081E190E00E94BD0F1092F1021F910F919A
:10212000EF90089580911E0390911F03049731F062
:102130008091E3039091E403892B69F4EE24E39406
:1021400010E000E020E040914C0460E084E990E081
:102150000E94BD0F1EC080910F0381111AC049E576
:1021600057E060E070E082E895E00E942F6D1092E9
:102170008005109281058091E7039091E803029712
:1021800089F440914C046EE870E082E990E00E948E
:102190002B658FE890E00E94E50E80E990E00E94B8
:1021A000E50EBACFEE24E39410E000E020E0409189
:1021B0004C0460E082E990E0CBCF8091E303909102
:1021C000E4038130910539F480911E0390911F033F
:1021D000892B79F00895892B61F580911E039091E8
:1021E0001F03892B31F58091E1039091E203019760
:1021F00001F50E94490F0E94581081E00E94120FC1
:102200008091200390E08E3109F092E08EE1891BED
:102210008093FD0285E08093FE020E94F60648E767
:1022200050E060E070E087E495E00E942F6D0C9430
:1022300019090895EF920F931F930E94F20E48EE32
:1022400056E060E070E082E895E00E942F6D80919A
:10225000E7039091E803029771F440914C046EE813
:1022600070E08DE890E00E942B65109201021F91B2
:102270000F91EF900895EE24E39410E000E020E049
:1022800040914C0460E08DE890E00E94BD0FEDCFDE
:10229000EF920F931F93CF93C82F40914C048091DE
:1022A0000602833020F0853028F1853061F1EE247C
:1022B000E39408EE13E02C2F61E081E290E00E94AD
:1022C000BD0FCC23A9F180911C0390911D03823096
:1022D000910511F18330910581F1019749F5EE24C3
:1022E000E39404E813E021E040914C0461E084E9C8
:1022F00091E01CC0EE24E39408EE13E02C2F61E083
:102300008DE190E0DCCFEE24E39408EE13E02C2F77
:1023100061E080E290E0D3CFEE24E39404E813E0A0
:1023200021E040914C0461E083E991E00E94BD0FFF
:10233000CF911F910F91EF900895EE24E39404E85C
:1023400013E021E040914C0461E087E491E0EECF9E
:10235000EF920F931F93CF9380911E0390911F03D1
:102360008430910509F4B7C030918506209180062C
:10237000321367C120910E022223A9F020911C0381
:1023800030911D032230310509F4AAC0039759F09A
:1023900080919404882309F4A3C08CE894E00E94FF
:1023A000FF6C81119DC08FEF0E942E47C091F102FA
:1023B0000E948B0CC1112AC0029708F0B1C0809115
:1023C000E00381111DC089E491E00E94E50E8CE4D8
:1023D00091E00E94E50E0E948B0C019709F095C0D8
:1023E0008DE491E00E94E50EEE24E39410E000E01D
:1023F00020E040914C0460E08DE491E00E94BD0F2C
:1024000081E00E94481181E08093F1020E948B0CD0
:1024100002970297C0F488E795E00E94FF6C88233A
:1024200091F08091E7039091E803029761F0EE2428
:10243000E39410E000E020E040914C0461E080E98A
:1024400090E00E94BD0F1092E003909140068091B1
:102450003B069813F0C08091FA0281113CC0809134
:102460000E03811138C08AEF94E00E94FF6C88232C
:1024700091F180911E0390911F03049761F1809167
:10248000FA02811128C00E948B0C0297029708F073
:10249000C4C080910D02882309F4BFC040914C0450
:1024A00080910602833009F4A6C008F08DC0823006
:1024B00009F498C0EE24E39410E000E020E061E02D
:1024C00082E190E00E94BD0F81E08093FA021092B9
:1024D000020510920305CF911F910F91EF9008957F
:1024E00080910602833069F020F4823061F086E644
:1024F0005BCF843021F08530D1F78CEC55CF82EB67
:1025000053CF89E951CF80E84FCFEE24E39410E018
:1025100000E020E040914C0460E089E491E06ECF5F
:1025200010928A0510928B0549E557E060E070E053
:1025300088E795E00E942F6D2091010240914C04A4
:102540008091E7039091E803222351F10297E9F487
:1025500060E970E083E990E00E942B65109201022F
:102560008DE890E00E94E50E8EE890E00E94E50E76
:1025700081E990E00E94E50E82E990E00E94E50E7C
:1025800084E990E00E94E50E3ECFEE24E39410E053
:1025900000E020E060E083E990E00E94BD0FDECF24
:1025A000029739F460E970E08FE890E00E942B65B3
:1025B000D7CFEE24E39410E000E020E060E08FE865
:1025C00090E00E94BD0FCCCF8430F1F0853009F04F
:1025D00071CFEE24E39410E000E020E061E086E1BA
:1025E00090E070CFEE24E39410E000E020E061E0A2
:1025F00083E190E067CFEE24E39410E000E020E078
:1026000061E084E190E05ECFEE24E39410E000E02E
:1026100020E061E085E190E055CF8091410688237C
:1026200009F452CFEE24E39410E000E020E0409162
:102630004C0460E0D4CFCF911F910F91EF900C9498
:10264000490F80E00E942E470E94490FCF911F91B1
:102650000F91EF900C945810EF920F931F9380916D
:1026600012028823D1F0109212028DE590E00E94B0
:10267000E50E8CE590E00E94E50EEE24E39410E078
:1026800000E020E040914C0460E08DE590E00E9485
:10269000BD0F1F910F91EF90089581E0809312027A
:1026A0008DE590E00E94E50E8CE590E00E94E50E3D
:1026B000EE24E39410E000E020E040914C0460E060
:1026C0008CE590E0E4CFEF920F931F9380911E036F
:1026D00090911F038630910509F451C00897029725
:1026E00008F44DC086E090E00E94E50E80E390E0A3
:1026F0000E94E50E85E490E00E94E50E86E490E0FD
:102700000E94E50E8CE290E00E94E50E8EE390E0E0
:102710000E94E50E83E991E00E94E50E84E991E0D4
:102720000E94E50E87E491E00E94E50E80911C0373
:1027300090911D038330910509F48FC0C8F5813055
:10274000910509F446C0029709F465C0EE24E394AC
:1027500010E000E020E040914C0460E086E090E072
:102760000E94BD0F1092FB0284E68093030245E0B5
:1027700050E060E070E080EF94E00E942F6D809167
:10278000E7039091E8030197029750F480911C03AE
:1027900090911D03039709F08DC080E00E94B765FA
:1027A00010929E0410929F041F910F91EF90089534
:1027B0008530910509F473C0069741F6EE24E39441
:1027C00010E000E020E040914C0460E088E991E0F6
:1027D000C7CFEE24E39410E000E020E040914C04E9
:1027E00060E085E490E00E94BD0F8091E30390914A
:1027F000E403019709F0B6CF909185068091800699
:102800009813B0CF00ED17E021E040914C0461E057
:1028100084E991E0A5CFEE24E39410E000E020E00D
:1028200040914C0460E080E390E00E94BD0F8091F5
:10283000E3039091E403019709F094CF909185060A
:102840008091800698138ECF0CEB12E021E040912E
:102850004C0461E083E991E083CFEE24E39410E03F
:1028600000E020E040914C0460E086E490E00E94AB
:10287000BD0F8091E3039091E403019709F072CFBB
:10288000909185068091800698136CCF02EE14E03B
:1028900021E040914C0461E087E491E061CFEE24B7
:1028A000E39410E000E020E040914C0460E087E910
:1028B00091E056CF81E072CFEF920F931F9388E2A1
:1028C00090E00E94E50EEE24E39410E000E020E0AA
:1028D00040914C0460E088E290E00E94BD0F88E5E2
:1028E00090E00E94E50E85E690E00E94E50E89E505
:1028F00090E00E94E50E2091E1033091E203809187
:10290000190390911A0340914C0421303105F1F0E4
:1029100082309105D9F41092E2031092E1031092F3
:102920001A0310921903109218031092170320E053
:1029300060E089E590E00E94BD0F10921D031092A7
:102940001C031F910F91EF900C946313019799F45E
:1029500082E090E090931A038093190390931803F8
:1029600080931703EE24E39410E000E020E060E0A1
:1029700085E690E0E0CF81E090E090931A038093A9
:1029800019039093180380931703EE24E39410E047
:1029900000E020E060E088E590E0CDCF20911903D1
:1029A00030911A038091E1039091E2038130910507
:1029B000F1F421153105B1F41092180310921703A8
:1029C00090931A038093190380911C0390911D0327
:1029D000892B31F010921D0310921C030E94631387
:1029E00080E025C03093180320931703EDCF80912A
:1029F0001703909118038217930791F08130910586
:102A0000B9F082309105A1F010921A0310921903C7
:102A10008091190390911A039093180380931703E0
:102A200081E02091190330911A03232BC9F60895F0
:102A300090931A0380931903EBCFEF920F931F9398
:102A4000CF93C82F8091E7039091E80301970397F4
:102A500038F480914F04082E000C990B0E948B656E
:102A6000C11116C08091E3039091E403892B81F496
:102A700080E490E00E94E50EEE24E39410E000E094
:102A800020E040914C0460E080E490E00E94BD0FA3
:102A9000CF911F910F91EF900895CF93982FC62F4C
:102AA00020912103322F3D7F62E0303309F46FEF34
:102AB0009D3108F025C0E92FF0E08827ED59FA4E46
:102AC0008F4F0C94278764168015A215A515A8159D
:102AD000AA15AD15AF15B215B515B815BB15BE15B0
:102AE000C115C415C815C715CB15CE15D115D415EC
:102AF000D715DB15DE15E1150C162F1649169D1599
:102B000020E094E6392F330F330F330F85E5732F11
:102B1000789F070E70E0711D1124692F6074592F82
:102B2000507297FD2AC1611116C15111D0C0872F73
:102B30008095972F782F80E0CEC020910A02909147
:102B40000B02E0CF27EB94E2DDCF2FEF94EFDACF4B
:102B500020E8FCCF2FEF90E0D5CF20ECFCCF2FEF7B
:102B600095E0D0CF2FEF9AE0CDCF2FEF9FE0CACFE7
:102B70002FEF94E1C7CF2FEF90E2C4CF20E89BE284
:102B8000C1CF2FEF90E4BECF2FEF90E5BBCFC0E8D1
:102B90002FEF90E6B7CF28E790E7B4CF2FEF90E87C
:102BA000B1CF2FEF91E9AECF2FEF90EAABCFC0E7D7
:102BB00028EC9AEAA7CF2FEF94EBA4CF2FEF90EC5D
:102BC000A1CF8091F002882321F0803611F010927D
:102BD000F00280911E0390911F03892B19F4253078
:102BE00009F462E3809100028F5F809300020E94EB
:102BF000E58691110DC08091F002811104C080E63C
:102C00008093F00202C01092F00281E080930002F3
:102C10009091F0022FEF76CF8091F0028F3029F063
:102C2000823D19F08FE08093F00280911E03909115
:102C30001F03892B19F4253009F462E38091000207
:102C40008F5F809300020E94E5869111E1CF809111
:102C5000F0028F3011F482EDD3CF8FE0D1CF80918D
:102C600000028F5F809300020E94E58691110DC0E3
:102C70008091F00290E005966FEF70E00E9413875C
:102C80008093F00281E0809300029091F00220E8AE
:102C900039CF80911E0390911F03892B19F4303393
:102CA00009F464E1809100028F5F809300020E942A
:102CB000E5869111ADCF8091F00290E005966FEF1F
:102CC00070E00E9413879CCFC92F292F1BCF95E559
:102CD000970F80E07BEA2F3FF1F0222309F46CC0CC
:102CE000209530E0222329F0229F312D112421113B
:102CF0003F5F232F2095729F070E70E0711D929FFA
:102D0000090E90E0911D829F080E80E0811D112424
:102D1000730F930F830FCF3FB9F020E0CC2321F046
:102D2000CC9F212D09F02F5F222309F449C0729F07
:102D3000070E70E0711D929F090E90E0911D829F19
:102D4000080E80E0811D1124692F411102C0672FF8
:102D5000792FCF91089551110AC09AEA399F030E35
:102D600030E0311D11248BEA831B970FE3CE80E006
:102D7000972F9095872F70E0AECF611111C0511140
:102D80000BC0832F9AEA899F080E80E0811D1124D1
:102D90009BEA981B8B5AEFCF872F809590E09BCFB3
:102DA000511106C095E5970F8BEA871B792FF6CF57
:102DB0009AEA970F30E0F9CF8FEF9FEF7FEFABCF1D
:102DC00080E090E070E0C0CF962F642F903329F020
:102DD000923319F041E0923009F440E00C944D1523
:102DE0001F93CF93DF9310E080910902181750F5DD
:102DF00060912103E12FF0E0603379F0623321F438
:102E0000EE54FA4FE491F0E0EF01CC0FDD1FCE0F4E
:102E1000DF1FCC5CDC4F4FEF0DC0EE57FA4FE49153
:102E2000F0E0EF01CC0FDD1FCE0FDF1FCC5CDC4FDD
:102E30004FEF60E380E00E94E416688379838A8321
:102E40001F5FD2CFDF91CF911F9108958091210311
:102E50008033D1F0823319F54FEF62E380E00E94B6
:102E6000E4166093A0037093A1038093A2034FEF35
:102E70006091210380E00E94E4166093A3037093A5
:102E8000A4038093A5030BC04FEF60E380E00E9492
:102E9000E416609358037093590380935A03129871
:102EA0000895809120038D7F8C31D1F40E94C40855
:102EB0000E9435040E9426171092FE021092FD0215
:102EC0008091D003882321F08091CE03882361F084
:102ED00040E65AEE60E070E08AE594E00C942F6DD5
:102EE00080E00E948D04E4CF0895EEEBF4E01086BC
:102EF0001186E6EEF4E010861186E8ECF4E0108628
:102F00001186E2EDF4E010861186ECEDF4E0108617
:102F10001186E0EFF4E010861186109204031092FF
:102F2000FF021092FB0284E6809303020E94F016D7
:102F30000C942617EF920F931F93CF93DF93109269
:102F400076051092770510921F0310921E031092BF
:102F50000E031092F9021092F7021092450510929A
:102F6000460510922005109221051092F4028091DE
:102F7000060281502091E5033091E6038093FE0222
:102F80001092FD022130310509F06DC080913003AF
:102F900090913103019709F05BC00E942F080E94B5
:102FA0001C071092EE041092EF041092BC041092D1
:102FB000BD041092A8041092A90440E050E0BA01A8
:102FC00082ED94E00E942F6D0E9426170E94AB0CA8
:102FD0000E948B0C029708F44BC08AE691E00E9495
:102FE000E50E1092F8021092F6021092F50210927D
:102FF00050071092510780911C0390911D0382305D
:10300000910509F4F9C08330910509F461C0019775
:1030100009F4FCC00E948B0C8130910509F4A7C013
:1030200050F1039709F4E4C08AEA94E00E94B96C75
:10303000683873418105910508F0C0C0E12C10E0AB
:1030400000E020E040914C0460E083E891E03EC065
:103050000E94C40885E090E09093170280931602C6
:103060000E9419099ECF0E94C40883E090E0F4CF2B
:103070008CE390E0B4CF80910602853009F44AC019
:103080008AEA94E00E94B96CE12C10E000E0683814
:1030900073418105910508F48AC08AEA94E00E9490
:1030A000B96CE12C10E000E06031774281059105B8
:1030B00038F420E040914C0460E08AE090E006C0E3
:1030C00020E040914C0460E080E891E00E94BD0F58
:1030D00080911C0390911D038230910509F41CC15D
:1030E0008330910509F4CFC0019709F41CC1C09148
:1030F00006020E948B0CC53009F4F8C0813091059E
:1031000009F495C008F48CC0039709F4ECC080E67C
:1031100090E088C08AEA94E00E94B96C68387341F4
:103120008105910550F4E12C10E000E020E0409191
:103130004C0460E088E891E0C9CF8AEA94E00E94FC
:10314000B96CE12C10E000E0603177428105910517
:1031500038F420E040914C0460E08BE891E0B6CF79
:1031600020E040914C0460E08AE891E0AFCF8AEA29
:1031700094E00E94B96C683873418105910550F460
:10318000E12C10E000E020E040914C0460E08BE096
:1031900090E09CCF8AEA94E00E94B96CE12C10E0A8
:1031A00000E0603177428105910508F082CF20E090
:1031B00040914C0460E087E490E088CF8AEA94E094
:1031C0000E94B96CE12C10E000E06031774281058B
:1031D000910538F420E040914C0460E082E891E0F1
:1031E00075CF20E040914C0460E081E891E06ECF23
:1031F000E12C10E000E0EECFE12C10E000E020E058
:1032000040914C0460E085E390E060CFE12C10E059
:1032100000E020E040914C0460E08BE390E056CF6A
:103220008DE791E00E94E50E8EE791E006C084E60E
:1032300090E00E94E50E83E690E00E94E50E80910A
:103240001102882321F089E090E00E94E50E88E4D5
:1032500090E00E94E50E82E690E00E94E50E8091EB
:103260001C0390911D03059721F483EA91E00E94CD
:10327000E50E80911C0390911D03069721F484EACA
:1032800091E00E94E50E80910303882331F1C09103
:10329000E703D091E80380912403909125038130C6
:1032A000910509F44CC0029709F044C0239741F4FA
:1032B0008EE690E00E94E50E8FE690E00E94E50E1B
:1032C000E12C10E000E020E040914C0460E08FE64B
:1032D00090E00E94BD0F10920303DF91CF911F91E8
:1032E0000F91EF9008958FE491E09CCF813091058C
:1032F00069F028F0039769F08BE990E09ECF87E8AA
:1033000091E00E94E50E89E891E097CF81E690E098
:1033100094CF8FE491E091CF83E390E00E94E50E9B
:1033200084E390E0AECF89E390E00E94E50E8AE36B
:1033300090E0A7CF0E948B0C029708F0B7CF23979D
:1033400041F48AE490E00E94E50E89E490E00E9456
:10335000E50EE12C10E000E020E040914C0460E03C
:1033600089E490E0B6CFEF920F931F930E948B0CED
:10337000029708F4A7C00E94F20E80911E0390915C
:103380001F03049721F080910003882361F083E4F8
:1033900090E00E94E50E8FE390E00E94E50E84E449
:1033A00090E00E94E50E89E491E00E94E50E8CE633
:1033B00091E00E94E50E20911E0330911F03809141
:1033C00000032730310509F086C081118AC0809141
:1033D0000F03811186C01092E4031092E303109250
:1033E0001F0310921E0380910E0381110E949A17F1
:1033F0000E94490F0E94581081E00E94120F0E9403
:10340000CE088EE390E00E94E50E80911C0390911F
:103410001D038230910509F4CFC08330910509F472
:10342000D1C0019709F4CBC086E090E00E94E50E80
:1034300080911E0390911F03079781F080910F03E5
:10344000882361F0EE24E39410E000E020E0409156
:103450004C0460E08EE591E00E94BD0F10920703DE
:1034600081E08093010210926C0510926D0510921C
:103470008A0410928B0410929E0410929F04109262
:10348000940410929504109216051092170510924C
:103490000C0510920D058091E3039091E403892BB4
:1034A00069F48091E1039091E203019709F08DC0E6
:1034B0000E949C0810920603109205031F910F9121
:1034C000EF9008958091F102811157CF8CE491E043
:1034D0000E94E50E52CF811186CF80910F0381119A
:1034E00082CF1092E4031092E30310921F03109214
:1034F0001E0380910F03882341F084E991E00E942C
:10350000E50E8BE691E00E94E50E80910F0381119C
:103510000E9475170E948B0C029708F58091E103B9
:103520009091E203892BC1F48091F102811114C0C2
:1035300080910F03811110C08BEF90E00E94E50E87
:10354000EE24E39410E000E020E040914C0460E0C1
:103550008BEF90E00E94BD0F10920F0344CF80913B
:10356000F102811116C080910F03811112C0809168
:103570001E0390911F03049761F0EE24E39410E082
:1035800000E020E040914C0460E081E990E00E947E
:10359000BD0F80910F038111DFCF81E190E00E9488
:1035A000E50EEE24E39410E000E020E040914C04AE
:1035B00060E081E190E0CECF80E390E037CF85E41A
:1035C00090E034CF86E490E031CF10924F05109216
:1035D000500510922005109221050E94511768CFC6
:1035E000EF920F931F930E94B31982E090E09093A3
:1035F000E4038093E30387E090E090931F038093BC
:103600001E0380910F03811137C040E456E060E053
:1036100070E08EE095E00E942F6D40E951E060E09F
:1036200070E084E095E00E942F6D40E951E060E099
:1036300070E082E894E00E942F6DE12C10E000E041
:1036400020E040914C0460E083E490E00E94BD0FD4
:1036500020E040914C0460E08FE390E00E94BD0FB9
:1036600020E040914C0460E084E490E00E94BD0FB3
:103670001F910F91EF9008950E948B0C40914C0484
:10368000EE24E394039739F410E000E020E060E0DA
:1036900084E991E0EBCF04EC19E021E061E08BE6F6
:1036A00091E0E4CFEF920F931F93109207031092D3
:1036B0000F0381E080930102109262041092630470
:1036C0002091E1033091E2032130310509F5309377
:1036D000E4032093E30310921F0310921E038091D2
:1036E000CB06811110C08CEF90E00E94E50EEE2415
:1036F000E39410E000E020E040914C0460E08CEFA7
:1037000090E00E94BD0F1F910F91EF900C94426DBD
:103710002091400690913B06291309C09091130314
:10372000992329F0809300030E94F01AECCF81E0E6
:1037300090E09093E4038093E30310921F031092B0
:103740001E03E1CFEF920F931F9380911E03909180
:103750001F03039729F480910E0381110E949A1789
:1037600084E090E090931F0380931E034CEA5DE099
:1037700060E070E084E695E00E942F6D0E94490FA2
:103780000E94581081E00E94120F8091110388233B
:1037900009F44DC010924F05109250050E94C408C4
:1037A00040E951E060E070E082E894E00E942F6D13
:1037B000E12C10E000E020E040914C0460E083E464
:1037C00090E00E94BD0F20E040914C0460E08FE348
:1037D00090E00E94BD0F20E040914C0460E084E442
:1037E00090E00E94BD0F40E951E060E070E08EE69D
:1037F00094E00E942F6D40E456E060E070E084E6C3
:1038000094E00E942F6D81E190E00E94E50EEE248D
:10381000E39410E000E020E040914C0460E081E19E
:1038200090E00E94BD0F1F910F91EF90089580913D
:10383000200390E08E3109F092E08EE1891B8093A5
:10384000FD0285E08093FE020E94F60648E750E004
:1038500060E070E087E495E0D4CFEF920F931F9380
:1038600080911E0390911F0304973091CA06209106
:10387000C506039708F49AC2321751F081E090E030
:1038800090931F0380931E031F910F91EF90089553
:1038900080910703833008F486C081E080930F0392
:1038A0000E94F01A0E9426040E948B0C48EB5BE0F9
:1038B000039711F448E853E180910602833009F43C
:1038C0006CC008F05FC0823009F46AC070E060E04C
:1038D00088E794E00E942F6D80910F028823A1F267
:1038E0008091E1039091E203892B71F6909140065B
:1038F00080913B06981741F2909185068091800651
:103900009813C2CF80911202882309F4BDCF809111
:103910001407882309F440C285E090E090931F03C8
:1039200080931E0340ED57E060E070E084E695E090
:103930000E942F6D83E591E00E94E50E83E991E0FE
:103940000E94E50E88E591E00E94E50EEE24E394E6
:1039500010E000E020E040914C0460E087E591E059
:103960000E94BD0F80911C0390911D03029709F0E6
:103970008BCF20E040914C0460E083E591E00E9411
:10398000BD0F82CF843031F0853009F09FCF405396
:10399000584F9CCF44525A4F99CF48515C4F96CFC5
:1039A0004C505E4F93CF8091F3028823A9F086E9B3
:1039B00094E00E94B96C672B682B692B69F4109214
:1039C000F3020E948B0C029738F480911E039091B1
:1039D0001F03039709F0109890910F0780910A0731
:1039E000981349C09091400680913B06981343C0BC
:1039F000909185068091800698133DC080910402C5
:103A00008823C9F180911C0390911D038130910599
:103A100009F4CFC0039709F4EEC088E794E00E9450
:103A2000B96C672B682B692B51F41092070348EE91
:103A300053E060E070E088E794E00E942F6D809191
:103A4000F902811105C0809107038F5F80930703FE
:103A500080910703833078F480911E0390911F03B7
:103A6000039731F083E090E090931F0380931E034F
:103A700081E08093F9023091FB052091F605809159
:103A8000190390911A030197029708F0DEC03213D0
:103A9000CBC09091400680913B06981338C090911E
:103AA000850680918006981332C080910402882395
:103AB00071F188E794E00E94B96C672B682B692B41
:103AC00051F41092070348EE53E060E070E088E79D
:103AD00094E00E942F6D8091F702811105C08091C2
:103AE00007038F5F8093070380910703833078F487
:103AF00080911E0390911F03039731F083E090E0C3
:103B000090931F0380931E0381E08093F7029091AE
:103B10000F0780910A079817E9F080911C03909194
:103B20001D038130910509F431C1039709F42EC1B9
:103B300080910E03882371F08091F902882351F05F
:103B40008091F70281111DC110921F0310921E0374
:103B50001092F9029091FB058091F605981709F4EF
:103B6000BBCE8091190390911A03892B09F0B4CE32
:103B700080911C0390911D038130910549F008F458
:103B800008C18230910509F404C1039709F0A4CE5D
:103B900080910E03882309F49FCE8091F902882337
:103BA00009F49ACE10921F0310921E031092F9028C
:103BB00093CE8091F20281115ECF86E994E00E945B
:103BC000B96C672B682B692B09F055CF80911E03C8
:103BD00090911F0348E552E060E070E0039709F41C
:103BE0004ACF86E994E00E942F6D0E947D7881E0A3
:103BF0008093F20240CF8091F20281113CCF86E99E
:103C000094E00E94B96C672B682B692B09F033CFC5
:103C100080911E0390911F03039709F42CCF4AEF64
:103C200050E060E070E0DDCF8091F90281110AC0C0
:103C300080911E0390911F03039721F410921F039C
:103C400010921E031092F70262CF80911C03909194
:103C50001D03009759F440911E0350911F034330F8
:103C6000510521F4321709F44FCF51CF32134FCF02
:103C70003091400620913B06321349CF30918506A2
:103C800020918006321343CF20910402222309F4AD
:103C90003ECF8130910541F0B8F18230910509F4B1
:103CA0004EC0039709F033CF88E794E00E94B96CC7
:103CB000672B682B692B51F41092070348EE53E0F1
:103CC00060E070E088E794E00E942F6D8091F90237
:103CD000811105C0809107038F5F80930703809156
:103CE0000703833008F013CF80911E0390911F03C8
:103CF000039731F083E090E090931F0380931E03BD
:103D000081E08093F90203CF8091F2028111FFCE0E
:103D100086E994E00E94B96C672B682B692B09F047
:103D2000F6CE40ED57E060E070E086E994E00E9456
:103D30002F6D0E947D7881E08093F202E8CE809121
:103D4000F2028111E4CE80911E0390911F0303972C
:103D500009F4DDCE8091F302811110C04EEE52E0E5
:103D600060E070E086E994E00E942F6D0E947D780B
:103D70008091F3028F5F8093F302DDCF8230D8F61B
:103D8000F5CF0E94CE148111DFCEE2CE1092F20266
:103D9000E1CE1092F202A0CD80911107882309F4A0
:103DA00073CD1F910F91EF900C94A21B321709F461
:103DB0006BCD64CDCF93DF93D0912103D03311F03D
:103DC000D233B1F50E948B0C20910F038330910503
:103DD000B1F4222341F080911C0390911D03892BA3
:103DE00089F5CEE018C0809103038111FACF80914C
:103DF0001C0390911D03029739F5C0E10CC02111FD
:103E000021C020911C0330911D0322303105E1F4C3
:103E1000C4E0019791F7D033C9F44FEF60E38C2FE2
:103E20000E94E416609358037093590380935A03D9
:103E300080911C0390911D03029709F0129ADF9163
:103E4000CF910895CCE0E7CFC1E0E5CFD23381F741
:103E50004FEF62E38C2F0E94E4166093A0037093EF
:103E6000A1038093A2034FEF609121038C2F0E9446
:103E7000E4166093A3037093A4038093A503D8CFA3
:103E8000809120038C3109F41AC28E3109F0D6C317
:103E9000E091FD02EF3008F073C4F0E08827EC5A9F
:103EA000F04E8F4F0C942787631F8A1FB91FD81FAE
:103EB0000A202920482067208620A520C420E3204E
:103EC0000221212140218DE70E94D9088EE00E9425
:103ED000E9030E9402668FE00E94E9030E940266E5
:103EE0008091FD028F5F8093FD028091F402811129
:103EF0000AC08DE00E94E9030E94E46580E10E940F
:103F0000E9030E94E46581E08093F4020E94216944
:103F10000C94DA1E8DE70E94D9088DE00E94E90317
:103F20000E94026680E10E94E9030E94026680917D
:103F3000F402882371F08EE00E94E9030E94E46598
:103F40008FE00E94E9030E94E4658091FD028F5F8B
:103F50000DC08CE00E94E9030E94E46581E10E94AB
:103F6000E9030E94E4658091FD0281508093FD0287
:103F7000CDCF8DE70E94D9088CE00E94E9030E9412
:103F8000026681E10E94E9030E9402668091F402C8
:103F9000882339F08DE00E94E9030E94E46580E106
:103FA000D0CF8BE00E94E9030E94E46582E1D7CF85
:103FB0008DE70E94D9088BE00E94E9030E94026607
:103FC00082E10E94E9030E9402668091F402882344
:103FD00071F08CE00E94E9030E94E46581E10E9497
:103FE000E9030E94E4658091FD028F5F0DC08AE0C5
:103FF0000E94E9030E94E46583E10E94E9030E94B4
:10400000E4658091FD0281508093FD020E94216948
:104010000C9426178DE70E94D9088AE00E94E903D4
:104020000E94026683E10E94E9030E940266809179
:10403000F402882339F08BE00E94E9030E94E465D2
:1040400082E1CDCF89E00E94E9030E94E46584E12A
:10405000D4CF8DE70E94D90889E00E94E9030E942D
:10406000026684E10E94E9030E9402668091F402E4
:10407000882339F08AE00E94E9030E94E46583E125
:1040800060CF88E00E94E9030E94E46585E167CF84
:104090008DE70E94D90888E00E94E9030E94026629
:1040A00085E10E94E9030E9402668091F402882360
:1040B00039F089E00E94E9030E94E46584E141CF80
:1040C00087E00E94E9030E94E46586E148CF8FE71C
:1040D0000E94D90887E00E94E9030E94026686E1F7
:1040E0000E94E9030E9402668091F402882339F05D
:1040F00088E00E94E9030E94E46585E170CF86E0D4
:104100000E94E9030E94E46587E177CF8FE70E9470
:10411000D90886E00E94E9030E94026687E10E94B6
:10412000E9030E9402668091F402882339F087E057
:104130000E94E9030E94E46586E151CF85E00E9478
:10414000E9030E94E46588E158CF8FE70E94D9080F
:1041500085E00E94E9030E94026688E10E94E9036B
:104160000E9402668091F402882339F086E00E9462
:10417000E9030E94E46587E1E4CE84E00E94E9035C
:104180000E94E46589E1EBCE8FE70E94D90884E0C4
:104190000E94E9030E94026689E10E94E9030E94ED
:1041A00002668091F402882339F085E00E94E903D9
:1041B0000E94E46588E1C5CE83E00E94E9030E9485
:1041C000E4658AE1CCCE8FE70E94D90883E00E94A3
:1041D000E9030E9402668AE10E94E9030E940266E6
:1041E0008091F402882339F084E00E94E9030E9460
:1041F000E46589E1F4CE82E00E94E9030E94E4656F
:104200008BE1FBCE82E80E94D90882E00E94E9039C
:104210000E9402668BE10E94E9030E94026680917F
:10422000F402882339F083E00E94E9030E94E465E8
:104230008AE1D5CE81E00E94E9030E94E4658CE129
:10424000DCCE82E80E94D90881E00E94E9030E9446
:1042500002668CE10E94E9030E9402668091F402EA
:10426000882339F082E00E94E9030E94E4658BE133
:1042700068CE80E00E94E9030E94E4658DE16FCE84
:1042800082E80E94D90880E00E94E9030E94026649
:104290008DE10E94E9030E94026681E00E94E90329
:1042A0000E94E4658CE10E94E9030E94E46580912C
:1042B000FD0281508093FD021092F40227CEE0911E
:1042C000FD02EE3008F05CC2F0E08827E559FE4DB3
:1042D0008F4F0C94278779219621B521D421F32182
:1042E0001222312250226F228E22AD22CC22EB22CA
:1042F0000A238DE70E94D9088DE00E94E9030E94FD
:1043000002668EE00E94E9030E9402668091FD022F
:104310008F5F8093FD028091F4028111F4CD8CE0D7
:104320000E94E9030E94E4658FE0E9CD8DE70E94D9
:10433000D9088CE00E94E9030E9402668FE00E9487
:10434000E9030E9402668091F402882339F08DE02F
:104350000E94E9030E94E4658EE0F3CD8BE00E94A9
:10436000E9030E94E46580E1FACD8DE70E94D90857
:104370008BE00E94E9030E94026680E10E94E9034B
:104380000E9402668091F402882339F08CE00E943A
:10439000E9030E94E4658FE022CE8AE00E94E903EF
:1043A0000E94E46581E129CE8DE70E94D9088AE068
:1043B0000E94E9030E94026681E10E94E9030E94D3
:1043C00002668091F402882339F08BE00E94E903B1
:1043D0000E94E46580E103CE89E00E94E9030E9427
:1043E000E46582E10ACE8DE70E94D90889E00E9447
:1043F000E9030E94026682E10E94E9030E940266CC
:104400008091F402882339F08AE00E94E9030E9437
:10441000E46581E196CD88E00E94E9030E94E465AD
:1044200083E19DCD8DE70E94D90888E00E94E903D1
:104430000E94026683E10E94E9030E940266809165
:10444000F402882339F089E00E94E9030E94E465C0
:1044500082E177CD87E00E94E9030E94E46584E170
:104460007ECD8FE70E94D90887E00E94E9030E9471
:10447000026684E10E94E9030E9402668091F402D0
:10448000882339F088E00E94E9030E94E46583E113
:10449000A6CD86E00E94E9030E94E46585E1ADCDEA
:1044A0008FE70E94D90886E00E94E9030E94026615
:1044B00085E10E94E9030E9402668091F40288234C
:1044C00039F087E00E94E9030E94E46584E187CD2A
:1044D00085E00E94E9030E94E46586E18ECD8FE7C6
:1044E0000E94D90885E00E94E9030E94026686E1E5
:1044F0000E94E9030E9402668091F402882339F049
:1045000086E00E94E9030E94E46585E11ACD84E01B
:104510000E94E9030E94E46587E121CD8FE70E94B4
:10452000D90884E00E94E9030E94026687E10E94A4
:10453000E9030E9402668091F402882339F085E045
:104540000E94E9030E94E46586E1FBCC83E00E94BF
:10455000E9030E94E46588E102CD8FE70E94D90853
:1045600083E00E94E9030E94026688E10E94E90359
:104570000E9402668091F402882339F084E00E9450
:10458000E9030E94E46587E12ACD82E00E94E90305
:104590000E94E46589E131CD82E80E94D90882E079
:1045A0000E94E9030E94026689E10E94E9030E94D9
:1045B00002668091F402882339F083E00E94E903C7
:1045C0000E94E46588E10BCD81E00E94E9030E942E
:1045D000E4658AE112CD82E80E94D90881E00E9458
:1045E000E9030E9402668AE10E94E9030E940266D2
:1045F0008091F402882339F082E00E94E9030E944E
:10460000E46589E19ECC80E00E94E9030E94E465B4
:104610008BE1A5CC82E80E94D90880E00E94E903E2
:104620000E9402668BE10E94E9030E94026681E01B
:104630000E94E9030E94E4658AE135CE8091FE0282
:10464000833009F45AC028F4813049F0823071F186
:104650000895843059F1853009F46FC008958DE7CD
:104660000E94D90880E00E94E90360E00E945F6632
:1046700081E00E94E90361E00E945F6682E00E949F
:10468000E90361E00E945F6683E00E94E90361E064
:104690000E945F6684E00E94E90360E00E945F661A
:1046A0008091FE028F5F8093FE0232CC8FE70E94E2
:1046B000D90880E00E94E90361E00E945F6681E022
:1046C0000E94E90360E00E945F6682E00E94E903C5
:1046D00061E00E945F6683E00E94E90360E00E945F
:1046E0005F6684E00E94E90361E00E945F6680915A
:1046F000FE028F5F8093FE028BCC82E80E94D90875
:1047000080E00E94E90361E00E945F6681E00E9410
:10471000E90361E00E945F6682E00E94E90360E0D5
:104720000E945F6683E00E94E90361E00E945F6689
:1047300084E00E94E90361E0B1CF8DE70E94D908CF
:1047400080E00E94E90360E00E945F6681E00E94D1
:10475000E90361E00E945F6682E00E94E90361E094
:104760000E945F6683E00E94E90361E00E945F6649
:1047700084E00E94E90360E00E945F6681E093CFDD
:1047800008958F929F92AF92BF92CF92DF92EF9255
:10479000FF92CF93DF938091300390913103892B67
:1047A00009F04DC00E94401F809120038D7FC8E713
:1047B0008C3109F4C8E290917605992309F460C719
:1047C0008EE695E00E94B96C6B017C01E0910602D7
:1047D000E150FF0BEE0FFF1FEF5AFA4F80819181DE
:1047E00066E070E00E94FF86CB01B0E0A0E0C81652
:1047F000D906EA06FB0608F00DC6809120038D7FDE
:104800008C3109F0FEC54C2F46954695469550E0F3
:104810004E5F5F4F052E000C660B770B8DE395E026
:104820000E942F6D86E0DF91CF91FF90EF90DF9097
:10483000CF90BF90AF909F908F900C942B10809151
:1048400020038C31B1F0D0E08E31A1F08091FE02D6
:104850008111BFC380910602833009F400C408F0BF
:10486000A6C3823009F406C462E070E080E090E004
:1048700005C4D2E0CEE18C2E912C8D1A9108809146
:10488000FD02811107C080910602833091F1A0F4EE
:104890008230D1F1C0E0C81519040CF040C08C2F53
:1048A0000E94E9030E941F66811104C09091FD02DD
:1048B000C917B0F1CF5FEFCF843081F0853051F769
:1048C0009401092C000C440B550B62E170E080E070
:1048D00090E00E94DF696093FD02DCCF6CE070E045
:1048E00080E090E00E94C569635F7F4F8F4F9F4FCC
:1048F000F2CF6AE070E080E090E00E94C569675FF7
:104900007F4F8F4F9F4FE7CF6AE070E080E090E0ED
:104910000E94C5696D5F7F4F8F4F9F4FDCCF81E055
:1049200090910602933009F4A2C1E8F4923009F4A0
:104930005EC2882309F403C3C7E08091FD02C81753
:1049400008F450C08C13E8C280910202843009F44C
:10495000ECC208F0D6C2813008F0ECC267E070E02B
:1049600080E090E0D5C2943009F4BFC0953009F7DB
:10497000882309F467C08DE1F82EFD1A092C000C7C
:10498000AA08BB088091FD02F81660F18F111EC0C5
:1049900080910202833009F445C050F4823009F45A
:1049A00048C0A501940162E170E080E090E00AC097
:1049B000843089F18530A9F7A501940166E070E0A3
:1049C00080E090E00E94DF696093FD028F2D0E94DD
:1049D000E9030E941F66882399F18F2D0E94E90345
:1049E0000E94E4650E9421698091FD02873108F4EC
:1049F000D8C282E80E94D9088091FE02843008F46F
:104A0000F7C482E80E94D9088091040380FDF6C4AF
:104A10000E94DA1EC9CEA501940169E070E080E031
:104A200090E0D0CFA50194016CE070E080E090E0D0
:104A3000C9CFA50194016FE070E080E090E0C2CFA3
:104A4000FA94A0CFC0E0092C000CAA08BB08809102
:104A5000FD028C1738F28C131DC080910202833046
:104A600069F150F48130C1F1823079F1A5019401EE
:104A700060E070E0CB010AC08430C9F08530B1F746
:104A8000A501940168E070E080E090E00E94DF6999
:104A90006093FD028C2F0E94E9030E941F66811122
:104AA00022C08C2F0E94E9030E9402669BCFA501C1
:104AB00094016CE070E080E090E0E8CFA501940103
:104AC0006EE070E080E090E0E1CFA501940160E14C
:104AD00070E080E090E0DACFA501940162E170E03F
:104AE00080E090E0D3CFCF5FB2CF882309F460C0DD
:104AF000C9E18091FD02C81708F474CF8C1321C05E
:104B000080910202833089F160F4813009F443C05E
:104B10008230B1F169E170E080E090E00E94C56907
:104B20000EC08430B9F08530A9F768E170E080E00C
:104B300090E00E94C5696F5F7F4F8F4F9F4F6093DA
:104B4000FD028C2F0E94E9030E941F66882371F1E9
:104B50008C2F44CF65E170E080E090E00E94C56951
:104B60006C5F7F4F8F4F9F4FEACF62E170E080E034
:104B700090E00E94C569695F7F4F8F4F9F4FDFCFE5
:104B80006FE070E080E090E00E94C569665F7F4F53
:104B90008F4F9F4FD4CF6CE070E080E090E00E9498
:104BA000C569635F7F4F8F4F9F4FC9CFC150A1CF62
:104BB000C0E08091FD028C1708F414CF8C1321C043
:104BC00080910202833091F160F4813009F444C095
:104BD0008230B9F169E170E080E090E00E94C5693F
:104BE0000EC08430C1F08530A9F768E170E080E044
:104BF00090E00E94C5696F5F7F4F8F4F9F4F60931A
:104C0000FD028C2F0E94E9030E941F66882309F48D
:104C100048CFCF5FCECF65E170E080E090E00E94AA
:104C2000C5696C5F7F4F8F4F9F4FE9CF62E170E0A6
:104C300080E090E00E94C569695F7F4F8F4F9F4F72
:104C4000DECF6FE070E080E090E00E94C569665FB3
:104C50007F4F8F4F9F4FD3CF6CE070E080E090E0AC
:104C60000E94C569635F7F4F8F4F9F4FC8CF8823D6
:104C700009F45EC0C3E18091FD02C81708F4B2CE0A
:104C80008C1321C080910202833089F160F481305D
:104C900009F443C08230B1F163E170E080E090E05C
:104CA0000E94C5690EC08430B9F08530A9F762E171
:104CB00070E080E090E00E94C5696F5F7F4F8F4F8A
:104CC0009F4F6093FD028C2F0E94E9030E941F6694
:104CD00081113ECFC150CFCF60E170E080E090E025
:104CE0000E94C5696D5F7F4F8F4F9F4FEACF6EE087
:104CF00070E080E090E00E94C5696B5F7F4F8F4F4E
:104D00009F4FDFCF6CE070E080E090E00E94C569CB
:104D1000695F7F4F8F4F9F4FD4CF6AE070E080E094
:104D200090E00E94C569675F7F4F8F4F9F4FC9CF4B
:104D3000C0E08091FD028C1708F454CE8C1321C082
:104D400080910202833091F160F4813009F444C013
:104D50008230B9F163E170E080E090E00E94C569C3
:104D60000EC08430C1F08530A9F762E170E080E0C8
:104D700090E00E94C5696F5F7F4F8F4F9F4F609398
:104D8000FD028C2F0E94E9030E941F66882309F40C
:104D900088CECF5FCECF60E170E080E090E00E94EF
:104DA000C5696D5F7F4F8F4F9F4FE9CF6EE070E019
:104DB00080E090E00E94C5696B5F7F4F8F4F9F4FEF
:104DC000DECF6CE070E080E090E00E94C569695F32
:104DD0007F4F8F4F9F4FD3CF6AE070E080E090E02D
:104DE0000E94C569675F7F4F8F4F9F4FC8CF882351
:104DF00009F443C0CDE08091FD02C81708F4F2CD5C
:104E00008C131CC080910202843009F148F4813077
:104E100048F56DE070E080E090E00E94C5690CC04C
:104E20008530B9F76CE070E080E090E00E94C569E1
:104E30006F5F7F4F8F4F9F4F6093FD028C2F0E94BB
:104E4000E9030E941F66811183CEC150D4CF6BE06D
:104E500070E080E090E00E94C5696E5F7F4F8F4FE9
:104E60009F4FEACF6AE070E080E090E00E94C56961
:104E70006D5F7F4F8F4F9F4FDFCFC0E08091FD026E
:104E80008C1708F4AFCD8C131CC0809102028430C3
:104E900011F148F4813050F56DE070E080E090E071
:104EA0000E94C5690CC08530B9F76CE070E080E005
:104EB00090E00E94C5696F5F7F4F8F4F9F4F609357
:104EC000FD028C2F0E94E9030E941F66882309F4CB
:104ED000E8CDCF5FD3CF6BE070E080E090E00E9440
:104EE000C5696E5F7F4F8F4F9F4FE9CF6AE070E0DB
:104EF00080E090E00E94C5696D5F7F4F8F4F9F4FAC
:104F0000DECF853009F02ACD6AE070E080E090E0E5
:104F10000E94C5696093FD028C2F0E94E9030E94E4
:104F20001F66811115CEC15008CD69E070E080E0A8
:104F300090E0EECF68E070E080E090E0E9CFC0E084
:104F40008091FD028C1708F44DCD8C1316C0809112
:104F500002028430E1F038F48130F0F467E070E070
:104F600080E090E006C08530C9F76AE070E080E03C
:104F700090E00E94C5696093FD028C2F0E94E903B6
:104F80000E941F66882309F48CCDCF5FD9CF69E0DA
:104F900070E080E090E0EDCF68E070E080E090E0CD
:104FA000E8CF8C3010F08FE725CD8DE723CD84300E
:104FB00009F450C0853009F057CC64E070E080E01F
:104FC00090E00E94C5696E5F7F4F8F4F9F4F609347
:104FD000FE02C0E08C2F0E94E9030E943666019712
:104FE00029F48091FE028C1708F04BC0CF5FC530CA
:104FF00089F781E090910602933009F417C108F017
:1050000042C0923009F46BC1882309F4C7C1C5E0DE
:105010008091FE02C81708F4EFCC8C1312C0809167
:105020000202833009F4B0C108F4B3C1863008F03D
:10503000B0C166E070E080E090E00E94C5696093D6
:10504000FE02C1508C2F0E94E9030E943666892B14
:10505000F9F642C063E070E080E090E0B2CF63E038
:1050600070E080E090E00E94C5696F5F7F4F8F4FD6
:105070009F4FADCF63E070E080E090E00E94C56993
:10508000A6CF80E0B7CF943009F46BC0953009F01B
:10509000BBCF882381F1C5E08091FE02C81708F4D8
:1050A000ABCC8C1311C08091020283508330C0F4CA
:1050B00065E070E080E090E00E94C5696F5F7F4F1F
:1050C0008F4F9F4F6093FE02C1508C2F0E94E903C7
:1050D0000E943666892B01F78C2F0E948D048CCCA0
:1050E00064E070E080E090E00E94C5696E5F7F4FF1
:1050F0008F4F9F4FE7CFC0E08091FE028C1708F4DE
:105100007BCC8C130FC0809102028330A1F0F0F0B1
:105110008630E0F466E070E080E090E00E94C569CF
:105120006093FE028C2F0E94E9030E943666CF5FD7
:10513000019711F7D1CF65E070E080E090E00E9428
:10514000C5696F5F7F4F8F4F9F4FEACF64E070E07C
:1051500080E090E00E94C5696E5F7F4F8F4F9F4F48
:10516000DFCF882369F1C5E08091FE02C81708F4FB
:1051700043CC8C1311C08091020283508330A8F479
:1051800065E070E080E090E00E94C5696F5F7F4F4E
:105190008F4F9F4F6093FE02C1508C2F0E94E903F6
:1051A0000E943666892B01F797CF64E070E080E0BB
:1051B00090E00E94C5696E5F7F4F8F4F9F4FEACF8F
:1051C000C0E08091FE028C1708F416CC8C130FC03F
:1051D000809102028330A1F0F0F08630E0F466E0C6
:1051E00070E080E090E00E94C5696093FE028C2F21
:1051F0000E94E9030E943666CF5F019711F76CCFDA
:1052000065E070E080E090E00E94C5696F5F7F4FCD
:105210008F4F9F4FEACF64E070E080E090E00E9403
:10522000C5696E5F7F4F8F4F9F4FDFCF882339F166
:10523000C5E08091FE02C81708F4DECB8C1311C0C4
:105240008091020283508330A8F465E070E080E032
:1052500090E00E94C5696F5F7F4F8F4F9F4F6093B3
:10526000FE02C1508C2F0E94E9030E943666892BF2
:1052700001F732CF63E070E080E090E0EACFC0E079
:105280008091FE028C1708F4B7CB8C130FC080916D
:1052900002028330A1F0F0F08630E0F466E070E0C6
:1052A00080E090E00E94C5696093FE028C2F0E940E
:1052B000E9030E943666CF5F019711F70DCF65E0D5
:1052C00070E080E090E00E94C5696F5F7F4F8F4F74
:1052D0009F4FEACF63E070E080E090E0F4CF882356
:1052E00019F1C5E08091FE02C81708F485CB8C1334
:1052F0000DC0809102028250843088F466E070E034
:1053000080E090E00E94C5696093FE02C1508C2F3E
:105310000E94E9030E943666892B21F7DDCE63E007
:1053200070E080E090E0EECFC0E08091FE028C174C
:1053300008F462CB8C131AC080910202833051F0C2
:10534000F0F08630E0F466E070E080E090E00E94EB
:10535000C5690AC065E070E080E090E00E94C56920
:105360006F5F7F4F8F4F9F4F6093FE028C2F0E9485
:10537000E9030E943666CF5F0197B9F6ADCE63E0D0
:1053800070E080E090E0E3CF65E070E080E090E0E6
:1053900054CE63E070E080E090E04FCEC0E08091BA
:1053A000FE028C1708F428CB8C130FC080910202E8
:1053B0008330A1F0C0F08630B0F466E070E080E0A9
:1053C00090E00E94C5696093FE028C2F0E94E90361
:1053D0000E943666CF5F019711F77ECE65E070E0E0
:1053E00080E090E0EECF63E070E080E090E0E9CF15
:1053F000823010F08FE706CB8DE704CB0E94261792
:10540000D3C98C2F65E00E94E586482F50E070E0FC
:1054100060E004CA8EE695E00E94B96C6B017C01E5
:10542000E0910602E150FF0BEE0FFF1FEF5AFA4F1B
:105430008081918165E070E00E94FF86CB01B0E041
:10544000A0E0C816D906EA06FB06E0F48091200326
:105450008D7F4C2F8C3181F446954695469550E0D2
:105460004C5F5F4F052E000C660B770B8DE395E0CC
:105470000E942F6D85E0D7C94695469550E070E0B3
:1054800060E0F4CF8EE695E00E94B96CE0910602F0
:10549000E150FF0BEE0FFF1FEF5AFA4F20813181D1
:1054A00036952795369527956901F12CE12C6C15D9
:1054B0007D058E059F05F0F4809120038D7F8C3152
:1054C00081F44C2F4695469550E04F5F5F4F052E77
:1054D000000C660B770B8DE395E00E942F6D84E046
:1054E000A2C98C2F63E00E94F186482F50E070E043
:1054F00060E0F1CF8EE695E00E94B96C6B017C0113
:10550000E0910602E150FF0BEE0FFF1FEF5AFA4F3A
:105510008081918163E070E00E94FF86CB01B0E062
:10552000A0E0C816D906EA06FB06C8F4809120035D
:105530008D7F4C2F8C3179F44695469550E04D5F28
:105540005F4F052E000C660B770B8DE395E00E94F4
:105550002F6D83E068C946954A50550BF2CF8EE611
:1055600095E00E94B96CA09106022A2F2150330BBE
:10557000F901EE0FFF1FEF5AFA4F40815181569506
:1055800047956A01F12CE12C209120036C157D05D3
:105590008E059F05C8F4922F9D7F4C2F9C3179F486
:1055A0004695469550E04B5F5F4F052E000C660B0D
:1055B000770B8DE395E00E942F6D82E034C946950C
:1055C00050E070E060E0F5CF922F9D7F9C3181F537
:1055D0004C2F4695A33021F130F4A23029F150E050
:1055E000415F5F4F07C0A43009F441C0A530B9F74F
:1055F0004550550B052E000C660B770B8DE395E09F
:105600000E942F6D81E080930202DF91CF91FF9085
:10561000EF90DF90CF90BF90AF909F908F900895C4
:1056200050E04B5F5F4FE6CF50E0465F5F4FE2CF09
:1056300020913003309131032130310571F4A330D2
:10564000A9F038F4A230B9F033E0C39FA0011124CF
:10565000D1CFA43029F0A530B9F74C2F469507C01B
:105660004C2F469550E0425E5F4FC4CF4C2F50E028
:1056700070E060E0C3CF4C2F50E0440F551FBACF0D
:105680008C3161F54C2F46958091060250E08330B5
:1056900009F445C028F48230F1F0445F5F4F06C042
:1056A0008430B1F08530C9F747505109052E000C00
:1056B000660B770B8DE395E0DF91CF91FF90EF9034
:1056C000DF90CF90BF90AF909F908F900C942F6DF4
:1056D00043505109EBCF495F5F4FE8CF80913003D2
:1056E00090913103019781F4809106028330A9F0F3
:1056F00038F48230B9F083E0C89FA0011124D6CFDE
:10570000843029F08530B9F74C2F469507C04C2FCF
:10571000469550E0425E5F4FC9CF4C2F50E070E09D
:1057200060E0C8CF4C2F50E0440F551FBFCFFC01A5
:105730008081811109C08181811106C081E092813F
:10574000911103C080E0089581E00895FF920F93C6
:105750001F93CF93DF93EC01F62E08811981C801C6
:105760000E946C86F81621F06F2DC8010E94748685
:10577000CE01DF91CF911F910F91FF900895EF928D
:10578000FF920F931F93CF93DF9300D000D0CDB73C
:10579000DEB70E94D40C69837A838B839C83CE010D
:1057A00001967C010CEF1FE01E830D83F7016191D0
:1057B0007F01CE0105960E94A62B0F5F1F4F01159A
:1057C000F0E11F0789F726960FB6F894DEBF0FBEEB
:1057D000CDBFDF91CF911F910F91FF90EF90089572
:1057E0000F931F93CF93DF931F921F92CDB7DEB716
:1057F00010E000E01A8309836FEFCE0101960E944A
:10580000A62B0F5F1F4F0E311105A1F70E94BF2B72
:105810000F900F90DF91CF911F910F910895AF924C
:10582000BF92CF92DF92EF92FF920F931F93CF938D
:10583000DF9300D0CDB7DEB75A0119821A821B82DE
:10584000882361F18B01E1E0F0E0E82EF12CD80132
:105850002D918D012223F1F06F01B1E0CB1AD10817
:10586000D501AC0DBD1D4C914423A1F030E02F5F5C
:105870003F4FD7010E94D686A42FB0E011969B011E
:10588000AC010E94A186A1E0B0E0AC0FBD1FAC0D41
:10589000BD1D8C933196E430F105C9F669817A819A
:1058A0008B810F900F900F90DF91CF911F910F91EF
:1058B000FF90EF90DF90CF90BF90AF900895FC01E4
:1058C00089E392E091838083138212828FEF868333
:1058D0008783808781878287838781E08487858724
:1058E0001786168680E797E1918B808B83E090E0A6
:1058F000938B828B158A148A158214828091D1032E
:105900009091D203892B21F4F093D203E093D10339
:10591000A091EE02B091EF02109721F01596FC9342
:10592000EE931497F093EF02E093EE02089580E96E
:1059300091E00895249A089581E090E00895269AD0
:1059400008954F925F927F928F929F92AF92BF92F3
:10595000CF92DF92EF92FF920F931F93CF93DF933B
:105960002C01EB010E94DB67F20126893789621B5B
:10597000730B6A307105B0F3F8948A819B81181615
:1059800019060CF0CBC1E881F98105B1006175B150
:105990007F7E75B9BA848F812B2D281B822F2F8390
:1059A0004C85042E000C550BAA81BB81E888DF844E
:1059B000C988E394D394C3949E81388599848B8459
:1059C000118120E0F32E622F322F3181112788942C
:1059D0003111380F08F43FEF81958894E0FC130FE4
:1059E00017958894E1FC130F17958894E2FC130F28
:1059F00017958894E3FC130F17958894E4FC130F14
:105A000017958894E5FC130F17958894E6FC130FFF
:105A100017958894E7FC130F17958894232FE110AE
:105A2000212F8B0D122F002C05B900C017FF75B95F
:105A300030812227889400C000C0002C75B9311134
:105A4000390F00C0002C05B900C016FF75B908F465
:105A50003FEF9195889400C000C0002C75B9D0FC30
:105A6000230F00C0002C05B900C015FF75B927959C
:105A70008894D1FC230F00C000C0002C75B9279575
:105A8000889400C0002C05B900C014FF75B9D2FC81
:105A9000230F2795889400C000C0002C75B9D3FC53
:105AA000230F00C0002C05B900C013FF75B927955E
:105AB0008894D4FC230F00C000C0002C75B9279532
:105AC000889400C0002C05B900C012FF75B9D5FC40
:105AD000230F2795889400C000C0002C75B9D6FC10
