:100000000C9420030C9451030C9451030C94510351
:100010000C9451030C9451030C9451030C94510310
:100020000C9451030C9451030C9451030C94510300
:100030000C9451030C9451030C9451030C945103F0
:100040000C9451030C9451030C9451030C945103E0
:100050000C9451030C9451030C9451030C94E46DD3
:100060000C9451030C94386F0C940E6F0C94510344
:100070000C9451030C9451030C9451030C945103B0
:100080000C9451030C9451030C9451030C945103A0
:100090000C94E46E0C94BA6E0C9451030C94626F41
:1000A0000C9451030C9451030C9451030C94510380
:1000B0000C9451030C9451030C9451030C94510370
:1000C0000C9451030C9451030C9451030C94510360
:1000D0000C9451030C9451030C94906E0C94666E26
:1000E0000C9451030C9434650C94F5640C946D23BA
:1000F0000C94193C0C9409170C940C6C0C94FC4651
:100100000C94AC260C94A7030C94B8170C948D2176
:100110000C944F300C94B0660C94FF050C94ED38A1
:100120000C94C5630C9425170C94FE160C946B5418
:100130000C9443670C94F86B0C9401170C94AC323C
:100140000C942A650C9403170C9409660C9426658C
:100150000C9417660C9404650C9460170C9442443C
:100160000C941D210C940E650C9415170C94F61626
:100170000C949E650C940C170C9435220C94F56528
:100180000C942F650C94F5480C949E440C94F20C3E
:100190000C940D530C944A300C9451530C948317C7
:1001A0000C9491030C94A9670C945D390C947B0C0E
:1001B0000C94CC630C941B6C0C94EF640C946366ED
:1001C0000C9412170C9475250C940A650C942D064A
:1001D0000C9401220C9434730C9461390C94026CCD
:1001E0000C94217E0C94436C0C9476480C94CF6351
:1001F0000C9415440C940E730C94CA6B0C94F91661
:100200000C94F0480C949D220C9418170C94B8444C
:100210000C94A5240C9438730C9477670C94306775
:100220000C94D9240C9428170C942F170C9465392E
:100230000C94E6650C946C480C941D3C0C944D6C2D
:100240000C9433430C94DE6B0C942B170C941324F6
:100250000C9414650C94256C0C94D9440C94396C52
:100260000C9405600C9452300C94D2630C9454306E
:100270000C94D4160C94A3030C94630C0C94F60504
:100280000C941B3C0C9409530C94CD210C944125E7
:100290000C94A9250C94DE430C9430650C94221721
:1002A0000C948A560C949D030C9471240C9439235D
:1002B0000C94F1160C94B4480C94A7540C94A93BDC
:1002C0000C9469220C9421670C9411260C94C4425E
:1002D0000C9478260C948A0C0C9418650C946F443A
:1002E0000C94A0230C9404350C940A430C94D4531E
:1002F0000C94850C0C9432170C949D170C94EE6B97
:100300000C94213C0C944D300C941F170C94FC164B
:100310000C942C730C94D40C0C9436060C94452637
:100320000C94A6670C9422650C9497030C94633983
:100330000C9459210C94D5630C94BB6B0C941C65E4
:100340000C94A2430C94C80C0C9428730C94614335
:100350000C94FD640C94C06B0C94BC0C0C94F9646C
:100360000C94A23B0C9401650C9420670C942F6CA8
:100370000C949F650C94AF0C0C9405230C94F142E3
:100380000C941F3C0C94800C0C94EC200C941B17C8
:100390000C945F390C94D1220C940F170C94B36B0E
:1003A0000C941C170C9406170C94A0030C940D25A8
:1003B0000C94DD250C9430730C94D46B0C94A065D4
:1003C0000C943D240C94AA540C946A350C949662B7
:1003D0000C94AC630C941E730C944A670C94D42355
:1003E0000C94E66B0C94CD440C94E6380C947B484A
:1003F0000C9435174505152535443424140443332E
:100400002313030212223242413121110100102034
:10041000304040302010000111213141423222127F
:1004200002031323334304142434443525150545AE
:100430003738393A3B3B3A39383700102030011110
:1004400021310212223203132333041424340515FC
:100450002535061626363626160635251505342486
:1004600014043323130332221202312111013020EC
:10047000100000060C12181D00040B10161B0019AA
:100480001830011A172F021B162E031C152D041DE0
:10049000142C051E132B061F122A072011290821D0
:1004A000102809220F270A230E260B240D250001F0
:1004B00002030405060708090A0B0C0D0E0F1011A4
:1004C00012131415161718191A1B1C1D1E1F202194
:1004D000222331302F2E2D2C2B2A292827260000CD
:1004E00000006410B71DC8206E3BAC30D926904187
:1004F000DC76F4516B6B5861B24D3C710550208332
:10050000B8ED44930FF0E8A3D6D68CB361CBB0C25C
:10051000649BD4D2D38678E20AA01CF2BDBD000051
:100520002100240027002A002D00300033000101A3
:100530000000040107010A01000022002500280034
:100540002B002E00310034000201000005010801DB
:100550000B01000020002300260029002C002F00A2
:10056000320000010000030106010901050505052F
:10057000070508080808020202020A0A080804041B
:100580000404010101010101010103030303030349
:100590000303040707070C0C0C0C0C0C0C0C0202D8
:1005A000020206060606060606060B0B0B0B0B0BD5
:1005B0000B0B010210202008081020401020408062
:1005C0000201020108040201010204081020408017
:1005D00080402010080402018004020180402010A5
:1005E00008040201080402010102040810204080EE
:1005F000010204081020408000000A0B02090C0DC3
:100600000E080703040100000000000000000000C5
:1006100000000000000000000000000000000000DA
:100620000000000012111000000000000000000097
:100630000000000000000000000000000000217E1B
:1006400011241FBECFEFD1E2DEBFCDBF00E00CBF53
:1006500012E0A0E0B2E0EEE8F7E101E00BBF02C07B
:1006600007900D92AE3DB107D9F72CE0AEEDB2E0A8
:1006700001C01D92AC3CB207E1F713E0C0E2D3E049
:1006800000E006C021970109802FFE010E948C8A9C
:10069000CF31D10780E00807A9F70E94A0800C9411
:1006A000C58B0C94000020913C0330913D03213018
:1006B000310531F4E82FF0E0E858FB4F84910895BC
:1006C0002230310529F4E82FF0E0EE58FB4FF6CF49
:1006D00081E0089520913C0330913D0390912C03DB
:1006E000E82FF0E02130310549F4992321F0EA5A4E
:1006F000FB4F84910895E65CFB4FFBCF2230310520
:1007000041F4992319F0EE5EFB4FF3CFEC50FC4F10
:10071000F0CF992319F0EB5CFB4FEBCFE05DFB4F83
:10072000E8CF80911C038F5F80931C030895809114
:100730001B038F5F80931B03089590E080E0089572
:10074000FC0164870895FC01848590E00895FC0114
:1007500086859785089510920F0384E6809303029F
:100760001092100345E050E060E070E088E095E012
:100770000C9411710E94846DEBEEF2E0119283E013
:10078000E930F807D9F70895E2E0F1E080818F7D44
:10079000808380818F7B80831098119880E00E94F5
:1007A000864B80E00E94684BE2E7F4E010861186F9
:1007B00008952091380330913903A901435051091C
:1007C0004230510518F02630310511F4882399F193
:1007D00090910A0220910902921303C0811118C05E
:1007E00008952917A8F481E08093090344E250E0BA
:1007F00060E070E09330D9F070F44EE150E060E0DA
:1008000070E09230A1F049E150E060E070E00FC08C
:1008100010920903EBCF4DE250E060E070E09430BD
:1008200031F04CE350E060E070E0953061F780E338
:1008300095E00C9411710895CF93C82F84E0C530D2
:1008400070F10E946A0360E00E94D66A81E08093A2
:10085000EA0283E00E946A0360E00E94D66A81E0B7
:100860008093E90282E00E946A0360E00E94D66AF7
:1008700081E08093E80281E00E946A0360E00E94C8
:10088000D66A81E08093E70280E00E946A0360E01C
:100890000E94D66A81E08093E602CF9108950E947B
:1008A0006A0361E00E94D66A1092EA02C43089F2BB
:1008B00083E00E946A0361E00E94D66A1092E90216
:1008C000C33081F282E00E946A0361E00E94D66A2E
:1008D0001092E802C23079F281E00E946A0361E07E
:1008E0000E94D66A1092E702C111CECF80E00E942A
:1008F0006A0361E00E94D66A1092E602CECFAF9200
:10090000BF92DF92EF92FF920F931F93CF93DF93EB
:100910008AE994E00E94CC70882341F040E951E0DC
:1009200060E070E08AE994E00E94117180913C03DC
:1009300090913D03D0E0029709F0D2E08AE994E07B
:100940000E948670683C71058105910508F0F4C02D
:10095000C091F703CC2391F0809138039091390333
:10096000069759F480910B02853039F4C1E08091EB
:10097000460390914703892B09F0C0E0809133032F
:10098000909134030197029788F4809138039091F5
:100990003903069759F480910B02853039F4809120
:1009A000460390914703019709F4C1E080916704E1
:1009B0008A3B69F48091380390913903069739F4A2
:1009C00011E08091460390914703892B09F010E0D4
:1009D00080913C0390913D03009709F47AC00297FF
:1009E00031F595E0D92ECC2309F444C0C0E08EE166
:1009F00090E05C01AD1AB108D1E08C2F90E08A152F
:100A00009B0504F59C0125513D4F7901CC2391F0C4
:100A1000112311F0CD1510F0C93160F08C2F0E9418
:100A20006A030E94B96AF701D083CF5FE6CF84E002
:100A3000D82ED9CF8C2F0E946A030E949B6AF7019F
:100A40001082F3CF80913C0390913D03029739F4DB
:100A50008DE10E946A030E949B6A10920803DF9155
:100A6000CF911F910F91FF90EF90DF90BF90AF90CB
:100A70000C948E6D112311F1C1E08EE190E07C01A8
:100A8000ED1AF108D1E00C2F10E00E151F053CF710
:100A900005511D4F8C2FCC2351F0CD1540F40E94F1
:100AA0006A030E94B96AF801D083CF5FECCF0E943D
:100AB0006A030E949B6AF8011082F7CFDF91CF9101
:100AC0001F910F91FF90EF90DF90BF90AF900C942B
:100AD000BA0380E0112341F10E946A0360E00E94A2
:100AE000D66A81E00E946A0361E00E94D66A82E0D1
:100AF0000E946A0361E00E94D66A83E00E946A0352
:100B000061E00E94D66A84E0CC2391F00E946A03DF
:100B100060E0DF91CF911F910F91FF90EF90DF90F8
:100B2000BF90AF900C94D66A0E946A0361E0D7CF61
:100B30000E946A0361E0EDCF80910B02833009F4DB
:100B4000E2C080F4813009F448C1823009F414C154
:100B5000DF91CF911F910F91FF90EF90DF90BF90A9
:100B6000AF900895843009F48FC0853089F72091C3
:100B70003C0330913D032115310509F479C08D2FD7
:100B800090E0C1E02230310509F03BC02EE130E0B9
:100B90007901E81AF90AD1E00C2F10E00E151F05B3
:100BA0000CF05DCFEBEFEC0FE93100F5F0E08827BA
:100BB000E352FA4F8F4F0C948C8AFF05FF05F60520
:100BC000F605F605F605FF05FF05F605F605F6053B
:100BD000F605FF05FF05F605F605F605F605FF0522
:100BE000FF05F605F605F605F605FF058C2F0E94B4
:100BF0006A030E94B96AF801E551FD4FD083CF5FC7
:100C0000CBCF2EE130E07901E81AF90AD1E00C2FC0
:100C100010E00E151F050CF022CFECEFEC0FE531C4
:100C2000E0F4F0E08827E85EF94F8F4F0C948C8A4F
:100C30003606360636062D062D062D0636063606EF
:100C400036062D062D062D063606360636062D06E8
:100C50002D062D063606360636068C2F0E946A03B0
:100C60000E94B96AF801E551FD4FD083CF5FCFCF25
:100C700085E0DF91CF911F910F91FF90EF90DF9072
:100C8000BF90AF900C941C0480913C0390913D0365
:100C90000097B9F1C1E0D0E011E00297C9F48C2FC0
:100CA000CD3048F49BEF9C0FCB3038F02196C73104
:100CB000D105A9F7D4CE9C2F91519230B8F30E9460
:100CC0006A030E94B96AFE01E551FD4F1083EECF21
:100CD0008C2FCD3048F49CEF9C0FCA3038F0219611
:100CE000C631D105A9F7BBCE9C2F90519330B8F3F4
:100CF0000E946A030E94B96AFE01E551FD4F10830C
:100D0000EECF84E0B6CF80913C0390913D030097F5
:100D100089F1C1E0D0E011E00297B1F48C2FC53029
:100D200030F0C73060F095EF9C0F923040F00E9499
:100D30006A030E94B96AFE01E551FD4F10832196B6
:100D4000C131D10559F78BCE8C2FC43030F0C7306C
:100D500060F096EF9C0F933040F00E946A030E946F
:100D6000B96AFE01E551FD4F10832196C031D105CE
:100D700059F775CE83E07DCF80913C0390913D0380
:100D8000009749F1C1E0D0E011E0029791F48C2F77
:100D90008550823048F08C2F0E946A030E94B96A05
:100DA000FE01E551FD4F10832196CB30D10579F737
:100DB00056CE8C2F8450833048F08C2F0E946A03CB
:100DC0000E94B96AFE01E551FD4F10832196CA3099
:100DD000D10579F744CE82E04CCF80913C039091CD
:100DE0003D030097F1F00CEE12E0C1E0D1E0029774
:100DF00061F48C2F0E946A030E94B96AF801D193B2
:100E00008F01CF5FC530A9F72ACE8C2F0E946A03CD
:100E10000E94B96AF801D1938F01CF5FC430A9F75E
:100E20001ECE81E026CFEF92FF920F931F93CF93B8
:100E3000DF9380913C0390913D03009719F120E0EE
:100E4000029709F022E0C0E08EE190E07C01E21A16
:100E5000F108D1E00C2F10E00E151F055CF48C2F6B
:100E60000E946A030E94B96AF801E551FD4FD083E0
:100E7000CF5FF0CFDF91CF911F910F91FF90EF9057
:100E80000C948E6D85E0DF91CF911F910F91FF90B3
:100E9000EF900C941C04EF92FF920F931F93CF934B
:100EA000DF9300D01F921F92CDB7DEB780913C0335
:100EB00090913D03892B09F4F2C080E395E00E94F4
:100EC000CC70882309F460C080913C0390913D036D
:100ED00012E0029709F410E085E0E0E3F2E0DE01C1
:100EE000119601900D928A95E1F7809152039091AD
:100EF0005303019731F48AE089838A838B838C833F
:100F00008D8380911103282F30E04EE150E07A016B
:100F1000E11AF10890910903992309F45FC02E1595
:100F20003F055CF40E946A030E94996DE0911103F1
:100F3000F0E0E551FD4F81E0808380910A02853029
:100F4000E9F5809111038E151F0451F14CF11092B7
:100F500009038EE1811B80931103809152039091CC
:100F600053034AE550E060E070E0019711F51092FC
:100F700038051092390580910903882329F0809162
:100F800011038F5F809311030F900F900F900F90BC
:100F90000F90DF91CF911F910F91FF90EF900895E7
:100FA0004D8184E0489FA0011124052E000C660BA2
:100FB000770B80E395E00E941171DDCF0E9453030F
:100FC00090911103981718F010920903C6CFE09181
:100FD0000A02EC0FFD2FF11D4081E3CF2E153F05D6
:100FE00054F40E946A030E94926DE0911103F0E0B4
:100FF000E551FD4F108210911103111116C081E0CF
:10100000809309034AE550E060E070E080E395E0FA
:101010000F900F900F900F900F90DF91CF911F9135
:101020000F91FF90EF900C941171115010931103D8
:1010300001E080913C0390913D03029709F400E0A8
:1010400080910A0220915203309153038530A9F414
:101050002130310541F41E151F042CF4109238057F
:101060001092390591CF4D8184E0489FA001112451
:10107000052E000C660B770BC9CF2130310541F4EA
:101080000E945303800F9927991F1817190634F3EC
:10109000E0910A02EC0FFD2FF11D4081E5CF809118
:1010A0000A028330C9F080F48230A1F081E00F9011
:1010B0000F900F900F900F90DF91CF911F910F9194
:1010C000FF90EF900C941C04843041F0853071F750
:1010D00085E0EDCF82E0EBCF83E0E9CF84E0E7CF9E
:1010E000DF92EF92FF920F931F93CF93DF932091A4
:1010F0003C0330913D0380910A022115310509F42A
:101100005AC0D2E02230310509F4D0E02D2F30E072
:10111000C0E0853029F58EE190E07C01E21AF30A07
:10112000DD24D3940C2F10E00E151F055CF48C2FDA
:101130000E946A030E94B96AF801E551FD4FD0820E
:10114000CF5FF0CF0E948E6D8EE18D1B80931103D7
:10115000DF91CF911F910F91FF90EF90DF90089555
:101160008EE190E07C01E21AF30AD1E00C2F10E04E
:101170000E151F05CCF480910A020E9453030551FD
:101180001D4F8C1748F08C2F0E946A030E94B96A89
:10119000F801D083CF5FEACF8C2F0E946A030E94B0
:1011A0009B6AF8011082F6CF0E948E6D80910A0230
:1011B0000E945303CBCF8330A9F060F4823081F0DA
:1011C00081E0DF91CF911F910F91FF90EF90DF9021
:1011D0000C941C04843041F0853091F785E0F1CF08
:1011E00082E0EFCF83E0EDCF84E0EBCF809152033C
:1011F00090915303019739F480E190E090930502B8
:1012000080930402089583E090E090930502809318
:1012100004028091380390913903049761F0809122
:10122000540390915503019769F780913A03909187
:101230003B03892B39F786E090E0E0CF80913C03B7
:1012400090913D03892B21F00E94BA031092110363
:101250000895E2E4F7E0108611861092150370E01D
:1012600060E08BE00C947B6BCF93C82F40914803D8
:10127000509149034330510579F180910F02882341
:1012800059F120913803309139032430310521F18F
:1012900080913003882301F18091AC0442305105E4
:1012A00071F52330310581F4809115039091AC04E0
:1012B000911115C0C81749F1C09315036C2F70E048
:1012C0008BE0CF910C947B6B882331F084EA94E01F
:1012D0000E94CC70882341F3CF910C9429096C2F84
:1012E00070E0660F771F6F3F710519F014F06FEF14
:1012F00070E08617170649F060931503E1CF81115E
:1013000006C0809115038C13D7CFCF91089584EA3E
:1013100094E00E94CC708111F4CF6C2F70E0660FC6
:10132000771F6F3F710519F014F06FEF70E0809137
:101330001503DFCFCF9380913C0390913D03813023
:10134000910509F04BC1809111038C3130F1883344
:1013500008F050C0C8E3C81B80913803909139034E
:10136000049709F059C00E9429098C2F0E946A0332
:101370000E94926DEC2FF0E0E551FD4F10828091BC
:101380001103873309F04EC110926705109268056A
:1013900010920903109211032DC00E946A030E944B
:1013A000996D80911103E82FF0E0E551FD4F91E038
:1013B0009083873108F18FE50E94340980911103F1
:1013C0008F5F809311038C3109F053C14AE550E0DF
:1013D00060E070E08FE595E00E941171809152030A
:1013E00090915303019731F488E090E090930502C7
:1013F00080930402CF910895813110F087E3DCCF10
:101400008C3010F08DE2D8CF853010F083E2D4CF4D
:101410008823A1F289E1D0CF8091520390915303A8
:1014200020910A02253018F48130910511F0892BA2
:1014300051F48C2F0E946A030E94926DEC2FF0E011
:10144000E551FD4F10828091520390915303009714
:10145000F9F0019779F680910A02833009F475C09A
:1014600098F5823009F48FC08FE00E943409909182
:101470001103923309F0A5C0109267051092680518
:101480001092090384E080931103CF910C94F60825
:1014900080911103873309F049C144E050E060E0D6
:1014A00070E080E395E00E94117110926705109240
:1014B000680581E080930903109211030E94F608E9
:1014C0008FE0CF910C943409843009F1853061F6B6
:1014D00090911103973389F41092380510923905D1
:1014E0001092670510926805109209038BE18093B2
:1014F00011030E94F60888E2E4CF1092670510926B
:10150000680581E08093090387E3891BF0CF909100
:101510001103903269F410926705109268051092D9
:10152000090386E1809311030E94F6088DE2C9CF7A
:10153000913208F43AC1109267051092680581E073
:101540008093090387E3891BEDCF909111039632B5
:1015500069F410926705109268051092090380E102
:10156000809311030E94F60889E1ABCF973208F40B
:1015700048C1109267051092680581E080930903C5
:1015800087E3891BEDCF909111039B3269F4109290
:10159000670510926805109209038BE08093110390
:1015A0000E94F60884E18DCF9C3208F44EC110925F
:1015B00067051092680581E08093090387E3891B22
:1015C000EDCF933308F4B2C010926705109268050E
:1015D00081E08093090387E3891B55CF029709F0C7
:1015E00054C1809111038E3158F18C3308F002CF31
:1015F000CBE3C81B8091380390913903049709F01D
:1016000057C00E9429098C2F0E946A030E94926D84
:10161000EC2FF0E0E551FD4F1082809111038B33E8
:1016200009F4B2CE40E550E060E070E08FE595E06F
:101630000E941171809111038F5F80931103DACEA4
:101640000E946A030E94996D80911103E82FF0E0D7
:10165000E551FD4F91E090838831D0F08FE50E94F5
:101660003409809111038F5F809311038E3109F447
:10167000ADCE4091040250910502440F551F440F16
:10168000551F70E060E08FE595E0CF910C941171EB
:10169000823110F087E3E3CF8C3010F08DE2DFCFA2
:1016A000863010F083E2DBCF8823D9F289E1D7CFEF
:1016B000809152039091530320910A02253018F42F
:1016C0008130910511F0892B51F48C2F0E946A030F
:1016D0000E94926DEC2FF0E0E551FD4F1082809159
:1016E0005203909153030097E1F0019709F082CEE5
:1016F00080910A02833009F46DC018F5823009F434
:1017000095C08FE00E94340990911103953309F040
:10171000B0C010926705109268051092090385E029
:10172000B2CE809111038B3309F4B7CE40910402FD
:1017300050910502440F551F440F551F70E060E0A3
:1017400075CF8430D9F08530E1F6909111039B3349
:1017500061F41092380510923905109267051092C5
:101760006805109209038DE1C2CE109267051092B0
:10177000680581E0809309038BE3C7CE9091110344
:10178000933241F410926705109268051092090394
:1017900087E1C8CE943248F0109267051092680530
:1017A00081E0809309038BE3CECE409104025091F7
:1017B0000502440F551F440F551F70E060E08FE590
:1017C00095E00E941171809111038F5F8093110346
:1017D0008BE177CE90911103993241F41092670515
:1017E000109268051092090381E1BACE9A3248F04E
:1017F000109267051092680581E0809309038BE3DE
:10180000C0CE4091040250910502440F551F440F71
:10181000551F70E060E08FE595E00E9411718091A6
:1018200011038F5F8093110383E24BCE90911103DC
:101830009F3209F4ACCE48F010926705109268050B
:1018400081E0809309038BE3BACE4091040250916A
:101850000502440F551F440F551F70E060E08FE5EF
:1018600095E00E941171809111038F5F80931103A5
:101870007BCE963308F45ACF109267051092680514
:1018800081E0809309038BE3A7CE80913803909188
:101890003903C1E0049709F4C2E0E0911203EA3091
:1018A00008F0A8CDF0E08827E75AF34F8F4F0C944B
:1018B0008C8A630C7B0C800C850C8A0CAF0CBC0CE6
:1018C000C80CD40CF20C89E10E94340981E00E941A
:1018D0001C0488E7C89FA0011124052E000C660B8C
:1018E000770B8FE595E00E941171809112038F5F55
:1018F000809312037FCD83E20E94340982E0E7CF18
:101900008DE20E94340983E0E2CF87E30E9434092C
:1019100084E0DDCF8FE50E94340985E00E941C043D
:1019200080911203282F30E02F5F3F4F90910A02E1
:101930009217130641F42091380330913903243073
:10194000310509F048C08F5F8093120388E7C89F74
:10195000A0011124052E000C660B770B94CE87E3B3
:101960000E94340984E00E941C0480911203482FD5
:101970004150550B9A01DACF8DE20E94340983E081
:101980000E941C0480911203482F4350550BF2CF44
:1019900083E20E94340982E00E941C0480911203B9
:1019A000482F4550550BE6CF89E10E94340981E06C
:1019B0000E941C04809112038750990B20910A0207
:1019C0002817190609F085CF8091380390913903C3
:1019D000049709F47ECF1092670510926805109263
:1019E000120308CD80E00E941C04F5CF80913A03D9
:1019F00090913B038130910539F4809138039091A7
:101A00003903892B79F00895892B49F580913803A2
:101A100090913903892B19F58091540390915503C6
:101A20000197E9F40E941E091092A2041092A304E7
:101A300080912B03811113C00E94F60880913C0312
:101A400090913D03892B49F080915203909153036B
:101A5000019719F480E00E94D9030C949A09089523
:101A600080914403909145038230910581F038F4D0
:101A7000019799F08091400390914103089583303C
:101A8000910541F00497B1F783E090E0089581E07B
:101A900090E0089582E090E0089590E080E008955D
:101AA00010922E0510922F051092240510922505F4
:101AB0008091250381110BC00E94300D029702977F
:101AC000A0F480913A0390913B03019771F4109A2E
:101AD0000E94300D0297029730F480913A03909162
:101AE0003B03019721F0119808951098F1CF119AB6
:101AF00008950F931F93CF93DF9300D000D0CDB7FD
:101B0000DEB78FEF9FEFDC0189839A83AB83BC83C1
:101B100010E000E01E830D83BE016B5F7F4FCE019E
:101B200001960E949872BE016A5F7F4FCE010196B6
:101B30000E9498720F5F1F4F0332110559F78EE113
:101B400090E09E838D83BE016B5F7F4FCE01019637
:101B50000E949872BE016A5F7F4FCE0101960E947B
:101B6000987285E090E09E838D83BE016B5F7F4F0E
:101B7000CE0101960E949872BE016A5F7F4FCE012E
:101B800001960E94987269817A818B819C8160950F
:101B900070958095909526960FB6F894DEBF0FBE8F
:101BA000CDBFDF91CF911F910F9108958091FF03D9
:101BB000909100040197039710F40C9436680895EF
:101BC0008091FF03909100040197039708F01DC1D5
:101BD00060916404062E000C770B8CE390E00E9469
:101BE000D96760916404062E000C770B8AE691E0B9
:101BF0000E94D96760916404062E000C770B8BE677
:101C000091E00E94D96760916404062E000C770B66
:101C100081E290E00E94D96760916404062E000C76
:101C2000770B8DE190E00E94D96760916404062EE5
:101C3000000C770B8EE190E00E94D96760916404FC
:101C4000062E000C770B8FE190E00E94D96760911F
:101C50006404062E000C770B80E290E00E94D967A6
:101C600060916404062E000C770B83E991E00E94DA
:101C7000D96760916404062E000C770B84E991E02B
:101C80000E94D96760916404062E000C770B87E4EC
:101C900091E00E94D967809125038823D9F1609152
:101CA0006404062E000C770B809136039091370365
:101CB0008230910509F4A3C08330910559F1019751
:101CC00009F4A0C08EE791E00E94D9676091640496
:101CD000062E000C770B89E891E00E94D96760918D
:101CE0006404062E000C770B83E690E00E94D9670F
:101CF00060916404062E000C770B88E490E00E944B
:101D0000D96760916404062E000C770B82E690E0A0
:101D10000E94D96760916404062E000C770B8EE850
:101D200090E00E94D96760916404062E000C770B46
:101D300080E990E00E94D96760916404062E000C4F
:101D4000770B8DE890E00E94D96760916404062EBD
:101D5000000C770B8FE890E00E94D96760916404D3
:101D6000062E000C770B83E990E00E94D967609102
:101D70006404062E000C770B81E990E00E94D9677D
:101D800060916404062E000C770B82E990E00E94BB
:101D9000D96760916404062E000C770B84E990E00B
:101DA0000E94D96760916404062E000C770B82E1D3
:101DB00090E00E94D96760916404062E000C770BB6
:101DC00083E190E00E94D96760916404062E000CC4
:101DD000770B84E190E00E94D96760916404062E3D
:101DE000000C770B85E190E00E94D9676091640454
:101DF000062E000C770B86E190E00C94D96784E303
:101E000090E086CF8AE390E083CF08958091FF032E
:101E1000909100040197039798F48091F2039091B8
:101E2000F303892B59F08091F4039091F503843FDB
:101E300021E0920718F064E00E94AB670E943668C8
:101E40001092F6031092F80308958091F203909196
:101E5000F303892B09F45DC08091F4039091F5039D
:101E6000843F21E0920708F454C021E02093F80356
:101E70002091FF03309100042230310569F12330B5
:101E8000310519F021303105F9F42091F70365E0AF
:101E9000211101C066E00E94AB6760916304062EC9
:101EA000000C770B8091F4039091F5030E94D967A1
:101EB00061E08091F4039091F5030E9407680E940D
:101EC000366881E08093620440E25EE460E070E0A6
:101ED00088E694E00C9411712091F70365E02111DC
:101EE00001C066E00E94AB6760916304062E000C9F
:101EF000770B8091F4039091F5030E94D96750E02D
:101F000040E061E08091F4039091F5030E945269F2
:101F1000D6CF08952091FF0330910004215031095C
:101F20002330310518F464E00C94AB6708958DE814
:101F300090E00E948A0F8EE890E00E948A0F8FE85E
:101F400090E00E948A0F80E990E00E948A0F81E968
:101F500090E00E948A0F82E990E00E948A0F83E954
:101F600090E00E948A0F84E990E00C948A0FCF934E
:101F7000C82F80910A02823020F08430B8F0863079
:101F8000E0F081E290E00E948A0FCC2329F1809159
:101F900036039091370382309105B1F0833091057B
:101FA000C1F00197C9F484E991E010C081E290E0AA
:101FB0000E948A0F8DE190E0E6CF8DE190E00E94D3
:101FC0008A0F80E290E0DFCF83E991E0CF910C941B
:101FD0008A0F87E491E0FACFCF9108958091E202D1
:101FE000882309F441C01092E20290915806809132
:101FF0005306981321C066E082E190E00E94AB672F
:1020000066E083E190E00E94AB6766E084E190E0E7
:102010000E94AB6766E085E190E00E94AB6766E0F6
:1020200086E190E00E94AB6746ED56E060E070E02C
:1020300082E195E00C94117182E190E00E948A0F98
:1020400083E190E00E948A0F84E190E00E948A0F71
:1020500085E190E00E948A0F86E190E00E948A0F5D
:1020600040E050E0BA01E4CF0895CF92DF92EF92C2
:10207000FF920F931F93CF93DF936C01F62EC42F23
:1020800014160CF4C0E0CA3B0CF4CAEB8091FF03B9
:10209000909100048230910589F18330910519F007
:1020A000019709F047C00C2E000CDD0B222379F0BC
:1020B0006AEB7FEFC6010E94D9676E2DC6010E94B0
:1020C0000768A801BE01C6010E94AE6908C0BE0132
:1020D000C6010E94D9676E2DC6010E94076865E09F
:1020E000F11001C066E0C601DF91CF911F910F9101
:1020F000FF90EF90DF90CF900C94AB670C2E000C0C
:10210000DD0B222361F06AEB7FEFC6010E94D967E5
:1021100050E040E06E2DC6010E945269D2CFBE0150
:10212000C6010E94D96750E040E06E2DC6010E94B2
:102130005269D5CFDF91CF911F910F91FF90EF9012
:10214000DF90CF900895EF920F931F93909102022A
:102150009817F9F08430C1F40E94300D4091640466
:10216000EE24E39410E000E020E061E00297A8F0A4
:102170008AE691E00E94351044E650E060E070E0AD
:1021800086E295E00E941171809102028F5F809338
:1021900002021F910F91EF9008958CE390E0EACF37
:1021A000EF920F931F938091E302882369F10E94BD
:1021B000300D029778F589E491E00E948A0F8CE453
:1021C00091E00E948A0F8DE491E00E948A0F81E0E5
:1021D0000E94B70F80913803909139030497A1F0C2
:1021E00080912603811110C081E190E00E948A0F46
:1021F000EE24E39410E000E020E04091640460E00D
:1022000081E190E00E9435101092E3021F910F913E
:10221000EF9008958091380390913903049731F03D
:1022200080913A0390913B03892B69F4EE24E39467
:1022300010E000E020E04091640460E084E990E078
:102240000E9435101EC08091260381111AC049E5F5
:1022500057E060E070E08AE995E00E941171109209
:102260009805109299058091FF03909100040297C0
:1022700089F4409164046EE870E082E990E00E9485
:10228000E2698FE890E00E948A0F80E990E00E9466
:102290008A0FBACFEE24E39410E000E020E04091F2
:1022A000640460E082E990E0CBCF80913A039091A2
:1022B0003B038130910539F48091380390913903C3
:1022C000892B79F00895892B79F5809138039091C5
:1022D0003903892B49F58091540390915503019757
:1022E00019F50E94EE0F0E94D01081E00E94B70FF6
:1022F00080913C0390913D030297A1F490E08EE120
:10230000891B8093110385E0809312030E941307B9
:1023100048E750E060E070E08FE595E00E941171C1
:102320000C949A0992E0EBCF0895EF920F931F93CC
:102330000E94970F48EE56E060E070E08AE995E071
:102340000E9411718091FF0390910004029771F433
:10235000409164046EE870E08DE890E00E94E269CC
:10236000109201021F910F91EF900895EE24E394D3
:1023700010E000E020E04091640460E08DE890E02F
:102380000E943510EDCFEF920F931F93CF93C82F7C
:102390004091640480910A02833020F0853028F156
:1023A000853061F1EE24E39408EE13E02C2F61E018
:1023B00081E290E00E943510CC23A9F18091360390
:1023C000909137038230910511F18330910581F1AD
:1023D000019749F5EE24E39404E813E021E04091ED
:1023E000640461E084E991E01CC0EE24E39408EE0B
:1023F00013E02C2F61E08DE190E0DCCFEE24E3943C
:1024000008EE13E02C2F61E080E290E0D3CFEE24C1
:10241000E39404E813E021E04091640461E083E97F
:1024200091E00E943510CF911F910F91EF90089588
:10243000EE24E39404E813E021E04091640461E0B9
:1024400087E491E0EECFEF920F931F93CF938091AB
:102450003803909139038430910509F4B3C0309169
:102460009D0620919806321384C1209111022223E7
:10247000A9F020913603309137032230310509F459
:10248000A6C0039759F08091AC04882309F49FC03B
:1024900084EA94E00E94CC70811199C08FEF0E9471
:1024A000E472C091E3020E94300DC1112AC002976C
:1024B00008F0ADC08091E10281111DC089E491E076
:1024C0000E948A0F8CE491E00E948A0F0E94300DD6
:1024D000019709F091C08DE491E00E948A0FEE24EB
:1024E000E39410E000E020E04091640460E08DE4BB
:1024F00091E00E94351081E00E94C31181E0809339
:10250000E3020E94300D02970297C0F480E995E043
:102510000E94CC70882391F08091FF039091000479
:10252000029761F0EE24E39410E000E020E0409197
:10253000640461E080E990E00E9435101092E102AD
:10254000909158068091530698130DC18091E20234
:10255000811138C082E195E00E94CC70882391F10E
:102560008091380390913903049761F18091E202E0
:10257000811128C00E94300D029720910A02233059
:1025800009F4CFC008F097C0223009F4B9C002970F
:1025900008F0A6C080911002882309F4A1C0EE249F
:1025A000E39410E000E020E04091640461E082E107
:1025B00090E00E94351081E08093E20210921A05AB
:1025C00010921B05CF911F910F91EF90089580916C
:1025D0000A02833069F020F4823061F083E25FCF39
:1025E000843021F08530D1F78BE959CF8DE757CF73
:1025F0008FE555CF81E453CFEE24E39410E000E063
:1026000020E04091640460E089E491E072CF109290
:10261000A2051092A30549E557E060E070E080E96B
:1026200095E00E9411712091010240916404809113
:10263000FF0390910004222351F10297E9F460E92D
:1026400070E083E990E00E94E269109201028DE857
:1026500090E00E948A0F8EE890E00E948A0F81E944
:1026600090E00E948A0F82E990E00E948A0F84E93C
:1026700090E00E948A0F42CFEE24E39410E000E045
:1026800020E060E083E990E00E943510DECF029701
:1026900039F460E970E08FE890E00E94E269D7CFFA
:1026A000EE24E39410E000E020E060E08FE890E0AA
:1026B0000E943510CCCF243009F444C0253009F0F5
:1026C00066CF029768F480911002882349F0EE24C7
:1026D000E39410E000E020E04091640461E00DC06C
:1026E00080915906882309F466CFEE24E39410E024
:1026F00000E020E04091640460E086E190E059CF82
:10270000029770F780911002882351F3EE24E3942E
:1027100010E000E020E04091640461E083E190E09B
:1027200048CF0297E8F6809110028823C9F2EE2480
:10273000E39410E000E020E04091640461E084E173
:1027400090E037CF029760F680911002882341F223
:10275000EE24E39410E000E020E04091640461E0A6
:1027600085E190E026CFCF911F910F91EF900C94CF
:10277000EE0F80E00E94684B0E94EE0FCF911F91F8
:102780000F91EF900C94D010EF920F931F938091C4
:10279000520390915303019709F064C080E190E0E7
:1027A00090930502809304028BEF90E00E948A0FC1
:1027B00080913A0390913B03029709F47DC0809188
:1027C000540390915503009709F44FC0019731F4D9
:1027D00080916705811102C00E949A0980910201CF
:1027E00080628093020180910201806480930201E3
:1027F000409106025091070270E060E086E597E0A4
:102800000E94117181E00E94864B10922E05109259
:102810002F0510922405109225050E94300D009777
:1028200081F1019709F44CC089E491E00E948A0F7C
:10283000EE24E39410E000E020E04091640460E0C6
:1028400089E491E00E94351081E00E94C3119091CB
:102850009D0680919806981779F11F910F91EF903E
:102860000C94951186E090E09BCF0E949A0990917C
:102870009D06809198069813B1CF81E08093E10284
:10288000ADCF8CE491E00E948A0F89E491E00E9430
:102890008A0F80913003EE24E39410E000E020E002
:1028A0004091640460E0882319F08CE491E002C058
:1028B00089E491E00E9435101F910F91EF900895E7
:1028C0008CE491E00E948A0F8DE491E00E948A0FCF
:1028D00080913003EE24E39410E000E020E040918A
:1028E000640460E0882331F090919D068091980601
:1028F0009813DBCF8DE491E0DDCFEF920F931F9320
:10290000809116028823D1F0109216028DE590E096
:102910000E948A0F8CE590E00E948A0FEE24E394D7
:1029200010E000E020E04091640460E08DE590E07C
:102930000E9435101F910F91EF90089581E08093D0
:1029400016028DE590E00E948A0F8CE590E00E94CF
:102950008A0FEE24E39410E000E020E0409164044C
:1029600060E08CE590E0E4CFEF920F931F938091AD
:102970003803909139038630910509F451C00897C6
:10298000029708F44DC086E090E00E948A0F80E331
:1029900090E00E948A0F85E490E00E948A0F86E40E
:1029A00090E00E948A0F8CE290E00E948A0F8EE3F2
:1029B00090E00E948A0F83E991E00E948A0F84E9E7
:1029C00091E00E948A0F87E491E00E948A0F809133
:1029D0003603909137038330910509F48FC0C8F511
:1029E0008130910509F446C0029709F465C0EE24D0
:1029F000E39410E000E020E04091640460E086E0B1
:102A000090E00E94351010920F0384E68093030239
:102A100045E050E060E070E088E095E00E941171D0
:102A20008091FF03909100040197029750F48091E8
:102A3000360390913703039709F08DC080E00E9420
:102A40006E6A1092B6041092B7041F910F91EF9026
:102A500008958530910509F473C0069741F6EE2478
:102A6000E39410E000E020E04091640460E088E935
:102A700091E0C7CFEE24E39410E000E020E0409125
:102A8000640460E085E490E00E94351080913A0390
:102A900090913B03019709F0B6CF90919D068091EC
:102AA00098069813B0CF00ED17E021E04091640440
:102AB00061E084E991E0A5CFEE24E39410E000E02A
:102AC00020E04091640460E080E390E00E943510D3
:102AD00080913A0390913B03019709F094CF909134
:102AE0009D068091980698138ECF0CEB12E021E0A2
:102AF0004091640461E083E991E083CFEE24E394A4
:102B000010E000E020E04091640460E086E490E0A2
:102B10000E94351080913A0390913B03019709F090
:102B200072CF90919D068091980698136CCF02EE1B
:102B300014E021E04091640461E087E491E061CF1A
:102B4000EE24E39410E000E020E04091640460E0B3
:102B500087E991E056CF81E072CFEF920F931F93F8
:102B600088E290E00E948A0FEE24E39410E000E0F7
:102B700020E04091640460E088E290E00E9435101B
:102B800088E590E00E948A0F85E690E00E948A0F17
:102B900089E590E00E948A0F2091540330915503FB
:102BA00080913303909134034091640421303105C6
:102BB000F1F082309105D9F410925503109254032C
:102BC00010923403109233031092320310923103A7
:102BD00020E060E089E590E00E9435101092370314
:102BE000109236031F910F91EF900C94B41401973B
:102BF00099F482E090E090933403809333039093B0
:102C0000320380933103EE24E39410E000E020E0EF
:102C100060E085E690E0E0CF81E090E090933403BF
:102C2000809333039093320380933103EE24E39433
:102C300010E000E020E060E088E590E0CDCF20915A
:102C400033033091340380915403909155038130C4
:102C50009105F1F421153105B1F41092320310926F
:102C60003103909334038093330380913603909122
:102C70003703892B31F010923703109236030E94EC
:102C8000B41480E025C03093320320933103EDCF9C
:102C900080913103909132038217930791F0813034
:102CA0009105B9F082309105A1F010923403109291
:102CB00033038091330390913403909332038093D4
:102CC000310381E02091330330913403232BC9F683
:102CD00008959093340380933303EBCFEF920F93D7
:102CE0001F93CF93C82F8091FF0390910004019709
:102CF000039738F480916704082E000C990B0E940A
:102D0000426AC11116C080913A0390913B03892B0E
:102D100081F480E490E00E948A0FEE24E39410E0B6
:102D200000E020E04091640460E080E490E00E94D4
:102D30003510CF911F910F91EF900895CF93982F59
:102D4000C62F20913E0330913F03D901119762E0D5
:102D5000A230B10508F46FEF9D3108F025C0E92FCE
:102D6000F0E08827E954F94E8F4F0C948C8AB817FD
:102D7000D416F616F916FC16FE16011703170617D9
:102D800009170C170F171217151718171C171B17F1
:102D90001F172217251728172B172F17321735172C
:102DA000601783179D17F11620E094E6392F330F33
:102DB000330F330F85E5732F789F070E70E0711D79
:102DC0001124692F6074592F507297FD2AC1611127
:102DD00016C15111D0C0872F8095972F782F80E092
:102DE000CEC020910D0290910E02E0CF29E192E336
:102DF000DDCF2FEF94EFDACF20E8FCCF2FEF90E07C
:102E0000D5CF20ECFCCF2FEF95E0D0CF2FEF9AE07D
:102E1000CDCF2FEF9FE0CACF2FEF94E1C7CF2FEF99
:102E200090E2C4CF20E89BE2C1CF2FEF90E4BECF69
:102E30002FEF90E5BBCFC0E82FEF90E6B7CF28E7A4
:102E400090E7B4CF2FEF90E8B1CF2FEF91E9AECF5D
:102E50002FEF90EAABCFC0E728EC9AEAA7CF2FEF8D
:102E600094EBA4CF2FEF90ECA1CF8091E0028823C8
:102E700021F0803611F01092E00280913803909199
:102E80003903892B19F4232B09F462E380910002A2
:102E90008F5F809300020E944A8A91110DC0809139
:102EA000E002811104C080E68093E00202C010922B
:102EB000E00281E0809300029091E0022FEF76CF54
:102EC0008091E0028F3029F0823D19F08FE08093ED
:102ED000E0028091380390913903892B19F4232B58
:102EE00009F462E3809100028F5F809300020E94E8
:102EF0004A8A9111E1CF8091E0028F3011F482ED86
:102F0000D3CF8FE0D1CF809100028F5F80930002FA
:102F10000E944A8A91110DC08091E00290E00596CE
:102F20006FEF70E00E94788A8093E00281E08093E6
:102F300000029091E00220E839CF8091380390910F
:102F40003903892B19F4129708F464E18091000287
:102F50008F5F809300020E944A8A9111ADCF8091C9
:102F6000E00290E005966FEF70E00E94788A9CCFB7
:102F7000C92F292F1BCF95E5970F80E07BEA2F3FC4
:102F8000F1F0222309F46CC0209530E0222329F0CF
:102F9000229F312D112421113F5F232F2095729FF5
:102FA000070E70E0711D929F090E90E0911D829FA7
:102FB000080E80E0811D1124730F930F830FCF3F04
:102FC000B9F020E0CC2321F0CC9F212D09F02F5F18
:102FD000222309F449C0729F070E70E0711D929F71
:102FE000090E90E0911D829F080E80E0811D112442
:102FF000692F411102C0672F792FCF910895511188
:103000000AC09AEA399F030E30E0311D11248BEA81
:10301000831B970FE3CE80E0972F9095872F70E06A
:10302000AECF611111C051110BC0832F9AEA899F55
:10303000080E80E0811D11249BEA981B8B5AEFCF6C
:10304000872F809590E09BCF511106C095E5970F93
:103050008BEA871B792FF6CF9AEA970F30E0F9CFEA
:103060008FEF9FEF7FEFABCF80E090E070E0C0CFBD
:103070009B01642F2150310940E02330310508F0D5
:1030800041E00C949E161F93CF93DF9310E0809144
:103090000C02181708F03AC060913E0370913F038C
:1030A000E12FF0E061307105C9F06230710529F55A
:1030B000E255FB4FE491F0E0EF01CC0FDD1FCE0FA6
:1030C000DF1FCA5ADC4F4FEF62E070E080E00E94E1
:1030D0003818688379838A831F5FD9CFE258FB4F02
:1030E000E491F0E0EF01CC0FDD1FCE0FDF1FCA5AD5
:1030F000DC4F4FEF61E070E0E9CFEF01CC0FDD1F57
:10310000CE0FDF1FCA5ADC4F4FEFE0CFDF91CF91D8
:103110001F91089580913E0390913F039C0121509F
:1031200031092230310570F44FEF019769F461E005
:1031300070E080E00E94381860937A0370937B03FC
:1031400080937C031298089562E070E080E00E9412
:1031500038186093C2037093C3038093C4036091D3
:103160003E0370913F034FEF80E00E943818609358
:10317000C5037093C6038093C703E4CF80913C03DB
:1031800090913D03892BB1F00E941E090E94C40357
:103190000E948A1810921203109211038091F80372
:1031A00081110CC040E65AEE60E070E082E794E0E6
:1031B0000C94117180E00E941C04E8CF0895E6EDA4
:1031C000F4E010861186EEEFF4E010861186E0EE52
:1031D000F4E010861186EAEEF4E010861186E4EF42
:1031E000F4E010861186E8E0F5E010861186109272
:1031F00018031092130310920F0384E680930302C6
:103200000E9443180C948A18EF920F931F93CF9348
:10321000DF9310928E0510928F0510923903109251
:1032200038031092250310920E0310920C03109293
:103230005D0510925E0510923805109239051092C6
:10324000090380910A028150209152033091530367
:1032500080931203109211032130310509F06DC0E3
:1032600080914E0390914F03019709F05BC00E943B
:1032700070080E944B0710920605109207051092E5
:10328000D4041092D5041092C0041092C10440E0FE
:1032900050E0BA018AEE94E00E9411710E948A18EF
:1032A0000E94500D0E94300D029708F44BC08AE630
:1032B00091E00E948A0F10920D0310920B0310925E
:1032C0000A0310927C0710927D078091360390913B
:1032D00037038230910509F4F9C08330910509F470
:1032E00061C0019709F4FCC00E94300D8130910546
:1032F00009F4A7C050F1039709F4E4C082EC94E00C
:103300000E948670683873418105910508F0C0C03D
:10331000E12C10E000E020E04091640460E083E8EC
:1033200091E03EC00E941E0985E090E09093050266
:10333000809304020E949A099ECF0E941E0983E096
:1033400090E0F4CF8CE390E0B4CF80910A02853016
:1033500009F44AC082EC94E00E948670E12C10E0EF
:1033600000E0683873418105910508F48AC082EC59
:1033700094E00E948670E12C10E000E0603177421A
:103380008105910538F420E04091640460E08AE012
:1033900090E006C020E04091640460E080E891E0A5
:1033A0000E94351080913603909137038230910549
:1033B00009F41CC18330910509F4CFC0019709F4C9
:1033C0001CC1C0910A020E94300DC53009F4F8C03A
:1033D0008130910509F495C008F48CC0039709F475
:1033E000ECC080E690E088C082EC94E00E94867099
:1033F000683873418105910550F4E12C10E000E03C
:1034000020E04091640460E088E891E0C9CF82EC5C
:1034100094E00E948670E12C10E000E06031774279
:103420008105910538F420E04091640460E08BE868
:1034300091E0B6CF20E04091640460E08AE891E03A
:10344000AFCF82EC94E00E948670683873418105AA
:10345000910550F4E12C10E000E020E0409164047C
:1034600060E08BE090E09CCF82EC94E00E9486705C
:10347000E12C10E000E0603177428105910508F011
:1034800082CF20E04091640460E087E490E088CF40
:1034900082EC94E00E948670E12C10E000E0603144
:1034A00077428105910538F420E04091640460E0A2
:1034B00082E891E075CF20E04091640460E081E80B
:1034C00091E06ECFE12C10E000E0EECFE12C10E0B7
:1034D00000E020E04091640460E085E390E060CF8C
:1034E000E12C10E000E020E04091640460E08BE318
:1034F00090E056CF8DE791E00E948A0F8EE791E031
:1035000006C084E690E00E948A0F83E690E00E9465
:103510008A0F80911502882321F089E090E00E94B3
:103520008A0F88E490E00E948A0F82E690E00E9471
:103530008A0F8091360390913703059721F483EA2F
:1035400091E00E948A0F809136039091370306978D
:1035500021F484EA91E00E948A0F80911703882366
:1035600031F1C091FF03D09100048091420390910A
:1035700043038130910509F44CC0029709F044C01F
:10358000239741F48EE690E00E948A0F8FE690E048
:103590000E948A0FE12C10E000E020E040916404DA
:1035A00060E08FE690E00E94351010921703DF91E3
:1035B000CF911F910F91EF9008958FE491E09CCFF0
:1035C0008130910569F028F0039769F08BE990E06C
:1035D0009ECF87E891E00E948A0F89E891E097CF1B
:1035E00081E690E094CF8FE491E091CF83E390E087
:1035F0000E948A0F84E390E0AECF89E390E00E94BE
:103600008A0F8AE390E0A7CF0E94300D029708F05E
:10361000B7CF239741F48AE490E00E948A0F89E4AF
:1036200090E00E948A0FE12C10E000E020E0409141
:10363000640460E089E490E0B6CFEF920F931F93AB
:103640000E94300D029708F4A7C00E94970F809146
:10365000380390913903049721F080911403882353
:1036600061F083E490E00E948A0F8FE390E00E9473
:103670008A0F84E490E00E948A0F89E491E00E941E
:103680008A0F8CE691E00E948A0F209138033091D6
:103690003903809114032730310509F086C0811168
:1036A0008AC080912603811186C010923B0310923C
:1036B0003A03109239031092380380912503811147
:1036C0000E9404190E94EE0F0E94D01081E00E9417
:1036D000B70F0E9429098EE390E00E948A0F809123
:1036E0003603909137038230910509F4CFC08330BF
:1036F000910509F4D1C0019709F4CBC086E090E0B0
:103700000E948A0F8091380390913903079781F0C6
:1037100080912603882361F0EE24E39410E000E01A
:1037200020E04091640460E08EE591E00E94351055
:1037300010921D0381E08093010210928405109283
:1037400085051092A2041092A3041092B604109260
:10375000B7041092AC041092AD0410922E05109292
:103760002F05109224051092250580913A0390911F
:103770003B03892B69F48091540390915503019781
:1037800009F08DC00E94F60810921C0310921B03D2
:103790001F910F91EF9008958091E302811157CF0F
:1037A0008CE491E00E948A0F52CF811186CF8091E4
:1037B0002603811182CF10923B0310923A0310929C
:1037C00039031092380380912603882341F084E95D
:1037D00091E00E948A0F8BE691E00E948A0F80910F
:1037E000260381110E94DF180E94300D029708F510
:1037F0008091540390915503892BC1F48091E30289
:10380000811114C080912603811110C08BEF90E0CC
:103810000E948A0FEE24E39410E000E020E0409143
:10382000640460E08BEF90E00E9435101092260354
:1038300044CF8091E302811116C08091260381114B
:1038400012C08091380390913903049761F0EE24FF
:10385000E39410E000E020E04091640460E081E93E
:1038600090E00E943510809126038111DFCF81E125
:1038700090E00E948A0FEE24E39410E000E020E044
:103880004091640460E081E190E0CECF80E390E07D
:1038900037CF85E490E034CF86E490E031CF1092CA
:1038A00067051092680510923805109239050E943C
:1038B000BE1868CFEF920F931F930E941D1B82E0EA
:1038C00090E090933B0380933A0387E090E09093DD
:1038D00039038093380380912603811137C040E477
:1038E00056E060E070E086E295E00E94117140E9E8
:1038F00051E060E070E08CE195E00E94117140E9D8
:1039000051E060E070E08AE994E00E941171E12CDE
:1039100010E000E020E04091640460E083E490E087
:103920000E94351020E04091640460E08FE390E055
:103930000E94351020E04091640460E084E490E04F
:103940000E9435101F910F91EF9008950E94300D45
:1039500040916404EE24E394039739F410E000E00E
:1039600020E060E084E991E0EBCF04EC19E021E095
:1039700061E08BE691E0E4CFEF920F931F931092FA
:103980001D031092260381E08093010210927A04B5
:1039900010927B042091540330915503213031055E
:1039A00009F530933B0320933A03109239031092A8
:1039B00038038091E306811110C08CEF90E00E94E3
:1039C0008A0FEE24E39410E000E020E040916404CC
:1039D00060E08CEF90E00E9435101F910F91EF9006
:1039E0000C94C4132091580690915306291309C0D2
:1039F00090911202992329F0809314030E945A1C7B
:103A0000ECCF81E090E090933B0380933A031092D7
:103A1000390310923803E1CFEF920F931F938091F7
:103A2000380390913903039729F48091250381117C
:103A30000E94041984E090E0909339038093380346
:103A40004CEA5DE060E070E08CE795E00E94117167
:103A50000E94EE0F0E94D01081E00E94B70F80916B
:103A60002B03882309F44DC0109267051092680556
:103A70000E941E0940E951E060E070E08AE994E0AC
:103A80000E941171E12C10E000E020E040916404FC
:103A900060E083E490E00E94351020E040916404EF
:103AA00060E08FE390E00E94351020E040916404D4
:103AB00060E084E490E00E94351040E951E060E06D
:103AC00070E086E894E00E94117140E456E060E006
:103AD00070E08CE794E00E94117181E190E00E9417
:103AE0008A0FEE24E39410E000E020E040916404AB
:103AF00060E081E190E00E9435101F910F91EF90FE
:103B0000089580913C0390913D03029789F490E0E1
:103B10008EE1891B8093110385E0809312030E943C
:103B2000130748E750E060E070E08FE595E0D3CF01
:103B300092E0EECFEF920F931F9380913803909114
:103B4000390304973091E2062091DD06039708F4CB
:103B50009AC2321751F081E090E09093390380933C
:103B600038031F910F91EF90089580911D038330CA
:103B700008F486C081E0809326030E945A1C0E94AC
:103B8000AB030E94300D48EB5BE0039711F448E86B
:103B900053E180910A02833009F46CC008F05FC0E1
:103BA000823009F46AC070E060E080E994E00E942D
:103BB0001171809113028823A1F280915403909196
:103BC0005503892B71F690915806809153069817EA
:103BD00041F290919D06809198069813C2CF8091F2
:103BE0001602882309F4BDCF80912C07882309F49D
:103BF00040C285E090E0909339038093380340ED14
:103C000057E060E070E08CE795E00E94117183E579
:103C100091E00E948A0F83E991E00E948A0F88E573
:103C200091E00E948A0FEE24E39410E000E020E08F
:103C30004091640460E087E591E00E943510809136
:103C4000360390913703029709F08BCF20E0409123
:103C5000640460E083E591E00E94351082CF8430F7
:103C600031F0853009F09FCF4053584F9CCF4452DC
:103C70005A4F99CF48515C4F96CF4C505E4F93CFDF
:103C80008091E5028823A9F08EEA94E00E94867074
:103C9000672B682B692B69F41092E5020E94300DA6
:103CA000029738F48091380390913903039709F013
:103CB00010989091270780912207981349C09091FE
:103CC000580680915306981343C090919D068091A9
:103CD000980698133DC0809108028823C9F180910D
:103CE0003603909137038130910509F4CFC00397D3
:103CF00009F4EEC080E994E00E948670672B682B7F
:103D0000692B51F410921D0348EE53E060E070E01F
:103D100080E994E00E94117180910E03811105C029
:103D200080911D038F5F80931D0380911D0383305D
:103D300078F48091380390913903039731F083E050
:103D400090E0909339038093380381E080930E03D1
:103D50003091130620910E06809133039091340325
:103D60000197029708F0DEC03213CBC0909158063D
:103D700080915306981338C090919D0680919806C3
:103D8000981332C080910802882371F180E994E091
:103D90000E948670672B682B692B51F410921D03CB
:103DA00048EE53E060E070E080E994E00E94117119
:103DB00080910C03811105C080911D038F5F80935A
:103DC0001D0380911D03833078F480913803909116
:103DD0003903039731F083E090E0909339038093A7
:103DE000380381E080930C0390912707809122078C
:103DF0009817E9F08091360390913703813091054F
:103E000009F431C1039709F42EC180912503882359
:103E100071F080910E03882351F080910C03811181
:103E20001DC1109239031092380310920E03909125
:103E3000130680910E06981709F4BBCE80913303C8
:103E400090913403892B09F0B4CE80913603909180
:103E500037038130910549F008F408C1823091059B
:103E600009F404C1039709F0A4CE809125038823A7
:103E700009F49FCE80910E03882309F49ACE109204
:103E800039031092380310920E0393CE8091E4020E
:103E900081115ECF8EEA94E00E948670672B682BBA
:103EA000692B09F055CF809138039091390348E58B
:103EB00052E060E070E0039709F44ACF8EEA94E0A4
:103EC0000E9411710E948B7C81E08093E40240CFBC
:103ED0008091E40281113CCF8EEA94E00E948670CA
:103EE000672B682B692B09F033CF809138039091B1
:103EF0003903039709F42CCF4AEF50E060E070E0FB
:103F0000DDCF80910E0381110AC08091380390911A
:103F10003903039721F41092390310923803109259
:103F20000C0362CF8091360390913703009759F4C8
:103F300040913803509139034330510521F4321731
:103F400009F44FCF51CF32134FCF30915806209103
:103F50005306321349CF30919D06209198063213B3
:103F600043CF20910802222309F43ECF81309105EE
:103F700041F0B8F18230910509F44EC0039709F081
:103F800033CF80E994E00E948670672B682B692B01
:103F900051F410921D0348EE53E060E070E080E9B8
:103FA00094E00E94117180910E03811105C08091EF
:103FB0001D038F5F80931D0380911D03833008F0E4
:103FC00013CF8091380390913903039731F083E048
:103FD00090E0909339038093380381E080930E033F
:103FE00003CF8091E4028111FFCE8EEA94E00E941B
:103FF0008670672B682B692B09F0F6CE40ED57E0F1
:1040000060E070E08EEA94E00E9411710E948B7C67
:1040100081E08093E402E8CE8091E4028111E4CE55
:104020008091380390913903039709F4DDCE809194
:10403000E502811110C04EEE52E060E070E08EEAC1
:1040400094E00E9411710E948B7C8091E5028F5F49
:104050008093E502DDCF8230D8F6F5CF0E941F169F
:104060008111DFCEE2CE1092E402E1CE1092E402A2
:10407000A0CD80912907882309F473CD1F910F915A
:10408000EF900C940C1D321709F46BCD64CD0F9397
:104090001F93CF9300913E0310913F03C8010197F6
:1040A000029708F055C00E94300D209126038330FE
:1040B0009105C1F4222349F0809136039091370392
:1040C000892B09F450C0CCE019C0809117038111ED
:1040D0004AC08091360390913703029709F045C09A
:1040E000C0E10CC02111EFCF20913603309137038E
:1040F00022303105D1F5C4E0019791F70130110567
:10410000D9F04FEF62E070E08C2F0E943818609376
:10411000C2037093C3038093C40360913E03709104
:104120003F034FEF8C2F0E9438186093C5037093A4
:10413000C6038093C7030CC04FEF61E070E08C2F83
:104140000E94381860937A0370937B0380937C03FA
:104150008091360390913703029709F0129ACF911C
:104160001F910F910895CEE0C9CFC1E0C7CFCF9284
:10417000DF92EF92FF920F931F93CF9320913C0316
:1041800030913D0380914E0390914F03892B09F0AC
:10419000F1C62115310509F4FFC5E0911103223064
:1041A000310509F028C3EF3008F003C6F0E0882796
:1041B000E352FF4D8F4F0C948C8AEC201D21592126
:1041C0008D21CD210122352269229D22D122052374
:1041D00039236D23A023D4238DE70E9434098EE078
:1041E0000E946A030E94B96A8FE00E946A030E94DB
:1041F000B96A81E08093F9028093FA0280911103F9
:104200008F5F809311038091090381110EC08DE0AF
:104210000E946A030E949B6A80E10E946A030E94D6
:104220009B6A1092F8021092FB0281E080930903CE
:104230000E948E6D0E944720BCC58DE70E94340904
:104240008DE00E946A030E94B96A80E10E946A03BD
:104250000E94B96A81E08093F8028093FB0280910A
:104260000903882391F08EE00E946A030E949B6AF2
:104270008FE00E946A030E949B6A1092F9021092DA
:10428000FA02809111038F5F11C08CE00E946A03D3
:104290000E949B6A81E10E946A030E949B6A1092BD
:1042A000F7021092FC028091110381508093110358
:1042B000BFCF8DE70E9434098CE00E946A030E9400
:1042C000B96A81E10E946A030E94B96A81E0809321
:1042D000F7028093FC0280910903882379F08DE036
:1042E0000E946A030E949B6A80E10E946A030E9406
:1042F0009B6A1092F8021092FB02C3CF8BE00E94DF
:104300006A030E949B6A82E10E946A030E949B6A80
:104310001092F6021092FD02C6CF8DE70E9434097A
:104320008BE00E946A030E94B96A82E10E946A03DC
:104330000E94B96A81E08093F6028093FD02809129
:104340000903882391F08CE00E946A030E949B6A13
:1043500081E10E946A030E949B6A1092F702109208
:10436000FC02809111038F5F11C08AE00E946A03F2
:104370000E949B6A83E10E946A030E949B6A1092DA
:10438000F5021092FE028091110381508093110377
:104390000E948E6D0E948A180CC58DE70E94340918
:1043A0008AE00E946A030E94B96A83E10E946A035C
:1043B0000E94B96A81E08093F5028093FE028091A9
:1043C0000903882379F08BE00E946A030E949B6AAC
:1043D00082E10E946A030E949B6A1092F602109288
:1043E000FD02BFCF89E00E946A030E949B6A84E1BC
:1043F0000E946A030E949B6A1092F4021092FF02CC
:10440000C2CF8DE70E94340989E00E946A030E94AE
:10441000B96A84E10E946A030E94B96A81E08093CC
:10442000F4028093FF0280910903882379F08AE0E7
:104430000E946A030E949B6A83E10E946A030E94B1
:104440009B6A1092F5021092FE021BCF88E00E9438
:104450006A030E949B6A85E10E946A030E949B6A2C
:104460001092F302109200031ECF8DE70E943409D0
:1044700088E00E946A030E94B96A85E10E946A038B
:104480000E94B96A81E08093F302809300038091D7
:104490000903882379F089E00E946A030E949B6ADD
:1044A00084E10E946A030E949B6A1092F4021092B7
:1044B000FF02E7CE87E00E946A030E949B6A86E1C2
:1044C0000E946A030E949B6A1092F20210920103FA
:1044D000EACE8FE70E94340987E00E946A030E94B7
:1044E000B96A86E10E946A030E94B96A81E08093FA
:1044F000F2028093010380910903882379F088E018
:104500000E946A030E949B6A85E10E946A030E94DE
:104510009B6A1092F3021092000323CF86E00E9460
:104520006A030E949B6A87E10E946A030E949B6A59
:104530001092F1021092020326CF8FE70E943409F5
:1045400086E00E946A030E94B96A87E10E946A03BA
:104550000E94B96A81E08093F10280930203809106
:104560000903882379F087E00E946A030E949B6A0E
:1045700086E10E946A030E949B6A1092F2021092E6
:104580000103EFCE85E00E946A030E949B6A88E1E6
:104590000E946A030E949B6A1092F0021092030329
:1045A000F2CE8FE70E94340985E00E946A030E94E0
:1045B000B96A88E10E946A030E94B96A81E0809327
:1045C000F0028093030380910903882379F086E049
:1045D0000E946A030E949B6A87E10E946A030E940C
:1045E0009B6A1092F102109202034BCE84E00E946B
:1045F0006A030E949B6A89E10E946A030E949B6A87
:104600001092EF02109204034ECE8FE70E943409FD
:1046100084E00E946A030E94B96A89E10E946A03E9
:104620000E94B96A81E08093EF0280930403809135
:104630000903882379F085E00E946A030E949B6A3F
:1046400088E10E946A030E949B6A1092F002109215
:10465000030317CE83E00E946A030E949B6A8AE1EB
:104660000E946A030E949B6A1092EE021092050358
:104670001ACE8FE70E94340983E00E946A030E94E9
:10468000B96A8AE10E946A030E94B96A81E0809354
:10469000EE028093050380910903882379F084E07A
:1046A0000E946A030E949B6A89E10E946A030E9439
:1046B0009B6A1092EF021092040353CE82E00E9494
:1046C0006A030E949B6A8BE10E946A030E949B6AB4
:1046D0001092ED021092060356CE82E80E94340931
:1046E00082E00E946A030E94B96A8BE10E946A0319
:1046F0000E94B96A1092ED0210920603809109039C
:10470000882379F083E00E946A030E949B6A8AE111
:104710000E946A030E949B6A1092EE0210920503A7
:1047200020CE81E00E946A030E949B6A8CE10E9475
:104730006A030E949B6A1092EC021092070323CE38
:1047400082E80E94340981E00E946A030E94B96AEB
:104750008CE10E946A030E94B96A81E08093EC02B6
:104760008093070380910903882379F082E00E94F7
:104770006A030E949B6A8BE10E946A030E949B6A03
:104780001092ED02109206037CCD80E00E946A0335
:104790000E949B6A8DE10E946A030E949B6A1092AC
:1047A000EB02109208037FCD82E80E94340980E07A
:1047B0000E946A030E94B96A8DE10E946A030E9406
:1047C000B96A81E08093EB02809308030E946A0338
:1047D0000E949B6A8CE10E946A030E949B6A10926D
:1047E000EC02109207038091110381508093110312
:1047F000109209031DCDEE3008F0DBC2F0E08827EF
:10480000EB5FFB4D8F4F0C948C8A13243D24712455
:10481000A524D9240D2541257525A925DD25112699
:1048200045267826AC268DE70E9434098DE00E944B
:104830006A030E94B96A8EE00E946A030E94B96A04
:1048400081E08093F8028093F902809111038F5FD9
:1048500080931103809109038111E7CC8CE00E94C1
:104860006A030E949B6A8FE00E946A030E949B6A0F
:104870001092F7021092FA02D8CC8DE70E94340908
:104880008CE00E946A030E94B96A8FE00E946A036A
:104890000E94B96A81E08093F7028093FA028091C6
:1048A0000903882379F08DE00E946A030E949B6AC5
:1048B0008EE00E946A030E949B6A1092F802109296
:1048C000F902DFCC8BE00E946A030E949B6A80E1C0
:1048D0000E946A030E949B6A1092F6021092FB02E9
:1048E000E2CC8DE70E9434098BE00E946A030E94AB
:1048F000B96A80E10E946A030E94B96A81E08093EC
:10490000F6028093FB0280910903882379F08CE002
:104910000E946A030E949B6A8FE00E946A030E94C1
:104920009B6A1092F7021092FA021BCD8AE00E9455
:104930006A030E949B6A81E10E946A030E949B6A4B
:104940001092F5021092FC021ECD8DE70E943409F0
:104950008AE00E946A030E94B96A81E10E946A03A8
:104960000E94B96A81E08093F5028093FC028091F5
:104970000903882379F08BE00E946A030E949B6AF6
:1049800080E10E946A030E949B6A1092F6021092D4
:10499000FB02E7CC89E00E946A030E949B6A82E1E5
:1049A0000E946A030E949B6A1092F4021092FD0218
:1049B000EACC8DE70E94340989E00E946A030E94D4
:1049C000B96A82E10E946A030E94B96A81E0809319
:1049D000F4028093FD0280910903882379F08AE034
:1049E0000E946A030E949B6A81E10E946A030E94FE
:1049F0009B6A1092F5021092FC0243CC88E00E9460
:104A00006A030E949B6A83E10E946A030E949B6A78
:104A10001092F3021092FE0246CC8DE70E943409F8
:104A200088E00E946A030E94B96A83E10E946A03D7
:104A30000E94B96A81E08093F3028093FE02809124
:104A40000903882379F089E00E946A030E949B6A27
:104A500082E10E946A030E949B6A1092F402109203
:104A6000FD020FCC87E00E946A030E949B6A84E1EA
:104A70000E946A030E949B6A1092F2021092FF0247
:104A800012CC8FE70E94340987E00E946A030E94DB
:104A9000B96A84E10E946A030E94B96A81E0809346
:104AA000F2028093FF0280910903882379F088E065
:104AB0000E946A030E949B6A83E10E946A030E942B
:104AC0009B6A1092F3021092FE024BCC86E00E9489
:104AD0006A030E949B6A85E10E946A030E949B6AA6
:104AE0001092F102109200034ECC8FE70E9434091D
:104AF00086E00E946A030E94B96A85E10E946A0307
:104B00000E94B96A81E08093F10280930003809152
:104B10000903882379F087E00E946A030E949B6A58
:104B200084E10E946A030E949B6A1092F202109232
:104B3000FF0217CC85E00E946A030E949B6A86E10F
:104B40000E946A030E949B6A1092F0021092010375
:104B50001ACC8FE70E94340985E00E946A030E9404
:104B6000B96A86E10E946A030E94B96A81E0809373
:104B7000F0028093010380910903882379F086E095
:104B80000E946A030E949B6A85E10E946A030E9458
:104B90009B6A1092F1021092000373CB84E00E9492
:104BA0006A030E949B6A87E10E946A030E949B6AD3
:104BB0001092EF021092020376CB8FE70E94340925
:104BC00084E00E946A030E94B96A87E10E946A0336
:104BD0000E94B96A81E08093EF0280930203809182
:104BE0000903882379F085E00E946A030E949B6A8A
:104BF00086E10E946A030E949B6A1092F002109262
:104C000001033FCB83E00E946A030E949B6A88E114
:104C10000E946A030E949B6A1092EE0210920303A4
:104C200042CB8FE70E94340983E00E946A030E940E
:104C3000B96A88E10E946A030E94B96A81E08093A0
:104C4000EE028093030380910903882379F084E0C6
:104C50000E946A030E949B6A87E10E946A030E9485
:104C60009B6A1092EF02109202037BCB82E00E94BB
:104C70006A030E949B6A89E10E946A030E949B6A00
:104C80001092ED02109204037ECB82E80E94340958
:104C900082E00E946A030E94B96A89E10E946A0365
:104CA0000E94B96A1092ED021092040380910903E8
:104CB000882379F083E00E946A030E949B6A88E15E
:104CC0000E946A030E949B6A1092EE0210920303F4
:104CD00048CB81E00E946A030E949B6A8AE10E949D
:104CE0006A030E949B6A1092EC02109205034BCB60
:104CF00082E80E94340981E00E946A030E94B96A36
:104D00008AE10E946A030E94B96A81E08093EC0202
:104D10008093050380910903882379F082E00E9443
:104D20006A030E949B6A89E10E946A030E949B6A4F
:104D30001092ED0210920403A4CA80E00E946A035C
:104D40000E949B6A8BE10E946A030E949B6A1092F8
:104D5000EB0210920603A7CA82E80E94340980E0A1
:104D60000E946A030E94B96A8BE10E946A030E9452
:104D7000B96A81E08093EB02809306030E946A0384
:104D80000E949B6A8AE10E946A030E949B6A1092B9
:104D9000EC021092050327CD80911203833009F4B1
:104DA000C9C008F050C0813009F476C0823009F4DF
:104DB0009AC080913C0390913D03C8E7009709F0A9
:104DC000C8E220918E05222309F4F1C786E895E018
:104DD0000E9486708B019C01E0910A02E150FF0B5A
:104DE000EE0FFF1FE759FA4F8081918166E070E076
:104DF0000E94648ACB01B0E0A0E0081719072A07D7
:104E00003B0708F0A1C680913C0390913D03892B9C
:104E100009F491C64C2F46954695469550E04E5F55
:104E20005F4F052E000C660B770B85E595E00E9421
:104E3000117186E0CF911F910F91FF90EF90DF905D
:104E4000CF900C94A310843009F44DC0853009F044
:104E5000B0CF8DE70E94340980E00E946A0360E0D1
:104E60000E94D66A81E00E946A0361E00E94D66ACD
:104E700082E00E946A0361E00E94D66A83E00E9499
:104E80006A0361E00E94D66A84E00E946A0360E0DF
:104E90000E94D66A81E024C08DE70E94340980E038
:104EA0000E946A0360E00E94D66A81E00E946A0361
:104EB00061E00E94D66A82E00E946A0361E00E947B
:104EC000D66A83E00E946A0361E00E94D66A84E0A9
:104ED0000E946A0360E00E94D66A809112038F5F8D
:104EE00080931203A7C98FE70E94340980E00E94D3
:104EF0006A0361E00E94D66A81E00E946A0360E072
:104F00000E94D66A82E00E946A0361E00E94D66A2B
:104F100083E00E946A0360E00E94D66A84E00E94F7
:104F20006A0361E00E94D66A809112038F5F8093CA
:104F3000120330CA82E80E94340980E00E946A03AA
:104F400061E00E94D66A81E00E946A0361E00E94EB
:104F5000D66A82E00E946A0360E00E94D66A83E01B
:104F60000E946A0361E00E94D66A84E00E946A039C
:104F700061E0B1CF80910A022115310509F4AAC37D
:104F800012E02230310509F410E0CEE1CC2ED12C14
:104F9000C11AD10890911103911105C0833091F18C
:104FA000A0F48230D1F14091110390E0292F30E03C
:104FB0002C153D05ECF525513D4FF90180818111FE
:104FC00002C09417B0F19F5FF1CF843081F085303B
:104FD00051F796010D2C000C440B550B62E170E06B
:104FE00080E090E00E94486E60931103DCCF6CE09B
:104FF00070E080E090E00E942E6E635F7F4F8F4FE5
:105000009F4FF2CF6AE070E080E090E00E942E6E49
:10501000675F7F4F8F4F9F4FE7CF6AE070E080E080
:1050200090E00E942E6E6D5F7F4F8F4F9F4FDCCFC1
:1050300081E090910A02933009F4A6C1E8F492301D
:1050400009F464C2882309F40CC3C7E080911103FA
:10505000C81708F452C08C13F0C280910202843049
:1050600009F4F5C208F0DEC2813008F0F5C267E04D
:1050700070E080E090E0DDC2943009F4C3C0953068
:1050800009F7882309F467C0CDE1C11B0D2C000C82
:10509000EE08FF0880911103C81778F18C131EC029
:1050A00080910202833009F446C050F4823009F442
:1050B00049C0A701960162E170E080E090E00AC07B
:1050C000843091F18530A9F7A701960166E070E080
:1050D00080E090E00E94486E609311030C2F10E076
:1050E00005511D4FF8018081882399F18C2F0E9472
:1050F0006A030E949B6AF80110820E948E6D809163
:105100001103873108F4E0C282E80E9434098091DB
:105110001203843008F409C582E80E9434098091A2
:10512000180380FD37C986C8A701960169E070E0C1
:1051300080E090E0CFCFA70196016CE070E080E0C6
:1051400090E0C8CFA70196016FE070E080E090E0AA
:10515000C1CFC1509FCFC0E00D2C000CEE08FF085E
:10516000809111038C1748F28C131DC080910202AC
:10517000833089F150F48130E1F1823099F1A70157
:10518000960160E070E0CB010AC08430E9F0853020
:10519000B1F7A701960168E070E080E090E00E941E
:1051A000486E609311030C2F10E005511D4FF8015C
:1051B0008081811125C08C2F0E946A030E94B96AE8
:1051C00081E0F801808399CFA70196016CE070E03F
:1051D00080E090E0E4CFA70196016EE070E080E00F
:1051E00090E0DDCFA701960160E170E080E090E003
:1051F000D6CFA701960162E170E080E090E0CFCFCA
:10520000CF5FAECF882309F45FC0C9E1809111035D
:10521000C81708F472CF8C1321C08091020283302A
:1052200091F160F4813009F444C08230B9F169E150
:1052300070E080E090E00E942E6E0EC08430C1F0DD
:105240008530A9F768E170E080E090E00E942E6E62
:105250006F5F7F4F8F4F9F4F609311030C2F10E0B4
:1052600005511D4FF8018081811140CFC150CECF33
:1052700065E170E080E090E00E942E6E6C5F7F4FF1
:105280008F4F9F4FE9CF62E170E080E090E00E9495
:105290002E6E695F7F4F8F4F9F4FDECF6FE070E0C4
:1052A00080E090E00E942E6E665F7F4F8F4F9F4F91
:1052B000D3CF6CE070E080E090E00E942E6E635FE0
:1052C0007F4F8F4F9F4FC8CFC0E0809111038C1745
:1052D00008F413CF8C1321C080910202833099F11E
:1052E00060F4813009F445C08230C1F169E170E0B9
:1052F00080E090E00E942E6E0EC08430C9F08530B0
:10530000A9F768E170E080E090E00E942E6E6F5F88
:105310007F4F8F4F9F4F609311030C2F10E005516B
:105320001D4FF8018081882309F445CFCF5FCDCF91
:1053300065E170E080E090E00E942E6E6C5F7F4F30
:105340008F4F9F4FE8CF62E170E080E090E00E94D5
:105350002E6E695F7F4F8F4F9F4FDDCF6FE070E004
:1053600080E090E00E942E6E665F7F4F8F4F9F4FD0
:10537000D2CF6CE070E080E090E00E942E6E635F20
:105380007F4F8F4F9F4FC7CF882309F45FC0C3E182
:1053900080911103C81708F4B0CE8C1321C08091FE
:1053A0000202833091F160F4813009F444C082300C
:1053B000B9F163E170E080E090E00E942E6E0EC0D3
:1053C0008430C1F08530A9F762E170E080E090E0C0
:1053D0000E942E6E6F5F7F4F8F4F9F4F6093110320
:1053E0000C2F10E005511D4FF801808181117ECEF8
:1053F000C150CECF60E170E080E090E00E942E6E60
:105400006D5F7F4F8F4F9F4FE9CF6EE070E080E080
:1054100090E00E942E6E6B5F7F4F8F4F9F4FDECFCD
:105420006CE070E080E090E00E942E6E695F7F4F3C
:105430008F4F9F4FD3CF6AE070E080E090E00E94F2
:105440002E6E675F7F4F8F4F9F4FC8CFC0E0809118
:1054500011038C1708F451CE8C1321C080910202E5
:10546000833099F160F4813009F445C08230C1F194
:1054700063E170E080E090E00E942E6E0EC0843008
:10548000C9F08530A9F762E170E080E090E00E9409
:105490002E6E6F5F7F4F8F4F9F4F609311030C2FC6
:1054A00010E005511D4FF8018081882309F483CE57
:1054B000CF5FCDCF60E170E080E090E00E942E6E83
:1054C0006D5F7F4F8F4F9F4FE8CF6EE070E080E0C1
:1054D00090E00E942E6E6B5F7F4F8F4F9F4FDDCF0E
:1054E0006CE070E080E090E00E942E6E695F7F4F7C
:1054F0008F4F9F4FD2CF6AE070E080E090E00E9433
:105500002E6E675F7F4F8F4F9F4FC7CF882309F461
:1055100044C0CDE080911103C81708F4EECD8C1380
:105520001CC080910202843011F148F4813050F5A2
:105530006DE070E080E090E00E942E6E0CC085303F
:10554000B9F76CE070E080E090E00E942E6E6F5F33
:105550007F4F8F4F9F4F609311030C2F10E0055129
:105560001D4FF80180818111C1CDC150D3CF6BE0B7
:1055700070E080E090E00E942E6E6E5F7F4F8F4F54
:105580009F4FE9CF6AE070E080E090E00E942E6ECD
:105590006D5F7F4F8F4F9F4FDECFC0E08091110333
:1055A0008C1708F4AACD8C131CC0809102028430A1
:1055B00019F148F4813058F56DE070E080E090E03A
:1055C0000E942E6E0CC08530B9F76CE070E080E070
:1055D00090E00E942E6E6F5F7F4F8F4F9F4F6093C2
:1055E00011030C2F10E005511D4FF8018081882315
:1055F00009F4E1CDCF5FD2CF6BE070E080E090E0C6
:105600000E942E6E6E5F7F4F8F4F9F4FE8CF6AE0F4
:1056100070E080E090E00E942E6E6D5F7F4F8F4FB4
:105620009F4FDDCF853009F022CD6AE070E080E049
:1056300090E00E942E6E609311030C2F10E0055134
:105640001D4FF8018081811151CDC150FFCC69E01F
:1056500070E080E090E0EDCF68E070E080E090E006
:10566000E8CFC0E0809111038C1708F446CD8C136D
:1056700016C0809102028430E9F038F48130F8F4E9
:1056800067E070E080E090E006C08530C9F76AE02E
:1056900070E080E090E00E942E6E609311030C2F6A
:1056A00010E005511D4FF8018081882309F483CD56
:1056B000CF5FD8CF69E070E080E090E0ECCF68E0A9
:1056C00070E080E090E0E7CF8C3010F08FE71DCDE8
:1056D0008DE71BCD9091120391111DC0833009F409
:1056E0005DC040F4823009F464C062E070E080E0A4
:1056F00090E063C0843009F44CC08530B1F764E0B9
:1057000070E080E090E00E942E6E6E5F7F4F8F4FC2
:105710009F4F6093120320911203E6EEF2E090E0B7
:105720008191811102C0291720F49F5F9530C1F744
:1057300081E090910A02933009F415C108F040C04D
:10574000923009F469C1882309F4C5C1C5E080918C
:105750001203C81708F4DBCC8C1312C0809102022C
:10576000833009F4AEC108F4B1C1863008F0AEC18F
:1057700066E070E080E090E00E942E6E609312037D
:10578000EC2FF0E0EB51FD4F8081C1508823F9F2FE
:1057900040C063E070E080E090E0B5CF63E070E08F
:1057A00080E090E00E942E6E6F5F7F4F8F4F9F4F83
:1057B000B0CF63E070E080E090E00E942E6EA9CF51
:1057C000943009F46BC0953009F0BDCF882381F186
:1057D000C5E080911203C81708F499CC8C1311C04E
:1057E0008091020283508330C0F465E070E080E075
:1057F00090E00E942E6E6F5F7F4F8F4F9F4F6093A0
:105800001203EC2FF0E0EB51FD4F8081C150882353
:1058100001F38C2F0E941C047ACC64E070E080E0DD
:1058200090E00E942E6E6E5F7F4F8F4F9F4FE7CFAD
:10583000C0E0809112038C1708F469CC8C130FC060
:10584000809102028330A1F0F0F08630E0F466E04F
:1058500070E080E090E00E942E6E60931203EC2FC7
:10586000F0E0EA51FD4F8081CF5F8111E2CFD1CFCF
:1058700065E070E080E090E00E942E6E6F5F7F4FE9
:105880008F4F9F4FEACF64E070E080E090E00E948D
:105890002E6E6E5F7F4F8F4F9F4FDFCF882369F152
:1058A000C5E080911203C81708F431CC8C1311C0E5
:1058B0008091020283508330A8F465E070E080E0BC
:1058C00090E00E942E6E6F5F7F4F8F4F9F4F6093CF
:1058D0001203EC2FF0E0EB51FD4F8081C150882383
:1058E00001F397CF64E070E080E090E00E942E6EBC
:1058F0006E5F7F4F8F4F9F4FEACFC0E080911203C2
:105900008C1708F404CC8C130FC0809102028330F2
:10591000A1F0F0F08630E0F466E070E080E090E026
:105920000E942E6E60931203EC2FF0E0EA51FD4FBF
:105930008081CF5F8111E2CF6CCF65E070E080E0C5
:1059400090E00E942E6E6F5F7F4F8F4F9F4FEACF88
:1059500064E070E080E090E00E942E6E6E5F7F4F0A
:105960008F4F9F4FDFCF882339F1C5E0809112031D
:10597000C81708F4CCCB8C1311C08091020283505D
:105980008330A8F465E070E080E090E00E942E6E25
:105990006F5F7F4F8F4F9F4F60931203EC2FF0E0AC
:1059A000EB51FD4F8081C150882301F332CF63E07A
:1059B00070E080E090E0EACFC0E0809112038C17A5
:1059C00008F4A5CB8C130FC0809102028330A1F0A4
:1059D000F0F08630E0F466E070E080E090E00E9455
:1059E0002E6E60931203EC2FF0E0EA51FD4F8081A0
:1059F000CF5F8111E2CF0DCF65E070E080E090E0F5
:105A00000E942E6E6F5F7F4F8F4F9F4FEACF63E0F4
:105A100070E080E090E0F4CF882319F1C5E0809138
:105A20001203C81708F473CB8C130DC080910202C7
:105A30008250843088F466E070E080E090E00E945C
:105A40002E6E60931203EC2FF0E0EB51FD4F80813E
:105A5000C150882321F3DDCE63E070E080E090E068
:105A6000EECFC0E0809112038C1708F450CB8C135A
:105A70001AC080910202833051F0F0F08630E0F4D9
:105A800066E070E080E090E00E942E6E0AC065E063
:105A900070E080E090E00E942E6E6F5F7F4F8F4F2E
:105AA0009F4F60931203EC2FF0E0EA51FD4F80818D
:105AB000CF5F8111D7CFADCE63E070E080E090E0A2
:105AC000E3CF65E070E080E090E056CE63E070E008
:105AD00080E090E051CEC0E0809112038C1708F472
