:100000000C94A3020C94D4020C94D4020C94D40249
:100010000C94D4020C94D4020C94D4020C94D40208
:100020000C94D4020C94D4020C94D4020C94D402F8
:100030000C94D4020C94D4020C94D4020C94D402E8
:100040000C94D4020C94D4020C94D4020C94D402D8
:100050000C94D4020C94D4020C94D4020C949415F5
:100060000C94D4020C94B0160C9486160C94D40202
:100070000C94D4020C94D4020C94D4020C94D402A8
:100080000C94D4020C94D4020C94D4020C94D40298
:100090000C945C160C9432160C94D4020C94DA1660
:1000A0000C94D4020C94D4020C94D4020C94D40278
:1000B0000C94D4020C94D4020C94D4020C94D40268
:1000C0000C94D4020C94D4020C94D4020C94D40258
:1000D0000C94D4020C94D4020C9408160C94DE15E3
:1000E0000C94D4020C9486070C94B3220C949A07B7
:1000F0000C94C6110C94EE0F0C94F5220C943E1245
:100100000C948E140C9408060C9409230C9436233A
:100110000C94620A0C9477070C948B0A0C942607B3
:100120000C9412060C948A140C942D070C949213C0
:100130000C9401120C94B8220C94AD110C948714F9
:100140000C942E070C949A110C9459120C94BC1117
:100150000C94610A0C94F90A0C94EB0F0C94C911DD
:100160000C94910D0C949F110C94E9050C94921130
:100170000C9429060C94DB220C94B0110C942223CD
:100180000C94EB220C94FF220C942E060C94710A12
:100190000C94D0110C94B6110C9440230C9441088B
:1001A0000C9420070C942C070C949D110C94A80718
:1001B0000C94B3110C94BD220C94BD110C94182313
:1001C0000C94F8130C94840A0C94C3110C941A2503
:1001D0000C9484140C94A2110C94A7110C94D122A9
:1001E0000C94F3050C94C0110C94341A0C94D31194
:1001F0000C9475110C9497110C945A150C94FE05DF
:100200000C94D6110C941C060C94CC110C944A231B
:100210000C942A060C94B80A0C9431070C94930D94
:100220000C942C230C9404060C94B9110C94C72242
:100230000C94390B0C9416060C9424120C94F407AD
:100240000C94FB050C94A4110C94AA110C94240694
:100250000C94E3220C94EF050C940E060C94F70515
:100260000C942006450515253544342414044333E5
:1002700023130302122232424131211101001020C6
:100280003040403020100001112131414232221211
:100290000203132333430414243444352515054540
:1002A0003738393A3B3B3A393837001020300111A2
:1002B000213102122232031323330414243405158E
:1002C0002535061626363626160635251505342418
:1002D000140433231303322212023121110130207E
:1002E0001000000000006410B71DC8206E3BAC3049
:1002F000D9269041DC76F4516B6B5861B24D3C715C
:1003000005502083B8ED44930FF0E8A3D6D68CB304
:1003100061CBB0C2649BD4D2D38678E20AA01CF22F
:10032000BDBD000000000000000000000000010151
:10033000010101010101020202020202030303039F
:100340000404040405050505060606070707080852
:10035000080909090A0A0B0B0B0C0C0D0D0E0E0FE8
:100360000F1010111112121313141415151617175C
:100370001818191A1A1B1C1C1D1E1E1F20202122B2
:100380002323242526262728292A2A2B2C2D2E2FE5
:100390002F30313233343536373838393A3B3C3DFB
:1003A0003E3F4041424344454647494A4B4C4D4EEF
:1003B0004F5051525455565758595B5C5D5E5F61C2
:1003C000626364666768696B6C6D6F707173747576
:1003D0007778797B7C7E7F808283858688898B8C09
:1003E0008E8F9192949597989A9B9D9EA0A2A3A57B
:1003F000A6A8AAABADAFB0B2B4B5B7B9BABCBEC0CF
:10040000C1C3C5C7C8CACCCECFD1D3D5D7D9DADC02
:10041000DEE0E2E4E6E8E9EBEDEFF1F3F5F7F9FB16
:10042000FDFF00002100240027002A002D003000DD
:10043000330001010000040107010A01000022004D
:10044000250028002B002E0031003400020100009E
:10045000050108010B0100002000230026002900EF
:100460002C002F00320000010000030106010901E9
:1004700005050505070508080808020202020A0A20
:10048000080804040404010101010101010103033E
:10049000030303030303040707070C0C0C0C0C0CE9
:1004A0000C0C0202020206060606060606060B0BE6
:1004B0000B0B0B0B0B0B0102102020080810204027
:1004C0001020408002010201080402010102040818
:1004D00010204080804020100804020180040201A6
:1004E00080402010080402010804020101020408EF
:1004F00010204080010204081020408000000A0BF8
:1005000002090C0D0E0807030401000000000000A2
:1005100000000000000000000000000000000000DB
:100520000000000000000000121110000000000098
:1005300000000000000000000000000000000000BB
:100540000000341A1A2511241FBECFEFD1E2DEBFFE
:10055000CDBF00E00CBF12E0A0E0B2E0E6E6F1E5BE
:1005600000E00BBF02C007900D92A239B107D9F786
:100570002CE0A2E9B2E001C01D92A932B207E1F776
:1005800012E0C2EAD2E000E006C021970109802F04
:10059000FE010E946326C13AD10780E00807A9F74F
:1005A0000E946E1C0C94A1280C940000CF93DF9342
:1005B000EC019A01AB01E889F98982E08083211579
:1005C00081EE38074105510581F160E079E08DE366
:1005D00090E00E9412262150310941095109569597
:1005E000479537952795EC85FD851082EE85FF852B
:1005F0002083188EEC89FD8986E08083EA89FB8957
:10060000808180618083EA89FB8980818860808322
:10061000EA89FB89808180688083EA89FB898081FF
:100620008F7D8083DF91CF910895E889F9891082C9
:1006300020E1D9CF0F931F93CF93DF93EC016E8509
:100640007F85E881F9810284F385E02D19958C017D
:100650008D85882361F04E855F856A817B81E88185
:10066000F9810280F381E02D2FEFCE011995E88109
:10067000F9810484F585E02DB801CE01DF91CF9199
:100680001F910F911994CF93DF9300D000D01F9248
:100690001F92CDB7DEB720EF29832AEA2A8328E00C
:1006A0002B8323E02C836D838E839F8385E588874E
:1006B00080910E0490910F04DC01ED91FC91028079
:1006C000F381E02D48E050E0BE016F5F7F4F199548
:1006D00028960FB6F894DEBF0FBECDBFDF91CF9145
:1006E0000895CF93DF9300D000D000D01F921F92C7
:1006F000CDB7DEB720EF29832AEA2A832BE02B83AC
:100700002BE12C8321E02D838E839F8328876987AB
:100710001A8685E58B8780910E0490910F04DC0189
:10072000ED91FC910280F381E02D4BE050E0BE01A1
:100730006F5F7F4F19952B960FB6F894DEBF0FBEF3
:10074000CDBFDF91CF910895CF93DF9300D000D03C
:1007500000D0CDB7DEB720EF29832AEA2A8329E02B
:100760002B8328E02C838D839E836F83788785E598
:10077000898780910E0490910F04DC01ED91FC912A
:100780000280F381E02D49E050E0BE016F5F7F4FB2
:10079000199529960FB6F894DEBF0FBECDBFDF9135
:1007A000CF910895CF93DF93CDB7DEB72C970FB6D7
:1007B000F894DEBF0FBECDBF20EF29832AEA2A833B
:1007C0002CE02B832AE02C838D839E836F83788794
:1007D00049875A871B8685E58C8780910E04909106
:1007E0000F04DC01ED91FC910280F381E02D4CE0DF
:1007F00050E0BE016F5F7F4F19952C960FB6F894AD
:10080000DEBF0FBECDBFDF91CF910895CF93DF93B1
:1008100000D000D000D0CDB7DEB720EF29832AEA80
:100820002A8329E02B832DE02C8321E02D838E83E6
:100830009F83288785E5898780910E0490910F0416
:10084000DC01ED91FC910280F381E02D49E050E064
:10085000BE016F5F7F4F199529960FB6F894DEBFE2
:100860000FBECDBFDF91CF910895CF93DF9300D01E
:1008700000D01F92CDB7DEB720EF29832AEA2A8362
:1008800027E02B8325E02C838D839E8385E58F8352
:1008900080910E0490910F04DC01ED91FC91028097
:1008A000F381E02D47E050E0BE016F5F7F4F199567
:1008B00027960FB6F894DEBF0FBECDBFDF91CF9164
:1008C0000895DF92EF92FF920F931F93CF93DF93E0
:1008D00010926804FF24F394F3E0EF2EA2E0DA2EE6
:1008E000CFEFDFEF01E414E080910E0490910F044C
:1008F000DC01ED91FC910084F185E02D199518162D
:1009000019060CF0F2C080910E0490910F04DC01E6
:10091000ED91FC910284F385E02D19959091660488
:1009200091111DC0803F09F04BC0F0926604809188
:1009300068048823C9F280912C04843809F48CC09F
:1009400008F047C0813809F4B0C0823809F4B9C052
:10095000109266041092670410926804C5CF91301B
:1009600029F48A3A51F5D0926604E1CF923071F4BD
:10097000803F19F18A3A09F18535F9F08132E8F4BE
:10098000E0926604815080936704D1CF2091670480
:100990009217B0F4E92FF0E0E25FFB4F838F9F5F87
:1009A0009093660490912C04963809F2803F29F0C8
:1009B0008A3A19F0853509F0BACF10926604B7CF9C
:1009C000209167049213F9CF8535B9F7F092680446
:1009D000AECF853841F1863809F0BACF80912D0429
:1009E0008093650480912F0490E0982F88272091B0
:1009F0002E04820F911D9093620480936104809174
:100A00006704893068F08091310490E0982F88273E
:100A100020913004820F911D9093640480936304AD
:100A2000F0926B0495CF80912E0490E0982F882748
:100A300020912D04820F911D90936D0480936C047E
:100A400080912F04811105C010926E0410926F04E2
:100A50007FCFF0926E04FACF80912F048E3008F091
:100A600077CF20912E04422F50E0542F442720911D
:100A70002D0430E02F5F3F4F240F351F90E0409151
:100A800030040196880F991FFC01E25FFB4F411172
:100A900009C0808191812817390709F059CFD18386
:100AA000C08356CF3183208353CFEDE2F4E08191B0
:100AB000868F0E171F07D9F710926004F092690411
:100AC00047CF80912D048093650480912F0490E09E
:100AD000982F882720912E04820F911D90936204F5
:100AE00080936104F0926A0433CFDF91CF911F911C
:100AF0000F91FF90EF90DF900895FC01DB019C9136
:100B00009150492F4F3FC9F0242F30E0DF01A20F51
:100B1000B31F8C918E3711F04150F4CF9F3F69F095
:100B2000492F50E0DF01A40FB51F8C918E3719F4C7
:100B3000291B2C93292F9150F1CF0895CF93DF9348
:100B400000D01F921F92CDB7DEB790EF99839AEA3B
:100B50009A8395E09B838823E1F084E18C8385E58B
:100B60008D8380910E0490910F04DC01ED91FC9136
:100B70000280F381E02D45E050E0BE016F5F7F4FC2
:100B800019950F900F900F900F900F90DF91CF91CC
:100B9000089585E1E3CF8150823108F05AC0E82FF3
:100BA000F0E08827E952FA4F8F4F0C946326F7053F
:100BB000FB05E905EF05F3052906FE050406080611
:100BC0000E06120616061C062006290624062A060C
:100BD0002E06809180008F77809380000895809109
:100BE00080008F7DF9CF80918000877FF5CF84B51D
:100BF0008F7784BD089584B58F7DFBCF8091B00041
:100C00008F778093B00008958091B0008F7DF9CFE9
:100C1000809190008F77809390000895809190004C
:100C20008F7DF9CF80919000877FF5CF8091A000D4
:100C30008F778093A00008958091A0008F7DF9CFD9
:100C40008091A000877FF5CF809120018F778093DE
:100C500020010895809120018F7DF9CF809120019E
:100C6000877FF5CFCF93DF93282F30E0F901E45051
:100C7000FB4F8491F901EA54FB4FD491F901E059FB
:100C8000FB4FC491CC23A1F081110E94CB05EC2F26
:100C9000F0E0EE0FFF1FEA5AFB4FA591B491EC91E3
:100CA000ED2381E090E009F480E0DF91CF91089599
:100CB00080E090E0FACF1F93CF93DF93282F30E0AE
:100CC000F901E450FB4F8491F901EA54FB4FD491B0
:100CD000F901E059FB4FC491CC23A9F0162F8111E3
:100CE0000E94CB05EC2FF0E0EE0FFF1FE45CFB4F02
:100CF000A591B4918FB7F894EC91111108C0D095DB
:100D0000DE23DC938FBFDF91CF911F910895DE2BFF
:100D1000F8CFCF93DF9390E0FC01EA54FB4F24918E
:100D200080599B4FFC0184918823D1F090E0880F7B
:100D3000991FFC01EE5DFB4FA591B491FC01E45CB1
:100D4000FB4FC591D491623071F49FB7F8943C91F8
:100D5000822F809583238C93E8812E2B28839FBF3D
:100D6000DF91CF9108958FB7F894EC912E2B2C93AF
:100D70008FBFF6CF3FB7F894809108049091090493
:100D8000A0910A04B0910B0426B5A89B05C02F3F83
:100D900019F00196A11DB11D3FBFBA2FA92F982FA1
:100DA0008827BC01CD01620F711D811D911D42E09C
:100DB000660F771F881F991F4A95D1F708958F9264
:100DC0009F92AF92BF92CF92DF92EF92FF920E94DA
:100DD000BA064B015C018AE0C82ED12CE12CF12C23
:100DE0000E94BA06681979098A099B09683E73400E
:100DF00081059105A8F321E0C21AD108E108F108A4
:100E000088EE880E83E0981EA11CB11CC114D10489
:100E1000E104F10429F7FF90EF90DF90CF90BF90AD
:100E2000AF909F908F9008952FB7F894609104042D
:100E30007091050480910604909107042FBF0895D6
:100E4000809195028F5F809395020895809196021C
:100E50008F5F8093960208950895089580E991E048
:100E60000895AF92BF92CF92DF92EF92FF920F93CD
:100E70001F93CF93DF936C017B018B01040F151F30
:100E8000EB015E01AE18BF08C017D10759F0699198
:100E9000D601ED91FC910190F081E02DC6011995EC
:100EA000892B79F7C501DF91CF911F910F91FF90A9
:100EB000EF90DF90CF90BF90AF900895FC01A08994
:100EC000B1898C91A689B78982FD0FC09C91818DD3
:100ED0008F5F8F73228D821749F0A18DAE0FBF2FC8
:100EE000B11D5D969C93818F08958C910895FC01AE
:100EF000538D448D252F30E0842F90E0821B930B7F
:100F0000541710F0CF96089501970895FC01918D24
:100F1000828D981761F0A28DAE0FBF2FB11D5D9627
:100F20008C91928D9F5F9F73928F90E008958FEFC9
:100F30009FEF0895FC01918D828D981731F0828D7D
:100F4000E80FF11D858D90E008958FEF9FEF0895D4
:100F5000FC01918D228D892F90E0805C9F4F821B38
:100F600091098F739927089580EC94E00E94A80757
:100F700021E0892B09F420E0822F08958DE595E08A
:100F80000E94A80721E0892B09F420E0822F089510
:100F90008AEF95E00E94A80721E0892B09F420E060
:100FA000822F0895FC01A48DA80FB92FB11DA35A5B
:100FB000BF4F2C91848D90E001968F739927848F79
:100FC000A689B7892C93A089B1898C91837080649C
:100FD0008C93938D848D981306C00288F389E02D3D
:100FE00080818F7D80830895EF92FF920F931F93EE
:100FF000CF93DF93EC0181E0888F9B8D8C8D9813CC
:101000001AC0E889F989808185FF15C09FB7F894D7
:10101000EE89FF896083E889F98980818370806423
:1010200080839FBF81E090E0DF91CF911F910F916E
:10103000FF90EF900895F62E0B8D10E00F5F1F4F7D
:101040000F731127E02E8C8D8E110CC00FB607FC8C
:10105000FACFE889F989808185FFF5CFCE010E941A
:10106000D207F1CFEB8DEC0FFD2FF11DE35AFF4FAF
:10107000F0829FB7F8940B8FEA89FB8980818062A8
:10108000CFCFCF93DF93EC01888D8823B9F0AA8965
:10109000BB89E889F9898C9185FD03C0808186FD33
:1010A0000DC00FB607FCF7CF8C9185FFF2CF808182
:1010B00085FFEDCFCE010E94D207E9CFDF91CF911E
:1010C000089580E090E0892B29F00E94C8078111E3
:1010D0000E94000080E090E0892B29F00E94BE076A
:1010E00081110E94000080E090E0892B49F080E0AF
:1010F00090E0892B29F00E94000081110E940000DD
:1011000080E090E0892B29F00E94B40781110C94B3
:10111000000008950F931F93CF93DF93DC01EB0141
:101120004D915D916D917C911397E881E427EF706B
:1011300084E0E89FF0011124EE51FD4F05911591D7
:101140002591349184E076956795579547958A95D2
:10115000D1F740275127622773274D935D936D93F5
:101160007C931397E881E295EF70E427EF7084E0B9
:10117000E89FF0011124EE51FD4F05911591259145
:10118000349194E076956795579547959A95D1F760
:1011900040275127622773274D935D936D937C936E
:1011A0001397DF91CF911F910F910895CF92DF9206
:1011B000EF92FF921F93CF93DF93EC0119851123D8
:1011C00061F01886198611E0812FDF91CF911F9170
:1011D000FF90EF90DF90CF9008950E941407CC808D
:1011E000DD80EE80FF806C197D098E099F09C88023
:1011F000D980EA80FB806C157D058E059F0508F778
:10120000E3CFCF93DF93EC01488359836A837B83D9
:101210000E9414076C837D838E839F8381E088877F
:101220001986DF91CF9108952091DF02260F332791
:10123000331F21323105ECF420919604FC0190E03B
:1012400080E0243069F082E00895A091DF022191CE
:10125000AC0141545D4FA40FB52FB11D2C930196E5
:10126000861798F38091DF02680F6093DF0280E0B9
:10127000089581E008951092960481E0809395048A
:101280001092700461E084E10E945B0661E085E1F8
:101290000E945B06E9EBF0E080818E7F8083808195
:1012A0008D7F808388E48093B80085E48093BC00C0
:1012B0000895CF93DF9391E09093BE028823B9F015
:1012C000C091B800D091BA008091BC008A7B809315
:1012D000BC0060E084E10E945B0660E085E10E9462
:1012E0005B060E943B09D093BA00C093B800DF911F
:1012F000CF910895CF92DF92EF92FF920F931F93B9
:10130000CF93DF93D091BF0481E0D13208F09CC02D
:10131000C091BE040E94BA066B017C0180919604C4
:1013200081116CC082E08093960481E080939504E3
:101330008FEF8093940410929304D0939204AEE9BB
:10134000B4E0E2E7F4E080E0D8138DC010927104BD
:1013500080917104CC0FC82BC093710480917004EC
:10136000813009F084C0109270040E94BA066B01AB
:101370007C01809171048093BB00809198049091CE
:101380009904A0919A04B0919B04892B8A2B8B2BF2
:10139000A1F00E94BA06009198041091990420913E
:1013A0009A0430919B046C197D098E099F090617D8
:1013B00017072807390708F442C08091BC0083FD55
:1013C000D8CF85EC8093BC000E94BA066B017C01EB
:1013D00080919604823009F44CC0809194048F3F30
:1013E00009F469C080919404803209F466C0809148
:1013F0009404803309F463C084E026C0809198048B
:1014000090919904A0919A04B0919B04892B8A2B06
:101410008B2B09F483CF0E94BA0600919804109197
:10142000990420919A0430919B046C197D098E09CE
:101430009F09061717072807390708F06FCF809113
:1014400097040E94590985E010929D041092BF04F0
:1014500010929C04DF91CF911F910F91FF90EF901C
:10146000DF90CF9008959D9191938F5F6DCF85EE22
:10147000A9CF8091980490919904A0919A04B09179
:101480009B04892B8A2B8B2B09F4A2CF0E94BA06CE
:10149000009198041091990420919A0430919B0432
:1014A0006C197D098E099F09061717072807390748
:1014B00008F08ECFC4CF80E0C7CF82E0C5CF83E0F5
:1014C000C3CF0895E091470380914603E81730F4B5
:1014D000F0E0E256FD4F808190E008958FEF9FEF9E
:1014E000089590914703809146032FEF3FEF98179F
:1014F00048F4E92FF0E0E256FD4F208130E09F5F95
:1015000090934703C9010895809146039091470342
:10151000891B990B0895CF92DF92EF92FF920F9360
:101520001F93CF93DF937C01CB018A0120919C0410
:10153000222389F0EB016B01C40ED51ECC15DD050D
:1015400069F06991D701ED91FC910190F081E02D56
:10155000C7011995F3CF642F0E941409C801DF91C8
:10156000CF911F910F91FF90EF90DF90CF90089552
:10157000CF93DF931F92CDB7DEB7698320919C0490
:101580002223F9F02091BF04203258F021E030E00E
:10159000FC013383228390E080E00F90DF91CF91B4
:1015A000089580919D04E82FF0E0E256FB4F998169
:1015B00090838F5F80939D048093BF0481E090E0CF
:1015C000ECCF61E0CE0101960E941409F7CF909113
:1015D000DD0921E020939C049093BE0410929D04A9
:1015E0001092BF04682F8DE996E00E94B80A0C940F
:1015F0007A0990E080E008950F931F93CF93DF93D3
:1016000020919D022F5F322F377030939D0220FF73
:101610002BC020E831FD2064347009F02062205F87
:10162000FC01EC01239600E011E06785662329F0B8
:1016300070E0C8010E944F266F5F6187822F869FEE
:10164000080E80E0811D1124811110C016826623CE
:1016500011F0615061873196EC17FD0731F7DF918A
:10166000CF911F910F91089520E0D4CF81508683B0
:10167000EECF4F925F927F928F929F92AF92BF92E6
:10168000CF92DF92EF92FF920F931F93CF93DF934E
:101690002C01EB010E94BA06F20126893789621BF0
:1016A000730B6A307105B0F3F8948A819B81181628
:1016B00019060CF0CBC1E881F98105B1006175B163
:1016C0007F7E75B9BA848F812B2D281B822F2F83A3
:1016D0004C85042E000C550BAA81BB81E888DF8461
:1016E000C988E394D394C3949E81388599848B846C
:1016F000118120E0F32E622F322F3181112788943F
:101700003111380F08F43FEF81958894E0FC130FF6
:1017100017958894E1FC130F17958894E2FC130F3A
:1017200017958894E3FC130F17958894E4FC130F26
:1017300017958894E5FC130F17958894E6FC130F12
:1017400017958894E7FC130F17958894232FE110C1
:10175000212F8B0D122F002C05B900C017FF75B972
:1017600030812227889400C000C0002C75B9311147
:10177000390F00C0002C05B900C016FF75B908F478
:101780003FEF9195889400C000C0002C75B9D0FC43
:10179000230F00C0002C05B900C015FF75B92795AF
:1017A0008894D1FC230F00C000C0002C75B9279588
:1017B000889400C0002C05B900C014FF75B9D2FC94
:1017C000230F2795889400C000C0002C75B9D3FC66
:1017D000230F00C0002C05B900C013FF75B9279571
:1017E0008894D4FC230F00C000C0002C75B9279545
:1017F000889400C0002C05B900C012FF75B9D5FC53
:10180000230F2795889400C000C0002C75B9D6FC22
:10181000230F00C0002C05B900C011FF75B9279532
:101820008894D7FC230F00C000C0002C75B9279501
:10183000889400C0002C05B900C010FF75B9132FA3
:10184000D110122F990D00C000C0002C75B900C036
:1018500000C0002C05B900C017FF75B932812227DE
:10186000889400C000C0002C75B931113F0D00C034
:10187000002C05B900C016FF75B908F43FEFE40F5E
:10188000F51F00C000C0002C75B9C0FC230F00C0BC
:10189000002C05B900C015FF75B927958894C1FCC7
:1018A000230F00C000C0002C75B92795889400C094
:1018B000002C05B900C014FF75B9C2FC230F279591
:1018C000889400C000C0002C75B9C3FC230F00C071
:1018D000002C05B900C013FF75B927958894C4FC86
:1018E000230F00C000C0002C75B92795889400C054
:1018F000002C05B900C012FF75B9C5FC230F279550
:10190000889400C000C0002C75B9C6FC230F00C02D
:10191000002C05B900C011FF75B927958894C7FC44
:10192000230F00C000C0002C75B92795889400C013
:10193000002C05B900C010FF75B9132FC110122F6C
:10194000F19400C000C0002C75B9F80C00C000C0B4
:1019500005B900C017FF75B931812227889400C0EE
:1019600000C0002C75B93111380F00C0002C05B92A
:1019700000C016FF75B908F43FEF8195889400C048
:1019800000C0002C75B9E0FC230F00C0002C05B985
:1019900000C015FF75B927958894E1FC230F00C09E
:1019A00000C0002C75B92795889400C0002C05B99B
:1019B00000C014FF75B9E2FC230F2795889400C07E
:1019C00000C0002C75B9E3FC230F00C0002C05B942
:1019D00000C013FF75B927958894E4FC230F00C05D
:1019E00000C0002C75B92795889400C0002C05B95B
:1019F00000C012FF75B9E5FC230F2795889400C03D
:101A000000C0002C75B9E6FC230F00C0002C05B9FE
:101A100000C011FF75B927958894E7FC230F00C01B
:101A200000C0002C75B92795889400C0002C05B91A
:101A300000C010FF75B9132FE110122F8B0D00C0DD
:101A400000C0002C75B9119709F086CEEA81FB81A0
:101A50002EE130E0DF010E946B2630E020E0A9019A
:101A6000AAE9EA9F0E0E411DFA9F400D511D112457
:101A70004F0F511DDC01CB01840F951FA11DB11D1E
:101A8000893E43E09407A105B10508F434C0885E9F
:101A90009340A109B10942E0B695A795979587951E
:101AA0004A95D1F747E0849F080E211D949F200D91
:101AB000311D1124290F311D60919C0270E0860FA9
:101AC000971F820F931F4091040450910504609169
:101AD000060470910704292F3327420F531F611DFD
:101AE000711D4093040450930504609306047093A1
:101AF000070480939C0278940E94BA06F201778BC7
:101B0000668BDF91CF911F910F91FF90EF90DF9047
:101B1000CF90BF90AF909F908F907F905F904F90AD
:101B20000895249A08954F925F927F928F929F9288
:101B3000AF92BF92CF92DF92EF92FF920F931F93DB
:101B4000CF93DF932C01EB010E94BA06F2012689A4
:101B50003789621B730B6A307105B0F3F8948A8180
:101B60009B81181619060CF0CBC1E881F98105B1EB
:101B7000006475B17F7B75B9BA848F812B2D281BCA
:101B8000822F2F834C85042E000C550BAA81BB811C
:101B9000E888DF84C988E394D394C3949E81388510
:101BA00099848B84118120E0F32E622F322F3181B2
:101BB000112788943111380F08F43FEF81958894EC
:101BC000E0FC130F17958894E1FC130F1795889488
:101BD000E2FC130F17958894E3FC130F1795889474
:101BE000E4FC130F17958894E5FC130F1795889460
:101BF000E6FC130F17958894E7FC130F179588944C
:101C0000232FE110212F8B0D122F002C05B900C0BE
:101C100017FF75B930812227889400C000C0002CBE
:101C200075B93111390F00C0002C05B900C016FF7D
:101C300075B908F43FEF9195889400C000C0002C5E
:101C400075B9D0FC230F00C0002C05B900C015FFEA
:101C500075B927958894D1FC230F00C000C0002CD3
:101C600075B92795889400C0002C05B900C014FFF1
:101C700075B9D2FC230F2795889400C000C0002CB2
:101C800075B9D3FC230F00C0002C05B900C013FFA9
:101C900075B927958894D4FC230F00C000C0002C90
:101CA00075B92795889400C0002C05B900C012FFB3
:101CB00075B9D5FC230F2795889400C000C0002C6F
:101CC00075B9D6FC230F00C0002C05B900C011FF68
:101CD00075B927958894D7FC230F00C000C0002C4D
:101CE00075B92795889400C0002C05B900C010FF75
:101CF00075B9132FD110122F990D00C000C0002C00
:101D000075B900C000C0002C05B900C017FF75B937
:101D100032812227889400C000C0002C75B931118F
:101D20003F0D00C0002C05B900C016FF75B908F4BE
:101D30003FEFE40FF51F00C000C0002C75B9C0FCD8
:101D4000230F00C0002C05B900C015FF75B92795F9
:101D50008894C1FC230F00C000C0002C75B92795E2
:101D6000889400C0002C05B900C014FF75B9C2FCEE
:101D7000230F2795889400C000C0002C75B9C3FCC0
:101D8000230F00C0002C05B900C013FF75B92795BB
:101D90008894C4FC230F00C000C0002C75B927959F
:101DA000889400C0002C05B900C012FF75B9C5FCAD
:101DB000230F2795889400C000C0002C75B9C6FC7D
:101DC000230F00C0002C05B900C011FF75B927957D
:101DD0008894C7FC230F00C000C0002C75B927955C
:101DE000889400C0002C05B900C010FF75B9132FEE
:101DF000C110122FF19400C000C0002C75B9F80C6E
:101E000000C000C005B900C017FF75B93181222795
:101E1000889400C000C0002C75B93111380F00C083
:101E2000002C05B900C016FF75B908F43FEF819585
:101E3000889400C000C0002C75B9E0FC230F00C0DE
:101E4000002C05B900C015FF75B927958894E1FCF1
:101E5000230F00C000C0002C75B92795889400C0DE
:101E6000002C05B900C014FF75B9E2FC230F2795BB
:101E7000889400C000C0002C75B9E3FC230F00C09B
:101E8000002C05B900C013FF75B927958894E4FCB0
:101E9000230F00C000C0002C75B92795889400C09E
:101EA000002C05B900C012FF75B9E5FC230F27957A
:101EB000889400C000C0002C75B9E6FC230F00C058
:101EC000002C05B900C011FF75B927958894E7FC6F
:101ED000230F00C000C0002C75B92795889400C05E
:101EE000002C05B900C010FF75B9132FE110122F97
:101EF0008B0D00C000C0002C75B9119709F086CE7B
:101F0000EA81FB812EE130E0DF010E946B2630E0A8
:101F100020E0A901AAE9EA9F0E0E411DFA9F400D9B
:101F2000511D11244F0F511DDC01CB01840F951F52
:101F3000A11DB11D893E43E09407A105B10508F438
:101F400034C0885E9340A109B10942E0B695A795D7
:101F5000979587954A95D1F747E0849F080E211DF4
:101F6000949F200D311D1124290F311D60919C0279
:101F700070E0860F971F820F931F409104045091C9
:101F800005046091060470910704292F3327420F3E
:101F9000531F611D711D4093040450930504609309
:101FA00006047093070480939C0278940E94BA06FA
:101FB000F201778B668BDF91CF911F910F91FF908C
:101FC000EF90DF90CF90BF90AF909F908F907F90D9
:101FD0005F904F90089581E090E00895269A0895CB
:101FE0000F931F93CF93DF931F92CDB7DEB792E08D
:101FF000909397028093980210929A0210929902FD
:1020000085E080939B0280910104909102040297E5
:1020100061F44091FC065091FD066091FE067091BE
:10202000FF068CEF96E00E94010980919702809351
:1020300010078091980280931107809199028093F4
:10204000120780919A028093130780919B028093DC
:1020500014078FEF80931F0900E117E0F80180E07B
:1020600091919E3709F05BC080931F0985E08983B9
:10207000BE016F5F7F4F80E197E00E947D058091F8
:102080009B0690919C06E0E0D8012D918D01E227FE
:10209000E80FF92FF11DE081B7E005311B07A1F72B
:1020A00081E080930D0980911F0980930E0985E0DE
:1020B00080930F09E093100980912B0990912C09CE
:1020C000DC01ED91FC910280F381E02D44E050E0D1
:1020D0006CE079E0199580912B0990912C09DC0135
:1020E000ED91FC910280F381E02D45E050E060E14C
:1020F00077E0199580912B0990912C09DC01ED91E5
:10210000FC910280F381E02D42E050E060E179E053
:1021100019950F90DF91CF911F910F9108958F5FC7
:10212000853009F09DCFA2CF2091560390914803AE
:10213000E82FF0E02C3149F4992321F0EA53FD4FC8
:1021400084910895E655FD4FFBCF2E3141F499233C
:1021500019F0EE57FD4FF4CFEC59FD4FF1CF992315
:1021600019F0EB55FD4FECCFE056FD4FE9CF8091D4
:102170005A0390915B038230910581F038F4019706
:1021800099F08091580390915903089583309105F7
:1021900041F00497B1F783E090E0089581E090E08A
:1021A000089582E090E0089590E080E008950F9314
:1021B0001F93CF93DF9300D000D0CDB7DEB78FEF62
:1021C0009FEFDC0189839A83AB83BC8310E000E03E
:1021D0001E830D83BE016B5F7F4FCE0101960E946F
:1021E0008A08BE016A5F7F4FCE0101960E948A086D
:1021F0000F5F1F4F0332110559F78EE190E09E8368
:102200008D83BE016B5F7F4FCE0101960E948A08CD
:10221000BE016A5F7F4FCE0101960E948A0885E069
:1022200090E09E838D83BE016B5F7F4FCE01019650
:102230000E948A08BE016A5F7F4FCE0101960E940C
:102240008A0869817A818B819C81609570958095DF
:10225000909526960FB6F894DEBF0FBECDBFDF91E6
:10226000CF911F910F910895089520910C04309102
:102270000D04215031092330310518F464E00C9429
:1022800043030895CF93982FC62F20915703322FE1
:102290003D7F62E0303309F46FEF9D3108F025C0D7
:1022A000E92FF0E08827E85AFE4E8F4F0C94632602
:1022B0005912751197119A119D119F11A211A41114
:1022C000A711AA11AD11B011B311B611B911BD11F9
:1022D000BC11C011C311C611C911CC11D011D31139
:1022E000D611011224123E12921120E094E6392FE9
:1022F000330F330F330F85E5732F789F070E70E090
:10230000711D1124692F6074592F507297FD2AC1D5
:10231000611116C15111D0C0872F8095972F782F4A
:1023200080E0CEC02091020290910302E0CF27EB23
:1023300094E2DDCF2FEF94EFDACF20E8FCCF2FEF40
:1023400090E0D5CF20ECFCCF2FEF95E0D0CF2FEF52
:102350009AE0CDCF2FEF9FE0CACF2FEF94E1C7CF08
:102360002FEF90E2C4CF20E89BE2C1CF2FEF90E4A3
:10237000BECF2FEF90E5BBCFC0E82FEF90E6B7CFF1
:1023800028E790E7B4CF2FEF90E8B1CF2FEF91E996
:10239000AECF2FEF90EAABCFC0E728EC9AEAA7CFF9
:1023A0002FEF94EBA4CF2FEF90ECA1CF809194026C
:1023B000882321F0803611F010929402809152030C
:1023C00090915303892B19F4253009F462E380912D
:1023D00000028F5F809300020E94432691110DC07E
:1023E00080919402811104C080E68093940202C01F
:1023F0001092940281E080930002909194022FEF5A
:1024000076CF809194028F3029F0823D19F08FE0D1
:10241000809394028091520390915303892B19F475
:10242000253009F462E3809100028F5F80930002FF
:102430000E9443269111E1CF809194028F3011F4D4
:1024400082EDD3CF8FE0D1CF809100028F5F809358
:1024500000020E94432691110DC08091940290E0E9
:1024600005966FEF70E00E944F268093940281E002
:10247000809300029091940220E839CF809152031A
:1024800090915303892B19F4303309F464E180915E
:1024900000028F5F809300020E9443269111ADCF0E
:1024A0008091940290E005966FEF70E00E944F26B5
:1024B0009CCFC92F292F1BCF95E5970F80E07BEA92
:1024C0002F3FF1F0222309F46CC0209530E0222345
:1024D00029F0229F312D112421113F5F232F2095B8
:1024E000729F070E70E0711D929F090E90E0911D82
:1024F000829F080E80E0811D1124730F930F830FBC
:10250000CF3FB9F020E0CC2321F0CC9F212D09F062
:102510002F5F222309F449C0729F070E70E0711DDE
:10252000929F090E90E0911D829F080E80E0811D10
:102530001124692F411102C0672F792FCF9108957F
:1025400051110AC09AEA399F030E30E0311D11245F
:102550008BEA831B970FE3CE80E0972F9095872F10
:1025600070E0AECF611111C051110BC0832F9AEAF8
:10257000899F080E80E0811D11249BEA981B8B5ACD
:10258000EFCF872F809590E09BCF511106C095E546
:10259000970F8BEA871B792FF6CF9AEA970F30E0D7
:1025A000F9CF8FEF9FEF7FEFABCF80E090E070E04F
:1025B000C0CF803329F0823319F041E0823009F432
:1025C00040E06FEF80E00C944211FC0180818111AA
:1025D00009C08181811106C081E09281911103C0FF
:1025E00080E0089581E0089590910402811118C05F
:1025F000911101C02E9A8EEF93E00E94E51288237C
:1026000071F040E06FEF80E00E9442116093FE03A2
:102610007093FF038093000481E08093FA03089590
:10262000911101C02E988EEF93E00E94E512811166
:10263000F6CF809150039091510385309105C1F000
:1026400050F4049789F00E94B71040E06FEF0297B2
:10265000B8F482E0D9CF8630910571F0079799F7E9
:1026600040E06FEF8CE1D0CF40E06FEF8BE1CCCF5B
:1026700040E06FEF89E1C8CF40E06FEF88E1C4CF61
:1026800081E0C2CFAF92BF92CF92DF92EF92FF92E2
:102690000F931F93CF93DF9300D0CDB7DEB75A01CE
:1026A00019821A821B82882361F18B01E1E0F0E03C
:1026B000E82EF12CD8012D918D012223F1F06F012C
:1026C000B1E0CB1AD108D501AC0DBD1D4C9144230E
:1026D000A1F030E02F5F3F4FD7010E943426A42F96
:1026E000B0E011969B01AC010E94FF25A1E0B0E093
:1026F000AC0FBD1FAC0DBD1D8C933196E430F105C0
:10270000C9F669817A818B810F900F900F90DF91CC
:10271000CF911F910F91FF90EF90DF90CF90BF90DE
:10272000AF9008956F927F928F92CF92DF92EF9247
:10273000FF920F931F93CF93DF93CDB7DEB76297CE
:102740000FB6F894DEBF0FBECDBF8C016B017A01CE
:10275000822FA801475F5F4FB8016A5F7F4F0E94D9
:1027600042133B01882ED8011C962C91C701F7FE1D
:1027700004C0882799278E199F09DA82C9829C8311
:102780008B839E838D83688A798A8A8A213049F572
:10279000CE0101960E94FC0A83E08D871F861E866B
:1027A000F7FE02C08DEF8D87D801ED91FC91008876
:1027B000F189E02DBE016F5F7F4FC80119956296C8
:1027C0000FB6F894DEBF0FBECDBFDF91CF911F9142
:1027D0000F91FF90EF90DF90CF908F907F906F9050
:1027E00008951C861B861A86198618861F82D4CFE8
:1027F000CF92DF92EF92FF920F931F93CF93DF93CD
:10280000CDB7DEB762970FB6F894DEBF0FBECDBF6F
:102810008C016B017A01822FA801475F5F4FB801DD
:102820006A5F7F4F0E9442139B01482FD8011C967C
:102830008C91DA82C982FC82EB82FE82ED82288B47
:10284000398B4A8B813009F5CE0101960E94FC0A32
:102850001D861F861E86D801ED91FC910088F189A6
:10286000E02DBE016F5F7F4FC801199562960FB6CC
:10287000F894DEBF0FBECDBFDF91CF911F910F91B6
:10288000FF90EF90DF90CF9008951C861B861A86EC
:10289000198618861F82DCCFFC018FE192E09183BC
:1028A0008083138212828FEF86838783808781875C
:1028B0008287838781E0848785871786168680E7ED
:1028C00097E1918B808B83E090E0938B828B158ACC
:1028D000148A158214828091F8039091F903892B50
:1028E00021F4F093F903E093F803A0919202B091E0
:1028F0009302109721F01596FC93EE931497F093A2
:102900009302E0939202089590E080E00895FC0124
:1029100064870895FC01848590E00895FC01868514
:1029200097850895DF92EF92FF920F931F93CF93B5
:10293000DF937C01D62EC42F14160CF4C0E0CA3BE2
:102940000CF4CAEB80910C0490910D048230910537
:1029500071F18330910519F0019709F042C00C2EF6
:10296000000CDD0B222371F06AEB7FEFC7010E94A0
:10297000A403C7010E940604A801BE01C7010E946A
:10298000D20307C0BE01C7010E94A403C7010E9471
:10299000060465E0D11001C066E0C701DF91CF9168
:1029A0001F910F91FF90EF90DF900C9443030C2E3A
:1029B000000CDD0B222359F06AEB7FEFC7010E9468
:1029C000A40370E060E0C7010E947103D5CFBE018F
:1029D000C7010E94A40370E060E0C7010E94710378
:1029E000D8CFDF91CF911F910F91FF90EF90DF90A3
:1029F00008950F931F93CF93DF93E7ECF9E080E105
:102A0000DF011D928A95E9F78091DD0991E09093AD
:102A10009C048093BE0410929D041092BF0460E059
:102A20008DE996E00E94B80AC7ECD9E007ED19E0FD
:102A300069918DE996E00E94B80A0C171D07C1F74D
:102A4000DF91CF911F910F910C947A09DF92EF9251
:102A5000FF920F931F93CF93DF9300D01F92CDB7B8
:102A6000DEB70E94D71069837A838B839C83CE0163
:102A700001967C010CEF1FE0F701D1907F01C801A6
:102A80000E94CA25D81621F06D2DC8010E94D225BA
:102A90000F5F1F4F0115F0E11F0771F70F900F90A7
:102AA0000F900F90DF91CF911F910F91FF90EF90BA
:102AB000DF9008950E948C2885ED8093BC00809162
:102AC000980490919904A0919A04B0919B04079660
:102AD000A11DB11D23E0B695A795979587952A95D9
:102AE000D1F72091BC0024FD03C0109296040895F4
:102AF000409198045091990460919A0470919B04BC
:102B0000452B462B472B69F30097A105B10541F0F2
:102B10002AE22A95F1F700C00197A109B109E1CF96
:102B2000809197040C9459091F920F920FB60F923F
:102B300011242F933F938F939F93AF93BF938091D3
:102B4000040490910504A0910604B091070430910B
:102B5000030423E0230F2D3758F50196A11DB11D65
:102B6000209303048093040490930504A093060427
:102B7000B09307048091080490910904A0910A047D
:102B8000B0910B040196A11DB11D80930804909390
:102B90000904A0930A04B0930B04BF91AF919F91D5
:102BA0008F913F912F910F900FBE0F901F9018950E
:102BB00026E8230F0296A11DB11DD2CF1F920F92BE
:102BC0000FB60F9211240BB60F922F933F934F9392
:102BD0005F936F937F938F939F93AF93BF93EF9385
:102BE000FF9380EC94E00E94D207FF91EF91BF9198
:102BF000AF919F918F917F916F915F914F913F9195
:102C00002F910F900BBE0F900FBE0F901F90189535
:102C10001F920F920FB60F9211240BB60F922F93A3
:102C20003F934F935F936F937F938F939F93AF9354
:102C3000BF93EF93FF9380EC94E00E945E07FF91B7
:102C4000EF91BF91AF919F918F917F916F915F9124
:102C50004F913F912F910F900BBE0F900FBE0F9091
:102C60001F9018951F920F920FB60F9211240BB65A
:102C70000F922F933F934F935F936F937F938F9315
:102C80009F93AF93BF93EF93FF938DE595E00E94E1
:102C9000D207FF91EF91BF91AF919F918F917F915B
:102CA0006F915F914F913F912F910F900BBE0F90BD
:102CB0000FBE0F901F9018951F920F920FB60F9294
:102CC00011240BB60F922F933F934F935F936F9303
:102CD0007F938F939F93AF93BF93EF93FF938DE574
:102CE00095E00E945E07FF91EF91BF91AF919F9198
:102CF0008F917F916F915F914F913F912F910F90A5
:102D00000BBE0F900FBE0F901F9018951F920F9241
:102D10000FB60F9211240BB60F922F933F934F9340
:102D20005F936F937F938F939F93AF93BF93EF9333
:102D3000FF938AEF95E00E94D207FF91EF91BF9138
:102D4000AF919F918F917F916F915F914F913F9143
:102D50002F910F900BBE0F900FBE0F901F901895E4
:102D60001F920F920FB60F9211240BB60F922F9352
:102D70003F934F935F936F937F938F939F93AF9303
:102D8000BF93EF93FF938AEF95E00E945E07FF9158
:102D9000EF91BF91AF919F918F917F916F915F91D3
:102DA0004F913F912F910F900BBE0F900FBE0F9040
:102DB0001F9018951F920F920FB60F9211240BB609
:102DC0000F922F933F934F935F936F937F938F93C4
:102DD0009F93AF93BF93EF93FF938091B900887F48
:102DE000803609F44DC008F040C0883209F4A9C00B
:102DF00028F5803109F49DC0C8F4882309F4FBC08C
:102E0000883009F496C0FF91EF91BF91AF919F91E7
:102E10008F917F916F915F914F913F912F910F9083
:102E20000BBE0F900FBE0F901F901895883109F4BC
:102E300088C0803241F78093940414C0803409F430
:102E40009DC040F48033B9F38833E9F6809394044D
:102E500085ECB0C0803509F485C0883509F496C08A
:102E6000883489F60E945C15CECF883909F48CC06D
:102E700038F5883729F050F4883611F0803719F684
:102E800083E0809396041092010357C0883809F4B8
:102E90007BC0803919F0803809F0B5CF80910103EB
:102EA000803208F071C0E091010381E08E0F8093C1
:102EB00001038091BB00F0E0EF51FD4F80833DC0E6
:102EC000803B39F0E0F4803A09F479C0883A09F09F
:102ED0009ACF84E0809396041092E0021092DF0271
:102EE000E0914203F091430319958091DF02811133
:102EF0000FC081E08093DF021092BF0209C0803CC6
:102F000009F4A6CF883C09F4A3CF883B09F07BCF16
:102F1000E091E00281E08E0F8093E002F0E0E15466
:102F2000FD4F80818093BB009091E0028091DF0291
:102F300029C0809171048093BB0085EC8093BC0014
:102F400062CF9091930480919204981758F5E09184
:102F5000930481E08E0F80939304F0E0EE58FB4FD2
:102F60008081E9CFE091930481E08E0F80939304F8
:102F70008091BB00F0E0EE58FB4F8083909193046A
:102F8000809192049817C8F285E8D8CFE091930415
:102F900081E08E0F809393048091BB00F0E0EE58A7
:102FA000FB4F80838091950481115CCF81E08093F9
:102FB000700484EA8093BC001092960424CF85ECC0
:102FC0008093BC001092960480910103803230F40B
:102FD000E0910103F0E0EF51FD4F10826091010399
:102FE00070E0E0914403F091450381EE92E0199581
:102FF0001092010308CF1092940434CFFC0183A5F2
:10300000882329F081E022A595A1291380E0089565
:103010004F925F926F927F92AF92BF92CF92DF9268
:10302000EF92FF920F931F93CF93DF93EC01862FC4
:103030004AE050E060E070E0488359836A837B8314
:1030400042E350E060E070E04C835D836E837F83F9
:103050004CE251E060E070E0488759876A877B87DF
:103060004AEF50E060E070E04C875D876E877F87B5
:103070008CA31DA21AAA19AA1CAA1BAA1EAA1DAAC1
:1030800018AE1FAA1AAE19AE1CAE1BAE1EAE1DAEF8
:103090005E019FE3A90EB11CD5011D921C926E0129
:1030A000B1E4CB0ED11CF601118210827E01F3E453
:1030B000EF0EF11CD7011D921C9262E00E9489065E
:1030C0000E9414076C8B7D8B8E8B9F8B8CA10E9432
:1030D000320621E0892B09F420E02AA781E088ABA1
:1030E0008CA10E94320621E0892B09F420E02EA356
:1030F0000E94140768A379A38AA39BA3EEA12FA122
:10310000E2132CC191E098A798A59923F1F048A16A
:1031100059A16AA17BA1088919892A893B89DB0108
:10312000CA01801B910BA20BB30B8C019D0148803F
:1031300059806A807B80401651066206730628F427
:10314000E9A7488B598B6A8B7B8BEFA31BA629A51C
:103150008AA52817C1F088A199A1AAA1BBA14C8971
:103160005D896E897F89841B950BA60BB70B4C81FB
:103170005D816E817F81481759076A077B0718F4C4
:103180002AA781E08BA71FA6CE010E94FE178823E5
:10319000B9F088A199A1AAA1BBA1488D598D6A8DCA
:1031A0007B8D841B950BA60BB70B4C855D856E85BF
:1031B0007F8584179507A607B70708F4D5C018AA16
:1031C00088A91BA5811131C011112DC09AA58DA10F
:1031D000981741F1488C598C6A8C7B8C8C8D9D8D15
:1031E000AE8DBF8D84199509A609B7094885598503
:1031F0006A857B85481759076A077B0708F4B7C0BB
:1032000048A159A16AA17BA144195509660977090A
:1032100081E04C845D846E847F8444155505660589
:10322000770508F480E08FA788ABCE010E94FE17D7
:103230008823B9F048A159A16AA17BA1888D998DF5
:10324000AA8DBB8D481B590B6A0B7B0B81E04C840C
:103250005D846E847F84441555056605770508F006
:1032600080E08EA71CA6112321F09AA58DA19813AA
:103270001DA68DA581111FC011111BC09AA58DA17E
:10328000981377C048A159A16AA17BA1888D998D17
:10329000AA8DBB8D481B590B6A0B7B0B81E04884C0
:1032A00059846A847B84441655066606770608F0BE
:1032B00080E08CA78DA7112391F048A059A06AA0A7
:1032C0007BA04C8A5D8A6E8A7F8ACE010E94FE179F
:1032D000882309F450C0488E598E6A8E7B8E69A867
:1032E0007AA86114710409F44BC0CE010E94FE1744
:1032F000882309F445C08BAD9CADF3011995EDA968
:10330000FEA9309739F08CA5882321F0D5018D9145
:103310009C911995EFA9F8AD309739F08EA58823C7
:1033200021F0D6018D919C911995E9ADFAAD3097B8
:10333000B9F18FA58823A1F1D7018D919C91DF91DF
:10334000CF911F910F91FF90EF90DF90CF90BF90A2
:10335000AF907F906F905F904F90199418A6688BF4
:10336000798B8A8B9B8BD0CE81E088AB29CF812F44
:103370005ACF812F9ECF4C8E5D8E6E8E7F8EAFCFBB
:10338000EBA9FCA9309709F4BACF112309F4B7CF00
:103390009AA58DA1981709F4B2CF8DAD9EADAECF91
:1033A000DF91CF911F910F91FF90EF90DF90CF9021
:1033B000BF90AF907F906F905F904F900895FC0109
:1033C000108614821582168217821186108211824D
:1033D000128213820895EF92FF920F931F93CF935F
:1033E000DF93EC017B01198218821B821A821D82F5
:1033F0001C82FB0101900020E9F731978F01061B29
:10340000170BB8016F5F7F4F90E080E00E94AB2701
:103410000097B9F0998388831B830A832C813D81AF
:10342000232B11F4FC0110821D830C83B7018881CA
:103430009981DF91CF911F910F91FF90EF900C94A4
:103440009A2888819981009711F00E942227198279
:1034500018821D821C821B821A82DF91CF911F91DC
:103460000F91FF90EF9008951092C3041092C20440
:1034700048EE53E060E070E04093C4045093C5040C
:103480006093C6047093C7048FE592E09093C104E3
:103490008093C00425E331E03093CD042093CC0425
:1034A00024E331E03093CF042093CE0420E331E0D5
:1034B0003093D1042093D00421E331E03093D3043E
:1034C0002093D20422E331E03093D5042093D40436
:1034D00026E331E03093D7042093D6041092D90428
:1034E0001092DA041092DB041092DC041092600552
:1034F00010925F05409361055093620560936305E8
:103500007093640590935E0580935D052DEC30E02B
:1035100030936A05209369052CEC30E030936C05FC
:1035200020936B0528EC30E030936E0520936D05F9
:1035300029EC30E03093700520936F052AEC30E0E1
:1035400030937205209371052EEC30E030937405B2
:1035500020937305109276051092770510927805E6
:10356000109279051092FD051092FC054093FE051E
:103570005093FF0560930006709301069093FB053E
:103580008093FA0585EC90E09093070680930606F9
:1035900084EC90E0909309068093080680EC90E01C
:1035A00090930B0680930A0681EC90E090930D06B1
:1035B00080930C0682EC90E090930F0680930E06A9
:1035C00086EC90E0909311068093100610921306FB
:1035D0001092140610921506109216068BE980932D
:1035E000970688E080939A0680E091E09093990690
:1035F000809398060E94862690939C0680939B0653
:1036000030E020E0809198069091990628173907BC
:10361000E0F4C9016091970670E048E050E0FC01D9
:10362000E078FF27880F991FEF2B11F08627972747
:1036300041505109A1F7E0919B06F0919C06E20FE1
:10364000F31F80832F5F3F4FDDCF1092A0061092B3
:103650009F0688EE93E0A0E0B0E08093A1069093EF
:10366000A206A093A306B093A40681E792E09093EC
:103670009E0680939D066FE772E082E19CE00E94C7
:10368000EB1960E972E08CE09CE00E94EB1960E9C4
:1036900072E086E09CE00E94EB198CEF9BE00E94B8
:1036A000DF1982EF9BE00E94DF1988EE9BE00E9409
:1036B000DF198EED9BE00E94DF1984ED9BE00E94F4
:1036C000DF198AEC9BE00E94DF1980EC9BE00E94EE
:1036D000DF1962E08BE79BE00E94081863E086E355
:1036E0009BE00E94081864E081EF9AE00E940818AD
:1036F00066E38CEA9AE00E9408186CE387E69AE099
:103700000E9408186DE382E29AE00E94081888E19E
:103710009AE00E94DF198EE09AE00E94DF1984E0AF
:103720009AE00E94DF198AEF99E00E94DF198CEE7F
:1037300099E00E94DF1982EE99E00E94DF198DEB7B
:1037400099E00E94DF1983EB99E00E94DF1989EA72
:1037500099E00E94DF198FE999E00E94DF1985E95D
:1037600099E00E94DF198BE899E00E94DF1981E857
:1037700099E00E94DF1987E799E00E94DF198DE642
:1037800099E00E94DF1983E699E00E94DF1989E53C
:1037900099E00E94DF198FE499E00E94DF1985E427
:1037A00099E00E94DF198BE399E00E94DF1981E321
:1037B00099E00E94DF198EE780930C0910920D09A1
:1037C00010920E0910920F091092100981E880934F
:1037D00011091092120910921309109215091092F2
:1037E00014091092170910921609109218091092D4
:1037F0001B0910921C0910921D0910921E091092AB
:103800001F0910922009109221091092220910928A
:103810002309109224091092290910922A0986E09E
:1038200097E00E94DF198CEF96E00E94DF1982EF8B
:1038300096E00E94DF1988EE96E00E94DF198EED77
:1038400096E00E94DF1984ED96E00E94DF198AEC71
:1038500096E00E94DF1980EC96E00E94DF1986EB6B
:1038600096E00E94DF198CEA96E00E94DF198091B1
:10387000AB062DED3FEF281B310987FD33954091B5
:103880000502429FC001439F900D11246CE97FEF18
:103890000E944F2663526093AA061092A9068FEFEA
:1038A0008093180C10921A0C1092190C1092240C80
:1038B0001092230C8FEF9FEFDC0180931F0C9093ED
:1038C000200CA093210CB093220C10921B0C109290
:1038D0001C0C10921D0C10921E0C0895CF93DF93B8
:1038E000CDB7DEB7A9970FB6F894DEBF0FBECDBF38
:1038F000789484B5826084BD84B5816084BD85B5CB
:10390000826085BD85B5816085BD80916E008160D6
:1039100080936E001092810080918100826080937C
:10392000810080918100816080938100809180007E
:103930008160809380008091B10084608093B100A9
:103940008091B00081608093B0008091910082608E
:10395000809391008091910081608093910080918B
:1039600090008160809390008091A100826080939C
:10397000A1008091A10081608093A1008091A000AE
:1039800081608093A0008091210182608093210159
:1039900080912101816080932101809120018160CB
:1039A0008093200180917A00846080937A008091D6
:1039B0007A00826080937A0080917A00816080939F
:1039C0007A0080917A00806880937A001092C1001A
:1039D00040E855E260E070E08AEF95E00E94D60290
:1039E00040E855E260E070E08DE595E00E94D60287
:1039F0008DE595E090932C0980932B0982E390E06C
:103A0000A0E0B0E080932D0990932E09A0932F0998
:103A1000B09330092AEF35E030931A092093190941
:103A200010921B098093250990932609A0932709DA
:103A3000B093280940E051EE60E070E080EC94E043
:103A40000E94D6021092690410926A0410926B04CC
:103A500080EC94E090930F0480930E04109266041F
:103A60001092670410926804E0E1F4E08CE294E0C4
:103A70002FEF3FEF219331938E179F07D9F7809156
:103A80000E0490910F04DC01ED91FC910084F1850E
:103A9000E02D1995892B61F080910E0490910F040F
:103AA000DC01ED91FC910284F385E02D1995E7CFBF
:103AB0000E94140768517C4F6B01F12CE12C40EF00
:103AC000942E5AEAA52E65E0B62E01E115E50E9476
:103AD000610480916B0481111FC00E9414076C1552
:103AE0007D058E059F05C0F49982AA82BB820C8356
:103AF0001D8380910E0490910F04DC01ED91FC91E7
:103B00000280F381E02D45E050E0BE016F5F7F4F02
:103B100019950E94DF06DBCF0E94610480916B043F
:103B2000882309F476C38091630490916404892BFF
:103B300009F46CC382E090E090930D0480930C0430
:103B40008AE08093AB062091050233ED3203C00179
:103B500011246CE97FEF0E944F2663526093AA06FE
:103B60000E94610480EF89838AEA8A8385E08B83DF
:103B700083E18C8385E58D8380910E0490910F0401
:103B8000DC01ED91FC910280F381E02D45E050E0F5
:103B9000BE016F5F7F4F199580918100887F84609F
:103BA0008093810061E08BE00E94890680911A0376
:103BB000811111C082E093E00E944C14109219030D
:103BC0001092180383E392E090930303809302031F
:103BD00081E080931A0382E093E00E94910D82E6D7
:103BE00093E0909305038093040382E390E0909325
:103BF0001103809310038FEF8093080380EB809371
:103C0000090380EF80930A0310921B0C10921C0C86
:103C100010921D0C10921E0C80913A03811111C05C
:103C200082E293E00E944C14109239031092380300
:103C300089E492E0909323038093220381E08093B0
:103C40003A0382E293E00E94EE0F8BEF93E09093B1
:103C500025038093240382E090E0909331038093C6
:103C6000300380911B0C90911C0CA0911D0CB09105
:103C70001E0C843CE9E09E07A105B10520F484EC0C
:103C800099E0A0E0B0E080931B0C90931C0CA093F3
:103C90001D0CB0931E0C8FEF8093280380EB809354
:103CA000290380EF80932A0340E06FEF81E00E94B8
:103CB00042116093FB037093FC038093FD0340E08B
:103CC0006FEF81E00E9442116093FE037093FF0347
:103CD0008093000446E950E060E070E08EED9BE0E8
:103CE0000E94010910924C0310924B0310924E0354
:103CF00010924D0310924A031092490381E090E024
:103D0000909361038093600310925F0310925E03AF
:103D100010925D0310925C0310925B0310925A03A1
:103D200082E090E0909359038093580385E080935C
:103D3000570380E297E09093230B8093220B10921D
:103D40002D0B10922C0B86E297E09093DE0A809365
:103D5000DD0A1092E80A1092E70A80910101877F3C
:103D6000809301018091020188608093020180911B
:103D700001018F7E80930101809102018061809317
:103D8000020110924703109246030E943B098CE205
:103D900097E090934303809342038DE297E09093E2
:103DA0004503809344038CE08093B80000E011E069
:103DB000FF24F394F0929C041093BE0410929D048F
:103DC0001092BF040E947A09811101C00F5F1F5F2A
:103DD0001F3781F7002309F401C38CE18093560358
:103DE00080E78093DD0910924703109246031092FA
:103DF0009D041092BF040E943B098CE297E09093CF
:103E00004303809342038DE297E0909345038093B0
:103E1000440381E20E94E70A81E80E94E70A80EAFF
:103E20000E94E70A8FEE0E94E70A0E94F91480912F
:103E3000010180628093010180910101806480937F
:103E40000101089A099A0A9A61E08CE00E948906A9
:103E500061E08DE00E948906579A109255031092F6
:103E60005403109253031092520340E050E0BA0101
:103E70008FE999E00E9401091092510310925003BA
:103E80000E94722525E030E040E050E00E94E025ED
:103E900060934F038CEF9FE00E94CA258EA38DEFA5
:103EA0009FE00E94CA258FA38EEF9FE00E94CA2543
:103EB00088A78FEF9FE00E94CA2589A70E94D7108C
:103EC0000EA11FA128A539A56017710782079307C6
:103ED00009F0D5C28E010F5F1F4FF12CE12CC701F5
:103EE0000E94CA25D8018D938D01BFEFEB1AFB0A02
:103EF000EEE1EE16F10499F789818230B9F481E0A0
:103F000090E090934E0380934D038A81823031F488
:103F100082E090E090934E0380934D0380914D0397
:103F200090914E0390934A03809349038B859FEFB2
:103F3000980F923030F4823009F059C281E08093BA
:103F400048038C859FEF980F933050F4823009F42A
:103F500051C2833009F459C210925F0310925E037C
:103F60008D859FEF980F933050F4823009F456C23C
:103F7000833009F45AC210925D0310925C038F855E
:103F80009FEF980F953060F4833009F460C208F019
:103F90004FC2823009F454C210925B0310925A034C
:103FA0008C899FEF980F9C3358F448EE53E0849F20
:103FB0009001859F300D1124309307022093060253
:103FC0008D899FEF980F9C3358F448EE53E0849FFF
:103FD0009001859F300D112430930902209308022F
:103FE0008E899FEF980F9C3358F448EE53E0849FDE
:103FF0009001859F300D112430930B0220930A020B
:104000008F899FEF980F9C3358F448EE53E0849FBC
:104010009001859F300D112430930D0220930C02E6
:10402000888D9FEF980F9C3358F448EE53E0849F9F
:104030009001859F300D112430930F0220930E02C2
:10404000898D9FEF980F923030F4823009F005C2CD
:1040500081E0809310028A8D9FEF980F923030F4A8
:10406000823009F0FDC181E08093F6098B8D9FEFCE
:10407000980F923030F4823009F0F5C181E08093DE
:10408000F7098C8D9FEF980F923030F4823009F051
:10409000EDC181E08093F8098D8D9FEF980F9230EC
:1040A00030F4823009F0E5C181E08093F9097E01A6
:1040B000FFE1EF0EF11C0EE110E0C8010E94CA25DD
:1040C000D7018D937D010F5F1F4F03321105A9F7B3
:1040D0008F8D9FEF980F9E3F10F48093030288A16D
:1040E0009FEF980F9E3F10F48093020289A18230C7
:1040F00031F0853021F0803311F0823311F4809358
:1041000057038AA18C3111F08E3159F4809301024A
:10411000809156038D7F8C3121F480910102809330
:1041200056038BA19FEF980F923030F4823009F044
:10413000A3C181E08093040280910C0490910D044E
:104140000197039738F48091AA06082E000C990B6A
:104150000E943504809156038D7F8C3109F0ACC1EB
:104160000E94F914809102018F7D80930201809159
:1041700002018F7B809302011098119880E00E94C9
:10418000F41280910402882309F4B5C18DE00E94E5
:104190003206019741F061E08DE00E94890661E0FE
:1041A0008DE00E945B068BEF93E00E94E51288236E
:1041B00071F040E06FEF80E00E9442116093FB03DA
:1041C0007093FC038093FD0381E08093FA031092C7
:1041D000D2061092D30680915703803309F45FC250
:1041E000823309F065C282E30E94D9126093CE0344
:1041F0007093CF038093D00382E30E94D91260931F
:10420000D1037093D2038093D30352C281E090E034
:1042100093CC8AEB9FEF0E94350420EFE22EE982D7
:104220003AEAF32EFA8205E00B8384E08C8315E5ED
:104230001D8380910E0490910F04DC01ED91FC919F
:104240000280F381E02D45E050E0BE016F5F7F4FBB
:104250001995E982FA820B8381E08C831D8380911A
:104260000E0490910F04DC01ED91FC910280F3812A
:10427000E02D45E050E0BE016F5F7F4F1995E98268
:10428000FA820B8382E08C831D8380910E049091CF
:104290000F04DC01ED91FC910280F381E02D45E0FB
:1042A00050E0BE016F5F7F4F19950E94DF060E94AC
:1042B000610480916904882309F467C0ACE4B4E028
:1042C000FE013196CE0145962D912193E817F9070D
:1042D000D9F70E94610480916A0481110E946104EF
:1042E00080EFF82EFF8E0AEA08A387E089A38CE00E
:1042F0008AA31BA21CA215E51DA380910E04909118
:104300000F04DC01ED91FC910280F381E02D47E088
:1043100050E0BE01615E7F4F1995FF8E08A396E0C5
:10432000E92EE9A289E08AA381E08BA31CA38091F6
:104330000E0490910F04DC01ED91FC910280F38159
:10434000E02D46E050E0BE01615E7F4F1995FF8E83
:1043500008A3E9A28EE08AA31BA21CA380910E04ED
:1043600090910F04DC01ED91FC910280F381E02D2E
:1043700046E050E0BE01615E7F4F199583E090E01A
:1043800090930D0480930C0407CC10920D041092AE
:104390000C0480EC94E00E944108E091D204F0917A
:1043A000D30480818F7E8083E091D204F091D30486
:1043B0008081877F8083E091D204F091D304808153
:1043C0008F778083E091D204F091D30480818F7D38
:1043D00080838091DA048093D904DECB85E08093DA
:1043E0005603819A829A839A849A859A20CD109254
:1043F0004803A7CD109261031092600381E090E022
:1044000090935F0380935E03ABCD81E090E0909347
:1044100061038093600382E090E0F2CF81E090E05E
:1044200090935D0380935C03AACD82E090E0F8CF87
:10443000843081F0853009F0AFCD84E090E002C097
:1044400081E090E090935B0380935A03A9CD82E0D2
:1044500090E0F8CF83E090E0F5CF10921002FBCD12
:104460001092F60903CE1092F7090BCE1092F809BC
:1044700013CE1092F9091BCE109204025DCE10E00B
:1044800000E020E04091A90660E08FE591E00E9405
:104490009214C8010E94CA258F3F21F06FEFC80116
:1044A0000E94D2250F5F1F4F0E31110591F70E9418
:1044B00026150E94261540CE84E00E94941061E0EB
:1044C0000E945B0683E00E94941061E00E945B06FC
:1044D00082E00E94941061E00E945B0681E00E94ED
:1044E000941061E00E945B0680E00E94941061E0FD
:1044F0000E945B0637CEE2E2F3E0E4910FEF10E0BA
:104500000E1B110961E08DE00E948906011511055D
:1045100029F460E08DE00E945B0659CE0F3F110543
:1045200011F461E0F7CFE9E0F5E0E491E150E23128
:1045300008F0B0C0F0E08827EF55FD4D8F4F0C9488
:104540006326B322B822BD22C722D1224A23DB220E
:10455000E322EB22F522FF220923182322234A23F8
:104560002C233623402384B5806884BD07BD2FCE1D
:1045700084B5806284BD08BD2ACE809180008068A9
:1045800080938000109389000093880020CE809152
:10459000800080628093800010938B0000938A00DB
:1045A00016CE8091800088608093800010938D00EB
:1045B00000938C000CCE8091B00080688093B00096
:1045C0000093B30004CE8091B00080628093B0006D
:1045D0000093B400FCCD809190008068809390009F
:1045E0001093990000939800F2CD80919000806222
:1045F0008093900010939B0000939A00E8CD8091E7
:10460000900088608093900010939D0000939C0020
:10461000DECD8091A00080688093A0008091A000F2
:104620008F7B8093A0001093A9000093A800CFCDAA
:104630008091A00080628093A0001093AB00009353
:10464000AA00C5CD8091A00088608093A00010933F
:10465000AD000093AC00BBCD8091200180688093B9
:1046600020011093290100932801B1CD80912001F0
:1046700080628093200110932B0100932A01A7CD23
:104680008091200188608093200110932D01009378
:104690002C019DCD003811050CF043CF3ACF80E3BB
:1046A0000E94D912609386037093870380938803D6
:1046B000129840E65AEE60E070E08AEC96E00E94C4
:1046C000010940E050E0BA0188EE96E00E9401093D
:1046D00080914D0390914E030197029760F01092E4
:1046E0004C0310924B0310924E0310924D03109204
:1046F0004A031092490320914D0330914E0380915B
:104700004B0390914C038130910509F01CC1211598
:10471000310509F055C010924A0310924903909355
:104720004E0380934D038091500390915103892B48
:1047300009F46BC0109251031092500389E00E945B
:10474000F00F80915203909153038630910509F444
:1047500047C00897029708F443C086E090E00E94A3
:10476000351180E390E00E94351185E490E00E94CD
:10477000351186E490E00E9435118CE290E00E94B1
:1047800035118EE390E00E94351180915003909195
:1047900051038330910509F4CBC0B8F48130910501
:1047A00009F4B4C0029709F4BAC010E000E020E0B8
:1047B0004091A90660E086E090E00E94921408C053
:1047C00030934A0320934903AECF0597029768F7C9
:1047D00045E050E060E070E085E999E00E94010961
:1047E00080910C0490910D040197029750F48091F0
:1047F000500390915103039709F0A3C080E00E94F9
:104800009E05109243091092440980915E03909195
:104810005F038130910509F4C2C0029709F0B3C06B
:1048200081E090E0909361038093600344EF51E056
:1048300060E070E08CEF9BE00E94010943E050E0F3
:1048400060E070E088EE9BE00E94010940E050E0EB
:10485000BA0186E097E00E94010981E090E0909320
:10486000020480930104809101049091020481303C
:10487000910509F499C0029709F4BBC08091F00B2F
:10488000882309F440C088EE9BE00E94D608882364
:10489000D1F18091F8039091F9030E941A0380915D
:1048A000FA03882341F180910402811106C08091AE
:1048B0000104909102040197E1F48091F803909132
:1048C000F903009739F0FC01248135812115310568
:1048D00009F0C9010E941A03809101049091020419
:1048E000019739F48EEF93E00E94E512811101C027
:1048F0002E9A1092FA0343E050E060E070E088EEF8
:104900009BE00E9401090E946108ADCF10E000E029
:1049100020E04091A90660E085E490E04ECF10E0F1
:1049200000E020E04091A90660E080E390E045CF00
:1049300010E000E020E04091A90660E086E490E00D
:104940003CCF81E05CCF8091490390914A032817C6
:10495000390709F45ACF8130910581F082309105F1
:1049600069F010924E0310924D0380914D03909187
:104970004E0390934A038093490347CF90934E038D
:1049800080934D03F2CF80914B0390914C0301979C
:1049900009F446CF0E94B710029708F041CF109259
:1049A00061031092600342CF80910E07882309F4BF
:1049B00065CF86E097E00E94D608882309F45ECF91
:1049C0004EEE52E060E070E086E097E00E94010960
:1049D0008EEF93E00E94E512882339F080E00E9478
:1049E000F4124F9904C05F9A49CF81E0F8CF5F98E5
:1049F00045CF80910407882309F440CF8CEF96E0DF
:104A00000E94D608882309F439CF4091FC065091C2
:104A1000FD066091FE067091FF068CEF96E00E9405
:104A200001092CCFFC0180819181009711F00C9439
:104A30002227089586E09CE00E9412258CE09CE0ED
:104A40000E94122582E19CE00C9412258F929F9285
:104A5000AF92BF92CF92DF92EF92FF92CF93DF930C
:104A6000EC01688179818A819B81611571058105DD
:104A7000910521F464E279ED8BE597E02DE133EFC8
:104A800041E050E00E94E02549015A019B01AC0140
:104A9000A7EAB1E40E94FF256B017C01ACEEB4EF04
:104AA000A50194010E940D26C60ED71EE81EF91E10
:104AB000F7FE06C081E0C81AD108E10880E8F80ACC
:104AC000C882D982EA82FB82C701B6019F77DF9153
:104AD000CF91FF90EF90DF90CF90BF90AF909F90DD
:104AE0008F9008958F929F92AF92BF92CF92DF9254
:104AF000EF92FF9260911102709112028091130265
:104B000090911402611571058105910521F464E20B
:104B100079ED8BE597E02DE133EF41E050E00E9425
:104B2000E02549015A019B01AC01A7EAB1E40E94CA
:104B3000FF256B017C01ACEEB4EFA50194010E944E
:104B40000D26C60ED71EE81EF91EF7FE06C081E030
:104B5000C81AD108E10880E8F80AC0921102D09280
:104B60001202E0921302F0921402C701B6019F777D
:104B7000FF90EF90DF90CF90BF90AF909F908F907D
:104B80000895609311027093120280931302909320
:104B900014020895F999FECF92BD81BDF89A992724
:104BA00080B50895262FF999FECF1FBA92BD81BD19
:104BB00020BD0FB6F894FA9AF99A0FBE019608959F
:104BC000052E97FB1EF400940E94F72557FD07D091
:104BD0000E94122607FC03D04EF40C94F725509542
:104BE0004095309521953F4F4F4F5F4F08959095D9
:104BF0008095709561957F4F8F4F9F4F08950E94CC
:104C00003426A59F900DB49F900DA49F800D911DFB
:104C100011240895B7FF0C94FF250E94FF25821BE5
:104C2000930B0895A1E21A2EAA1BBB1BFD010DC018
:104C3000AA1FBB1FEE1FFF1FA217B307E407F5074C
:104C400020F0A21BB30BE40BF50B661F771F881F28
:104C5000991F1A9469F760957095809590959B01BE
:104C6000AC01BD01CF010895A29FB001B39FC00167
:104C7000A39F700D811D1124911DB29F700D811D88
:104C80001124911D0895991B79E004C0991F96176E
:104C900008F0961B881F7A95C9F78095089597FBB1
:104CA000072E16F4009407D077FD09D00E947226D3
:104CB00007FC05D03EF4909581959F4F089570951F
:104CC00061957F4F0895EE0FFF1F881F8BBF0790E0
:104CD000F691E02D19940E943426B7FF0895821BA7
:104CE000930B0895AA1BBB1B51E107C0AA1FBB1F52
:104CF000A617B70710F0A61BB70B881F991F5A9568
:104D0000A9F780959095BC01CD0108950F931F934D
:104D1000CF93DF938230910510F482E090E0E09130
:104D2000270CF091280C30E020E0B0E0A0E03097B4
:104D300099F42115310509F44AC0281B390B243098
:104D40003105D8F58A819B816115710589F1FB01D7
:104D500093838283FE0111C04081518102811381BE
:104D600048175907E0F04817590799F4109761F070
:104D700012960C93129713961C933296CF01DF91E3
:104D8000CF911F910F9108950093270C1093280C39
:104D9000F4CF2115310551F04217530738F0A9011E
:104DA000DB019A01BD01DF01F801C1CFEF01F9CFAD
:104DB0009093280C8093270CCDCFFE01E20FF31FB8
:104DC000819391932250310939832883D7CF209141
:104DD000250C3091260C232B41F4209117023091A1
:104DE00018023093260C2093250C20911502309147
:104DF00016022115310541F42DB73EB74091190235
:104E000050911A02241B350BE091250CF091260CD1
:104E1000E217F307A0F42E1B3F0B2817390778F091
:104E2000AC014E5F5F4F2417350748F04E0F5F1FF0
:104E30005093260C4093250C819391939FCFF0E0E3
:104E4000E0E09CCFCF93DF930097E9F0FC0132972D
:104E500013821282A091270CB091280CED0130E052
:104E600020E01097A1F420813181820F931F2091BF
:104E7000250C3091260C2817390709F061C0F093F2
:104E8000260CE093250CDF91CF910895EA01CE170F
:104E9000DF07E8F54A815B819E0141155105B1F7B5
:104EA000E901FB83EA8349915991C40FD51FEC179F
:104EB000FD0761F4808191810296840F951FE901BD
:104EC00099838883828193819B838A83F0E0E0E0E9
:104ED00012968D919C9113970097B9F52D913C9165
:104EE0001197CD010296820F931F2091250C3091CE
:104EF000260C2817390739F6309751F51092280CEF
:104F00001092270CB093260CA093250CBCCFD38312
:104F1000C28340815181840F951FC817D90761F45E
:104F20004E5F5F4F88819981480F591F518340839D
:104F30008A819B81938382832115310509F0B0CF4B
:104F4000F093280CE093270C9ECFFD01DC01C0CF2D
:104F500013821282D7CF4F925F926F927F928F927D
:104F60009F92AF92BF92CF92DF92EF92FF920F93F8
:104F70001F93CF93DF938C01009799F4CB01DF91BE
:104F8000CF911F910F91FF90EF90DF90CF90BF9046
:104F9000AF909F908F907F906F905F904F900C9408
:104FA0008626FC01E60FF71F9C0122503109E2170B
:104FB000F30708F4AEC0D901CD91DC911197C61763
:104FC000D70720F1C530D10578F0CE0104978617B8
:104FD000970750F0C61BD70B2297C193D1936D93BF
:104FE0007C93CF010E942227C801DF91CF911F91AE
:104FF0000F91FF90EF90DF90CF90BF90AF909F9078
:105000008F907F906F905F904F9008955B01AC1AE6
:10501000BD0A4C018C0E9D1EA091270CB091280C4E
:10502000512C412CF12CE12C109731F58091250C5D
:105030009091260C8815990509F05CC04616570614
:1050400008F058C08091150290911602009741F423
:105050008DB79EB74091190250911A02841B950B8F
:10506000E817F90708F055C0F093260CE093250CDB
:10507000F90171836083B8CF8D919C91119712963D
:105080006C90129713967C901397A815B90559F553
:105090006C0142E0C40ED11CCA14DB0420F1AC0147
:1050A0004A195B09DA011296159780F062827382C1
:1050B00051834083D9016D937C93E114F10471F025
:1050C000D7011396FC93EE9312978ECF22968C0FF6
:1050D0009D1FF90191838083F301EFCFF093280C9A
:1050E000E093270C81CF4816590608F42C017D0166
:1050F000D3019ACFCB010E9486267C01009749F00C
:10510000AE01B8010E949128C8010E9422278701A0
:105110006BCF10E000E068CF81E090E0F8940C9451
:10512000A128FB01DC0102C001900D9241505040CA
:10513000D8F70895FB01DC0101900D920020E1F702
:10514000089512E0C2EAD2E000E006C0802FFE011E
:105150000E9463262196011DC33AD10780E008070B
:06516000A9F7F894FFCF4F
:10516600011CFEC801643075B888409C50C360EAD3
:1051760001010000000000290C8000000000005A18
:10518600155A155A158E14EB0F8A148714841400B9
:10519600000000F8139213910D8E14EB0F8A1487FA
:1051A600142E07390B00000000F8139213EE0F8E31
:1051B60014EB0F8A1487142E07930D00000000F4D9
:1051C60007310777074108A80786079A07000000F6
:1051D60000B80A8B0AF90A610A840A710A620A5639
:1051E600365F323032353037313331303130323666
:0251F6000000B7
:00000001FF
