:100000000C9432040C9463040C9463040C94630405
:100010000C9463040C9463040C9463040C946304C4
:100020000C9463040C9463040C9463040C946304B4
:100030000C9463040C9463040C9463040C946304A4
:100040000C9463040C9463040C9463040C94630494
:100050000C9463040C9463040C9463040C9428863D
:100060000C9463040C947C870C9452870C94630466
:100070000C9463040C9463040C9463040C94630464
:100080000C9463040C9463040C9463040C94630454
:100090000C9428870C94FE860C9463040C94A68719
:1000A0000C9463040C9463040C9463040C94630434
:1000B0000C9463040C9463040C9463040C94630424
:1000C0000C9463040C9463040C9463040C94630414
:1000D0000C9463040C9463040C94D4860C94AA8648
:1000E0000C9463040C94D77F0C94667C0C94E956B2
:1000F0000C94A3380C9438460C94597C0C945F5C97
:100100000C9443580C94D3750C94C0620C94355DD8
:100110000C9449580C94445A0C9421050C94F87F83
:100120000C94DA5F0C94A5200C94492A0C943B465D
:100130000C94B4750C94517C0C94EE7F0C94F28466
:100140000C94707C0C94537C0C94B75C0C9411113F
:100150000C9455520C94F6670C94A9200C941177CA
:100160000C9482540C94CD5C0C94525E0C94C55B40
:100170000C944B5B0C94535D0C94E1650C940A80D9
:100180000C94C5750C94D71E0C9490540C94AF5BD2
:100190000C944F520C94F42C0C94DE560C948A5D03
:1001A0000C944B760C94A4640C944B370C94F50689
:1001B0000C94F8770C944E370C94105E0C946A7C77
:1001C0000C94CF770C9493110C94B1230C94687C0D
:1001D0000C94CE5D0C948F560C943A640C94577C1E
:1001E0000C94DD750C9425780C94B5060C94F95C90
:1001F0000C94474E0C94F2590C94C7570C94782DDC
:100200000C94875B0C94C9570C94B74E0C94762DC4
:100210000C94A3760C944E760C94CA950C94747C32
:100220000C9405640C94A0590C9459090C94E05E4C
:100230000C94447C0C94D9750C94811E0C94413719
:100240000C94A8560C945E770C943C5E0C94497602
:100250000C94FF1C0C94417C0C94E6620C9430804E
:100260000C94CF570C9467800C94D6550C948A2A22
:100270000C94CB570C9453800C9426800C94EB5424
:100280000C9448460C94F15B0C9437570C945866C8
:100290000C9431460C94E6560C94727C0C94B85D28
:1002A0000C94E35A0C9495680C9412200C94647C82
:1002B0000C942A2B0C94B8660C9476590C94425FDB
:1002C0000C9457670C94E1750C94A45A0C94335C0D
:1002D0000C9446580C9423790C94C17C0C94D984CA
:1002E0000C942D5B0C94FD2A0C94C7620C9459520B
:1002F0000C947A4E0C942B050C947A5A0C94911110
:100300000C94ED2C0C944C580C948D110C947B5641
:100310000C94A02B0C94287C0C9485560C948B5C2C
:100320000C94EC060C941C800C94CE770C94718089
:100330000C9494780C9420630C943A7C0C94EB7598
:100340000C9424050C94EF580C9436850C948F1162
:100350000C94742D0C94AC750C94D9640C94565672
:100360000C94607C0C944E4E0C94F5330C94947663
:100370000C94495C0C94CA620C94C4470C94C55705
:100380000C947F590C94A15C0C94F1770C94C9687F
:100390000C94FE680C9422850C94CB750C94075C2D
:1003A0000C94264E0C9406520C94AD650C94E736D2
:1003B0000C9454780C94C1750C94CC4E0C94175D2D
:1003C0000C946A850C9483660C94404E0C94D21E57
:1003D0000C94E2560C94CD540C94AE540C94F1331E
:1003E0000C940E650C94DA7C0C94B8750C94E22293
:1003F0000C9495590C94BB750C94A7200C948E4EBC
:100400000C94CE5A0C94C5760C94862B0C94AF2386
:100410000C942F7C0C941C5F0C943E460C94E04191
:100420000C94C2580C94ED660C94FC840C94F65E0B
:100430000C94D9290C94557C0C94367C0C94705EE9
:100440000C9460680C944D7C0C941B2A0C94265ED2
:100450000C9408820C9453520C944B7C0C94E675CB
:100460000C940B200C94C9540C94B0750C94E35C60
:100470000C94D1570C9431580C944A760C9497787C
:100480000C9412800C94A24E0C94C12B0C944257E5
:100490000C9443650C94477C0C9467530C944F7CEC
:1004A0000C948E5E0C94AD200C943F800C94C1672C
:1004B0000C9495110C94E0620C94A6750C94DF7F5B
:1004C0000C94AC290C94BE470C94A25D0C942705A7
:1004D0000C948A590C94CD570C947A2D0C9402806C
:1004E0000C94572B0C94D1540C941B5A0C948C677D
:1004F0000C9441460C94554E0C9478650C947058AD
:100500000C94237C0C941D5C0C948E5F0C94AC5E5C
:100510000C9449590C94721E0C94AB200C94B52B7E
:100520000C94DE770C94685F0C948F630C94E362F8
:100530000C94A7230C94DA560C9457520C94E7753C
:100540000C942B680C94AD230C943D7C0C949E7CF5
:100550000C944A570C94C62A0C94B5570C94C15667
:100560000C94C4630C946F640C9416660C94995BA1
:100570000C946B560C940F5B0C94E47F0C94B77640
:100580000C94CF750C9449800C9495580C94722D52
:100590000C94FA5D0C94DD620C947C1E0C94CA5E83
:1005A0000C94E45D0C9451520C94DD440C9440582E
:1005B0000C9404340C94755C0C945D800C94B95AC2
:1005C0000C94F95A0C9489790C9422670C94497C08
:1005D0000C948B110C94715D0C941C590C94C9599A
:1005E0000C9472560C94F2290C948F5A0C94415628
:1005F0000C9402850C94655A0C94A9230C94B45F56
:100600000C94B2780C94AB230C94961E0C94695BFA
:100610000C94BE060C9452630C94DB5B00060C1227
:10062000181D00040B10161B4505152535443424F0
:1006300014044333231303021222324241312111A5
:1006400001001020304040302010000111213141C4
:100650004232221202031323334304142434443558
:10066000251505453738393A3B3B3A3938370010BC
:1006700020300111213102122232031323330414DA
:100680002434051525350616263636261606352554
:1006900015053424140433231303322212023121AA
:1006A00011013020100000191830011A172F021BF9
:1006B000162E031C152D041D142C051E132B061FAE
:1006C000122A072011290821102809220F270A239E
:1006D0000E260B240D25000000006410B71DC82055
:1006E0006E3BAC30D9269041DC76F4516B6B58618F
:1006F000B24D3C7105502083B8ED44930FF0E8A350
:10070000D6D68CB361CBB0C2649BD4D2D38678E208
:100710000AA01CF2BDBD00002100240027002A0011
:100720002D003000330001010000040107010A011F
:1007300000002200250028002B002E00310034008C
:1007400002010000050108010B0100002000230048
:10075000260029002C002F003200000100000301B8
:100760000601090105050505070508080808020234
:1007700002020A0A0808040404040101010101013B
:1007800001010303030303030303040707070C0C1E
:100790000C0C0C0C0C0C02020202060606060606E5
:1007A00006060B0B0B0B0B0B0B0B0102102020088A
:1007B00008102040102040800201020108040201BC
:1007C000010204081020408080402010080402012B
:1007D0008004020180402010080402010804020184
:1007E000010204081020408001020408102040800B
:1007F00000000A0B02090C0D0E080703040100009B
:1008000000000000000000000000000000000000E8
:1008100000000000000000000000000012111000A5
:1008200000000000000000000000000000000000C8
:100830000000000000004552524F523A204E6F20F7
:1008400063616C6C6261636B20617661696C61628B
:100850006C6520666F72207061636B65742049441B
:100860002000CA9511241FBECFEFD1E2DEBFCDBF5D
:1008700000E00CBF13E0A0E0B2E0E6E9FDE301E038
:100880000BBF02C007900D92A433B107D9F72DE03A
:10089000A4E3B3E001C01D92A336B207E1F714E070
:1008A000C2E3D4E000E006C021970109802FFE01D9
:1008B0000E94899DC133D10780E00807A9F70E94F3
:1008C00045980C94C99E0C9400002091F7032223B4
:1008D00099F09C01225A31403093AD042093AC042E
:1008E000835A91408115904138F484EF91E09093C0
:1008F000AF048093AE0408951092AD041092AC043E
:100900000895DC01FB016C9111964C9111971296A0
:100910007C91262F220F220F220F95E5822F899F8F
:10092000080E80E0811D1124562F5074362F30722E
:1009300067FD60C0511149C0311106C0982F9095D4
:10094000282F892F90E004C025E5280F90E08BEA3E
:100950004F3FF1F0442309F46CC0409530E044234C
:1009600029F0449F312D112441113F5F432F4095C1
:10097000849F080E80E0811D249F020E20E0211D2F
:10098000949F090E90E0911D1124830F230F930F64
:100990007F3FB9F030E0772321F0779F312D09F0C8
:1009A0003F5F332309F449C0839F080E80E0811D17
:1009B000239F020E20E0211D939F090E90E0911DC0
:1009C0001124808321839283089531110DC0922FC9
:1009D0002AEA929F090E90E0911D11242BEA291B0F
:1009E000922F2AEA280FADCF90E0282F2095982F3C
:1009F00080E0AECF511111C031110BC0922F8AEAA5
:100A0000989F090E90E0911D11242BEA291B9B5AF7
:100A1000EFCF982F909520E09BCF311106C025E5B0
:100A2000280F9BEA981B822FF6CF2AEA280F30E086
:100A3000F9CF9FEF2FEF8FEFABCF90E020E080E07A
:100A4000C0CF90E080E00895FC0164870895FC0128
:100A5000848590E00895FC0185859685089510921F
:100A6000700384E68093000210926E0345E050E02C
:100A700060E070E08FE998E00C945589AF92BF92E6
:100A8000DF92EF92FF920F931F93CF93DF938CEF40
:100A900095E00E941089882341F040E951E060E030
:100AA00070E08CEF95E00E9455898091010490914F
:100AB0000204D0E0029709F0D2E08CEF95E00E94AA
:100AC000CA88683C71058105910508F0F4C0C091A1
:100AD000B104CC2391F08091B7049091B8040697AB
:100AE00059F480911402853039F4C1E080910904F1
:100AF00090910A04892B09F0C0E08091FA0390914B
:100B0000FB030197029788F48091B7049091B80491
:100B1000069759F480911402853039F480910904C4
:100B200090910A04019709F4C1E08091BE058A3BC7
:100B300069F48091B7049091B804069739F411E0F4
:100B40008091090490910A04892B09F010E08091AA
:100B5000010490910204009709F47AC0029731F5DC
:100B600095E0D92ECC2309F444C0C0E08EE190E09A
:100B70005C01AD1AB108D1E08C2F90E08A159B057D
:100B800004F59C012C583C4F7901CC2391F01123A2
:100B900011F0CD1510F0C93160F08C2F0E94B14AD0
:100BA0000E94B67DF701D083CF5FE6CF84E0D82ED8
:100BB000D9CF8C2F0E94B14A0E94D37DF7011082B9
:100BC000F3CF8091010490910204029739F48DE1F2
:100BD0000E94B14A0E94D37D10929103DF91CF9180
:100BE0001F910F91FF90EF90DF90BF90AF900C940A
:100BF000B281112311F1C1E08EE190E07C01ED1A88
:100C0000F108D1E00C2F10E00E151F053CF70C5831
:100C10001C4F8C2FCC2351F0CD1540F40E94B14ACB
:100C20000E94B67DF801D083CF5FECCF0E94B14A1D
:100C30000E94D37DF8011082F7CFDF91CF911F91F1
:100C40000F91FF90EF90DF90BF90AF900C94F15018
:100C500080E0112341F10E94B14A60E00E94FA7ED7
:100C600081E00E94B14A61E00E94FA7E82E00E9427
:100C7000B14A61E00E94FA7E83E00E94B14A61E0DD
:100C80000E94FA7E84E0CC2391F00E94B14A60E099
:100C9000DF91CF911F910F91FF90EF90DF90BF9068
:100CA000AF900C94FA7E0E94B14A61E0D7CF0E94C7
:100CB000B14A61E0EDCF80911402833009F4E2C0C3
:100CC00080F4813009F448C1823009F414C1DF9105
:100CD000CF911F910F91FF90EF90DF90BF90AF9059
:100CE0000895843009F48FC0853089F7209101047C
:100CF000309102042115310509F479C08D2F90E05F
:100D0000C1E02230310509F03BC02EE130E079012D
:100D1000E81AF90AD1E00C2F10E00E151F050CF0AF
:100D20005DCFEBEFEC0FE93100F5F0E08827E456FA
:100D3000F94F8F4F0C94899DBE06BE06B506B506C9
:100D4000B506B506BE06BE06B506B506B506B506B9
:100D5000BE06BE06B506B506B506B506BE06BE0697
:100D6000B506B506B506B506BE068C2F0E94B14A7B
:100D70000E94B67DF801EC58FC4FD083CF5FCBCFFB
:100D80002EE130E07901E81AF90AD1E00C2F10E0E9
:100D90000E151F050CF022CFECEFEC0FE531E0F45F
:100DA000F0E08827E952F94F8F4F0C94899DF506A2
:100DB000F506F506EC06EC06EC06F506F506F50676
:100DC000EC06EC06EC06F506F506F506EC06EC0678
:100DD000EC06F506F506F5068C2F0E94B14A0E9436
:100DE000B67DF801EC58FC4FD083CF5FCFCF85E0C4
:100DF000DF91CF911F910F91FF90EF90DF90BF9007
:100E0000AF900C94D84A809101049091020400970D
:100E1000B9F1C1E0D0E011E00297C9F48C2FCD30D8
:100E200048F49BEF9C0FCB3038F02196C731D105A9
:100E3000A9F7D4CE9C2F91519230B8F30E94B14AB9
:100E40000E94B67DFE01EC58FC4F1083EECF8C2F34
:100E5000CD3048F49CEF9C0FCA3038F02196C63153
:100E6000D105A9F7BBCE9C2F90519330B8F30E94C7
:100E7000B14A0E94B67DFE01EC58FC4F1083EECFC4
:100E800084E0B6CF8091010490910204009789F12B
:100E9000C1E0D0E011E00297B1F48C2FC53030F002
:100EA000C73060F095EF9C0F923040F00E94B14A3D
:100EB0000E94B67DFE01EC58FC4F10832196C13193
:100EC000D10559F78BCE8C2FC43030F0C73060F08D
:100ED00096EF9C0F933040F00E94B14A0E94B67D7D
:100EE000FE01EC58FC4F10832196C031D10559F713
:100EF00075CE83E07DCF809101049091020400972C
:100F000049F1C1E0D0E011E0029791F48C2F8550B7
:100F1000823048F08C2F0E94B14A0E94B67DFE01BB
:100F2000EC58FC4F10832196CB30D10579F756CE83
:100F30008C2F8450833048F08C2F0E94B14A0E943D
:100F4000B67DFE01EC58FC4F10832196CA30D105C6
:100F500079F744CE82E04CCF809101049091020455
:100F60000097F1F005E713E0C1E0D1E0029761F4EA
:100F70008C2F0E94B14A0E94B67DF801D1938F0157
:100F8000CF5FC530A9F72ACE8C2F0E94B14A0E94AC
:100F9000B67DF801D1938F01CF5FC430A9F71ECE83
:100FA00081E026CF0F931F93CF93DF9300D000D023
:100FB000CDB7DEB78FEF9FEFDC0189839A83AB83D8
:100FC000BC8310E000E01E830D83BE016B5F7F4F8A
:100FD000CE0101960E94DC8ABE016A5F7F4FCE017E
:100FE00001960E94DC8A0F5F1F4F0232110559F7EC
:100FF0008EE190E09E838D83BE016B5F7F4FCE01BB
:1010000001960E94DC8ABE016A5F7F4FCE01019685
:101010000E94DC8A84E090E09E838D83BE016B5F3A
:101020007F4FCE0101960E94DC8ABE016A5F7F4F2E
:10103000CE0101960E94DC8A69817A818B819C8134
:10104000609570958095909526960FB6F894DEBFC2
:101050000FBECDBFDF91CF911F910F910895809169
:10106000B5049091B6040197039708F021C16091EF
:10107000BB05062E000C770B8CE390E00E940B7AE8
:101080006091BB05062E000C770B8AE691E00E946A
:101090000B7A6091BB05062E000C770B8BE691E076
:1010A0000E940B7A6091BB05062E000C770B81E243
:1010B00090E00E940B7A6091BB05062E000C770B26
:1010C0008DE190E00E940B7A6091BB05062E000C2A
:1010D000770B8EE190E00E940B7A6091BB05062EA3
:1010E000000C770B8FE190E00E940B7A6091BB05BA
:1010F000062E000C770B80E290E00E940B7A809124
:10110000F7038823D9F06091BB05062E000C770BFE
:1011100083E991E00E940B7A6091BB05062E000CDA
:10112000770B84E991E00E940B7A6091BB05062E53
:10113000000C770B87E491E00E940B7A8091F0031A
:101140008823D9F16091BB05062E000C770B8091A6
:10115000FD039091FE038230910509F4A3C0833012
:10116000910559F1019709F4A0C08EE791E00E9422
:101170000B7A6091BB05062E000C770B89E891E095
:101180000E940B7A6091BB05062E000C770B83E65C
:1011900090E00E940B7A6091BB05062E000C770B45
:1011A00088E490E00E940B7A6091BB05062E000C4B
:1011B000770B82E690E00E940B7A6091BB05062EC9
:1011C000000C770B8EE890E00E940B7A6091BB05D3
:1011D000062E000C770B80E990E00E940B7A60915C
:1011E000BB05062E000C770B8DE890E00E940B7A71
:1011F0006091BB05062E000C770B8FE890E00E94F3
:101200000B7A6091BB05062E000C770B83E990E00A
:101210000E940B7A6091BB05062E000C770B81E9CA
:1012200090E00E940B7A6091BB05062E000C770BB4
:1012300082E990E00E940B7A6091BB05062E000CBB
:10124000770B84E990E00E940B7A6091BB05062E33
:10125000000C770B82E190E00E940B7A6091BB0555
:10126000062E000C770B83E190E00E940B7A6091D0
:10127000BB05062E000C770B84E190E00E940B7AF0
:101280006091BB05062E000C770B85E190E00E9473
:101290000B7A6091BB05062E000C770B86E190E07F
:1012A0000C940B7A84E390E086CF8AE390E083CFBE
:1012B0000895FC0182819381009789F02585368508
:1012C00077FDB901261737070CF4B901AB01440FBC
:1012D000551F460F571F70E060E00C94C29E0895A2
:1012E000FF920F931F93CF93DF93EC01F62E0881AB
:1012F0001981C8010E94CE9CF81621F06F2DC801FB
:101300000E94D69CCE01DF91CF911F910F91FF904B
:101310000895EF92FF920F931F93CF93DF9300D026
:1013200000D0CDB7DEB70E94D20769837A838B8362
:101330009C83CE0101967C010CEF1FE01E830D8380
:10134000F70161917F01CE0105960E9470090F5F40
:101350001F4F0115F0E11F0789F726960FB6F89485
:10136000DEBF0FBECDBFDF91CF911F910F91FF90D8
:10137000EF9008950F931F93CF93DF931F921F92C7
:10138000CDB7DEB70EE110E01A83098360E0CE012D
:1013900001960E9470090F5F1F4F02321105A1F7DD
:1013A0000E9489090F900F90DF91CF911F910F91AB
:1013B00008950F931F93CF93DF931F921F92CDB782
:1013C000DEB710E000E01A83098360E0CE010196E9
:1013D0000E9470090F5F1F4F0E311105A1F70E9487
:1013E00089090F900F90DF91CF911F910F91089570
:1013F0001092C5081092C6081092BB081092BC0843
:101400008091F00381110BC00E94A64902970297B8
:10141000A0F48091FF0390910004019771F4109A59
:101420000E94A6490297029730F48091FF039091A1
:101430000004019721F0119808951098F1CF119AA6
:10144000089510921804109217041092FB03109242
:10145000FA031092F9031092F80308952F923F9225
:101460004F925F926F927F928F929F92AF92BF92B4
:10147000CF92DF92EF92FF920F931F93CF93DF9360
:10148000CDB7DEB7A4970FB6F894DEBF0FBECDBFC1
:101490008091BD056DED7FEF9B01281B310987FD14
:1014A000339544E6429FC001439F900D11240E9452
:1014B000759DD62E162F80911D0290911E0228EE4A
:1014C00033E0B9010E94619DE62E80911F02909148
:1014D0002002B9010E94619DF62E80912102909117
:1014E0002202B9010E94619DB62E80912302909143
:1014F0002402B9010E94619DC62E8091250290911F
:101500002602B9010E94619D8091FA039091FB032C
:101510009C012150310951E02230310520F452E084
:1015200042E0029709F041E080911002A1E08111B0
:10153000A2E080910902811162C081E08BA38091B9
:101540000E0281115FC0E1E0ECA38091EF0372E035
:10155000811101C071E080910D02B1E08111B2E012
:1015600080910A02811151C081E089A380910C020F
:1015700081114EC0E1E0EAA380919C03F2E0AF2E1E
:10158000811102C0AA24A3948091130490911404A1
:1015900032E08130910521F033E0029709F031E02B
:1015A00080910F049091100422E08130910521F088
:1015B00023E0029709F021E080919B03E2E09E2E58
:1015C000811102C09924939480910704909108049A
:1015D0000197772473948430910520F48B5C9D4FA0
:1015E000FC01708080910504909106048130910582
:1015F00091F0029709F4ACC0882483940EC092E065
:101600009BA39DCFF2E0FCA3A0CF92E099A3AECF25
:10161000F2E0FAA3B1CF92E0892E80911704909165
:10162000180402E0602E019711F06624639455249B
:1016300053945D0C153610F015E6512E80910B0277
:10164000DD24D394882311F0F2E0DF2E809127026D
:10165000E2E04E2E811102C04424439480910A0995
:1016600092E0392E811102C03324339480910B090A
:1016700022242394882311F082E0282E80910C09E3
:1016800002E0811101C001E08091120912E0811194
:1016900001C011E080910D0490910E0401978330F8
:1016A000910508F058C08E5C9D4FFC018081188622
:1016B0001F8259834A83AB83FBA1FC839CA19D833A
:1016C0007E83B887E9A1E987FAA1FA87AB863C87D0
:1016D0002D879E867F86888A698ADA8A5B8AEC8A69
:1016E000FD8ABE8ACF8A688F498E3A8E2B8E0C8FE8
:1016F0001D8F8E8FCE0101967C0110E000E018A3B3
:101700000F8FF70161917F01CE014F960E94700902
:101710000F5F1F4F0E31110591F70E948909A496A2
:101720000FB6F894DEBF0FBECDBFDF91CF911F91F2
:101730000F91FF90EF90DF90CF90BF90AF909F9070
:101740008F907F906F905F904F903F902F90089573
:1017500084E0882E62CF84E0AACFEF92FF920F93AD
:101760001F93CF93DF9300D000D0CDB7DEB7809129
:10177000B9049091BA040197A1F590E320919903DF
:1017800030919A038EE12230310509F08CE12091ED
:1017900018022983209119022A839B838C83CE010E
:1017A00001967C010EE110E01E830D83F70161912B
:1017B0007F01CE0105960E9470090F5F1F4F023214
:1017C000110591F70E94890926960FB6F894DEBF9D
:1017D0000FBECDBFDF91CF911F910F91FF90EF9082
:1017E000089595E0CBCF8091B5049091B604019710
:1017F000039710F40C94687A0895CF92DF92EF92D9
:10180000FF920F931F93CF93DF93CDB7DEB765970A
:101810000FB6F894DEBF0FBECDBF68EE73E080E078
:1018200090E00E94D68140E051EE60E070E08DE1F2
:1018300095E00E94AB7B109216051092170510924E
:1018400018058DE195E09093BC048093BB04109241
:1018500013051092140510921505EDEBF4E08FEFCF
:101860009FEF8193919324E0E93DF207D1F78091B6
:10187000BB049091BC04DC01ED91FC910084F185E6
:10188000E02D1995A091BB04B091BC04892B49F0BF
:10189000ED91FC9111970284F385E02DCD0119950E
:1018A000E6CF80EFF82EF9820AEA0A8395E0D92E76
:1018B000DB82CC24C394CC8215E51D83ED91FC9191
:1018C00011970280F381E02D45E050E0BE016F5F8B
:1018D0007F4FCD011995F9820A83DB8282E08C83E8
:1018E0001D838091BB049091BC04DC01ED91FC91BF
:1018F0000280F381E02D45E050E0BE016F5F7F4F35
:1019000019956AE070E080E090E00E94D681F9824B
:101910000A83DB8284E08C831D838091BB049091D9
:10192000BC04DC01ED91FC910280F381E02D45E0E7
:1019300050E0BE016F5F7F4F1995F9820A8387E0FF
:101940008B838CE08C831D821E821F838091BB045D
:101950009091BC04DC01ED91FC910280F381E02DBB
:1019600047E050E0BE016F5F7F4F19958AEB9FEF14
:101970000E948A7DF9820A8326E0E22EEB8289E0CA
:101980008C83CD821E838091BB049091BC04DC01CA
:10199000ED91FC910280F381E02D46E050E0BE0124
:1019A0006F5F7F4F19958091F703F9820A83EB826D
:1019B0009EE09C838D831E838091BB049091BC0428
:1019C000DC01ED91FC910280F381E02D46E050E0D6
:1019D000BE016F5F7F4F19956EE571E080E090E08A
:1019E0000E94D6810E94687AE0901605EE2079F177
:1019F000A9EFB4E0FE013196CE0145962D912193D9
:101A0000E817F907D9F70E94687A809117058823AB
:101A100041F00E94687A80910E0590910F050E9416
:101A2000650483E090E09093B6048093B5048E2D16
:101A300065960FB6F894DEBF0FBECDBFDF91CF9194
:101A40001F910F91FF90EF90DF90CF900895F98252
:101A50000A83DB8281E18C831D838091BB0490919A
:101A6000BC04DC01ED91FC910280F381E02D45E0A6
:101A700050E0BE016F5F7F4F19956EE571E080E029
:101A800090E00E94D6810E94687AE0901805EE20CE
:101A9000D9F08091100590911105892B91F082E089
:101AA00090E09093B6048093B5048AE08093BF05DC
:101AB0000E94687A80910E0590910F050E9465043E
:101AC000B6CF81E090E0EDCF1092B6041092B5044D
:101AD000AECF8091B5049091B60401970397B8F406
:101AE0008091F703882399F08091AC049091AD0424
:101AF000892B59F08091AE049091AF04843F21E08E
:101B0000920718F064E00E94DD790E94687A1092D2
:101B1000B0041092B20408958091AC049091AD0489
:101B2000892B09F467C08091AE049091AF04843F83
:101B300021E0920708F45EC021E02093B2044091B6
:101B4000F7032091B5043091B6042230310599F1A4
:101B50002330310519F02130310509F54423F9F01E
:101B60002091B10465E0211101C066E00E94DD7999
:101B70006091BA05062E000C770B8091AE0490910F
:101B8000AF040E940B7A61E08091AE049091AF04A3
:101B90000E94397A0E94687A81E080931C058091C6
:101BA000F703882339F140E25EE460E070E080EC06
:101BB00095E00C945589442391F32091B10465E09C
:101BC000211101C066E00E94DD796091BA05062E00
:101BD000000C770B8091AE049091AF040E940B7AB9
:101BE00050E040E061E08091AE049091AF040E942B
:101BF000787BD0CF08952091B5043091B604215060
:101C000031092330310518F464E00C94DD7908952E
:101C100080916603882309F44FC010926603909167
:101C2000EF098091EA09981328C066E082E190E00C
:101C30000E94DD7966E083E190E00E94DD7966E054
:101C400084E190E00E94DD7966E085E190E00E9409
:101C5000DD7966E086E190E00E94DD7980910E02F8
:101C6000882319F084EC0E942D4846ED56E060E090
:101C700070E089EA98E00C94558982E190E00E9436
:101C8000FB0D83E190E00E94FB0D84E190E00E9457
:101C9000FB0D85E190E00E94FB0D86E190E00E9443
:101CA000FB0D80910E02882319F083EC0E942D48D1
:101CB00040E050E0BA01DDCF0895CF93C82F809166
:101CC0001302823020F08430D8F0863000F181E2B7
:101CD00090E00E94FB0DCC2349F18091F70388230B
:101CE00029F18091FD039091FE0382309105B1F0BE
:101CF00083309105C1F00197C9F484E991E010C0E7
:101D000081E290E00E94FB0D8DE190E0E2CF8DE159
:101D100090E00E94FB0D80E290E0DBCF83E991E050
:101D2000CF910C94FB0D87E491E0FACFCF91089509
:101D3000CF92DF92EF92FF920F931F93CF93DF9397
:101D40006C01F62EC42F14160CF4C0E0CA3B0CF440
:101D5000CAEB8091B5049091B6048230910589F167
:101D60008330910519F0019709F047C00C2E000C43
:101D7000DD0B222379F06AEB7FEFC6010E940B7A1C
:101D80006E2DC6010E94397AA801BE01C6010E94CB
:101D9000F67C08C0BE01C6010E940B7A6E2DC601FA
:101DA0000E94397A65E0F11001C066E0C601DF915A
:101DB000CF911F910F91FF90EF90DF90CF900C94F7
:101DC000DD790C2E000CDD0B222361F06AEB7FEF36
:101DD000C6010E940B7A50E040E06E2DC6010E94C1
:101DE000787BD2CFBE01C6010E940B7A50E040E062
:101DF0006E2DC6010E94787BD5CFDF91CF911F91C8
:101E00000F91FF90EF90DF90CF900895EF920F9396
:101E10001F93809197038823A1F10E94A6490297FE
:101E2000B0F589E491E00E94FB0D8CE491E00E9402
:101E3000FB0D8DE491E00E94FB0D81E00E945D0EA0
:101E40008091B7049091B8040497D9F08091F10380
:101E5000811117C080910E02882319F08AEB0E942D
:101E60002D4881E190E00E94FB0DEE24E39410E008
:101E700000E020E04091BB0560E081E190E00E943D
:101E8000980E109297031F910F91EF9008958091F3
:101E90000E022091B7043091B8042430310551F07E
:101EA0009091F203911106C02091FF03309100043C
:101EB000232B91F4882319F08AE50E942D48EE2403
:101EC000E39410E000E020E04091BB0560E084E98D
:101ED00090E00E94980E23C09091F10391111FC0D1
:101EE000882319F088E50E942D4849E557E060E015
:101EF00070E081E399E00E94558910922F091092B9
:101F000030098091B5049091B6040297C1F44091D4
:101F1000BB056EE870E082E990E00E942A7D809126
:101F20000E02882319F085E50E942D488FE890E085
:101F30000E94FB0D80E990E00E94FB0DA2CFEE24F1
:101F4000E39410E000E020E04091BB0560E082E90E
:101F500090E0BFCFEF920F931F93CF93C82F409184
:101F6000BB0580911302833020F0853048F1853025
:101F700081F1EE24E39408EE13E02C2F61E081E27E
:101F800090E00E94980E8091F7038823B9F1CC234A
:101F9000A9F18091FD039091FE038230910511F12A
:101FA0008330910581F1019749F5EE24E39404E82B
:101FB00013E021E04091BB0561E084E991E01CC0A1
:101FC000EE24E39408EE13E02C2F61E08DE190E025
:101FD000D8CFEE24E39408EE13E02C2F61E080E2EA
:101FE00090E0CFCFEE24E39404E813E021E04091A9
:101FF000BB0561E083E991E00E94980ECF911F91AB
:102000000F91EF900895EE24E39404E813E021E0AB
:102010004091BB0561E087E491E0EECFEF920F9332
:102020001F938091150490911604019709F073C0D5
:1020300080E190E090930302809302028BEF90E0A6
:102040000E94FB0D8091FF0390910004029709F418
:102050009FC08091F20381110FC08091170490916D
:102060001804009709F45AC0019731F48091FE08D2
:10207000811102C00E943B4B8091020180628093DB
:102080000201809102018064809302014091060266
:102090005091070270E060E08DEE9AE00E94558951
:1020A0002E981092C5081092C6081092BB08109284
:1020B000BC088091F20381116BC00E94A649009771
:1020C000C9F1019709F468C08091F703882381F072
:1020D00089E491E00E94FB0DEE24E39410E000E01F
:1020E00020E04091BB0560E089E491E00E94980EF9
:1020F00081E00E94AA0F9091340A80912F0A9817CC
:1021000009F446C08091F203811142C01F910F91E2
:10211000EF900C94634886E090E08CCF0E943B4B9C
:102120009091340A80912F0A9813A6CF81E0809372
:102130006503A2CF8CE491E00E94FB0D89E491E05D
:102140000E94FB0D8091F603EE24E39410E000E082
:1021500020E04091BB0560E08823B1F08CE491E081
:102160000E94980E80910E02882391F08091F603D0
:10217000882371F08091F10381110AC089EB1F91CE
:102180000F91EF900C942D4889E491E00E94980EF5
:102190001F910F91EF9008958CE491E00E94FB0D48
:1021A0008DE491E00E94FB0D8091F603EE24E39410
:1021B00010E000E020E04091BB0560E0882331F0B2
:1021C0009091340A80912F0A9813C8CF8DE491E042
:1021D0000E94980E80910E028823D1F28091F6031E
:1021E0008823B1F28091F1038111D2CF8FECC7CF58
:1021F000EF920F931F93E091FD03F091FE0331974F
:1022000089E0E730F10570F48827E65FFE4E8F4FD6
:102210000C94899D9311951191118D1111118B11B0
:102220008F118EE00E942D488091B7049091B804E0
:102230008630910509F456C00897029708F452C0F9
:1022400086E090E00E94FB0D80E390E00E94FB0D91
:1022500085E490E00E94FB0D86E490E00E94FB0D77
:102260008CE290E00E94FB0D8EE390E00E94FB0D5B
:102270008091F703882361F083E991E00E94FB0DD0
:1022800084E991E00E94FB0D87E491E00E94FB0D40
:102290004091BB058091FD039091FE038330910531
:1022A00009F4ACC008F043C08130910509F45CC06A
:1022B000029709F47EC0EE24E39410E000E020E0F1
:1022C00060E086E090E00E94980E1092700384E631
:1022D0008093000245E050E060E070E08FE998E014
:1022E0000E9455898091B5049091B6040197029798
:1022F00050F48091FD039091FE03039709F0B9C05B
:1023000080E00E94AD7E10924D0810924E081F9101
:102310000F91EF9008958FE085CF8DE083CF80E11E
:1023200081CF8CE07FCF8BE07DCF8AE07BCF853083
:10233000910509F488C0069709F0BDCFEE24E39417
:1023400010E000E020E060E086E090E00E94980E5F
:102350008091F703882309F4B8CF20E04091BB05B2
:1023600060E088E991E0AFCFEE24E39410E000E074
:1023700020E060E085E490E00E94980E8091F703F1
:10238000882309F4A2CF8091FF0390910004019764
:1023900009F09BCF9091340A80912F0A981395CF22
:1023A00000ED17E021E04091BB0561E084E991E098
:1023B0008ACFEE24E39410E000E020E060E080E3C8
:1023C00090E00E94980E8091F703882309F47DCF56
:1023D0008091FF0390910004019709F076CF9091CE
:1023E000340A80912F0A981370CF0CEB12E021E091
:1023F0004091BB0561E083E991E065CFEE24E39471
:1024000010E000E020E060E086E490E00E94980E9A
:102410008091F703882309F458CF8091FF039091AE
:102420000004019709F051CF9091340A80912F0A4E
:1024300098134BCF02EE14E021E04091BB0561E020
:1024400087E491E040CFEE24E39410E000E020E048
:1024500060E086E090E00E94980E8091F703882368
:1024600009F433CF20E04091BB0560E087E991E0BB
:102470002ACF81E046CF2091FA033091FB0380916F
:1024800017049091180481309105F1F4211531055C
:10249000B1F41092F9031092F8039093FB03809328
:1024A000FA038091FD039091FE03892B31F0109285
:1024B000FE031092FD030E94F81080E025C03093C7
:1024C000F9032093F803EDCF8091F8039091F9037D
:1024D0008217930791F081309105B9F08230910510
:1024E000A1F01092FB031092FA038091FA039091ED
:1024F000FB039093F9038093F80381E02091FA03A2
:102500003091FB03232BC9F608959093FB0380932E
:10251000FA03EBCFEF920F931F93CF938091B70401
:102520009091B8048430910509F4D3C02091F2034E
:102530002111CFC03091340A20912F0A3213E5C106
:1025400020910C022223A9F02091FD033091FE037B
:102550002230310509F4C2C0039759F08091430835
:10256000882309F4BBC08BE398E00E941089811195
:10257000B5C060E08DE00E94FA7EC09197030E9492
:10258000A649C11135C0029708F0D9C080916503F2
:10259000811128C089E491E00E94FB0D8CE491E058
:1025A0000E94FB0D0E94A649019709F0B1C08DE47D
:1025B00091E00E94FB0DEE24E39410E000E020E0A7
:1025C0004091BB0560E08DE491E00E94980E8091FF
:1025D0000E02882339F080916003811103C08FECD3
:1025E0000E942D4881E00E94AA0F81E0809397030A
:1025F0000E94A64902970297F8F487E299E00E94A8
:1026000010898823C9F080910E02882319F087E58C
:102610000E942D488091B5049091B604029761F014
:10262000EE24E39410E000E020E04091BB0561E07F
:1026300080E990E00E94980E10926503109260036A
:102640009091EF098091EA09981359C1809166032E
:1026500081113FC089EA98E00E9410898823C9F15E
:102660008091B7049091B804049799F18091660322
:1026700081112FC00E94A649029720911302233096
:1026800009F4F8C008F0BCC0223009F4D9C00297A0
:1026900008F020C180910B02882309F41BC18091AE
:1026A0000E02882319F085EC0E942D48EE24E39455
:1026B00010E000E020E04091BB0561E082E190E0A5
:1026C0000E94980E81E0809366031092B1081092E8
:1026D000B208CF911F910F91EF900895809113024E
:1026E00060EA70E0833081F038F46EEB70E08230A5
:1026F00059F06CED70E008C062E870E0843021F0C1
:1027000064E670E08530A9F78DE00E949F7F35CFA9
:10271000EE24E39410E000E020E04091BB0560E08F
:1027200089E491E00E94980E80910E02882309F4BA
:1027300059CF80916003811155CF88EB51CF8091A3
:102740000E02882339F0809105028823C1F18BE5C0
:102750000E942D481092390910923A0949E557E034
:1027600060E070E087E299E00E94558920910502BF
:102770004091BB058091B5049091B604222361F18C
:102780000297F9F460E970E083E990E00E942A7D05
:10279000109205028DE890E00E94FB0D8EE890E01B
:1027A0000E94FB0D81E990E00E94FB0D82E990E020
:1027B0000E94FB0D84E990E00E94FB0D16CF84E59A
:1027C000C7CFEE24E39410E000E020E060E083E96E
:1027D00090E00E94980EDCCF029739F460E970E037
:1027E0008FE890E00E942A7DD5CFEE24E39410E09C
:1027F00000E020E060E08FE890E00E94980ECACFF1
:10280000243009F44FC0253009F041CF029708F079
:1028100061C080910B02882309F45CC080910E0294
:10282000882319F085EC0E942D48EE24E39410E0F3
:1028300000E020E04091BB0561E086E190E040CF00
:10284000029708F047C080910B02882309F442C028
:1028500080910E02882319F085EC0E942D48EE2409
:10286000E39410E000E020E04091BB0561E083E1EB
:1028700090E026CF029770F580910B02882351F1EA
:1028800080910E02882319F085EC0E942D48EE24D9
:10289000E39410E000E020E04091BB0561E084E1BA
:1028A00090E00ECF0297B0F480910B02882391F054
:1028B00080910E02882319F085EC0E942D48EE24A9
:1028C000E39410E000E020E04091BB0561E085E189
:1028D00090E0F6CE8091F009882309F4F3CE809140
:1028E0000E02882319F086EC0E942D48EE24E39412
:1028F00010E000E020E04091BB0560E09ECFCF916A
:102900001F910F91EF900C94080E61E08DE00E94F2
:10291000FA7E0E94080ECF911F910F91EF900C94B8
:10292000060FEF920F931F938091F703882381F195
:1029300010921B0910921C0987E591E00E94FB0D83
:10294000EE24E39410E000E020E04091BB0560E05D
:1029500088E591E00E94980E8091FD039091FE031E
:102960000297B1F48091FF0390910004019781F4E4
:102970009091340A80912F0A98130AC004E813E05A
:1029800021E04091BB0561E083E991E00E94980E4F
:102990001092B8041092B7041F910F91EF90089510
:1029A000EF920F931F930E94FB5010921B091092FD
:1029B0001C091092040610920506119880919B0341
:1029C000811102C00E947E490E94A649029748F5E3
:1029D0008CE491E00E94FB0DEE24E39410E000E013
:1029E00020E04091BB0560E08CE491E00E94980EED
:1029F0009091340A80912F0A981739F00E94A649C5
:102A00000297029710F40E9463481092B804109243
:102A1000B70481E0809360031F910F91EF900C94B5
:102A20003B4B89E491E00E94FB0DEE24E39410E01F
:102A300000E020E04091BB0560E089E491E00E9465
:102A4000980E81E00E94AA0FD3CFEF920F931F93AD
:102A5000809110028823E1F0109210028DE590E041
:102A60000E94FB0D8CE590E00E94FB0DEE24E394A8
:102A700010E000E020E04091BB0560E08DE590E0D3
:102A80000E94980E85E31F910F91EF900C942D48B2
:102A900081E0809310028DE590E00E94FB0D8CE5B3
:102AA00090E00E94FB0DEE24E39410E000E020E0B3
:102AB0004091BB0560E08CE590E00E94980E86E3B3
:102AC000E2CFEF920F931F9388E290E00E94FB0DFC
:102AD000EE24E39410E000E020E04091BB0560E0CC
:102AE00088E290E00E94980E88E590E00E94FB0D3D
:102AF00085E690E00E94FB0D89E590E00E94FB0DC9
:102B000020911704309118048091FA039091FB03EF
:102B100021303105C9F082309105B1F40E94210ABB
:102B200020E04091BB0560E089E590E00E94980EAE
:102B300082E30E942D481092FE031092FD031F9124
:102B40000F91EF900C94F8104091BB050197B1F4F0
:102B500082E090E09093FB038093FA039093F90353
:102B60008093F803EE24E39410E000E020E060E0BE
:102B700085E690E00E94980E8AE2DBCF81E090E04B
:102B80009093FB038093FA039093F9038093F803E7
:102B9000EE24E39410E000E020E060E088E590E0BF
:102BA0000E94980E89E2C5CFEF92FF920F931F9378
:102BB000CF93DF93CDB7DEB7A6970FB6F894DEBFFD
:102BC0000FBECDBF8CEF9FE00E94CE9C8BA38DEFFC
:102BD0009FE00E94CE9C8CA38EEF9FE00E94CE9C33
:102BE0008DA38FEF9FE00E94CE9C8EA30E94D20700
:102BF0000BA11CA12DA13EA16017710782079307AD
:102C000009F0BEC2CE0101967C0110E000E0C801CF
:102C10000E94CE9CF70181937F010F5F1F4F0E3101
:102C20001105A9F71092FB031092FA0389818250D3
:102C30008D3F80F481E090E09093FB038093FA0352
:102C40008A8182508D3F30F482E090E09093FB03C4
:102C50008093FA038091FA039091FB039093F90318
:102C60008093F8038B819FEF980F9E3F30F4813063
:102C700009F4EDC181E0809310028C819FEF980FE1
:102C80009E3F30F4813009F4E5C181E08093090270
:102C90008D819FEF980F9E3F30F4813009F4DDC1A4
:102CA00081E080930E028E819FEF980F9E3F50F43B
:102CB000813009F4D5C181E08093EF038093ED0367
:102CC0008093EE0388859FEF980F9E3F30F481300C
:102CD00009F4CDC181E080930D0289859FEF980FA3
:102CE0009E3F30F4813009F4C5C181E080930A022F
:102CF0008A859FEF980F9E3F30F4813009F4BDC163
:102D000081E080930C028B859FEF980F9E3F30F4FB
:102D1000813009F4B5C181E080939C038C859FEFDD
:102D2000980F9E3F50F4823009F4ADC1833009F40E
:102D3000B5C110921404109213049D85992361F07B
:102D40008F3F51F0923009F4B2C1933009F4BAC107
:102D50001092100410920F048E859FEF980F9E3FE3
:102D600030F4813009F4B7C181E080939B038F85F3
:102D70009FEF980F9E3F60F4833009F4BEC108F0C6
:102D8000ADC1823009F4B2C1109208041092070458
:102D900088899FEF980F9E3F50F4823009F4B3C1A9
:102DA000843009F4B7C11092060410920504898991
:102DB0009FEF980F9E3F68F49091F703992349F095
:102DC000813009F4AAC181E090E0909318048093C7
:102DD00017048A899FEF980F9E3F30F4813009F4E1
:102DE000A1C181E080930B029B8991509536F8F444
:102DF0008091F7038823D9F090931C028091BF053E
:102E00002DED3FEF281B310987FD3395929FA001DF
:102E1000939F500D1124CA016CE97FEF0E94759DAC
:102E200063526093BD056093BC056093BE052C8919
:102E30008FEF820F8E3F78F448EE53E0249FC0015D
:102E4000259F900D112490931E0280931D02909354
:102E50000909809308092D898FEF820F8E3F78F43E
:102E600048EE53E0249FC001259F900D11249093BC
:102E7000200280931F0290930709809306092E89F0
:102E80008FEF820F8E3F78F448EE53E0249FC0010D
:102E9000259F900D112490932202809321029093FC
:102EA0000509809304092F898FEF820F8E3F78F4F4
:102EB00048EE53E0249FC001259F900D112490936C
:102EC0002402809323029093030980930209288DA2
:102ED0008FEF820F8E3F78F448EE53E0249FC001BD
:102EE000259F900D112490932602809325029093A4
:102EF000010980930009898D9FEF980F9E3F30F460
:102F0000813009F412C181E0809327028A8D9FEFFE
:102F1000980F9E3F30F4813009F40AC181E080931C
:102F20000A098B8D9FEF980F9E3F30F4813009F492
:102F300002C181E080930B098C8D9FEF980F9E3F1B
:102F400030F4813009F4FAC081E080930C098D8D52
:102F50009FEF980F9E3F30F4813009F4F2C081E07A
:102F6000809312098E8D9FEF980F9E3FA8F48230B8
:102F700009F4F1C0833009F4E7C0813009F4F1C0ED
:102F800084E090E090930E0480930D0482E090E042
:102F900090930C0480930B040E9431480E94C64910
:102FA0008EE190E00E94CE9CF82E8F8F8FE190E012
:102FB0000E94CE9C082F88A380E290E00E94CE9CC5
:102FC000182F89A381E290E00E94CE9C9FEF9F0D75
:102FD0009E3F10F4F09218029FEF900F9E3F10F466
:102FE000009319029FEF910F9E3F48F41093110236
:102FF000103309F4BBC01092BA041092B9049FEFC9
:10300000980F9E3FB8F48E3108F0B7C081E090E091
:1030100090939A0380939903809101049091020404
:10302000892B41F08091990390919A039093020427
:1030300080930104A6960FB6F894DEBF0FBECDBFF5
:10304000DF91CF911F910F91FF90EF900895109213
:10305000100213CE109209021BCE10920E0223CE44
:103060001092EF031092ED031092EE032BCE10920C
:103070000D0233CE10920A023BCE10920C0243CEC8
:1030800010929C034BCE109216041092150421E06E
:1030900030E030931404209313044FCE21E030E04D
:1030A000309316042093150422E030E0F2CF109202
:1030B00012041092110481E090E090931004809328
:1030C0000F044ACE81E090E09093120480931104A3
:1030D00082E090E0F2CF10929B0349CE843081F0E1
:1030E000853009F051CE84E090E002C081E090E0AC
:1030F00090930804809307044BCE82E090E0F8CFD1
:1031000083E090E0F5CF81E090E090930604809317
:1031100005044DCE82E090E0F8CF10921804109292
:10312000170457CE10920B025FCE10922702EECEFC
:1031300010920A09F6CE10920B09FECE10920C09DD
:1031400006CF109212090ECF83E090E090930E0408
:1031500080930D041DCF81E080930F0282E090E008
:10316000F5CF80930F0281E090E0F0CF21E030E0D6
:103170003093BA042093B90442CF82E090E048CF64
:10318000EE24E39410E000E020E04091BB0560E015
:103190008FE591E00E94980E0E94D909A6960FB67D
:1031A000F894DEBF0FBECDBFDF91CF911F910F917D
:1031B000FF90EF900C94BA09EF920F931F938091B8
:1031C0001B02853020F510921B0280E490E00E94E3
:1031D000FB0DEE24E39410E000E020E04091BE05FA
:1031E00060E080E490E00E94980E80911B0226E44B
:1031F000829FC001112464E670E00E94759D6654B0
:103200006093BB051F910F91EF900C942F08855090
:1032100080931B02EACFEF920F931F9380911B02C2
:10322000803628F184E680931B0280E490E00E94BF
:10323000FB0DEE24E39410E000E020E04091BB059C
:1032400060E080E490E00E94980E80911B0226E4EA
:10325000829FC001112464E670E00E94759D66544F
:103260006093BB051F910F91EF900C942F088B5F1B
:1032700080931B02EACFEF920F931F93CF93C82F37
:103280008091B5049091B6040197039738F480912A
:10329000BE05082E000C990B0E948A7DC11116C034
:1032A0008091FF0390910004892B81F480E490E0E9
:1032B0000E94FB0DEE24E39410E000E020E040913A
:1032C000BB0560E080E490E00E94980ECF911F91D2
:1032D0000F91EF9008958091BE058D3D29F1809169
:1032E0001C028530E8F410921C028091BF052DED80
:1032F0003FEF281B310987FD339540911C02429F07
:10330000C001439F900D11246CE97FEF0E94759DD1
:1033100063526093BE056093BC0580E00C943B193A
:10332000855080931C02E1CF08959091BF05809154
:10333000BE05891711F180911C028036E0F084E609
:1033400080931C022DED3FEF291B310997FD33952A
:1033500040911C02429FC001439F900D11246CE9D3
:103360007FEF0E94759D63526093BE056093BC051C
:1033700080E00C943B198B5FE3CF0895CF93DF93EC
:1033800000D000D0CDB7DEB761307105C1F4682F31
:10339000CE0104960E94EF7BBE016F5F7F4FCE018E
:1033A00004960E94810469817A818B8126960FB6EA
:1033B000F894DEBF0FBECDBFDF91CF910895682F87
:1033C000CE0104960E94EF7BBE016F5F7F4FCE015E
:1033D00004960E9481046A817981E7CFEF92FF927F
:1033E0000F931F93CF93C62F6091B9047091BA04C5
:1033F00061307105B1F090E08C01000F111F080FD2
:10340000191F075E1B4F4FEF8C2F0E94BE19F8014A
:10341000608371838283CF911F910F91FF90EF9012
:103420000895823009F471C048F5F12CE12C813007
:1034300009F44BC056EAE52E56E0F52EF70104914B
:10344000802F90E08C01000F111F080F191F075EDD
:103450001B4F6091B9047091BA044FEF8C2F0E94FA
:10346000BE19F801608371838283FFEFEF1AFF0AB0
:1034700082EBE81686E0F80609F7CDCF833009F431
:1034800066C0F12CE12C8430A9F6F701E653F94F20
:10349000E491F0E08F01000F111F0E0F1F1F075E58
:1034A0001B4F6091B9047091BA044FEF8C2F0E94AA
:1034B000BE19F801608371838283FFEFEF1AFF0A60
:1034C0008CE0E816F10409F7A6CFF701EE54F94FA6
:1034D000E491F0E08F01000F111F0E0F1F1F075E18
:1034E0001B4F6091B9047091BA044FEF8C2F0E946A
:1034F000BE19F801608371838283FFEFEF1AFF0A20
:1035000088E0E816F10409F786CFF12CE12CF701E9
:10351000E654F94FE491F0E08F01000F111F0E0FF8
:103520001F1F075E1B4F6091B9047091BA044FEFE3
:103530008C2F0E94BE19F801608371838283FFEF94
:10354000EF1AFF0A88E0E816F10409F764CFF12CBE
:10355000E12CF701EE53F94FE491F0E08F01000FF9
:10356000111F0E0F1F1F075E1B4F6091B904709152
:10357000BA044FEF8C2F0E94BE19F801608371834B
:103580008283FFEFEF1AFF0A88E0E816F10409F7DB
:1035900042CFCF92DF92EF920F931F93CF93DF939F
:1035A00080916D03882351F180916C03811144C097
:1035B00081E080936C038091FA039091FB03029762
:1035C000D9F58091FD039091FE03892BA9F58CE13B
:1035D0000E942D480E94714AE12C10E000E020E09A
:1035E0004091BB0561E0892B09F089C189E891E030
:1035F0000E94980E80916D0381111EC080916C0312
:103600008823D1F010926C038091FA039091FB0310
:10361000029791F48091FD039091FE03892B61F450
:103620008DE10E942D480E94714A892B09F06AC1E0
:1036300089E891E00E94FB0D80916B03882309F4D7
:1036400042C080916A0381113AC081E080936A038D
:103650008091FA039091FB03029789F58091FD0315
:103660009091FE03892B59F58EE10E942D4880919F
:1036700013028530C9F00E94714A019709F045C1D3
:1036800083E690E00E94FB0D0E94714A4091BB05C9
:10369000E12C10E000E020E061E0892B09F038C166
:1036A00089E891E00E94980EE12C10E000E020E013
:1036B0004091BB0561E088E490E00E94980E809103
:1036C0006B0381113BC080916A03882391F11092B2
:1036D0006A038091FA039091FB03029751F5809160
:1036E000FD039091FE03892B21F58FE10E942D4867
:1036F00088E490E00E94FB0D809113028530C9F0B0
:103700000E94714A892B09F006C189E891E00E9464
:10371000FB0D0E94714A4091BB05E12C10E000E0D6
:1037200020E061E0019709F0F9C083E690E00E9493
:10373000980E80916B03882309F462C080916D0319
:10374000882309F459C080916903811155C0809183
:103750006F03811151C081E080936F0380936903EF
:10376000C091B504D091B6048091050490910604EF
:103770008130910509F4DEC0029709F0D6C0239785
:1037800041F48EE690E00E94FB0D8FE690E00E94EF
:10379000FB0DE12C10E000E020E04091BB0560E073
:1037A0008EE690E00E94980E8091FA039091FB03C0
:1037B000029709F0B6C084E20E942D488091090268
:1037C0008823B1F066E070E080E090E00E947286AD
:1037D0009B01AC01265F3F4F4F4F5F4FA8EEB3E018
:1037E0000E94039DAB01BC0183E698E00E945589CD
:1037F00080916B03882321F080916D03811155C066
:1038000080916F03882309F450C08091FA0390914E
:10381000FB03029709F049C010926F0310926903ED
:10382000C091B504D091B60480910504909106042E
:103830008130910509F4A0C0029709F098C0239740
:1038400041F48EE690E00E94FB0D8FE690E00E942E
:10385000FB0DE12C10E000E020E04091BB0560E0B2
:103860008FE690E00E94980E85E20E942D4880919C
:1038700009028823D1F08091F7038823B1F068E032
:1038800070E080E090E00E9472869B01AC01295FAD
:103890003F4F4F4F5F4FA8EEB3E00E94039DAB0137
:1038A000BC018FE498E00E9455898091FA039091C1
:1038B000FB03019720912509029728F480916B035F
:1038C000882309F470C080911002882309F46BC02A
:1038D000809113028150990BFC01E35FF64F308118
:1038E000311168C0222309F474C010922509109286
:1038F00026090E94F80984E10E942D486AC082E6E8
:1039000090E076CE82E690E095CE8EE791E0BACE5A
:1039100082E690E0C7CE82E690E0F9CE8EE791E0B5
:1039200006CF83E249CF80E247CF0E94714A0297D7
:1039300008F025CF239741F48AE490E00E94FB0D24
:1039400089E490E00E94FB0DE12C10E000E020E013
:103950004091BB0560E08AE490E00E94980E80915F
:10396000FA039091FB030297F1F681E225CF0E94C2
:10397000714A029708F063CF239741F48AE490E0FC
:103980000E94FB0D89E490E00E94FB0DE12C10E009
:1039900000E020E04091BB0560E089E490E00E94F7
:1039A000980E82E262CF2223A1F010922509109294
:1039B0002609A1CF21110DC0880F991FFC01E050ED
:1039C000F74F4081518170E060E08DE199E00E9405
:1039D0005589E091FD03F091FE033197E730F10541
:1039E00008F049C18827E850F34E8F4F0C94899D09
:1039F000D71E721E961ED21EFF1C7C1E811EC9E1A0
:103A0000D0E089E190E06091B9047091BA044FEF81
:103A10000E94BE196B01E82E85E998E00E9410898A
:103A2000882309F46DC080917203409111028417BC
:103A300008F066C090E02091B9043091BA04FC010E
:103A40002130310509F068C1EA55F94FE491F0E001
:103A50009F01220F331FE20FF31FE75EFB4FC0826F
:103A6000D182E282029648171906B9F0B4F08A555D
:103A7000994FFC01849190E08C01000F111F080FF9
:103A8000191F075E1B4F4FEF61E070E080E00E945E
:103A9000BE19F8016083718382838091B90490918B
:103AA000BA0443E050E060E070E0019721F044E1A7
:103AB00050E060E070E085E998E00E9455898091CF
:103AC00072038F5F8093720390911102891318C063
:103AD0008091B9049091BA041092720310929D08DB
:103AE00010929E0844E050E060E070E0019721F001
:103AF00044E650E060E070E087E798E00E94558976
:103B00006091B9047091BA044FEF8C2F0E94BE19D6
:103B10000E94B0718CEE98E00E94108981110E9481
:103B2000E96283E698E00E941089882379F1809108
:103B3000FD039091FE03892B49F580916F0381115C
:103B400025C080910902882309F1E12C10E000E0F2
:103B500020E04091BB0560E089E090E00E94980E73
:103B600066E070E080E090E00E9472869B01AC010C
:103B7000265F3F4F4F4F5F4FA8EEB3E00E94039D7B
:103B8000AB01BC0183E698E00E9455898FE498E080
:103B90000E941089882309F419C18091FD03909136
:103BA000FE03892B09F012C180916F0381110EC1B0
:103BB00080910902882309F409C18091F7038823C1
:103BC00009F404C18091670390916803C1E08537CF
:103BD000910579F0C2E08837910559F0C3E0843748
:103BE000910539F462E070E080E090E00E94728616
:103BF000C62F62E070E080E090E00E9472866E5F07
:103C00007F4F8F4F9F4F28EE33E0629F6001639F8D
:103C1000D00C729FD00C1124E12C10E000E020E0C9
:103C20004091BB0560E0C13009F48FC008F494C036
:103C3000C23009F47EC0C33009F0A5C084E790E02B
:103C40000E94980E84E790E0909368038093670346
:103C500085E08C9DA0018D9D500D112470E060E0E9
:103C60008FE498E0DF91CF911F910F91EF90DF905B
:103C7000CF900C945589C0916F030E94714ACC2358
:103C800061F0039709F098C080919803811194C066
:103C9000CBE0D0E08EE090E0B6CE2091130222502F
:103CA000019789F4C3E1D0E08AE090E0243008F085
:103CB000AACE30E0F901E35BFD4F8081285A3D4FE9
:103CC000F901C081A0CEC6E1D0E085E090E02430CB
:103CD00008F099CE30E0F901E75BFD4F8081245A6E
:103CE0003D4FEECF0E94714A019709F06AC0C1E0D2
:103CF000D0E084E090E087CEC8E1D0E088E190E0B9
:103D000082CE80911902C6E1D0E08E3F10F0C1E072
:103D1000D0E08CE190E077CEEE0FFF1FE80FF91FA7
:103D2000E75EFB4FC082D182E282B7CECDE0D0E029
:103D3000E7CE87E790E00E94980E87E790E09093A7
:103D4000680380936703A60189CF86E790E00E940D
:103D5000980E86E790E0F3CF85E790E00E94980EFA
:103D600020E04091BB0560E088E790E00E94980E5B
:103D700088E790E0909368038093670348E057E0FA
:103D800060E070E06DCF85E790E00E94980E85E7D7
:103D900090E0909368038093670344EF51E060E004
:103DA00070E05ECFCBE1D0E08BE190E02CCEC5E1BE
:103DB000D0E086E190E027CECDE0D0E081E090E059
:103DC00022CECFE0D0E080E190E01DCEDF91CF9118
:103DD0001F910F91EF90DF90CF9008958091B904DB
:103DE0009091BA04019761F44FEF61E070E080E0D8
:103DF0000E94BE1960933D0470933E0480933F047B
:103E000012980895EF92FF920F931F93CF93DF9331
:103E10008091B9049091BA04C0911102C1500197E8
:103E200009F4C4E28091F103811105C08091F2038D
:103E3000882309F4CEC08FE998E00E941089882376
:103E400009F47CC1E0900002EE2009F477C10E94E1
:103E5000714A039761F48091FD039091FE03892BD1
:103E600031F4809198039EE0F92E882311F08CE0C4
:103E7000F82E6091B9047091BA04D0E0CE01880F99
:103E8000991F6130710509F071C08C0F9D1F8C0165
:103E9000075E1B4F4E2D61E070E08F2D0E94BE1912
:103EA000F801608371838283CE0147978C01000FF4
:103EB000111F080F191F075E1B4F6091B904709105
:103EC000BA04409100028F2D0E94BE19F801608350
:103ED00071838283CE0148978C01000F111F080F58
:103EE000191F075E1B4F6091B9047091BA0440918D
:103EF00000028F2D0E94BE19F801608371838283B6
:103F0000CE0149978C01000F111F080F191F075E82
:103F10001B4F6091B9047091BA04409100028F2D3B
:103F20000E94BE19F801608371838283CE010196DD
:103F3000EC01CC0FDD1FC80FD91FC75EDB4F6091AE
:103F4000B9047091BA04409100028F2D0E94BE19ED
:103F5000688379838A83C0916E0380910002C111C6
:103F60000BC0803559F40E94EE1E08C0C80FD91F3F
:103F7000C75EDB4F4E2DE9CF8C33A9F38091000251
:103F80009BEF980F909300028650883C40F010926F
:103F900070038BE480930002CF5FC0936E03809127
:103FA0006E03833070F445E050E060E070E08FE92C
:103FB00098E0DF91CF911F910F91FF90EF900C94BB
:103FC0005589DF91CF911F910F91FF90EF900C9445
:103FD0008B718FE998E00E941089882309F4A9C0A9
:103FE00000910002002309F4A4C0E091FD03F091C8
:103FF000FE03319711E0E730F105A8F48827EC5F64
:10400000FF4D8F4F0C94899DAD200B201220A520D1
:10401000A720A920AB200E94714A14E0019719F053
:104020001FE001C01DE06091B9047091BA04D0E0B6
:10403000CE01880F991F6130710509F090C08C0F77
:104040009D1F9C01275E3B4F7901402F61E070E08E
:10405000812F0E94BE19F701608371838283CE0194
:1040600047977C01EE0CFF1CE80EF91E9701275EB6
:104070003B4F79016091B9047091BA0440910002FC
:10408000812F0E94BE19F701608371838283CE0164
:1040900048977C01EE0CFF1CE80EF91E9701275E85
:1040A0003B4F79016091B9047091BA0440910002CC
:1040B000812F0E94BE19F701608371838283CE0134
:1040C00049977C01EE0CFF1CE80EF91E9701275E54
:1040D0003B4F79016091B9047091BA04409100029C
:1040E000812F0E94BE19F701608371838283CE0104
:1040F0000196EC01CC0FDD1FC80FD91FC75EDB4F47
:104100006091B9047091BA0440910002812F0E941D
:10411000BE19688379838A838091000281508093DD
:10412000000245E050E060E070E08FE998E00E9416
:10413000558980910002882309F443CFDF91CF9104
:104140001F910F91FF90EF9008951BE16CCF19E143
:104150006ACF18E168CF1CE166CF16E164CFC80FC3
:10416000D91FC75EDB4F402FD1CFEF920F931F9324
:10417000CF93DF93109225091092260987E00E94C1
:104180002D481092B8041092B7041092F0031092C8
:104190006D0310926B031092F4081092F5081092C0
:1041A000CF081092D008109273032091150430911B
:1041B000160480911302815080939303109292030E
:1041C0002130310509F06BC08091110490911204E7
:1041D000019709F059C00E946B500E94484F80918E
:1041E000F20381110E94084F10929D0810929E08C0
:1041F00010926B0810926C08109257081092580891
:1042000040E050E0BA0181E898E00E9455890E94A0
:10421000EE1E0E94F8090E94FC5210926C0310924C
:104220006A03109269031092090B10920A0B809195
:10423000FD039091FE038230910509F400C18330A3
:10424000910509F468C0019709F403C10E94714AFD
:104250008130910509F4AEC088F1039709F4EBC0F1
:1042600089E598E00E94CA88683873418105910504
:1042700008F0C7C0E12C10E000E020E04091BB0551
:1042800060E083E891E045C00E94FB5085E090E04B
:1042900090930302809302020E943B4BA0CF0E94A6
:1042A000FB5083E090E090930302809302028091A0
:1042B000F203811197CF0E943B4B96CF809113025E
:1042C000853009F44AC089E598E00E94CA88E12C4B
:1042D00010E000E0683873418105910508F48AC058
:1042E00089E598E00E94CA88E12C10E000E0603186
:1042F00077428105910538F420E04091BB0560E0EC
:104300008AE090E006C020E04091BB0560E080E8D4
:1043100091E00E94980E8091FD039091FE038230FF
:10432000910509F408C18330910509F4BBC00197D8
:1043300009F408C1C09113020E94714AC53009F402
:10434000E4C08130910509F495C008F48CC003974E
:1043500009F4D8C080E690E088C089E598E00E9422
:10436000CA88683873418105910550F4E12C10E04A
:1043700000E020E04091BB0560E088E891E0C9CF13
:1043800089E598E00E94CA88E12C10E000E06031E5
:1043900077428105910538F420E04091BB0560E04B
:1043A0008BE891E0B6CF20E04091BB0560E08AE861
:1043B00091E0AFCF89E598E00E94CA8868387341E0
:1043C0008105910550F4E12C10E000E020E04091DF
:1043D000BB0560E08BE090E09CCF89E598E00E940F
:1043E000CA88E12C10E000E0603177428105910538
:1043F00008F082CF20E04091BB0560E087E490E0C8
:1044000088CF89E598E00E94CA88E12C10E000E09E
:10441000603177428105910538F420E04091BB0579
:1044200060E082E891E075CF20E04091BB0560E05C
:1044300081E891E06ECFE12C10E000E0EECFE12CBE
:1044400010E000E020E04091BB0560E085E390E0F3
:1044500060CFE12C10E000E020E04091BB0560E07F
:104460008BE390E056CF8DE791E00E94FB0D8EE745
:1044700091E006C084E690E00E94FB0D83E690E0A8
:104480000E94FB0D80910902882321F089E090E0D1
:104490000E94FB0D88E490E00E94FB0D82E690E014
:1044A0000E94FB0D80916F03882331F1C091B50408
:1044B000D091B60480910504909106048130910555
:1044C00009F44CC0029709F044C0239741F48EE6EA
:1044D00090E00E94FB0D8FE690E00E94FB0DE12C26
:1044E00010E000E020E04091BB0560E08FE690E046
:1044F0000E94980E10926F03DF91CF911F910F9140
:10450000EF9008958FE491E0B0CF8130910569F08C
:1045100028F0039769F08BE990E0B2CF87E891E04B
:104520000E94FB0D89E891E0ABCF81E690E0A8CF37
:104530008FE491E0A5CF83E390E00E94FB0D84E33C
:1045400090E0AECF89E390E00E94FB0D8AE390E01B
:10455000A7CF0E94714A029708F0B7CF239741F482
:104560008AE490E00E94FB0D89E490E00E94FB0D3C
:10457000E12C10E000E020E04091BB0560E089E420
:1045800090E0B6CFEF920F931F93CF938091B70433
:104590009091B8040697C9F4E091FD03F091FE03F1
:1045A000319789E0E730F10570F48827E552FD4D39
:1045B0008F4F0C94899DA723A923E222AB23AD231F
:1045C000AF23B1238CE00E942D480E94A649029798
:1045D00008F4C9C00E9443488091B7049091B80480
:1045E000049721F080916303882361F083E490E0D5
:1045F0000E94FB0D8FE390E00E94FB0D84E490E0AD
:104600000E94FB0D89E491E00E94FB0D8CE691E095
:104610000E94FB0D8091B7049091B804C091630390
:10462000079709F0A9C0C111ADC0C091F103C11134
:10463000A9C0109200041092FF031092B8041092C7
:10464000B7048091F00381110E94B52080910E0281
:10465000882359F082E50E942D48CC2319F089E582
:104660000E942D4883EC0E942D480E94080E0E9453
:10467000060F81E00E945D0E0E94CC488EE390E020
:104680000E94FB0D8091FD039091FE038230910505
:1046900009F403C18330910509F405C1019709F4B8
:1046A000FFC086E090E00E94FB0D8091B7049091DE
:1046B000B8040797B9F08091F103882399F08091AD
:1046C0000E02882319F08BEB0E942D48EE24E39410
:1046D00010E000E020E04091BB0560E08EE591E055
:1046E0000E94980E1092640381E08093050210925C
:1046F0001B0910921C0910920406109205061092D4
:104700004D0810924E0810924308109244081092DF
:10471000C5081092C6081092BB081092BC08809180
:10472000FF0390910004892B69F480911704909104
:104730001804019709F0BAC00E947E4910929603AE
:1047400010929503CF911F910F91EF9008958BE0F8
:104750003ACF8AE038CF8DE036CF8EE034CF8FE08D
:1047600032CF80E130CF80919703811135CF8CE437
:1047700091E00E94FB0D30CFC1118DC08091F103FB
:1047800081115FCF85E00E942D48109200041092A5
:10479000FF031092B8041092B7048091F1038823AC
:1047A00041F084E991E00E94FB0D8BE691E00E94CC
:1047B000FB0D8091F103811103C08091F2038111FF
:1047C0000E948B71C091F203C11128C00E94A649BA
:1047D000029730F58091170490911804892B09F005
:1047E00055C080919703811151C08091F1038111CF
:1047F0004DC0C091F703CC2309F448C08BEF90E083
:104800000E94FB0DEE24E39410E000E020E04091D4
:10481000BB0560E08BEF90E00E94980EC0E036C0D0
:1048200080919703811117C0C091F103C11131C06C
:104830008091B7049091B804049769F0EE24E39452
:1048400010E000E020E04091BB0560E081E990E0ED
:104850000E94980EC1E08091F103811117C08091F0
:104860000E02882319F08AEB0E942D4881E190E026
:104870000E94FB0DEE24E39410E000E020E0409164
:10488000BB0560E081E190E00E94980E1092F10378
:10489000D8CEC0E0E0CFC0E0D4CE80E390E003CF3C
:1048A00085E490E000CF86E490E0FDCE1092FE0813
:1048B0001092FF081092CF081092D0080E94065163
:1048C0003BCFEF920F931F930E94C22282E090E0B1
:1048D000909300048093FF0387E090E09093B804E6
:1048E0008093B7048091F103811141C040E456E008
:1048F00060E070E08DEB98E00E94558940E951E05E
:1049000060E070E083EB98E00E94558940E951E057
:1049100060E070E08CEF95E00E94558980910E0276
:10492000882331F08DEB0E942D488CEB0E942D489E
:10493000E12C10E000E020E04091BB0560E083E462
:1049400090E00E94980E20E04091BB0560E08FE36C
:1049500090E00E94980E20E04091BB0560E084E466
:1049600090E00E94980E1F910F91EF9008950E9481
:10497000A6494091BB05EE24E394039791F410E01F
:1049800000E020E060E084E991E00E94980E8091D0
:104990000E02882341F387EC1F910F91EF900C9446
:1049A0002D4804EC19E021E061E08BE691E0EDCFC9
:1049B000EF920F931F93109264031092F10381E022
:1049C000809305021092DC051092DD0520911704FA
:1049D000309118042130310539F5309300042093CB
:1049E000FF031092B8041092B70480917A0A8111E3
:1049F00017C080910E02882319F08FEB0E942D487A
:104A00008CEF90E00E94FB0DEE24E39410E000E0B8
:104A100020E04091BB0560E08CEF90E00E94980E92
:104A200084E00E942D480EC02091EF099091EA0980
:104A300029130DC090910A02992349F080936303D2
:104A40000E9461241F910F91EF900C940E1081E051
:104A500090E0909300048093FF031092B8041092AA
:104A6000B704DECFEF920F931F938091B70490911C
:104A7000B804039729F48091F00381110E94B520B6
:104A800084E090E09093B8048093B7048091F7039A
:104A9000882341F04CEA5DE060E070E083E199E05A
:104AA0000E9455890E94080E0E94060F81E00E9414
:104AB0005D0E80919B03882309F460C01092FE086C
:104AC0001092FF080E94FB5080910E02882331F063
:104AD0008CEB0E942D488DEB0E942D4840E951E05F
:104AE00060E070E08CEF95E00E945589E12C10E0C9
:104AF00000E020E04091BB0560E083E490E00E948C
:104B0000980E20E04091BB0560E08FE390E00E94AA
:104B1000980E20E04091BB0560E084E490E00E94A4
:104B2000980E40E951E060E070E088EE95E00E9468
:104B3000558940E456E060E070E08EED95E00E941B
:104B4000558980910E02882319F08AEB0E942D4826
:104B500081E190E00E94FB0DEE24E39410E000E080
:104B600020E04091BB0560E081E190E00E94980E5A
:104B700082E11F910F91EF900C942D4880910104D8
:104B800090910204029789F490E08EE1891B809352
:104B9000920385E0809393030E94D04E48E750E053
:104BA00060E070E086EF98E0CACF92E0EECFEF923F
:104BB0000F931F93CF93DF938091B7049091B80424
:104BC000AC01445051093091790A2091740A433064
:104BD000510508F4B1C24091F2034111ADC2321740
:104BE00061F081E090E09093B8048093B704DF9186
:104BF000CF911F910F91EF900895809164038330BE
:104C000008F495C081E08093F1030E9461240E9422
:104C10002F050E94A649C8EBDBE0039711F4C8E812
:104C2000D3E180911302833009F47BC008F06EC099
:104C3000823009F479C0AE0170E060E082EF95E067
:104C40000E945589BE0188E00E94E14780910D02D3
:104C5000882369F28091170490911804892B39F602
:104C60009091EF098091EA09981709F29091340A1E
:104C700080912F0A9813BBCF80911002882309F4EA
:104C8000B6CF8091C30A882309F44AC285E090E038
:104C90009093B8048093B7048091F703882371F14F
:104CA00040ED57E060E070E083E199E00E945589B3
:104CB00083E591E00E94FB0D83E991E00E94FB0DEA
:104CC00088E591E00E94FB0DEE24E39410E000E003
:104CD00020E04091BB0560E087E591E00E94980EDE
:104CE0008091FD039091FE03029741F420E04091F2
:104CF000BB0560E083E591E00E94980E83E1DF91BF
:104D0000CF911F910F91EF900C942D48843031F08A
:104D1000853009F090CFC053D84F8DCFC452DA4FB1
:104D20008ACFC851DC4F87CFCC50DE4F84CF8091E3
:104D300062038823A9F085E498E00E94CA88672B63
:104D4000682B692B69F4109262030E94A6490297AE
:104D500038F48091B7049091B804039709F0109843
:104D60009091BE0A8091B90A981349C09091EF09B9
:104D70008091EA09981343C09091340A80912F0AD8
:104D800098133DC0809104028823C9F18091FD03EE
:104D90009091FE038130910509F4CFC0039709F487
:104DA000EEC082EF95E00E94CA88672B682B692BC2
:104DB00051F41092640348EE53E060E070E082EF3B
:104DC00095E00E94558980916D03811105C0809105
:104DD00064038F5F8093640380916403833078F46D
:104DE0008091B7049091B804039731F083E090E08C
:104DF0009093B8048093B70481E080936D03209171
:104E0000AA093091A5098091FA039091FB030197BB
:104E1000029708F0DEC03213CBC09091EF09809169
:104E2000EA09981338C09091340A80912F0A981398
:104E300032C080910402882371F182EF95E00E94D4
:104E4000CA88672B682B692B51F41092640348EED3
:104E500053E060E070E082EF95E00E945589809118
:104E60006B03811105C0809164038F5F809364039D
:104E700080916403833078F48091B7049091B804F2
:104E8000039731F083E090E09093B8048093B704E7
:104E900081E080936B039091BE0A8091B90A9817C4
:104EA000E9F08091FD039091FE038130910509F4B2
:104EB00031C1039709F42EC18091F003882371F06A
:104EC00080916D03882351F080916B0381111DC186
:104ED0001092B8041092B70410926D039091AA0931
:104EE0008091A509981709F4B1CE8091FA039091A9
:104EF000FB03892B09F0AACE8091FD039091FE035C
:104F00008130910549F008F408C18230910509F417
:104F100004C1039709F09ACE8091F003882309F425
:104F200095CE80916D03882309F490CE1092B80439
:104F30001092B70410926D0389CE809161038111A4
:104F40005ECF85E498E00E94CA88672B682B692BA6
:104F500009F055CF8091B7049091B80448E552E02C
:104F600060E070E0039709F44ACF85E498E00E947E
:104F700055890E94CB9381E08093610340CF80915B
:104F8000610381113CCF85E498E00E94CA88672BB9
:104F9000682B692B09F033CF8091B7049091B80446
:104FA000039709F42CCF4AEF50E060E070E0DDCFCA
:104FB00080916D0381110AC08091B7049091B8046B
:104FC000039721F41092B8041092B70410926B0367
:104FD00062CF8091FD039091FE03009759F44091B8
:104FE000B7045091B8044330510521F4321709F445
:104FF0004FCF51CF32134FCF3091EF092091EA09B3
:10500000321349CF3091340A20912F0A321343CF03
:1050100020910402222309F43ECF8130910541F012
:10502000B8F18230910509F44EC0039709F033CFEF
:1050300082EF95E00E94CA88672B682B692B51F498
:105040001092640348EE53E060E070E082EF95E078
:105050000E94558980916D03811105C08091640380
:105060008F5F8093640380916403833008F013CFD3
:105070008091B7049091B804039731F083E090E0F9
:105080009093B8048093B70481E080936D0303CFBD
:10509000809161038111FFCE85E498E00E94CA8867
:1050A000672B682B692B09F0F6CE40ED57E060E0E6
:1050B00070E085E498E00E9455890E94CB9381E0DE
:1050C00080936103E8CE809161038111E4CE8091E9
:1050D000B7049091B804039709F4DDCE8091620380
:1050E000811110C04EEE52E060E070E085E498E07F
:1050F0000E9455890E94CB93809162038F5F8093B9
:105100006203DDCF8230D8F6F5CF0E943B128111C9
:10511000DFCEE2CE10926103E1CE1092610396CD14
:105120008091C00A882309F462CDDF91CF911F914D
:105130000F91EF900C943225321353CD892B09F047
:1051400056CD84E99AE00E94688981110FC0809150
:10515000FA039091FB030197029708F048CD80E88D
:1051600099E00E946889882309F441CD8091A708BD
:1051700081113DCD9091340A80912F0A981337CD3B
:105180009091EF098091EA09981331CD80910E0238
:10519000882319F08BEB0E942D488EE591E00E9448
:1051A000FB0DEE24E39410E000E020E04091BB050D
:1051B00060E08EE591E00E94980EDF91CF911F9103
:1051C0000F91EF900C942F058091B9049091BA043F
:1051D000019709F044C00E94714A2091F103833085
:1051E000910511F5211104C08091F203882361F02B
:1051F0008091FD039091FE03892BC9F5809198035E
:10520000811135C08EE020C080916F03882321F08A
:10521000809198038823B1F38091FD039091FE0360
:10522000029739F580E110C0211121C02091F203CD
:1052300021111DC02091FD033091FE032230310564
:10524000C1F4019779F784E04FEF61E070E00E94CC
:10525000BE1960933D0470933E0480933F04809197
:10526000FD039091FE03029709F0129A08958CE0D5
:10527000EBCF81E0E9CF8091710381111BC0809158
:1052800013028150209115043091160480939303EA
:10529000109292032130310509F057C0809111041A
:1052A00090911204019709F045C00E946B500E9432
:1052B000484F109A8091FD039091FE03029701F5EB
:1052C00040E050E0BA0187E798E00E9455890E94CB
:1052D000714A6091B9047091BA044FEF019709F0D7
:1052E00039C081E00E94BE190E94B07140E050E0D8
:1052F000BA0181E898E00E9455898EE0809371039D
:10530000E0917103EE3008F031C0F0E08827E457F7
:10531000F64D8F4F0C94899DAC29D929F2291B2A6F
:10532000492A8A2AC62AFD2A2A2B572B862BA02BEC
:10533000B52BC12B0E94FB5085E090E090930302B7
:10534000809302020E943B4BB4CF0E94FB5083E04B
:1053500090E0F4CF8FE0C6CF8091FD039091FE03E3
:105360008130910501F1C8F0039701F1809171033B
:105370008F5F809371038E3008F006C28091FD0329
:105380009091FE0342E1892B09F444E250E070E081
:1053900060E08DE698E00C94558965E070E080E06F
:1053A0000E94EE19E3CF65E170E0F9CF6DE070E0A7
:1053B000F6CF8091FD039091FE038130910579F045
:1053C00028F0039799F66BE070E0E9CF67E070E0B2
:1053D00080E00E94EE1965E070E081E0E1CF64E1D9
:1053E00070E0DDCF8091FD039091FE038130910547
:1053F000D1F058F0039709F0B9CF69E070E080E090
:105400000E94EE196DE070E0E8CF61E070E080E0AE
:105410000E94EE1967E070E081E00E94EE1965E0FD
:1054200070E082E0BDCF63E170E080E00E94EE19A1
:1054300065E170E0D2CF8091FD039091FE03813051
:105440009105F9F058F0039709F090CF67E070E00C
:1054500080E00E94EE196BE070E0BFCF67E070E083
:1054600080E00E94EE1961E070E081E00E94EE1998
:1054700067E070E082E00E94EE1965E070E083E092
:105480008FCF66E170E080E00E94EE1964E170E089
:10549000A4CF8091FD039091FE038130910569F1C5
:1054A00080F0039709F062CF65E070E080E00E9431
:1054B000EE1969E070E081E00E94EE196DE070E0A5
:1054C000B0CF65E070E080E00E94EE1967E070E028
:1054D00081E00E94EE1961E070E082E00E94EE1926
:1054E00067E070E083E00E94EE1965E070E084E020
:1054F0000E94EE190E94E42839CF61E070E080E05C
:105500000E94EE1963E170E081E00E94EE1965E10E
:1055100070E087CF8091FD039091FE03813091056B
:1055200041F180F0039709F021CF70E060E080E066
:105530000E94EE1967E070E081E00E94EE196BE0D6
:1055400070E06FCF70E060E080E00E94EE1965E0EF
:1055500070E081E00E94EE1967E070E082E00E9456
:10556000EE1961E070E083E00E94EE1967E070E000
:10557000CBC070E060E080E00E94EE1966E170E070
:1055800081E00E94EE1964E170E04BCF8091FD0351
:105590009091FE038130910519F180F0039709F095
:1055A000E5CE65E070E081E00E94EE1969E070E010
:1055B00082E00E94EE196DE070E061CF70E060E083
:1055C00081E00E94EE1965E070E082E00E94EE1931
:1055D00067E070E083E00E94EE1961E070E094C043
:1055E00061E070E081E00E94EE1963E170E082E02A
:1055F0000E94EE1965E170E042CF8091FD03909129
:10560000FE0381309105C9F080F0039709F0AECE1A
:1056100070E060E081E00E94EE1967E070E082E0F7
:105620000E94EE196BE070E02ACF70E060E082E04B
:105630000E94EE1965E070E096CF70E060E081E0D6
:105640000E94EE1966E170E082E00E94EE1964E1CA
:1056500070E015CF8091FD039091FE03813091059C
:10566000C9F080F0039709F081CE65E070E082E038
:105670000E94EE1969E070E083E00E94EE196DE08F
:1056800070E035CF70E060E083E00E94EE1965E0E5
:1056900070E03AC061E070E082E00E94EE1963E1E0
:1056A00070E083E00E94EE1965E170E020CF809108
:1056B000FD039091FE0381309105D1F080F00397B6
:1056C00009F054CE70E060E082E00E94EE1967E0DD
:1056D00070E083E00E94EE196BE070E015C070E0AE
:1056E00060E084E00E94EE198EE0809371033ECE6C
:1056F00070E060E082E00E94EE1966E170E083E015
:105700000E94EE1964E170E084E04ACE8091FD03CE
:105710009091FE038130910559F0039709F026CE50
:1057200065E070E083E00E94EE1969E070E0ECCF84
:1057300061E070E083E00E94EE1963E170E0E4CF85
:105740008091FD039091FE038130910531F0039724
:1057500009F00CCE70E060E006CF70E060E083E01E
:105760000E94EE1966E170E0CFCF8091FD03909129
:10577000FE038130910509F430CF039709F487CFF8
:10578000F5CD70E060E0C0CF0E94EE1E109275086B
:1057900010927608109271030E94A649029768F44D
:1057A0008091B7049091B804039739F08091FD037C
:1057B0009091FE03029709F010980895EF92FF92DE
:1057C0000F931F93CF93DF938091B9049091BA0404
:1057D000C0911102C150019709F4C4E28091700395
:1057E0009091F103911105C09091F203992309F46E
:1057F000CFC090916E0391110AC0853650F0DF91B1
:10580000CF911F910F91FF90EF900C94021F8C3459
:10581000B0F78FE998E00E941089882341F0E0906A
:105820006E0380917003E11009C0853648F0DF9166
:10583000CF911F910F91FF90EF9008958C34B8F79E
:105840000E94714A039761F48091FD039091FE03D9
:10585000892B31F4809198039EE0F92E882311F072
:105860008CE0F82E6091B9047091BA04D0E0CE01BA
:10587000880F991F6130710509F070C08C0F9D1F52
:105880008C01075E1B4F4091700361E070E08F2D2B
:105890000E94BE19F801608371838283CE0147970D
:1058A0008C01000F111F080F191F075E1B4F60911D
:1058B000B9047091BA04409170038F2D0E94BE19F3
:1058C000F801608371838283CE0148978C01000FB9
:1058D000111F080F191F075E1B4F6091B9047091CB
:1058E000BA04409170038F2D0E94BE19F8016083A5
:1058F00071838283CE0149978C01000F111F080F1D
:10590000191F075E1B4F6091B9047091BA04409152
:1059100070038F2D0E94BE19F8016083718382830A
:10592000CE010196EC01CC0FDD1FC80FD91FC75E59
:10593000DB4F6091B9047091BA04409170038F2DD0
:105940000E94BE19688379838A8380917003E11075
:105950000AC0803551F40E94E42807C0C80FD91F3F
:10596000C75EDB4FEACF8C33B1F3809170038B5F5E
:105970008093700345E050E060E070E08FE998E0CC
:10598000DF91CF911F910F91FF90EF900C9455896B
:10599000853608F034CF8FE998E00E94108988237B
:1059A00009F445CF00917003053608F040CFE0912F
:1059B000FD03F091FE03319711E0E730F105A8F403
:1059C0008827EA51F34D8F4F0C94899D7A2DED2C49
:1059D000F42C722D742D762D782D0E94714A14E0CE
:1059E000019719F01FE001C01DE06091B9047091AA
:1059F000BA04D0E0CE01880F991F6130710509F01B
:105A00007BC08C0F9D1F9C01275E3B4F7901402F6F
:105A100061E070E0812F0E94BE19F70160837183FD
:105A20008283CE0147977C01EE0CFF1CE80EF91E25
:105A30009701275E3B4F79016091B9047091BA04D8
:105A400040917003812F0E94BE19F701608371831A
:105A50008283CE0148977C01EE0CFF1CE80EF91EF4
:105A60009701275E3B4F79016091B9047091BA04A8
:105A700040917003812F0E94BE19F70160837183EA
:105A80008283CE0149977C01EE0CFF1CE80EF91EC3
:105A90009701275E3B4F79016091B9047091BA0478
:105AA00040917003812F0E94BE19F70160837183BA
:105AB0008283CE010196EC01CC0FDD1FC80FD91FE8
:105AC000C75EDB4F6091B9047091BA0440917003D6
:105AD000812F0E94BE19688379838A838091700325
