:100000000C9480050C94B1050C94B1050C94B105C9
:100010000C94B1050C94B1050C94B1050C94B10588
:100020000C94B1050C94B1050C94B1050C94B10578
:100030000C94B1050C94B1050C94B1050C94B10568
:100040000C94B1050C94B1050C94B1050C94B10558
:100050000C94B1050C94B1050C94B1050C948B89EA
:100060000C94B1050C94738D0C94498D0C94B105CE
:100070000C94B1050C94B1050C94B1050C94B10528
:100080000C94B1050C94B1050C94B1050C94B10518
:100090000C941F8D0C94F58C0C94B1050C94179056
:1000A0000C94B1050C94B1050C94B1050C94B105F8
:1000B0000C94B1050C94B1050C94B1050C94B105E8
:1000C0000C94B1050C94B1050C94B1050C94B105D8
:1000D0000C94B1050C94B1050C94CB8C0C94A18CB0
:1000E0000C94B1050C94F80E0C94E4710C94A94A8C
:1000F0000C94F46A0C946C220C946F220C94161DD0
:100100000C94975F0C945C770C94A2220C94488713
:100110000C94FA8B0C94D0750C94AB4A0C94C87761
:100120000C94B5350C9459760C94C10E0C94F622AF
:100130000C948A730C9492220C94F16D0C94A52269
:100140000C94864A0C94B28B0C94E3810C948081BD
:100150000C94C4340C9431360C9485870C9435522D
:100160000C94FB730C94FB050C94895E0C94485A18
:100170000C94AD760C94137B0C9436770C94025D42
:100180000C947C220C94A34F0C943A4D0C946D81EA
:100190000C9461870C9400700C9435470C94FC7699
:1001A0000C94F4710C94A4610C942D330C94672777
:1001B0000C944D870C94A54A0C9495220C944C7881
:1001C0000C9471220C94AD360C940A780C942B2369
:1001D0000C9425740C946D270C94DA870C94B481DC
:1001E0000C948A7F0C94757A0C943A720C9448346F
:1001F0000C9457870C94FE740C941A760C94642219
:100200000C94EB330C9447220C9410230C947E5ED8
:100210000C9421720C946B7F0C94A4780C94928BA8
:100220000C94E97E0C94DD7F0C9415420C94BE5323
:100230000C9419770C947C7F0C94CF4E0C94C68749
:100240000C945F7B0C9463500C9477740C9407505F
:100250000C94101D0C94737F0C946F7F0C94DB7FB7
:100260000C941F520C94A17A0C9470730C94F97531
:100270000C9401740C94A5340C9429340C94921CA5
:100280000C949C7F0C941A420C9484730C943450FC
:100290000C9469220C947B870C943D520C948376C9
:1002A0000C94F5050C94E0780C94BC0E0C94C68B61
:1002B0000C94C60E0C94987F0C94DC7F0C94204D0B
:1002C0000C94C4530C94D0870C945B720C944A75B4
:1002D0000C9463790C940A340C94100F0C94AD4A6E
:1002E0000C94DF760C94C2780C94E37E0C948673A5
:1002F0000C948E220C94857B0C94A0800C94F805B1
:100300000C947D500C943E4D0C94F4770C946272D6
:100310000C941C790C94C46E0C9432800C944C5A3E
:100320000C942E0F0C94C65E0C9471770C946F365F
:100330000C9405090C9498220C94DE770C94A57902
:100340000C94947F0C9408720C94121D0C948F22C0
:100350000C9455750C94A8220C940C1D0C94F09DD3
:100360000C945B5A0C94828B0C94B2870C943C4D89
:100370000C945C330C948C730C9435790C9482221D
:100380000C94D4350C94EC730C9482730C94FE7121
:100390000C9405730C9471270C94D1790C94C76E4E
:1003A0000C94CC330C94AD330C949E500C9479790E
:1003B0000C9446800C943D5F0C94D8080C941D421C
:1003C0000C94EB0E0C945F720C9439520C942F76B3
:1003D0000C94E3340C9457720C946E760C94315256
:1003E0000C9467340C946B870C9436780C94674F9C
:1003F0000C94A45F0C947F220C94FF050C948C8BBE
:100400000C94BC870C94698B0C94BB790C947B3353
:100410000C9439350C9458350C949B220C948522FD
:100420000C9440870C940A090C94BA710C946F27B1
:100430000C94141D0C948B7A0C94A17F0C94238043
:100440000C94CF710C945E810C9454800C94617F59
:100450000C949C770C949E220C9477350C948E7897
:100460000C94C2530C9479220C9474220C947878D6
:100470000C94C6530C94C2760C94FD720C94676F66
:100480000C9488730C9418420C9406330C94537299
:100490000C948F870C942B750C9496350C94577A8A
:1004A0000C94B70E0C94EB710C94C0530C941C3547
:1004B0000C948E360C94677F0C94A7750C948B2249
:1004C0000C94A8870C94BA6E0C9462780C94A74A8A
:1004D0000C94A4740C94E67E0C94C67E0C94FE7866
:1004E0000C94A15F0C9499870C9486340C94264F3D
:1004F0000C944A740C948E5E0C94CA6E0C94DA4F71
:100500000C94397B0C94FF810C948D4A0C94D3226B
:100510000C9434750C94CD7E0C949F0E0C94767FC5
:100520000C9476220C942D520C94BC530C940E1DFA
:100530000C949C710C9492500C94194D0C946B2754
:100540000C94A2260C94867F0C94B2770C941236ED
:100550000C94FD790C94F2A40C94B0720C947E75FA
:100560000C94ED800C9444760C94C16E0C94CF46A0
:100570000C94F3350C9480730C945D810C944D793C
:100580000C94EF050C943F750C94FE730C94AC7BAB
:100590000C94D1740C94807F0C94404D0C94738710
:1005A0000C9420780C9474530C948E7F0C94397AAC
:1005B0000C94B64E0C94F2720C94D3080C94E77918
:1005C0000C94EC7E0C9488220C94C77A0C946927C6
:1005D0000C94ED7A0C94616F0C9447770C947744EB
:1005E0000C94894E0C9423520C941F420C948677E1
:1005F0000C9498760C94A0710C94F84E0C94D07EC8
:100600000C94A27F0C9450360C9487810C94A67F96
:100610000C94384D0C948F790C94040F0C94D16E7B
:100620000C941B7A0C94E9055761726E696E673AF7
:100630002043616C63756C61746564206D757369CA
:100640006320636F756E74206578636565647320DD
:10065000343039363B205344206361726420636F29
:100660007272757074696F6E206C696B656C79213C
:10067000004E6F20417564696F204465766963653B
:10068000005573696E672057415620547269676739
:100690006572005761726E696E673A205253505FFF
:1006A00053595354454D5F494E464F206E6F742049
:1006B0007265636569766564210056657273696F5A
:1006C0006E3A20005573696E67204750537461720B
:1006D00020417564696F004505152535443424149F
:1006E0000443332313030212223242413121110108
:1006F00000102030404030201000011121314142D3
:1007000032221202031323334304142434443525C4
:100710001505453738393A3B3B3A39383700102010
:100720003001112131021222320313233304142425
:1007300034051525350616263636261606352515B2
:1007400005342414043323130332221202312111FD
:10075000013020100000050B11171D00040B1016AE
:100760001B0000000000000000000000000101016B
:100770000101010101020202020202030303030458
:10078000040404050505050606060707070808080A
:100790000909090A0A0B0B0B0C0C0D0D0E0E0F0F9D
:1007A000101011111212131314141515161717180F
:1007B00018191A1A1B1C1C1D1E1E1F202021222363
:1007C00023242526262728292A2A2B2C2D2E2F2F95
:1007D00030313233343536373838393A3B3C3D3EA8
:1007E0003F4041424344454647494A4B4C4D4E4F9A
:1007F0005051525455565758595B5C5D5E5F61626B
:100800006364666768696B6C6D6F7071737475771C
:1008100078797B7C7E7F808283858688898B8C8EAD
:100820008F9192949597989A9B9D9EA0A2A3A5A61E
:10083000A8AAABADAFB0B2B4B5B7B9BABCBEC0C16F
:10084000C3C5C7C8CACCCECFD1D3D5D7D9DADCDEA1
:10085000E0E2E4E6E8E9EBEDEFF1F3F5F7F9FBFDB3
:10086000FF436F6D6D616E6420746F205061636B28
:100870003A20004461746120746F205061636B3AC8
:100880002000536176696E67205061636B2050725F
:1008900065666572656E636573005061636B2053B6
:1008A000796E6320456E64005061636B2053796EEE
:1008B0006320537461727400526563762E205379FD
:1008C0006E63205061796C6F616400526563762EAF
:1008D00020536D6F6B6520436F6E666967005265CC
:1008E00063762E2057616E6420436F6E66696700E1
:1008F000526563762E204D6573736167653A2000FB
:10090000526563762E20436F6D6D616E643A2000F0
:1009100000191830011A172F021B162E031C152D53
:10092000041D142C051E132B061F122A0720112943
:100930000821102809220F270A230E260B240D2533
:10094000000102030405060708090A0B0C0D0E0F2F
:10095000101112131415161718191A1B1C1D1E1F1F
:100960002021222331302F2E2D2C2B2A29282726F7
:10097000000000006410B71DC8206E3BAC30D926C3
:100980009041DC76F4516B6B5861B24D3C7105506F
:100990002083B8ED44930FF0E8A3D6D68CB361CB97
:1009A000B0C2649BD4D2D38678E20AA01CF2BDBD4B
:1009B00000002100240027002A002D003000330011
:1009C00001010000040107010A01000022002500C6
:1009D00028002B002E003100340002010000050128
:1009E00008010B01000020002300260029002C0034
:1009F0002F00320000010000030106010901050576
:100A00000505070508080808020202020A0A080884
:100A100004040404010101010101010103030303B2
:100A200003030303040707070C0C0C0C0C0C0C0C41
:100A30000202020206060606060606060B0B0B0B52
:100A40000B0B0B0B01021020200808102040102077
:100A50004080020102010804020101020408102082
:100A60004080804020100804020180040201804080
:100A700020100804020108040201010204081020E9
:100A80004080010204081020408000000A0B020987
:100A90000C0D0E0807030401000000000000000018
:100AA0000000000000000000000000000000000046
:100AB0000000000000001211100000000000000003
:100AC0000000000000000000000000000000000026
:100AD0004552524F523A204E6F2063616C6C6261F6
:100AE000636B20617661696C61626C6520666F7210
:100AF000207061636B65742049442000F09DF2A46E
:100B000011241FBECFEFD1E2DEBFCDBF00E00CBF8E
:100B100013E0A0E0B2E0E8E4F1E501E00BBF02C0C1
:100B200007900D92AC35B107D9F72DE0ACE5B3E0F5
:100B300001C01D92AA38B207E1F715E0CFE7D5E072
:100B400000E006C021970109802FFE010E9468A6DF
:100B5000CE37D10780E00807A9F70E9419A10C94AD
:100B600092A80C9400009091E1039C3131F4E82F9D
:100B7000F0E0E55AF84F849108959E3129F4E82F6A
:100B8000F0E0EB5AF84FF7CF81E008952091E103B0
:100B900090917403E82FF0E02C3149F4992321F06F
:100BA000E75CF84F84910895E35EF84FFBCF2E3158
:100BB00041F4992319F0EB50F94FF4CFE952F94F72
:100BC000F1CF992319F0E85EF84FECCFED5EF84FC6
:100BD000E9CF80917B038F5F80937B0308958091A1
:100BE0007A038F5F80937A03089590E080E0089500
:100BF000FC0164870895FC01848590E00895FC0160
:100C00008685978508951092640384E68093020296
:100C10001092650345E050E060E070E088E299E002
:100C20000C94D38F0F931F93CF93DF9300D000D0FA
:100C3000CDB7DEB78FEF9FEFDC0189839A83AB835B
:100C4000BC8310E000E01E830D83BE016B5F7F4F0D
:100C5000CE0101960E949D8DBE016A5F7F4FCE013D
:100C600001960E949D8D0F5F1F4F0332110559F7AA
:100C70008EE190E09E838D83BE016B5F7F4FCE013E
:100C800001960E949D8DBE016A5F7F4FCE01019645
:100C90000E949D8D85E090E09E838D83BE016B5FF9
:100CA0007F4FCE0101960E949D8DBE016A5F7F4FEE
:100CB000CE0101960E949D8D69817A818B819C81F4
:100CC000609570958095909526960FB6F894DEBF46
:100CD0000FBECDBFDF91CF911F910F91089520914D
:100CE000ED032223D9F09C01275A314030938F0421
:100CF00020938E04885A91408115904138F484EFF6
:100D000091E09093910480939004089510928F0441
:100D100010928E0488E296E00C94E98A10928F0477
:100D200010928E040895FF920F931F93CF93DF9339
:100D3000EC01F62E08811981C8010E94ADA5F816B4
:100D400021F06F2DC8010E94B5A5CE01DF91CF9192
:100D50001F910F91FF900895EF92FF920F931F93B1
:100D6000CF93DF9300D000D0CDB7DEB70E9412063C
:100D700069837A838B839C83CE0101967C010CEF7F
:100D80001FE01E830D83F70161917F01CE0105965F
:100D90000E9493060F5F1F4F0115F0E11F0789F7AF
:100DA00026960FB6F894DEBF0FBECDBFDF91CF9170
:100DB0001F910F91FF90EF900895E2E0F1E08081A4
:100DC0008F7D808380818F7B80831098119880E055
:100DD0000E94585280E00E94E151EEE7F8E0108650
:100DE0001186089580911302833071F020F48230CF
:100DF00069F087E105C0843029F08530D1F78BE1B7
:100E00000C941A518AE1FCCF89E1FACF88E1F8CF3E
:100E10002091DD033091DE03A90143505109423096
:100E2000510518F02630310511F4882399F190917D
:100E3000130220911202921303C0811118C0089569
:100E40002917A8F481E08093630344E250E060E056
:100E500070E09330D9F070F44EE150E060E070E063
:100E60009230A1F049E150E060E070E00FC01092D4
:100E70006303EBCF4DE250E060E070E0943031F07E
:100E80004CE350E060E070E0953061F780E599E078
:100E90000C94D38F0895CF93C82F84E0C530F0F021
:100EA0000E94C60560E00E94638683E00E94C6053A
:100EB00060E00E94638682E00E94C60560E00E94B6
:100EC000638681E00E94C60560E00E94638680E040
:100ED0000E94C60560E0CF910C9463860E94C6050F
:100EE00061E00E946386C43001F383E00E94C6057E
:100EF00061E00E946386C330F1F282E00E94C60581
:100F000061E00E946386C230E1F281E00E94C60582
:100F100061E00E946386C111DACF80E00E94C605BD
:100F200061E0D9CFEF92FF920F931F93CF93DF939E
:100F300086EA98E00E94A38F882341F040E951E0BF
:100F400060E070E086EA98E00E94D38F8091E10330
:100F500010E08E3109F012E086EA98E00E945D8F81
:100F6000683C71058105910508F0CEC0C0919304DD
:100F7000CC2391F08091DD039091DE03069759F424
:100F800080911602853039F4C1E08091E903909197
:100F9000EA03892B09F0C0E08091D8039091D9032E
:100FA0000197029788F48091DD039091DE03069704
:100FB00059F480911602853039F48091E9039091BB
:100FC000EA03019709F4C1E0809168088A3B69F45B
:100FD0008091DD039091DE03069739F4D1E0809192
:100FE000E9039091EA03892B09F0D0E08091E103B5
:100FF0008C3169F105E08E3159F180E0DD2309F48F
:101000007BC00E94C60560E00E94638681E00E946A
:10101000C60561E00E94638682E00E94C60561E029
:101020000E94638683E00E94C60561E00E94638699
:1010300084E0CC2309F464C00E94C60560E0DF911F
:10104000CF911F910F91FF90EF900C94638604E075
:10105000CC2379F1C0E08EE190E07C01E11AF10847
:10106000CE151F04ACF4CC2369F0DD2311F0C017BA
:1010700010F0C93138F08C2F0E94C6050E94FD8403
:10108000CF5FEECF8C2F0E94C6050E94DF84F8CF81
:101090008091E1038E3129F48DE10E94C6050E9402
:1010A000DF84DF91CF911F910F91FF90EF900C940F
:1010B0002589DD23C9F0C1E08EE190E07C01E11AD1
:1010C000F108CE151F046CF78C2FCC2341F0C0170C
:1010D00030F40E94C6050E94FD84CF5FF2CF0E94CB
:1010E000C6050E94DF84F9CFDF91CF911F910F9148
:1010F000FF90EF900C941B890E94C60561E084CF9D
:101100000E94C60561E09BCF80911602833009F4EE
:10111000BDC068F4813009F40BC1823009F4E3C02A
:10112000DF91CF911F910F91FF90EF900895843040
:1011300009F47BC08530A1F78091E1038C3109F47B
:1011400039C08E3109F068C0C1E08EE190E09C01A9
:10115000211B31098901C01711060CF0A2CFEBEF5A
:10116000EC0FE93100F5F0E08827E654F74F8F4F98
:101170000C9468A6D808D808D308D308D308D30895
:10118000D808D808D308D308D308D308D808D80873
:10119000D308D308D308D308D808D808D308D3086D
:1011A000D308D308D8088C2F0E94C6050E94FD845E
:1011B000CF5FD1CFC1E08EE190E09C01211B3109CE
:1011C0008901C01711060CF06CCFECEFEC0FE53184
:1011D000E0F4F0E08827E051F74F8F4F0C9468A6B9
:1011E0000A090A090A090509050905090A090A0976
:1011F0000A090509050905090A090A090A0905096B
:10120000050905090A090A090A098C2F0E94C60561
:101210000E94FD84CF5FD5CF85E0DF91CF911F91F4
:101220000F91FF90EF900C944B078091E1038C316C
:1012300049F18E3149F5C1E0CD3038F48BEFCB3038
:1012400028F0CF5FC731C1F72CCF8FEE8C0F8230E3
:10125000C0F38C2F0E94C6050E94FD84F2CFCD30D2
:1012600038F48CEFCA3028F0CF5FC631C1F719CF00
:1012700080EF8C0F8330C0F38C2F0E94C6050E9434
:10128000FD84F2CFC1E0F8CF84E0C7CF8091E103C5
:101290008C3129F18E3129F5C1E0C53030F0C730ED
:1012A00048F085EF8C0F823028F08C2F0E94C60505
:1012B0000E94FD84CF5FC13181F7F3CEC43030F09E
:1012C000C73048F086EF8C0F833028F08C2F0E94B7
:1012D000C6050E94FD84CF5FC03181F7E2CEC1E038
:1012E000F5CF83E09ACF8091E1038C31E9F08E3124
:1012F000E9F4C1E08BEF8C0F823028F08C2F0E9434
:10130000C6050E94FD84CF5FCB30A1F7CACE8CEF1B
:101310008C0F833028F08C2F0E94C6050E94FD841C
:10132000CF5FCA30A1F7BDCEC1E0F5CF82E075CF67
:101330008091E1038C3161F08E31A1F4C1E08C2FFA
:101340000E94C6050E94FD84CF5FC530C1F7A9CEBB
:10135000C1E08C2F0E94C6050E94FD84CF5FC4307F
:10136000C1F79FCE81E059CF0F931F93CF93809108
:10137000E1038C3191F08E31B9F480E0C0E00EE1F0
:1013800010E0081B1109C01711064CF48C2F0E94A5
:10139000C6050E94FD84CF5FF6CF82E0EFCFCF91EC
:1013A0001F910F910C94258985E0CF911F910F918A
:1013B0000C944B07EF92FF920F931F93CF93DF9301
:1013C00000D01F921F92CDB7DEB78091E1038D7FD1
:1013D0008C3109F0E1C080E599E00E94A38F882359
:1013E00009F457C08091E10312E08E3109F410E056
:1013F00085E0E1E3F2E0DE01119601900D928A951D
:10140000E1F78091F6039091F703019731F48AE0B8
:1014100089838A838B838C838D8380916603282FB5
:1014200030E04EE150E07A01E11AF1089091630357
:10143000992309F458C02E153F0524F40E94C605CF
:101440000E943089809113028530E9F5809166030E
:101450008E151F0451F14CF1109263038EE1811B34
:10146000809366038091F6039091F7034AE550E07C
:1014700060E070E0019711F5109258091092590937
:1014800080916303882329F0809166038F5F8093A6
:1014900066030F900F900F900F900F90DF91CF91F8
:1014A0001F910F91FF90EF9008954D8184E0489F28
:1014B000A0011124052E000C660B770B80E599E046
:1014C0000E94D38FDDCF0E94B305909166039817D9
:1014D00018F010926303C6CFE0911302EC0FFD2FBA
:1014E000F11D4081E3CF2E153F0524F40E94C6056F
:1014F0000E94298910916603111116C081E0809322
:1015000063034AE550E060E070E080E599E00F9009
:101510000F900F900F900F90DF91CF911F910F912F
:10152000FF90EF900C94D38F11501093660301E05D
:101530008091E1038E3109F400E080911302209143
:10154000F6033091F7038530A9F42130310541F4D9
:101550001E151F042CF4109258091092590999CFA6
:101560004D8184E0489FA0011124052E000C660BDC
:10157000770BCBCF2130310541F40E94B305800FAA
:101580009927991F1817190634F3E0911302EC0FED
:10159000FD2FF11D4081E5CF809113028330C9F00A
:1015A00080F48230A1F081E00F900F900F900F90A7
:1015B0000F90DF91CF911F910F91FF90EF900C94BE
:1015C0004B07843041F0853071F785E0EDCF82E044
:1015D000EBCF83E0E9CF84E0E7CFEF92FF920F9368
:1015E0001F93CF939091E103809113029C3199F066
:1015F00010E09E3189F0833009F458C008F04DC0E6
:10160000823009F451C081E0CF911F910F91FF907A
:10161000EF900C944B0712E0212F30E0C0E08530B2
:10162000D9F48EE190E07C01E21AF30ACE151F0492
:101630003CF48C2F0E94C6050E94FD84CF5FF6CF3C
:101640000E9425898EE1811B80936603CF911F91B3
:101650000F91FF90EF9008950EE110E0021B130B25
:10166000C01711069CF4809113020E94B3058C17D9
:1016700038F08C2F0E94C6050E94FD84CF5FF0CF0A
:101680008C2F0E94C6050E94DF84F8CF0E94258916
:10169000809113020E94B305D7CF843049F0853082
:1016A00009F0B1CF85E0B0CF82E0AECF83E0ACCF20
:1016B00084E0AACF8091F6039091F703019739F463
:1016C00080E190E09093040280930302089583E008
:1016D00090E090930402809303028091DD03909147
:1016E000DE03049761F08091D2039091D3030197B8
:1016F00069F78091DF039091E003892B39F786E049
:1017000090E0E0CF8091E1038D7F8C3121F40E9445
:101710001B891092660308951092D3031092D2038E
:101720001092D9031092D80310926B0310926A039F
:101730000895E2E6FBE01086118610926D0370E0DA
:1017400060E08BE00C9408874091EB035091EC0330
:101750004330510551F190910C02992331F12091C0
:10176000DD033091DE0324303105F9F09091D5038B
:1017700091111BC09091D7039923B9F09091CC0897
:1017800042305105A1F42330310511F0992369F05D
:1017900020916D0391110FC08217F9F080936D03B2
:1017A000682F70E08BE00C9408870C94990B2091C3
:1017B0006D03992381F0682F70E0660F771F6F3FEC
:1017C000710519F014F06FEF70E02617170629F075
:1017D00060936D03E7CF2813E1CF0895CF938091F5
:1017E000E1038C3109F03FC1809166038C3128F10F
:1017F000883308F049C0C7E3C81B8091DD0390918E
:10180000DE03049729F08091D503882309F44EC0A4
:101810000E94990B8C2F0E94C6050E9429898091F5
:101820006603873309F042C1109287091092880934
:10183000109263031092660327C00E94C6050E949F
:10184000308980916603873108F181E40E94A40BFE
:10185000809166038F5F809366038C3109F047C1E6
:101860004AE550E060E070E08FE799E00E94D38F96
:101870008091F6039091F703019731F488E090E0AE
:101880009093040280930302CF910895813110F068
:1018900087E3DCCF8C3010F08DE2D8CF853010F0AC
:1018A00083E2D4CF8823A1F289E1D0CF8091F603DF
:1018B0009091F70320911302253018F4813091059F
:1018C00011F0892B29F48C2F0E94C6050E942989CA
:1018D0008091F6039091F7030097F9F00197A1F634
:1018E00080911302833009F475C098F5823009F4B1
:1018F0008FC08FE00E94A40B90916603923309F091
:10190000A5C010928709109288091092630384E0A1
:1019100080936603CF910C945A0B809166038733B2
:1019200009F03DC144E050E060E070E080E599E0FE
:101930000E94D38F109287091092880981E08093CA
:101940006303109266030E945A0B8FE0CF910C94B0
:10195000A40B843009F1853061F6909166039733CA
:1019600089F410925809109259091092870910921F
:101970008809109263038BE1809366030E945A0BDF
:1019800088E2E4CF109287091092880981E0809361
:10199000630387E3891BF0CF90916603903269F46B
:1019A00010928709109288091092630386E1809350
:1019B00066030E945A0B8DE2C9CF913208F42EC102
:1019C000109287091092880981E08093630387E36E
:1019D000891BEDCF90916603963269F410928709C6
:1019E000109288091092630380E1809366030E943D
:1019F0005A0B89E1ABCF973208F43CC110928709AA
:101A00001092880981E08093630387E3891BEDCFFF
:101A1000909166039B3269F41092870910928809AD
:101A2000109263038BE0809366030E945A0B84E15B
:101A30008DCF9C3208F442C1109287091092880918
:101A400081E08093630387E3891BEDCF933308F430
:101A5000A6C0109287091092880981E080936303E1
:101A600087E3891B55CF8E3109F048C18091660309
:101A70008E3150F18C3308F007CFCBE3C81B809137
:101A8000DD039091DE03049729F08091D50388232C
:101A900009F44CC00E94990B8C2F0E94C6050E942D
:101AA0002989809166038B3309F4BECE40E550E06E
:101AB00060E070E08FE799E00E94D38F8091660329
:101AC0008F5F80936603E0CE0E94C6050E94308936
:101AD000809166038831D0F081E40E94A40B80914C
:101AE00066038F5F809366038E3109F4B9CE40910F
:101AF000030250910402440F551F440F551F70E01C
:101B000060E08FE799E0CF910C94D38F823110F091
:101B100087E3E3CF8C3010F08DE2DFCF863010F01A
:101B200083E2DBCF8823D9F289E1D7CF8091F60316
:101B30009091F70320911302253018F4813091051C
:101B400011F0892B29F48C2F0E94C6050E94298947
:101B50008091F6039091F7030097E1F0019709F067
:101B600093CE80911302833009F46DC018F5823052
:101B700009F495C08FE00E94A40B90916603953301
:101B800009F0B0C01092870910928809109263037F
:101B900085E0BECE809166038B3309F4C3CE4091BD
:101BA000030250910402440F551F440F551F70E06B
:101BB00060E080CF8430D9F08530E1F69091660303
:101BC0009B3361F4109258091092590910928709B9
:101BD00010928809109263038DE1CECE109287098E
:101BE0001092880981E0809363038BE3D3CE9091B8
:101BF0006603933241F4109287091092880910927B
:101C0000630387E1D4CE943248F010928709109292
:101C1000880981E0809363038BE3DACE409103026D
:101C200050910402440F551F440F551F70E060E0AF
:101C30008FE799E00E94D38F809166038F5F809336
:101C400066038BE183CE90916603993241F4109242
:101C50008709109288091092630381E1C6CE9A32F7
:101C600048F0109287091092880981E080936303FD
:101C70008BE3CCCE4091030250910402440F551FD8
:101C8000440F551F70E060E08FE799E00E94D38F0A
:101C9000809166038F5F8093660383E257CE9091B5
:101CA00066039F3209F4B8CE48F01092870910926B
:101CB000880981E0809363038BE3C6CE40910302E1
:101CC00050910402440F551F440F551F70E060E00F
:101CD0008FE799E00E94D38F809166038F5F809396
:101CE000660387CE963308F45ACF10928709109274
:101CF000880981E0809363038BE3B3CE8091DD0399
:101D00009091DE03049721F08091D503C1E0811109
:101D1000C2E0E0916703EA3008F0B6CDF0E0882732
:101D2000EB56F14F8F4F0C9468A69F0EB70EBC0E6A
:101D3000C10EC60EEB0EF80E040F100F2E0F89E128
:101D40000E94A40B81E00E944B0788E7C89FA00176
:101D50001124052E000C660B770B8FE799E00E948B
:101D6000D38F809167038F5F809367038DCD83E26C
:101D70000E94A40B82E0E7CF8DE20E94A40B83E0D7
:101D8000E2CF87E30E94A40B84E0DDCF81E40E94D0
:101D9000A40B85E00E944B0780916703282F30E059
:101DA0002F5F3F4F909113029217130641F4209139
:101DB000DD033091DE032430310509F048C08F5F28
:101DC0008093670388E7C89FA0011124052E000CAB
:101DD000660B770B96CE87E30E94A40B84E00E94EB
:101DE0004B0780916703482F4150550B9A01DACF7A
:101DF0008DE20E94A40B83E00E944B078091670351
:101E0000482F4350550BF2CF83E20E94A40B82E08F
:101E10000E944B0780916703482F4550550BE6CF32
:101E200089E10E94A40B81E00E944B078091670327
:101E30008750990B209113022817190609F085CFB6
:101E40008091DD039091DE03049709F47ECF109218
:101E50008709109288091092670316CD80E00E94CE
:101E60004B07F5CF8091DF039091E003813091051E
:101E700039F48091DD039091DE03892B79F0089588
:101E8000892B51F58091DD039091DE03892B21F59B
:101E90008091D2039091D3030197F1F40E94820BB9
:101EA0001092AE081092AF0880917603811114C091
:101EB0000E945A0B8091E1038D7F8C3149F480910F
:101EC000F6039091F703019719F480E00E94080748
:101ED0000E94F2060C94EE0B08958091E703909116
:101EE000E8038230910581F038F4019799F08091F0
:101EF000E3039091E40308958330910541F0049742
:101F0000B1F783E090E0089581E090E0089582E0E9
:101F100090E0089590E080E0089510924E091092AC
:101F20004F0910924409109245098091D103811103
:101F30000BC00E946D0F02970297A0F48091DF03FF
:101F40009091E003019771F4109A0E946D0F02972F
:101F5000029730F48091DF039091E003019721F024
:101F6000119808951098F1CF119A08958091ED037A
:101F700081110C946D0F8091E3039091E403089517
:101F80002F923F924F925F926F927F928F929F9289
:101F9000AF92BF92CF92DF92EF92FF920F931F9377
:101FA000CF93DF93CDB7DEB7A4970FB6F894DEBF1B
:101FB0000FBECDBF809167086DED7FEF9B01281BA1
:101FC000310987FD339544E6429FC001439F900D40
:101FD00011240E9454A6D62E162F80911C02909197
:101FE0001D0228EE33E0B9010E9440A6E62E809142
:101FF0001E0290911F02B9010E9440A6F62E809108
:10200000200290912102B9010E9440A6B62E809133
:10201000220290912302B9010E9440A6C62E80910F
:10202000240290912502B9010E9440A68091D80314
:102030009091D9039C012150310951E022303105A2
:1020400020F452E042E0029709F041E08091090259
:10205000A1E08111A2E080910A02811163C081E0B8
:102060008BA380911102811160C0E1E0ECA380910B
:10207000D00372E0811101C071E080910D02B1E0E6
:102080008111B2E080917503882309F451C082E088
:1020900089A38091080281114EC0E1E0EAA38091FA
:1020A0007403F2E0AF2E811102C0AA24A3948091A0
:1020B000F4039091F50332E08130910521F033E093
:1020C000029709F031E08091F0039091F10322E052
:1020D0008130910521F023E0029709F021E0809101
:1020E0007603E2E09E2E811102C0992493948091A0
:1020F000E7039091E8030197772473948430910566
:1021000020F4835B9D4FFC0170808091E5039091EA
:10211000E6038130910591F0029709F4ACC0882460
:1021200083940EC092E09BA39CCFF2E0FCA39FCFD0
:1021300091E099A3AECFF2E0FAA3B1CF92E0892E5D
:102140008091D2039091D30302E0602E019711F0A9
:1021500066246394552453945D0C153610F015E6EF
:10216000512E80910B02DD24D394882311F0F2E0EC
:10217000DF2E80912602E2E04E2E811102C044241F
:1021800043948091930992E0392E811102C0332447
:1021900033948091940922242394882311F082E0BF
:1021A000282E8091950902E0811101C001E0809103
:1021B0009B0912E0811101C011E08091EE03909122
:1021C000EF0301978330910508F058C0865B9D4F5F
:1021D000FC01808118861F8259834A83AB83FBA14F
:1021E000FC839CA19D837E83B887E9A1E987FAA13E
:1021F000FA87AB863C872D879E867F86888A698A88
:10220000DA8A5B8AEC8AFD8ABE8ACF8A688F498E19
:102210003A8E2B8E0C8F1D8F8E8FCE0101967C01F6
:1022200010E000E018A30F8FF70161917F01CE014C
:102230004F960E9493060F5F1F4F0E31110591F7C5
:102240000E94AC06A4960FB6F894DEBF0FBECDBFB9
:10225000DF91CF911F910F91FF90EF90DF90CF9082
:10226000BF90AF909F908F907F906F905F904F90B6
:102270003F902F90089584E0882E62CF84E0AACF0B
:102280000F931F93CF93DF931F921F92CDB7DEB7AB
:1022900010E000E01A8309836FEFCE0101960E94DF
:1022A00093060F5F1F4F0E311105A1F70E94AC0678
:1022B0000F900F90DF91CF911F910F910895EF92A2
:1022C000FF920F931F93CF93DF9300D000D01F9204
:1022D000CDB7DEB72091E20390910E028091970472
:1022E000882361F182E03091150239833091140224
:1022F0003A832B839C838D83CE0101967C010EE172
:1023000010E01F830E83F70161917F01CE010696D5
:102310000E9493060F5F1F4F0332110591F70E9431
:10232000AC0627960FB6F894DEBF0FBECDBFDF9187
:10233000CF911F910F91FF90EF90089581E0D3CF3F
:102340000F931F93CF93DF931F921F92CDB7DEB7EA
:102350000EE110E01A8309836FEFCE0101960E940F
:1023600093060F5F1F4F03321105A1F70E94AC06C1
:102370000F900F90DF91CF911F910F910895809151
:10238000A5049091A6040197039710F40C948C82F5
:1023900008959F92AF92BF92CF92DF92EF92FF92F9
:1023A0000F931F93CF93DF93CDB7DEB76C970FB624
:1023B000F894DEBF0FBECDBF40E051EE60E070E0AC
:1023C00089E095E00E94DB831092020510920305DC
:1023D0001092040589E095E09093A8048093A704E7
:1023E0001092FF041092000510920105E9EAF4E052
:1023F0008FEF9FEF8193919324E0E53CF207D1F7B3
:102400008091A7049091A804DC01ED91FC910084D7
:10241000F185E02D1995892B61F08091A7049091A9
:10242000A804DC01ED91FC910284F385E02D19955F
:10243000E7CF0E947F8968517C4F6B01F12CE12C22
:1024400040EF942E5AEAA52E65E0B62E01E115E57F
:102450000E948C828091040581111FC00E947F8997
:102460006C157D058E059F05C0F49982AA82BB82FA
:102470000C831D838091A7049091A804DC01ED9149
:10248000FC910280F381E02D45E050E0BE016F5FDA
:102490007F4F19950E944A89DBCF0E948C82F09071
:1024A0000405FF2009F481C08091FC049091FD0493
:1024B000892B09F477C082E090E09093A604809382
:1024C000A5048091ED03811103C08AE0809369081F
:1024D000809169082DED3FEF281B310987FD339569
:1024E00040911B02429FC001439F900D11246CE953
:1024F0007FEF0E9454A66352609368086093670858
:102500006093660884EC96E00E94E98A6AEB76E0C4
:1025100086EA95E00E94C58A4091FC045091FD0432
:1025200070E060E02AE086EA95E00E94608A6DED46
:1025300072E086EA95E00E943D8A0E948C8280913A
:10254000FA049091FB040E946F0680EF89838AEA67
:102550008A8385E08B8383E18C8385E58D838091FD
:10256000A7049091A804DC01ED91FC910280F38115
:10257000E02D45E050E0BE016F5F7F4F19958F2D34
:102580006C960FB6F894DEBF0FBECDBFDF91CF9132
:102590001F910F91FF90EF90DF90CF90BF90AF9081
:1025A0009F90089581E090E088CF8AEB9FEF0E9492
:1025B000B38420EFE22EE9823AEAF32EFA8205E0B4
:1025C0000B8384E08C8315E51D838091A704909193
:1025D000A804DC01ED91FC910280F381E02D45E03F
:1025E00050E0BE016F5F7F4F1995E982FA820B833D
:1025F00081E08C831D838091A7049091A804DC0165
:10260000ED91FC910280F381E02D45E050E0BE01A8
:102610006F5F7F4F1995E982FA820B8382E08C838A
:102620001D838091A7049091A804DC01ED91FC9199
:102630000280F381E02D45E050E0BE016F5F7F4FE7
:1026400019950E944A890E948C82F0900205FF2011
:1026500009F473C0A5EEB4E0FE013196CE014596B3
:102660002D9121938E179F07D9F70E948C8280911C
:102670000305882309F48EC00E948C828091FA049D
:102680009091FB040E946F0680EFE82EEE8A0AEA22
:102690000F8B87E0888F8CE0898F1A8E1B8E15E553
:1026A0001C8F8091A7049091A804DC01ED91FC910E
:1026B0000280F381E02D47E050E0BE016A5E7F4F6B
:1026C0001995EE8A0F8B96E0D92ED88E89E0898FE6
:1026D00081E08A8F1B8F8091A7049091A804DC0170
:1026E000ED91FC910280F381E02D46E050E0BE01C7
:1026F0006A5E7F4F19958091ED03EE8A0F8BD88E1D
:102700009EE0998F8A8F1B8F8091A7049091A804D7
:10271000DC01ED91FC910280F381E02D46E050E078
:10272000BE016A5E7F4F199583E090E09093A60406
:102730008093A50481E896E02AC01092A604109226
:10274000A50489E095E00E94ED80E0911B05F091E1
:102750001C0580818F7E8083E0911B05F0911C0514
:102760008081877F8083E0911B05F0911C0580812B
:102770008F778083E0911B05F0911C0580818F7D10
:102780008083809123058093220581E796E00E9453
:10279000E98AF5CE83E996E00E94E98A75CF8091B7
:1027A000A5049091A6040197039708F021C16091B8
:1027B0006508062E000C770B8CE390E00E942F82B8
:1027C00060916508062E000C770B8AE691E00E9466
:1027D0002F8260916508062E000C770B8BE691E046
:1027E0000E942F8260916508062E000C770B81E213
:1027F00090E00E942F8260916508062E000C770BF6
:102800008DE190E00E942F8260916508062E000CF9
:10281000770B8EE190E00E942F8260916508062E72
:10282000000C770B8FE190E00E942F826091650889
:10283000062E000C770B80E290E00E942F828091A0
:10284000ED038823D9F060916508062E000C770B04
:1028500083E991E00E942F8260916508062E000CAA
:10286000770B84E991E00E942F8260916508062E23
:10287000000C770B87E491E00E942F828091D103B6
:102880008823D9F160916508062E000C770B8091A2
:10289000DB039091DC038230910509F4A3C08330FF
:1028A000910559F1019709F4A0C08EE791E00E94CB
:1028B0002F8260916508062E000C770B89E891E065
:1028C0000E942F8260916508062E000C770B83E62C
:1028D00090E00E942F8260916508062E000C770B15
:1028E00088E490E00E942F8260916508062E000C1B
:1028F000770B82E690E00E942F8260916508062E99
:10290000000C770B8EE890E00E942F8260916508A2
:10291000062E000C770B80E990E00E942F826091D8
:102920006508062E000C770B8DE890E00E942F8240
:1029300060916508062E000C770B8FE890E00E94EE
:102940002F8260916508062E000C770B83E990E0DA
:102950000E942F8260916508062E000C770B81E99A
:1029600090E00E942F8260916508062E000C770B84
:1029700082E990E00E942F8260916508062E000C8B
:10298000770B84E990E00E942F8260916508062E03
:10299000000C770B82E190E00E942F826091650825
:1029A000062E000C770B83E190E00E942F8260914D
:1029B0006508062E000C770B84E190E00E942F82C0
:1029C00060916508062E000C770B85E190E00E946F
:1029D0002F8260916508062E000C770B86E190E04F
:1029E0000C942F8284E390E086CF8AE390E083CF3B
:1029F000089580918E0490918F04892B09F467C00B
:102A00008091900490919104843F21E0920708F412
:102A10005EC021E0209394044091ED032091A50431
:102A20003091A6042230310599F12330310519F097
:102A30002130310509F54423F9F02091930465E034
:102A4000211101C066E00E94018260916408062E97
:102A5000000C770B80919004909191040E942F823A
:102A600061E080919004909191040E945D820E94A7
:102A70008C8281E0809308058091ED03882339F1F1
:102A800040E157E260E070E08AE698E00C94D38F72
:102A9000442391F32091930465E0211101C066E085
:102AA0000E94018260916408062E000C770B8091D1
:102AB0009004909191040E942F8250E040E061E0E8
:102AC00080919004909191040E94A883D0CF0895A2
:102AD0002091A5043091A6042150310923303105FD
:102AE00018F464E00C94018208950E94B60F0297D6
:102AF00020F08AE691E00C9468158CE390E0FBCF1F
:102B00008DE890E00E9468158EE890E00E946815BC
:102B10008FE890E00E94681580E990E00E946815B7
:102B200081E990E00E94681582E990E00E946815B2
:102B300083E990E00E94681584E990E00C946815A0
:102B4000CF93C82F80911302823020F08430D8F0C8
:102B5000863000F181E290E00E946815CC2349F1B3
:102B60008091ED03882329F18091DB039091DC03B0
:102B700082309105B1F083309105C1F00197C9F41D
:102B800084E991E010C081E290E00E9468158DE137
:102B900090E0E2CF8DE190E00E94681580E290E045
:102BA000DBCF83E991E0CF910C94681587E491E045
:102BB000FACFCF9108959091780A8091730A981373
:102BC0001AC09091BD0A8091B80A981314C09091D0
:102BD000020B8091FD0A98130EC08091DF03909143
:102BE000E003019741F448EE53E060E070E082E3D7
:102BF00099E00E94D38F80917303882309F45CC00D
:102C0000109273039091780A8091730A981312C0FE
:102C10009091BD0A8091B80A98130CC09091020B54
:102C20008091FD0A981306C08091DF039091E00324
:102C3000019711F182E190E00E94681583E190E034
:102C40000E94681584E190E00E94681585E190E09B
:102C50000E94681586E190E00E946815809111023B
:102C6000882319F085EC0E941A5140E050E0BA0127
:102C700082E399E00C94D38F66E082E190E00E94B9
:102C8000018266E083E190E00E94018266E084E1D7
:102C900090E00E94018266E085E190E00E9401825E
:102CA00066E086E190E00E94018280911102882313
:102CB00019F086EC0C941A510895CF92DF92EF929E
:102CC000FF920F931F93CF93DF936C01F62EC42FC7
:102CD00014160CF4C0E0CA3B0CF4CAEB8091A504B6
:102CE0009091A6048230910589F18330910519F005
:102CF000019709F047C00C2E000CDD0B222379F060
:102D00006AEB7FEFC6010E942F826E2DC6010E94E2
:102D10005D82A801BE01C6010E941F8408C0BE01D9
:102D2000C6010E942F826E2DC6010E945D8265E061
:102D3000F11001C066E0C601DF91CF911F910F91A4
:102D4000FF90EF90DF90CF900C9401820C2E000C3E
:102D5000DD0B222361F06AEB7FEFC6010E942F8218
:102D600050E040E06E2DC6010E94A883D2CFBE0184
:102D7000C6010E942F8250E040E06E2DC6010E94E5
:102D8000A883D5CFDF91CF911F910F91FF90EF9046
:102D9000DF90CF900895EF920F931F9390910702C9
:102DA000981759F18430D9F486E10E941A510E9493
:102DB000B60FEE24E39410E000E020E040916508B7
:102DC00061E00297B8F08AE691E00E945D1644E661
:102DD00050E060E070E086E499E00E94D38F80913B
:102DE00007028F5F8093070285E11F910F91EF909B
:102DF0000C941A518CE390E0E8CF1F910F91EF9063
:102E00000895EF920F931F9380910F022091EE0986
:102E10009091E909291320C08823C1F08091110203
:102E2000882319F089EB0E941A51EE24E39410E0F4
:102E300000E020E04091650860E086E991E00E94B2
:102E40005D1688E70E941A5110920F0280910F02BE
:102E50001F910F91EF9008958111F8CF0E946D0F8F
:102E60002091110202970297C0F4222319F088EBF7
:102E70000E941A51EE24E39410E000E020E040911B
:102E8000650860E081EB90E00E945D1687E70E9494
:102E90001A5181E080930F02D9CF222319F087EBDA
:102EA0000E941A51EE24E39410E000E020E04091EB
:102EB000650860E08DE891E0E7CFEF920F931F93F4
:102EC0008091ED03882381F11092A4091092A50945
:102ED00087E591E00E946815EE24E39410E000E09D
:102EE00020E04091650860E088E591E00E945D1671
:102EF0008091DB039091DC030297B1F48091DF03B2
:102F00009091E003019781F49091BD0A8091B80AF5
:102F100098130AC004E813E021E04091650861E0DD
:102F200083E991E00E945D161092DE031092DD03AA
:102F30001F910F91EF900895EF920F931F9380913F
:102F400069038823A1F10E946D0F0297B0F589E40F
:102F500091E00E9468158CE491E00E9468158DE470
:102F600091E00E94681581E00E94A0158091DD0328
:102F70009091DE030497D9F08091D403811117C09A
:102F800080911102882319F08CEB0E941A5181E183
:102F900090E00E946815EE24E39410E000E020E049
:102FA0004091650860E081E190E00E945D1610921A
:102FB00069031F910F91EF90089580911102209164
:102FC000DD033091DE032430310551F09091D503BB
:102FD000911106C02091DF033091E003232B91F47F
:102FE000882319F08AE50E941A51EE24E39410E038
:102FF00000E020E04091650860E084E990E00E94F4
:103000005D1623C09091D40391111FC0882319F03D
:1030100088E50E941A5149E557E060E070E08AEBCC
:1030200099E00E94D38F1092B8091092B90980914B
:10303000A5049091A6040297C1F4409165086EE83A
:1030400070E082E990E00E9453848091110288230D
:1030500019F085E50E941A518FE890E00E946815EA
:1030600080E990E00E946815A2CFEE24E39410E07E
:1030700000E020E04091650860E082E990E0BFCF89
:103080008091DF039091E0038130910539F48091C4
:10309000DD039091DE03892B79F00895892B61F58A
:1030A0008091DD039091DE03892B31F58091D2036D
:1030B0009091D303019701F50E94DB150E949C17A4
:1030C00081E00E94A0158091E10390E08E3109F02B
:1030D00092E08EE1891B8093660385E0809367030D
:1030E0000E94B40948E750E060E070E08FE799E0A3
:1030F0000E94D38F0C94EE0B0895EF920F931F93C1
:103100000E94801580911102882319F083E50E94A6
:103110001A5148EE56E060E070E08AEB99E00E94B8
:10312000D38F8091A5049091A604029771F44091E9
:1031300065086EE870E08DE890E00E94538410927C
:1031400001021F910F91EF900895EE24E39410E097
:1031500000E020E04091650860E08DE890E00E948A
:103160005D16EDCFEF920F931F93CF93C82F409131
:10317000650880911302833020F0853048F1853056
:1031800081F1EE24E39408EE13E02C2F61E081E25C
:1031900090E00E945D168091ED038823B9F1CC2365
:1031A000A9F18091DB039091DC038230910511F14C
:1031B0008330910581F1019749F5EE24E39404E809
:1031C00013E021E04091650861E084E991E01CC0D2
:1031D000EE24E39408EE13E02C2F61E08DE190E003
:1031E000D8CFEE24E39408EE13E02C2F61E080E2C8
:1031F00090E0CFCFEE24E39404E813E021E0409187
:10320000650861E083E991E00E945D16CF911F910E
:103210000F91EF900895EE24E39404E813E021E089
:103220004091650861E087E491E0EECFEF920F9363
:103230001F93CF938091DD039091DE03843091053D
:1032400009F4D6C02091D5032111D2C03091BD0A16
:103250002091B80A3213A2C1209108022223A9F0BA
:103260002091DB033091DC032230310509F4C5C025
:10327000039759F08091CC08882309F4BEC084ECF0
:1032800098E00E94A38F8111B8C08FEF0E94E15196
:10329000C09169030E946D0FC11135C0029708F0FB
:1032A000D8C080916003811128C089E491E00E9418
:1032B00068158CE491E00E9468150E946D0F0197DB
:1032C00009F0B0C08DE491E00E946815EE24E3940B
:1032D00010E000E020E04091650860E08DE491E0BE
:1032E0000E945D1680911102882339F080915F035E
:1032F000811103C081ED0E941A5181E00E94B21831
:1033000081E0809369030E946D0F02970297F8F4A1
:1033100080EB99E00E94A38F8823C9F0809111026D
:10332000882319F087E50E941A518091A504909195
:10333000A604029761F0EE24E39410E000E020E0A0
:103340004091650861E080E990E00E945D1610926E
:10335000600310925F039091780A8091730A98132A
:1033600017C180917303811143C08091D1038111F2
:103370003FC082E399E00E94A38F8823C9F1809126
:10338000DD039091DE03049799F18091730381111D
:103390002FC00E946D0F0297029708F0E4C0809141
:1033A0000B02882309F4DFC080911102882319F0F1
:1033B00087EC0E941A514091650880911302833076
:1033C00009F4BFC008F0A6C0823009F4B1C0EE24F1
:1033D000E39410E000E020E061E082E190E00E94F0
:1033E0005D1681E08093730310923A0910923B09B5
:1033F000CF911F910F91EF90089580911302833028
:1034000069F020F4823061F086E640CF843021F00C
:103410008530D1F78CEC3ACF82EB38CF89E936CFC3
:1034200080E834CFEE24E39410E000E020E0409107
:10343000650860E089E491E00E945D1680911102C8
:10344000882309F45ACF80915F03811156CF8AEB0C
:1034500052CF80911102882339F080910102882394
:10346000C1F18BE50E941A511092C2091092C30952
:1034700049E557E060E070E080EB99E00E94D38F6F
:1034800020910102409165088091A5049091A604C5
:10349000222361F10297F9F460E970E083E990E09A
:1034A0000E945384109201028DE890E00E946815FA
:1034B0008EE890E00E94681581E990E00E9468150E
:1034C00082E990E00E94681584E990E00E94681506
:1034D00017CF84E5C7CFEE24E39410E000E020E0AE
:1034E00060E083E990E00E945D16DCCF029739F43A
:1034F00060E970E08FE890E00E945384D5CFEE241D
:10350000E39410E000E020E060E08FE890E00E94AB
:103510005D16CACF8430F1F0853009F058CFEE2423
:10352000E39410E000E020E061E086E190E057CF16
:10353000EE24E39410E000E020E061E083E190E01D
:103540004ECFEE24E39410E000E020E061E084E15F
:1035500090E045CFEE24E39410E000E020E061E04D
:1035600085E190E03CCF8091790A882309F439CF36
:1035700080911102882319F088EC0E941A51EE24E0
:10358000E39410E000E020E04091650860E0CDCFDA
:10359000CF911F910F91EF900C94DB1580E00E946A
:1035A000E1510E94DB15CF911F910F91EF900C9488
:1035B0009C17EF920F931F930E94820B1092A40905
:1035C0001092A5091092AE081092AF081198809140
:1035D0007603811102C00E945A0B0E946D0F029760
:1035E00048F58CE491E00E946815EE24E39410E025
:1035F00000E020E04091650860E08CE491E00E94EA
:103600005D169091BD0A8091B80A981739F00E9412
:103610006D0F0297029710F40E947D181092DE033E
:103620001092DD0381E080935F031F910F91EF9073
:103630000C94EE0B89E491E00E946815EE24E3946B
:1036400010E000E020E04091650860E089E491E04E
:103650000E945D1681E00E94B218D3CFEF920F93C3
:103660001F93CF93C82F8091F6039091F703019792
:1036700009F077C080E190E0909304028093030208
:103680008BEF90E00E9468158091DF039091E0033A
:10369000029709F4A4C08091D50381110FC08091D5
:1036A000D2039091D303009709F45EC0019731F4DF
:1036B00080918709811102C00E94EE0B8091020166
:1036C00080628093020180910201806480930201F4
:1036D000409105025091060270E060E086E79BE0B1
:1036E0000E94D38F81E00E94585210924E0910928E
:1036F0004F0910924409109245098091D503811118
:103700006EC00E946D0F0097D9F1019709F46CC04B
:103710008091ED03882309F493C089E491E00E942D
:103720006815EE24E39410E000E020E04091650885
:1037300060E089E491E00E945D1681E00E94B21889
:103740009091BD0A8091B80A981709F448C08091F9
:10375000D503811144C0CF911F910F91EF900C942C
:103760007D1886E090E088CF0E94EE0B9091BD0A14
:103770008091B80A9813A2CF81E0809360039ECF16
:103780008CE491E00E94681589E491E00E9468153C
:103790008091D703EE24E39410E000E020E0409114
:1037A000650860E08823B9F08CE491E00E945D1622
:1037B00080911102882399F08091D703882379F0B2
:1037C0008091D40381110BC08BEBCF911F910F918E
:1037D000EF900C941A5189E491E00E945D16CF910C
:1037E0001F910F91EF9008958CE491E00E9468156D
:1037F0008DE491E00E9468158091D703EE24E39454
:1038000010E000E020E04091650860E0882331F09E
:103810009091BD0A8091B80A9813C6CF8DE491E0CB
:103820000E945D16809111028823C9F28091D7030E
:103830008823A9F28091D4038111D1CF81EDC5CF26
:103840009091BD0A8091B80A981377CFCC2309F4E0
:1038500074CF89E491E00E946815EE24E39410E0AF
:1038600000E020E04091650860E089E491E00E947A
:103870005D168AEB0E941A5160CFEF920F931F934F
:10388000809109028823E1F0109209028DE590E011
:103890000E9468158CE590E00E946815EE24E39480
:1038A00010E000E020E04091650860E08DE590E0E8
:1038B0000E945D1685E31F910F91EF900C941A51B1
:1038C00081E0809309028DE590E00E9468158CE507
:1038D00090E00E946815EE24E39410E000E020E000
:1038E0004091650860E08CE590E00E945D1686E3FB
:1038F000E2CFEF920F931F93E091DB03F091DC0393
:10390000319789E0E730F10570F48827E557F34EE9
:103910008F4F0C9468A6141D161D121D0E1D921CAF
:103920000C1D101D8EE00E941A518091DD039091B4
:10393000DE038630910509F456C00897029708F413
:1039400052C086E090E00E94681580E390E00E94FB
:10395000681585E490E00E94681586E490E00E9476
:1039600068158CE290E00E9468158EE390E00E945A
:1039700068158091ED03882361F083E991E00E944E
:10398000681584E991E00E94681587E491E00E943F
:1039900068158091DB039091DC038330910509F475
:1039A000ABC008F045C08130910509F457C00297BB
:1039B00009F47BC0EE24E39410E000E020E04091A5
:1039C000650860E086E090E00E945D161092640356
:1039D00084E68093020245E050E060E070E088E217
:1039E00099E00E94D38F8091A5049091A60401973D
:1039F000029750F48091DB039091DC03039709F068
:103A0000B2C080E00E94ED851092D6081092D708CF
:103A10001F910F91EF9008958FE085CF8DE083CFB8
:103A200080E181CF8CE07FCF8BE07DCF8AE07BCFC0
:103A30008530910509F487C0069709F0BBCF8091C6
:103A4000ED03882319F2EE24E39410E000E020E077
:103A50004091650860E088E991E0B6CFEE24E394F8
:103A600010E000E020E04091650860E085E490E02F
:103A70000E945D168091ED03882309F4A7CF809101
:103A8000DF039091E003019709F0A0CF9091BD0A68
:103A90008091B80A98139ACF00ED17E021E0409189
:103AA000650861E084E991E08FCFEE24E39410E0B3
:103AB00000E020E04091650860E080E390E00E9433
:103AC0005D168091ED03882309F480CF8091DF0398
:103AD0009091E003019709F079CF9091BD0A809110
:103AE000B80A981373CF0CEB12E021E040916508FF
:103AF00061E083E991E068CFEE24E39410E000E018
:103B000020E04091650860E086E490E00E945D1648
:103B10008091ED03882309F459CF8091DF039091C0
:103B2000E003019709F052CF9091BD0A8091B80A45
:103B300098134CCF02EE14E021E04091650861E05B
:103B400087E491E041CF8091ED03882309F43ECFD3
:103B5000EE24E39410E000E020E04091650860E08E
:103B600087E991E031CF81E04DCFEF920F931F9322
:103B700088E290E00E946815EE24E39410E000E0F3
:103B800020E04091650860E088E290E00E945D16C8
:103B900088E590E00E94681585E690E00E9468152F
:103BA00089E590E00E9468152091D2033091D303FB
:103BB0008091D8039091D90321303105C9F082302A
:103BC0009105B1F40E948C0B20E04091650860E003
:103BD00089E590E00E945D1682E30E941A511092DE
:103BE000DC031092DB031F910F91EF900C94791C72
:103BF000409165080197B1F482E090E09093D90379
:103C00008093D80390936B0380936A03EE24E3942C
:103C100010E000E020E060E085E690E00E945D16A4
:103C20008AE2DBCF81E090E09093D9038093D803C0
:103C300090936B0380936A03EE24E39410E000E01A
:103C400020E060E088E590E00E945D1689E2C5CF43
:103C50002091D8033091D9038091D2039091D3035E
:103C600081309105F1F421153105B1F410926B0307
:103C700010926A039093D9038093D8038091DB0359
:103C80009091DC03892B31F01092DC031092DB035E
:103C90000E94791C80E025C030936B0320936A0357
:103CA000EDCF80916A0390916B038217930791F097
:103CB00081309105B9F082309105A1F01092D903BD
:103CC0001092D8038091D8039091D90390936B03FD
:103CD00080936A0381E02091D8033091D903232B8C
:103CE000C9F608959093D9038093D803EBCFEF9250
:103CF000FF920F931F93CF93DF93CDB7DEB7A797B4
:103D00000FB6F894DEBF0FBECDBF8CEF9FE00E94D0
:103D1000ADA58CA38DEF9FE00E94ADA58DA38EEF86
:103D20009FE00E94ADA58EA38FEF9FE00E94ADA5FE
:103D30008FA30E9412060CA11DA12EA13FA1601706
:103D400071078207930709F0C4C2CE0101967C0176
:103D500010E000E0C8010E94ADA5F70181937F014A
:103D60000F5F1F4F0E311105A9F789818230B9F419
:103D700081E090E09093D9038093D8038A818230C8
:103D800031F482E090E09093D9038093D80380913E
:103D9000D8039091D90390936B0380936A038B812E
:103DA0009FEF980F923030F4823009F0F7C181E034
:103DB000809309028C819FEF980F923030F482300B
:103DC00009F0EFC181E080930A028D819FEF980F87
:103DD000923030F4823009F0E7C181E08093110223
:103DE0008E819FEF980F923050F4823009F0DFC13E
:103DF00081E08093D0038093CE038093CF038885A6
:103E00009FEF980F923030F4823009F0D7C181E0F3
:103E100080930D0289859FEF980F923030F48230A5
:103E200009F0CFC181E0809375038A859FEF980FD9
:103E3000923030F4823009F0C7C181E080930802EB
:103E40008B859FEF980F923030F4823009F0BFC11C
:103E500081E0809374038C859FEF980F933050F42A
:103E6000823009F4B7C1833009F4BFC11092F50361
:103E70001092F4038D859FEF980F933050F48230A9
:103E800009F4BCC1833009F4C4C11092F10310924B
:103E9000F0038E859FEF980F923030F4823009F056
:103EA000C1C181E0809376038F859FEF980F953095
:103EB00060F4833009F4C8C108F0B7C1823009F456
:103EC000BCC11092E8031092E70388899FEF980F16
:103ED000953050F4823009F4BDC1843009F4C1C179
:103EE0001092E6031092E50389899FEF980F9230B4
:103EF00068F49091ED03992349F0823009F0B4C140
:103F000081E090E09093D3038093D2038A899FEF5E
:103F1000980F923030F4823009F0ABC181E0809389
:103F20000B029B8991509536F8F48091ED0388231C
:103F3000D9F090931B02809169082DED3FEF281B6B
:103F4000310987FD3395929FA001939F500D112455
:103F5000CA016CE97FEF0E9454A663526093670820
:103F600060936608609368082C898FEF820F8C330A
:103F700078F448EE53E0249FC001259F900D112452
:103F800090931D0280931C02909392098093910953
:103F90002D898FEF820F8C3378F448EE53E0249F05
:103FA000C001259F900D112490931F0280931E0243
:103FB0009093900980938F092E898FEF820F8C3315
:103FC00078F448EE53E0249FC001259F900D112402
:103FD000909321028093200290938E0980938D0903
:103FE0002F898FEF820F8C3378F448EE53E0249FB3
:103FF000C001259F900D11249093230280932202EB
:1040000090938C0980938B09288D8FEF820F8C33CE
:1040100078F448EE53E0249FC001259F900D1124B1
:10402000909325028093240290938A0980938909B2
:10403000898D9FEF980F923030F4823009F01CC1C7
:1040400081E0809326028A8D9FEF980F923030F4A2
:10405000823009F014C181E0809393098B8D9FEF2A
:10406000980F923030F4823009F00CC181E08093D7
:1040700094098C8D9FEF980F923030F4823009F0C4
:1040800004C181E0809395098D8D9FEF980F923048
:1040900030F4823009F0FCC081E080939B098E8D62
:1040A0009FEF980F9430D0F4823009F4FEC0833033
:1040B00009F4F4C0813009F4FEC084E090E09093EC
:1040C000EF038093EE038091ED03882309F4E3C0AE
:1040D00083E090E09093EC038093EB030E94BA514D
:1040E0000E94CC517E01FFE1EF0EF11C0EE110E0C9
:1040F000C8010E94ADA5F70181937F010F5F1F4F9B
:1041000003321105A9F78F8D9FEF980F9E3F10F492
:104110008093150288A19FEF980F9E3F10F4809323
:10412000140289A1823031F0853021F0982F9D7FD3
:10413000903361F480931002803331F0823309F4BC
:10414000BFC0823009F085E08093E2038AA18C3100
:1041500011F08E3159F480930E028091E1038D7F2E
:104160008C3121F480910E028093E1038BA19FEFAB
:10417000980F923030F4823009F0A8C081E080932B
:104180009704A7960FB6F894DEBF0FBECDBFDF91A0
:10419000CF911F910F91FF90EF9008951092090217
:1041A00009CE10920A0211CE1092110219CE10926D
:1041B000D0031092CE031092CF0321CE10920D02A5
:1041C00029CE1092750331CE1092080239CE10928A
:1041D000740341CE1092F7031092F60381E090E051
:1041E0009093F5038093F40345CE81E090E09093A3
:1041F000F7038093F60382E090E0F2CF1092F3038E
:104200001092F20381E090E09093F1038093F00329
:1042100040CE81E090E09093F3038093F20382E03C
:1042200090E0F2CF109276033FCE843081F085305B
:1042300009F047CE84E090E002C081E090E09093E6
:10424000E8038093E70341CE82E090E0F8CF83E07B
:1042500090E0F5CF81E090E09093E6038093E50352
:1042600043CE82E090E0F8CF1092D3031092D203B5
:104270004DCE10920B0255CE10922602E4CE109233
:104280009309ECCE10929409F4CE10929509FCCECD
:1042900010929B0904CF82E090E01CCF83E090E075
:1042A0009093EF038093EE0315CF81E080930C028F
:1042B00082E090E0F5CF80930C0281E090E0F0CFB7
:1042C0008093E20380E38093100240CF1092970422
:1042D00058CFEE24E39410E000E020E04091650820
:1042E00060E08FE591E00E945D160E944011A79664
:1042F0000FB6F894DEBF0FBECDBFDF91CF911F91F7
:104300000F91FF90EF900C94A011EF920F931F93D9
:1043100080911A02853020F510921A0280E490E014
:104320000E946815EE24E39410E000E020E0409144
:10433000680860E080E490E00E945D1680911A02B7
:1043400026E4829FC001112464E670E00E9454A616
:104350006654609365081F910F91EF900C94CF13F2
:10436000855080931A02EACFEF920F931F938091AA
:104370001A02803628F184E680931A0280E490E0E5
:104380000E946815EE24E39410E000E020E04091E4
:10439000650860E080E490E00E945D1680911A025A
:1043A00026E4829FC001112464E670E00E9454A6B6
:1043B0006654609365081F910F91EF900C94CF1392
:1043C0008B5F80931A02EACFEF920F931F93CF93E4
:1043D000C82F8091A5049091A6040197039738F403
:1043E00080916808082E000C990B0E94B384C111BB
:1043F00016C08091DF039091E003892B81F480E463
:1044000090E00E946815EE24E39410E000E020E0C4
:104410004091650860E080E490E00E945D16CF91D5
:104420001F910F91EF900895CF93982FC62F209151
:10443000E203322F3D7F62E0303309F46FEF9D31AC
:1044400008F025C0E92FF0E08827E65DFD4D8F4F8D
:104450000C9468A62B23472269226C226F227122BA
:104460007422762279227C227F228222852288224F
:104470008B228F228E229222952298229B229E228C
:10448000A222A522A822D322F6221023642220E011
:1044900094E6392F330F330F330F85E5732F789F51
:1044A000070E70E0711D1124692F6074592F50722E
:1044B00097FD2AC1611116C15111D0C0872F809577
:1044C000972F782F80E0CEC0209114029091150292
:1044D000E0CF27EB94E2DDCF2FEF94EFDACF20E8A7
:1044E000FCCF2FEF90E0D5CF20ECFCCF2FEF95E065
:1044F000D0CF2FEF9AE0CDCF2FEF9FE0CACF2FEF95
:1045000094E1C7CF2FEF90E2C4CF20E89BE2C1CF68
:104510002FEF90E4BECF2FEF90E5BBCFC0E82FEF99
:1045200090E6B7CF28E790E7B4CF2FEF90E8B1CF70
:104530002FEF91E9AECF2FEF90EAABCFC0E728EC99
:104540009AEAA7CF2FEF94EBA4CF2FEF90ECA1CF57
:1045500080915E03882321F0803611F010925E0373
:104560008091DD039091DE03892B19F4253009F445
:1045700062E3809100028F5F809300020E9426A672
:1045800091110DC080915E03811104C080E680937B
:104590005E0302C010925E0381E08093000290915E
:1045A0005E032FEF76CF80915E038F3029F0823D3E
:1045B00019F08FE080935E038091DD039091DE031C
:1045C000892B19F4253009F462E3809100028F5F92
:1045D000809300020E9426A69111E1CF80915E0394
:1045E0008F3011F482EDD3CF8FE0D1CF80910002D4
:1045F0008F5F809300020E9426A691110DC08091CA
:104600005E0390E005966FEF70E00E9454A68093E1
:104610005E0381E08093000290915E0320E839CF31
:104620008091DD039091DE03892B19F4303309F476
:1046300064E1809100028F5F809300020E9426A6B1
:104640009111ADCF80915E0390E005966FEF70E021
:104650000E9454A69CCFC92F292F1BCF95E5970FF9
:1046600080E07BEA2F3FF1F0222309F46CC0209513
:1046700030E0222329F0229F312D112421113F5FA8
:10468000232F2095729F070E70E0711D929F090ED7
:1046900090E0911D829F080E80E0811D1124730F10
:1046A000930F830FCF3FB9F020E0CC2321F0CC9FB4
:1046B000212D09F02F5F222309F449C0729F070EB4
:1046C00070E0711D929F090E90E0911D829F080E6F
:1046D00080E0811D1124692F411102C0672F792FBD
:1046E000CF91089551110AC09AEA399F030E30E024
:1046F000311D11248BEA831B970FE3CE80E0972FA7
:104700009095872F70E0AECF611111C051110BC091
:10471000832F9AEA899F080E80E0811D11249BEA6D
:10472000981B8B5AEFCF872F809590E09BCF51112C
:1047300006C095E5970F8BEA871B792FF6CF9AEA8B
:10474000970F30E0F9CF8FEF9FEF7FEFABCF80E097
:1047500090E070E0C0CF962F642F903329F0923311
:1047600019F041E0923009F440E00C9414221F93B8
:10477000CF93DF9310E080911002181750F56091ED
:10478000E203E12FF0E0603379F0623321F4E05C82
:10479000F64FE491F0E0EF01CC0FDD1FCE0FDF1FED
:1047A000C850DC4F4FEF0DC0E05FF64FE491F0E0F2
:1047B000EF01CC0FDD1FCE0FDF1FC850DC4F4FEFD6
:1047C00060E380E00E94AB23688379838A831F5F64
:1047D000D2CFDF91CF911F9108958091E203803372
:1047E000D1F0823319F54FEF62E380E00E94AB23F2
:1047F0006093640470936504809366044FEF609146
:10480000E20380E00E94AB23609367047093680426
:10481000809369040BC04FEF60E380E00E94AB23FC
:1048200060931C0470931D0480931E0412980895D5
:104830008091E1038D7F8C31D1F40E94820B0E9424
:10484000DD060E94ED2310926703109266038091AB
:104850009404882321F080919204882361F040E63B
:104860005AEE60E070E08EE798E00C94D38F80E021
:104870000E944B07E4CF0895E6EFF8E0108611861A
:10488000EEE1F9E010861186E0E0F9E0108611868D
:10489000EAE0F9E010861186E4E1F9E0108611867D
:1048A000E8E2F9E01086118610927903109268030D
:1048B0001092640384E6809302020E94B7230C9452
:1048C000ED23EF920F931F93CF93DF931092AE09D6
:1048D0001092AF0987E00E941A511092DE031092E5
:1048E000DD031092D10310927203109270031092A4
:1048F0007D0910927E091092580910925909109260
:1049000063032091F6033091F703809113028150E5
:1049100080936703109266032130310509F06BC064
:104920008091F2039091F303019709F059C00E941E
:10493000ED0A0E94DA098091D50381110E94401886
:1049400010922609109227091092F4081092F50887
:104950001092E0081092E10840E050E0BA018AE0CD
:1049600099E00E94D38F0E94ED230E948D0F0E9438
:1049700075151092710310926F0310926E031092CE
:10498000880B1092890B8091DB039091DC038230BD
:10499000910509F400C18330910509F468C00197BD
:1049A00009F403C10E94B60F8130910509F4AEC02D
:1049B00088F1039709F4EBC082EE98E00E945D8FC6
:1049C000683873418105910508F0C7C0E12C10E0FB
:1049D00000E020E04091650860E083E891E045C098
:1049E0000E94820B85E090E0909304028093030282
:1049F0000E94EE0BA0CF0E94820B83E090E0909388
:104A00000402809303028091D503811197CF0E9405
:104A1000EE0B96CF80911302853009F44AC082EEE6
:104A200098E00E945D8FE12C10E000E0683873414F
:104A30008105910508F48AC082EE98E00E945D8F9E
:104A4000E12C10E000E0603177428105910538F4F7
:104A500020E04091650860E08AE090E006C020E038
:104A60004091650860E080E891E00E945D168091C9
:104A7000DB039091DC038230910509F41CC1833083
:104A8000910509F4CFC0019709F41CC1C09113022C
:104A90000E94B60FC53009F4F8C08130910509F4C1
:104AA00095C008F48CC0039709F4ECC080E690E050
:104AB00088C082EE98E00E945D8F6838734181055E
:104AC000910550F4E12C10E000E020E040916508F1
:104AD00060E088E891E0C9CF82EE98E00E945D8FA7
:104AE000E12C10E000E0603177428105910538F457
:104AF00020E04091650860E08BE891E0B6CF20E0CF
:104B00004091650860E08AE891E0AFCF82EE98E0DE
:104B10000E945D8F683873418105910550F4E12C46
:104B200010E000E020E04091650860E08BE090E05C
:104B30009CCF82EE98E00E945D8FE12C10E000E0B7
:104B4000603177428105910508F082CF20E04091E5
:104B5000650860E087E490E088CF82EE98E00E94EC
:104B60005D8FE12C10E000E0603177428105910516
:104B700038F420E04091650860E082E891E075CF6C
:104B800020E04091650860E081E891E06ECFE12C83
:104B900010E000E0EECFE12C10E000E020E04091DA
:104BA000650860E085E390E060CFE12C10E000E074
:104BB00020E04091650860E08BE390E056CF8DE700
:104BC00091E00E9468158EE791E006C084E690E0CF
:104BD0000E94681583E690E00E94681580910A02A1
:104BE000882321F089E090E00E94681588E490E035
:104BF0000E94681582E690E00E9468158091DB03B0
:104C00009091DC03059721F483EA91E00E946815F6
:104C10008091DB039091DC03069721F484EA91E014
:104C20000E94681580917803882331F1C091A50412
:104C3000D091A6048091E5039091E603813091051F
:104C400009F44CC0029709F044C0239741F48EE662
:104C500090E00E9468158FE690E00E946815E12CB4
:104C600010E000E020E04091650860E08FE690E011
:104C70000E945D1610927803DF91CF911F910F91E2
:104C8000EF9008958FE491E09CCF8130910569F019
:104C900028F0039769F08BE990E09ECF87E891E0D8
:104CA0000E94681589E891E097CF81E690E094CF63
:104CB0008FE491E091CF83E390E00E94681584E354
:104CC00090E0AECF89E390E00E9468158AE390E01F
:104CD000A7CF0E94B60F029708F0B7CF239741F4F1
:104CE0008AE490E00E94681589E490E00E946815CB
:104CF000E12C10E000E020E04091650860E089E4EC
:104D000090E0B6CFEF920F931F93CF938091DD0386
:104D10009091DE030697C9F4E091DB03F091DC0388
:104D2000319789E0E730F10570F48827E556F94DB1
:104D30008F4F0C9468A667276927A2266B276D27DB
:104D40006F2771278CE00E941A510E946D0F029705
:104D500008F4C9C00E9480158091DD039091DE03A4
:104D6000049721F080916C03882361F083E490E044
:104D70000E9468158FE390E00E94681584E490E03B
:104D80000E94681589E491E00E9468158CE691E024
:104D90000E9468158091DD039091DE03C0916C0341
:104DA000079709F0A9C0C111ADC0C091D403C111CA
:104DB000A9C01092E0031092DF031092DE0310925C
:104DC000DD038091D10381110E9461248091110241
:104DD000882359F082E50E941A51CC2319F089E505
:104DE0000E941A5185EC0E941A510E94DB150E9404
:104DF0009C1781E00E94A0150E94990B8EE390E021
:104E00000E9468158091DB039091DC03823091054C
:104E100009F412C18330910509F414C1019709F412
:104E20000EC186E090E00E9468158091DD039091AC
:104E3000DE030797B9F08091D403882399F080911D
:104E40001102882319F08DEB0E941A51EE24E3948D
:104E500010E000E020E04091650860E08EE591E020
:104E60000E945D1610927C0381E0809301021092F3
:104E7000A4091092A5091092AE081092AF081092E2
:104E8000D6081092D7081092CC081092CD08109234
:104E90004E0910924F0910924409109245098091D1
:104EA000DF039091E003892B69F48091D203909104
:104EB000D303019709F0C9C00E945A0B10927B03DB
:104EC00010927A03CF911F910F91EF9008958BE08C
:104ED0003ACF8AE038CF8DE036CF8EE034CF8FE006
:104EE00032CF80E130CF80916903811135CF8CE4DE
:104EF00091E00E94681530CFC1119CC08091D4030D
:104F000081115FCF9091BD0A8091B80A61E098133A
:104F100007C08091D2039091D303892B09F460E0FC
:104F200070E085E00E94BB501092E0031092DF0316
:104F30001092DE031092DD038091D403882341F0A8
:104F400084E991E00E9468158BE691E00E94681563
:104F50008091D403811103C08091D50381110E94F7
:104F60003C24C091D503C11128C00E946D0F029747
:104F700030F58091D2039091D303892B09F055C06D
:104F800080916903811151C08091D40381114DC07A
:104F9000C091ED03CC2309F448C08BEF90E00E9450
:104FA0006815EE24E39410E000E020E040916508ED
:104FB00060E08BEF90E00E945D16C0E036C080910B
:104FC0006903811117C0C091D403C11131C0809110
:104FD000DD039091DE03049769F0EE24E39410E082
:104FE00000E020E04091650860E081E990E00E94E7
:104FF0005D16C1E08091D403811117C08091110228
:10500000882319F08CEB0E941A5181E190E00E94F4
:105010006815EE24E39410E000E020E0409165087C
:1050200060E081E190E00E945D161092D403C9CE49
:10503000C0E0E0CFC0E0C5CE80E390E0F4CE85E4F0
:1050400090E0F1CE86E490E0EECE109287091092C7
:10505000880910925809109259090E9418242CCFDF
:10506000EF920F931F930E94822682E090E090932C
:10507000E0038093DF0387E090E09093DE0380936A
:10508000DD038091D403811141C040E456E060E02B
:1050900070E086E499E00E94D38F40E951E060E03F
:1050A00070E08CE399E00E94D38F40E951E060E02A
:1050B00070E086EA98E00E94D38F809111028823E5
:1050C00031F08FEB0E941A518EEB0E941A51E12CA5
:1050D00010E000E020E04091650860E083E490E0AB
:1050E0000E945D1620E04091650860E08FE390E04B
:1050F0000E945D1620E04091650860E084E490E045
:105100000E945D161F910F91EF9008950E946D0F00
:1051100040916508EE24E394039791F410E000E0D9
:1051200020E060E084E991E00E945D168091110228
:10513000882341F389EC1F910F91EF900C941A5141
:1051400004EC19E021E061E08BE691E0EDCFEF9215
:105150000F931F93CF9310927C031092D40381E09E
:105160008093010210928608109287082091D20342
:105170003091D3032130310569F53093E00320935A
:10518000DF031092DE031092DD038091030B811187
:1051900017C080911102882319F081EC0E941A51E6
:1051A0008CEF90E00E946815EE24E39410E000E09C
:1051B00020E04091650860E08CEF90E00E945D1671
:1051C00084E00E941A5180E0CF911F910F91EF90DF
:1051D0000C942E1B2091780A9091730A29130BC00E
:1051E00090917503992339F080936C030E943028C5
:1051F000C0E08C2FE9CF81E090E09093E0038093B2
:10520000DF031092DE031092DD03C091D70384E028
:105210000E941A51EECFEF920F931F938091DD03FE
:105220009091DE03039729F48091D10381110E94AC
:10523000612484E090E09093DE038093DD0380910D
:10524000ED03882341F04CEA5DE060E070E08CE91A
:1052500099E00E94D38F0E94DB150E949C1781E089
:105260000E94A01580917603882309F460C01092F3
:105270008709109288090E94820B8091110288236D
:1052800031F08EEB0E941A518FEB0E941A5140E9C7
:1052900051E060E070E086EA98E00E94D38FE12C54
:1052A00010E000E020E04091650860E083E490E0D9
:1052B0000E945D1620E04091650860E08FE390E079
:1052C0000E945D1620E04091650860E084E490E073
:1052D0000E945D1640E951E060E070E082E998E0EC
:1052E0000E94D38F40E456E060E070E088E898E0E8
:1052F0000E94D38F80911102882319F08CEB0E94B9
:105300001A5181E190E00E946815EE24E39410E0C8
:1053100000E020E04091650860E081E190E00E94BB
:105320005D1682E11F910F91EF900C941A518091BC
:10533000E10390E08E3109F092E08EE1891B8093C9
:10534000660385E0809367030E94B40948E750E054
:1053500060E070E08FE799E0CBCFEF920F931F935F
:10536000CF93DF938091DD039091DE03AC01445035
:1053700051093091020B2091FD0A4330510508F488
:10538000B1C24091D5034111ADC2321761F081E045
:1053900090E09093DE038093DD03DF91CF911F9126
:1053A0000F91EF90089580917C03833008F495C0AD
:1053B00081E08093D4030E9430280E9403060E945B
:1053C0006D0FC8EBDBE0039711F4C8E8D3E18091DF
:1053D0001302833009F47BC008F06EC0823009F4F8
:1053E00079C0AE0170E060E08CE998E00E94D38F54
:1053F000BE0188E00E94BB5080910D02882369F2B3
:105400008091D2039091D303892B39F69091780A39
:105410008091730A981709F29091BD0A8091B80A99
:105420009813BBCF80910902882309F4B6CF8091ED
:105430004C0B882309F44AC285E090E09093DE0388
:105440008093DD038091ED03882371F140ED57E0F7
:1054500060E070E08CE999E00E94D38F83E591E0F1
:105460000E94681583E991E00E94681588E591E043
:105470000E946815EE24E39410E000E020E04091E3
:10548000650860E087E591E00E945D168091DB038E
:105490009091DC03029741F420E04091650860E0C0
:1054A00083E591E00E945D1683E1DF91CF911F912A
:1054B0000F91EF900C941A51843031F0853009F03F
:1054C00090CFC053D84F8DCFC452DA4F8ACFC85136
:1054D000DC4F87CFCC50DE4F84CF8091620388238E
:1054E000A9F08EEC98E00E945D8F672B682B692BEA
:1054F00069F4109262030E946D0F029738F4809154
:10550000DD039091DE03039709F010989091470B0B
:105510008091420B981349C09091780A8091730A48
:10552000981343C09091BD0A8091B80A98133DC06A
:1055300080910F028823C9F18091DB039091DC03F5
:105540008130910509F4CFC0039709F4EEC08CE9CE
:1055500098E00E945D8F672B682B692B51F41092A5
:105560007C0348EE53E060E070E08CE998E00E9434
:10557000D38F80917203811105C080917C038F5F6E
:1055800080937C0380917C03833078F48091DD03E9
:105590009091DE03039731F083E090E09093DE0377
:1055A0008093DD0381E0809372032091330A309170
:1055B0002E0A8091D8039091D9030197029708F0A1
:1055C000DEC03213CBC09091780A8091730A981391
:1055D00038C09091BD0A8091B80A981332C080916A
:1055E0000F02882371F18CE998E00E945D8F672B90
:1055F000682B692B51F410927C0348EE53E060E075
:1056000070E08CE998E00E94D38F80917003811143
:1056100005C080917C038F5F80937C0380917C0325
:10562000833078F48091DD039091DE03039731F0AD
:1056300083E090E09093DE038093DD0381E080932C
:1056400070039091470B8091420B9817E9F080917D
:10565000DB039091DC038130910509F431C103979C
:1056600009F42EC18091D103882371F080917203D7
:10567000882351F08091700381111DC11092DE03C7
:105680001092DD03109272039091330A80912E0ADA
:10569000981709F4B1CE8091D8039091D903892B42
:1056A00009F0AACE8091DB039091DC038130910553
:1056B00049F008F408C18230910509F404C1039748
:1056C00009F09ACE8091D103882309F495CE809178
:1056D0007203882309F490CE1092DE031092DD034A
:1056E0001092720389CE8091610381115ECF8EEC9E
:1056F00098E00E945D8F672B682B692B09F055CFCE
:105700008091DD039091DE0348E552E060E070E0B7
:10571000039709F44ACF8EEC98E00E94D38F0E9441
:10572000EA9A81E08093610340CF80916103811107
:105730003CCF8EEC98E00E945D8F672B682B692B25
:1057400009F033CF8091DD039091DE03039709F4D4
:105750002CCF4AEF50E060E070E0DDCF8091720323
:1057600081110AC08091DD039091DE03039721F43B
:105770001092DE031092DD031092700362CF8091CD
:10578000DB039091DC03009759F44091DD035091C5
:10579000DE034330510521F4321709F44FCF51CFC6
:1057A00032134FCF3091780A2091730A321349CFC8
:1057B0003091BD0A2091B80A321343CF20910F02D5
:1057C000222309F43ECF8130910541F0B8F18230B7
:1057D000910509F44EC0039709F033CF8CE998E0A6
:1057E0000E945D8F672B682B692B51F410927C030C
:1057F00048EE53E060E070E08CE998E00E94D38FBF
:1058000080917203811105C080917C038F5F80932A
:105810007C0380917C03833008F013CF8091DD03FB
:105820009091DE03039731F083E090E09093DE03E4
:105830008093DD0381E08093720303CF8091610345
:105840008111FFCE8EEC98E00E945D8F672B682B54
:10585000692B09F0F6CE40ED57E060E070E08EEC89
:1058600098E00E94D38F0E94EA9A81E080936103BE
:10587000E8CE809161038111E4CE8091DD039091A7
:10588000DE03039709F4DDCE80916203811110C01D
:105890004EEE52E060E070E08EEC98E00E94D38F14
:1058A0000E94EA9A809162038F5F80936203DDCF4A
:1058B0008230D8F6F5CF0E94281E8111DFCEE2CECD
:1058C00010926103E1CE1092610396CD8091490B55
:1058D000882309F462CDDF91CF911F910F91EF9052
:1058E0000C940B29321353CD892B09F056CD8DE141
:1058F0009BE00E94E98D81110FC08091D8039091A7
:10590000D9030197029708F048CD89E09AE00E94F8
:10591000E98D882309F441CD8091300981113DCD75
:105920009091BD0A8091B80A981337CD9091780A6A
:105930008091730A981331CD80911102882319F058
:105940008DEB0E941A518EE591E00E946815EE24BD
:10595000E39410E000E020E04091650860E08EE50F
:1059600091E00E945D16DF91CF911F910F91EF9012
:105970000C940306CF93DF93D091E203D03319F058
:10598000D23309F046C00E94B60F2091D403833071
:10599000910511F5211104C08091D503882361F090
:1059A0008091DB039091DC03892BE9F580917703EB
:1059B000811139C0CEE020C080917803882321F086
:1059C000809177038823B1F38091DB039091DC030E
:1059D000029759F5C0E110C0211125C02091D503CF
:1059E000211121C02091DB033091DC0322303105ED
:1059F000E1F4C4E0019771F7D033C9F44FEF60E3ED
:105A00008C2F0E94AB2360931C0470931D04809321
:105A10001E048091DB039091DC03029709F0129A37
:105A2000DF91CF910895CCE0E7CFC1E0E5CFD2334D
:105A300081F74FEF62E38C2F0E94AB2360936404E5
:105A400070936504809366044FEF6091E2038C2F9E
:105A50000E94AB2360936704709368048093690489
:105A6000D8CFCF92DF92EF920F931F93CF93DF9314
:105A70006B01E82E8091E203803309F435C2823352
:105A800009F079C480E099E00E94A38F882309F48B
:105A900064C4C0917903CC2309F440C08091100202
:105AA0008C1708F43BC01091E203C150DD0BC05CC1
:105AB000D64F8091DB039091DC038730910508F08D
:105AC0004FC08330910508F000C18130910509F481
:105AD000EDC0029709F4C9C0009178030E94B60F87
