:100000000C9479000C94E5140C94BE140C94A1008B
:100010000C94A1000C94A1000C94A1000C940C155C
:100020000C94A1000C94A1000C94A1000C94A100CC
:100030000C94A1000C94A1000C94A1000C94A100BC
:100040000C9474140C94A1000C948E150C946815E7
:100050000C94A1000C94A1000C94A1000C94A1009C
:100060000C94C0150C94A10002000000002400278D
:10007000002A0000000000250028002B00000000DE
:1000800000230026002900040404040404040402DC
:100090000202020202030303030303010204081025
:1000A00020408001020408102001020408102000F2
:1000B0000000080002010000030407000000000027
:1000C0000000004552524F523A204E6F2063616C3F
:1000D0006C6261636B20617661696C61626C652042
:1000E000666F72207061636B657420494420000064
:1000F000141711241FBECFEFD8E0DEBFCDBF11E033
:10010000A0E0B1E0EEE0F9E402C005900D92A83F56
:10011000B107D9F727E0A8EFB1E001C01D92AD32D9
:10012000B207E1F710E0C9E7D0E004C02197FE0173
:100130000E94FE21C837D107C9F70E9434180C94D9
:1001400085240C940000FC01DB019C919150492F07
:100150004F3FC9F0242F30E0DF01A20FB31F8C9175
:100160008E3711F04150F4CF9F3F69F0492F50E096
:10017000DF01A40FB51F8C918E3719F4291B2C9326
:10018000292F9150F1CF08950F931F93CF93DF93B1
:100190001F92CDB7DEB71092020380930303109233
:1001A00005031092040393E0909306031092100449
:1001B000809311041092120410921304909314046B
:1001C0008FEF80931F0600E114E0F80180E0919129
:1001D0009E3709F05BC080931F0685E08983BE01CE
:1001E0006F5F7F4F80E194E00E94A3008091020442
:1001F00090910304E0E0D8012D918D01E227E80FF2
:10020000F92FF11DE081B4E005311B07A1F781E072
:1002100080930D0680911F0680930E0685E08093E3
:100220000F06E093100680912B0690912C06DC01BE
:10023000ED91FC910280F381E02D44E050E06CE010
:1002400076E0099580912B0690912C06DC01ED91CA
:10025000FC910280F381E02D45E050E060E174E024
:10026000099580912B0690912C06DC01ED91FC9173
:100270000280F381E02D42E050E060E176E00995F4
:100280000F90DF91CF911F910F9108958F5F85306F
:1002900009F09DCFA2CF833081F028F4813099F00E
:1002A0008230A9F008958730A9F08830C9F08430F1
:1002B000B1F4809180008F7D03C0809180008F77A2
:1002C00080938000089584B58F7784BD089584B5A8
:1002D0008F7DFBCF8091B0008F778093B000089521
:1002E0008091B0008F7DF9CFCF93DF93282F30E03E
:1002F000F901E155FF4F8491F901E556FF4FD49183
:10030000F901E957FF4FC491CC23A1F081110E945C
:100310004B01EC2FF0E0EE0FFF1FE358FF4FA591CC
:10032000B491EC91ED2381E090E009F480E0DF915D
:10033000CF91089580E090E0FACF1F93CF93DF93A1
:10034000282F30E0F901E155FF4F8491F901E5567E
:10035000FF4FD491F901E957FF4FC491CC23A9F085
:10036000162F81110E944B01EC2FF0E0EE0FFF1FC2
:10037000ED58FF4FA591B4918FB7F894EC911111FE
:1003800008C0D095DE23DC938FBFDF91CF911F9102
:100390000895DE2BF8CFCF93DF9390E0FC01E55674
:1003A000FF4F249189579F4FFC0184918823C9F006
:1003B00090E0880F991FFC01E759FF4FA591B49178
:1003C000FC01ED58FF4FC591D49161110DC09FB74D
:1003D000F8948C91209582238C93888128232883FC
:1003E0009FBFDF91CF910895623051F49FB7F89489
:1003F0003C91822F809583238C93E8812E2BEFCF25
:100400008FB7F894EC912E2B2C938FBFEACF3FB788
:10041000F8948091FE029091FF02A0910003B091A8
:10042000010326B5A89B05C02F3F19F00196A11D19
:10043000B11D3FBFBA2FA92F982F8827BC01CD012E
:10044000620F711D811D911D42E0660F771F881F8D
:10045000991F4A95D1F708958F929F92AF92BF92BC
:10046000CF92DF92EF92FF924B015C010E94070254
:100470006B017C010E9407026C197D098E099F099E
:10048000683E734081059105A8F321E0821A910826
:10049000A108B10888EEC80E83E0D81EE11CF11C4B
:1004A00081149104A104B10429F7FF90EF90DF902B
:1004B000CF90BF90AF909F908F9008952FB7F894F2
:1004C0006091FA027091FB028091FC029091FD0212
:1004D0002FBF0895CF93DF9382E00E947401EC0157
:1004E00083E00E94740120912A0230912B02C817E8
:1004F000D907F9F42F5F3F4F30932B0220932A0244
:1005000060912A0270912B02072E000C880B990B28
:100510000E94CF2220E030E040E250E40E942522F9
:100520000E9497227093C9026093C802DF91CF9115
:10053000089521503109E0CF0895089580E991E0B0
:10054000089508959091000189130BC0E8E6F0E04A
:10055000E4919FEF90930001E13049F028F0E23000
:1005600061F060E00C949D0110926E00FACF9091C2
:100570006F009D7F90936F00F4CF909170009D7FEE
:100580009093700091E09093B0009091B100987FAB
:1005900094609093B1001092B300E3CFAF92BF92FA
:1005A000CF92DF92EF92FF920F931F93CF93DF933F
:1005B0006C017B018B01040F151FEB015E01AE186E
:1005C000BF08C017D10759F06991D601ED91FC9190
:1005D0000190F081E02DC6010995892B79F7C501BD
:1005E000DF91CF911F910F91FF90EF90DF90CF900F
:1005F000BF90AF900895FC01538D448D252F30E0BE
:10060000842F90E0821B930B541710F0CF9608951F
:1006100001970895FC01918D828D981761F0A28D4C
:10062000AE0FBF2FB11D5D968C91928D9F5F9F7312
:10063000928F90E008958FEF9FEF0895FC01918DC8
:10064000828D981731F0828DE80FF11D858D90E035
:1006500008958FEF9FEF0895FC01918D228D892FD2
:1006600090E0805C9F4F821B91098F7399270895BA
:1006700081E693E00E942C0321E0892B09F420E01D
:10068000822F089580E090E0892B29F00E943803A2
:1006900081110C9400000895FC01A48DA80FB92FBE
:1006A000B11DA35ABF4F2C91848D90E001968F739A
:1006B0009927848FA689B7892C93A089B1898C91B9
:1006C000837080648C93938D848D981306C0028808
:1006D000F389E02D80818F7D80830895EF92FF92D2
:1006E0000F931F93CF93DF93EC0181E0888F9B8D55
:1006F0008C8D98131AC0E889F989808185FF15C00F
:100700009FB7F894EE89FF896083E889F989808131
:100710008370806480839FBF81E090E0DF91CF9100
:100720001F910F91FF90EF900895F62E0B8D10E022
:100730000F5F1F4F0F731127E02E8C8D8E110CC091
:100740000FB607FCFACFE889F989808185FFF5CFDC
:10075000CE010E944C03F1CFEB8DEC0FFD2FF11D6C
:10076000E35AFF4FF0829FB7F8940B8FEA89FB8919
:1007700080818062CFCFCF93DF93EC01888D882377
:10078000B9F0AA89BB89E889F9898C9185FD03C0F4
:10079000808186FD0DC00FB607FCF7CF8C9185FFD9
:1007A000F2CF808185FFEDCFCE010E944C03E9CFCF
:1007B000DF91CF91089520916F02260F3327331FC9
:1007C00021323105ECF420913703FC0190E080E008
:1007D000243069F082E00895A0916F022191AC016C
:1007E000415B5D4FA40FB52FB11D2C930196861769
:1007F00098F380916F02680F60936F0280E0089514
:1008000081E008951092370381E0809336031092BF
:10081000110361E082E10E949D0161E083E10E9499
:100820009D01E9EBF0E080818E7F808380818D7F68
:10083000808388E48093B80085E48093BC000895A9
:10084000CF93DF9391E090934E028823B9F0C0914B
:10085000B800D091BA008091BC008A7B8093BC0024
:1008600060E082E10E949D0160E083E10E949D01C1
:100870000E940204D093BA00C093B800DF91CF91D8
:100880000895CF92DF92EF92FF920F931F93CF9331
:10089000DF93D091600381E0D13208F09CC0C09119
:1008A0005F030E9407026B017C0180913703811175
:1008B0006CC082E08093370381E0809336038FEF32
:1008C0008093350310923403D0933303AFE3B3E046
:1008D000E3E1F3E080E0D8138DC010921203809121
:1008E0001203CC0FC82BC0931203809111038130E7
:1008F00009F084C0109211030E9407026B017C0171
:10090000809112038093BB008091390390913A0348
:10091000A0913B03B0913C03892B8A2B8B2BA1F038
:100920000E9407020091390310913A0320913B0382
:1009300030913C036C197D098E099F090617170732
:100940002807390708F442C08091BC0083FDD8CF46
:1009500085EC8093BC000E9407026B017C018091B2
:100960003703823009F44CC0809135038F3F09F47E
:1009700069C080913503803209F466C080913503E7
:10098000803309F463C084E026C0809139039091DC
:100990003A03A0913B03B0913C03892B8A2B8B2B0C
:1009A00009F483CF0E9407020091390310913A03A2
:1009B00020913B0330913C036C197D098E099F09FE
:1009C000061717072807390708F06FCF80913803FB
:1009D0000E94200485E010923E0310926003109262
:1009E0003D03DF91CF911F910F91FF90EF90DF902A
:1009F000CF9008959D9191938F5F6DCF85EEA9CF94
:100A00008091390390913A03A0913B03B0913C034C
:100A1000892B8A2B8B2B09F4A2CF0E94070200910D
:100A2000390310913A0320913B0330913C036C1938
:100A30007D098E099F09061717072807390708F04F
:100A40008ECFC4CF80E0C7CF82E0C5CF83E0C3CFD5
:100A50000895E091BF028091BE02E81730F4F0E003
:100A6000E25DFD4F808190E008958FEF9FEF089544
:100A70009091BF028091BE022FEF3FEF981748F48C
:100A8000E92FF0E0E25DFD4F208130E09F5F909321
:100A9000BF02C90108958091BE029091BF02891BD7
:100AA000990B0895CF92DF92EF92FF920F931F93CD
:100AB000CF93DF937C01CB018A0120913D03222358
:100AC00089F0EB016B01C40ED51ECC15DD0569F074
:100AD0006991D701ED91FC910190F081E02DC70162
:100AE0000995F3CF642F0E94DB03C801DF91CF91FA
:100AF0001F910F91FF90EF90DF90CF900895CF93CB
:100B0000DF931F92CDB7DEB7698320913D03222387
:100B1000F9F020916003203258F021E030E0FC0130
:100B20003383228390E080E00F90DF91CF9108958E
:100B300080913E03E82FF0E0E15CFC4F99819083C7
:100B40008F5F80933E038093600381E090E0ECCF61
:100B500061E0CE0101960E94DB03F7CF9091E5069C
:100B600021E020933D0390935F0310923E03109287
:100B70006003682F84E094E00E947F050C94410498
:100B800090E080E00895CF92DF92EF92FF920F9372
:100B90001F93CF93DF93EC0188810E9474018C0135
:100BA0000E945E022C893D892017310731F06E8B3F
:100BB0007F8B888F998F1D8B0C8BCE88DF88E88C7C
:100BC000F98C6C197D098E099F09CA80DB80EC8045
:100BD000FD806C157D058E059F0530F08A899B8907
:100BE000998B888B1B8B0A8B288939898A899B89E9
:100BF0002817390781F04A855B8542305105A1F4F9
:100C00008E819F81A885B9850196A11DB11D8E8316
:100C10009F83A887B987DF91CF911F910F91FF9094
:100C2000EF90DF90CF9008954115510531F42130B8
:100C3000310589F7892B21F3EECF4130510559F762
:100C4000232B49F7019739F7DBCF8F929F92AF9211
:100C5000BF92CF92DF92EF92FF920F931F93CF93A9
:100C6000DF93FC012085211110C060E070E0CB0112
:100C7000DF91CF911F910F91FF90EF90DF90CF9078
:100C8000BF90AF909F908F900895EC010E945E02FC
:100C900029852111EACF8C809D80AE80BF8008819C
:100CA00019812A813B816B017C01C818D908EA08A7
:100CB000FB08C016D106E206F306B8F6080D191DAA
:100CC0002A1D3B1D68017901C61AD70AE80AF90AEC
:100CD000C701B601CDCFCF92DF92EF92FF921F9363
:100CE000CF93DF93FC01108511110AC010E0812F12
:100CF000DF91CF911F91FF90EF90DF90CF900895FB
:100D0000EC018185882319F018861986F0CF0E949E
:100D10005E02CC80DD80EE80FF806C197D098E093B
:100D20009F09C880D980EA80FB806C157D058E05FF
:100D30009F0550F7DBCFCF93DF93EC0148835983B6
:100D40006A837B830E945E026C837D838E839F8394
:100D500081E088871986DF91CF910895CF92DF9245
:100D6000EF92FF920F931F93CF93DF93962F142F41
:100D70006F3108F025C0E62FF0E0EF53F94F0C94E7
:100D8000FE219C08E006FD0600070307050805078D
:100D900008070B070E071107140717071A071D0787
:100DA00021072007240727072A072D0730073407C4
:100DB000370707083A083A077A07C107670897080C
:100DC00020E094E6392F330F330F330F85E5632F7F
:100DD000689F060E60E0611D1124592F5074492F41
:100DE000407297FD05C25111F0C14111A8C1862F73
:100DF0008095762F682F80E0A6C12BE996E1E2CF9F
:100E00002FEF94EFDFCF20E8FCCF20EC90E0DACF9B
:100E10002FEF95E0D7CF2FEF9AE0D4CF2FEF9FE0C1
:100E2000D1CF2FEF94E1CECF2FEF90E2CBCF20E8C0
:100E30009BE2C8CF2FEF90E4C5CF2FEF90E5C2CF54
:100E400010E82FEF90E6BECF28E790E7BBCF2FEF5B
:100E500090E8B8CF2FEF91E9B5CF2FEF90EAB2CF5E
:100E600010E728EC9AEAAECF2FEF94EBABCF2FEF41
:100E700090ECA8CFE82EF12C9701225F3C4F69013E
:100E8000D9019C9194519D3010F094E19C93F7010D
:100E9000EE0FFF1FEF5EFE4F25E030E03183208331
:100EA000BAE08B9FE0011124CF5CD94FCE010E94A4
:100EB0002506672B682B692BC9F4F6018081F701A1
:100EC000E55FFC4F90819F5F90839F7141F490E0BC
:100ED00001968F719927D6018C9384E1808345E038
:100EE00050E060E070E0CE010E949B06F601908128
:100EF0002FEF68CFC82FD0E08E01000F111FF8012F
:100F0000EF5EFE4F2AE030E031832083FAE08F9FCE
:100F1000C00111249C012F5C394F7901C9010E9445
:100F20002506C85FDC4F672B682B692B31F588815C
:100F3000823048F481E0888383E090E0F801E55F47
:100F4000FE4F9183808388818E3F48F08EEF8883A7
:100F50008DEF9FEFF801E55FFE4F91838083F801ED
:100F6000E55FFE4F88819081890F88834AE050E0D9
:100F700060E070E0C7010E949B0618812FEF9CE1A2
:100F800021CFC82FD0E08E01000F111FF801EF5EB6
:100F9000FE4F28E030E0318320833AE0839FC00198
:100FA0001124AC014F5C594F7A01CA010E942506F9
:100FB000C85FDC4F672B682B692B31F58881823045
:100FC00048F481E0888383E090E0F801E55FFE4F1C
:100FD0009183808388818E3F48F08EEF88838DEFE8
:100FE0009FEFF801E55FFE4F91838083F801E55F95
:100FF000FE4F88819081890F888348E050E060E04F
:1010000070E0C7010E949B0618812FEFFFCE282FAA
:1010100030E0D901A25FBC4F7D019C91992319F06A
:10102000903609F01C92220F331FF901EF5EFE4F3C
:1010300020E233E031832083BAE08B9FE00111246A
:10104000CF5CD94FCE010E942506672B682B692BF8
:1010500079F4F7018081811103C080E6808301C0AB
:10106000108240E253E060E070E0CE010E949B06F7
:10107000F7013DCF282F30E0A901425F5C4F7A0194
:10108000DA019C919F3021F0923D11F09FE09C93FA
:10109000220F331FF901EF5EFE4F20E233E0318370
:1010A0002083BAE08B9FE0011124CF5CD94FCE01A1
:1010B0000E942506672B682B692BD1F6F7018081EA
:1010C0008F3011F482EDCACF8FE08083CACFE82E33
:1010D000F12CF701EE0FFF1FEF5EFE4F2AE030E02C
:1010E00031832083FAE08F9FE0011124CF5CD94F38
:1010F000CE010E9425069701225F3C4F7901672BA4
:10110000682B692B89F4D9018C9190E001966FEFDF
:1011100070E00E94A921F90180834AE050E060E07C
:1011200070E0CE010E949B06D7019C91E1CE2091F8
:101130000A019091070346CE162F262F43CE75E560
:10114000760F80E06BEA2F3FF1F0222309F46FC0A5
:10115000209590E0222329F0229F912D1124211126
:101160009F5F292F2095629F060E60E0611D729F90
:10117000070E70E0711D829F080E80E0811D112412
:10118000690F790F890F1F3FB9F090E0112321F00B
:10119000119F912D09F09F5F992309F44CC0699F1D
:1011A000060E60E0611D799F070E70E0711D899F3A
:1011B000080E80E0811D1124DF91CF911F910F91C6
:1011C000FF90EF90DF90CF90089541110BC09AEA05
:1011D000399F030E30E0311D11248BEA831B7AEA1C
:1011E000760F08CE80E0762F7095862F60E0ABCF2B
:1011F000511111C041110BC0832F9AEA899F080E2B
:1012000080E0811D11247BEA781B8B5AEFCF862F5B
:10121000809570E098CF411106C095E5960F8BEA56
:10122000861B692FF6CF9AEA960F30E0F9CF8FEF41
:101230007FEF6FEFA8CF80E070E060E0BDCF0F934D
:101240001F93CF93DF9320912D022F5F322F3770A2
:1012500030932D0220FF2BC020E831FD2064347034
:1012600009F02062205FFC01EC01239600E011E010
:101270006485662329F070E0C8010E94A9216F5F90
:101280006187822F869F080E80E0811D11248111C5
:1012900010C01682662311F0615061873196EC17F9
:1012A000FD0731F7DF91CF911F910F91089520E055
:1012B000D4CF81508683EECF4F925F927F928F92F0
:1012C0009F92AF92BF92CF92DF92EF92FF920F93D5
:1012D0001F93CF93DF932C01EB010E940702F201D1
:1012E00025893689621B730B6A307105B0F3F89457
:1012F0008A819B81181619060CF0CBC1E881F9810F
:1013000005B1026075B17D7F75B9BA848F812B2DCF
:10131000281B822F2F834F85042E000C550BAA818A
:10132000BB81ED84DC84CE84E394D394C3949E810A
:10133000388599848B84118120E0F32E622F322F1F
:101340003181112788943111380F08F43FEF8195CE
:101350008894E0FC130F17958894E1FC130F179500
:101360008894E2FC130F17958894E3FC130F1795EC
:101370008894E4FC130F17958894E5FC130F1795D8
:101380008894E6FC130F17958894E7FC130F1795C4
:101390008894232FE110212F8B0D122F002C05B9DB
:1013A00000C017FF75B930812227889400C000C0A3
:1013B000002C75B93111390F00C0002C05B900C0DF
:1013C00016FF75B908F43FEF9195889400C000C0EE
:1013D000002C75B9D0FC230F00C0002C05B900C04B
:1013E00015FF75B927958894D1FC230F00C000C064
:1013F000002C75B92795889400C0002C05B900C051
:1014000014FF75B9D2FC230F2795889400C000C043
:10141000002C75B9D3FC230F00C0002C05B900C007
:1014200013FF75B927958894D4FC230F00C000C022
:10143000002C75B92795889400C0002C05B900C010
:1014400012FF75B9D5FC230F2795889400C000C002
:10145000002C75B9D6FC230F00C0002C05B900C0C4
:1014600011FF75B927958894D7FC230F00C000C0E1
:10147000002C75B92795889400C0002C05B900C0D0
:1014800010FF75B9132FD110122F990D00C000C095
:10149000002C75B900C000C0002C05B900C017FFB2
:1014A00075B932812227889400C000C0002C75B91C
:1014B00031113F0D00C0002C05B900C016FF75B9F1
:1014C00008F43FEFE40FF51F00C000C0002C75B911
:1014D000C0FC230F00C0002C05B900C015FF75B972
:1014E00027958894C1FC230F00C000C0002C75B95B
:1014F0002795889400C0002C05B900C014FF75B969
:10150000C2FC230F2795889400C000C0002C75B939
:10151000C3FC230F00C0002C05B900C013FF75B930
:1015200027958894C4FC230F00C000C0002C75B917
:101530002795889400C0002C05B900C012FF75B92A
:10154000C5FC230F2795889400C000C0002C75B9F6
:10155000C6FC230F00C0002C05B900C011FF75B9EF
:1015600027958894C7FC230F00C000C0002C75B9D4
:101570002795889400C0002C05B900C010FF75B9EC
:10158000132FC110122FF19400C000C0002C75B9A8
:10159000F80C00C000C005B900C017FF75B9318153
:1015A0002227889400C000C0002C75B93111380F73
:1015B00000C0002C05B900C016FF75B908F43FEF54
:1015C0008195889400C000C0002C75B9E0FC230F01
:1015D00000C0002C05B900C015FF75B92795889487
:1015E000E1FC230F00C000C0002C75B9279588943A
:1015F00000C0002C05B900C014FF75B9E2FC230F30
:101600002795889400C000C0002C75B9E3FC230F17
:1016100000C0002C05B900C013FF75B92795889448
:10162000E4FC230F00C000C0002C75B927958894F6
:1016300000C0002C05B900C012FF75B9E5FC230FEE
:101640002795889400C000C0002C75B9E6FC230FD4
:1016500000C0002C05B900C011FF75B9279588940A
:10166000E7FC230F00C000C0002C75B927958894B3
:1016700000C0002C05B900C010FF75B9132FE11090
:10168000122F8B0D00C000C0002C75B9119709F006
:1016900086CE4A815B8120EE31E0DA010E9404228D
:1016A000DC01CB01F4E0B695A79597958795FA955F
:1016B000D1F730E020E0B901EAE94E9F040E611D48
:1016C0005E9F600D711D1124650F711D860F971FA0
:1016D000A11DB11D893E43E09407A105B10508F4A1
:1016E00034C0885E9340A109B10942E0B695A79540
:1016F000979587954A95D1F747E0849F080E211D5D
:10170000949F200D311D1124290F311D60912C0251
:1017100070E0860F971F820F931F4091FA0250913D
:10172000FB026091FC027091FD02292F3327420FCA
:10173000531F611D711D4093FA025093FB02609389
:10174000FC027093FD0280932C0278940E940702A1
:10175000F201768B658BDF91CF911F910F91FF90F6
:10176000EF90DF90CF90BF90AF909F908F907F9041
:101770005F904F90089581E090E00895219A089538
:101780006F927F928F92CF92DF92EF92FF920F93A0
:101790001F93CF93DF93CDB7DEB762970FB6F89460
:1017A000DEBF0FBECDBF6C017A013801822EDC0195
:1017B0001C962C91CA0157FF04C088279927841BC7
:1017C000950B7A8369839C838B839E838D836D863F
:1017D0007E868F86213049F5CE0101960E941F0931
:1017E00083E0888B1A8A198AF7FE02C08DEF888BF6
:1017F000D601ED91FC910288F389E02DBE016F5F67
:101800007F4FC601099562960FB6F894DEBF0FBEF2
:10181000CDBFDF91CF911F910F91FF90EF90DF909F
:10182000CF908F907F906F9008951C861B861A86AC
:10183000198618861F82D4CFEF92FF920F931F93C1
:10184000CF93DF93CDB7DEB762970FB6F894DEBFC4
:101850000FBECDBF7C01DC011C968C917A8369831D
:101860005C834B835E834D830D871E872F8781307A
:10187000F9F4CE0101960E941F09188A1A8A198A62
:10188000D701ED91FC910288F389E02DBE016F5FD5
:101890007F4FC701099562960FB6F894DEBF0FBE61
:1018A000CDBFDF91CF911F910F91FF90EF900895E1
:1018B0001C861B861A86198618861F82DECF8BEA45
:1018C00096E00E94C30581E996E00E94C30587E780
:1018D00096E00C94C30580912802882349F08AE0A1
:1018E0000E94A20210920607109207071092280287
:1018F0000895CF92DF92EF92FF92CF93209128022A
:10190000211113C06C01809100018A30A1F08F3F3A
:1019100009F45AC04CE251E060E070E08EEF96E0CE
:101920000E949B0681E080932802CF91FF90EF9068
:10193000DF90CF900895E8E6F0E0C491C7FDEACFCC
:1019400061E08AE00E94CB01CC2319F0C23009F09B
:10195000D9C0F12CE12C68E478EE81E090E0A70199
:1019600096010E94DF21BA01A90141505109610984
:101970007109CC2309F406C1C23009F094C04F3F6D
:1019800051056105710509F00CF4BAC064E274EF09
:1019900080E090E0A70196010E94DF21BA01A90131
:1019A000415051096109710995E08091B100887F2A
:1019B000892B8093B100C13009F4BCC0C23009F456
:1019C000CEC0C111A7CF8AC08AE080930001E8E6AB
:1019D000F0E0C491CF3F09F49DCFC13021F150F028
:1019E000C23009F43EC0C7FD95CF61E08AE00E9495
:1019F000CB01ACCF14BC15BC84B5826084BD85B569
:101A0000816085BDE1E9F0E0E491F0E0EE0FFF1FB9
:101A1000ED58FF4F85919491E5EAF0E0E491E09371
:101A20001F02C0E08DCF1092800010928100809143
:101A30008100886080938100809181008160809323
:101A40008100E1E9F0E0E491F0E0EE0FFF1FED58D6
:101A5000FF4F85919491E5EAF0E0E491E0931E0256
:101A60006FCF1092B0001092B1008091B0008260F0
:101A70008093B0008091B10081608093B100E1E972
:101A8000F0E0E491F0E0EE0FFF1FED58FF4F85917D
:101A900094919093930280939202E5EAF0E0E491AE
:101AA000E09394024DCF4F3F51056105710541F11F
:101AB0003CF162E17AE780E090E0A70196010E94A4
:101AC000DF21BA01A9014150510961097109C11110
:101AD00062C094E085B5887F892B85BD47BD8FEFB7
:101AE0009FEFDC018093240290932502A0932602AD
:101AF000B093270280916E00826080936E000ACFBF
:101B000094E053CF960150E040E060E072E18AE754
:101B100090E00E94DF21BA01A901415051096109F9
:101B20007109C13009F047CF80918100887F8160C1
:101B30008093810050938900409388008FEF9FEF3E
:101B4000DC018093200290932102A0932202B093A3
:101B5000230280916F00826080936F00DBCE409300
:101B6000B3008FEF9FEFDC01809395029093960274
:101B7000A0939702B0939802809170008260809346
:101B80007000C8CE93E04F3F51056105710511F01B
:101B90000CF08FCF9FCF96E008CFE82F8091C00246
:101BA000882331F1EC310CF0EBE1E7FDE0E00E2EA3
:101BB000000CFF0BE35EFE4F80816623D1F087FDB2
:101BC00017C0E82FE695E695E695F0E0E153F94F6A
:101BD000282F277081E090E0A0E0B0E004C0880FDB
:101BE000991FAA1FBB1F2A95D2F72081822B8083C1
:101BF000089587FDFDCFE82FE695E695E695F0E0A0
:101C0000E153F94F282F277081E090E0A0E0B0E089
:101C100004C0880F991FAA1FBB1F2A95D2F7809571
:101C200090818923E4CF0F931F93CF93DF9300D04C
:101C30001F92CDB7DEB7AB0119821A821B82DC017D
:101C4000ED91FC910190F081E02D00E010E020E0AA
:101C5000BE016F5F7F4F09950F900F900F90DF913E
:101C6000CF911F910F910895FC0185859685089568
:101C700090E080E00895FC0164870895FC0184856C
:101C800090E008950F931F93CF93DF938C01809181
:101C9000E50691E090933D0380935F0310923E032D
:101CA0001092600360E084E094E00E947F05E80108
:101CB000005F1F4F699184E094E00E947F050C173C
:101CC0001D07C1F7DF91CF911F910F910C94410433
:101CD0008FEC96E00C94420ECF93DF932091290273
:101CE000211110C0EC0161E08BE00E94CB0161E0AA
:101CF0008BE00E949D01AE0170E060E084EF96E011
:101D00000E949B0681E080932902DF91CF91089584
:101D100080912902882371F061E08BE00E94CB0161
:101D200060E08BE00E949D011092FC061092FD067F
:101D3000109229020895EFECF6E080E1DF011D9298
:101D40008A95E9F7CF010C94420E8091C00281116F
:101D50000E949B0E1092D5021092D40282E090E075
:101D60009093F5028093F40208950E94A50E1092BC
:101D7000D5021092D4021092D302E5ECF6E0108660
:101D800011861092F5021092F40208958EEFE0E1B0
:101D9000F4E0DF01982F1D929A95E9F7EEE0F5E067
:101DA000DF011D928A95E9F7109212061092210622
:101DB0001092220610922306109224060895809114
:101DC0002B0690912C06DC01ED91FC910084F185AD
:101DD000E02D0995892B61F080912B0690912C06BE
:101DE000DC01ED91FC910284F385E02D0995E7CFAC
:101DF0000E94C60E8091130680932A0608950E94C1
:101E00008024FB0101900020E9F73197AF01461BC8
:101E1000570BDC01ED91FC910280F381E02D0994D8
:101E20008F929F92AF92BF92EF92FF920F931F9368
:101E3000CF93DF93CDB7DEB7A1970FB6F894DEBF8F
:101E40000FBECDBF7C01FA01CB0119A2223008F4EC
:101E50002AE08E010F5D1F4F822E912CB12CA12CF8
:101E6000BF01A50194010E94BD21F901CA016A3098
:101E70000CF5605DD8016E938D01232B242B252B4F
:101E800079F790E080E0109721F0BD01C7010E9432
:101E9000010FA1960FB6F894DEBF0FBECDBFDF9144
:101EA000CF911F910F91FF90EF90BF90AF909F90B7
:101EB0008F900895695CDECF0F931F93CF93DF93CC
:101EC000EC010E94010F8C016BE871E0CE010E94D1
:101ED000010F800F911FDF91CF911F910F910895F6
:101EE000CF92DF92EF92FF920F931F93CF93DF93E6
:101EF000EC017B018091210690912206A09123069E
:101F0000B0912406892B8A2B8B2B41F4D7018C911D
:101F100081113EC01092120681E063C00E945E02F1
:101F2000009121061091220620912306309124066B
:101F3000601B710B820B930B0091250610912606F6
:101F400020912706309128066017710782079307B2
:101F5000E8F280911B06882341F06EE871E08091E1
:101F6000190690911A060E945C0F109212061092A8
:101F70001506109214068DEF809313061092210619
:101F800010922206109223061092240680E0E4C0EC
:101F9000E0911406F0911506E730F10508F01EC136
:101FA000EC52F04F0C94FE21DB0FF40FFE0F0410E7
:101FB000241038106C1088818E3781F481E090E015
:101FC00090931506809314060E945E02609321068A
:101FD0007093220680932306909324061092120693
:101FE00083E080931306D2CF888180931E0682E01F
:101FF00090E09093150680931406F0CF888180932B
:10200000200683E090E0F5CF88819FEF980F9E3FF8
:1020100038F480931C0610921D0684E090E0E9CF0E
:102020001092120610921506109214068FEF8093EC
:10203000130680911B0662EA71E0811146C00E947E
:10204000C60E8091120688C080911D0690911C06D4
:10205000891720F62881E82FF0E0E25FFA4F20830D
:102060008F5F80931D069813B9CF85E090E0C1CFB4
:1020700040911C066091020470910304AEE0B5E04B
:1020800030E020E080E050E02417350748F4ED917F
:10209000E827E60FF72FF11D80812F5F3F4FF4CF28
:1020A0009881981303C086E090E0A3CF10921206A7
:1020B00010921506109214061092130680911B06BA
:1020C00067EB71E0882309F4BACF809119069091EB
:1020D0001A060E945C0FB3CF1092150610921406D8
:1020E0008881813809F06DC0809120068F3F69F0AA
:1020F0002EE7E82FF0E0E25FFA4F9081992319F084
:102100002083890FF6CF8EE7808380911C06809311
:10211000120682E08093130620911606309117066E
:102120002115310579F080911E06909118068917C6
:10213000E0F490E0880F991F820F931FDC01ED916E
:10214000FC91099510922106109222061092230606
:102150001092240680911C06DF91CF911F910F9160
:10216000FF90EF90DF90CF90089580911B06882319
:1021700049F3E0901906F0901A06C3ECD0E0FE0196
:102180006491662359F0D701ED91FC910190F081A3
:10219000E02DC70109952196892B89F7C091190671
:1021A000D0911A0640911E0650E070E060E02AE0EF
:1021B000CE010E94100F6BE871E0CE010E94010F6A
:1021C000C1CF109212068EEF8093130680911B06EA
:1021D000882309F434CF68EC71E077CF80911B0637
:1021E000882389F16FED71E08091190690911A06AC
:1021F0000E94010FC0911906D0911A06C0901406D2
:10220000D09015060D2C000CEE08FF082AE0B7014F
:10221000A601F7FE10C0E881F9810190F081E02D60
:102220006DE2CE01099544275527BA014C195D0985
:102230006E097F092AE0CE010E94100F6BE871E061
:10224000CE010E94010F0E94C60E10921506109238
:102250001406C4CE1F93CF93DF9300D0CDB7DEB763
:102260001A828FEF898380912B0690912C06DC01D6
:10227000ED91FC910084F185E02D0995892B99F170
:1022800081E08A8380912B0690912C06DC01ED91F0
:10229000FC910084F185E02D0995892BF1F0809166
:1022A0002B0690912C06DC01ED91FC910284F385C4
:1022B000E02D09958983BE016E5F7F4FCE010196A7
:1022C0000E94700F809329068091130680932A063E
:1022D0008330C1F287FD0E94DF0E809129068111B3
:1022E00010C010E0A6C0BE016E5F7F4FCE01019608
:1022F0000E94700F809329068091130680932A060E
:10230000E9CF10911E06112361F3809157068823AF
:1023100081F08091F802811183C240914F06509163
:10232000500660915106709152068FE496E00E942B
:102330009B06123009F4ABC1163009F477C2113094
:1023400081F690910E0590931902E0910F05E093AC
:102350001A028091100580931B02809111058093D1
:102360001C028091120580931D02EE2309F4B9CF5F
:10237000913009F0B6CF843009F0B3CFE150EB349F
:1023800008F0AFCFF0E0E953FE4E0C94FE2112129C
:102390007111711124123312391205131D137111A9
:1023A000711176127B128212851288128B127111B2
:1023B0009D12E412EC12EF12FB12711171117111E6
:1023C0003A133413A012A512AC12AF12B21271114B
:1023D00071117111711171117111711171117111ED
:1023E0007111711171116C12621258124A12B512E8
:1023F000D0123312391271117111711171117111E1
:1024000071117111711171117111711171117111BC
:1024100071117111711171117111711171117111AC
:10242000311231121091F80211110AC081E00E949C
:10243000C400812F0F900F90DF91CF911F910895CD
:1024400082E00E94C4004DCF1092F80240E45FE1A8
:1024500060E070E08FE496E00E949B0684E00E94BA
:10246000C40011E0E6CF81E08093F60284E090E0C2
:102470000CC01092F6028091F4029091F502892B23
:1024800011F00E945E2181E090E09093F102809330
:10249000F002E7CF8091CB029091CC02029709F431
:1024A00020CF82E090E09093CC028093CB02D9CFF2
:1024B0008091CB029091CC02039709F412CF83E074
:1024C00090E0F1CF8091CB029091CC02049709F477
:1024D00008CF84E090E0E7CF8091CB029091CC02CE
:1024E000059709F4FECE85E090E0DDCF1092CE0294
:1024F0001092CD02B6CF81E090E09093CE0280930F
:10250000CD02AFCF82E090E0F8CF83E090E0F5CF4E
:1025100084E090E0F2CF20911B0230911C0285E014
:1025200090E09093CE028093CD0281E0223031057D
:1025300009F080E08093CA0294CF87E090E0DDCF7D
:102540001092D7021092D6028CCF81E090E0909347
:10255000D7028093D60285CF82E090E0F8CF83E067
:1025600090E0F5CF84E090E0F2CF1092EE0281E0AF
:102570008093F2020E945E2181E090E09093F1024C
:102580008093F0021091F602112309F46ACF40E221
:1025900053E060E070E08AEE96E00E949B0649CF2F
:1025A0001092F2021091F602112309F45ACF109200
:1025B000F2061092F3060E94A50E84E090E090933C
:1025C000F1028093F00235CF81E080930601809381
:1025D000F3020E94A50E4ACF1092F30242CF81E08F
:1025E0008093F30240E253E060E070E08AEE96E010
:1025F0000E949B0646CF1092F3021092F2061092B0
:10260000F30681E080930601E4CF81E08093EE023F
:102610008093F6026091060170E080E293E00E94F0
:102620009521AB0170E060E08AEE96E00E949B0687
:102630000E94A50E82E090E028CF1092EE02109248
:10264000F2061092F3068091F302811103C081E03B
:10265000809306011091F202112309F4BACF0E946F
:102660005E2181E090E0ABCF809106018F5F809387
:102670000601F7CE81E0809306011091EE0211234E
:1026800009F4A7CF0E94A50E82E090E098CF1091A8
:10269000F802111126CE40910E05409313022091AD
:1026A0000F052093140290911005909315028091CC
:1026B0001105809316023091120530931702309164
:1026C000130530931802222309F40BCE413009F090
:1026D00008CE343009F005CE213161F0273309F0FE
:1026E00000CE911190930703882309F4FACD8093CB
:1026F0000A019FCE26E030E03093CE022093CD0237
:10270000911190930703882309F4ABCE80930A01BB
:10271000A8CE833081F0843009F09CC085E090E041
:1027200002C082E090E09093CC028093CB0292C0F2
:1027300083E090E0F8CF84E090E0F5CF1092CE02F5
:102740001092CD028091FD01833009F463C008F03E
:1027500052C0823009F457C01092D7021092D602AC
:1027600081E09091FC01913009F080E08093F602C5
:1027700081E090910102913009F080E08093EE02B7
:1027800081E090910202913009F080E08093F302A1
:1027900080910302809306018091040280930703D5
:1027A0008091050280930A019CCD81E090E0909396
:1027B000CE028093CD02C6CF82E090E0F8CF83E0D6
:1027C00090E0F5CF84E090E0F2CF85E090E0909348
:1027D000CE028093CD021092CA02B4CF85E090E081
:1027E0009093CE028093CD0281E08093CA02AACF5B
:1027F00086E090E0DCCF843081F0853009F0ACCF0A
:1028000084E090E002C081E090E09093D702809352
:10281000D602A6CF82E090E0F8CF83E090E0F5CF3B
:10282000113009F48ECD163009F05BCDAEE0B5E085
:10283000E8EFF1E08D91819382E0E331F807D1F781
:102840008091FB01823009F473CF08F062CF8130B0
:1028500009F467CFE091FE01E250E73008F06ECF57
:10286000F0E0EB5CFB4E0C94FE21D513DC13DF1380
:10287000E213E513EE13F81385ED8093BC0080910D
:10288000390390913A03A0913B03B0913C03079622
:10289000A11DB11D23E0B695A795979587952A951B
:1028A000D1F72091BC0024FD03C010923703089596
:1028B0004091390350913A0360913B0370913C037E
:1028C000452B462B472B69F30097A105B10541F035
:1028D0002AE22A95F1F700C00197A109B109E1CFD9
:1028E000809138030C9420041F920F920FB60F9220
:1028F00011242F933F938F939F93AF93BF93809116
:10290000FA029091FB02A091FC02B091FD0230917D
:10291000F90223E0230F2D3758F50196A11DB11DB3
:102920002093F9028093FA029093FB02A093FC0299
:10293000B093FD028091FE029091FF02A0910003EE
:10294000B09101030196A11DB11D8093FE029093E9
:10295000FF02A0930003B0930103BF91AF919F9139
:102960008F913F912F910F900FBE0F901F90189550
:1029700026E8230F0296A11DB11DD2CF1F920F9200
:102980000FB60F9211242F933F934F935F936F9342
:102990007F938F939F93AF93BF93EF93FF93E091B8
:1029A0000301F09104010995FF91EF91BF91AF915F
:1029B0009F918F917F916F915F914F913F912F9157
:1029C0000F900FBE0F901F9018951F920F920FB689
:1029D0000F9211242F933F934F935F936F937F93A5
:1029E0008F939F93AF93BF93EF93FF93E091010178
:1029F000F09102010995FF91EF91BF91AF919F91E5
:102A00008F917F916F915F914F913F912F910F9097
:102A10000FBE0F901F9018951F920F920FB60F9236
:102A200011242F933F934F935F936F937F938F93D3
:102A30009F93AF93BF93EF93FF93809195029091F3
:102A40009602A0919702B0919802892B8A2B8B2B2A
:102A5000D1F190919402E0919202F09193028081E1
:102A6000892780838091950290919602A091970288
:102A7000B0919802181619061A061B069CF480914C
:102A8000950290919602A0919702B09198020197B9
:102A9000A109B1098093950290939602A0939702A1
:102AA000B0939802FF91EF91BF91AF919F918F9159
:102AB0007F916F915F914F913F912F910F900FBE3A
:102AC0000F901F901895809100010E94A202EACFFA
:102AD0001F920F920FB60F9211242F933F934F9393
:102AE0005F936F937F938F939F93AF93BF93EF9376
:102AF000FF9381E693E00E944C03FF91EF91BF9119
:102B0000AF919F918F917F916F915F914F913F9185
:102B10002F910F900FBE0F901F9018951F920F923C
:102B20000FB60F9211242F938F939F93EF93FF93E0
:102B3000E0917103F09172038081E0917703F0914D
:102B4000780382FD1BC0908180917A038F5F8F7321
:102B500020917B03821741F0E0917A03F0E0EF5976
:102B6000FC4F958F80937A03FF91EF919F918F9106
:102B70002F910F900FBE0F901F9018958081F4CF6A
:102B80001F920F920FB60F9211242F933F934F93E2
:102B90005F936F937F938F939F93AF93BF93EF93C5
:102BA000FF938091B900887F803609F44AC0F0F520
:102BB000883209F4A7C018F5803109F49BC0B8F435
:102BC000882309F4F9C0883009F494C0FF91EF918B
:102BD000BF91AF919F918F917F916F915F914F9135
:102BE0003F912F910F900FBE0F901F901895883135
:102BF00009F488C0803251F78093350314C08034C3
:102C000009F49DC040F48033B9F38833F9F680931A
:102C1000350385ECB0C0803509F485C0883509F4EA
:102C200096C0883499F60E943C14D0CF883909F4B4
:102C30008CC038F5883729F050F4883611F0803789
:102C400029F683E0809337031092910257C08838A9
:102C500009F47BC0803919F0803809F0B7CF809132
:102C60009102803208F071C0E091910281E08E0FF4
:102C7000809391028091BB00F0E0EF58FD4F80837C
:102C80003DC0803B39F0E0F4803A09F479C0883ADD
:102C900009F09CCF84E08093370310927002109269
:102CA0006F02E091BC02F091BD02099580916F0224
:102CB00081110FC081E080936F0210924F0209C012
:102CC000803C09F4A6CF883C09F4A3CF883B09F0E7
:102CD0007DCFE091700281E08E0F80937002F0E072
:102CE000E15BFD4F80818093BB00909170028091E9
:102CF0006F0229C0809112038093BB0085EC809302
:102D0000BC0064CF9091340380913303981758F539
:102D1000E091340381E08E0F80933403F0E0ED5EA8
:102D2000FC4F8081E9CFE091340381E08E0F8093E6
:102D300034038091BB00F0E0ED5EFC4F8083909106
:102D40003403809133039817C8F285E8D8CFE09117
:102D5000340381E08E0F809334038091BB00F0E058
:102D6000ED5EFC4F80838091360381115CCF81E062
:102D70008093110384EA8093BC001092370326CF1E
:102D800085EC8093BC0010923703809191028032D1
:102D900030F4E0919102F0E0EF58FD4F1082609125
:102DA000910270E0E091BA02F091BB0281E792E0FB
:102DB0000995109291020ACF1092350334CFFC018D
:102DC0001086148215821682178211861082118253
:102DD000128213820895CF93DF93EC01862F6883CC
:102DE00079831A821B821C821D821E821F82188692
:102DF00019861B861A8662E00E94CB011D861C86FE
:102E000081E090E09F878E8788810E947401998B72
:102E1000888B9B8B8A8B9D8B8C8B1E8A1F8A188E2E
:102E2000198EDF91CF91089510926403109263037D
:102E300088EE93E0A0E0B0E0809365039093660392
:102E4000A0936703B09368038BE691E090936203CD
:102E50008093610385EC90E090936E0380936D0303
:102E600084EC90E09093700380936F0380EC90E08B
:102E7000909372038093710381EC90E090937403BC
:102E80008093730382EC90E09093760380937503B4
:102E900086EC90E0909378038093770310927A0306
:102EA00010927B0310927C0310927D038BE9809338
:102EB000FE0388E08093010480E091E09093000499
:102EC0008093FF030E945B2390930304809302048A
:102ED00030E020E08091FF0390910004281739072B
:102EE000E0F4C9016091FE0370E048E050E0FC01AD
:102EF000E078FF27880F991FEF2B11F0862797277F
:102F000041505109A1F7E0910204F0910304E20F4E
:102F1000F31F80832F5F3F4FDDCF10920704109285
:102F2000060488EE93E0A0E0B0E08093080490935C
:102F30000904A0930A04B0930B048DE791E09093E9
:102F400005048093040482E197E00E94DF1688E084
:102F500097E00E94DF168EEF96E00E94DF1684EF66
:102F600096E00E94DF168AEE96E00E94DF1685EC5E
:102F700096E00E94DF1665E070E08BEA96E00E9422
:102F8000EB1666E070E081E996E00E94EB1664E0E3
:102F900070E087E796E00E94EB168DE696E00E94CF
:102FA000DF1683E696E00E94DF1689E596E00E9430
:102FB000DF168FE496E00E94DF1681E396E00E9420
:102FC000DF168BE396E00E94DF1685E496E00E9410
:102FD000DF168EE780930C0610920D0610920E06F7
:102FE00010920F061092100681E88093110610923D
:102FF00012061092130610921506109214061092E3
:103000001706109216061092180610921B061092C0
:103010001C0610921D0610921E0610921F0610929A
:10302000200610922106109222061092230610927A
:1030300024061092290610922A068FEF80931C070F
:1030400010921E0710921D07109228071092270752
:103050008FEF9FEFDC018093230790932407A093C9
:103060002507B09326070895CF93DF93CDB7DEB73A
:10307000C958D1090FB6F894DEBF0FBECDBF789402
:1030800084B5826084BD84B5816084BD85B582606D
:1030900085BD85B5816085BD80916E00816080931E
:1030A0006E00109281008091810082608093810087
:1030B0008091810081608093810080918000816097
:1030C000809380008091B10084608093B1008091F2
:1030D000B00081608093B00080917A00846080931A
:1030E0007A0080917A00826080937A0080917A00E1
:1030F000816080937A0080917A00806880937A0062
:103100001092C10021E633E0E0917103F091720367
:1031100082E08083E0916D03F0916E031082E09174
:103120006F03F09170038FEC808310927903E0912C
:103130007503F091760386E08083E0917303F0914C
:103140007403808180618083E0917303F091740344
:10315000808188608083E0917303F09174038081A3
:1031600080688083E0917303F091740380818F7D88
:10317000808330932C0620932B0682E390E0A0E01E
:10318000B0E080932D0690932E06A0932F06B09367
:10319000300630931A062093190621E020931B066F
:1031A0008093250690932606A0932706B0932806C1
:1031B00084E090E09093CC028093CB021092CE02F8
:1031C0001092CD021092CF022091F8022111A2C1DB
:1031D0009093D7028093D6021092D2021092D1021D
:1031E0008091B202811155C010929E0210929D02F0
:1031F0008FEF8093A1028093A2028093A302809319
:10320000A4028093A5028093A60281E08093A70286
:103210001092A9021092A80280E797E19093AB0266
:103220008093AA0283E090E09093AD028093AC0279
:103230001092AF021092AE021092A00210929F0262
:103240008091DE029091DF02892B31F48BE992E0CC
:103250009093DF028093DE02E0919902F0919A024E
:10326000309721F08BE992E0958384838BE992E09B
:1032700090939A02809399021092B1021092B00238
:1032800083E591E090939C0280939B0281E0809380
:10329000B202219A84EE92E090939E0280939D0266
:1032A00083E090E09093A9028093A80280911F0789
:1032B00090912007A0912107B0912207843C29E03A
:1032C0009207A105B10520F484EC99E0A0E0B0E0FC
:1032D00080931F0790932007A0932107B0932207A4
:1032E0004FEF60E080E00E94AE066093E4027093CE
:1032F000E5028093E6024FEF60E081E00E94AE06B7
:103300006093E7027093E8028093E9024FEF60E078
:1033100082E00E94AE066093EA027093EB02809313
:10332000EC0282E390E0A0E0B0E08093AD069093E1
:10333000AE06A093AF06B093B00680939306909329
:103340009406A0939506B093960680937906909381
:103350007A06A0937B06B0937C0662E082E00E942E
:10336000CB0162E083E00E94CB018AE692E0909379
:10337000020180930101809169008C7F81608093BC
:103380006900E89A6AE070E080E090E00E942C0218
:103390001092BF021092BE020E9402048CE992E0D9
:1033A0009093BD028093BC028DE992E09093BB02A2
:1033B0008093BA028CE08093B80000E011E0FF2413
:1033C000F394F0923D0310935F0310923E0310922A
:1033D00060030E944104811101C00F5F1F5F1F370E
:1033E00081F7002309F49BC081E08093C0028091A3
:1033F000C002882339F180E78093E5061092BF026E
:103400001092BE0210923E03109260030E940204CA
:103410008CE992E09093BD028093BC028DE992E02A
:103420009093BB028093BA0281E20E94AE0581E8CC
:103430000E94AE0580EA0E94AE058FEE0E94AE05A6
:103440000E949B0E0E94B50E61E08AE00E94CB01B3
:103450008091B100887F82608093B10061E08BE051
:103460000E94CB018AE00E94A2020E94880E0E9464
:103470005F0C64E670E080E090E00E942C0240E087
:1034800050E0BA0182E197E00E949B068091F80229
:10349000882339F040E050E0BA018FE496E00E94C2
:1034A0009B06CE010196CC57DF4F99838883C45881
:1034B000D0404E0191E8890E911CA3E02A2E312CB8
:1034C0001092070111E01093080182E08093090136
:1034D0008091F802882331F18FE496E00E946B0618
:1034E000882359F082E00E94C4004EEE52E060E072
:1034F00070E08FE496E00E949B060E942A1180E013
:1035000090E0892BE9F20E9438038823C9F20E94D7
:103510000000D6CF1092D7021092D6025DCE109244
:10352000C00265CF0E942A110E945F0C1092C40253
:103530001092C302209187063091880680918506FB
:10354000909186062817390709F520918906309150
:103550008A06809183069091840628173907B1F472
:103560004CE251E060E070E083E696E00E949B064A
:1035700048E552E060E070E089E596E00E949B0635
:103580001093C2028091EF028093C1028091C20227
:103590008823C9F12091870630918806809183069F
:1035A000909184062817390709F0E1C02091890617
:1035B00030918A06809185069091860628173907F2
:1035C00009F0D5C080917D0690917E06A0917F067E
:1035D000B0918006892B8A2B8B2B09F4C8C0A2E0FE
:1035E000B0E0B093C402A093C3021092C202109242
:1035F0007D0610927E0610927F0610928006109231
:103600006B0610926C068091C3029091C4028230C6
:10361000910509F414C18330910509F41DC1019786
:1036200051F48091D1029091D202009709F4FFC029
:10363000019709F402C18091F702811172C02091B3
:10364000C8023091C9028091C6029091C7028217C8
:1036500093072CF580917506811121C08091EE02AF
:10366000882309F41CC180910601833008F417C136
:103670008091C5028F5F8093C50265E00E94892119
:10368000911105C087E10E94C4001092C50244E672
:1036900050E060E070E08DE696E00E949B0620918D
:1036A000C8023091C9028091C6029091C7022817C2
:1036B00039072CF580917506811121C08091EE02A9
:1036C000882309F4FBC080910601833008F4F6C01A
:1036D0008091C5028F5F8093C50265E00E948921B9
:1036E000911105C087E10E94C4001092C50244E612
:1036F00050E060E070E08DE696E00E949B068091CD
:10370000C8029091C9029093C7028093C6028DE6C9
:1037100096E00E946B06882321F0109275061092A5
:1037200076062091BB063091BC068091B906909137
:10373000BA064091B7065091B8062817390709F024
:10374000CCC08091BD069091BE064817590709F07C
:10375000CFC08091BD069091BE06892B09F08AC129
:1037600085E30E94C40081E08093F602C1C083E635
:1037700096E00E942506672B682B692B61F48091E7
:103780007D0690917E06A0917F06B09180060197FC
:10379000A105B10521F189E596E00E942506672B78
:1037A000682B692B09F02FCF9091C1028091EF0215
:1037B000981771F18091F70291E089278093F702C1
:1037C0001092C20210927D0610927E0610927F0621
:1037D000109280068CED95E00E946C0E2CCFE1E0FB
:1037E000F0E0F093C402E093C3021092C202109280
:1037F0007D0610927E0610927F061092800610922F
:103800006B0610926C061092610610926206FBCE57
:103810003092C4022092C3021092C20210927D061E
:1038200010927E0610927F0610928006ECCE88E3FE
:103830000E94C40084EF91E0CFCF86E2F9CF80915F
:10384000D1029091D202009729F0019709F0F3CEAE
:1038500087E2EECF89E3ECCF8091D1029091D20242
:10386000009771F0019709F0E6CE1092D202109203
:10387000D10284EF91E00E946C0E88EB91E00CC0C5
:1038800021E030E03093D2022093D10284EF91E026
:103890000E946C0E80E193E00E94790CCCCE809166
:1038A000D1029091D202009729F0019709F0EFCE52
:1038B00082E201C089E20E94C400E9CE8091D10277
:1038C0009091D202009729F0019709F010CF83E27E
:1038D00001C088E20E94C4000ACF4217530741F496
:1038E0002091BD063091BE068217930709F431CFAF
:1038F0008091F602882309F4C3C08091F40290916C
:10390000F502892BF1F48091F30281111AC08091A4
:10391000F202811116C01092D5021092D4021092B8
:10392000D30281E090E09093F5028093F40210922C
:10393000CD061092CE06A4E0B0E0B093F102A093C1
:10394000F002B09008010B2D10E08091A306909139
:10395000A4067801EE0CFF1C892B09F0A9C081E0B8
:103960008093EF027090EE02772021F080910601A3
:10397000833048F48091F302811105C08091F202F6
:10398000882309F492C0A09006016A2D70E080E2BD
:1039900093E00E9495216B018AEE96E00E946B06EF
:1039A000882339F0A60170E060E08AEE96E00E947C
:1039B0009B068091F206882319F1772059F0B2E036
:1039C000BA1540F48091F302811104C03092F102E3
:1039D0002092F0028AEE96E00E942506D694C794C3
:1039E0002601712C612C641575058605970508F074
:1039F00051C081E08093ED020E94880E0E946B0C02
:103A00008091D1029091D202009709F498C0019759
:103A100009F4AAC0D090EF02DD2009F4E1C0809142
:103A2000F202811105C08091F302882309F4CCC011
:103A30000E0D1F1D0C511D4F4FEF6CE18B2D0E9481
:103A4000AE06F801608371838283E091CD02F0912C
:103A5000CE02319765E0E730F10508F0DFC0ED5C9C
:103A6000F24E0C94FE21A01E0D1EB71EAA1EAC1E07
:103A7000B31EB51E86E30E94C4001092F60238CF32
:103A80008091BD069091BE06019709F05ACF0E9421
:103A9000B50E57CF1092ED0284EF91E00E946C0EAC
:103AA0008BE092E00E94790CABCF1092ED02A8CF90
:103AB0001092EF021092ED02F701E00FF11FEC51AE
:103AC000FD4F8081811106C08181811103C08281F7
:103AD000882381F0C701800F911FFC01EC51FD4F3D
:103AE0006F014FEF60E08B2D0E94AE06D6016D9303
:103AF0007D938C9380910901282F30E06901CC0CD3
:103B0000DD1CF601E20FF31FEC51FD4F9081911186
:103B100007C09181911104C09281992309F470CF5B
:103B2000C20ED31EF601EC51FD4F6F014FEF60E066
:103B30000E94AE06D6016D937D938C9361CF109257
:103B40001007109211071092D00280910701282FC0
:103B500030E06901CC0CDD1CC20ED31EF601EC5125
:103B6000FD4F6F0140E828C088E097E00E942506DD
:103B7000672B682B692B71F4D090D00240E253E0A0
:103B800060E070E088E097E00E949B0681E0D82624
:103B9000D092D00280910701282F30E09091D0027E
:103BA0006901CC0CDD1CC20ED31EF601EC51FD4F99
:103BB0006F014CE09923B1F260E00E94AE06D6019D
:103BC0006D937D938C9326CF8091CF020E0D1F1D98
:103BD0000C511D4F4FEF6BE18130B9F06AE12ECFF0
:103BE000F701E00FF11FEC51FD4F8081811107C0FB
:103BF0008181811104C08281882309F426CF0E0DB2
:103C00001F1D0C511D4F4FEF60E08B2D0E94AE0623
:103C1000D8016D937D938C9318CF63E18091090156
:103C2000082F10E09801220F331FDD2029F090911A
:103C3000ED02992309F49DC0F901E00FF11FEC5149
:103C4000FD4F9081911106C09181911103C0928125
:103C5000992361F0020F131F0C511D4F4FEF60E0CD
:103C60000E94AE06F8016083718382838EEF96E036
:103C70000E946B06882309F488C00E946B0C84EFB5
:103C800096E00E946B06882309F489C00E94880E82
:103C900010910601111101C011E0C090F402D09002
:103CA000F5028091F0029091F10204970397B0F42D
:103CB0008091D602B2E0CB16D10409F07AC0E6E0DA
:103CC000F0E0F093F102E093F00291E0980F892F79
:103CD000880F880F890F8D5F80930501C114D1046F
:103CE00009F479C00091050185EC96E00E94250653
:103CF000672B682B692B09F06EC0612F70E08CE098
:103D000090E00E94A9216230710514F462E070E035
:103D1000601B1CE1160FE090F002F090F10237E01A
:103D2000E316F10408F057C0F701E756F14E0C9482
:103D3000FE21DB1F30206B206B20E51E4820042075
:103D40008091CB029091CC0263E0039709F466CF97
:103D50006FE064CF6DE162CF8091CA0268E18111AA
:103D60005DCF69E15BCF6EE159CF61E057CF6BE08A
:103D700055CF020F131F0C511D4F4FEF0E94AE067F
:103D8000D8016D937D938C9371CF8EEF96E00E9456
:103D90002506672B682B692B09F46FCF70CF84EF52
:103DA00096E00E942506672B682B692B09F46ECFDD
:103DB0006FCFF4E0CF16D10409F087CF25E030E0D3
:103DC0003093F1022093F00280CF86E090E0909350
:103DD000F1028093F00282E197E00E946B06882353
:103DE00009F459C2D0901C0780911F0790912007B9
:103DF000A0912107B0912207892B8A2B8B2BD9F018
:103E00000E9407020091E0021091E1022091E2027B
:103E10003091E302601B710B820B930B00911F0723
:103E20001091200720912107309122076017710718
:103E300082079307C8F20E9407026093E002709322
:103E4000E1028093E2029093E302E0912707F09170
:103E50002807309759F0409123075091240760912B
:103E60002507709126078D2D0995D82E80E8CC570F
:103E7000DF4FA881B981C458D0401D928A95E9F7D7
:103E8000E090DE02F090DF02FE0131965F01CA573A
:103E9000DF4FF983E883C658D0404D2C512C712C4C
:103EA000612CE114F10409F491C1CA57DF4F8881F4
:103EB0009981C658D0408816990609F487C1D70160
:103EC000ED91FC910484F585E02DC7010995CA5751
:103ED000DF4FE881F981C658D04081939193CA574A
:103EE000DF4FF983E883C658D04080911D07909139
:103EF0001E078436910518F4D7011C961C92D70131
:103F0000ED91FC9122813381C857DF4F398328839B
:103F1000C858D040D4011C9211961C921197129649
:103F20001C92DD2079F187010A5F1F4FF0E0E0E08D
:103F3000D8012D918D01222309F11296CC90CC202D
:103F4000E9F030E050E040E02F5F3F4F4F4F5F4FD0
:103F5000C301B2010E9479219B01AC018C2D90E03C
:103F6000B0E0A0E0BC01CD016F5F7F4F8F4F9F4F4E
:103F70000E947921D401AE0FBF1F8C933196E3309C
:103F8000F105B1F6F401008111812281D7011D965E
:103F90004D915C911E9712966D917C91C701C85707
:103FA000DF4FE881F981C858D0400995D7011496B0
:103FB000ED90FC9076CFE090D402F090D50261E0D5
:103FC0008E2D0E94CD0D0E94680E9FEFE91AF90A0E
:103FD000F092D502E092D402ADE1EA16F1042CF0A1
:103FE0001092F5021092F402F6CEF7FE03C0BFEF76
:103FF000EB1AFB0AA70155954795410F511D052E58
:10400000000C660B770B62C0E090D402F090D502F2
:1040100061E08E2D0E94CD0D0E94680EEFEFEE1A2A
:10402000FE0AF092D502E092D402812F90E00E15A4
:104030001F045CF424E030E03093F5022093F40296
:1040400033E0139FA0011124DACFF7FE03C0AFEFD6
:10405000EA1AFA0AA70155954795480F591FCFCF7D
:10406000E090D402F090D50260E08E2D0E94CD0D3C
:104070000E94680EB1E0EB1AF108F092D502E092CE
:10408000D402110F110FF7FE1DC00E94A50EA8CF7C
:10409000E090D402F090D50260E08E2D0E94CD0D0C
:1040A0000E94680EE1E0EE1AF108F092D502E0926B
:1040B000D402F7FE07C00E94A50EF3E01F9FA001E7
:1040C00011249DCF412F50E070E060E085EC96E038
:1040D0000E949B0680CE22E0C21AD10832E0C316AD
:1040E000D10448F00E94A50E83E0E816F10499F58A
:1040F0008DE08093D3020091D30201112FC0A2E082
:10410000B0E0B093F502A093F40261E080E00E9479
:10411000CD0D61E08BE10E94CD0DB2E0EB16F10414
:1041200041F460E081E00E94CD0D60E08AE10E94F0
:10413000CD0D0E94680E8091F4029091F5020397D4
:1041400009F442C00F5F0093D3024091D302410FA4
:104150005527551F54CF1092D302CDCF0D3099F46F
:104160003092F5022092F40261E08DE00E94CD0DC4
:1041700061E08EE00E94CD0D60E08CE00E94CD0DEC
:1041800060E08FE0D4CF61E0802F0E94CD0D61E030
:104190008BE1801B0E94CD0D60E08FEF800F0E94AD
:1041A000CD0D60E08CE1801B0E94CD0DE2E0EE16AB
:1041B000F10409F0BECF60E081E0800F0E94CD0DD8
:1041C00060E08AE1801BB3CF0150BDCF0091DE02D9
:1041D0001091DF020115110599F08A149B0481F0FA
:1041E000F501619171915F01D801ED91FC91068417
:1041F000F785E02DC8010995F80104811581EACF02
:104200008091DC029091DD028C010F5F1F4F1093B3
:10421000DD020093DC024997B4F10E945E02C09077
:10422000D802D090D902E090DA02F090DB029B0134
:10423000AC012C193D094E095F0921F421E030E061
:1042400040E050E088EE93E0089FB001099F700DB8
:10425000189F700D1124072E000C880B990B0E94DB
:10426000BD2130931E0720931D071092DD0210928E
:10427000DC020E945E026093D8027093D9028093A0
:10428000DA029093DB0243E050E060E070E082E10C
:1042900097E00E949B068FE496E00E946B068823BD
:1042A00009F42DC981E08093F8024EEE52E060E0FF
:1042B00070E08FE496E00E949B0621C9CF93809125
:1042C000C002882341F0C0E061E08C2F0E94CD0D38
:1042D000CF5FCC31C9F78BE190E09093D50280930A
:1042E000D40284E090E09093F5028093F402CF91A1
:1042F0000895DB018F939F930E940B22BF91AF9192
:10430000A29F800D911DA39F900DB29F900D11242F
:104310000895991B79E004C0991F961708F0961B21
:10432000881F7A95C9F780950895AA1BBB1B51E198
:1043300007C0AA1FBB1FA617B70710F0A61BB70B15
:10434000881F991F5A95A9F780959095BC01CD01BA
:10435000089597FB072E16F4009407D077FD09D037
:104360000E94952107FC05D03EF4909581959F4FC2
:104370000895709561957F4F0895A1E21A2EAA1BAA
:10438000BB1BFD010DC0AA1FBB1FEE1FFF1FA21705
:10439000B307E407F50720F0A21BB30BE40BF50B02
:1043A000661F771F881F991F1A9469F7609570958B
:1043B000809590959B01AC01BD01CF010895052E1C
:1043C00097FB1EF400940E94F62157FD07D00E942F
:1043D000BD2107FC03D04EF40C94F6215095409576
:1043E000309521953F4F4F4F5F4F089590958095A1
:1043F000709561957F4F8F4F9F4F0895EE0FFF1F70
:104400000590F491E02D09940E941622B7FF0895BB
:10441000821B930B08950E941622A59F900DB49FB6
:10442000900DA49F800D911D11240895A29FB001AD
:10443000B39FC001A39F700D811D1124911DB29FD8
:10444000700D811D1124911D08950E9439220C9434
:1044500021230E941A2358F00E94132340F029F4CC
:104460005F3F29F00C940A2351110C9455230C94AE
:1044700010230E94322368F39923B1F3552391F35B
:10448000951B550BBB27AA2762177307840738F0C3
:104490009F5F5F4F220F331F441FAA1FA9F335D020
:1044A0000E2E3AF0E0E832D091505040E695001CD4
:1044B000CAF72BD0FE2F29D0660F771F881FBB1F8E
:1044C000261737074807AB07B0E809F0BB0B802D6C
:1044D000BF01FF2793585F4F3AF09E3F510578F098
:1044E0000C940A230C9455235F3FE4F3983ED4F3D5
:1044F000869577956795B795F7959F5FC9F7880F6C
:10450000911D9695879597F90895E1E0660F771FBD
:10451000881FBB1F621773078407BA0720F0621B4E
:10452000730B840BBA0BEE1F88F7E09508950E9479
:104530009E226894B1110C94552308950E943A2349
:1045400088F09F5798F0B92F9927B751B0F0E1F054
:10455000660F771F881F991F1AF0BA95C9F714C004
:10456000B13091F00E945423B1E008950C9454238B
:10457000672F782F8827B85F39F0B93FCCF386953D
:1045800077956795B395D9F73EF49095809570959A
:1045900061957F4F8F4F9F4F0895E89409C097FB17
:1045A0003EF490958095709561957F4F8F4F9F4F0A
:1045B0009923A9F0F92F96E9BB279395F69587954E
:1045C00077956795B795F111F8CFFAF4BB0F11F411
:1045D00060FF1BC06F5F7F4F8F4F9F4F16C08823B8
:1045E00011F096E911C0772321F09EE8872F762FEE
:1045F00005C0662371F096E8862F70E060E02AF02F
:104600009A95660F771F881FDAF7880F969587951A
:1046100097F9089597F99F6780E870E060E0089542
:104620009FEF80EC089500240A94161617061806CA
:104630000906089500240A941216130614060506A6
:104640000895092E0394000C11F4882352F0BB0F37
:1046500040F4BF2B11F460FF04C06F5F7F4F8F4F9A
:104660009F4F089557FD9058440F551F59F05F3FD5
:1046700071F04795880F97FB991F61F09F3F79F084
:1046800087950895121613061406551FF2CF469506
:10469000F1DF08C0161617061806991FF1CF869588
:1046A0007105610508940895E894BB27662777276C
:1046B000CB0197F908950F931F93CF93DF93823027
:1046C000910510F482E090E0E0912B07F0912C0727
:1046D00030E020E0B0E0A0E0309799F421153105FA
:1046E00009F44AC0281B390B24303105D8F58A81DA
:1046F0009B816115710589F1FB0193838283FE0122
:1047000011C0408151810281138148175907E0F09F
:104710004817590799F4109761F012960C93129765
:1047200013961C933296CF01DF91CF911F910F9179
:10473000089500932B0710932C07F4CF2115310512
:1047400051F04217530738F0A901DB019A01BD016E
:10475000DF01F801C1CFEF01F9CF90932C078093CF
:104760002B07CDCFFE01E20FF31F819391932250CF
:10477000310939832883D7CF2091290730912A071F
:10478000232B41F42091190130911A0130932A070B
:104790002093290720911701309118012115310527
:1047A00041F42DB73EB740911B0150911C01241BD1
:1047B000350BE0912907F0912A07E217F307A0F4DF
:1047C0002E1B3F0B2817390778F0AC014E5F5F4F67
:1047D0002417350748F04E0F5F1F50932A07409368
:1047E0002907819391939FCFF0E0E0E09CCFCF9396
:1047F000DF930097E9F0FC01329713821282A091B7
:104800002B07B0912C07ED0130E020E01097A1F4C8
:1048100020813181820F931F2091290730912A072F
:104820002817390709F061C0F0932A07E093290798
:10483000DF91CF910895EA01CE17DF07E8F54A81AD
:104840005B819E0141155105B1F7E901FB83EA83C4
:1048500049915991C40FD51FEC17FD0761F4808170
:1048600091810296840F951FE90199838883828143
:1048700093819B838A83F0E0E0E012968D919C9176
:1048800013970097B9F52D913C911197CD010296A0
:10489000820F931F2091290730912A072817390783
:1048A00039F6309751F510922C0710922B07B093E0
:1048B0002A07A0932907BCCFD383C28340815181AB
:1048C000840F951FC817D90761F44E5F5F4F888129
:1048D0009981480F591F518340838A819B8193831B
:1048E00082832115310509F0B0CFF0932C07E093B6
:1048F0002B079ECFFD01DC01C0CF13821282D7CFE0
:0E49000081E090E0F8940C948524F894FFCFA9
:10490E00FFA102A1021C01000102FEFFFFFFFFFF3B
:10491E00FF0A000A000A0000002D07800000102088
:10492E0030011121310212223203132333041424D5
:10493E0034051525350616263600000000FF0EFF3D
:10494E000EFF0E130E340EBB0B3E0E3B0E380E003A
:10495E000000001C0CC00BBE0B130E340EBB0B3E26
:10496E000E3B0E9E025C09000000006E03CE02FBA1
:10497E0002BB032C030A031E03000000007F055236
:10498E0005C00528054B05380529050D0A004552B9
:10499E00524F523A205354414C45205041434B45BF
:1049AE0054004552524F523A205041594C4F4144B7
:1049BE005F4552524F52004552524F523A20435287
:1049CE00435F4552524F52004552524F523A205376
:1049DE00544F505F425954455F4552524F52004515
:1049EE0052524F523A20556E646566696E65642068
:0849FE00737461746520000070
:00000001FF
