:100000000C947A000C948E140C9467140C94A20037
:100010000C94A2000C94A2000C94A2000C94B514B1
:100020000C94A2000C94A2000C94A2000C94A200C8
:100030000C94A2000C94A2000C94A2000C94A200B8
:100040000C941D140C94A2000C9437150C941115EB
:100050000C94A2000C94A2000C94A2000C94A20098
:100060000C9469150C94A2000200000000240027E3
:10007000002A0000000000250028002B00000000DE
:1000800000230026002900040404040404040402DC
:100090000202020202030303030303010204081025
:1000A00020408001020408102001020408102000F2
:1000B0000000080002010000030407000000000027
:1000C0000000004552524F523A204E6F2063616C3F
:1000D0006C6261636B20617661696C61626C652042
:1000E000666F72207061636B657420494420000064
:1000F000BD16232111241FBECFEFD8E0DEBFCDBF38
:1001000027E0A8EFB1E001C01D92A631B207E1F7E8
:1001100011E0A0E0B1E0E2E9FAE402C005900D923E
:10012000A83FB107D9F710E0C9E7D0E004C0219794
:10013000FE010E949022C837D107C9F70E941E18FD
:100140000C943C250C940000FC01DB019C91915027
:10015000492F4F3FC9F0242F30E0DF01A20FB31F1A
:100160008C918E3711F04150F4CF9F3F69F0492FA9
:1001700050E0DF01A40FB51F8C918E3719F4291BB5
:100180002C93292F9150F1CF08950F931F93CF9364
:10019000DF931F92CDB7DEB721E02093EF0280936B
:1001A000F0021092F2021092F10293E59093F302A2
:1001B0002093FD038093FE031092FF03109200042E
:1001C000909301048FEF80930C060DEF13E0F8017C
:1001D00080E091919E3709F05BC080930C0685E02A
:1001E0008983BE016F5F7F4F8DEF93E00E94A40073
:1001F0008091EF039091F003E0E0D8012D918D0103
:10020000E227E80FF92FF11DE081B4E002301B076F
:10021000A1F781E08093FA0580910C068093FB059D
:1002200085E08093FC05E093FD0580911806909190
:100230001906DC01ED91FC910280F381E02D44E090
:1002400050E069EF75E009958091180690911906C4
:10025000DC01ED91FC910280F381E02D45E050E05E
:100260006DEF73E009958091180690911906DC01F5
:10027000ED91FC910280F381E02D42E050E06DEFC2
:1002800075E009950F90DF91CF911F910F9108951F
:100290008F5F853009F09DCFA2CF833081F028F4A5
:1002A000813099F08230A9F008958730A9F0883024
:1002B000C9F08430B1F4809180008F7D03C08091BB
:1002C00080008F7780938000089584B58F7784BDF8
:1002D000089584B58F7DFBCF8091B0008F77809398
:1002E000B00008958091B0008F7DF9CFCF93DF9358
:1002F000282F30E0F901E155FF4F8491F901E556CF
:10030000FF4FD491F901E957FF4FC491CC23A1F0DD
:1003100081110E944D01EC2FF0E0EE0FFF1FE3581A
:10032000FF4FA591B491EC91ED2381E090E009F4A9
:1003300080E0DF91CF91089580E090E0FACF1F93A5
:10034000CF93DF93282F30E0F901E155FF4F8491DF
:10035000F901E556FF4FD491F901E957FF4FC491D8
:10036000CC23A9F0162F81110E944D01EC2FF0E053
:10037000EE0FFF1FED58FF4FA591B4918FB7F89482
:10038000EC91111108C0D095DE23DC938FBFDF9173
:10039000CF911F910895DE2BF8CFCF93DF9390E09C
:1003A000FC01E556FF4F249189579F4FFC01849132
:1003B0008823C9F090E0880F991FFC01E759FF4F8F
:1003C000A591B491FC01ED58FF4FC591D4916111F5
:1003D0000DC09FB7F8948C91209582238C938881CF
:1003E000282328839FBFDF91CF910895623051F475
:1003F0009FB7F8943C91822F809583238C93E8815A
:100400002E2BEFCF8FB7F894EC912E2B2C938FBF20
:10041000EACF3FB7F8948091EB029091EC02A09163
:10042000ED02B091EE0226B5A89B05C02F3F19F052
:100430000196A11DB11D3FBFBA2FA92F982F882764
:10044000BC01CD01620F711D811D911D42E0660F3F
:10045000771F881F991F4A95D1F708958F929F9211
:10046000AF92BF92CF92DF92EF92FF924B015C016D
:100470000E9409026B017C010E9409026C197D092E
:100480008E099F09683E734081059105A8F321E01C
:10049000821A9108A108B10888EEC80E83E0D81E20
:1004A000E11CF11C81149104A104B10429F7FF900F
:1004B000EF90DF90CF90BF90AF909F908F90089576
:1004C0002FB7F8946091E7027091E8028091E902F9
:1004D0009091EA022FBF0895CF93DF9382E00E94AC
:1004E0007601EC0183E00E947601209117023091A1
:1004F0001802C817D907F9F42F5F3F4F309318023D
:10050000209317026091170270911802072E000CB9
:10051000880B990B0E942E2120E030E040E250E44D
:100520000E949D220E940F237093B5026093B40233
:10053000DF91CF91089521503109E0CF08950895BA
:1005400080E991E0089508959091000189130BC00E
:10055000E8E6F0E0E4919FEF90930001E13049F08C
:1005600028F0E23061F060E00C949F0110926E0080
:10057000FACF90916F009D7F90936F00F4CF909190
:1005800070009D7F9093700091E09093B0009091E7
:10059000B100987F94609093B1001092B300E3CFC4
:1005A000AF92BF92CF92DF92EF92FF920F931F9381
:1005B000CF93DF936C017B018B01040F151FEB01BF
:1005C0005E01AE18BF08C017D10759F06991D60176
:1005D000ED91FC910190F081E02DC6010995892BE8
:1005E00079F7C501DF91CF911F910F91FF90EF90A7
:1005F000DF90CF90BF90AF900895FC01538D448D54
:10060000252F30E0842F90E0821B930B541710F0BD
:10061000CF96089501970895FC01918D828D9817CA
:1006200061F0A28DAE0FBF2FB11D5D968C91928DA2
:100630009F5F9F73928F90E008958FEF9FEF0895D3
:10064000FC01918D828D981731F0828DE80FF11D9C
:10065000858D90E008958FEF9FEF0895FC01918DB7
:10066000228D892F90E0805C9F4F821B91098F73B0
:10067000992708958EE493E00E942E0321E0892BB0
:1006800009F420E0822F089580E090E0892B29F082
:100690000E943A0381110C9400000895FC01A48D7E
:1006A000A80FB92FB11DA35ABF4F2C91848D90E094
:1006B00001968F739927848FA689B7892C93A08977
:1006C000B1898C91837080648C93938D848D981301
:1006D00006C00288F389E02D80818F7D8083089594
:1006E000EF92FF920F931F93CF93DF93EC0181E082
:1006F000888F9B8D8C8D98131AC0E889F989808129
:1007000085FF15C09FB7F894EE89FF896083E8895B
:10071000F98980818370806480839FBF81E090E04D
:10072000DF91CF911F910F91FF90EF900895F62EDA
:100730000B8D10E00F5F1F4F0F731127E02E8C8D74
:100740008E110CC00FB607FCFACFE889F9898081B9
:1007500085FFF5CFCE010E944E03F1CFEB8DEC0F5C
:10076000FD2FF11DE35AFF4FF0829FB7F8940B8FD6
:10077000EA89FB8980818062CFCFCF93DF93EC0140
:10078000888D8823B9F0AA89BB89E889F9898C9179
:1007900085FD03C0808186FD0DC00FB607FCF7CF35
:1007A0008C9185FFF2CF808185FFEDCFCE010E9435
:1007B0004E03E9CFDF91CF91089520915C02260F7F
:1007C0003327331F21323105ECF420912403FC013F
:1007D00090E080E0243069F082E00895A0915C020E
:1007E0002191AC01445C5D4FA40FB52FB11D2C933A
:1007F0000196861798F380915C02680F60935C0203
:1008000080E0089581E008951092240381E08093B0
:1008100023031092FE0261E082E10E949F0161E0E9
:1008200083E10E949F01E9EBF0E080818E7F80836D
:1008300080818D7F808388E48093B80085E48093F5
:10084000BC000895CF93DF9391E090933B028823FF
:10085000B9F0C091B800D091BA008091BC008A7BF9
:100860008093BC0060E082E10E949F0160E083E130
:100870000E949F010E940404D093BA00C093B80064
:10088000DF91CF910895CF92DF92EF92FF920F9375
:100890001F93CF93DF93D0914D0381E0D13208F0C5
:1008A0009CC0C0914C030E9409026B017C018091A5
:1008B000240381116CC082E08093240381E0809343
:1008C00023038FEF8093220310922103D093200300
:1008D000ACE2B3E0E0E0F3E080E0D8138DC010922A
:1008E000FF028091FF02CC0FC82BC093FF028091C2
:1008F000FE02813009F084C01092FE020E940902BB
:100900006B017C018091FF028093BB0080912603E4
:1009100090912703A0912803B0912903892B8A2B5A
:100920008B2BA1F00E94090200912603109127034E
:1009300020912803309129036C197D098E099F09A4
:10094000061717072807390708F442C08091BC0032
:1009500083FDD8CF85EC8093BC000E9409026B0117
:100960007C0180912403823009F44CC080912203E1
:100970008F3F09F469C080912203803209F466C078
:1009800080912203803309F463C084E026C0809103
:10099000260390912703A0912803B0912903892B66
:1009A0008A2B8B2B09F483CF0E9409020091260326
:1009B0001091270320912803309129036C197D0998
:1009C0008E099F09061717072807390708F06FCF08
:1009D000809125030E94220485E010922B0310923F
:1009E0004D0310922A03DF91CF911F910F91FF9039
:1009F000EF90DF90CF9008959D9191938F5F6DCF91
:100A000085EEA9CF8091260390912703A09128031A
:100A1000B0912903892B8A2B8B2B09F4A2CF0E943A
:100A20000902009126031091270320912803309199
:100A300029036C197D098E099F09061717072807D6
:100A4000390708F08ECFC4CF80E0C7CF82E0C5CF92
:100A500083E0C3CF0895E091A6028091A502E81734
:100A600030F4F0E0E55EFD4F808190E008958FEF77
:100A70009FEF08959091A6028091A5022FEF3FEF7E
:100A8000981748F4E92FF0E0E55EFD4F208130E053
:100A90009F5F9093A602C90108958091A50290914D
:100AA000A602891B990B0895CF92DF92EF92FF92D5
:100AB0000F931F93CF93DF937C01CB018A01209189
:100AC0002A03222389F0EB016B01C40ED51ECC153D
:100AD000DD0569F06991D701ED91FC910190F081FC
:100AE000E02DC7010995F3CF642F0E94DD03C801F3
:100AF000DF91CF911F910F91FF90EF90DF90CF90FA
:100B00000895CF93DF931F92CDB7DEB7698320910D
:100B10002A032223F9F020914D03203258F021E0DE
:100B200030E0FC013383228390E080E00F90DF917E
:100B3000CF91089580912B03E82FF0E0E45DFC4F06
:100B4000998190838F5F80932B0380934D0381E085
:100B500090E0ECCF61E0CE0101960E94DD03F7CF7B
:100B60009091CE0621E020932A0390934C0310929B
:100B70002B0310924D03682F81EF93E00E948105B3
:100B80000C94430490E080E00895CF92DF92EF92BE
:100B9000FF920F931F93CF93DF93EC0188810E9404
:100BA00076018C010E9460022C893D892017310753
:100BB00031F06E8B7F8B888F998F1D8B0C8BCE883D
:100BC000DF88E88CF98C6C197D098E099F09CA8031
:100BD000DB80EC80FD806C157D058E059F0530F077
:100BE0008A899B89998B888B1B8B0A8B28893989E9
:100BF0008A899B892817390781F04A855B854230AD
:100C00005105A1F48E819F81A885B9850196A11D0A
:100C1000B11D8E839F83A887B987DF91CF911F91E4
:100C20000F91FF90EF90DF90CF90089541155105FF
:100C300031F42130310589F7892B21F3EECF413092
:100C4000510559F7232B49F7019739F7DBCF8F92DD
:100C50009F92AF92BF92CF92DF92EF92FF920F934B
:100C60001F93CF93DF93FC012085211110C060E01A
:100C700070E0CB01DF91CF911F910F91FF90EF902A
:100C8000DF90CF90BF90AF909F908F900895EC0130
:100C90000E94600229852111EACF8C809D80AE8060
:100CA000BF80088119812A813B816B017C01C818B2
:100CB000D908EA08FB08C016D106E206F306B8F622
:100CC000080D191D2A1D3B1D68017901C61AD70A96
:100CD000E80AF90AC701B601CDCFCF92DF92EF92B1
:100CE000FF921F93CF93DF93FC01108511110AC06F
:100CF00010E0812FDF91CF911F91FF90EF90DF9057
:100D0000CF900895EC018185882319F01886198603
:100D1000F0CF0E946002CC80DD80EE80FF806C19F5
:100D20007D098E099F09C880D980EA80FB806C15F7
:100D30007D058E059F0550F7DBCFCF93DF93EC0148
:100D4000488359836A837B830E9460026C837D831E
:100D50008E839F8381E088871986DF91CF910895E4
:100D6000CF92DF92EF92FF920F931F93CF93DF9377
:100D7000962F142F6F3108F025C0E62FF0E0ED53C9
:100D8000F94F0C9490229E08E206FF060207050721
:100D9000070807070A070D071007130716071907A3
:100DA0001C071F0723072207260729072C072F07E1
:100DB00032073607390709083C083C077C07C30798
:100DC0006908990820E094E6392F330F330F330F69
:100DD00085E5632F689F060E60E0611D1124592F81
:100DE0005074492F407297FD05C25111F0C1411155
:100DF000A8C1862F8095762F682F80E0A6C12BE9A9
:100E000096E1E2CF2FEF94EFDFCF20E8FCCF20EC8C
:100E100090E0DACF2FEF95E0D7CF2FEF9AE0D4CF45
:100E20002FEF9FE0D1CF2FEF94E1CECF2FEF90E2C5
:100E3000CBCF20E89BE2C8CF2FEF90E4C5CF2FEFB8
:100E400090E5C2CF10E82FEF90E6BECF28E790E7FD
:100E5000BBCF2FEF90E8B8CF2FEF91E9B5CF2FEFB1
:100E600090EAB2CF10E728EC9AEAAECF2FEF94EBDE
:100E7000ABCF2FEF90ECA8CFE82EF12C97012550A7
:100E80003D4F6901D9019C9194519D3010F094E13E
:100E90009C93F701EE0FFF1FEF5EFE4F25E030E061
:100EA00031832083BAE08B9FE0011124C25ED94FC9
:100EB000CE010E942706672B682B692BC9F4F60127
:100EC0008081F701E850FD4F90819F5F90839F7173
:100ED00041F490E001968F719927D6018C9384E1BB
:100EE000808345E050E060E070E0CE010E949D0606
:100EF000F60190812FEF68CFC82FD0E08E01000F50
:100F0000111FF801EF5EFE4F2AE030E031832083AD
:100F1000FAE08F9FC00111249C01225E394F7901B4
:100F2000C9010E942706CB50DD4F672B682B692B28
:100F300031F58881823048F481E0888383E090E055
:100F4000F801E55FFE4F9183808388818E3F48F0F2
:100F50008EEF88838DEF9FEFF801E55FFE4F918361
:100F60008083F801E55FFE4F88819081890F888337
:100F70004AE050E060E070E0C7010E949D061881E1
:100F80002FEF9CE121CFC82FD0E08E01000F111F61
:100F9000F801EF5EFE4F28E030E0318320833AE035
:100FA000839FC0011124AC01425E594F7A01CA01EE
:100FB0000E942706CB50DD4F672B682B692B31F53C
:100FC0008881823048F481E0888383E090E0F801F2
:100FD000E55FFE4F9183808388818E3F48F08EEFDE
:100FE00088838DEF9FEFF801E55FFE4F918380834B
:100FF000F801E55FFE4F88819081890F888348E082
:1010000050E060E070E0C7010E949D0618812FEF5C
:10101000FFCE282F30E0D901A550BD4F7D019C9116
:10102000992319F0903609F01C92220F331FF90111
:10103000EF5EFE4F20E233E031832083BAE08B9FE6
:10104000E0011124C25ED94FCE010E942706672B12
:10105000682B692B79F4F7018081811103C080E648
:10106000808301C0108240E253E060E070E0CE0176
:101070000E949D06F7013DCF282F30E0A901455081
:101080005D4F7A01DA019C919F3021F0923D11F081
:101090009FE09C93220F331FF901EF5EFE4F20E289
:1010A00033E031832083BAE08B9FE0011124C25EDC
:1010B000D94FCE010E942706672B682B692BD1F6EA
:1010C000F70180818F3011F482EDCACF8FE08083E9
:1010D000CACFE82EF12CF701EE0FFF1FEF5EFE4F97
:1010E0002AE030E031832083FAE08F9FE001112471
:1010F000C25ED94FCE010E942706970125503D4F71
:101100007901672B682B692B89F4D9018C9190E0C8
:1011100001966FEF70E00E943B22F90180834AE064
:1011200050E060E070E0CE010E949D06D7019C91E6
:10113000E1CE20910A019091F40246CE162F262F7F
:1011400043CE75E5760F80E06BEA2F3FF1F0222366
:1011500009F46FC0209590E0222329F0229F912D61
:10116000112421119F5F292F2095629F060E60E0B8
:10117000611D729F070E70E0711D829F080E80E056
:10118000811D1124690F790F890F1F3FB9F090E07D
:10119000112321F0119F912D09F09F5F992309F4EC
:1011A0004CC0699F060E60E0611D799F070E70E0DC
:1011B000711D899F080E80E0811D1124DF91CF9160
:1011C0001F910F91FF90EF90DF90CF900895411104
:1011D0000BC09AEA399F030E30E0311D11248BEACF
:1011E000831B7AEA760F08CE80E0762F7095862FE3
:1011F00060E0ABCF511111C041110BC0832F9AEAAF
:10120000899F080E80E0811D11247BEA781B8B5A90
:10121000EFCF862F809570E098CF411106C095E5FD
:10122000960F8BEA861B692FF6CF9AEA960F30E06D
:10123000F9CF8FEF7FEF6FEFA8CF80E070E060E035
:10124000BDCF0F931F93CF93DF9320911A022F5F8F
:10125000322F377030931A0220FF2BC020E831FD67
:101260002064347009F02062205FFC01EC012396B9
:1012700000E011E06485662329F070E0C8010E9457
:101280003B226F5F6187822F869F080E80E0811D61
:101290001124811110C01682662311F061506187FC
:1012A0003196EC17FD0731F7DF91CF911F910F9128
:1012B000089520E0D4CF81508683EECF4F925F9285
:1012C0007F928F929F92AF92BF92CF92DF92EF92D6
:1012D000FF920F931F93CF93DF932C01EB010E949A
:1012E0000902F20127853089621B730B6A30710590
:1012F000B0F3F8948A819B81181619060CF0CBC1C3
:10130000E881F98105B1026075B17D7F75B9BA8454
:101310008F812B2D281B822F2F834F85042E000CAD
:10132000550BAA81BB81ED84DC84CE84E394D394F5
:10133000C3949E81388599848B84118120E0F32E9B
:10134000622F322F3181112788943111380F08F420
:101350003FEF81958894E0FC130F17958894E1FC8A
:10136000130F17958894E2FC130F17958894E3FCEC
:10137000130F17958894E4FC130F17958894E5FCD8
:10138000130F17958894E6FC130F17958894E7FCC4
:10139000130F17958894232FE110212F8B0D122FF7
:1013A000002C05B900C017FF75B930812227889439
:1013B00000C000C0002C75B93111390F00C0002CDD
:1013C00005B900C016FF75B908F43FEF91958894F0
:1013D00000C000C0002C75B9D0FC230F00C0002C49
:1013E00005B900C015FF75B927958894D1FC230F66
:1013F00000C000C0002C75B92795889400C0002C4F
:1014000005B900C014FF75B9D2FC230F2795889445
:1014100000C000C0002C75B9D3FC230F00C0002C05
:1014200005B900C013FF75B927958894D4FC230F24
:1014300000C000C0002C75B92795889400C0002C0E
:1014400005B900C012FF75B9D5FC230F2795889404
:1014500000C000C0002C75B9D6FC230F00C0002CC2
:1014600005B900C011FF75B927958894D7FC230FE3
:1014700000C000C0002C75B92795889400C0002CCE
:1014800005B900C010FF75B9132FD110122F990D97
:1014900000C000C0002C75B900C000C0002C05B908
:1014A00000C017FF75B932812227889400C000C0A0
:1014B000002C75B931113F0D00C0002C05B900C0DA
:1014C00016FF75B908F43FEFE40FF51F00C000C028
:1014D000002C75B9C0FC230F00C0002C05B900C05A
:1014E00015FF75B927958894C1FC230F00C000C073
:1014F000002C75B92795889400C0002C05B900C050
:1015000014FF75B9C2FC230F2795889400C000C052
:10151000002C75B9C3FC230F00C0002C05B900C016
:1015200013FF75B927958894C4FC230F00C000C031
:10153000002C75B92795889400C0002C05B900C00F
:1015400012FF75B9C5FC230F2795889400C000C011
:10155000002C75B9C6FC230F00C0002C05B900C0D3
:1015600011FF75B927958894C7FC230F00C000C0F0
:10157000002C75B92795889400C0002C05B900C0CF
:1015800010FF75B9132FC110122FF19400C000C0C5
:10159000002C75B9F80C00C000C005B900C017FFD9
:1015A00075B931812227889400C000C0002C75B91C
:1015B0003111380F00C0002C05B900C016FF75B9F5
:1015C00008F43FEF8195889400C000C0002C75B9E5
:1015D000E0FC230F00C0002C05B900C015FF75B951
:1015E00027958894E1FC230F00C000C0002C75B93A
:1015F0002795889400C0002C05B900C014FF75B968
:10160000E2FC230F2795889400C000C0002C75B918
:10161000E3FC230F00C0002C05B900C013FF75B90F
:1016200027958894E4FC230F00C000C0002C75B9F6
:101630002795889400C0002C05B900C012FF75B929
:10164000E5FC230F2795889400C000C0002C75B9D5
:10165000E6FC230F00C0002C05B900C011FF75B9CE
:1016600027958894E7FC230F00C000C0002C75B9B3
:101670002795889400C0002C05B900C010FF75B9EB
:10168000132FE110122F8B0D00C000C0002C75B974
:10169000119709F086CE4A815B8120EE31E0DA01B4
:1016A0000E949622DC01CB01F4E0B695A7959795B0
:1016B0008795FA95D1F730E020E0B901EAE94E9F2D
:1016C000040E611D5E9F600D711D1124650F711D5B
:1016D000860F971FA11DB11D893E43E09407A10508
:1016E000B10508F434C0885E9340A109B10942E015
:1016F000B695A795979587954A95D1F747E0849F2A
:10170000080E211D949F200D311D1124290F311D1C
:101710006091190270E0860F971F820F931F40910E
:10172000E7025091E8026091E9027091EA02292FE4
:101730003327420F531F611D711D4093E7025093E1
:10174000E8026093E9027093EA02809319027894A8
:101750000E940902F201708B6787DF91CF911F9180
:101760000F91FF90EF90DF90CF90BF90AF909F9040
:101770008F907F905F904F90089581E090E0089562
:10178000219A08956F927F928F92CF92DF92EF927B
:10179000FF920F931F93CF93DF93CDB7DEB762977E
:1017A0000FB6F894DEBF0FBECDBF6C017A013801D1
:1017B000822EDC011C962C91CA0157FF04C0882799
:1017C0009927841B950B7A8369839C838B839E83E3
:1017D0008D836D867E868F86213049F5CE010196F8
:1017E0000E94210983E0888B1A8A198AF7FE02C0B9
:1017F0008DEF888BD601ED91FC910288F389E02D65
:10180000BE016F5F7F4FC601099562960FB6F894CF
:10181000DEBF0FBECDBFDF91CF911F910F91FF9023
:10182000EF90DF90CF908F907F906F9008951C86FF
:101830001B861A86198618861F82D4CFEF92FF92D4
:101840000F931F93CF93DF93CDB7DEB762970FB699
:10185000F894DEBF0FBECDBF7C01DC011C968C91DD
:101860007A8369835C834B835E834D830D871E87F8
:101870002F878130F9F4CE0101960E942109188A40
:101880001A8A198AD701ED91FC910288F389E02D1B
:10189000BE016F5F7F4FC701099562960FB6F8943E
:1018A000DEBF0FBECDBFDF91CF911F910F91FF9093
:1018B000EF9008951C861B861A86198618861F824B
:1018C000DECF84E996E00E94C5058AE796E00E9493
:1018D000C50580E696E00C94C50580911502882325
:1018E00049F08AE00E94A4021092EF061092F006DE
:1018F000109215020895CF92DF92EF92FF92CF934C
:1019000020911502211110C06C01809100018A30D4
:10191000A1F08F3F09F45AC04CE251E060E070E062
:1019200087EE96E00E949D0681E080931502CF919C
:10193000FF90EF90DF90CF900895E8E6F0E0C4913B
:10194000C7FDEACF61E08AE00E94CD01CC2319F007
:10195000C23009F0D9C0F12CE12C68E478EE81E0C6
:1019600090E0A70196010E947122BA01A90141509D
:10197000510961097109CC2309F406C1C23009F08B
:1019800094C04F3F51056105710509F00CF4BAC0D0
:1019900064E274EF80E090E0A70196010E9471225A
:1019A000BA01A901415051096109710995E080917D
:1019B000B100887F892B8093B100C13009F4BCC08D
:1019C000C23009F4CEC0C111A7CF8AC08AE080938B
:1019D0000001E8E6F0E0C491CF3F09F49DCFC130AB
:1019E00021F150F0C23009F43EC0C7FD95CF61E04F
:1019F0008AE00E94CD01ACCF14BC15BC84B58260D6
:101A000084BD85B5816085BDE1E9F0E0E491F0E059
:101A1000EE0FFF1FED58FF4F85919491E5EAF0E03E
:101A2000E491E0930C02C0E08DCF10928000109200
:101A30008100809181008860809381008091810085
:101A4000816080938100E1E9F0E0E491F0E0EE0F45
:101A5000FF1FED58FF4F85919491E5EAF0E0E49186
:101A6000E0930B026FCF1092B0001092B100809102
:101A7000B00082608093B0008091B100816080935B
:101A8000B100E1E9F0E0E491F0E0EE0FFF1FED5866
:101A9000FF4F859194919093800280937F02E5EAB5
:101AA000F0E0E491E09381024DCF4F3F5105610595
:101AB000710541F13CF162E17AE780E090E0A70135
:101AC00096010E947122BA01A90141505109610990
:101AD0007109C11162C094E085B5887F892B85BDED
:101AE00047BD8FEF9FEFDC018093110290931202AC
:101AF000A0931302B093140280916E0082608093D1
:101B00006E000ACF94E053CF960150E040E060E0D1
:101B100072E18AE790E00E947122BA01A901415066
:101B2000510961097109C13009F047CF80918100E5
:101B3000887F816080938100509389004093880062
:101B40008FEF9FEFDC0180930D0290930E02A09324
:101B50000F02B093100280916F00826080936F003B
:101B6000DBCE4093B3008FEF9FEFDC0180938202C6
:101B700090938302A0938402B093850280917000B9
:101B8000826080937000C8CE93E04F3F510561059D
:101B9000710511F00CF08FCF9FCF96E008CFE82FA2
:101BA0008091A702882331F1EC310CF0EBE1E7FDE5
:101BB000E0E00E2E000CFF0BE35EFE4F80816623FB
:101BC000D1F087FD17C0E82FE695E695E695F0E0A1
:101BD000E854F94F282F277081E090E0A0E0B0E0B2
:101BE00004C0880F991FAA1FBB1F2A95D2F7208116
:101BF000822B8083089587FDFDCFE82FE695E6953B
:101C0000E695F0E0E854F94F282F277081E090E046
:101C1000A0E0B0E004C0880F991FAA1FBB1F2A953F
:101C2000D2F7809590818923E4CF0F931F93CF93B0
:101C3000DF9300D01F92CDB7DEB7AB0119821A82B5
:101C40001B82DC01ED91FC910190F081E02D00E020
:101C500010E020E0BE016F5F7F4F09950F900F905D
:101C60000F90DF91CF911F910F910895FC01858511
:101C70009685089590E080E00895FC0164870895BA
:101C8000FC01848590E008950F931F93CF93DF9319
:101C90008C018091CE0691E090932A0380934C03AF
:101CA00010922B0310924D0360E081EF93E00E94AD
:101CB0008105E801005F1F4F699181EF93E00E9469
:101CC00081050C171D07C1F7DF91CF911F910F916F
:101CD0000C94430488EB96E00C94440ECF93DF936E
:101CE00020911602211110C0EC0161E08BE00E94EE
:101CF000CD0161E08BE00E949F01AE0170E060E0E9
:101D00008DED96E00E949D0681E080931602DF91A2
:101D1000CF91089580911602882371F061E08BE0E5
:101D20000E94CD0160E08BE00E949F011092E506C9
:101D30001092E606109216020895FB010190002011
:101D4000E9F73197AF01461B570BDC01ED91FC9190
:101D50000280F381E02D09948F929F92AF92BF92FF
:101D6000EF92FF920F931F93CF93DF93CDB7DEB720
:101D7000A1970FB6F894DEBF0FBECDBF7C01FA016C
:101D8000CB0119A2223008F42AE08E010F5D1F4F0B
:101D9000822E912CB12CA12CBF01A50194010E948F
:101DA0004F22F901CA016A300CF5605DD8016E93CB
:101DB0008D01232B242B252B79F790E080E01097C1
:101DC00021F0BD01C7010E949D0EA1960FB6F894A7
:101DD000DEBF0FBECDBFDF91CF911F910F91FF905E
:101DE000EF90BF90AF909F908F900895695CDECF89
:101DF0000F931F93CF93DF93EC010E949D0E8C01F4
:101E00006BE871E0CE010E949D0E800F911FDF9163
:101E1000CF911F910F910895E8EBF6E080E1DF018B
:101E20001D928A95E9F7CF010C94440E8091A70288
:101E300081110E940C0F1092C2021092C10282E026
:101E400090E09093E2028093E10208950E94160FC1
:101E50001092C2021092C1021092C002EEEAF6E0A5
:101E6000108611861092E2021092E10208958EEF20
:101E7000EDEFF3E0DF01982F1D929A95E9F7EBEF74
:101E8000F4E0DF011D928A95E9F71092FF051092A8
:101E90000E0610920F061092100610921106089569
:101EA0008091180690911906DC01ED91FC91008457
:101EB000F185E02D0995892B61F0809118069091AC
:101EC0001906DC01ED91FC910284F385E02D099562
:101ED000E7CF0E94370F8091000680931706089580
:101EE000CF92DF92EF92FF920F931F93CF93DF93E6
:101EF000EC017B0180910E0690910F06A0911006D7
:101F0000B0911106892B8A2B8B2B41F4D7018C9130
:101F100081113EC01092FF0581E063C00E94600203
:101F200000910E0610910F062091100630911106B7
:101F3000601B710B820B930B00911206109113061C
:101F400020911406309115066017710782079307D8
:101F5000E8F280910806882341F06EE871E08091F4
:101F60000606909107060E94F80E1092FF05109247
:101F70000206109201068DEF8093000610920E0665
:101F800010920F06109210061092110680E0E4C025
:101F9000E0910106F0910206E730F10508F01EC15C
:101FA000EC52F04F0C949022DB0FF40FFE0F041054
:101FB000241038106C1088818E3781F481E090E015
:101FC00090930206809301060E94600260930E06C1
:101FD00070930F0680931006909311061092FF05E0
:101FE00083E080930006D2CF888180930B0682E045
:101FF00090E09093020680930106F0CF8881809351
:102000000D0683E090E0F5CF88819FEF980F9E3F0B
:1020100038F48093090610920A0684E090E0E9CF34
:102020001092FF0510920206109201068FEF809326
:1020300000068091080662EA71E0811146C00E94A4
:10204000370F8091FF0588C080910A06909109069C
:10205000891720F62881E82FF0E0E550FB4F208318
:102060008F5F80930A069813B9CF85E090E0C1CFC7
:10207000409109066091EF037091F003ABEFB4E07B
:1020800030E020E080E050E02417350748F4ED917F
:10209000E827E60FF72FF11D80812F5F3F4FF4CF28
:1020A0009881981303C086E090E0A3CF1092FF05BB
:1020B0001092020610920106109200068091080606
:1020C00067EB71E0882309F4BACF809106069091FE
:1020D00007060E94F80EB3CF109202061092010676
:1020E0008881813809F06DC080910D068F3F69F0BD
:1020F0002EE7E82FF0E0E550FB4F9081992319F08F
:102100002083890FF6CF8EE7808380910906809324
:10211000FF0582E0809300062091030630910406BB
:102120002115310579F080910B06909105068917EC
:10213000E0F490E0880F991F820F931FDC01ED916E
:10214000FC91099510920E0610920F06109210063F
:102150001092110680910906DF91CF911F910F9186
:10216000FF90EF90DF90CF9008958091080688232C
:1021700049F3E0900606F0900706C3ECD0E0FE01BC
:102180006491662359F0D701ED91FC910190F081A3
:10219000E02DC70109952196892B89F7C091060684
:1021A000D091070640910B0650E070E060E02AE015
:1021B000CE010E94AC0E6BE871E0CE010E949D0E34
:1021C000C1CF1092FF058EEF809300068091080624
:1021D000882309F434CF68EC71E077CF809108064A
:1021E000882389F16FED71E08091060690910706D2
:1021F0000E949D0EC0910606D0910706C090010670
:10220000D09002060D2C000CEE08FF082AE0B70162
:10221000A601F7FE10C0E881F9810190F081E02D60
:102220006DE2CE01099544275527BA014C195D0985
:102230006E097F092AE0CE010E94AC0E6BE871E0C6
:10224000CE010E949D0E0E94370F1092020610923E
:102250000106C4CE1F93CF93DF9300D0CDB7DEB776
:102260001A828FEF89838091180690911906DC01FC
:10227000ED91FC910084F185E02D0995892BE1F128
:1022800081E08A838091180690911906DC01ED9116
:10229000FC910084F185E02D0995892BF1F0809166
:1022A000180690911906DC01ED91FC910284F385EA
:1022B000E02D09958983BE016E5F7F4FCE010196A7
:1022C0000E94700F80931606809100068093170677
:1022D0008330C1F287FD0E94500F8091160688233B
:1022E00049F080910B06882329F0813099F08230E3
:1022F00009F42BC210E0C1C0BE016E5F7F4FCE015A
:1023000001960E94700F80931606809100068093BC
:102310001706E0CF9091FB0490930602E091FC0435
:10232000E09307028091FD04809308028091FE04EF
:10233000809309028091FF0480930A02EE23D1F278
:102340009130C1F68335B1F680910802909109026F
:10235000E250E83478F6F0E0E055FE4E0C9490221E
:102360004C12F811FE1107120D1249136113BF121E
:10237000C412CB12CE12D112D4127A11E112281348
:10238000301333133F137A117A117A117E137813B5
:10239000E412E912F012F312F6127A117A117A119C
:1023A0007A117A117A117A117A117A117A117A11D5
:1023B000B512AB12A1129312F912141307120D12D7
:1023C0007A117A1105127A117A117A118B139913F5
:1023D0005F126B12791285127A1144127A111E1251
:1023E0001E122E1236127A1105120512051205124E
:1023F00081E0809306018093FF017CCF1092E5027B
:102400001092FF0184E00E94C50011E036C081E017
:102410008093E30284E090E00CC01092E30280918C
:10242000E1029091E202892B11F00E94082181E0E3
:1024300090E09093DE028093DD02E7CF009709F4ED
:1024400059CF2091FD013091FE018217930709F4C5
:1024500051CF9093FE018093FD01D7CF8091FC0175
:10246000811148CF81E08093FC01CFCF1091FC0116
:10247000112309F43FCF1092FC01812F0F900F9090
:10248000DF91CF911F910895009709F433CF909376
:10249000FB018093FA012ECF1091FF018091E5029C
:1024A000882349F0111126CF81E08093FF0183E05A
:1024B0000E94C500E2CF11111DCF82E0F9CF8091BB
:1024C000AA029091AB02892B09F414CF1092AB02AF
:1024D0001092AA029ACF8091AA029091AB02019722
:1024E00009F408CF81E090E09093AB028093AA02B8
:1024F0008CCF8091A8029091A902892B09F4FACE81
:102500001092A9021092A80280CF8091A802909107
:10251000A902019709F4EECE81E090E09093A90220
:102520008093A80272CF8091B7029091B80202976F
:1025300009F4E0CE82E090E09093B8028093B70275
:1025400064CF8091B7029091B802039709F4D2CE7C
:1025500083E090E0F1CF8091B7029091B8020497A8
:1025600009F4C8CE84E090E0E7CF8091B702909163
:10257000B802059709F4BECE85E090E0DDCF109259
:10258000BA021092B90241CF81E090E09093BA0272
:102590008093B9023ACF82E090E0F8CF83E090E0F8
:1025A000F5CF84E090E0F2CF25E030E03093BA023E
:1025B0002093B90221E0029709F020E02093B602AF
:1025C00024CF87E090E0E2CF1092C4021092C302C1
:1025D0001CCF81E090E09093C4028093C30215CF9A
:1025E00082E090E0F8CF83E090E0F5CF84E090E0E7
:1025F000F2CF1092DB0281E08093DF020E9408217B
:1026000081E090E09093DE028093DD021091E3027E
:10261000112309F4FACE40E253E060E070E083ED6C
:1026200096E00E949D0629CF1092DF021091E302EE
:10263000112309F4EACE1092DB061092DC060E9408
:10264000160F84E090E09093DE028093DD0215CFB8
:1026500081E0809306018093E0020E94160FDACE9B
:102660001092E002D2CE81E08093E00240E253E09B
:1026700060E070E083ED96E00E949D06D6CE109259
:10268000E0021092DB061092DC0681E080930601E6
:10269000E4CF81E08093DB028093E3026091060146
:1026A00070E080E293E00E942722AB0170E060E0DE
:1026B00083ED96E00E949D060E94160F82E090E056
:1026C000B8CE1092DB021092DB061092DC068091ED
:1026D000E002811103C081E0809306011091DF02C6
:1026E000112309F4BACF0E94082181E090E0ABCF1A
:1026F000809106018F5F8093060187CE81E08093F1
:1027000006011091DB02112309F4A7CF0E94160FD6
:1027100082E090E098CF8091F8019091F9010197C3
:1027200009F4E8CD81E090E09093F9018093F801FD
:102730006CCE8091F8019091F901892B09F4DACDE2
:102740001092F9011092F80160CE4091FB04409381
:1027500000022091FC04209301029091FD049093CB
:1027600002028091FE04809303023091FF043093B3
:1027700004023091000530930502222309F4BACDFA
:10278000413009F0B7CD333509F0B4CD2F3061F0C9
:10279000253309F0AFCD91119093F402882309F409
:1027A000A9CD80930A01A6CD26E030E03093BA028D
:1027B0002093B90291119093F402882309F425CE55
:1027C00080930A0122CE0E94272585ED8093BC00CC
:1027D0008091260390912703A0912803B0912903AB
:1027E0000796A11DB11D23E0B695A79597958795EE
:1027F0002A95D1F72091BC0024FD03C01092240338
:102800000895409126035091270360912803709109
:102810002903452B462B472B69F30097A105B105EA
:1028200041F02AE22A95F1F700C00197A109B10908
:10283000E1CF809125030C9422041F920F920FB6D2
:102840000F9211242F933F938F939F93AF93BF9336
:102850008091E7029091E802A091E902B091EA022A
:102860003091E60223E0230F2D3758F50196A11D84
:10287000B11D2093E6028093E7029093E802A093B3
:10288000E902B093EA028091EB029091EC02A091F0
:10289000ED02B091EE020196A11DB11D8093EB02F5
:1028A0009093EC02A093ED02B093EE02BF91AF9132
:1028B0009F918F913F912F910F900FBE0F901F907E
:1028C000189526E8230F0296A11DB11DD2CF1F92A5
:1028D0000F920FB60F9211242F933F934F935F9354
:1028E0006F937F938F939F93AF93BF93EF93FF93D8
:1028F000E0910301F09104010995FF91EF91BF91DF
:10290000AF919F918F917F916F915F914F913F9187
:102910002F910F900FBE0F901F9018951F920F923E
:102920000FB60F9211242F933F934F935F936F93A2
:102930007F938F939F93AF93BF93EF93FF93E09118
:102940000101F09102010995FF91EF91BF91AF91C3
:102950009F918F917F916F915F914F913F912F91B7
:102960000F900FBE0F901F9018951F920F920FB6E9
:102970000F9211242F933F934F935F936F937F9305
:102980008F939F93AF93BF93EF93FF9380918202B6
:1029900090918302A0918402B0918502892B8A2BA9
:1029A0008B2BD1F190918102E0917F02F091800216
:1029B0008081892780838091820290918302A091F7
:1029C0008402B0918502181619061A061B069CF49B
:1029D0008091820290918302A0918402B09185023D
:1029E0000197A109B1098093820290938302A09379
:1029F0008402B0938502FF91EF91BF91AF919F91B7
:102A00008F917F916F915F914F913F912F910F9097
:102A10000FBE0F901F901895809100010E94A40294
:102A2000EACF1F920F920FB60F9211242F933F936C
:102A30004F935F936F937F938F939F93AF93BF93C6
:102A4000EF93FF938EE493E00E944E03FF91EF918A
:102A5000BF91AF919F918F917F916F915F914F91B6
:102A60003F912F910F900FBE0F901F9018951F92BE
:102A70000F920FB60F9211242F938F939F93EF9382
:102A8000FF93E0915E03F0915F038081E091640326
:102A9000F091650382FD1BC09081809167038F5F79
:102AA0008F7320916803821741F0E0916703F0E093
:102AB000E25BFC4F958F80936703FF91EF919F91AD
:102AC0008F912F910F900FBE0F901F9018958081BE
:102AD000F4CF1F920F920FB60F9211242F933F93B2
:102AE0004F935F936F937F938F939F93AF93BF9316
:102AF000EF93FF938091B900887F803609F44AC034
:102B0000F0F5883209F4A7C018F5803109F49BC0AC
:102B1000B8F4882309F4F9C0883009F494C0FF910F
:102B2000EF91BF91AF919F918F917F916F915F9145
:102B30004F913F912F910F900FBE0F901F901895BE
:102B4000883109F488C0803251F78093220314C081
:102B5000803409F49DC040F48033B9F38833F9F62A
:102B60008093220385ECB0C0803509F485C0883598
:102B700009F496C0883499F60E94E513D0CF8839BD
:102B800009F48CC038F5883729F050F4883611F0F4
:102B9000803729F683E08093240310927E0257C089
:102BA000883809F47BC0803919F0803809F0B7CF34
:102BB00080917E02803208F071C0E0917E0281E057
:102BC0008E0F80937E028091BB00F0E0E25AFD4FB1
:102BD00080833DC0803B39F0E0F4803A09F479C04D
:102BE000883A09F09CCF84E08093240310925D0220
:102BF00010925C02E091A302F091A40209958091E9
:102C00005C0281110FC081E080935C0210923C0253
:102C100009C0803C09F4A6CF883C09F4A3CF883BC7
:102C200009F07DCFE0915D0281E08E0F80935D021F
:102C3000F0E0E45CFD4F80818093BB0090915D02E9
:102C400080915C0229C08091FF028093BB0085ECDB
:102C50008093BC0064CF909121038091200398174A
:102C600058F5E091210381E08E0F80932103F0E07D
:102C7000E050FD4F8081E9CFE091210381E08E0F8C
:102C8000809321038091BB00F0E0E050FD4F8083F2
:102C900090912103809120039817C8F285E8D8CF3E
:102CA000E091210381E08E0F809321038091BB008E
:102CB000F0E0E050FD4F80838091230381115CCFD1
:102CC00081E08093FE0284EA8093BC00109224038A
:102CD00026CF85EC8093BC001092240380917E0265
:102CE000803230F4E0917E02F0E0E25AFD4F108233
:102CF00060917E0270E0E091A102F091A2028EE567
:102D000092E0099510927E020ACF1092220334CFEE
:102D1000FC01108614821582168217821186108299
:102D20001182128213820895CF93DF93EC01862FD4
:102D3000688379831A821B821C821D821E821F82F5
:102D4000188619861B861A8662E00E94CD011D86B0
:102D50001C8681E090E09F878E8788810E947601A3
:102D6000998B888B9B8B8A8B9D8B8C8B1E8A1F8A61
:102D7000188E198EDF91CF91089510925103109201
:102D8000500388EE93E0A0E0B0E08093520390936C
:102D90005303A0935403B09355038BE691E09093B3
:102DA0004F0380934E0385EC90E090935B038093F8
:102DB0005A0384EC90E090935D0380935C0380EC75
:102DC00090E090935F0380935E0381EC90E090939A
:102DD00061038093600382EC90E09093630380939F
:102DE000620386EC90E090936503809364031092F5
:102DF0006703109268031092690310926A038BE9CB
:102E00008093EB0388E08093EE0380E091E0909361
:102E1000ED038093EC030E9445239093F00380938D
:102E2000EF0330E020E08091EC039091ED03281750
:102E30003907E0F4C9016091EB0370E048E050E02D
:102E4000FC01E078FF27880F991FEF2B11F08627F0
:102E5000972741505109A1F7E091EF03F091F0035A
:102E6000E20FF31F80832F5F3F4FDDCF1092F403FB
:102E70001092F30388EE93E0A0E0B0E08093F503B6
:102E80009093F603A093F703B093F8038DE791E0D6
:102E90009093F2038093F1038BEF96E00E948816E3
:102EA00081EF96E00E94881687EE96E00E948816D1
:102EB0008DED96E00E94881683ED96E00E948816BC
:102EC0008EEA96E00E94881665E070E084E996E05C
:102ED0000E94941666E070E08AE796E00E949416DD
:102EE00064E070E080E696E00E94941686E596E045
:102EF0000E9488168CE496E00E94881682E496E090
:102F00000E94881610923D0610923C0610923F06D1
:102F100010923E06109241061092400661E070E069
:102F200090E080E00E946A240097E9F090933D06CB
:102F300080933C0610923F0610923E062091400678
:102F400030914106232B11F4FC01108210924106AE
:102F5000109240066DE871E080913C0690913D062C
:102F60000E94352514C080913C0690913D06009743
:102F700011F00E94E12310923D0610923C0610923F
:102F800041061092400610923F0610923E068EE1D6
:102F900096E00E94881688E296E00E94881682E3F6
:102FA00096E00E9488168EE78093F9051092FA0544
:102FB0001092FB051092FC051092FD0581E88093AC
:102FC000FE051092FF051092000610920206109264
:102FD0000106109204061092030610920506109244
:102FE00008061092090610920A0610920B0610921B
:102FF0000C0610920D0610920E0610920F061092FB
:1030000010061092110610921606109217068FEFF6
:103010008093050710920707109206071092110778
:10302000109210078FEF9FEFDC0180930C079093B5
:103030000D07A0930E07B0930F070895CF93DF936A
:10304000CDB7DEB7C958D1090FB6F894DEBF0FBEB1
:10305000CDBF789484B5826084BD84B5816084BD21
:1030600085B5826085BD85B5816085BD80916E0026
:10307000816080936E001092810080918100826057
:103080008093810080918100816080938100809194
:1030900080008160809380008091B1008460809383
:1030A000B1008091B00081608093B00080917A007F
:1030B000846080937A0080917A00826080937A00A5
:1030C00080917A00816080937A0080917A00806894
:1030D00080937A001092C1002EE433E0E0915E0309
:1030E000F0915F0382E08083E0915A03F0915B03EB
:1030F0001082E0915C03F0915D038FEC808310926D
:103100006603E0916203F091630386E08083E091BF
:103110006003F0916103808180618083E0916003AE
:10312000F0916103808188608083E0916003F09179
:103130006103808180688083E0916003F091610386
:1031400080818F7D8083309319062093180682E357
:1031500090E0A0E0B0E080931A0690931B06A09345
:103160001C06B0931D06309307062093060621E047
:10317000209308068093120690931306A0931406DA
:10318000B09315061092AB021092AA0281E090E073
:103190009093A9028093A80284E090E09093B802F3
:1031A0008093B7021092BA021092B9021092BC0238
:1031B0001092BB022091E50221117AC19093C402C2
:1031C0008093C3021092BF021092BE0280919902B6
:1031D000811145C010928B0210928A028FEF80936A
:1031E0008E0280938F02809390028093910280934D
:1031F00092028093930281E080939402109296024F
:103200001092950210928D0210928C028091CB0246
:103210009091CC02892B31F488E892E09093CC0213
:103220008093CB02E0918602F0918702309721F0E3
:1032300088E892E09583848388E892E090938702FF
:1032400080938602109298021092970283E591E093
:10325000909389028093880281E080939902219A59
:1032600081ED92E090938B0280938A0283E090E05C
:103270009093960280939502809108079091090798
:10328000A0910A07B0910B07843C29E09207A105A1
:10329000B10520F484EC99E0A0E0B0E08093080749
:1032A00090930907A0930A07B0930B074FEF60E0D4
:1032B00080E00E94B0066093D1027093D2028093A6
:1032C000D3024FEF60E081E00E94B0066093D40229
:1032D0007093D5028093D6024FEF60E082E00E94A7
:1032E000B0066093D7027093D8028093D90282E32C
:1032F00090E0A0E0B0E08093960690939706A093AC
:103300009806B093990680937C0690937D06A093CF
:103310007E06B0937F068093620690936306A09327
:103320006406B093650662E082E00E94CD0162E02F
:1033300083E00E94CD018CE692E09093020180939D
:103340000101809169008C7F816080936900E89A17
:103350006AE070E080E090E00E942E021092A602E7
:103360001092A5020E9404048EE992E09093A402B8
:103370008093A3028FE992E09093A2028093A1022E
:103380008CE08093B80000E011E0FF24F394F09209
:103390002A0310934C0310922B0310924D030E94AA
:1033A0004304811101C00F5F1F5F1F3781F70023A6
:1033B00009F483C081E08093A7028091A70288234B
:1033C00039F180E78093CE061092A6021092A502F2
:1033D00010922B0310924D030E9404048EE992E098
:1033E0009093A4028093A3028FE992E09093A202AB
:1033F0008093A10281E20E94B00581E80E94B0059D
:1034000080EA0E94B0058FEE0E94B0050E940C0F6A
:103410000E94260F61E08AE00E94CD0161E08BE00E
:103420000E94CD018AE00E94A4020E948A0E0E949E
:10343000610C64E670E080E090E00E942E0240E0C3
:1034400050E0BA018BEF96E00E949D06CE010196F6
:10345000CC57DF4F99838883C458D0404E0191E800
:10346000890E911CA3E02A2E312C1092070111E045
:103470001093080182E0809309018091E50288237E
:10348000F9F00E942A118091E502882331F06AE068
:1034900070E080E090E00E942E0280E090E0892BB6
:1034A00021F30E943A03882301F30E940000DDCF3C
:1034B0001092C4021092C30285CE1092A7027DCF53
:1034C0000E942A110E94610C1092B0021092AF0269
:1034D000209170063091710680916E0690916F0672
:1034E0002817390709F520917206309173068091EB
:1034F0006C0690916D0628173907B1F44CE251E043
:1035000060E070E08CE496E00E949D0648E552E0A1
:1035100060E070E082E496E00E949D061093AE02A7
:103520008091DC028093AD028091AE02882309F481
:1035300050C0209170063091710680916C06909178
:103540006D062817390739F18CE496E00E942706AA
:10355000672B682B692B09F4FFC082E496E00E9478
:103560002706672B682B692BA1F59091AD028091FE
:10357000DC02981709F408C18091E40291E08927E0
:103580008093E4021092AE021092AC028CED95E0B2
:103590000E946E0E36C020917206309173068091A3
:1035A0006E0690916F062817390771F68091AC026C
:1035B000882309F4C2C0A2E0B0E0B093B002A093A7
:1035C000AF021092AE021092AC021092540610920A
:1035D00055068091AF029091B0028230910509F4B6
:1035E000E4C08330910509F4EDC0019751F4809156
:1035F000BE029091BF02009709F4CFC0019709F471
:10360000D2C08091E402811172C02091B402309145
:10361000B5028091B2029091B302821793072CF504
:1036200080915E06811121C08091DB02882309F41C
:10363000ECC080910601833008F4E7C08091B102AC
:103640008F5F8093B10265E00E941B22911105C03B
:1036500085E10E94C5001092B10244E650E060E0AE
:1036600070E086E596E00E949D062091B4023091BC
:10367000B5028091B2029091B302281739072CF558
:1036800080915E06811121C08091DB02882309F4BC
:10369000CBC080910601833008F4C6C08091B1028E
:1036A0008F5F8093B10265E00E941B22911105C0DB
:1036B00085E10E94C5001092B10244E650E060E04E
:1036C00070E086E596E00E949D068091B40290919C
:1036D000B5029093B3028093B20286E596E00E9411
:1036E0006D06882321F010925E0610925F062091ED
:1036F000A4063091A5068091A2069091A306409160
:10370000A0065091A1062817390709F09CC08091A6
:10371000A6069091A7064817590709F09FC0809107
:10372000A6069091A706892B09F05AC182E30E9450
:10373000C50081E08093E30291C08CE496E00E9492
:103740002706672B682B692B09F4FECE8091AC020B
:103750008F5F8093AC023DCF8091AC02813009F045
:10376000FCCEE1E0F0E0F093B002E093AF02109203
:10377000AE021092AC0210925406109255061092AE
:103780004A0610924B0625CF3092B0022092AF022B
:103790001092AE021092AC021CCF86E30E94C500CC
:1037A00084EF91E0F5CE83E2F9CF8091BE02909153
:1037B000BF02009729F0019709F023CF84E2EECFF2
:1037C00087E3ECCF8091BE029091BF02009771F029
:1037D000019709F016CF1092BF021092BE0284EF3B
:1037E00091E00E946E0E88EB91E00CC021E030E089
:1037F0003093BF022093BE0284EF91E00E946E0ED0
:1038000080E193E00E947B0CFCCE8091BE029091FF
:10381000BF02009729F0019709F01FCF8FE101C087
:1038200086E20E94C50019CF8091BE029091BF022E
:10383000009729F0019709F040CF80E201C085E2AE
:103840000E94C5003ACF4217530741F42091A606C3
:103850003091A7068217930709F461CF8091E302A4
:10386000882309F4C3C08091E1029091E202892B80
:10387000F1F48091E00281111AC08091DF02811180
:1038800016C01092C2021092C1021092C00281E0D2
:1038900090E09093E2028093E1021092B6061092BB
:1038A000B706A4E0B0E0B093DE02A093DD02B090D2
:1038B00008010B2D10E080918C0690918D06780107
:1038C000EE0CFF1C892B09F0ADC081E08093DC0277
:1038D0007090DB02772021F080910601833048F45C
:1038E0008091E002811105C08091DF02882309F4F4
:1038F00096C0A09006016A2D70E080E293E00E94DD
:1039000027226B0183ED96E00E946D06882339F033
:10391000A60170E060E083ED96E00E949D06809134
:10392000DB06882319F1772059F0B2E0BA1540F48C
:103930008091E002811104C03092DE022092DD020B
:1039400083ED96E00E942706D694C7942601712C39
:10395000612C641575058605970508F055C081E052
:103960008093DA020E948A0E0E946D0C8091BE0242
:103970009091BF02009709F49CC0019709F4AEC072
:10398000D090DC02DD2009F4E7C08091DF028111D4
:1039900005C08091E002882309F4D0C00E0D1F1DE0
:1039A0000F521D4F4FEF6CE18B2D0E94B006F801B6
:1039B000608371838283E091B902F091BA023197FA
:1039C00065E0E730F10508F0E5C0E751F34E0C94EF
:1039D00090225C1EC91D731E661E681E6F1E711E1E
:1039E00083E30E94C5001092E30238CF8091A606BF
:1039F0009091A706019709F05ACF8091E5028111B5
:103A000056CF0E94260F53CF1092DA0284EF91E036
:103A10000E946E0E8BE092E00E947B0CA7CF10926A
:103A2000DA02A4CF1092DC021092DA02F701E00F62
:103A3000F11FEF52FD4F8081811106C081818111FC
:103A400003C08281882381F0C701800F911FFC0190
:103A5000EF52FD4F6F014FEF60E08B2D0E94B006DB
:103A6000D6016D937D938C9380910901282F30E0CE
:103A70006901CC0CDD1CF601E20FF31FEF52FD4F84
:103A80009081911107C09181911104C09281992375
:103A900009F46CCFC20ED31EF601EF52FD4F6F0139
:103AA0004FEF60E00E94B006D6016D937D938C933A
:103AB0005DCF1092F9061092FA061092BD02809125
:103AC0000701282F30E06901CC0CDD1CC20ED31E8B
:103AD000F601EF52FD4F6F0140E828C081EF96E0FC
:103AE0000E942706672B682B692B71F4D090BD02CA
:103AF00040E253E060E070E081EF96E00E949D06B6
:103B000081E0D826D092BD0280910701282F30E0B5
:103B10009091BD026901CC0CDD1CC20ED31EF601D2
:103B2000EF52FD4F6F014CE09923B1F260E00E942B
:103B3000B006D6016D937D938C9322CF8091BB020A
:103B40009091BC020E0D1F1D0F521D4F4FEF6BE1E8
:103B50000197B9F06AE128CFF701E00FF11FEF52AA
:103B6000FD4F8081811107C08181811104C0828154
:103B7000882309F420CF0E0D1F1D0F521D4F4FEF4C
:103B800060E08B2D0E94B006D8016D937D938C93DD
:103B900012CF63E180910901082F10E09801220FF4
:103BA000331FDD2029F09091DA02992309F49DC09A
:103BB000F901E00FF11FEF52FD4F9081911106C006
:103BC0009181911103C09281992361F0020F131F1B
:103BD0000F521D4F4FEF60E00E94B006F801608366
:103BE0007183828387EE96E00E946D06882309F434
:103BF00088C00E946D0C8DED96E00E946D068823B2
:103C000009F489C00E948A0E10910601111101C0A9
:103C100011E0C090E102D090E2028091DD0290912B
:103C2000DE0204970397B0F48091C302B2E0CB1692
:103C3000D10409F07AC0E6E0F0E0F093DE02E09310
:103C4000DD0291E0980F892F880F880F890F8D5F13
:103C500080930501C114D10409F479C000910501D4
:103C60008EEA96E00E942706672B682B692B09F0E5
:103C70006EC0612F70E08CE090E00E943B226230C9
:103C8000710514F462E070E0601B1CE1160FE09017
:103C9000DD02F090DE0237E0E316F10408F057C0D1
:103CA000F701EB5AF14E0C949022971FEC1F27203E
:103CB0002720A11E0420C01F8091B7029091B80256
:103CC00063E0039709F466CF6FE064CF6DE162CFE4
:103CD0008091B60268E181115DCF69E15BCF6EE151
:103CE00059CF61E057CF6BE055CF020F131F0F5232
:103CF0001D4F4FEF0E94B006D8016D937D938C93BA
:103D000071CF87EE96E00E942706672B682B692B00
:103D100009F46FCF70CF8DED96E00E942706672BD8
:103D2000682B692B09F46ECF6FCFF4E0CF16D10466
:103D300009F087CF25E030E03093DE022093DD02EA
:103D400080CF86E090E09093DE028093DD028BEFDF
:103D500096E00E946D06882309F49FCBD09005075A
:103D60008091080790910907A0910A07B0910B076D
:103D7000892B8A2B8B2BD9F00E9409020091CD024E
:103D80001091CE022091CF023091D002601B710BB6
:103D9000820B930B009108071091090720910A07E5
:103DA00030910B076017710782079307C8F20E94D2
:103DB00009026093CD027093CE028093CF0290935C
:103DC000D002E0911007F0911107309759F040911F
:103DD0000C0750910D0760910E0770910F078D2D04
:103DE0000995D82E80E8CC57DF4FA881B981C458F7
:103DF000D0401D928A95E9F7E090CB02F090CC027A
:103E0000FE0131965F01CA57DF4FF983E883C65838
:103E1000D0404D2C512C712C612CE114F10409F48B
:103E200091C1CA57DF4F88819981C658D040881602
:103E3000990609F487C1D701ED91FC910484F585B9
:103E4000E02DC7010995CA57DF4FE881F981C658AF
:103E5000D04081939193CA57DF4FF983E883C658C6
:103E6000D04080910607909107078436910518F499
:103E7000D7011C961C92D701ED91FC9122813381D0
:103E8000C857DF4F39832883C858D040D4011C92CB
:103E900011961C92119712961C92DD2079F18701E0
:103EA0000A5F1F4FF0E0E0E0D8012D918D01222341
:103EB00009F11296CC90CC20E9F030E050E040E0DF
:103EC0002F5F3F4F4F4F5F4FC301B2010E940B2244
:103ED0009B01AC018C2D90E0B0E0A0E0BC01CD01D5
:103EE0006F5F7F4F8F4F9F4F0E940B22D401AE0F09
:103EF000BF1F8C933196E330F105B1F6F4010081D8
:103F000011812281D7011D964D915C911E971296C9
:103F10006D917C91C701C857DF4FE881F981C8587E
:103F2000D0400995D7011496ED90FC9076CFE090A3
:103F3000C102F090C20261E08E2D0E94CF0D0E945E
:103F40006A0E9FEFE91AF90AF092C202E092C102EA
:103F5000ADE1EA16F1042CF01092E2021092E102B7
:103F6000F6CEF7FE03C0BFEFEB1AFB0AA70155958B
:103F70004795410F511D052E000C660B770B62C053
:103F8000E090C102F090C20261E08E2D0E94CF0D40
:103F90000E946A0EEFEFEE1AFE0AF092C202E09261
:103FA000C102812F90E00E151F045CF424E030E084
:103FB0003093E2022093E10233E0139FA001112429
:103FC000DACFF7FE03C0AFEFEA1AFA0AA701559558
:103FD0004795480F591FCFCFE090C102F090C20221
:103FE00060E08E2D0E94CF0D0E946A0EB1E0EB1AA8
:103FF000F108F092C202E092C102110F110FF7FE18
:104000001DC00E94160FA8CFE090C102F090C2021E
:1040100060E08E2D0E94CF0D0E946A0EE1E0EE1A44
:10402000F108F092C202E092C102F7FE07C00E94BE
:10403000160FF3E01F9FA00111249DCF412F50E0E8
:1040400070E060E08EEA96E00E949D0680CE22E05D
:10405000C21AD10832E0C316D10448F00E94160FEC
:1040600083E0E816F10499F58DE08093C002009199
:10407000C00201112FC0A2E0B0E0B093E202A09311
:10408000E10261E080E00E94CF0D61E08BE10E94DF
:10409000CF0DB2E0EB16F10441F460E081E00E9444
:1040A000CF0D60E08AE10E94CF0D0E946A0E8091E0
:1040B000E1029091E202039709F442C00F5F00937E
:1040C000C0024091C002410F5527551F54CF109296
:1040D000C002CDCF0D3099F43092E2022092E1027D
:1040E00061E08DE00E94CF0D61E08EE00E94CF0D77
:1040F00060E08CE00E94CF0D60E08FE0D4CF61E003
:10410000802F0E94CF0D61E08BE1801B0E94CF0DBC
:1041100060E08FEF800F0E94CF0D60E08CE1801B8C
:104120000E94CF0DE2E0EE16F10409F0BECF60E090
:1041300081E0800F0E94CF0D60E08AE1801BB3CF49
:104140000150BDCF0091CB021091CC020115110599
:1041500099F08A149B0481F0F501619171915F01DE
:10416000D801ED91FC910684F785E02DC8010995F1
:10417000F80104811581EACF8091C9029091CA02A9
:104180008C010F5F1F4F1093CA020093C902499719
:10419000B4F10E946002C090C502D090C602E090C7
:1041A000C702F090C8029B01AC012C193D094E09D1
:1041B0005F0921F421E030E040E050E088EE93E038
:1041C000089FB001099F700D189F700D1124072ED4
:1041D000000C880B990B0E944F2230930707209305
:1041E00006071092CA021092C9020E9460026093F0
:1041F000C5027093C6028093C7029093C80243E041
:1042000050E060E070E08BEF96E00E949D0645C9AB
:10421000CF938091A702882341F0C0E061E08C2F0A
:104220000E94CF0DCF5FCC31C9F78BE190E0909326
:10423000C2028093C10284E090E09093E2028093F6
:10424000E102CF91089580913C0690913D06009740
:1042500011F00C94E1230895E89409C097FB3EF413
:1042600090958095709561957F4F8F4F9F4F9923C3
:10427000A9F0F92F96E9BB279395F6958795779541
:104280006795B795F111F8CFFAF4BB0F11F460FF01
:104290001BC06F5F7F4F8F4F9F4F16C0882311F059
:1042A00096E911C0772321F09EE8872F762F05C06D
:1042B000662371F096E8862F70E060E02AF09A9508
:1042C000660F771F881FDAF7880F9695879597F9FD
:1042D000089597F99F6780E870E060E008959FEF88
:1042E00080EC089500240A9416161706180609068D
:1042F000089500240A94121613061406050608955C
:10430000092E0394000C11F4882352F0BB0F40F4E3
:10431000BF2B11F460FF04C06F5F7F4F8F4F9F4F23
:10432000089557FD9058440F551F59F05F3F71F0A5
:104330004795880F97FB991F61F09F3F79F087950C
:104340000895121613061406551FF2CF4695F1DF95
:1043500008C0161617061806991FF1CF8695710525
:10436000610508940895E894BB2766277727CB0159
:1043700097F908950E94FC21A59F900DB49F900D80
:10438000A49F800D911D112408952F923F924F926A
:104390005F926F927F928F929F92AF92BF92CF92D5
:1043A000DF92EF92FF920F931F93CF93DF93CDB7DE
:1043B000DEB7CA1BDB0B0FB6F894DEBF0FBECDBF56
:1043C00009942A88398848885F846E847D848C8427
:1043D0009B84AA84B984C884DF80EE80FD800C8130
:1043E0001B81AA81B981CE0FD11D0FB6F894DEBF13
:1043F0000FBECDBFED010895A29FB001B39FC001D4
:10440000A39F700D811D1124911DB29F700D811D00
:104410001124911D0895DB018F939F930E94BA216F
:10442000BF91AF91A29F800D911DA39F900DB29F50
:10443000900D11240895991B79E004C0991F9617D7
:1044400008F0961B881F7A95C9F780950895AA1BD6
:10445000BB1B51E107C0AA1FBB1FA617B70710F06F
:10446000A61BB70B881F991F5A95A9F780959095A1
:10447000BC01CD01089597FB072E16F4009407D0D8
:1044800077FD09D00E94272207FC05D03EF49095C5
:1044900081959F4F0895709561957F4F0895A1E292
:1044A0001A2EAA1BBB1BFD010DC0AA1FBB1FEE1FAE
:1044B000FF1FA217B307E407F50720F0A21BB30BF9
:1044C000E40BF50B661F771F881F991F1A9469F775
:1044D00060957095809590959B01AC01BD01CF01D1
:1044E0000895052E97FB1EF400940E94882257FD24
:1044F00007D00E944F2207FC03D04EF40C94882270
:1045000050954095309521953F4F4F4F5F4F0895FF
:1045100090958095709561957F4F8F4F9F4F08952F
:10452000EE0FFF1F0590F491E02D09940E94FC21ED
:10453000B7FF0895821B930B08950E94B1220C943B
:1045400080210E94792158F00E94722140F029F4C4
:104550005F3F29F00C94692151110C94B4210C9403
:104560006F210E94912168F39923B1F3552391F3B0
:10457000951B550BBB27AA2762177307840738F0D2
:104580009F5F5F4F220F331F441FAA1FA9F335D02F
:104590000E2E3AF0E0E832D091505040E695001CE3
:1045A000CAF72BD0FE2F29D0660F771F881FBB1F9D
:1045B000261737074807AB07B0E809F0BB0B802D7B
:1045C000BF01FF2793585F4F3AF09E3F510578F0A7
:1045D0000C9469210C94B4215F3FE4F3983ED4F32A
:1045E000869577956795B795F7959F5FC9F7880F7B
:1045F000911D9695879597F90895E1E0660F771FCD
:10460000881FBB1F621773078407BA0720F0621B5D
:10461000730B840BBA0BEE1F88F7E09508950E9488
:1046200016236894B1110C94B42108950E94992125
:1046300088F09F5798F0B92F9927B751B0F0E1F063
:10464000660F771F881F991F1AF0BA95C9F714C013
:10465000B13091F00E94B321B1E008950C94B321E0
:10466000672F782F8827B85F39F0B93FCCF386954C
:1046700077956795B395D9F73EF4909580957095A9
:1046800061957F4F8F4F9F4F08950F931F93CF9347
:10469000DF938230910510F482E090E0E0911407FE
:1046A000F091150730E020E0B0E0A0E0309799F4F9
:1046B0002115310509F44AC0281B390B2430310576
:1046C000D8F58A819B816115710589F1FB0193837E
:1046D0008283FE0111C040815181028113814817FC
:1046E0005907E0F04817590799F4109761F01296AE
:1046F0000C93129713961C933296CF01DF91CF91B2
:104700001F910F9108950093140710931507F4CF8C
:104710002115310551F04217530738F0A901DB018B
:104720009A01BD01DF01F801C1CFEF01F9CF9093EC
:10473000150780931407CDCFFE01E20FF31F81937D
:1047400091932250310939832883D7CF20911207C2
:1047500030911307232B41F42091190130911A0154
:1047600030931307209312072091170130911801FD
:104770002115310541F42DB73EB740911B015091F1
:104780001C01241B350BE0911207F0911307E2176F
:10479000F307A0F42E1B3F0B2817390778F0AC0164
:1047A0004E5F5F4F2417350748F04E0F5F1F509341
:1047B000130740931207819391939FCFF0E0E0E0BD
:1047C0009CCFCF93DF930097E9F0FC0132971382DF
:1047D0001282A0911407B0911507ED0130E020E09E
:1047E0001097A1F420813181820F931F209112072D
:1047F000309113072817390709F061C0F0931307A8
:10480000E0931207DF91CF910895EA01CE17DF07F9
:10481000E8F54A815B819E0141155105B1F7E90137
:10482000FB83EA8349915991C40FD51FEC17FD070B
:1048300061F4808191810296840F951FE90199832B
:104840008883828193819B838A83F0E0E0E01296E3
:104850008D919C9113970097B9F52D913C911197EB
:10486000CD010296820F931F2091120730911307FA
:104870002817390739F6309751F51092150710921D
:104880001407B0931307A0931207BCCFD383C2833E
:1048900040815181840F951FC817D90761F44E5F7D
:1048A0005F4F88819981480F591F518340838A81C6
:1048B0009B81938382832115310509F0B0CFF0935A
:1048C0001507E09314079ECFFD01DC01C0CF1382D2
:1048D0001282D7CFB0E0A0E0E0E7F4E20C94C72169
:1048E0008C01009751F4CB010E9445238C01C80133
:1048F000CDB7DEB7E0E10C94E321FC01E60FF71F32
:104900009C0122503109E217F30708F49DC0D90138
:10491000CD91DC911197C617D70798F0C530D10516
:1049200030F3CE0104978617970708F3C61BD70B01
:104930002297C193D1936D937C93CF010E94E12381
:10494000D6CF5B01AC1ABD0A4C018C0E9D1EA09106
:104950001407B0911507512C412CF12CE12C109724
:1049600031F580911207909113078815990509F088
:104970005CC04616570608F058C080911701909108
:104980001801009741F48DB79EB740911B015091DB
:104990001C01841B950BE817F90708F055C0F0932C
:1049A0001307E0931207F90171836083A0CF8D9103
:1049B0009C91119712966C90129713967C90139776
:1049C000A815B90559F56C0142E0C40ED11CCA14F2
:1049D000DB0420F1AC014A195B09DA011296159744
:1049E00080F06282738251834083D9016D937C93FE
:1049F000E114F10471F0D7011396FC93EE93129732
:104A000076CF22968C0F9D1FF90191838083F3014D
:104A1000EFCFF0931507E093140769CF48165906B6
:104A200008F42C017D01D3019ACFCB010E944523CC
:104A30007C01009749F0AE01B8010E942C25C80105
:104A40000E94E123870153CF10E000E050CF81E0C6
:104A500090E0F8940C943C25FB01DC0102C001902D
:104A60000D9241505040D8F70895FB01DC010190B0
:104A70000D920020E1F7089510E0C9E7D0E004C0EE
:104A8000FE010E9490222196CA37D107C9F7F894F7
:024A9000FFCF56
:104A9200FFA302A3021C01000102FEFFFFFFFFFFB2
:104AA200FF0A000A000A000000160780000010201A
:104AB2003001112131021222320313233304142450
:104AC20034051525350616263600000000E313E3EB
:104AD20013E313150E360EBD0B400E3D0E3A0E00BB
:104AE2000000001E0CC20BC00B150E360EBD0B4093
:104AF2000E3D0EA0025E09000000007003D002FD10
:104B020002BD032E030C03200300000000810554A4
:104B120005C2052A054D053A052B050D0A00455229
:104B2200524F523A205354414C45205041434B4539
:104B320054004552524F523A205041594C4F414431
:104B42005F4552524F52004552524F523A20435201
:104B5200435F4552524F52004552524F523A2053F0
:104B6200544F505F425954455F4552524F5200458F
:104B720052524F523A20556E646566696E656420E2
:084B82007374617465200000EA
:00000001FF
