:100000000C9402020C9433020C9433020C943302CD
:100010000C9433020C9433020C9433020C9433028C
:100020000C9433020C9433020C9433020C9433027C
:100030000C9433020C9433020C9433020C9433026C
:100040000C9433020C9433020C9433020C9433025C
:100050000C9433020C9433020C9433020C94E22679
:100060000C9433020C94B6270C948C270C94330216
:100070000C9433020C9433020C9433020C9433022C
:100080000C9433020C9433020C9433020C9433021C
:100090000C9433020C9433020C9433020C94EC272E
:1000A0000C9433020C9433020C9433020C943302FC
:1000B0000C9433020C9433020C9433020C943302EC
:1000C0000C9433020C9433020C9433020C943302DC
:1000D0000C9433020C9433020C9456270C942C2766
:1000E0000C9433020C9472070C9490250C944D19C7
:1000F0000C945E070C94B4190C9496090C941E068B
:100100000C94DF050C948E040C94FE050C94BD1A1F
:100110000C941D070C94EA060C94F9060C944A07FB
:100120000C9431070C94A0040C940B0C0C94DF1964
:100130000C9473040C945A090C94EF060C94D82672
:100140000C941A060C9455090C948E250C941507E2
:100150000C9468040C94AA090C9468070C94A804E5
:100160000C94FA090C948A040C94470A0C946C13AE
:100170000C9456250C94E2060C9457090C94380CF8
:100180000C949C190C9471190C94E5110C947C0737
:100190000C94B4040C94B0040C94E20B0C94490934
:1001A0000C943B070C941F260C9454070C941906CE
:1001B0000C94790C0C9492040C94AC040C941029BB
:1001C0000C94E2110C94A4040C9429140C94820451
:1001D0000C9402060C94D9050C9443120C9414064A
:1001E0000C947E040C9410060C94EB050C94EE0514
:1001F0000C9487090C94E7110C9403070C94771A5C
:100200000C9456090C946C040C94FC250C94232635
:100210000C940C060C949E040C94E10B0C948E32FE
:100220000C9444190C94F8050C944F090C94F405A3
:100230000C949C1F0C948A250C9435020C94B809DC
:100240000C9427070C9496040C9406060C94212613
:100250000C9477040C9429150C9486040C94F10BDF
:100260000C947A040C94E0130C949A040C94830F6D
:100270000C94E3050C942C150C94E7050C948C2538
:100280000C944A040C94040C0C94D9250C942F154E
:100290000C940D070C9470040C94B8040C94B625BF
:1002A000000000006410B71DC8206E3BAC30D9269A
:1002B0009041DC76F4516B6B5861B24D3C71055046
:1002C0002083B8ED44930FF0E8A3D6D68CB361CB6E
:1002D000B0C2649BD4D2D38678E20AA01CF2BDBD22
:1002E00000002100240027002A002D0030003300E8
:1002F00001010000040107010A010000220025009D
:1003000028002B002E0031003400020100000501FE
:1003100008010B01000020002300260029002C000A
:100320002F0032000001000003010601090105054C
:100330000505070508080808020202020A0A08085B
:100340000404040401010101010101010303030389
:1003500003030303040707070C0C0C0C0C0C0C0C18
:100360000202020206060606060606060B0B0B0B29
:100370000B0B0B0B0102102020080810204010204E
:100380004080020102010804020101020408102059
:100390004080804020100804020180040201804057
:1003A00020100804020108040201010204081020C0
:1003B0004080010204081020408000000A0B02095E
:1003C0000C0D0E08070304010000000000000000EF
:1003D000000000000000000000000000000000001D
:1003E00000000000000012111000000000000000DA
:1003F00000000000000000000000000000000000FD
:1004000010298E3211241FBECFEFD1E2DEBFCDBF47
:1004100000E00CBF13E0A0E0B2E0E6EDF8E600E09B
:100420000BBF02C007900D92A233B107D9F729E0A4
:10043000A2E3B3E001C01D92AD39B207E1F712E0CB
:10044000C1E0D2E000E006C021970109802FFE0143
:100450000E94F232C030D10780E00807A9F70E945D
:10046000492B0C9459340C94000083B7817F83BFCF
:1004700083B7816083BF83B7816083BF889583B76B
:100480008E7F83BF83B78E7F83BF0895CF93DF9323
:1004900000D000D000D0CDB7DEB720EF29832AEA04
:1004A0002A8329E02B8328E02C838D839E836F830E
:1004B000788785E5898780915E0490915F04DC01EF
:1004C000ED91FC910280F381E02D49E050E0BE0106
:1004D0006F5F7F4F199529960FB6F894DEBF0FBE58
:1004E000CDBFDF91CF910895CF93DF9300D000D09F
:1004F0001F921F92CDB7DEB720EF29832AEA2A8305
:1005000028E02B8323E02C836D838E839F8385E5F6
:10051000888780915E0490915F04DC01ED91FC91ED
:100520000280F381E02D48E050E0BE016F5F7F4F15
:10053000199528960FB6F894DEBF0FBECDBFDF9198
:10054000CF910895CF93DF9300D000D000D0CDB7E6
:10055000DEB720EF29832AEA2A8329E02B832DE0C6
:100560002C8321E02D838E839F83688785E589878F
:1005700080915E0490915F04DC01ED91FC9102801A
:10058000F381E02D49E050E0BE016F5F7F4F199588
:1005900029960FB6F894DEBF0FBECDBFDF91CF9185
:1005A0000895DF92EF92FF920F931F93CF93DF9303
:1005B0001092B604FF24F394F3E0EF2EA2E0DA2EBB
:1005C000CFEFDFEF01E914E080915E0490915F04CA
:1005D000DC01ED91FC910084F185E02D1995181650
:1005E00019060CF0D5C080915E0490915F04DC0187
:1005F000ED91FC910284F385E02D19959091B4045E
:1006000091111CC0803F09F040C0F092B404809169
:10061000B6048823C9F280917C04843809F46FC041
:10062000E8F5813809F494C0823809F49DC010922D
:10063000B4041092B5041092B604C6CF913041F4C0
:100640008A3A19F4D092B404E2CF1092B404DFCF06
:10065000923041F48132C8F7E092B4048150809323
:10066000B504D5CF2091B504921778F4803F69F393
:100670008A3A59F3853549F3E92FF0E0E25AFB4F06
:10068000838F9F5F9093B404C2CF2091B5049213DF
:10069000DCCF8535D1F6F092B604B9CF8538B1F00C
:1006A000863829F680917D048093B30480917F047D
:1006B00090E0982F882720917E04820F911D9093BF
:1006C000B2048093B104F092B904B1CF80917E045A
:1006D00090E0982F882720917D04820F911D9093A0
:1006E000BB048093BA0480917F04811105C01092ED
:1006F000BC041092BD049BCFF092BC04FACF809151
:100700007F048E3008F093CF20917E04422F50E07A
:10071000542F442720917D0430E02F5F3F4F240F5A
:10072000351F90E0409180040196880F991FFC01CD
:10073000E25AFB4F411109C0808191812817390786
:1007400009F075CFD183C08372CF318320836FCFFF
:10075000EDE7F4E08191868F0E171F07D9F710920D
:10076000B004F092B70463CF80917D048093B3040A
:1007700080917F0490E0982F882720917E04820F3B
:10078000911D9093B2048093B104F092B8044FCFBE
:10079000DF91CF911F910F91FF90EF90DF9008951F
:1007A000CF93DF9300D000D01F92CDB7DEB720EFFC
:1007B00029832AEA2A8327E02B8325E02C838D8353
:1007C0009E8385E58F8380915E0490915F04DC01B8
:1007D000ED91FC910280F381E02D47E050E0BE01F5
:1007E0006F5F7F4F199527960FB6F894DEBF0FBE47
:1007F000CDBFDF91CF910895FC0187A590A9892BEA
:10080000D9F410927D0686E796E090AB87A7809199
:10081000760690917706892B81F4F0937706E09322
:10082000760614A613A616A615A6F0937906E093ED
:10083000780681E080937D060895A0917806B091B6
:100840007906B4A7A3A79E96FC93EE939D97EBCF52
:10085000982F8731F8F4E82FF0E08827ED5CFB4F04
:100860008F4F0C94F232B8044A0468046C0470048C
:10087000730477047A047E04820486048A048E0456
:10088000920496049A049E04A004A404A804AC0450
:10089000B004B4043FEF20E094E6492F440F440F26
:1008A000440F85E5642F689F060E60E0611D1124EA
:1008B000E92FE074592F507297FDAFC0E1119AC033
:1008C000511159C0862F8095762F682F80E057C030
:1008D0003FEF2BE996E1E1CF3FEF2FEF94EFDDCF34
:1008E0003FEF20E8FBCF3FEF2FEF90E0D6CF3FEF79
:1008F00020ECFBCF3FEF2FEF95E0CFCF3FEF2FEF77
:100900009AE0CBCF3FEF2FEF9FE0C7CF3FEF2FEF26
:1009100094E1C3CF3FEF2FEF90E2BFCF3FEF20E84E
:100920009BE2BBCF3FEF2FEF90E4B7CF3FEF2FEF2E
:1009300090E5B3CF3FEF2FEF90E6AFCF30E8FBCF9E
:100940003FEF28E790E7A9CF3FEF2FEF90E8A5CF43
:100950003FEF2FEF91E9A1CF3FEF2FEF90EA9DCF2F
:1009600030E728EC9AEA99CF3FEF2FEF94EB95CF41
:10097000392F292F92CF75E5760F80E06BEA2F3F54
:10098000F1F0222309F468C0209590E0222329F099
:10099000229F912D112421119F5F292F2095629F65
:1009A000060E60E0611D729F070E70E0711D829F50
:1009B000080E80E0811D1124690F790F890F3F3FD8
:1009C00009F451C090E0332321F0339F912D09F0B9
:1009D0009F5F992309F444C0699F060E60E0611D82
:1009E000799F070E70E0711D899F080E80E0811DC0
:1009F0001124089551110BC09AEA499F040E40E05A
:100A0000411D11248BEA841B7AEA760F5ECF80E0C9
:100A1000762F7095862F60E0B2CFE11111C0511191
:100A20000BC0842F9AEA899F080E80E0811D112453
:100A30007BEA781B8B5AEFCF862F809570E09FCF93
:100A4000511106C095E5960F8BEA861B692FF6CFEC
:100A50009AEA960F40E0F9CF8FEF7FEF6FEFAFCFBD
:100A600080E070E060E0089587FF2FC01092A50736
:100A70001092A4078091A707882331F18091A607DF
:100A8000E091A407F091A507EE53F94F662361F1B9
:100A9000882341F1848D87FD17C0E82FE695E69500
:100AA000E695F0E0EA57F84F282F277081E090E0B4
:100AB000A0E0B0E004C0880F991FAA1FBB1F2A95B1
:100AC000D2F72081822B808308958C313CF08BE11A
:100AD00090E09093A5078093A407CCCF082E000C3C
:100AE000990BF7CF8081D7CF8823D1F0248D27FDB4
:100AF000EBCFE22FE695E695E695F0E0EA57F84F62
:100B0000277081E090E0A0E0B0E004C0880F991F5A
:100B1000AA1FBB1F2A95D2F7809590818923D3CF36
:100B20002081E5CFCF93DF9300D01F921F92CDB7E6
:100B3000DEB780EF89838AEA8A8385E08B8381E14F
:100B40008C8385E58D8380915E0490915F04DC0148
:100B5000ED91FC910280F381E02D45E050E0BE0173
:100B60006F5F7F4F19950F900F900F900F900F9020
:100B7000DF91CF9108958150823108F05AC0E82F5B
:100B8000F0E08827E953FA4F8F4F0C94F232E705D3
:100B9000EB05D905DF05E3051906EE05F405F805B3
:100BA000FE05020606060C061006190614061A06AD
:100BB0001E06809180008F77809380000895809139
:100BC00080008F7DF9CF80918000877FF5CF84B53D
:100BD0008F7784BD089584B58F7DFBCF8091B00061
:100BE0008F778093B00008958091B0008F7DF9CF0A
:100BF000809190008F77809390000895809190006D
:100C00008F7DF9CF80919000877FF5CF8091A000F4
:100C10008F778093A00008958091A0008F7DF9CFF9
:100C20008091A000877FF5CF809120018F778093FE
:100C300020010895809120018F7DF9CF80912001BE
:100C4000877FF5CFCF93DF93282F30E0F901E6546B
:100C5000FC4F8491F901EC58FC4FD491F901E25D0D
:100C6000FC4FC491CC23A1F081110E94BB05EC2F55
:100C7000F0E0EE0FFF1FEC5EFC4FA591B491EC91FC
:100C8000ED2381E090E009F480E0DF91CF910895B9
:100C900080E090E0FACF1F93CF93DF93282F30E0CE
:100CA000F901E654FC4F8491F901EC58FC4FD491C2
:100CB000F901E25DFC4FC491CC23A9F0162F8111FC
:100CC0000E94BB05EC2FF0E0EE0FFF1FE650FD4F3A
:100CD000A591B4918FB7F894EC91111108C0D095FB
:100CE000DE23DC938FBFDF91CF911F910895DE2B20
:100CF000F8CFCF93DF9390E0FC01EC58FC4F2491A8
:100D0000825D9C4FFC0184918823D1F090E0880F94
:100D1000991FFC01E052FD4FA591B491FC01E650F2
:100D2000FD4FC591D491623071F49FB7F8943C9116
:100D3000822F809583238C93E8812E2B28839FBF5D
:100D4000DF91CF9108958FB7F894EC912E2B2C93CF
:100D50008FBFF6CF1F93CF93DF93182FEB0161E086
:100D60000E947906209739F460E0812FDF91CF91BE
:100D70001F910C944B06CF3FD10511F461E0F5CFE4
:100D8000E12FF0E0E654FC4FE491E150E23108F04D
:100D9000B3C0F0E08827E053F94F8F4F0C94F23244
:100DA000E206EA06EF06F90603077C070D071507BA
:100DB0001D07270731073B074A0754077C075E07D3
:100DC0006807720784B5806884BDC7BDDF91CF9185
:100DD0001F91089584B5806284BDC8BDF7CF80910E
:100DE0008000806880938000D0938900C093880041
:100DF000EDCF80918000806280938000D0938B0043
:100E0000C0938A00E3CF8091800088608093800047
:100E1000D0938D00C0938C00D9CF8091B0008068B2
:100E20008093B000C093B300D1CF8091B0008062B6
:100E30008093B000C093B400C9CF809190008068C7
:100E400080939000D0939900C0939800BFCF809179
:100E50009000806280939000D0939B00C0939A0092
:100E6000B5CF80919000886080939000D0939D00D2
:100E7000C0939C00ABCF8091A00080688093A000BD
:100E80008091A0008F7B8093A000D093A900C09395
:100E9000A8009CCF8091A00080628093A000D09396
:100EA000AB00C093AA0092CF8091A000886080938D
:100EB000A000D093AD00C093AC0088CF80912001FA
:100EC000806880932001D0932901C09328017ECFB0
:100ED00080912001806280932001D0932B01C093E8
:100EE0002A0174CF80912001886080932001D093E3
:100EF0002D01C0932C016ACFC038D1050CF03ECF34
:100F000033CF3FB7F89480910A0490910B04A091DD
:100F10000C04B0910D0426B5A89B05C02F3F19F015
:100F20000196A11DB11D3FBFBA2FA92F982F882769
:100F3000BC01CD01620F711D811D911D42E0660F44
:100F4000771F881F991F4A95D1F708958F929F9216
:100F5000AF92BF92CF92DF92EF92FF924B015C0172
:100F60000E9481076B017C010E9481076C197D0939
:100F70008E099F09683E734081059105A8F321E021
:100F8000821A9108A108B10888EEC80E83E0D81E25
:100F9000E11CF11C81149104A104B10429F7FF9014
:100FA000EF90DF90CF90BF90AF909F908F9008957B
:100FB0002FB7F8946091060470910704809108049B
:100FC000909109042FBF08952F923F924F925F9204
:100FD0006F927F928F929F92AF92BF92CF92DF9249
:100FE000EF92FF920F931F93CF93DF93CDB7DEB7AE
:100FF000C558D1090FB6F894DEBF0FBECDBFB09073
:101000008C0980918F0990919009A0919109B091DC
:101010009209892B8A2B8B2BD9F00E948107009192
:10102000C6041091C7042091C8043091C904601B04
:10103000710B820B930B00918F09109190092091F5
:101040009109309192096017710782079307C8F2DE
:101050000E9481076093C6047093C7048093C804FC
:101060009093C904E0919709F0919809309759F04D
:101070004091930950919409609195097091960956
:101080008B2D1995B82EFE01319680E8DF011D9257
:101090008A95E9F7E090C404F090C5044F016E0111
:1010A000B1E8CB0ED11C1F014B2C512C712C612CA3
:1010B000E114F10409F476C02C143D0409F472C063
:1010C000D701ED91FC910484F585E02DC7011995B8
:1010D000F101819391931F0180918D0990918E0967
:1010E0008436910518F4D7011C961C92D701ED9116
:1010F000FC9182819381CC57DF4F99838883C458B8
:10110000D040D6011C9211961C92119712961C92F7
:10111000BB2079F187010A5F1F4FF0E0E0E0D801C2
:101120002D918D01222309F11296AC90AA20E9F0AD
:1011300030E050E040E02F5F3F4F4F4F5F4FC30123
:10114000B2010E94AC329B01AC018A2D90E0B0E06C
:10115000A0E0BC01CD016F5F7F4F8F4F9F4F0E947A
:10116000AC32D601AE0FBF1F8C933196E330F10540
:10117000B1F6F601008111812281D7011D964D91B2
:101180005C911E9712966D917C91C701CC57DF4FF1
:10119000E881F981C458D0401995D7011496ED9093
:1011A000FC9086CF0091C4041091C504011511056F
:1011B00099F08C149D0481F0F401619171914F01BB
:1011C000D801ED91FC910684F785E02DC8011995B1
:1011D000F80104811581EACF8091C2049091C30483
:1011E0008C010F5F1F4F1093C3040093C2044997F3
:1011F000B4F10E94D807C090BE04D090BF04E09024
:10120000C004F090C1049B01AC012C193D094E09AA
:101210005F0921F421E030E040E050E088EE93E007
:10122000089FB001099F700D189F700D1124072EA3
:10123000000C880B990B0E94D03230938E092093BA
:101240008D091092C3041092C2040E94D8076093C3
:10125000BE047093BF048093C0049093C104CB5725
:10126000DF4F0FB6F894DEBF0FBECDBFDF91CF9139
:101270001F910F91FF90EF90DF90CF90BF90AF90B4
:101280009F908F907F906F905F904F903F902F90A6
:10129000089580913F038F5F80933F03089580916D
:1012A00040038F5F8093400308950895089580E977
:1012B00091E00895AF92BF92CF92DF92EF92FF92AA
:1012C0000F931F93CF93DF936C017B018B01040F6E
:1012D000151FEB015E01AE18BF08C017D10759F00A
:1012E0006991D601ED91FC910190F081E02DC6014C
:1012F0001995892B79F7C501DF91CF911F910F9136
:10130000FF90EF90DF90CF90BF90AF900895FC01D9
:10131000538D448D252F30E0842F90E0821B930B5A
:10132000541710F0CF96089501970895FC01918D00
:10133000828D981761F0A28DAE0FBF2FB11D5D9603
:101340008C91928D9F5F9F73928F90E008958FEFA5
:101350009FEF0895FC01918D828D981731F0828D59
:10136000E80FF11D858D90E008958FEF9FEF0895B0
:10137000FC01918D228D892F90E0805C9F4F821B14
:1013800091098F73992708958AEC94E00E94B80917
:1013900021E0892B09F420E0822F089587E695E06B
:1013A0000E94B80921E0892B09F420E0822F0895DA
:1013B000FC01A48DA80FB92FB11DA35ABF4F2C91CA
:1013C000848D90E001968F739927848FA689B789C1
:1013D0002C93A089B1898C91837080648C93938DB8
:1013E000848D981306C00288F389E02D80818F7D5B
:1013F00080830895EF92FF920F931F93CF93DF9313
:10140000EC0181E0888F9B8D8C8D98131AC0E88940
:10141000F989808185FF15C09FB7F894EE89FF890F
:101420006083E889F98980818370806480839FBFAD
:1014300081E090E0DF91CF911F910F91FF90EF90AD
:101440000895F62E0B8D10E00F5F1F4F0F731127BD
:10145000E02E8C8D8E110CC00FB607FCFACFE889F8
:10146000F989808185FFF5CFCE010E94D809F1CF9F
:10147000EB8DEC0FFD2FF11DE35AFF4FF0829FB76C
:10148000F8940B8FEA89FB8980818062CFCFCF935C
:10149000DF93EC01888D8823B9F0AA89BB89E8899C
:1014A000F9898C9185FD03C0808186FD0DC00FB642
:1014B00007FCF7CF8C9185FFF2CF808185FFEDCFC0
:1014C000CE010E94D809E9CFDF91CF91089580E045
:1014D00090E0892B29F00E94CE0981110E94000022
:1014E00080E090E0892B49F080E090E0892B29F0A2
:1014F0000E94000081110E94000080E090E0892B92
:1015000049F080E090E0892B29F00E9400008111D1
:101510000E94000080E090E0892B29F00E94C4091D
:1015200081110C940000089520918503260F332724
:10153000331F21323105ECF420913404FC0190E09A
:1015400080E0243069F082E00895A0918503219124
:10155000AC014B595C4FA40FB52FB11D2C930196D4
:10156000861798F380918503680F6093850380E068
:10157000089581E008951092340481E0809333044B
:1015800010920E0461E084E10E944B0661E085E167
:101590000E944B06E9EBF0E080818E7F80838081A2
:1015A0008D7F808388E48093B80085E48093BC00BD
:1015B0000895CF93DF9391E0909364038823B9F06B
:1015C000C091B800D091BA008091BC008A7B809312
:1015D000BC0060E084E10E944B0660E085E10E946F
:1015E0004B060E94BB0AD093BA00C093B800DF91AB
:1015F000CF910895CF92DF92EF92FF920F931F93B6
:10160000CF93DF93D0915D0481E0D13208F09CC08C
:10161000C0915C040E9481076B017C0180913404BD
:1016200081116CC082E08093340481E080933304A4
:101630008FEF8093320410923104D0933004ACE3E6
:10164000B4E0E0E1F4E080E0D8138DC010920F0424
:1016500080910F04CC0FC82BC0930F0480910E040F
:10166000813009F084C010920E040E9481076B0142
:101670007C0180910F048093BB008091360490918F
:101680003704A0913804B0913904892B8A2B8B2B15
:10169000A1F00E9481070091360410913704209137
:1016A0003804309139046C197D098E099F09061799
:1016B00017072807390708F442C08091BC0083FD52
:1016C000D8CF85EC8093BC000E9481076B017C0120
:1016D00080913404823009F44CC0809132048F3FF1
:1016E00009F469C080913204803209F466C08091A7
:1016F0003204803309F463C084E026C0809136044C
:1017000090913704A0913804B0913904892B8A2B29
:101710008B2B09F483CF0E9481070091360410912E
:10172000370420913804309139046C197D098E09F1
:101730009F09061717072807390708F06FCF809110
:1017400035040E94D90A85E010923B0410925D0492
:1017500010923A04DF91CF911F910F91FF90EF907B
:10176000DF90CF9008959D9191938F5F6DCF85EE1F
:10177000A9CF8091360490913704A0913804B0919C
:101780003904892B8A2B8B2B09F4A2CF0E94810765
:1017900000913604109137042091380430913904B7
:1017A0006C197D098E099F09061717072807390745
:1017B00008F08ECFC4CF80E0C7CF82E0C5CF83E0F2
:1017C000C3CF0895E091CC038091CB03E81730F4A8
:1017D000F0E0EC5BFC4F808190E008958FEF9FEF8D
:1017E00008959091CC038091CB032FEF3FEF981792
:1017F00048F4E92FF0E0EC5BFC4F208130E09F5F84
:101800009093CC03C90108958091CB039091CC03B0
:10181000891B990B0895CF92DF92EF92FF920F935D
:101820001F93CF93DF937C01CB018A0120913A046F
:10183000222389F0EB016B01C40ED51ECC15DD050A
:1018400069F06991D701ED91FC910190F081E02D53
:10185000C7011995F3CF642F0E94940AC801DF9144
:10186000CF911F910F91FF90EF90DF90CF9008954F
:10187000CF93DF931F92CDB7DEB7698320913A04EF
:101880002223F9F020915D04203258F021E030E06D
:10189000FC013383228390E080E00F90DF91CF91B1
:1018A000089580913B04E82FF0E0E45CFB4F9981C0
:1018B00090838F5F80933B0480935D0481E090E090
:1018C000ECCF61E0CE0101960E94940AF7CF90918F
:1018D0009C0721E020933A0490935C0410923B040F
:1018E00010925D04682F84E096E00E94380C0C94FE
:1018F000FA0A90E080E008958F929F92AF92BF9293
:10190000CF92DF92EF92FF920F931F93CF93DF93CB
:10191000FC012085211110C060E070E0CB01DF9157
:10192000CF911F910F91FF90EF90DF90CF90BF90DC
:10193000AF909F908F900895EC010E94D807298561
:101940002111EACF8C809D80AE80BF8008811981F3
:101950002A813B816B017C01C818D908EA08FB0881
:10196000C016D106E206F306B8F6080D191D2A1DA9
:101970003B1D68017901C61AD70AE80AF90AC701AE
:10198000B601CDCFCF92DF92EF92FF921F93CF930C
:10199000DF93FC01108511110AC010E0812FDF9147
:1019A000CF911F91FF90EF90DF90CF900895EC01C1
:1019B0008185882319F018861986F0CF0E94D807F0
:1019C000CC80DD80EE80FF806C197D098E099F0937
:1019D000C880D980EA80FB806C157D058E059F0547
:1019E00050F7DBCFCF93DF93EC01488359836A83B1
:1019F0007B830E94D8076C837D838E839F8381E0E5
:101A000088871986DF91CF910895FC011086148292
:101A10001582168217821186108211821282138219
:101A20000895FC0183A5882329F081E022A595A1D2
:101A3000291380E00895CF92DF92EF92FF920F93E7
:101A40001F93CF93DF93EC018CA10E94220621E02B
:101A5000892B09F420E02EA30E94D80768A379A35C
:101A60008AA39BA3EEA12FA1E2132DC191E098A719
:101A700098A59923F1F048A159A16AA17BA10889F1
:101A800019892A893B89DB01CA01801B910BA20BB2
:101A9000B30B8C019D01C880D980EA80FB80C01601
:101AA000D106E206F30628F4E9A7488B598B6A8B26
:101AB0007B8BEFA31BA629A58AA52817C1F088A1B7
:101AC00099A1AAA1BBA14C895D896E897F89841BDC
:101AD000950BA60BB70B4C815D816E817F814817FA
:101AE00059076A077B0718F42AA781E08BA71FA66E
:101AF000CE010E94110D8823B9F088A199A1AAA155
:101B0000BBA1488D598D6A8D7B8D841B950BA60BCF
:101B1000B70B4C855D856E857F8584179507A60775
:101B2000B70708F4D6C018AA88A91BA5811131C02F
:101B300011112DC09AA58DA1981741F1C88CD98C8F
:101B4000EA8CFB8C8C8D9D8DAE8DBF8D8C199D0983
:101B5000AE09BF09488559856A857B8548175907AD
:101B60006A077B0708F4B8C048A159A16AA17BA104
:101B70004C195D096E097F0981E0CC84DD84EE8417
:101B8000FF844C155D056E057F0508F480E08FA786
:101B900088ABCE010E94110D8823B9F048A159A14C
:101BA0006AA17BA1888D998DAA8DBB8D481B590B8D
:101BB0006A0B7B0B81E0CC84DD84EE84FF844C15C2
:101BC0005D056E057F0508F080E08EA71CA6112339
:101BD00021F09AA58DA198131DA68DA581111FC076
:101BE00011111BC09AA58DA1981378C048A159A1C5
:101BF0006AA17BA1888D998DAA8DBB8D481B590B3D
:101C00006A0B7B0B81E0C884D984EA84FB84C41608
:101C1000D506E606F70608F080E08CA78DA711230D
:101C200091F0C8A0D9A0EAA0FBA0CC8ADD8AEE8AF8
:101C3000FF8ACE010E94110D882309F451C0C88E7D
:101C4000D98EEA8EFB8EE9A8FAA8E114F10409F412
:101C50004CC0CE010E94110D882309F446C08BAD03
:101C60009CADF7011995EDA9FEA9309741F08CA51F
:101C7000882329F0DE01DF968D919C911995EFA9BB
:101C8000F8AD309749F08EA5882331F0DE01AF5BC7
:101C9000BF4F8D919C911995E9ADFAAD309749F000
:101CA0008FA5882331F0DE01AD5BBF4F8D919C91F4
:101CB00019958BA5DF91CF911F910F91FF90EF9018
:101CC000DF90CF90089518A6688B798B8A8B9B8BB9
:101CD000CFCE81E088AB28CF812F59CF812F9DCFE8
:101CE000CC8EDD8EEE8EFF8EAECFEBA9FCA93097A9
:101CF00009F4B9CF112309F4B6CF9AA58DA198178D
:101D000009F4B1CF8DAD9EADADCFCF93DF93EC0194
:101D1000862F4AE050E060E070E0488359836A8390
:101D20007B8342E350E060E070E04C835D836E8330
:101D30007F834CE251E060E070E0488759876A8712
:101D40007B874AEF50E060E070E04C875D876E87EC
:101D50007F878CA31DA21AAA19AA1CAA1BAA1EAAB5
:101D60001DAA18AE1FAA1AAE19AE1CAE1BAE1EAE2F
:101D70001DAEFE01FF9611821082329611821082F2
:101D800032961182108262E00E9479060E94D80782
:101D90006C8B7D8B8E8B9F8B8CA10E94220621E009
:101DA000892B09F420E02AA781E088ABCE01DF91DE
:101DB000CF910C941B0D0F931F93CF93DF93DC01F6
:101DC000EB014D915D916D917C911397E881E42732
:101DD000EF7084E0E89FF0011124E056FD4F05917B
:101DE00015912591349184E076956795579547959F
:101DF0008A95D1F740275127622773274D935D932A
:101E00006D937C931397E881E295EF70E427EF7070
:101E100084E0E89FF0011124E056FD4F05911591F3
:101E20002591349194E076956795579547959A95C5
:101E3000D1F740275127622773274D935D936D9308
:101E40007C931397DF91CF911F910F9108950F937A
:101E50001F93CF93DF93DC019996ED91FC9130971E
:101E600081F0EC01AFA5B8A914960D911C911597BE
:101E700015969C938E9314971995EFA5F8A9158341
:101E80000483DF91CF911F910F9108950F931F93BA
:101E9000CF93DF93209143032F5F322F377030931E
:101EA000430320FF2BC020E831FD2064347009F08B
:101EB0002062205FFC01EC01239600E011E06485C4
:101EC000662329F070E0C8010E94BC326F5F618711
:101ED000822F869F080E80E0811D1124811110C081
:101EE0001682662311F0615061873196EC17FD0769
:101EF00031F7DF91CF911F910F91089520E0D4CF5A
:101F000081508683EECF4F925F927F928F929F9205
:101F1000AF92BF92CF92DF92EF92FF920F931F93F7
:101F2000CF93DF932C01EB010E948107F2012785FB
:101F30003089621B730B6A307105B0F3F8948A81A3
:101F40009B81181619060CF0CBC1E881F98105B107
:101F5000006175B17F7E75B9BA848F812B2D281BE6
:101F6000822F2F834F85042E000C550BAA81BB8135
:101F7000ED84DC84CE84E394D394C3949E8138852D
:101F800099848B84118120E0F32E622F322F3181CE
:101F9000112788943111380F08F43FEF8195889408
:101FA000E0FC130F17958894E1FC130F17958894A4
:101FB000E2FC130F17958894E3FC130F1795889490
:101FC000E4FC130F17958894E5FC130F179588947C
:101FD000E6FC130F17958894E7FC130F1795889468
:101FE000232FE110212F8B0D122F002C05B900C0DB
:101FF00017FF75B930812227889400C000C0002CDB
:1020000075B93111390F00C0002C05B900C016FF99
:1020100075B908F43FEF9195889400C000C0002C7A
:1020200075B9D0FC230F00C0002C05B900C015FF06
:1020300075B927958894D1FC230F00C000C0002CEF
:1020400075B92795889400C0002C05B900C014FF0D
:1020500075B9D2FC230F2795889400C000C0002CCE
:1020600075B9D3FC230F00C0002C05B900C013FFC5
:1020700075B927958894D4FC230F00C000C0002CAC
:1020800075B92795889400C0002C05B900C012FFCF
:1020900075B9D5FC230F2795889400C000C0002C8B
:1020A00075B9D6FC230F00C0002C05B900C011FF84
:1020B00075B927958894D7FC230F00C000C0002C69
:1020C00075B92795889400C0002C05B900C010FF91
:1020D00075B9132FD110122F990D00C000C0002C1C
:1020E00075B900C000C0002C05B900C017FF75B954
:1020F00032812227889400C000C0002C75B93111AC
:102100003F0D00C0002C05B900C016FF75B908F4DA
:102110003FEFE40FF51F00C000C0002C75B9C0FCF4
:10212000230F00C0002C05B900C015FF75B9279515
:102130008894C1FC230F00C000C0002C75B92795FE
:10214000889400C0002C05B900C014FF75B9C2FC0A
:10215000230F2795889400C000C0002C75B9C3FCDC
:10216000230F00C0002C05B900C013FF75B92795D7
:102170008894C4FC230F00C000C0002C75B92795BB
:10218000889400C0002C05B900C012FF75B9C5FCC9
:10219000230F2795889400C000C0002C75B9C6FC99
:1021A000230F00C0002C05B900C011FF75B9279599
:1021B0008894C7FC230F00C000C0002C75B9279578
:1021C000889400C0002C05B900C010FF75B9132F0A
:1021D000C110122FF19400C000C0002C75B9F80C8A
:1021E00000C000C005B900C017FF75B931812227B2
:1021F000889400C000C0002C75B93111380F00C0A0
:10220000002C05B900C016FF75B908F43FEF8195A1
:10221000889400C000C0002C75B9E0FC230F00C0FA
:10222000002C05B900C015FF75B927958894E1FC0D
:10223000230F00C000C0002C75B92795889400C0FA
:10224000002C05B900C014FF75B9E2FC230F2795D7
:10225000889400C000C0002C75B9E3FC230F00C0B7
:10226000002C05B900C013FF75B927958894E4FCCC
:10227000230F00C000C0002C75B92795889400C0BA
:10228000002C05B900C012FF75B9E5FC230F279596
:10229000889400C000C0002C75B9E6FC230F00C074
:1022A000002C05B900C011FF75B927958894E7FC8B
:1022B000230F00C000C0002C75B92795889400C07A
:1022C000002C05B900C010FF75B9132FE110122FB3
:1022D0008B0D00C000C0002C75B9119709F086CE97
:1022E0004A815B8120EE31E0DA010E94FA32DC01A2
:1022F000CB01F4E0B695A79597958795FA95D1F718
:1023000030E020E0B901EAE94E9F040E611D5E9FB6
:10231000600D711D1124650F711D860F971FA11D82
:10232000B11D893E43E09407A105B10508F434C00E
:10233000885E9340A109B10942E0B695A7959795AB
:1023400087954A95D1F747E0849F080E211D949FF9
:10235000200D311D1124290F311D6091420370E0C1
:10236000860F971F820F931F409106045091070418
:102370006091080470910904292F3327420F531FDD
:10238000611D711D40930604509307046093080477
:10239000709309048093420378940E948107F201AC
:1023A000708B6787DF91CF911F910F91FF90EF9016
:1023B000DF90CF90BF90AF909F908F907F905F9075
:1023C0004F90089581E090E00895249A08956F92C7
:1023D0007F928F92CF92DF92EF92FF920F931F9393
:1023E000CF93DF93CDB7DEB762970FB6F894DEBF19
:1023F0000FBECDBF6C017A013801822EDC011C9624
:102400002C91CA0157FF04C088279927841B950B7C
:102410007A8369839C838B839E838D836D867E867E
:102420008F86213049F5CE0101960E94460F83E048
:10243000888B1A8A198AF7FE02C08DEF888BD60125
:10244000ED91FC910288F389E02DBE016F5F7F4F13
:10245000C601199562960FB6F894DEBF0FBECDBFC8
:10246000DF91CF911F910F91FF90EF90DF90CF9070
:102470008F907F906F9008951C861B861A86198610
:1024800018861F82D4CFEF92FF920F931F93CF93A2
:10249000DF93CDB7DEB762970FB6F894DEBF0FBEFD
:1024A000CDBF7C01DC011C968C917A8369835C83AF
:1024B0004B835E834D830D871E872F878130F9F410
:1024C000CE0101960E94460F188A1A8A198AD701EE
:1024D000ED91FC910288F389E02DBE016F5F7F4F83
:1024E000C701199562960FB6F894DEBF0FBECDBF37
:1024F000DF91CF911F910F91FF90EF9008951C866F
:102500001B861A86198618861F82DECFEDE7F9E052
:10251000108611861092340370E060E08BE00C941A
:10252000AA06CF9390910202992309F18823F9F02A
:10253000C82F80910302882331F18091D1039091BB
:10254000D203039751F48091DC07882399F064EB60
:1025500070E08BE0CF910C94AA068091DC07882371
:1025600031F084ED97E00E94C20C882361F3CF9193
:102570000C94861280913403C81749F0C093340339
:102580006C2F70E0E6CF809134038C13F7CFCF919E
:1025900008950F931F93CF93DF9300D000D0CDB752
:1025A000DEB78FEF9FEFDC0189839A83AB83BC8317
:1025B00010E000E01E830D83BE016B5F7F4FCE01F4
:1025C00001960E94DB0EBE016A5F7F4FCE0101962D
:1025D0000E94DB0E0F5F1F4F0530110559F71E8358
:1025E0000D83BE016B5F7F4FCE0101960E94DB0E13
:1025F000BE016A5F7F4FCE0101960E94DB0E6981AA
:102600007A818B819C8160957095809590952696B6
:102610000FB6F894DEBF0FBECDBFDF91CF911F91F3
:102620000F9108958091AA039091AB03892B91F0AB
:102630008091CD039091CE030197029758F4609159
:102640009706062E000C770B8091A8039091A903A2
:102650000C94460208958091CD039091CE0301978A
:10266000029798F48091AA039091AB03892B59F0BB
:102670008091A8039091A903843F21E0920718F06C
:1026800064E00E9474020E94D102109235031092FD
:10269000370308958091CD039091CE03019702975F
:1026A00048F460919806062E000C770B83E090E0CA
:1026B0000C94460208952091CD033091CE03215011
:1026C00031092230310518F464E00C947402089545
:1026D00083E090E00C945B130F931F93CF93DF93F1
:1026E00000D0CDB7DEB7AB0119821A821B82DC01A4
:1026F000ED91FC910190F081E02D00E010E020E0F0
:10270000BE016F5F7F4F19950F900F900F90DF9173
:10271000CF911F910F9108950F931F93CF93DF9344
:10272000FC01A7A5B0A9109709F448C0EC0111A2BB
:1027300012A213A214A282818B7F828307A0F0A52C
:10274000E02D3097B9F18A8181FD34C014960D9146
:102750001C9115971596DC93CE9314978A8182600D
:102760008A8319959A8180FB90F99A838A818D7F5B
:102770008A83EFA5F8A9158304838B819C81AD81A1
:10278000BE818F839887A987BA870E94D8070F8157
:10279000188529853A85601B710B820B930B6B871B
:1027A0007C878D879E878A818170DF91CF911F9171
:1027B0000F9108958A8181608A83DFCF80E0F5CF11
:1027C000CF93DF93EC018EE293E0998388838A8133
:1027D00080FF0CC09A818A818E7F8A838A818D7F57
:1027E0008A8390FF03C0CE010E94270FEFA5F8A9AE
:1027F000309789F0178218AA1FA6ABA5BCA58DA596
:102800009EA5109799F4009749F4118210821382C3
:10281000128281E08783DF91CF910895DC019C963D
:102820001C921E929B9791838083F3CF009739F47B
:102830009E961C921E929D97B383A283EACF9E968A
:102840009C938E939D970DA4DEA5C02DBCA7ABA72E
:10285000E0CFFC01858596850895FC019081929FCB
:10286000090E90E0911D9083FB018081829F080EEC
:1028700080E0811D8083FA018081829F080E80E0C4
:10288000811D8083112408957F928F929F92AF9231
:10289000BF92CF92DF92EF92FF920F931F93CF934D
:1028A000DF9300D0CDB7DEB7B82E88EB96E00E945C
:1028B000C20C882309F498C02091D5033091D60327
:1028C00044E1429FC001439F900D11249695879546
:1028D000969587954EE150E0481B590B70E060E0FB
:1028E00088EB96E00E94F20C809133038E3F18F43F
:1028F000815F8093330380910102823018F08F5002
:1029000080930102A0900102E0913203F0E0EE0F0B
:10291000FF1FE055FD4FC080D12C87E0C80ED11CB1
:1029200070903303018110E0095F1F4F8091000216
:102930007601EE0CFF1C4801880C991C882309F4D1
:1029400064C08B2D0E94280469837A838B83272D92
:10295000AE014D5F5F4FBE016E5F7F4FCE010196AE
:102960000E942D14F701EC0DFD1DE552FC4F8981ED
:102970009A81AB8180839183A2838B2D0E9428044E
:1029800069837A838B832A2DAE014D5F5F4FBE0131
:102990006E5F7F4FCE0101960E942D14080D191D08
:1029A000F801E552FC4F89819A81AB818083918344
:1029B000A2838FEF781218C080910102811114C098
:1029C0008091000291E089278093000210923303E6
:1029D000709201028091320390E001966CE070E009
:1029E0000E94BC32809332030F900F900F90DF91C2
:1029F000CF911F910F91FF90EF90DF90CF90BF90FC
:102A0000AF909F908F907F9008958B2D0E94280407
:102A100069837A838B832A2DAE014D5F5F4FBE01A0
:102A20006E5F7F4FCE0101960E942D14F701EC0DD1
:102A3000FD1DE552FC4F89819A81AB818083918392
:102A4000A2838B2D0E94280469837A838B83272D90
:102A50009BCF90E080E00895FC0164870895FC011D
:102A6000848590E008950F931F93CF93DF938C019B
:102A700080919C0791E090933A0480935C041092BB
:102A80003B0410925D0460E084E096E00E94380C04
:102A9000E801005F1F4F699184E096E00E94380CC6
:102AA0000C171D07C1F7DF91CF911F910F910C9467
:102AB000FA0A8091A707882321F086E897E00C9412
:102AC000331508958091AA039091AB03892BD9F116
:102AD0008091A8039091A903843F21E0920798F187
:102AE00021E0209337032091CD033091CE03215074
:102AF000310922303105F8F42091360365E02111C7
:102B000001C066E00E94740260919706062E000CD8
:102B1000770B8091A8039091A9030E94460261E07F
:102B20008091A8039091A9030E94A2020E94D10261
:102B300081E08093BD0440E25EE460E070E08AE9F9
:102B400096E00C94F20C08959F92AF92BF92CF92B0
:102B5000DF92EF92FF920F931F93CF93DF93CDB746
:102B6000DEB72C970FB6F894DEBF0FBECDBFF82EA0
:102B7000D92E962EC42E8091CD039091CE03823013
:102B8000910509F045C01416ECF5C12CAC2C0C2CA9
:102B9000000CBB08222309F450C06AEB7FEF8F2D95
:102BA0009D2D0E9446026E2D8F2D9D2D0E94A2020A
:102BB00080EF89838AEA8A838CE08B838AE08C8326
:102BC000FD821E82CF82B88609871A871B8685E51B
:102BD0008C8780915E0490915F04DC01ED91FC9103
:102BE0000280F381E02D4CE050E0BE016F5F7F4F2B
:102BF000199565E0911001C066E08F2D9D2D0E9412
:102C0000740209C08AEB48170CF68AEBC82EBECFB7
:102C1000019709F4BBCF2C960FB6F894DEBF0FBE18
:102C2000CDBFDF91CF911F910F91FF90EF90DF907B
:102C3000CF90BF90AF909F900895B5018F2D9D2D9F
:102C40000E9446026E2D8F2D9D2D0E94A202D1CF93
:102C5000EF920F931F93EE24E39408E813E1282FDB
:102C60004091980661E083E090E00E94A4151F91D6
:102C70000F91EF900895EF920F931F938091990613
:102C80008A3B11F180911D028530C0F510921D0222
:102C900080911D0226E4829FC001112464E670E049
:102CA0000E94BC328AEB860F809399062091CD0357
:102CB0003091CE03215031092230310528F4082EFD
:102CC000000C990B0E94D0038091D3039091D40300
:102CD000892B81F487E090E00E945B13EE24E3945B
:102CE00010E000E020E04091990660E087E090E08D
:102CF0000E94A4151F910F91EF9008958550809325
:102D00001D02C6CFEF920F931F9380911D02803654
:102D1000B8F184E680931D0280911D0226E4829F13
:102D2000C001112464E670E00E94BC3266546093D6
:102D300099068091D3039091D403892B81F487E085
:102D400090E00E945B13EE24E39410E000E020E0AA
:102D50004091990660E087E090E00E94A415809180
:102D6000CD039091CE030197029760F4809199066C
:102D7000082E000C990B1F910F91EF900C94D0032B
:102D80008B5FC8CF1F910F91EF900895EF920F9333
:102D90001F9380911B02853028F510921B0287E05B
:102DA00090E00E945B13409199064A50EE24E39410
:102DB00010E000E020E060E087E090E00E94A415D1
:102DC00080911B0226E4829FC001112464E670E01A
:102DD0000E94BC326654609397061F910F91EF904A
:102DE0000C941213855080931B02EACFEF920F933D
:102DF0001F9380911B02803630F184E680931B0282
:102E000087E090E00E945B13409199064A50EE24BF
:102E1000E39410E000E020E060E087E090E00E94B2
:102E2000A41580911B0226E4829FC001112464E650
:102E300070E00E94BC326654609397061F910F9118
:102E4000EF900C9412138B5F80931B02EACFEF92EA
:102E50000F931F93CF93DF938091D1039091D2036F
:102E60000597B1F48091D9039091DA03019781F429
:102E70008091D7039091D8038330910509F46AC0FB
:102E800068F48130910509F402C1029709F4B5C0D4
:102E9000DF91CF911F910F91EF90089584309105AC
:102EA000D9F10597A9F780913703882389F388E33F
:102EB00099E00E94110D882359F3209136038091E7
:102EC000CD039091CE0301970297E8F48091AA0375
:102ED0009091AB03211111C021E02093360365E0EE
:102EE000892BB1F28091A8039091A903DF91CF9132
:102EF0001F910F91EF900C94740210923603892B5E
:102F000039F266E0EFCF211104C081E080933603EF
:102F1000BFCF10923603BCCF90914E0880914908E4
:102F20009813B6CF80918A0990918B0981309105D1
:102F300039F4DF91CF911F910F91EF900C9482168D
:102F4000019609F0A5CFDF91CF911F910F91EF90DE
:102F50000C943B1690914E0880914908981398CF95
:102F600080918A0990918B098130910579F5809142
:102F70001C02803638F184E680931C0287E090E0E2
:102F80000E945B13EE24E39410E000E020E0409107
:102F9000980660E087E090E00E94A41580911C02F2
:102FA00026E4829FC001112464E670E00E94BC32D6
:102FB000665460939806DF91CF911F910F91EF9027
:102FC0000C944A138B5F80931C02E8CF019609F0A2
:102FD0005FCF80911C02853070F410921C0287E054
:102FE00090E00E945B13EE24E39410E000E020E008
:102FF00040919906CECF8550E6CF80913703882344
:10300000E9F088E399E00E94110D8823B9F0C0919E
:10301000A803D091A9032197C43F81E0D80730F4D9
:10302000C091AA03D091AB03CD50DE4F0E942B1369
:10303000D093A903C093A8030E946215809137031F
:10304000882309F425CF84E298E00E94110D88239B
:1030500009F41ECFC091A803D091A90321968091B5
:10306000AA039091AB038D509E4F8C179D0710F4CF
:10307000C4EFD1E00E942B13D093A903C093A803FF
:10308000DF91CF911F910F91EF900C94621588E31F
:1030900099E00E94110D882331F08091370381114E
:1030A00016C00E94621590914E08809149089813AD
:1030B000EFCE80918A0990918B098130910551F46E
:1030C000DF91CF911F910F91EF900C94F6160E9413
:1030D0002B13E9CF019609F0DBCEDF91CF911F9141
:1030E0000F91EF900C94C616E6E8F7E080E1DF015F
:1030F0001D928A95E9F7CF010C9433158091A707AB
:1031000081110E9474181092A5071092A40782E002
:1031100090E09093B5078093B40708950E947E18BD
:103120001092A5071092A4071092A3071092B0075F
:103130001092B1071092B5071092B4070895FF924C
:103140000F931F93CF93DF93D82F0E948E18109266
:10315000B3071092B20785E090E09093B507809393
:10316000B40702EC16E0C0E0F12CD33061F1A8F412
:10317000D130E1F0D23009F16C2F8F2D0E9434054F
:10318000F3940F5F1F4FFCE1FF12EFCFDF91CF9160
:103190001F910F91FF900C945915D430C9F0D53080
:1031A00059F7C1E0F801E855FF4F0BC0C1E0F80145
:1031B00080AD8111E1CFC0E0DFCFC1E0F801EC5A72
:1031C000FF4F8081F6CFC1E0F801E059FF4FF9CF02
:1031D000C1E0F801E457FF4FF4CFCF93DF93C82F3E
:1031E000811101C0C1E02091B4073091B5078091F1
:1031F000B2079091B30705970397B8F487E090E082
:103200002230310529F02430310531F486E090E098
:103210009093B3078093B2079091D503892F880FBD
:10322000880F890F8D5F8093A107232B99F1D0918F
:10323000A10788EA97E00E947C0C672B682B692B1A
:1032400049F56C2F70E088E090E00E94BC3262305B
:10325000710514F462E070E06D1BCCE1C60FE091E3
:10326000B207F091B3073197E730F10598F488275A
:10327000E35CF64E8F4F0C94F2324D199C19DF1916
:10328000DF194419B419711987E090E09093B307DE
:103290008093B207DF91CF91089561E08091A407F8
:1032A0000E9434050E9459158091A4079091A507AA
:1032B00001969093A5078093A4078C3191052CF07B
:1032C0001092B5071092B407E5CF97FD019695953A
:1032D0008795AC014C0F511D052E000C660B770B2A
:1032E00068C061E08091A4070E9434050E945915CE
:1032F0008091A4079091A50701969093A5078093CC
:10330000A4072C2F30E04091A1074817190609F0B7
:103310005CF484E090E09093B5078093B40723E0D9
:10332000C29FA0011124D8CF97FD0196AC015595FD
:103330004795420F531FD0CF60E08091A4070E94B1
:1033400034050E9459158091A4079091A507019713
:103350009093A5078093A4074C2F440F440F97FF29
:1033600025C00E947E18ACCF60E08091A4070E9427
:1033700034050E9459158091B2079091B3070297C6
:1033800011F4CC0FCC0F8091A4079091A507019761
:103390009093A5078093A4074C2F97FF07C00E9426
:1033A0007E1833E0C39FA001112496CF50E070E057
:1033B00060E088EA97E0DF91CF910C94F20C809165
:1033C000B4079091B5070297029768F00E947E18A3
:1033D0008091B2079091B3070497F1F58091A2070D
:1033E00081508093A3078091A307811138C082E0A8
:1033F00090E09093B5078093B40761E080E00E946D
:10340000340561E08BE10E9434058091B207909110
:10341000B307039751F48091A30760E08F5F0E9488
:10342000340560E08AE10E9434050E9459159091AC
:10343000A3072091B4073091B5072330310509F473
:1034400054C09F5F9093A3079091A307292F2C0F3F
:103450003327331FA90140CF1092A307C4CFD091C7
:10346000A2079FEF9D0F891316C023E030E0309331
:10347000B5072093B40761E00E94340561E08D2F09
:103480000E94340560E08EEF8D0F0E94340560E0ED
:1034900081E08D0FC8CF61E00E9434059091A307B1
:1034A00061E08BE1891B0E9434058091A30760E0F5
:1034B00081500E9434059091A30760E08CE1891B44
:1034C0000E9434058091B2079091B307039709F0E9
:1034D000ACCF8091A30760E08F5F0E94340590918C
:1034E000A30760E08AE1891B9ECF9150ABCFCF93B9
:1034F000DF938091F007882389F18091D503815073
:103500000E94ED188091D3039091D403019789F51F
:10351000C091D503D091D6038091C006811114C00B
:1035200024E12C9FC0012D9F900D11249695879525
:10353000969587954EE150E0481B590B70E060E08E
:1035400088EB96E00E94F20C88E0C330D10579F058
:1035500038F487E0229759F085E009C081E0D0CFA8
:1035600089E0C430D10519F08AE02597A9F70E94B7
:103570004414DF91CF910C94E4070E94543485EDFC
:103580008093BC008091360490913704A091380458
:10359000B09139040796A11DB11D23E0B695A795FA
:1035A000979587952A95D1F72091BC0024FD03C0FB
:1035B000109234040895409136045091370460917C
:1035C000380470913904452B462B472B69F300973B
:1035D000A105B10541F02AE22A95F1F700C0019753
:1035E000A109B109E1CF809135040C94D90AFC01FD
:1035F000628180810C944B060F931F93CF93DF93CE
:103600001092F0071092F10710924103D0E0C0E051
:103610008E01000F111F0C0F1D1F05521C4F80E063
:103620000E942804F8016083718382832196C73049
:10363000D10571F786E092E0DF91CF911F910F9154
:103640000C94F71A0E948E1885E192E00E94F71AF6
:103650008CE092E00E94F71A89E092E00E94F71A4B
:1036600088E192E00E94F71A86E092E00E94F71A41
:1036700082E192E00E94F71A8FE092E00E94F71A2E
:10368000EBEDF3E0108211821282339684E0E53094
:10369000F807C1F78091C807811108C040E65AEECB
:1036A00060E070E080EC97E00C94F20C0895EF92EB
:1036B0000F931F9381E090E09093DA038093D903F6
:1036C00085E090E09093D8038093D703EE24E394B1
:1036D00010E000E020E04091980660E080E190E09A
:1036E0000E94A4150E94221B88E192E00E94F71A12
:1036F0008FE092E00E94F71A82E192E00E94F71AAE
:1037000085E192E00E94F71AE0ECF7E0108611865E
:10371000E6EBF7E0108611868091D7031F910F9199
:10372000EF900C949F18FC01618180810C944B06F2
:10373000EF920F931F9380918A0990918B090097C4
:1037400009F464C13091620920915D09321709F4CE
:103750005DC130914E0820914908321709F456C1D5
:103760008130910509F01AC18091D7039091D80357
:103770008330910509F42BC170F48130910509F46F
:1037800052C2029709F452C28091D7031F910F9140
:10379000EF900C949F188430910509F42AC1059785
:1037A00099F78091D9039091DA038330910509F458
:1037B0008BC050F48130910509F428C1029709F4B7
:1037C00044C081E090E017C18430910509F4AFC096
:1037D0000597B9F784E090E09093DA038093D903DA
:1037E00088E192E00E94931B8FE092E00E94931B7D
:1037F00082E192E00E94931B85E192E00E94F71A19
:1038000085E090E00E945B13EE24E39410E000E07A
:1038100020E04091980660E085E090E00E94A415C9
:103820008BE090E00E945B138CE090E00E945B13C1
:103830008DE090E00E945B1320E04091980660E0EC
:103840008EE090E00E94A4153AC081E090E0909351
:10385000DA038093D90388E192E00E94F71A8FE09F
:1038600092E00E94F71A82E192E00E94F71A85E145
:1038700092E00E94F71A85E090E00E945B13EE242C
:10388000E39410E000E020E04091980660E085E0DD
:1038900090E00E94A41520E04091980660E08BE043
:1038A00090E00E94A4158CE090E00E945B138DE0F4
:1038B00090E00E945B138EE090E00E945B138FE02B
:1038C00090E00E945B137DCF82E090E09093DA035A
:1038D0008093D90388E192E00E94931B8FE092E0ED
:1038E0000E94F71A82E192E00E94F71A85E192E0C5
:1038F0000E94F71A85E090E00E945B13EE24E394A7
:1039000010E000E020E04091980660E085E090E063
:103910000E94A4158BE090E00E945B1320E0409190
:10392000980660E08CE090E00E94A415C0CF83E090
:1039300090E09093DA038093D90388E192E00E94AB
:10394000931B8FE092E00E94931B82E192E00E9421
:10395000F71A85E192E00E94F71A85E090E00E9454
:103960005B13EE24E39410E000E020E04091980621
:1039700060E085E090E00E94A4158BE090E00E945A
:103980005B138CE090E00E945B1320E0409198066E
:1039900060E08DE090E00E94A4158DCF0196B1F516
:1039A0008091D7039091D8038330910509F43BC1EE
:1039B00038F48130910571F0029709F402CFE4CE1A
:1039C0008430910509F432C1059709F0DDCE84E019
:1039D00090E011C08091D9039091DA038330910572
:1039E00009F4A7C068F481309105A1F0029709F4A9
:1039F0005CC085E090E09093D8038093D703C4CE59
:103A00008430910509F4D0C0059799F71F910F9163
:103A1000EF9008958091D3039091D403019731F4EE
:103A20008091D1039091D203059781F382E090E0D9
:103A30009093DA038093D90388E192E00E94931B6C
:103A40008FE092E00E94F71A82E192E00E94F71A5A
:103A500085E192E00E94F71A85E090E00E945B13F6
:103A6000EE24E39410E000E020E04091980660E04E
:103A700085E090E00E94A4158BE090E00E945B132B
:103A800020E04091980660E08CE090E00E94A41550
:103A90008DE090E00E945B138EE090E00E945B134B
:103AA0008FE090E00E945B13A4CF8091D3039091AC
:103AB000D403892B39F48091D1039091D2030597D7
:103AC00009F4A4CF83E090E09093DA038093D903C4
:103AD00088E192E00E94931B8FE092E00E94931B8A
:103AE00082E192E00E94F71A85E192E00E94F71AC3
:103AF00085E090E00E945B13EE24E39410E000E088
:103B000020E04091980660E085E090E00E94A415D6
:103B10008BE090E00E945B138CE090E00E945B13CE
:103B200020E04091980660E08DE090E00E94A415AE
:103B3000B3CF84E090E09093DA038093D90388E1D7
:103B400092E00E94931B8FE092E00E94931B82E11F
:103B500092E00E94931B85E192E00E94F71A85E0B3
:103B600090E00E945B13EE24E39410E000E020E07C
:103B70004091980660E085E090E00E94A4158BE0FB
:103B800090E00E945B138CE090E00E945B138DE05C
:103B900090E00E945B1320E04091980660E08EE088
:103BA00090E00E94A4157CCF85E090E09093DA032A
:103BB0008093D90388E192E00E94931B8FE092E00A
:103BC0000E94931B82E192E00E94931B85E192E0A8
:103BD0000E94931B85E090E00E945B13EE24E39427
:103BE00010E000E020E04091980660E085E090E081
:103BF0000E94A4158BE090E00E945B138CE090E0A3
:103C00000E945B138DE090E00E945B138EE090E0D9
:103C10000E945B1320E04091980660E08FE090E006
:103C20000E94A415E6CE82E090E0E5CE83E090E02D
:103C3000E2CEEF920F931F93CF93DF93C091D10306
:103C4000D091D203209729F0CE010597029708F072
:103C5000CFC084E298E00E94110D882309F4C8C007
:103C60009091D8088091D308981307C03091930899
:103C700020918E08321709F4BBC09E0125503109EE
:103C800022303105F8F03091930820918E083217D8
:103C900009F4AEC0981709F4ABC085E090E09093AA
:103CA000D2038093D1034EE551E060E070E08AECEE
:103CB00097E00E94F20CDF91CF911F910F91EF904E
:103CC0000C94571BC530D10509F442C0269709F062
:103CD0008FC00091D9031091DA030130110509F06A
:103CE00087C0C091D703D091D803C530D10509F062
:103CF0007FC01092D2031092D1031092D20710927B
:103D0000D3070E947E181093DA030093D903D0934F
:103D1000D803C093D703EE24E39410E000E020E042
:103D20004091980660E085E090E00E94A415109212
:103D3000D2031092D1030E94221B109240031092D2
:103D40003F03DF91CF911F910F91EF900C9486125A
:103D50008091D9039091DA03019709F049C08091CD
:103D6000D7039091D803059709F042C01092D2036F
:103D70001092D1031092D2071092D307EE24E3944D
:103D800010E000E020E04091980660E080E190E0E3
:103D90000E94A4151092D2031092D1030E94221BFC
:103DA0008091D3039091D4038130910509F520913E
:103DB000B4073091B507232BD9F41092A5071092C0
:103DC000A4071092A3079093B5078093B4071092AD
:103DD000B0071092B107D093B307C093B20788E140
:103DE00092E0DF91CF911F910F91EF900C94931B74
:103DF000DF91CF911F910F91EF9008951092D20310
:103E00001092D10310923D0310923C0310923A039A
:103E100089E092E00E94931B86E092E00E94F71AEC
:103E2000ECEFF7E01086118610923B0310923903F5
:103E3000EAE1F8E0108611860895EF920F931F9340
:103E400080913E03882361F086E090E00E945B133E
:103E500085E090E00E945B1385E090E00E945B1398
:103E600081E090E00E945B132091D1033091D20356
:103E700080913E032430310509F043C0811143C0D5
:103E80001092D4031092D3031092D2031092D10354
:103E90000E9468130E94861280913D0381110E9446
:103EA000FE1E1092C0061092C1061092D207109208
:103EB000D3071092E6071092E7071092DC071092E2
:103EC000DD0710920408109205081092FA0710926C
:103ED000FB078091D3039091D403892B71F40E9446
:103EE000221B40E65AEE60E070E080EC97E00E9412
:103EF000F20C1092400310923F031F910F91EF902C
:103F000008958111C5CF1092D4031092D30310925B
:103F1000D2031092D10382E090E00E945B13EE2462
:103F2000E39410E000E020E04091980660E082E039
:103F300090E00E94A415ACCFCF92DF92EF92FF9257
:103F40000F931F93CF93DF9300D000D01F92CDB774
:103F5000DEB78091CD039091CE030197029710F4C4
:103F60000E94D1028EEA96E00E94C20C882309F4D6
:103F700099C08091AC06811195C08091CD0390913C
:103F8000CE030197029708F08DC040ED57E060E046
:103F900070E08EEA96E00E94F20C9091A803809166
:103FA000A90320EF29832AEA2A8327E02B8320E133
:103FB0002C839D838E8385E58F8380915E04909111
:103FC0005F04DC01ED91FC910280F381E02D47E07C
:103FD00050E0BE016F5F7F4F1995809137038823B2
:103FE00009F460C08091360381115CC08091350373
:103FF000811158C00091CD031091CE0301501109D9
:1040000002301105E0F42091A8033091A9038091BA
:10401000BA049091BB042817390789F48091BC0435
:10402000882369F08AE996E00E94C20C8823D1F1C6
:1040300040E45FE160E070E08AE996E031C08AE93F
:1040400096E00E94C20C882369F30230110520F427
:104050008091BD048111E6CF1092B6061092B7068A
:104060001092A2061092A3060E942B138091A8031F
:104070009091A90301962091AA033091AB032D5092
:104080003E4F2817390710F484EF91E09093A9036D
:104090008093A80344EF51E060E070E084EA96E08A
:1040A0000E94F20C84EA96E00E94C20C882371F010
:1040B0001092AC061092AD0640ED57E060E070E063
:1040C0008EEA96E00E94F20C0E94621588E399E065
:1040D0000E941B0D83EF98E00E941B0D89E698E07B
:1040E0000E941B0D8EEA98E00E941B0D84E298E06E
:1040F0000E941B0D80918709880F880F8093870984
:104100009091000194FF03C08260809387098091A1
:10411000000183FF05C08091870981608093870932
:10412000209187092F7020938709422F50E0FA01D0
:10413000E853FD4F8081882309F468C08091880985
:104140009091890964E0880F991F6A95E1F7822BA5
:10415000952B909389098093880999278B32910533
:1041600019F0479709F052C081E090E0273021F024
:104170002B3031F48FEF9FEF90938B0980938A0956
:1041800080918A0990918B09009769F02091D3035F
:104190003091D4032130310509F470C0E0F12230B0
:1041A000310509F45FC08DE799E00E94C20C8823B5
:1041B00009F414C10E9486128091D3039091D40314
:1041C0008130910509F4E2C108F413C1029709F4A2
:1041D0006AC10091D1031091D2030230110509F494
:1041E00028C308F019C30130110509F41DC38091DB
:1041F0003D03882309F481C58091D1039091D203B6
:10420000039709F47AC50E94FE1E77C510928B09A8
:1042100010928A09B5CF20913703222361F02091B3
:10422000D1033091D2032530310529F08130910539
:1042300079F40E94F6168091D1039091D2038530D3
:10424000910559F0069709F0AECF0E94981BABCFAD
:10425000019689F70E94C616EECF0E94981B0E9415
:104260002717A1CF8130910519F40E9482169BCFA8
:10427000019609F098CF0E943B1695CF8091D1030B
:104280009091D203059799F49091620980915D090C
:10429000981769F09091930880918E08981739F0DB
:1042A0009091D8088091D30898130E94981B809110
:1042B000D1039091D203892B09F075CF90911D09FC
:1042C0008091180998133BC09091D8088091D30829
:1042D000981335C09091930880918E0898132FC041
:1042E00080918A0990918B098130910509F054C021
:1042F0008091D5039091D6038330910509F465C070
:10430000C8F48130910509F463C0029709F463C0D1
:10431000EE24E39410E000E020E04091980660E095
:1043200085E090E00E94A4150E94681380E00E943E
:10433000281605C08430910541F1059749F7909101
:10434000620980915D0998132ECF90911D0980918B
:104350001809981328CF9091930880918E08981788
:1043600009F421CF9091D8088091D308981709F4C7
:104370001ACF80918A0990918B098130910509F4B7
:1043800074CF019609F00FCF76CF85E090E090933F
:10439000D6038093D503BCCF019689F68091D503CF
:1043A0009091D6038330910599F048F481309105BE
:1043B00031F2029709F0ACCF81E090E0E8CF843091
:1043C000910549F0059709F0A3CF84E090E0DFCF95
:1043D00082E090E0DCCF83E090E0D9CF8091850946
:1043E000882309F4E9CE66E970E08BE00E94AA0612
:1043F000E3CE9091620980915D09981709F442C457
:104400001092400310923F030E94191E90911D09C3
:104410008091180998130CC08091D1039091D20318
:10442000892B31F482E090E09093D2038093D10302
:104430008091D1039091D203892B09F0CACE80914B
:10444000C807882309F4D3CE80EC97E00E947C0C47
:10445000672B682B692B09F0CACE8091BE078111AA
:1044600016C048EE53E060E070E086EB97E00E94F3
:10447000F20C86EB97E00E947C0C643F7140810552
:10448000910560F485E192E00E94F71AA2CE86EBD6
:1044900097E00E94C20C8111E4CFEBCF85E192E05E
:1044A0000E94931B96CE82EF97E00E947C0C683CA2
:1044B00071058105910508F058C085E192E00E94E0
:1044C000F71A88E192E00E94F71A82E192E00E94D6
:1044D000F71A89E092E00E94F71A82EF97E00E94B3
:1044E000C20C8823E1F040E951E060E070E082EF27
:1044F00097E00E94F20CEE24E39410E000E020E04C
:104500004091980660E086E090E00E94A41520E0CB
:104510004091980660E085E090E00E94A4158CEF41
:1045200097E00E94C20C8823A1F0EE24E39410E0EF
:1045300000E020E04091980660E085E090E00E9475
:10454000A41540E456E060E070E08CEF97E00E9434
:10455000F20C90911D0980911809981709F439CE31
:1045600010923E030E941D1F34CE85E192E00E940E
:10457000931B88E192E00E94931B82E192E00E94EB
:10458000931B89E092E00E94931BA7CF80910408BF
:10459000811108C08091FA07811104C089E092E07E
:1045A0000E94931B80E198E00E94C20C882359F17D
:1045B0008091140890911508A0911608B0911708E1
:1045C00040911008509111086091120870911308E1
:1045D000840F951FA61FB71F80931408909315088A
:1045E000A0931608B093170881E0809318081092E2
:1045F0001908809112020E942206811148C082E1AE
:1046000092E00E94F71A8091D1039091D203039710
:1046100079F08091D5039091D6038330910509F408
:1046200044C0D0F5029709F43EC081E40E94911283
:104630000E94191E9091930880918E0898136AC069
:1046400080910402882309F460C08091D103909185
:10465000D203039771F570E060E080910F020E9431
:10466000AA0690911D09809118092091D1033091DB
:10467000D2032530310509F4CAC0981709F44FC098
:1046800081E090E09093D2038093D103A2CD82E1A8
:1046900092E00E94931BB7CF8430910541F00597BB
:1046A00021F68AE5C3CF86E4C1CF8BE4BFCF8DE48A
:1046B000BDCF8091DC07882331F084ED97E00E9424
:1046C000C20C882341F280910F022091D5033091D2
:1046D000D60360EA70E02330310509F248F46EEB4E
:1046E00070E02230310509F4BACF6CED70E0B7CF3D
:1046F00062E870E02430310509F4B1CF64E670E07F
:104700002530310509F4ABCFF0CF8FE092E00E9465
:10471000931BA7CF8FE092E00E94F71AA2CF90914F
:10472000D8088091D308981354CD90919308809124
:104730008E0898134ECD90914E0880914908981399
:104740003DC0FF24F394F0923A038091CF039091FF
:10475000D003892B99F58091380381112FC08EEDFC
:1047600097E00E947C0C672B682B692B39F540ED94
:1047700057E060E070E08EED97E00E94F20C0E943E
:10478000FC1AE12C10E000E020E04091980660E087
:1047900084E090E00E94A41548E250E060E070E000
:1047A00088EE97E00E94F20C4EE551E060E070E088
:1047B00084ED97E00E94F20CF09238039091620928
:1047C00080915D09981791F080913D03882371F0E5
:1047D00080913C03882351F080913A03811104C0F9
:1047E0001092D2031092D10310923C0390914E0884
:1047F00080914908981709F4ECCC8091CF039091EF
:10480000D003892B09F0E5CC10923803E2CC981341
:1048100037CF0E942717EBCC0330110509F4B6C03F
:1048200005301105B1F3E3CC0E941D1F0E948E18C4
:10483000DECC9091D8088091D30898139CC08091C9
:104840000502882309F497C081E080933E030E940B
:104850001D1F1093D4030093D30384E090E0909342
:10486000D2038093D10340E456E060E070E08CEF27
:1048700097E00E94F20C40E951E060E070E082EFC6
:1048800097E00E94F20C4EE551E060E070E08AECA7
:1048900097E00E94F20CEE24E39410E000E020E0A8
:1048A0004091980660E086E090E00E94A41520E028
:1048B0004091980660E085E090E00E94A41520E019
:1048C0004091980660E085E090E00E94A4158091F8
:1048D000D3039091D403029709F489CC88E192E044
:1048E0000E94931B85E192E00E94931B42E950E0F5
:1048F00060E070E080E198E00E94F20C82E192E0DA
:104900000E94931B10920408109205081092FA0757
:104910001092FB0781E090E00E945B13EE24E39489
:1049200010E000E020E04091980660E081E090E037
:104930000E94A41581E00E9428168091B4079091EE
:10494000B507892B09F053CC1092A5071092A40744
:104950001092A30781E090E09093B5078093B4078D
:104960001092B0071092B10785E090E09093B307E2
:104970008093B2073CCC81E090E09093D403809385
:10498000D3031092D2031092D103A1CF8AE198E011
:104990000E94C20C882351F10E94FC1A8091D50319
:1049A0009091D60348E151E060E070E083309105DA
:1049B000C9F058F44CE251E060E070E0029791F0E9
:1049C00040E451E060E070E00DC044E051E060E0A0
:1049D00070E08430910531F040EF50E060E070E02D
:1049E000059771F78AE198E00E94F20C80913D03EF
:1049F00081110DC081E080933D031092DC0710927D
:104A0000DD078CE092E00E94931B0E94FC1A8091CB
:104A100004088823D9F08CEF97E00E947C0C623365
:104A2000710581059105D0F589E092E00E94931B04
:104A30008CEF97E00E94C20C882341F044E650E0DE
:104A400060E070E08CEF97E00E94F20C80913B03F5
:104A500090913C03992309F492C1811103C081E034
:104A600080933B038091390390913A03992309F491
:104A70008CC1811103C081E0809339039091930828
:104A800080918E08981307C09091D8088091D30820
:104A9000981709F4ACCB0E94FE1EA9CB89E092E0E6
:104AA0000E94F71AC5CF0E94F71A52C185E00E94F2
:104AB00028046093ED037093EE038093EF031F5F70
:104AC000109341031C3008F0CEC048E250E060E093
:104AD00070E088EE97E00E94F20C86E098E00E9479
:104AE000C20C882341F044EF51E060E070E086E0C2
:104AF00098E00E94F20C27960FB6F894DEBF0FBE26
:104B0000CDBFDF91CF911F910F91FF90EF90DF907C
:104B1000CF90089588E0CBCF8AE0C9CF81E0C7CF9E
:104B200080E00E9428046093ED037093EE0380936D
:104B3000EF03F12CE12C6701CC0CDD1CCE0CDF1C4B
:104B4000F601E552FC4F6F0181E00E942804D60176
:104B50006D937D938C93BFEFEB1AFB0AE6E0EE16A4
:104B6000F10449F71F5F10934103AFCF81E00E942A
:104B700028046093ED037093EE038093EF03F12C10
:104B8000E12C6701CC0CDD1CCE0CDF1CC60185526C
:104B90009C4F6C0180E00E942804D6016D937D93A8
:104BA0008C93BFEFEB1AFB0AE6E0EE16F10449F72F
:104BB000D9CF80E00E9428046093ED037093EE0348
:104BC0008093EF03F12CE12C6701CC0CDD1CCE0CA3
:104BD000DF1CC60185529C4F6C0181E00E942804B5
:104BE000D6016D937D938C93BFEFEB1AFB0AE6E041
:104BF000EE16F10449F7B6CF81E00E9428046093D5
:104C0000ED037093EE038093EF03F12CE12C670129
:104C1000CC0CDD1CCE0CDF1CC60185529C4F6C01F8
:104C200080E00E942804D6016D937D938C93BFEFA2
:104C3000EB1AFB0AE6E0EE16F10449F793CF89E0A0
:104C400036CF87E034CF80E032CF80E00E94280466
:104C50006093ED037093EE038093EF0386E092E0A0
:104C60000E94F71A2CCF1092F0071092F1071092C1
:104C700041030E947E1885E090E09093B3078093F3
:104C8000B2072BCF80913F03853008F4BDCB8091D4
:104C9000D1039091D2030597029708F4B5CB85E034
:104CA00090E00E945B13EE24E39410E000E020E02B
:104CB0004091980660E085E090E00E94A41581E1B3
:104CC00090E00E945B1320E04091980660E081E153
:104CD00090E00E94A41586E090E09093D203809328
:104CE000D10310923F034EE551E060E070E08AECA2
:104CF00097E00E94F20C0E94571B88EE97E00E94FA
:104D0000C20C882309F4E9CE1091410311111AC095
:104D10000E947E181092A5071092A4071092A30774
:104D200081E090E09093B5078093B4071092B007AC
:104D30001092B1070E94591583E090E09093B30759
:104D40008093B20786E092E010FDADCE0E94931BE7
:104D50001C3008F07ACFE12FF0E08827ED54F94DB0
:104D60008F4F0C94F23256258A258C258E2590255E
:104D7000B625D925FC251F2621265625232688233E
:104D800009F470CE10923B036DCE882309F476CEE1
:104D90001092390373CECF93DF93EC0161E08881E9
:104DA0000E9479066A818881DF91CF910C944B062D
:104DB000CF93DF93EC010E94E013CE01DF91CF91FE
:104DC0000C94CB331F920F920FB60F9211242F9396
:104DD0003F938F939F93AF93BF93809106049091DD
:104DE0000704A0910804B09109043091050423E060
:104DF000230F2D3758F50196A11DB11D20930504F1
:104E00008093060490930704A0930804B0930904C8
:104E100080910A0490910B04A0910C04B0910D04B0
:104E20000196A11DB11D80930A0490930B04A093D9
:104E30000C04B0930D04BF91AF919F918F913F915E
:104E40002F910F900FBE0F901F90189526E8230FFB
:104E50000296A11DB11DD2CF1F920F920FB60F92D5
:104E600011240BB60F922F933F934F935F936F9341
:104E70007F938F939F93AF93BF93EF93FF938AECAE
:104E800094E00E94D809FF91EF91BF91AF919F915B
:104E90008F917F916F915F914F913F912F910F90E3
:104EA0000BBE0F900FBE0F901F9018951F920F9280
:104EB0000FB60F9211240BB60F922F938F939F93DF
:104EC000EF93FF93E091DA04F091DB048081E091AD
:104ED000E004F091E10482FD1DC090818091E30423
:104EE0008F5F8F732091E404821741F0E091E30417
:104EF000F0E0E653FB4F958F8093E304FF91EF9131
:104F00009F918F912F910F900BBE0F900FBE0F901E
:104F10001F9018958081F2CF1F920F920FB60F92BB
:104F200011240BB60F922F933F934F935F936F9380
:104F30007F938F939F93AF93BF93EF93FF9387E6F6
:104F400095E00E94D809FF91EF91BF91AF919F9199
:104F50008F917F916F915F914F913F912F910F9022
:104F60000BBE0F900FBE0F901F9018951F920F92BF
:104F70000FB60F9211240BB60F922F938F939F931E
:104F8000EF93FF93E0917705F09178058081E091B0
:104F90007D05F0917E0582FD1DC090818091800588
:104FA0008F5F8F7320918105821741F0E09180051A
:104FB000F0E0E959FA4F958F80938005FF91EF91CA
:104FC0009F918F912F910F900BBE0F900FBE0F905E
:104FD0001F9018958081F2CF1F920F920FB60F92FB
:104FE00011240BB60F922F933F934F935F936F93C0
:104FF0007F938F939F93AF93BF93EF93FF93809192
:10500000B900887F803609F44DC008F040C088326E
:1050100009F4A9C028F5803109F49DC0C8F488239B
:1050200009F4FBC0883009F496C0FF91EF91BF915D
:10503000AF919F918F917F916F915F914F913F9130
:105040002F910F900BBE0F900FBE0F901F901895D1
:10505000883109F488C0803241F78093320414C04B
:10506000803409F49DC040F48033B9F38833E9F605
:105070008093320485ECB0C0803509F485C0883552
:1050800009F496C0883489F60E94BF1ACECF8839B9
:1050900009F48CC038F5883729F050F4883611F0BF
:1050A000803719F683E0809334041092A70357C029
:1050B000883809F47BC0803919F0803809F0B5CF01
:1050C0008091A703803208F071C0E091A70381E0CE
:1050D0008E0F8093A7038091BB00F0E0E957FC4F4F
:1050E00080833DC0803B39F0E0F4803A09F479C018
:1050F000883A09F09ACF84E08093340410928603B2
:1051000010928503E091C903F091CA03199580912B
:10511000850381110FC081E08093850310926503A0
:1051200009C0803C09F4A6CF883C09F4A3CF883B92
:1051300009F07BCFE091860381E08E0F8093860398
:10514000F0E0EB59FC4F80818093BB009091860387
:105150008091850329C080910F048093BB0085EC6A
:105160008093BC0062CF90913104809130049817F5
:1051700058F5E091310481E08E0F80933104F0E026
:10518000E05FFB4F8081E9CFE091310481E08E0F39
:10519000809331048091BB00F0E0E05FFB4F80839F
:1051A00090913104809130049817C8F285E8D8CFE7
:1051B000E091310481E08E0F809331048091BB0037
:1051C000F0E0E05FFB4F80838091330481115CCF7E
:1051D00081E080930E0484EA8093BC001092340432
:1051E00024CF85EC8093BC00109234048091A703F7
:1051F000803230F4E091A703F0E0E957FC4F1082D1
:105200006091A70370E0E091C703F091C80387E8BD
:1052100093E019951092A70308CF1092320434CF6F
:10522000CF92DF92EF92FF920F931F93CF93DF9372
:10523000EAECF4E01382128288EE93E0A0E0B0E0A2
:1052400084839583A683B7832AE033E03183208368
:1052500045E351E05587448744E351E0578746874B
:1052600040E351E0518B408B41E351E0538B428B43
:1052700042E351E0558B448B46E351E0578B468B1C
:10528000118E128E138E148EE7E6F5E013821282D1
:1052900084839583A683B7833183208325EC30E014
:1052A0003587248724EC30E03787268720EC30E0F0
:1052B000318B208B21EC30E0338B228B22EC30E0E1
:1052C000358B248B26EC30E0378B268B118E128E9B
:1052D000138E148EE4E0F6E01382128284839583A9
:1052E000A683B7838CE193E091838083E7E8F9E0BC
:1052F0001082128211828DE799E00E94050D62E012
:1053000088E399E00E94850E63E083EF98E00E94B5
:10531000850E66E38EEA98E00E94850E64E089E6D9
:1053200098E00E94850E6CE384E298E00E94850E6E
:105330008AE198E00E94050D80E198E00E94050D49
:1053400086E098E00E94050D8CEF97E00E94050D25
:1053500082EF97E00E94050D88EE97E00E94050D10
:105360008EED97E00E94050D84ED97E00E94050DFB
:105370008AEC97E00E94050D80EC97E00E94050DF5
:1053800086EB97E00E94050D8CE1E4E2F2E0A2ECEE
:10539000B6E001900D928A95E1F78CE1E0E4F2E04D
:1053A000AEEDB6E001900D928A95E1F78AE1ECEF5F
:1053B000F6E0DF01982F1D929A95E9F7E2ECF6E00E
:1053C00011E010AF11AF12AFE8E1F7E0DF011D927D
:1053D0008A95E9F710931607109317071083109317
:1053E0001C0710931D0710931E078CE1ECE5F2E0FB
:1053F000A2E3B7E001900D928A95E1F78CE1E8E72E
:10540000F2E0AEE4B7E001900D928A95E1F78CE10D
:10541000E4E9F2E0AAE6B7E001900D928A95E1F79F
:105420008CE18093A1078EE08093A2071092A307DE
:105430001092A5071092A4071092A6071092A70732
:1054400088EA97E00E94050D1092B3071092B20708
:105450001092B5071092B40788EB96E00E94050DF4
:105460008EEA96E00E94050D84EA96E00E94050D02
:105470008AE996E00E94050D80911D0246E4849F12
:10548000C001112424E630E0B9010E94BC32665408
:105490006093990680911C02849FC0011124B90178
:1054A0000E94BC3266546093980680911B02849FD0
:1054B000C0011124B9010E94BC3266546093970662
:1054C000C6E7D6E01F82198218821B821A821D82CB
:1054D0001C821E821C8B0E9481076D8B7E8B8F8BA2
:1054E000988F198E1A8E1B8E1C8E1D8E1E8E1F8EEF
:1054F00018A21F83D0931306C093120685E392E08F
:105500009093110680931006C5E4D6E00EE213E0F6
:1055100019830883E7E4F6E080818E7F80838081B1
:105520008D7F808380818B7F80831B861C861D8678
:105530001E861B821C821D821E821F82188619866F
:105540001A861CA61BA61EA61DA618AA1FA619A26F
:105550001AA21BA21CA2188A1F86198A1A8A1B8AE1
:105560001C8A1D8A1E8A1F8A188E87E79AE19EA3CD
:105570008DA318A61FA21AA619A680E190E0A0E0AC
:10558000B0E08B839C83AD83BE838B819C81AD8196
:10559000BE818F839887A987BA870E94D8076B87B7
:1055A0007C878D879E87CC24CA94DC2C7601C98E9B
:1055B000DA8EEB8EFC8ECD8EDE8EEF8EF8A2C4E1FD
:1055C000D6E019830883E6E1F6E080818E7F808350
:1055D00080818D7F808380818B7F80831B861C866A
:1055E0001D861E861B821C821D821E821F821886BB
:1055F00019861A861CA61BA61EA61DA618AA1FA6DB
:1056000019A21AA21BA21CA2188A1F86198A1A8A1A
:105610001B8A1C8A1D8A1E8A1F8A188E8CE99FE1AC
:105620009EA38DA318A61FA21AA619A68FE090E02C
:10563000A0E0B0E08B839C83AD83BE838B819C8193
:10564000AD81BE818F839887A987BA870E94D807CA
:105650006B877C878D879E87C98EDA8EEB8EFC8E5A
:10566000CD8EDE8EEF8EF8A2ECE8F9E08FEF80832E
:105670001282118214861386C782D086E186F28652
:10568000DF91CF911F910F91FF90EF90DF90CF901E
:105690000895CF93DF93CDB7DEB7A7970FB6F894F1
:1056A000DEBF0FBECDBF789484B5826084BD84B563
:1056B000816084BD85B5826085BD85B5816085BD0D
:1056C00080916E00816080936E00109281008091C5
:1056D000810082608093810080918100816080934D
:1056E0008100809180008160809380008091B10072
:1056F00084608093B1008091B00081608093B0009D
:1057000080919100826080939100809191008160EE
:1057100080939100809190008160809390008091AF
:10572000A10082608093A1008091A100816080939C
:10573000A1008091A00081608093A0008091210150
:1057400082608093210180912101816080932101F9
:105750008091200181608093200180917A00846093
:1057600080937A0080917A00826080937A008091A1
:105770007A00816080937A0080917A0080688093BB
:105780007A001092C100E0917705F091780502E06F
:105790000083E0917305F09174051082E091750526
:1057A000F09176058FEC808310927F05E0917B0568
:1057B000F0917C0516E01083E0917905F0917A056F
:1057C000808180618083E0917905F0917A05808104
:1057D00088608083E0917905F0917A058081806806
:1057E0008083E0917905F0917A0580818F7D8083B7
:1057F00068EE73E080E090E00E94A607E091DA0492
:10580000F091DB040083E091DA04F091DB04108274
:10581000E091D604F091D7041082E091D804F09181
:10582000D90480E180831092E204E091DE04F091DB
:10583000DF041083E091DC04F091DD04808180615D
:105840008083E091DC04F091DD04808188608083B6
:10585000E091DC04F091DD04808180688083E09138
:10586000DC04F091DD0480818F7D80831092B70489
:105870001092B8041092B9048AEC94E090935F04FB
:1058800080935E041092B4041092B5041092B60492
:10589000E0E6F4E08FEF9FEF8193919324E0EC3703
:1058A000F207D1F780915E0490915F04DC01ED91E5
:1058B000FC910084F185E02D1995892B61F0809190
:1058C0005E0490915F04DC01ED91FC910284F3850C
:1058D000E02D1995E7CF0E94920530EFF32EF98263
:1058E0000AEA0A8345E0E42EEB8282E08C8315E528
:1058F0001D8380915E0490915F04DC01ED91FC9129
:105900000280F381E02D45E050E0BE016F5F7F4FE4
:1059100019956AE070E080E090E00E94A607F982A5
:105920000A83EB8284E08C831D8380915E049091D6
:105930005F04DC01ED91FC910280F381E02D45E0F4
:1059400050E0BE016F5F7F4F1995F9820A8387E0AF
:105950008B838CE08C831D821E821F8380915E046A
:1059600090915F04DC01ED91FC910280F381E02DC8
:1059700047E050E0BE016F5F7F4F19958AEB9FEFC4
:105980000E94D003F9820A8356E0D52EDB8289E09B
:105990008C83EE24E394ED821E8380915E049091CB
:1059A0005F04DC01ED91FC910280F381E02D46E083
:1059B00050E0BE016F5F7F4F1995F9820A83DB8249
:1059C0008EE08C83ED821E8380915E0490915F0453
:1059D000DC01ED91FC910280F381E02D46E050E086
:1059E000BE016F5F7F4F19956EE571E080E090E03A
:1059F0000E94A6070E94D1028091B704882309F46F
:105A00005AC3ACE9B4E0FE013196CE0145962D9122
:105A100021938E179F07D9F70E94D1028091B80475
:105A20008823C1F00E94D1028091B1049091B20408
:105A30009C01225131093093AB032093AA03439771
:105A40008738934108F063C384EF91E09093A903F2
:105A50008093A80382E090E09093CE038093CD03DF
:105A60008091B100887F86608093B1008091BF03F0
:105A7000811145C01092B1031092B0038FEF809353
:105A8000B4038093B5038093B6038093B7038093E8
:105A9000B8038093B90381E08093BA031092BC03EA
:105AA0001092BB031092B3031092B2038091C4040E
:105AB0009091C504892B31F48EEA93E09093C5044C
:105AC0008093C404E091AC03F091AD03309721F0D2
:105AD0008EEA93E0958384838EEA93E09093AD03FE
