:100000000C94D5010C9406020C9406020C94060282
:100010000C9406020C9406020C9406020C94060240
:100020000C9406020C9406020C9406020C94060230
:100030000C9406020C9406020C9406020C94060220
:100040000C9406020C9406020C9406020C94060210
:100050000C9406020C9406020C9406020C94DD1D0E
:100060000C9406020C94B11E0C94871E0C9406028C
:100070000C9406020C9406020C9406020C940602E0
:100080000C9406020C9406020C9406020C940602D0
:100090000C9406020C9406020C9406020C94E71EC3
:1000A0000C9406020C9406020C9406020C940602B0
:1000B0000C9406020C9406020C9406020C940602A0
:1000C0000C9406020C9406020C9406020C94060290
:1000D0000C9406020C9406020C94511E0C94271EDC
:1000E0000C9406020C945C030C9444020C94C70418
:1000F0000C94D2060C946B100C9467040C9471034E
:100100000C94B8040C94C5060C949A040C94420BFD
:100110000C9496030C94D3060C94D6060C947B177F
:100120000C949B030C9475030C946C040C94C10701
:100130000C94EB0A0C94F62C0C9468030C94470274
:100140000C94830B0C9464030C947B030C94FA2C96
:100150000C94FE2C0C94150B0C9404090C945F0465
:100160000C9489030C942C170C94D1040C940C0E51
:100170000C9480040C941E020C9416130C945109D8
:100180000C94BE170C94DB040C9450170C94EF04E1
:100190000C94EC0A0C944E020C9497030C94F82CDB
:1001A0000C94A4040C9483030C944B020C948A04C6
:1001B0000C946B030C9413130C94F22C0C94FC2CE5
:1001C0000C94AD070C94FB0A0C940E0B0C947F035B
:1001D0000C9452020C9456030C94F42C0C946D2045
:1001E0000C94CB060C94E5040C9470100C949317AB
:1001F0000C94AE040C9476040C945E020C945A0297
:100200000C94CF070C94F5110C94D1060C946E103D
:100210000C94F9040C9460030C94CC100C942317E8
:100220000C9492040C94A31D0C9456020C948D0310
:100230000C949E070C9410130C9415120C949103BB
:100240000C943C020C944002000000006410B71DA6
:10025000C8206E3BAC30D9269041DC76F4516B6BF4
:100260005861B24D3C7105502083B8ED44930FF0B6
:10027000E8A3D6D68CB361CBB0C2649BD4D2D3866C
:1002800078E20AA01CF2BDBD000021002400270076
:100290002A002D0030003300010100000401070195
:1002A0000A0100002200250028002B002E0031004A
:1002B000340002010000050108010B0100002000CC
:1002C0002300260029002C002F003200000100002E
:1002D00003010601090105050505070508080808C9
:1002E000020202020A0A08080404040401010101CE
:1002F00001010101030303030303030304070707C9
:100300000C0C0C0C0C0C0C0C02020202060606066D
:10031000060606060B0B0B0B0B0B0B0B010210203A
:10032000200808102040102040800201020108042B
:1003300002010102040810204080804020100804BF
:100340000201800402018040201008040201080418
:10035000020101020408102040800102040810205C
:10036000408000000A0B02090C0D0E08070304016F
:10037000000000000000000000000000000000007D
:10038000000000000000000000000000000012114A
:10039000100000000000000000000000000000004D
:1003A00000000000000000006D2011241FBECFEFF0
:1003B000D1E2DEBFCDBF00E00CBF13E0A0E0B2E0B1
:1003C000ECE7FCE500E00BBF02C007900D92A632FF
:1003D000B107D9F729E0A6E2B3E001C01D92A83029
:1003E000B207E1F711E0C5EDD1E000E006C02197CA
:1003F0000109802FFE010E94FA2DC43DD10780E043
:100400000807A9F70E94CD210C943C2E0C94000003
:10041000982F8B3098F4E82FF0E08827ED5EFD4FA1
:100420008F4F0C94FA2D5E021E023C0240024402E1
:1004300047024B024E02520256025A024FEF20E090
:1004400094E6392F330F330F330F85E5632F689F01
:10045000060E60E0611D1124E92FE074592F5072DF
:1004600097FD81C0E1116CC051112BC0862F809582
:10047000762F682F80E029C04FEF2BE996E1E1CF7E
:100480004FEF2FEF94EFDDCF4FEF20E8FBCF4FEF93
:100490002FEF90E0D6CF4FEF20ECFBCF4FEF2FEFB9
:1004A00095E0CFCF4FEF2FEF9AE0CBCF4FEF2FEF6D
:1004B0009FE0C7CF4FEF2FEF94E1C3CF492F292FF4
:1004C000C0CF75E5760F80E06BEA2F3FF1F0222375
:1004D00009F468C0209590E0222329F0229F912DF5
:1004E000112421119F5F292F2095629F060E60E045
:1004F000611D729F070E70E0711D829F080E80E0E3
:10050000811D1124690F790F890F4F3F09F451C0E4
:1005100090E0992321F0999F912D09F09F5F9923F5
:1005200009F444C0699F060E60E0611D799F070EC3
:1005300070E0711D899F080E80E0811D11240895CF
:1005400051110BC09AEA399F030E30E0311D11247E
:100550008BEA831B7AEA760F8CCF80E0762F70953A
:10056000862F60E0B2CFE11111C051110BC0832F73
:100570009AEA899F080E80E0811D11247BEA781B8E
:100580008B5AEFCF862F809570E09FCF511106C018
:1005900095E5960F8BEA861B692FF6CF9AEA960FA0
:1005A00030E0F9CF8FEF7FEF6FEFAFCF80E070E0FB
:1005B00060E0089587FF2FC0109200071092FF0699
:1005C00080910207882331F180910107E091FF06B5
:1005D000F0910007E35EF94F662361F1882341F152
:1005E000848D87FD17C0E82FE695E695E695F0E047
:1005F000EF51F94F282F277081E090E0A0E0B0E0A4
:1006000004C0880F991FAA1FBB1F2A95D2F720810B
:10061000822B808308958C313CF08BE190E09093A5
:1006200000078093FF06CCCF082E000C990BF7CF64
:100630008081D7CF8823D1F0248D27FDEBCFE22F07
:10064000E695E695E695F0E0EF51F94F277081E0E9
:1006500090E0A0E0B0E004C0880F991FAA1FBB1F64
:100660002A95D2F7809590818923D3CF2081E5CF39
:100670008150823108F05AC0E82FF0E08827EC5B07
:10068000FC4F8F4F0C94FA2D6403680356035C03F0
:10069000600396036B03710375037B037F0383037E
:1006A00089038D039603910397039B038091800038
:1006B0008F77809380000895809180008F7DF9CF9F
:1006C00080918000877FF5CF84B58F7784BD0895B2
:1006D00084B58F7DFBCF8091B0008F778093B00081
:1006E00008958091B0008F7DF9CF809190008F7731
:1006F000809390000895809190008F7DF9CF809134
:100700009000877FF5CF8091A0008F778093A00025
:1007100008958091A0008F7DF9CF8091A000877F00
:10072000F5CF809120018F778093200108958091EB
:1007300020018F7DF9CF80912001877FF5CFCF9366
:10074000DF93282F30E0F901EE59FC4F8491F90135
:10075000E45EFC4FD491F901EA52FD4FC491CC23E1
:10076000A1F081110E943803EC2FF0E0EE0FFF1F83
:10077000E454FD4FA591B491EC91ED2381E090E01C
:1007800009F480E0DF91CF91089580E090E0FACF06
:100790001F93CF93DF93282F30E0F901EE59FC4FE0
:1007A0008491F901E45EFC4FD491F901EA52FD4FC6
:1007B000C491CC23A9F0162F81110E943803EC2F8D
:1007C000F0E0EE0FFF1FEE55FD4FA591B4918FB7EE
:1007D000F894EC91111108C0D095DE23DC938FBF03
:1007E000DF91CF911F910895DE2BF8CFCF93DF9348
:1007F00090E0FC01E45EFC4F24918A529D4FFC0185
:1008000084918823D1F090E0880F991FFC01E8576C
:10081000FD4FA591B491FC01EE55FD4FC591D491CA
:10082000623071F49FB7F8943C91822F80958323B6
:100830008C93E8812E2B28839FBFDF91CF91089561
:100840008FB7F894EC912E2B2C938FBFF6CF1F937C
:10085000CF93DF93182FEB0161E00E94F6032097FE
:1008600039F460E0812FDF91CF911F910C94C80380
:10087000CF3FD10511F461E0F5CFE12FF0E0EE5963
:10088000FC4FE491E150E23108F0B3C0F0E088277A
:10089000E35BFB4F8F4F0C94FA2D5F0467046C04ED
:1008A00076048004F9048A0492049A04A404AE0431
:1008B000B804C704D104F904DB04E504EF0484B5EB
:1008C000806884BDC7BDDF91CF911F91089584B525
:1008D000806284BDC8BDF7CF80918000806880931E
:1008E0008000D0938900C0938800EDCF8091800074
:1008F000806280938000D0938B00C0938A00E3CF06
:1009000080918000886080938000D0938D00C09398
:100910008C00D9CF8091B00080688093B000C093E4
:10092000B300D1CF8091B00080628093B000C093BB
:10093000B400C9CF80919000806880939000D093DC
:100940009900C0939800BFCF8091900080628093FF
:100950009000D0939B00C0939A00B5CF80919000F7
:10096000886080939000D0939D00C0939C00ABCF93
:100970008091A00080688093A0008091A0008F7B70
:100980008093A000D093A900C093A8009CCF809131
:10099000A00080628093A000D093AB00C093AA0017
:1009A00092CF8091A00088608093A000D093AD008A
:1009B000C093AC0088CF8091200180688093200193
:1009C000D0932901C09328017ECF809120018062BD
:1009D00080932001D0932B01C0932A0174CF809182
:1009E0002001886080932001D0932D01C0932C01B9
:1009F0006ACFC038D1050CF03ECF33CF3FB7F89463
:100A00008091EE039091EF03A091F003B091F10378
:100A100026B5A89B05C02F3F19F00196A11DB11D59
:100A20003FBFBA2FA92F982F8827BC01CD01620F95
:100A3000711D811D911D42E0660F771F881F991F50
:100A40004A95D1F708958F929F92AF92BF92CF921D
:100A5000DF92EF92FF924B015C010E94FE046B015A
:100A60007C010E94FE046C197D098E099F09683E75
:100A7000734081059105A8F321E0821A9108A1082D
:100A8000B10888EEC80E83E0D81EE11CF11C811469
:100A90009104A104B10429F7FF90EF90DF90CF906B
:100AA000BF90AF909F908F9008952FB7F89460916A
:100AB000EA037091EB038091EC039091ED032FBF5B
:100AC00008952F923F924F925F926F927F928F92F2
:100AD0009F92AF92BF92CF92DF92EF92FF920F93CD
:100AE0001F93CF93DF93CDB7DEB7C558D1090FB6AB
:100AF000F894DEBF0FBECDBFB82E8091FE08909156
:100B0000FF08A0910009B0910109892B8A2B8B2B3A
:100B1000D9F00E94FE040091A8041091A90420912C
:100B2000AA043091AB04601B710B820B930B0091F4
:100B3000FE081091FF08209100093091010960170B
:100B4000710782079307C8F20E94FE046093A8040D
:100B50007093A9048093AA049093AB04E0910609D2
:100B6000F0910709309759F040910209509103091B
:100B700060910409709105098B2D1995B82EFE011D
:100B8000319680E8DF011D928A95E9F7E090A6048E
:100B9000F090A7044F016E01B1E8CB0ED11C1F01EC
:100BA0004B2C512C712C612CE114F10409F476C00A
:100BB0002C143D0409F472C0D701ED91FC9104841A
:100BC000F585E02DC7011995F101819391931F01DE
:100BD0008091FC089091FD088436910518F4D701A6
:100BE0001C961C92D701ED91FC9182819381CC5788
:100BF000DF4F99838883C458D040D6011C92119648
:100C00001C92119712961C92BB2079F187010A5F02
:100C10001F4FF0E0E0E0D8012D918D01222309F172
:100C20001296AC90AA20E9F030E050E040E02F5F4F
:100C30003F4F4F4F5F4FC301B2010E94B42D9B0144
:100C4000AC018A2D90E0B0E0A0E0BC01CD016F5F67
:100C50007F4F8F4F9F4F0E94B42DD601AE0FBF1F05
:100C60008C933196E330F105B1F6F60100811181E4
:100C70002281D7011D964D915C911E9712966D9120
:100C80007C91C701CC57DF4FE881F981C458D0402F
:100C90001995D7011496ED90FC9086CF0091A6048B
:100CA0001091A7040115110599F08C149D0481F091
:100CB000F401619171914F01D801ED91FC9106848D
:100CC000F785E02DC8011995F80104811581EACF57
:100CD0008091A4049091A5048C010F5F1F4F109385
:100CE000A5040093A4044997B4F10E945505C0904F
:100CF000A004D090A104E090A204F090A3049B0172
:100D0000AC012C193D094E095F0921F421E030E0C6
:100D100040E050E088EE93E0089FB001099F700D1D
:100D2000189F700D1124072E000C880B990B0E9440
:100D3000D82D3093FD082093FC081092A504109242
:100D4000A4040E9455056093A0047093A1048093AD
:100D5000A2049093A304CB57DF4F0FB6F894DEBFE5
:100D60000FBECDBFDF91CF911F910F91FF90EF90FC
:100D7000DF90CF90BF90AF909F908F907F906F90BB
:100D80005F904F903F902F9008958091CA038F5F9E
:100D90008093CA0308958091CB038F5F8093CB0328
:100DA00008950895089580E991E00895AF92BF9263
:100DB000CF92DF92EF92FF920F931F93CF93DF9327
:100DC0006C017B018B01040F151FEB015E01AE1856
:100DD000BF08C017D10759F06991D601ED91FC9178
:100DE0000190F081E02DC6011995892B79F7C50195
:100DF000DF91CF911F910F91FF90EF90DF90CF90F7
:100E0000BF90AF900895CF93DF9300D000D000D073
:100E1000CDB7DEB720EF29832AEA2A8329E02B8386
:100E200028E02C838D839E836F83788785E589876F
:100E300049E050E0BE016F5F7F4F8CEA94E00E9472
:100E4000D60629960FB6F894DEBF0FBECDBFDF9150
:100E5000CF910895CF93DF9300D000D01F921F92BF
:100E6000CDB7DEB720EF29832AEA2A8328E02B8337
:100E700023E02C836D838E839F8385E5888748E0FC
:100E800050E0BE016F5F7F4F8CEA94E00E94D6066F
:100E900028960FB6F894DEBF0FBECDBFDF91CF917D
:100EA0000895CF93DF9300D000D000D0CDB7DEB748
:100EB00020EF29832AEA2A8329E02B832DE02C8343
:100EC00021E02D838E839F83688785E5898749E0AC
:100ED00050E0BE016F5F7F4F8CEA94E00E94D6061F
:100EE00029960FB6F894DEBF0FBECDBFDF91CF912C
:100EF0000895CF93DF9300D000D01F92CDB7DEB717
:100F000020EF29832AEA2A8327E02B8325E02C83FC
:100F10008D839E8385E58F8347E050E0BE016F5F40
:100F20007F4F8CEA94E00E94D60627960FB6F8947D
:100F3000DEBF0FBECDBFDF91CF910895FC01538D71
:100F4000448D252F30E0842F90E0821B930B5417A3
:100F500010F0CF96089501970895FC01918D828D30
:100F6000981761F0A28DAE0FBF2FB11D5D968C91C9
:100F7000928D9F5F9F73928F90E008958FEF9FEF08
:100F80000895FC01918D828D981731F0828DE80FC4
:100F9000F11D858D90E008958FEF9FEF0895FC017E
:100FA000918D228D892F90E0805C9F4F821B91094B
:100FB0008F7399270895DF92EF92FF920F931F93FB
:100FC000CF93DF9310929804FF24F394F3E0EF2E75
:100FD000A2E0DA2ECFEFDFEF03E714E08CEA94E033
:100FE0000E94CF07181619060CF0D0C08CEA94E0C6
:100FF0000E94AD079091960491111CC0803F09F0AA
:1010000040C0F092960480919804882339F380912F
:101010005E04843809F46FC0E8F5813809F496C09D
:10102000823809F49FC0109296041092970410928F
:101030009804D4CF913041F48A3A19F4D0929604AE
:10104000E2CF10929604DFCF923041F48132C8F79C
:10105000E0929604815080939704D5CF2091970415
:10106000921778F4803F69F38A3A59F3853549F34A
:10107000E92FF0E0EE5BFB4F818F9F5F909396042A
:10108000C2CF209197049213DCCF8535D1F6F09230
:101090009804B9CF8538B1F0863829F680915F047D
:1010A000809395048091610490E0982F8827209187
:1010B0006004820F911D9093940480939304F092A6
:1010C0009B04B1CF8091600490E0982F88272091F5
:1010D0005F04820F911D90939D0480939C048091E6
:1010E0006104811105C010929E0410929F049BCF51
:1010F000F0929E04FACF809161048E3008F093CF75
:1011000020916004422F50E0542F442720915F0427
:1011100030E02F5F3F4F240F351F90E04091620475
:10112000880F991F41110CC0FC01EE5BFB4F8081C1
:1011300091812817390709F076CFD183C08373CF07
:101140008E5B9B4FFC01318320836DCFEFE5F4E094
:101150008191868F0E171F07D9F710929204F09293
:10116000990461CF80915F0480939504809161041C
:1011700090E0982F882720916004820F911D909312
:10118000940480939304F0929A044DCFDF91CF9111
:101190001F910F91FF90EF90DF9008958CEA94E0FB
:1011A0000E94CF0721E0892B09F420E0822F0895C7
:1011B00089E495E00E94CF0721E0892B09F420E023
:1011C000822F0895FC01A48DA80FB92FB11DA35A39
:1011D000BF4F2C91848D90E001968F739927848F57
:1011E000A689B7892C93A089B1898C91837080647A
:1011F0008C93938D848D981306C00288F389E02D1B
:1012000080818F7D80830895EF92FF920F931F93CB
:10121000CF93DF93EC0181E0888F9B8D8C8D9813A9
:101220001AC0E889F989808185FF15C09FB7F894B5
:10123000EE89FF896083E889F98980818370806401
:1012400080839FBF81E090E0DF91CF911F910F914C
:10125000FF90EF900895F62E0B8D10E00F5F1F4F5B
:101260000F731127E02E8C8D8E110CC00FB607FC6A
:10127000FACFE889F989808185FFF5CFCE010E94F8
:10128000E208F1CFEB8DEC0FFD2FF11DE35AFF4F7C
:10129000F0829FB7F8940B8FEA89FB898081806286
:1012A000CFCFCF93DF93EC01888D8823B9F0AA8943
:1012B000BB89E889F9898C9185FD03C0808186FD11
:1012C0000DC00FB607FCF7CF8C9185FFF2CF808160
:1012D00085FFEDCFCE010E94E208E9CFDF91CF91EB
:1012E000089580E090E0892B29F00E94D8088111B0
:1012F0000E94000080E090E0892B49F080E090E0BF
:10130000892B29F00E94000081110E94000080E0DA
:1013100090E0892B49F080E090E0892B29F00E9431
:10132000000081110E94000080E090E0892B29F0EC
:101330000E94CE0881110C940000089520916C0346
:10134000260F3327331F21323105ECF42091180486
:10135000FC0190E080E0243069F082E00895A091E3
:101360006C032191AC01445B5C4FA40FB52FB11D00
:101370002C930196861798F380916C03680F609305
:101380006C0380E0089581E008951092180481E0D4
:10139000809317041092F20361E084E10E94C80375
:1013A00061E085E10E94C803E9EBF0E080818E7F77
:1013B000808380818D7F808388E48093B80085E47A
:1013C0008093BC000895CF93DF9391E090934B03FB
:1013D0008823B9F0C091B800D091BA008091BC00C8
:1013E0008A7B8093BC0060E084E10E94C80360E0D7
:1013F00085E10E94C8030E94C509D093BA00C0933A
:10140000B800DF91CF910895CF92DF92EF92FF92D3
:101410000F931F93CF93DF93D091410481E0D1329A
:1014200008F09CC0C09140040E94FE046B017C0146
:101430008091180481116CC082E08093180481E0CF
:10144000809317048FEF8093160410921504D093A5
:101450001404A0E2B4E0E4EFF3E080E0D8138DC020
:101460001092F3038091F303CC0FC82BC093F303C6
:101470008091F203813009F084C01092F2030E943F
:10148000FE046B017C018091F3038093BB0080918B
:101490001A0490911B04A0911C04B0911D04892B87
:1014A0008A2B8B2BA1F00E94FE0400911A0410914C
:1014B0001B0420911C0430911D046C197D098E09B8
:1014C0009F09061717072807390708F442C08091BB
:1014D000BC0083FDD8CF85EC8093BC000E94FE0445
:1014E0006B017C0180911804823009F44CC080911A
:1014F00016048F3F09F469C080911604803209F404
:1015000066C080911604803309F463C084E026C06D
:1015100080911A0490911B04A0911C04B0911D04A9
:10152000892B8A2B8B2B09F483CF0E94FE04009118
:101530001A0410911B0420911C0430911D046C1995
:101540007D098E099F09061717072807390708F034
:101550006FCF809119040E94E30985E010921F0467
:101560001092410410921E04DF91CF911F910F91B0
:10157000FF90EF90DF90CF9008959D9191938F5FB2
:101580006DCF85EEA9CF80911A0490911B04A09194
:101590001C04B0911D04892B8A2B8B2B09F4A2CF3C
:1015A0000E94FE0400911A0410911B0420911C0457
:1015B00030911D046C197D098E099F0906171707C4
:1015C0002807390708F08ECFC4CF80E0C7CF82E06C
:1015D000C5CF83E0C3CF0895E091AF038091AE0300
:1015E000E81730F4F0E0E55DFC4F808190E008956D
:1015F0008FEF9FEF08959091AF038091AE032FEF8F
:101600003FEF981748F4E92FF0E0E55DFC4F2081AB
:1016100030E09F5F9093AF03C90108958091AE03BE
:101620009091AF03891B990B0895CF92DF92EF92AF
:10163000FF920F931F93CF93DF937C01CB018A011D
:1016400020911E04222389F0EB016B01C40ED51EEC
:10165000CC15DD0569F06991D701ED91FC91019000
:10166000F081E02DC7011995F3CF642F0E949E09E8
:10167000C801DF91CF911F910F91FF90EF90DF9004
:10168000CF900895CF93DF931F92CDB7DEB76983D4
:1016900020911E042223F9F020914104203258F0B9
:1016A00021E030E0FC013383228390E080E00F9062
:1016B000DF91CF91089580911F04E82FF0E0E05E64
:1016C000FB4F998190838F5F80931F048093410427
:1016D00081E090E0ECCF61E0CE0101960E949E098E
:1016E000F7CF9091F70621E020931E0490934004D9
:1016F00010921F0410924104682F86EE95E00E941C
:10170000420B0C94040A90E080E008958F929F921F
:10171000AF92BF92CF92DF92EF92FF920F931F93FF
:10172000CF93DF93FC012085211110C060E070E0B1
:10173000CB01DF91CF911F910F91FF90EF90DF9040
:10174000CF90BF90AF909F908F900895EC010E9432
:10175000550529852111EACF8C809D80AE80BF8000
:10176000088119812A813B816B017C01C818D90845
:10177000EA08FB08C016D106E206F306B8F6080D23
:10178000191D2A1D3B1D68017901C61AD70AE80AEE
:10179000F90AC701B601CDCFCF92DF92EF92FF9247
:1017A0001F93CF93DF93FC01108511110AC010E045
:1017B000812FDF91CF911F91FF90EF90DF90CF901D
:1017C0000895EC018185882319F018861986F0CFD9
:1017D0000E945505CC80DD80EE80FF806C197D096C
:1017E0008E099F09C880D980EA80FB806C157D0531
:1017F0008E059F0550F7DBCFCF93DF93EC01488335
:1018000059836A837B830E9455056C837D838E8315
:101810009F8381E088871986DF91CF910895FC012D
:1018200083A5882329F081E022A595A1291380E0D2
:101830000895CF92DF92EF92FF920F931F93CF9371
:10184000DF93EC018CA10E949F0321E0892B09F416
:1018500020E02EA30E94550568A379A38AA39BA329
:10186000EEA12FA1E2132DC191E098A798A599238D
:10187000F1F048A159A16AA17BA1088919892A8997
:101880003B89DB01CA01801B910BA20BB30B8C01BE
:101890009D01C880D980EA80FB80C016D106E2068F
:1018A000F30628F4E9A7488B598B6A8B7B8BEFA34F
:1018B0001BA629A58AA52817C1F088A199A1AAA1CC
:1018C000BBA14C895D896E897F89841B950BA60B12
:1018D000B70B4C815D816E817F81481759076A077C
:1018E0007B0718F42AA781E08BA71FA6CE010E94D0
:1018F0000F0C8823B9F088A199A1AAA1BBA1488D9A
:10190000598D6A8D7B8D841B950BA60BB70B4C856F
:101910005D856E857F8584179507A607B70708F450
:10192000D6C018AA88A91BA5811131C011112DC0DC
:101930009AA58DA1981741F1C88CD98CEA8CFB8CA3
:101940008C8D9D8DAE8DBF8D8C199D09AE09BF0903
:10195000488559856A857B85481759076A077B073B
:1019600008F4B8C048A159A16AA17BA14C195D092E
:101970006E097F0981E0CC84DD84EE84FF844C1500
:101980005D056E057F0508F480E08FA788ABCE016A
:101990000E940F0C8823B9F048A159A16AA17BA12C
:1019A000888D998DAA8DBB8D481B590B6A0B7B0BBB
:1019B00081E0CC84DD84EE84FF844C155D056E05EA
:1019C0007F0508F080E08EA71CA6112321F09AA5C0
:1019D0008DA198131DA68DA581111FC011111BC0CB
:1019E0009AA58DA1981378C048A159A16AA17BA19D
:1019F000888D998DAA8DBB8D481B590B6A0B7B0B6B
:101A000081E0C884D984EA84FB84C416D506E6063E
:101A1000F70608F080E08CA78DA7112391F0C8A0ED
:101A2000D9A0EAA0FBA0CC8ADD8AEE8AFF8ACE018B
:101A30000E940F0C882309F451C0C88ED98EEA8EFB
:101A4000FB8EE9A8FAA8E114F10409F44CC0CE0118
:101A50000E940F0C882309F446C08BAD9CADF701A2
:101A60001995EDA9FEA9309741F08CA5882329F09E
:101A7000DE01DF968D919C911995EFA9F8AD309715
:101A800049F08EA5882331F0DE01AF5BBF4F8D9109
:101A90009C911995E9ADFAAD309749F08FA588234F
:101AA00031F0DE01AD5BBF4F8D919C9119958BA5F7
:101AB000DF91CF911F910F91FF90EF90DF90CF902A
:101AC000089518A6688B798B8A8B9B8BCFCE81E08B
:101AD00088AB28CF812F59CF812F9DCFCC8EDD8E23
:101AE000EE8EFF8EAECFEBA9FCA9309709F4B9CFEB
:101AF000112309F4B6CF9AA58DA1981709F4B1CF97
:101B00008DAD9EADADCF0F931F93CF93DF93DC01CF
:101B1000EB014D915D916D917C911397E881E427E4
:101B2000EF7084E0E89FF0011124E85BFD4F059120
:101B300015912591349184E0769567955795479551
:101B40008A95D1F740275127622773274D935D93DC
:101B50006D937C931397E881E295EF70E427EF7023
:101B600084E0E89FF0011124E85BFD4F0591159199
:101B70002591349194E076956795579547959A9578
:101B8000D1F740275127622773274D935D936D93BB
:101B90007C931397DF91CF911F910F9108950F932D
:101BA0001F93CF93DF9320912A032F5F322F37703B
:101BB00030932A0320FF2BC020E831FD20643470CD
:101BC00009F02062205FFC01EC01239600E011E0A7
:101BD0006485662329F070E0C8010E94C42D6F5F00
:101BE0006187822F869F080E80E0811D112481115C
:101BF00010C01682662311F0615061873196EC1790
:101C0000FD0731F7DF91CF911F910F91089520E0EB
:101C1000D4CF81508683EECF4F925F927F928F9286
:101C20009F92AF92BF92CF92DF92EF92FF920F936B
:101C30001F93CF93DF932C01EB010E94FE04F2016E
:101C400027853089621B730B6A307105B0F3F894F5
:101C50008A819B81181619060CF0CBC1E881F981A5
:101C600005B1006175B17F7E75B9BA848F812B2D66
:101C7000281B822F2F834F85042E000C550BAA8121
:101C8000BB81ED84DC84CE84E394D394C3949E81A1
:101C9000388599848B84118120E0F32E622F322FB6
:101CA0003181112788943111380F08F43FEF819565
:101CB0008894E0FC130F17958894E1FC130F179597
:101CC0008894E2FC130F17958894E3FC130F179583
:101CD0008894E4FC130F17958894E5FC130F17956F
:101CE0008894E6FC130F17958894E7FC130F17955B
:101CF0008894232FE110212F8B0D122F002C05B972
:101D000000C017FF75B930812227889400C000C039
:101D1000002C75B93111390F00C0002C05B900C075
:101D200016FF75B908F43FEF9195889400C000C084
:101D3000002C75B9D0FC230F00C0002C05B900C0E1
:101D400015FF75B927958894D1FC230F00C000C0FA
:101D5000002C75B92795889400C0002C05B900C0E7
:101D600014FF75B9D2FC230F2795889400C000C0DA
:101D7000002C75B9D3FC230F00C0002C05B900C09E
:101D800013FF75B927958894D4FC230F00C000C0B9
:101D9000002C75B92795889400C0002C05B900C0A7
:101DA00012FF75B9D5FC230F2795889400C000C099
:101DB000002C75B9D6FC230F00C0002C05B900C05B
:101DC00011FF75B927958894D7FC230F00C000C078
:101DD000002C75B92795889400C0002C05B900C067
:101DE00010FF75B9132FD110122F990D00C000C02C
:101DF000002C75B900C000C0002C05B900C017FF49
:101E000075B932812227889400C000C0002C75B9B2
:101E100031113F0D00C0002C05B900C016FF75B987
:101E200008F43FEFE40FF51F00C000C0002C75B9A7
:101E3000C0FC230F00C0002C05B900C015FF75B908
:101E400027958894C1FC230F00C000C0002C75B9F1
:101E50002795889400C0002C05B900C014FF75B9FF
:101E6000C2FC230F2795889400C000C0002C75B9D0
:101E7000C3FC230F00C0002C05B900C013FF75B9C7
:101E800027958894C4FC230F00C000C0002C75B9AE
:101E90002795889400C0002C05B900C012FF75B9C1
:101EA000C5FC230F2795889400C000C0002C75B98D
:101EB000C6FC230F00C0002C05B900C011FF75B986
:101EC00027958894C7FC230F00C000C0002C75B96B
:101ED0002795889400C0002C05B900C010FF75B983
:101EE000132FC110122FF19400C000C0002C75B93F
:101EF000F80C00C000C005B900C017FF75B93181EA
:101F00002227889400C000C0002C75B93111380F09
:101F100000C0002C05B900C016FF75B908F43FEFEA
:101F20008195889400C000C0002C75B9E0FC230F97
:101F300000C0002C05B900C015FF75B9279588941D
:101F4000E1FC230F00C000C0002C75B927958894D0
:101F500000C0002C05B900C014FF75B9E2FC230FC6
:101F60002795889400C000C0002C75B9E3FC230FAE
:101F700000C0002C05B900C013FF75B927958894DF
:101F8000E4FC230F00C000C0002C75B9279588948D
:101F900000C0002C05B900C012FF75B9E5FC230F85
:101FA0002795889400C000C0002C75B9E6FC230F6B
:101FB00000C0002C05B900C011FF75B927958894A1
:101FC000E7FC230F00C000C0002C75B9279588944A
:101FD00000C0002C05B900C010FF75B9132FE11027
:101FE000122F8B0D00C000C0002C75B9119709F09D
:101FF00086CE4A815B8120EE31E0DA010E94022E1A
:10200000DC01CB01F4E0B695A79597958795FA95F5
:10201000D1F730E020E0B901EAE94E9F040E611DDE
:102020005E9F600D711D1124650F711D860F971F36
:10203000A11DB11D893E43E09407A105B10508F437
:1020400034C0885E9340A109B10942E0B695A795D6
:10205000979587954A95D1F747E0849F080E211DF3
:10206000949F200D311D1124290F311D60912903EA
:1020700070E0860F971F820F931F4091EA035091E3
:10208000EB036091EC037091ED03292F3327420F8E
:10209000531F611D711D4093EA035093EB0360933E
:1020A000EC037093ED038093290378940E94FE045F
:1020B000F201708B6787DF91CF911F910F91FF9095
:1020C000EF90DF90CF90BF90AF909F908F907F90D8
:1020D0005F904F90089581E090E00895249A0895CC
:1020E0006F927F928F92CF92DF92EF92FF920F9337
:1020F0001F93CF93DF93CDB7DEB762970FB6F894F7
:10210000DEBF0FBECDBF6C017A013801822EDC012B
:102110001C962C91CA0157FF04C088279927841B5D
:10212000950B7A8369839C838B839E838D836D86D5
:102130007E868F86213049F5CE0101960E94CF0D13
:1021400083E0888B1A8A198AF7FE02C08DEF888B8C
:10215000D601ED91FC910288F389E02DBE016F5FFD
:102160007F4FC601199562960FB6F894DEBF0FBE79
:10217000CDBFDF91CF911F910F91FF90EF90DF9036
:10218000CF908F907F906F9008951C861B861A8643
:10219000198618861F82D4CFEF92FF920F931F9358
:1021A000CF93DF93CDB7DEB762970FB6F894DEBF5B
:1021B0000FBECDBF7C01DC011C968C917A836983B4
:1021C0005C834B835E834D830D871E872F87813011
:1021D000F9F4CE0101960E94CF0D188A1A8A198A45
:1021E000D701ED91FC910288F389E02DBE016F5F6C
:1021F0007F4FC701199562960FB6F894DEBF0FBEE8
:10220000CDBFDF91CF911F910F91FF90EF90089577
:102210001C861B861A86198618861F82DECFE2EE80
:10222000F8E0108611861092280370E060E08BE0E1
:102230000C942704CF9390910202992309F18823EB
:10224000F9F0C82F80910302882331F18091C803EF
:102250009091C903039751F480914107882399F025
:1022600064EB70E08BE0CF910C94270480914107E0
:10227000882331F089E397E00E94CC0B882361F337
:10228000CF910C940F1180912803C81749F0C09387
:1022900028036C2F70E0E6CF809128038C13F7CFD2
:1022A000CF9108950F931F93CF93DF9300D000D069
:1022B000CDB7DEB78FEF9FEFDC0189839A83AB83C5
:1022C000BC8310E000E01E830D83BE016B5F7F4F77
:1022D000CE0101960E94830DBE016A5F7F4FCE0141
:1022E00001960E94830D0F5F1F4F0530110559F7AE
:1022F0001E830D83BE016B5F7F4FCE0101960E944E
:10230000830DBE016A5F7F4FCE0101960E94830D4F
:1023100069817A818B819C8160957095809590957B
:1023200026960FB6F894DEBF0FBECDBFDF91CF91DA
:102330001F910F9108958091B4039091B503892B5B
:1023400091F08091BA039091BB030197029758F4E2
:102350006091F205062E000C770B8091B6039091E8
:10236000B7030C94030708958091BA039091BB03BF
:102370000197029798F48091B4039091B503892B4B
:1023800059F08091B6039091B703843F21E0920702
:1023900018F064E00E942A070E94DB071092B8033D
:1023A0001092BC0308958091BA039091BB030197EA
:1023B000029748F46091F305062E000C770B83E03A
:1023C00090E00C94030708952091BA033091BB0369
:1023D000215031092230310518F464E00C942A07A9
:1023E000089583E090E00C94E4110F931F93CF9332
:1023F000DF9300D0CDB7DEB7AB0119821A821B8202
:10240000DC01ED91FC910190F081E02D00E010E005
:1024100020E0BE016F5F7F4F19950F900F900F90D6
:10242000DF91CF911F910F910895FC0185859685CD
:102430000895FC019081929F090E90E0911D908378
:10244000FB018081829F080E80E0811D8083FA015C
:102450008081829F080E80E0811D80831124089571
:102460007F928F929F92AF92BF92CF92DF92EF9224
:10247000FF920F931F93CF93DF9300D0CDB7DEB7BA
:10248000B82E83E196E00E94CC0B882309F493C018
:102490002091E7033091E80344E1429FC001439F4C
:1024A000900D112496958795969587954EE150E06D
:1024B000481B590B70E060E083E196E00E94FC0B42
:1024C000809127038E3F18F4815F809327038091CA
:1024D0000102823018F08F5080930102A090010217
:1024E000E0912603F0E0EE0FFF1FE555FD4FC080A1
:1024F000D12C70902703E180F12C8091000286019D
:10250000000F111F4701880C991C882309F464C02F
:102510008B2D0E94080269837A838B83272DAE015D
:102520004D5F5F4FBE016E5F7F4FCE0101960E94EF
:1025300019120C0D1D1DF801E253FC4F89819A817F
:10254000AB8180839183A2838B2D0E9408026983D3
:102550007A838B832A2DAE014D5F5F4FBE016E5F84
:102560007F4FCE0101960E941912F401EE0DFF1D5E
:10257000E253FC4F89819A81AB8180839183A2834E
:102580008FEF781218C080910102811114C08091E0
:10259000000291E089278093000210922703709235
:1025A00001028091260390E001966CE070E00E94A9
:1025B000C42D809326030F900F900F90DF91CF9141
:1025C0001F910F91FF90EF90DF90CF90BF90AF9051
:1025D0009F908F907F9008958B2D0E9408026983B1
:1025E0007A838B832A2DAE014D5F5F4FBE016E5FF4
:1025F0007F4FCE0101960E9419120C0D1D1DF8018E
:10260000E253FC4F89819A81AB8180839183A283BD
:102610008B2D0E94080269837A838B83272D9BCFA1
:1026200090E080E00895FC0164870895FC018485B2
:1026300090E008950F931F93CF93DF938C018091C7
:10264000F70691E090931E048093400410921F04BB
:102650001092410460E086EE95E00E94420BE80192
:10266000005F1F4F699186EE95E00E94420B0C17A8
:102670001D07C1F7DF91CF911F910F910C94040AB0
:1026800080910207882321F081EE96E00C941A13C2
:1026900008958091B4039091B503892BD9F180916D
:1026A000B6039091B703843F21E0920798F121E0AF
:1026B0002093BC032091BA033091BB032150310910
:1026C00022303105F8F42091B90365E0211101C0F1
:1026D00066E00E942A076091F205062E000C770B37
:1026E0008091B6039091B7030E94030761E0809147
:1026F000B6039091B7030E9451070E94DB0781E067
:1027000080939F0440E25EE460E070E085EF95E036
:102710000C94FC0B08959F92AF92BF92CF92DF92E0
:10272000EF92FF920F931F93CF93DF93CDB7DEB756
:102730002C970FB6F894DEBF0FBECDBFF82ED92E62
:10274000962EC42E8091BA039091BB0382309105DE
:1027500009F03EC01416B4F5C12CAC2C0C2C000CA6
:10276000BB08222309F448C06AEB7FEF8F2D9D2D13
:102770000E9403076E2D8F2D9D2D0E94510780EF23
:1027800089838AEA8A838CE08B838AE08C83FD824A
:102790001E82CF82B88609871A871B8685E58C87BB
:1027A0004CE050E0BE016F5F7F4F8CEA94E00E94E6
:1027B000D60665E0911001C066E08F2D9D2D0E9428
:1027C0002A0708C08AEB481744F68AEBC82EC5CF03
:1027D000019719F22C960FB6F894DEBF0FBECDBF4D
:1027E000DF91CF911F910F91FF90EF90DF90CF90ED
:1027F000BF90AF909F900895B5018F2D9D2D0E94A1
:1028000003076E2D8F2D9D2D0E945107D2CFEF9281
:102810000F931F93EE24E39408E813E1282F4091CF
:10282000F30561E083E090E00E948B131F910F910C
:10283000EF900895EF920F931F938091F4058A3BD8
:1028400011F180911E028530C0F510921E02809118
:102850001E0226E4829FC001112464E670E00E94FB
:10286000C42D8AEB860F8093F4052091BA03309132
:10287000BB03215031092230310528F4082E000C09
:10288000990B0E9479078091CC039091CD03892BFD
:1028900081F487E090E00E94E411EE24E39410E0DC
:1028A00000E020E04091F40560E087E090E00E94C5
:1028B0008B131F910F91EF900895855080931E0206
:1028C000C6CFEF920F931F9380911E028036B8F10E
:1028D00084E680931E0280911E0226E4829FC0013E
:1028E000112464E670E00E94C42D66546093F405E0
:1028F0008091CC039091CD03892B81F487E090E007
:102900000E94E411EE24E39410E000E020E0409106
:10291000F40560E087E090E00E948B138091BA0399
:102920009091BB030197029760F48091F405082E03
:10293000000C990B1F910F91EF900C9479078B5F0E
:10294000C8CF1F910F91EF900895EF920F931F93AF
:1029500080911C02853028F510921C0287E090E0DF
:102960000E94E4114091F4054A50EE24E39410E0F3
:1029700000E020E060E087E090E00E948B1380910F
:102980001C0226E4829FC001112464E670E00E94CC
:10299000C42D66546093F2051F910F91EF900C9433
:1029A0009B11855080931C02EACFEF920F931F93E7
:1029B00080911C02803630F184E680931C0287E00F
:1029C00090E00E94E4114091F4054A50EE24E39413
:1029D00010E000E020E060E087E090E00E948B13D0
:1029E00080911C0226E4829FC001112464E670E0FD
:1029F0000E94C42D66546093F2051F910F91EF90D1
:102A00000C949B118B5F80931C02EACFEF920F9383
:102A10001F93CF93DF938091C8039091C9030597CB
:102A2000B1F48091B2039091B303019781F4809146
:102A3000B0039091B1038330910509F46AC068F442
:102A40008130910509F402C1029709F4B5C0DF9104
:102A5000CF911F910F91EF90089584309105D9F196
:102A60000597A9F78091BC03882389F38DE998E045
:102A70000E940F0C882359F32091B9038091BA0367
:102A80009091BB0301970297E8F48091B403909171
:102A9000B503211111C021E02093B90365E0892B12
:102AA000B1F28091B6039091B703DF91CF911F915E
:102AB0000F91EF900C942A071092B903892B39F2E9
:102AC00066E0EFCF211104C081E08093B903BFCF4E
:102AD0001092B903BCCF9091B3078091AE079813C1
:102AE000B6CF8091EF089091F0088130910539F4CC
:102AF000DF91CF911F910F91EF900C94611401968B
:102B000009F0A5CFDF91CF911F910F91EF900C9419
:102B10001A149091B3078091AE07981398CF8091C3
:102B2000EF089091F0088130910579F580911D02B0
:102B3000803638F184E680931D0287E090E00E94A1
:102B4000E411EE24E39410E000E020E04091F3056E
:102B500060E087E090E00E948B1380911D0226E4E4
:102B6000829FC001112464E670E00E94C42D665467
:102B70006093F305DF91CF911F910F91EF900C942B
:102B8000D3118B5F80931D02E8CF019609F05FCFD0
:102B900080911D02853070F410921D0287E090E054
:102BA0000E94E411EE24E39410E000E020E0409164
:102BB000F405CECF8550E6CF8091BC038823E9F0A1
:102BC0008DE998E00E940F0C8823B9F0C091B603FC
:102BD000D091B7032197C43F81E0D80730F4C0916A
:102BE000B403D091B503CD50DE4F0E94B411D09301
:102BF000B703C093B6030E9449138091BC03882396
:102C000009F425CF89E897E00E940F0C882309F486
:102C10001ECFC091B603D091B70321968091B40323
:102C20009091B5038D509E4F8C179D0710F4C4EF03
:102C3000D1E00E94B411D093B703C093B603DF91E3
:102C4000CF911F910F91EF900C9449138DE998E06B
:102C50000E940F0C882331F08091BC03811116C0B3
:102C60000E9449139091B3078091AE079813EFCE5D
:102C70008091EF089091F0088130910551F4DF9137
:102C8000CF911F910F91EF900C94D5140E94B41125
:102C9000E9CF019609F0DBCEDF91CF911F910F9123
:102CA000EF900C94A514E1EEF6E080E1DF011D92B7
:102CB0008A95E9F7CF010C941A13809102078111CC
:102CC0000E945316109200071092FF0682E090E0D7
:102CD0009093100780930F0708950E945D1610923D
:102CE00000071092FF061092FE0610920B0710923A
:102CF0000C071092100710920F070895FF920F9380
:102D00001F93CF93DF93D82F0E946D1610920E075A
:102D100010920D0785E090E09093100780930F07C5
:102D20000DE116E0C0E0F12CD33061F1A8F4D13010
:102D3000E1F0D23009F16C2F8F2D0E94DA02F3946A
:102D40000F5F1F4FFCE1FF12EFCFDF91CF911F917B
:102D50000F91FF900C944013D430C9F0D53059F73F
:102D6000C1E0F801E855FF4F0BC0C1E0F80180ADAC
:102D70008111E1CFC0E0DFCFC1E0F801EC5AFF4F95
:102D80008081F6CFC1E0F801E059FF4FF9CFC1E0F3
:102D9000F801E457FF4FF4CFCF93DF93C82F811191
:102DA00001C0C1E020910F073091100780910D07FD
:102DB00090910E0705970397B8F487E090E02230D2
:102DC000310529F02430310531F486E090E090930C
:102DD0000E0780930D079091E703892F880F880FC6
:102DE000890F8D5F8093FC06232B99F1D091FC060F
:102DF00083E097E00E94860B672B682B692B49F5CF
:102E00006C2F70E088E090E00E94C42D6230710564
:102E100014F462E070E06D1BCCE1C60FE0910D0789
:102E2000F0910E073197E730F10598F48827E45EBA
:102E3000F84E8F4F0C94FA2D2C177B17BE17BE1728
:102E400023179317501787E090E090930E07809315
:102E50000D07DF91CF91089561E08091FF060E94F8
:102E6000DA020E9440138091FF06909100070196BC
:102E7000909300078093FF068C3191052CF01092FF
:102E8000100710920F07E5CF97FD0196959587954E
:102E9000AC014C0F511D052E000C660B770B68C062
:102EA00061E08091FF060E94DA020E944013809147
:102EB000FF06909100070196909300078093FF060C
:102EC0002C2F30E04091FC064817190609F05CF4FD
:102ED00084E090E09093100780930F0723E0C29F57
:102EE000A0011124D8CF97FD0196AC0155954795C7
:102EF000420F531FD0CF60E08091FF060E94DA029C
:102F00000E9440138091FF069091000701979093D3
:102F100000078093FF064C2F440F440F97FF25C0F6
:102F20000E945D16ACCF60E08091FF060E94DA023D
:102F30000E94401380910D0790910E07029711F4A3
:102F4000CC0FCC0F8091FF069091000701979093D2
:102F500000078093FF064C2F97FF07C00E945D1665
:102F600033E0C39FA001112496CF50E070E060E0F1
:102F700083E097E0DF91CF910C94FC0B80910F07D9
:102F8000909110070297029768F00E945D16809159
:102F90000D0790910E070497F1F58091FD06815081
:102FA0008093FE068091FE06811138C082E090E099
:102FB0009093100780930F0761E080E00E94DA028F
:102FC00061E08BE10E94DA0280910D0790910E077B
:102FD000039751F48091FE0660E08F5F0E94DA0251
:102FE00060E08AE10E94DA020E9440139091FE069E
:102FF00020910F07309110072330310509F454C098
:103000009F5F9093FE069091FE06292F2C0F332789
:10301000331FA90140CF1092FE06C4CFD091FD0608
:103020009FEF9D0F891316C023E030E03093100707
:1030300020930F0761E00E94DA0261E08D2F0E9469
:10304000DA0260E08EEF8D0F0E94DA0260E081E02C
:103050008D0FC8CF61E00E94DA029091FE0661E018
:103060008BE1891B0E94DA028091FE0660E08150AC
:103070000E94DA029091FE0660E08CE1891B0E94BA
:10308000DA0280910D0790910E07039709F0ACCFFB
:103090008091FE0660E08F5F0E94DA029091FE064A
:1030A00060E08AE1891B9ECF9150ABCFFC01628129
:1030B00080810C94C8030E946D1685E192E00E9405
:1030C000561889E092E00E9456188CE092E00E9427
:1030D000561882E192E00E94561888E192E00E9420
:1030E00056188FE092E00E94561884E092E00E9409
:1030F0005618EEECF3E0108211821282339683E0D0
:10310000E63EF807C1F780912307811108C040E629
:103110005AEE60E070E08BE197E00C94FC0B0895B0
:10312000EF920F931F9381E090E09093B30380930D
:10313000B20385E090E09093B1038093B003EE2456
:10314000E39410E000E020E04091F30560E080E1CE
:1031500090E00E948B130E945B1882E192E00E9433
:10316000561884E092E00E9456188FE092E00E9488
:10317000561885E192E00E945618EBE1F7E01086C0
:103180001186E1E1F7E0108611868091B0031F916E
:103190000F91EF900C947E16EF920F931F93CF93A5
:1031A000DF93C091C803D091C903209729F0CE01C5
:1031B0000597029708F0C5C089E897E00E940F0CB8
:1031C000882309F4BEC090913D0880913808981377
:1031D00007C03091F8072091F307321709F4B1C006
:1031E0009E012550310922303105F8F03091F80761
:1031F0002091F307321709F4A4C0981709F4A1C06D
:1032000085E090E09093C9038093C8034EE551E0B8
:1032100060E070E08FE297E00E94FC0BDF91CF91BD
:103220001F910F91EF900C949018C530D10509F4BF
:1032300042C0269709F085C00091B2031091B303F4
:103240000130110509F07DC0C091B003D091B103E8
:10325000C530D10509F075C01092C9031092C8039A
:1032600010923707109238070E945D161093B3032F
:103270000093B203D093B103C093B003EE24E39460
:1032800010E000E020E04091F30560E085E090E090
:103290000E948B131092C9031092C8030E945B18FE
:1032A0001092CB031092CA03DF91CF911F910F911F
:1032B000EF900C940F118091B2039091B30301979A
:1032C00009F03FC08091B0039091B1030597C9F513
:1032D0001092C9031092C803109237071092380752
:1032E000EE24E39410E000E020E04091F30560E07C
:1032F00080E190E00E948B131092C9031092C803E2
:103300000E945B188091CC039091CD038130910590
:10331000C1F420910F0730911007232B91F41092E4
:1033200000071092FF061092FE06909310078093FC
:103330000F0710920B0710920C07D0930E07C09343
:103340000D07DF91CF911F910F91EF900895EDE45C
:10335000F7E0108611861092E60380E00E940802D2
:103360006093E3037093E4038093E50388E192E0C4
:103370000C945618FC01618180810C94C803EF9273
:103380000F931F938091EF089091F008009709F434
:1033900064C13091C7082091C208321709F45DC199
:1033A0003091B3072091AE07321709F456C181302E
:1033B000910509F01AC18091B0039091B103833057
:1033C000910509F42BC170F48130910509F452C2C2
:1033D000029709F452C28091B0031F910F91EF90B0
:1033E0000C947E168430910509F42AC1059799F74B
:1033F0008091B2039091B3038330910509F48BC09F
:1034000050F48130910509F428C1029709F444C0B1
:1034100081E090E017C18430910509F4AFC00597B1
:10342000B9F784E090E09093B3038093B20382E114
:1034300092E00E94BA1984E092E00E94BA198FE0EB
:1034400092E00E94BA1985E192E00E94561885E048
:1034500090E00E94E411EE24E39410E000E020E00C
:103460004091F30560E085E090E00E948B138BE0D3
:1034700090E00E94E4118CE090E00E94E4118DE065
:1034800090E00E94E41120E04091F30560E08EE0BE
:1034900090E00E948B133AC081E090E09093B303D8
:1034A0008093B20382E192E00E94561884E092E099
:1034B0000E9456188FE092E00E94561885E192E033
:1034C0000E94561885E090E00E94E411EE24E394F7
:1034D00010E000E020E04091F30560E085E090E03E
:1034E0000E948B1320E04091F30560E08BE090E0B8
:1034F0000E948B138CE090E00E94E4118DE090E03C
:103500000E94E4118EE090E00E94E4118FE090E0D0
:103510000E94E4117DCF82E090E09093B30380930A
:10352000B20382E192E00E94BA1984E092E00E9424
:1035300056188FE092E00E94561885E192E00E94B2
:10354000561885E090E00E94E411EE24E39410E028
:1035500000E020E04091F30560E085E090E00E940B
:103560008B138BE090E00E94E41120E04091F30582
:1035700060E08CE090E00E948B13C0CF83E090E08D
:103580009093B3038093B20382E192E00E94BA1950
:1035900084E092E00E94BA198FE092E00E945618EF
:1035A00085E192E00E94561885E090E00E94E411C7
:1035B000EE24E39410E000E020E04091F30560E0A9
:1035C00085E090E00E948B138BE090E00E94E41174
:1035D0008CE090E00E94E41120E04091F30560E06F
:1035E0008DE090E00E948B138DCF0196B1F5809114
:1035F000B0039091B1038330910509F43BC138F4D5
:103600008130910571F0029709F402CFE4CE843045
:10361000910509F432C1059709F0DDCE84E090E010
:1036200011C08091B2039091B3038330910509F4E6
:10363000A7C068F481309105A1F0029709F45CC03D
:1036400085E090E09093B1038093B003C4CE8430C2
:10365000910509F4D0C0059799F71F910F91EF904C
:1036600008958091CC039091CD03019731F480911E
:10367000C8039091C903059781F382E090E090938D
:10368000B3038093B20382E192E00E94BA1984E00E
:1036900092E00E9456188FE092E00E94561885E151
:1036A00092E00E94561885E090E00E94E411EE241A
:1036B000E39410E000E020E04091F30560E085E055
:1036C00090E00E948B138BE090E00E94E41120E0D8
:1036D0004091F30560E08CE090E00E948B138DE058
:1036E00090E00E94E4118EE090E00E94E4118FE0EF
:1036F00090E00E94E411A4CF8091CC039091CD037F
:10370000892B39F48091C8039091C903059709F476
:10371000A4CF83E090E09093B3038093B20382E15F
:1037200092E00E94BA1984E092E00E94BA198FE0F8
:1037300092E00E94561885E192E00E94561885E0BA
:1037400090E00E94E411EE24E39410E000E020E019
:103750004091F30560E085E090E00E948B138BE0E0
:1037600090E00E94E4118CE090E00E94E41120E0DF
:103770004091F30560E08DE090E00E948B13B3CFA1
:1037800084E090E09093B3038093B20382E192E0EF
:103790000E94BA1984E092E00E94BA198FE092E088
:1037A0000E94BA1985E192E00E94561885E090E0E7
:1037B0000E94E411EE24E39410E000E020E0409148
:1037C000F30560E085E090E00E948B138BE090E0D1
:1037D0000E94E4118CE090E00E94E4118DE090E002
:1037E0000E94E41120E04091F30560E08EE090E05B
:1037F0000E948B137CCF85E090E09093B30380937D
:10380000B20382E192E00E94BA1984E092E00E9441
:10381000BA198FE092E00E94BA1985E192E00E9405
:10382000BA1985E090E00E94E411EE24E39410E0E0
:1038300000E020E04091F30560E085E090E00E9428
:103840008B138BE090E00E94E4118CE090E00E94EA
:10385000E4118DE090E00E94E4118EE090E00E947F
:10386000E41120E04091F30560E08FE090E00E94D9
:103870008B13E6CE82E090E0E5CE83E090E0E2CEEE
:103880001092C9031092C8031092C4031092C3038C
:103890001092C1038CE092E00E94BA1988E192E094
:1038A0000E945618E1E6F7E0108611861092C203D6
:1038B0001092C003EFE7F7E0108611860895EF92AB
:1038C0000F931F938091C603882361F086E090E0F8
:1038D0000E94E41185E090E00E94E41185E090E010
:1038E0000E94E41181E090E00E94E4112091C8035D
:1038F0003091C9038091C6032430310509F049C0D5
:1039000081114DC08091C703811149C01092CD0330
:103910001092CC031092C9031092C8030E94F111B7
:103920000E940F118091C40381110E94401C1092CB
:10393000C50310921B0610921C06109237071092B6
:10394000380710924B0710924C07109241071092C3
:1039500042071092690710926A0710925F0710924F
:1039600060078091CC039091CD03892B71F40E9464
:103970005B1840E65AEE60E070E08BE197E00E9451
:10398000FC0B1092CB031092CA031F910F91EF9082
:1039900008958111C3CF8091C7038111BFCF1092C9
:1039A000CD031092CC031092C9031092C8038091EA
:1039B000C703882321F00E94A7191092C70382E051
:1039C00090E00E94E411EE24E39410E000E020E097
:1039D0004091F30560E082E090E00E948B139ECF5F
:1039E000EF920F931F930E945F1C82E090E09093F0
:1039F000CD038093CC0384E090E09093C90380933F
:103A0000C8038091C703811134C040E456E060E0F0
:103A100070E081E697E00E94FC0B40E951E060E035
:103A200070E087E597E00E94FC0B4EE551E060E016
:103A300070E08FE297E00E94FC0BEE24E39410E02C
:103A400000E020E04091F30560E086E090E00E9415
:103A50008B1320E04091F30560E085E090E00E9448
:103A60008B1320E04091F30560E085E090E00E9438
:103A70008B131F910F91EF900895EF920F931F9367
:103A80008091CC039091CD03029709F44BC082E161
:103A900092E00E94BA1985E192E00E94BA1942E9C7
:103AA00050E060E070E085E797E00E94FC0B8FE05B
:103AB00092E00E94BA191092690710926A07109258
:103AC0005F071092600781E090E00E94E411EE240D
:103AD000E39410E000E020E04091F30560E081E035
:103AE00090E00E948B1381E00E94071480910F07E1
:103AF00090911007892BB1F4109200071092FF06E5
:103B00001092FE0681E090E09093100780930F07DB
:103B100010920B0710920C0785E090E090930E072F
:103B200080930D071F910F91EF900895CF93DF932E
:103B3000EC0161E088810E94F6036A818881DF914F
:103B4000CF910C94C8030E94372E85ED8093BC0062
:103B500080911A0490911B04A0911C04B0911D0443
:103B60000796A11DB11D23E0B695A795979587955A
:103B70002A95D1F72091BC0024FD03C010921804AF
:103B8000089540911A0450911B0460911C04709197
:103B90001D04452B462B472B69F30097A105B10562
:103BA00041F02AE22A95F1F700C00197A109B10975
:103BB000E1CF809119040C94E3091F920F920FB684
:103BC0000F9211242F933F938F939F93AF93BF93A3
:103BD0008091EA039091EB03A091EC03B091ED0387
:103BE0003091E90323E0230F2D3758F50196A11DED
:103BF000B11D2093E9038093EA039093EB03A09314
:103C0000EC03B093ED038091EE039091EF03A0914C
:103C1000F003B091F1030196A11DB11D8093EE0355
:103C20009093EF03A093F003B093F103BF91AF9192
:103C30009F918F913F912F910F900FBE0F901F90EA
:103C4000189526E8230F0296A11DB11DD2CF1F9211
:103C50000F920FB60F9211240BB60F922F933F9332
:103C60004F935F936F937F938F939F93AF93BF9384
:103C7000EF93FF938CEA94E00E94E208FF91EF91AA
:103C8000BF91AF919F918F917F916F915F914F9174
:103C90003F912F910F900BBE0F900FBE0F901F9072
:103CA00018951F920F920FB60F9211240BB60F9218
:103CB0002F938F939F93EF93FF93E091BC04F09128
:103CC000BD048081E091C204F091C30482FD1DC057
:103CD00090818091C5048F5F8F732091C6048217F5
:103CE00041F0E091C504F0E0E455FB4F958F8093DF
:103CF000C504FF91EF919F918F912F910F900BBE73
:103D00000F900FBE0F901F9018958081F2CF1F92D9
:103D10000F920FB60F9211240BB60F922F933F9371
:103D20004F935F936F937F938F939F93AF93BF93C3
:103D3000EF93FF9389E495E00E94E208FF91EF91F1
:103D4000BF91AF919F918F917F916F915F914F91B3
:103D50003F912F910F900BBE0F900FBE0F901F90B1
:103D600018951F920F920FB60F9211240BB60F9257
:103D70002F938F939F93EF93FF93E0915905F091C9
:103D80005A058081E0915F05F091600582FD1DC0BC
:103D90009081809162058F5F8F73209163058217F8
:103DA00041F0E0916205F0E0E75BFA4F958F809378
:103DB0006205FF91EF919F918F912F910F900BBE14
:103DC0000F900FBE0F901F9018958081F2CF1F9219
:103DD0000F920FB60F9211240BB60F922F933F93B1
:103DE0004F935F936F937F938F939F93AF93BF9303
:103DF000EF93FF938091B900887F803609F44DC01E
:103E000008F040C0883209F4A9C028F5803109F4CF
:103E10009DC0C8F4882309F4FBC0883009F496C01B
:103E2000FF91EF91BF91AF919F918F917F916F9192
:103E30005F914F913F912F910F900BBE0F900FBE4E
:103E40000F901F901895883109F488C0803241F78F
:103E50008093160414C0803409F49DC040F480336C
:103E6000B9F38833E9F68093160485ECB0C0803549
:103E700009F485C0883509F496C0883489F60E9413
:103E8000A51DCECF883909F48CC038F5883729F0C4
:103E900050F4883611F0803719F683E080931804C7
:103EA00010928E0357C0883809F47BC0803919F00E
:103EB000803809F0B5CF80918E03803208F071C050
:103EC000E0918E0381E08E0F80938E038091BB0082
:103ED000F0E0E259FC4F80833DC0803B39F0E0F4D4
:103EE000803A09F479C0883A09F09ACF84E0809347
:103EF000180410926D0310926C03E091AC03F091E2
:103F0000AD03199580916C0381110FC081E08093FE
:103F10006C0310924C0309C0803C09F4A6CF883C86
:103F200009F4A3CF883B09F07BCFE0916D0381E0DA
:103F30008E0F80936D03F0E0E45BFC4F80818093F3
:103F4000BB0090916D0380916C0329C08091F303B5
:103F50008093BB0085EC8093BC0062CF90911504E8
:103F600080911404981758F5E091150481E08E0FA4
:103F700080931504F0E0EC50FC4F8081E9CFE09194
:103F8000150481E08E0F809315048091BB00F0E052
:103F9000EC50FC4F80839091150480911404981785
:103FA000C8F285E8D8CFE091150481E08E0F8093A8
:103FB00015048091BB00F0E0EC50FC4F80838091B1
:103FC000170481115CCF81E08093F20384EA80932F
:103FD000BC001092180424CF85EC8093BC00109292
:103FE000180480918E03803230F4E0918E03F0E06B
:103FF000E259FC4F108260918E0370E0E091AA03B9
:10400000F091AB038EE693E0199510928E0308CFE2
:104010001092160434CFFC01108614821582168289
:104020001782118610821182128213820895CF9313
:10403000DF93EC01862F4AE050E060E070E04883B7
:1040400059836A837B8342E350E060E070E04C83F5
:104050005D836E837F834CE251E060E070E04887CF
:1040600059876A877B874AEF50E060E070E04C87B1
:104070005D876E877F878CA31DA21AAA19AA1CAA26
:104080001BAA1EAA1DAA18AE1FAA1AAE19AE1CAEF4
:104090001BAE1EAE1DAEFE01FF961182108232963F
:1040A0001182108232961182108262E00E94F60321
:1040B0000E9455056C8B7D8B8E8B9F8B8CA10E94F3
:1040C0009F0321E0892B09F420E02AA781E088AB37
:1040D000CE01DF91CF910C94190CECEAF4E013823D
:1040E000128288EE93E0A0E0B0E084839583A683FB
:1040F000B78325E033E03183208345E351E05587E2
:10410000448744E351E05787468740E351E0518BB1
:10411000408B41E351E0538B428B42E351E0558B9E
:10412000448B46E351E0578B468B118E128E138ED3
:10413000148EE9E4F5E01382128284839583A683CA
:10414000B7833183208325EC30E03587248724EC46
:1041500030E03787268720EC30E0318B208B21EC54
:1041600030E0338B228B22EC30E0358B248B26EC35
:1041700030E0378B268B118E128E138E148EE6EE66
:10418000F5E01382128284839583A683B78387E147
:1041900093E09183808381EF98E00E940B20ECEE06
:1041A000F8E010821282118282EE98E00E940B20C9
:1041B00062E08DE998E00E94172063E088E598E0CE
:1041C0000E94172066E383E198E00E94172064E0D4
:1041D0008EEC97E00E9417206CE389E897E00E943C
:1041E00017208FE797E00E940B2085E797E00E9459
:1041F0000B208BE697E00E940B2081E697E00E945F
:104200000B2087E597E00E940B208DE497E00E9449
:104210000B2083E497E00E940B2089E397E00E9443
:104220000B208FE297E00E940B2085E297E00E942E
:104230000B208BE197E00E940B2081E197E00E9428
:104240000B208CE1EFE1F2E0ADE1B6E001900D92E0
:104250008A95E1F78CE1EBE3F2E0A9E3B6E00190A7
:104260000D928A95E1F79AE1E7E5F6E0DF01892F03
:104270001D928A95E9F7EDE1F6E081E080AF81AF2C
:1042800082AFE3E7F6E0DF011D929A95E9F78093AC
:1042900071068093720680838093770680937806F8
:1042A000809379068CE1E7E5F2E0ADE8B6E00190B5
:1042B0000D928A95E1F78CE1E3E7F2E0A9EAB6E036
:1042C00001900D928A95E1F78CE1EFE8F2E0A5EC20
:1042D000B6E001900D928A95E1F78CE18093FC069F
:1042E0008EE08093FD061092FE0610920007109259
:1042F000FF06109201071092020783E097E00E94E8
:104300000B2010920E0710920D07109210071092BA
:104310000F0783E196E00E940B2089E096E00E945F
:104320000B208FEF95E00E940B2085EF95E00E9417
:104330000B2080911E0246E4849FC001112424E6D4
:1043400030E0B9010E94C42D66546093F405809159
:104350001D02849FC0011124B9010E94C42D66541E
:104360006093F30580911C02849FC0011124B90160
:104370000E94C42D66546093F205EBEFF8E08FEFD6
:10438000808312821182148613868FEF9FEFDC01E7
:1043900087839087A187B2870895CF93DF93CDB7A6
:1043A000DEB769970FB6F894DEBF0FBECDBF789425
:1043B00084B5826084BD84B5816084BD85B582602A
:1043C00085BD85B5816085BD80916E0081608093DB
:1043D0006E00109281008091810082608093810044
:1043E0008091810081608093810080918000816054
:1043F000809380008091B10084608093B1008091AF
:10440000B00081608093B0008091910082608093C1
:104410009100809191008160809391008091900043
:104420008160809390008091A10082608093A100C0
:104430008091A10081608093A1008091A0008160A3
:104440008093A0008091210182608093210180915E
:1044500021018160809321018091200181608093FE
:10446000200180917A00846080937A0080917A00A4
:10447000826080937A0080917A00816080937A00D4
:1044800080917A00806880937A001092C100E09158
:104490005905F0915A0502E00083E0915505F0912D
:1044A00056051082E0915705F09158058FEC8083F6
:1044B00010926105E0915D05F0915E0516E01083B4
:1044C000E0915B05F0915C05808180618083E091E3
:1044D0005B05F0915C05808188608083E0915B05DD
:1044E000F0915C05808180688083E0915B05F091AC
:1044F0005C0580818F7D808368EE73E080E090E0D2
:104500000E9423051092990410929A0410929B0421
:10451000E091BC04F091BD040083E091BC04F091F3
:10452000BD041082E091B804F091B9041082E091CA
:10453000BA04F091BB0480E180831092C404E0913E
:10454000C004F091C1041083E091BE04F091BF0457
:10455000808180618083E091BE04F091BF048081FE
:1045600088608083E091BE04F091BF048081806800
:104570008083E091BE04F091BF0480818F7D8083B1
:10458000109296041092970410929804E2E4F4E0DA
:104590008EE594E02FEF3FEF219331938E179F0725
:1045A000D9F78CEA94E00E94CF07892B29F08CEA96
:1045B00094E00E94AD07F5CF10EFF12EF9820AEAE0
:1045C0000A8385E0D82EDB82CC24C394CC8215E507
:1045D0001D8345E050E0BE016F5F7F4F8CEA94E0A1
:1045E0000E94D606F9820A83DB8282E08C831D83D7
:1045F00045E050E0BE016F5F7F4F8CEA94E00E947F
:10460000D6066AE070E080E090E00E942305F9821F
:104610000A83DB8284E08C831D8345E050E0BE0189
:104620006F5F7F4F8CEA94E00E94D606F9820A837E
:1046300087E08B838CE08C831D821E821F8347E082
:1046400050E0BE016F5F7F4F8CEA94E00E94D60677
:104650008AEB9FEF0E947907F9820A8396E0B92ED0
:10466000BB8289E08C83CD821E8346E050E0BE0190
:104670006F5F7F4F8CEA94E00E94D606F9820A832E
:10468000BB828EE08C83CD821E8346E050E0BE016B
:104690006F5F7F4F8CEA94E00E94D6066EE571E072
:1046A00080E090E00E9423050E94DB07809199043E
:1046B000882309F42CC3AEE7B4E0FE013196CE01A5
:1046C00045962D9121938E179F07D9F70E94DB07FE
:1046D00080919A048823C1F00E94DB0780919304A3
:1046E000909194049C01225131093093B503209399
:1046F000B40343978738934108F042C384EF91E0B5
:104700009093B7038093B60382E090E09093BB034D
:104710008093BA038091B100887F86608093B10056
:104720008091A203811145C01092940310929303CB
:104730008FEF8093970380939803809399038093DE
:104740009A0380939B0380939C0381E080939D0355
:1047500010929F0310929E0310929603109295035D
:104760008091A6049091A704892B31F481E993E00C
:104770009093A7048093A604E0918F03F091900397
:10478000309721F081E993E09583848381E993E078
:104790009093900380938F031092A1031092A00333
:1047A0008DED92E0909392038093910381E080934A
:1047B000A203249A8EEC93E0909394038093930346
:1047C00088E090E090939F0380939E038091FE0881
:1047D0009091FF08A0910009B0910109843CF9E093
:1047E0009F07A105B10520F484EC99E0A0E0B0E0BA
:1047F0008093FE089093FF08A0930009B0930109ED
:1048000081E090E09093B3038093B20325E030E021
:104810003093B1032093B0039093E8038093E703B0
:1048200085EC96E0909300088093FF0710920A08A9
:10483000109209088BEC96E0909345088093440809
:1048400010924F0810924E0880910101877F80934B
:104850000101809102018860809302018091010131
:104860008F7E80930101809102018061809302011B
:104870001092F0081092EF086AE070E080E090E09B
:104880000E9423051092AF031092AE030E94C50947
:1048900081ED96E09093AD038093AC0382ED96E0BA
:1048A0009093AB038093AA038CE08093B80000E060
:1048B00011E0FF24F394F0921E0410934004109230
:1048C0001F04109241040E94040A811101C00F5F6D
:1048D0001F5F1F3781F7002309F461C281E08093D5
:1048E000020780910207882339F180E78093F70659
:1048F0001092AF031092AE0310921F041092410465
:104900000E94C50981ED96E09093AD038093AC03BE
:1049100082ED96E09093AB038093AA0381E20E941C
:10492000710B81E80E94710B80EA0E94710B8FEE7F
:104930000E94710B0E945316109201070E946D167F
:1049400082E192E00E94961D85E192E00E94961D10
:104950008FE092E00E94961D84E092E00E94961DF6
:1049600089E092E00E94961D8CE092E00E94961DE4
:1049700088E192E00E94961D61E08BE00E94F603C0
:104980001092CD031092CC031092C9031092C80369
:104990001092BF031092BE038CEF9FE00E949E2DE9
:1049A0008E8B8DEF9FE00E949E2D8F8B8EEF9FE070
:1049B0000E949E2D888F8FEF9FE00E949E2D898FF1
:1049C0000E9452110E891F89288D398D6017710739
:1049D0008207930709F0F4C1CE0101966C0110E043
:1049E00000E0C8010E949E2DF60181936F010F5FC8
:1049F0001F4F05301105A9F789819FEF980F9E3F42
:104A000030F4813009F4CEC181E0809308028A81BC
:104A10009FEF980F9E3F30F4813009F4C6C181E0CA
:104A2000809307028C819FEF980F943668F48093EF
:104A30001E02F6E48F9FC001112464E670E00E941C
:104A4000C42D66546093F4058D819FEF980F9E3FAF
:104A500050F4823009F4ACC110920302833009F0A3
:104A6000ADC11092020240E050E0BA0185E297E049
:104A70000E94FC0B44EF51E060E070E08BE697E0B1
:104A80000E94FC0B40911B0250E070E060E081EF5F
:104A900098E00E94FC0B40ED57E060E070E089E098
:104AA00096E00E94FC0B8091BA039091BB030197A2
:104AB000029738F48091F405082E000C990B0E949F
:104AC00079070E945B18EE24E39410E000E020E0F8
:104AD0004091F30560E082E190E00E948B13109218
:104AE00000071092FF061092FE0681E090E090937E
:104AF000100780930F0710920B0710920C0710E01D
:104B000061E0812F0E94DA021F5F1C31C9F784E047
:104B100090E09093100780930F070E94401382E16A
:104B200092E00E94BA1964E670E080E090E00E9492
:104B3000230585E192E00E94BA1964E670E080E006
:104B400090E00E9423058CE092E00E94BA1964E68E
:104B500070E080E090E00E94230584E092E00E94F3
:104B6000BA1964E670E080E090E00E9423058FE0CF
:104B700092E00E94BA1964E670E080E090E00E9442
:104B8000230588E192E00E94BA1964E670E080E0B3
:104B900090E00E94230510E000E06801CC0CDD1CD1
:104BA000C00ED11EC60182539C4F6C0185E00E944D
:104BB0000802F6016083718382838091FB080E9462
:104BC000610564E670E080E090E00E9423050F5FDD
:104BD0001F4F0730110509F781E00E94080260931A
:104BE000E3037093E4038093E5038091FB080E9444
:104BF000610560E273E080E090E00E9423050E947E
:104C00005B180E94401345E5F42ECC24C394D12CAC
:104C100062E0862E912C73E0A72EB12CE4E06E2E7C
:104C2000712CF6E02F2E312CAEE14A2E512C009142
:104C3000BA031091BB03015011090230110510F4A1
:104C40000E94DB0789E096E00E94CC0B882309F4E0
:104C500023C18091070681111FC10230110508F0A0
:104C60001BC140ED57E060E070E089E096E00E94F3
:104C7000FC0B9091B6038091B703F0EFF9832AEA19
:104C80002A83E7E0EB83F0E1FC839D838E83FF8240
:104C900047E050E0BE016F5F7F4F8CEA94E00E94D6
:104CA000D6068091BC03882309F4F6C08091B9032D
:104CB0008111F2C08091B8038111EEC00091BA0356
:104CC0001091BB03015011090230110508F0B0C06A
:104CD0002091B6033091B70380919C0490919D047C
:104CE0002817390709F0A4C080919E04882309F48D
:104CF0009FC085EF95E00E94CC0B882309F4CCC0BF
:104D000040E45FE160E070E085EF95E0C3C0F982C8
:104D10000A83DB8281E18C831D8345E050E0BE0184
:104D20006F5F7F4F8CEA94E00E94D6066EE571E0DB
:104D300080E090E00E9423050E94DB0780919B04A5
:104D4000882341F181E090E09093BB038093BA0304
:104D50000E94DB0780919304909194049C0122515E
:104D600031093093B5032093B403439787389341B7
:104D700060F484EF91E09093B7038093B603CACCBC
:104D80001092B5031092B403BFCC1092B5031092E9
:104D9000B403C0CC1092BB031092BA03BBCC1092E8
:104DA00002079FCD1092080232CE109207023ACE2F
:104DB00081E0809303028093020255CE81E0FBCF15
:104DC000EE24E39410E000E020E04091F30560E081
:104DD00088E090E00E948B13C8010E949E2D8823DA
:104DE00021F060E0C8010E94A62D0F5F1F4F053023
:104DF000110591F70E94521169837A838B839C83FA
:104E0000CE0101966C010CEF1FE0F601F1906F01ED
:104E1000C8010E949E2DF81621F06F2DC8010E9436
:104E2000A62D0F5F1F4F0115F0E11F0771F71BCE75
:104E300085EF95E00E94CC0B882309F45ACF02300D
:104E4000110520F480919F04811153CF1092110617
:104E5000109212061092FD051092FE050E94B411E8
:104E60008091B6039091B70301962091B4033091DD
:104E7000B5032D503E4F2817390710F484EF91E009
:104E80009093B7038093B60344EF51E060E070E085
:104E90008FEF95E00E94FC0B8FEF95E00E94CC0B0A
:104EA000882371F0109207061092080640ED57E033
:104EB00060E070E089E096E00E94FC0B0E944913DC
:104EC0008DE998E00E94190C88E598E00E94190C81
:104ED0008EEC97E00E94190C83E198E00E94190C77
:104EE00089E897E00E94190C8091EC08880F880FE0
:104EF0008093EC089091000194FF03C0826080933E
:104F0000EC088091000183FF05C08091EC0881606E
:104F10008093EC082091EC082F702093EC08422F2E
:104F200050E0FA01EF50FD4F8081882309F47BC0E7
:104F30008091ED089091EE0834E0880F991F3A9522
:104F4000E1F7822B952B9093EE088093ED0899273B
:104F50008B32910519F0479709F065C0273009F0A9
:104F600058C0D092F008C092EF088091EF0890915D
:104F7000F008009771F02091CC033091CD032130DF
:104F8000310509F488C008F453C02230310509F412
:104F900076C082EE98E00E94CC0B882309F433C1DE
:104FA0000E940F118091CC039091CD038130910527
:104FB00009F407C208F432C1029709F487C180914D
:104FC000C8039091C903039709F0B8C38FE797E02E
:104FD0000E94CC0B882309F427C40E94A719809152
:104FE000E7039091E80348E151E060E070E083302E
:104FF000910509F415C408F005C44CE251E060E0E5
:1050000070E0029709F40CC440E451E060E070E005
:1050100007C42B3009F0A9CFEFEFFFEFF093F008B2
:10502000E093EF08A2CF1092F0081092EF089DCF06
:105030002091BC03222361F02091C8033091C90361
:105040002530310529F08130910579F40E94D5147D
:105050008091C8039091C9038530910559F0069756
:1050600009F097CF0E94BF1994CF019689F70E944B
:10507000A514EECF0E94BF190E9406158ACF813079
:10508000910519F40E94611484CF019609F081CF33
:105090000E941A147ECF8091C8039091C90305978E
:1050A00099F49091C7088091C208981769F090917F
:1050B000F8078091F307981739F090913D08809197
:1050C000380898130E94BF198091C8039091C903B2
:1050D000892B09F05ECF9091820880917D0898130A
:1050E0003BC090913D0880913808981335C090914D
:1050F000F8078091F30798132FC08091EF089091E3
:10510000F0088130910509F054C08091E703909137
:10511000E8038330910509F467C0C8F48130910534
:1051200009F467C0029709F469C0EE24E39410E023
:1051300000E020E04091F30560E085E090E00E940F
:105140008B130E94F11180E00E94071405C0843087
:10515000910541F1059749F79091C7088091C208E0
:10516000981317CF9091820880917D08981311CFE2
:105170009091F8078091F307981709F40ACF90915E
:105180003D0880913808981709F403CF8091EF0803
:105190009091F0088130910509F474CF019609F0DF
:1051A000F8CE76CF85E090E09093E8038093E70314
:1051B000BCCF019689F68091E7039091E803833094
:1051C0009105B9F058F48130910531F2029709F058
:1051D000ACCFD092E803C092E703A7CF843091050B
:1051E00069F0059709F0A1CF7092E8036092E70398
:1051F0009CCF9092E8038092E70397CFB092E803A8
:10520000A092E70392CF8091EA08882309F4CACEDE
:1052100066E970E08BE00E942704C4CE9091C70835
:105220008091C208981709F40AC41092CB03109217
:10523000CA030E94CC189091820880917D0898132F
:105240000AC08091C8039091C903892B21F49092E0
:10525000C9038092C8038091C8039091C903892B28
:1052600009F0ADCE80912307882309F467C28BE152
:1052700097E00E94860B672B682B692B09F05EC2B2
:1052800080911907811116C048EE53E060E070E08C
:1052900081E197E00E94FC0B81E197E00E94860B80
:1052A000643F71408105910560F485E192E00E94C0
:1052B000561885CE81E197E00E94CC0B8111E4CF96
:1052C000EBCF85E192E00E94BA1979CE87E597E0AD
:1052D0000E94860B683C71058105910508F060C04D
:1052E00085E192E00E94561882E192E00E945618F1
:1052F0008FE092E00E9456188CE092E00E945618CF
:1053000087E597E00E94CC0B882301F140E951E04A
:1053100060E070E087E597E00E94FC0B8091C70396
:10532000811114C0EE24E39410E000E020E04091ED
:10533000F30560E086E090E00E948B1320E040914E
:10534000F30560E085E090E00E948B1381E697E032
:105350000E94CC0B8823C1F08091C70381110CC03F
:10536000EE24E39410E000E020E04091F30560E0DB
:1053700085E090E00E948B1340E456E060E070E02E
:1053800081E697E00E94FC0B9091820880917D0855
:10539000981709F414CE1092C6030E945F1C0FCE1A
:1053A00085E192E00E94BA1982E192E00E94BA1966
:1053B0008FE092E00E94BA198CE092E00E94BA1944
:1053C0009FCF80916907811108C080915F0781118B
:1053D00004C08CE092E00E94BA1985E797E00E9431
:1053E000CC0B882359F18091790790917A07A0918D
:1053F0007B07B0917C0740917507509176076091CB
:10540000770770917807840F951FA61FB71F8093A9
:10541000790790937A07A0937B07B0937C0781E08C
:1054200080937D0710927E0780910F020E949F0358
:10543000811145C08FE092E00E9456188091C80308
:105440009091C903039771F08091E7039091E8036D
:105450008330910509F441C0B8F50297E1F181E488
:105460000E941A110E94CC189091F8078091F307BE
:10547000981368C080910702882309F45EC0809168
:10548000C8039091C903039761F570E060E08091D3
:1054900004020E9427042091C8033091C90390910F
:1054A000820880917D082530310509F445C198179F
:1054B00009F44DC0D092C903C092C80380CD8FE0DB
:1054C00092E00E94BA19BACF8430910541F0059755
:1054D00031F68AE5C5CF86E4C3CF8BE4C1CF8DE436
:1054E000BFCF80914107882331F089E397E00E9484
:1054F000CC0B882351F2809104022091E703309174
:10550000E80360EA70E02330310519F248F46EEBED
:1055100070E02230310509F4BCCF6CED70E0B9CFFA
:1055200062E870E02430310509F4B3CF64E670E03E
:105530002530310509F4ADCFF0CF84E092E00E9430
:10554000BA19A9CF84E092E00E945618A4CF8091A6
:10555000C503873090F184E090E00E94E41181E07F
:105560008093C7030E94F01C8091E7039091E803A9
:1055700040EA5FE060E070E083309105C9F058F4E4
:105580004CEA5DE060E070E0029791F048EB5BE090
:1055900060E070E00DC044E951E160E070E084300B
:1055A000910531F048E853E160E070E0059771F74C
:1055B00085E297E00E94FC0B02CD9091C708809194
:1055C000C208981331C090913D0880913808981313
:1055D0002BC09091F8078091F307981325C02330D2
:1055E000310521F0B092C903A092C80385E297E08B
:1055F0000E94860B672B682B692B51F41092C50310
:1056000040ED57E060E070E085E297E00E94FC0B1F
:105610008091C303811105C08091C5038F5F809382
:10562000C50381E08093C3038091BE039091BF03C3
:105630003091B3072091AE070097A9F54091C803B8
:105640005091C9034330510571F5321303C081E015
:105650008093C1039091C7088091C208981791F078
:105660008091C403882371F08091C303882351F093
:105670008091C103811104C01092C9031092C80324
:105680001092C3039091B3078091AE07981709F465
:1056900096CC8091BE039091BF03892B09F08FCCEB
:1056A0001092BD038CCC3213D5CF30913D082091A0
:1056B00038083213CFCF3091F8072091F307321317
:1056C000C9CF892B39F68091BD038111C3CF83E403
:1056D00097E00E94860B672B682B692B09F0BACFE5
:1056E00040ED57E060E070E083E497E00E94FC0B3F
:1056F00083E080931B020E94A719E12C10E000E0D8
:1057000020E04091F30560E084E090E00E948B137C
:1057100048E250E060E070E08DE497E00E94FC0B0E
:105720004EE551E060E070E089E397E00E94FC0BF9
:1057300081E08093BD038ECF9813BCCE85E297E0C5
:105740000E94860B672B682B692BA1F41092C5036E
:105750008091C703882371F01092C703D092CD03C4
:10576000C092CC031092C9031092C8030E943D1D41
:105770000E945D168091C8039091C9038230910503
:1057800011F188F40197C1F08091C403882309F4D2
:105790008FC18091C8039091C903039709F488C110
:1057A0000E94401C85C18330910509F40FCC0597F8
:1057B00059F70E940615E8CF1092C7030E945F1C9C
:1057C0000E946D16E1CF90913D08809138089813A2
:1057D0000EC080910802882351F081E08093C603B7
:1057E0000E94F01C1092C7030E943D1DCDCFD092A5
:1057F000CD03C092CC031092C9031092C80310923B
:10580000C503F0CF44E051E060E070E084309105E2
:1058100039F040EF50E060E070E0059709F0F4CB1C
:105820008FE797E00E94FC0B8091C403811110C0A8
:1058300081E08093C40383E080931B0210924107B0
:105840001092420789E092E00E94BA190E94A719BB
:10585000809169078823D9F081E697E00E94860B42
:105860006233710581059105D0F58CE092E00E94CC
:10587000BA1981E697E00E94CC0B882341F044E6F8
:1058800050E060E070E081E697E00E94FC0B8091C0
:10589000C2039091C303992309F444C1811103C049
:1058A00081E08093C2038091C0039091C10399234A
:1058B00009F43EC1811103C081E08093C00390913F
:1058C000F8078091F307981307C090913D088091E5
:1058D0003808981709F458CF0E94401C55CF8CE027
:1058E00092E00E945618C5CF81E0EAC089E00430FA
:1058F000110529F08AE00530110509F011C10E9457
:1059000030128DE497E00E94CC0B882389F110912E
:10591000E603111151C00E945D161092000710920B
:10592000FF061092FE06D0921007C0920F07109249
:105930000B0710920C070E944013B0920E07A09222
:105940000D0785E00E9408026093E3037093E4036F
:105950008093E5031F5F1093E6031C3008F05CC0E2
:1059600048E250E060E070E08DE497E00E94FC0BBC
:105970008BE697E00E94CC0B882341F044EF51E086
:1059800060E070E08BE697E00E94FC0B81EF98E00E
:105990000E94CC0B882369F08091FB080E9461056E
:1059A00040911B0250E070E060E081EF98E00E94BF
:1059B000FC0B0E9471093BC9EFEFE10FEB3050F691
:1059C000F0E08827E951F34D8F4F0C94FA2DF22C1B
:1059D000F42CF62CF82CF62CF82CF62CFA2CFC2CAB
:1059E000FE2CF82C88E0AECF8AE0ACCF81E0AACFC5
:1059F00080E0A8CF89E0A6CF87E0A4CF85E00E9411
:105A000008026093E3037093E4038093E50388E165
:105A100092E00E94BA199ECF88E192E00E94561847
:105A200010925507109256071092E6030E945D16D9
:105A300085E090E090930E0780930D0799CF8091B9
:105A4000CA03853008F4F5CB8091C8039091C9034F
:105A50000597029708F4EDCB85E090E00E94E411F1
:105A6000EE24E39410E000E020E04091F30560E0D4
:105A700085E090E00E948B1381E190E00E94E411A8
:105A800020E04091F30560E081E190E00E948B13FB
:105A90003092C9032092C8031092CA034EE551E028
:105AA00060E070E08FE297E00E94FC0B0E9490188B
:105AB00080915507882309F417CF8091E70381501F
:105AC0000E94CC168091CC039091CD03019709F0F0
:105AD00018CF0091E7031091E80380911B06811114
